{
  "_format": "hh-sol-artifact-1",
  "contractName": "MarketingVault",
  "sourceName": "contracts/MarketingVault.sol",
  "abi": [
    {
      "inputs": [
        {
          "internalType": "address",
          "name": "_signer",
          "type": "address"
        },
        {
          "internalType": "address",
          "name": "_owner",
          "type": "address"
        }
      ],
      "stateMutability": "nonpayable",
      "type": "constructor"
    },
    {
      "inputs": [],
      "name": "ECDSAInvalidSignature",
      "type": "error"
    },
    {
      "inputs": [
        {
          "internalType": "uint256",
          "name": "length",
          "type": "uint256"
        }
      ],
      "name": "ECDSAInvalidSignatureLength",
      "type": "error"
    },
    {
      "inputs": [
        {
          "internalType": "bytes32",
          "name": "s",
          "type": "bytes32"
        }
      ],
      "name": "ECDSAInvalidSignatureS",
      "type": "error"
    },
    {
      "inputs": [],
      "name": "InvalidShortString",
      "type": "error"
    },
    {
      "inputs": [
        {
          "internalType": "address",
          "name": "owner",
          "type": "address"
        }
      ],
      "name": "OwnableInvalidOwner",
      "type": "error"
    },
    {
      "inputs": [
        {
          "internalType": "address",
          "name": "account",
          "type": "address"
        }
      ],
      "name": "OwnableUnauthorizedAccount",
      "type": "error"
    },
    {
      "inputs": [],
      "name": "ReentrancyGuardReentrantCall",
      "type": "error"
    },
    {
      "inputs": [
        {
          "internalType": "string",
          "name": "str",
          "type": "string"
        }
      ],
      "name": "StringTooLong",
      "type": "error"
    },
    {
      "anonymous": false,
      "inputs": [
        {
          "indexed": true,
          "internalType": "address",
          "name": "recipient",
          "type": "address"
        },
        {
          "indexed": false,
          "internalType": "uint256",
          "name": "amount",
          "type": "uint256"
        },
        {
          "indexed": false,
          "internalType": "uint256",
          "name": "nonce",
          "type": "uint256"
        }
      ],
      "name": "ApprovedPaymentClaimed",
      "type": "event"
    },
    {
      "anonymous": false,
      "inputs": [
        {
          "indexed": true,
          "internalType": "address",
          "name": "sender",
          "type": "address"
        },
        {
          "indexed": false,
          "internalType": "uint256",
          "name": "amount",
          "type": "uint256"
        }
      ],
      "name": "Deposited",
      "type": "event"
    },
    {
      "anonymous": false,
      "inputs": [],
      "name": "EIP712DomainChanged",
      "type": "event"
    },
    {
      "anonymous": false,
      "inputs": [
        {
          "indexed": true,
          "internalType": "address",
          "name": "previousOwner",
          "type": "address"
        },
        {
          "indexed": true,
          "internalType": "address",
          "name": "newOwner",
          "type": "address"
        }
      ],
      "name": "OwnershipTransferred",
      "type": "event"
    },
    {
      "anonymous": false,
      "inputs": [
        {
          "indexed": true,
          "internalType": "address",
          "name": "oldSigner",
          "type": "address"
        },
        {
          "indexed": true,
          "internalType": "address",
          "name": "newSigner",
          "type": "address"
        }
      ],
      "name": "SignerUpdated",
      "type": "event"
    },
    {
      "inputs": [],
      "name": "CLAIM_TYPEHASH",
      "outputs": [
        {
          "internalType": "bytes32",
          "name": "",
          "type": "bytes32"
        }
      ],
      "stateMutability": "view",
      "type": "function"
    },
    {
      "inputs": [
        {
          "internalType": "uint256",
          "name": "_amount",
          "type": "uint256"
        },
        {
          "internalType": "uint256",
          "name": "_nonce",
          "type": "uint256"
        },
        {
          "internalType": "uint256",
          "name": "_deadline",
          "type": "uint256"
        },
        {
          "internalType": "bytes",
          "name": "_sig",
          "type": "bytes"
        }
      ],
      "name": "claimApprovedPayment",
      "outputs": [],
      "stateMutability": "nonpayable",
      "type": "function"
    },
    {
      "inputs": [
        {
          "internalType": "address",
          "name": "",
          "type": "address"
        }
      ],
      "name": "claimed",
      "outputs": [
        {
          "internalType": "uint256",
          "name": "",
          "type": "uint256"
        }
      ],
      "stateMutability": "view",
      "type": "function"
    },
    {
      "inputs": [],
      "name": "eip712Domain",
      "outputs": [
        {
          "internalType": "bytes1",
          "name": "fields",
          "type": "bytes1"
        },
        {
          "internalType": "string",
          "name": "name",
          "type": "string"
        },
        {
          "internalType": "string",
          "name": "version",
          "type": "string"
        },
        {
          "internalType": "uint256",
          "name": "chainId",
          "type": "uint256"
        },
        {
          "internalType": "address",
          "name": "verifyingContract",
          "type": "address"
        },
        {
          "internalType": "bytes32",
          "name": "salt",
          "type": "bytes32"
        },
        {
          "internalType": "uint256[]",
          "name": "extensions",
          "type": "uint256[]"
        }
      ],
      "stateMutability": "view",
      "type": "function"
    },
    {
      "inputs": [
        {
          "internalType": "address",
          "name": "",
          "type": "address"
        }
      ],
      "name": "nonces",
      "outputs": [
        {
          "internalType": "uint256",
          "name": "",
          "type": "uint256"
        }
      ],
      "stateMutability": "view",
      "type": "function"
    },
    {
      "inputs": [],
      "name": "owner",
      "outputs": [
        {
          "internalType": "address",
          "name": "",
          "type": "address"
        }
      ],
      "stateMutability": "view",
      "type": "function"
    },
    {
      "inputs": [],
      "name": "renounceOwnership",
      "outputs": [],
      "stateMutability": "nonpayable",
      "type": "function"
    },
    {
      "inputs": [
        {
          "internalType": "address",
          "name": "_signer",
          "type": "address"
        }
      ],
      "name": "setSigner",
      "outputs": [],
      "stateMutability": "nonpayable",
      "type": "function"
    },
    {
      "inputs": [],
      "name": "signer",
      "outputs": [
        {
          "internalType": "address",
          "name": "",
          "type": "address"
        }
      ],
      "stateMutability": "view",
      "type": "function"
    },
    {
      "inputs": [],
      "name": "totalClaimed",
      "outputs": [
        {
          "internalType": "uint256",
          "name": "",
          "type": "uint256"
        }
      ],
      "stateMutability": "view",
      "type": "function"
    },
    {
      "inputs": [
        {
          "internalType": "address",
          "name": "newOwner",
          "type": "address"
        }
      ],
      "name": "transferOwnership",
      "outputs": [],
      "stateMutability": "nonpayable",
      "type": "function"
    },
    {
      "stateMutability": "payable",
      "type": "receive"
    }
  ],
  "bytecode": "0x6101608060405234610245576040816112b680380380916100208285610249565b8339810103126102455761003f602061003883610280565b9201610280565b6040519061004e604083610249565b600e8252602082016d13585c9ad95d1a5b99d5985d5b1d60921b815260405192610079604085610249565b60018452603160f81b60208501908152926001600160a01b03168015610232575f80546001600160a01b03198116831782556001600160a01b0316907f8be0079c531659141344cd1fd0a4f28419497f9722a3daafe3b4186f6b6457e09080a360017f9b779b17422d0df92223018b32b4d1fa46e071723d6817e2486d003becc55f005561010681610294565b610120526101138461042f565b61014052519020918260e05251902080610100524660a0526040519060208201927f8b73c3c69bb8fe3d512ecc4cf759cc79239f7b179b0ffacaa9a75d522b39400f8452604083015260608201524660808201523060a082015260a0815261017c60c082610249565b5190206080523060c0526001600160a01b031680156101fa57600380546001600160a01b031916919091179055604051610d4e9081610568823960805181610901015260a051816109be015260c051816108cb015260e0518161095001526101005181610976015261012051816101f20152610140518161021b0152f35b60405162461bcd60e51b815260206004820152601060248201526f26a5aa1d103d32b9379039b4b3b732b960811b6044820152606490fd5b631e4fbdf760e01b5f525f60045260245ffd5b5f80fd5b601f909101601f19168101906001600160401b0382119082101761026c57604052565b634e487b7160e01b5f52604160045260245ffd5b51906001600160a01b038216820361024557565b908151602081105f1461030e575090601f8151116102ce5760208151910151602082106102bf571790565b5f198260200360031b1b161790565b604460209160405192839163305a27a960e01b83528160048401528051918291826024860152018484015e5f828201840152601f01601f19168101030190fd5b6001600160401b03811161026c57600154600181811c91168015610425575b602082101461041157601f81116103de575b50602092601f821160011461037d57928192935f92610372575b50508160011b915f199060031b1c19161760015560ff90565b015190505f80610359565b601f1982169360015f52805f20915f5b8681106103c657508360019596106103ae575b505050811b0160015560ff90565b01515f1960f88460031b161c191690555f80806103a0565b9192602060018192868501518155019401920161038d565b60015f52601f60205f20910160051c810190601f830160051c015b818110610406575061033f565b5f81556001016103f9565b634e487b7160e01b5f52602260045260245ffd5b90607f169061032d565b908151602081105f1461045a575090601f8151116102ce5760208151910151602082106102bf571790565b6001600160401b03811161026c57600254600181811c9116801561055d575b602082101461041157601f811161052a575b50602092601f82116001146104c957928192935f926104be575b50508160011b915f199060031b1c19161760025560ff90565b015190505f806104a5565b601f1982169360025f52805f20915f5b86811061051257508360019596106104fa575b505050811b0160025560ff90565b01515f1960f88460031b161c191690555f80806104ec565b919260206001819286850151815501940192016104d9565b60025f52601f60205f20910160051c810190601f830160051c015b818110610552575061048b565b5f8155600101610545565b90607f169061047956fe6080806040526004361015610048575b50361561001a575f80fd5b6040513481527f2da466a7b24304f47e87fa2e1e5a81b9831ce54fec19055ce277ca2f39ba42c460203392a2005b5f3560e01c908163238ac933146107fc575080636b0509b1146107c25780636c19e78314610714578063715018a6146106bd57806376d9e4581461030e5780637ecebe00146102d257806384b0196e146101da5780638da5cb5b146101b3578063c884ef8314610177578063d54ad2a11461015a5763f2fde38b146100cd575f61000f565b34610156576020366003190112610156576004356001600160a01b03811690819003610156576100fb6108a2565b8015610143575f80546001600160a01b03198116831782556001600160a01b0316907f8be0079c531659141344cd1fd0a4f28419497f9722a3daafe3b4186f6b6457e09080a3005b631e4fbdf760e01b5f525f60045260245ffd5b5f80fd5b34610156575f366003190112610156576020600654604051908152f35b34610156576020366003190112610156576004356001600160a01b03811690819003610156575f526005602052602060405f2054604051908152f35b34610156575f366003190112610156575f546040516001600160a01b039091168152602090f35b34610156575f366003190112610156576102766102167f0000000000000000000000000000000000000000000000000000000000000000610a92565b61023f7f0000000000000000000000000000000000000000000000000000000000000000610bbb565b6020610284604051926102528385610843565b5f84525f368137604051958695600f60f81b875260e08588015260e087019061081f565b90858203604087015261081f565b4660608501523060808501525f60a085015283810360c08501528180845192838152019301915f5b8281106102bb57505050500390f35b8351855286955093810193928101926001016102ac565b34610156576020366003190112610156576004356001600160a01b03811690819003610156575f526004602052602060405f2054604051908152f35b346101565760803660031901126101565760043560243560643560443567ffffffffffffffff821161015657366023830112156101565781600401359167ffffffffffffffff83116101565736602484830101116101565760027f9b779b17422d0df92223018b32b4d1fa46e071723d6817e2486d003becc55f0054146106ae5760027f9b779b17422d0df92223018b32b4d1fa46e071723d6817e2486d003becc55f005581421161067a57335f52600460205260405f2054840361064057841561060857610488925f6020604261047f95604051838101917f1331222e9152ff6ce0ad52f94364f233f09e35fe90b5c6b3c0598311a087481b83523360408301528b60608301528a608083015260a082015260a0815261043060c082610843565b51902061043b6108c8565b906040519161190160f01b835260028301526022820152209280602461046082610879565b9661046e6040519889610843565b8288520183870137840101526109e4565b90929192610a1e565b6003546001600160a01b039081169116036105ca57335f52600460205260405f2080545f1981146105b6576001019055335f52600560205260405f206104cf838254610895565b90556104dd82600654610895565b6006555f80808085335af13d156105b1573d6104f881610879565b906105066040519283610843565b81525f60203d92013e5b1561056c5760405191825260208201527f2e3fc7f3f4be5ffc138a6a35bad9c7436668d4c3d2d78fba8405cdf737e481d260403392a260017f9b779b17422d0df92223018b32b4d1fa46e071723d6817e2486d003becc55f0055005b60405162461bcd60e51b815260206004820152601860248201527f4d4b543a20424e42207472616e73666572206661696c656400000000000000006044820152606490fd5b610510565b634e487b7160e01b5f52601160045260245ffd5b60405162461bcd60e51b81526020600482015260166024820152754d4b543a20696e76616c6964207369676e617475726560501b6044820152606490fd5b60405162461bcd60e51b815260206004820152601060248201526f1352d50e881e995c9bc8185b5bdd5b9d60821b6044820152606490fd5b60405162461bcd60e51b81526020600482015260126024820152714d4b543a20696e76616c6964206e6f6e636560701b6044820152606490fd5b60405162461bcd60e51b815260206004820152600c60248201526b1352d50e88195e1c1a5c995960a21b6044820152606490fd5b633ee5aeb560e01b5f5260045ffd5b34610156575f366003190112610156576106d56108a2565b5f80546001600160a01b0319811682556001600160a01b03167f8be0079c531659141344cd1fd0a4f28419497f9722a3daafe3b4186f6b6457e08280a3005b34610156576020366003190112610156576004356001600160a01b03811690819003610156576107426108a2565b801561078a57600354816001600160a01b0382167f2d025324f0a785e8c12d0a0d91a9caa49df4ef20ff87e0df7213a1d4f3157beb5f80a36001600160a01b03191617600355005b60405162461bcd60e51b815260206004820152601060248201526f26a5aa1d103d32b9379039b4b3b732b960811b6044820152606490fd5b34610156575f3660031901126101565760206040517f1331222e9152ff6ce0ad52f94364f233f09e35fe90b5c6b3c0598311a087481b8152f35b34610156575f366003190112610156576003546001600160a01b03168152602090f35b805180835260209291819084018484015e5f828201840152601f01601f1916010190565b90601f8019910116810190811067ffffffffffffffff82111761086557604052565b634e487b7160e01b5f52604160045260245ffd5b67ffffffffffffffff811161086557601f01601f191660200190565b919082018092116105b657565b5f546001600160a01b031633036108b557565b63118cdaa760e01b5f523360045260245ffd5b307f00000000000000000000000000000000000000000000000000000000000000006001600160a01b031614806109bb575b15610923577f000000000000000000000000000000000000000000000000000000000000000090565b60405160208101907f8b73c3c69bb8fe3d512ecc4cf759cc79239f7b179b0ffacaa9a75d522b39400f82527f000000000000000000000000000000000000000000000000000000000000000060408201527f000000000000000000000000000000000000000000000000000000000000000060608201524660808201523060a082015260a081526109b560c082610843565b51902090565b507f000000000000000000000000000000000000000000000000000000000000000046146108fa565b8151919060418303610a1457610a0d9250602082015190606060408401519301515f1a90610c8b565b9192909190565b50505f9160029190565b6004811015610a7e5780610a30575050565b60018103610a475763f645eedf60e01b5f5260045ffd5b60028103610a62575063fce698f760e01b5f5260045260245ffd5b600314610a6c5750565b6335e2f38360e21b5f5260045260245ffd5b634e487b7160e01b5f52602160045260245ffd5b60ff8114610ad85760ff811690601f8211610ac95760405191610ab6604084610843565b6020808452838101919036833783525290565b632cd44ac360e21b5f5260045ffd5b506040515f6001548060011c9160018216918215610bb1575b602084108314610b9d578385528492908115610b7e5750600114610b1f575b610b1c92500382610843565b90565b5060015f90815290917fb10e2d527612073b26eecdfd717e6a320cf44b4afac2b0732d9fcbe2b7fa0cf65b818310610b62575050906020610b1c92820101610b10565b6020919350806001915483858801015201910190918392610b4a565b60209250610b1c94915060ff191682840152151560051b820101610b10565b634e487b7160e01b5f52602260045260245ffd5b92607f1692610af1565b60ff8114610bdf5760ff811690601f8211610ac95760405191610ab6604084610843565b506040515f6002548060011c9160018216918215610c81575b602084108314610b9d578385528492908115610b7e5750600114610c2257610b1c92500382610843565b5060025f90815290917f405787fa12a823e0f2b7631cc41b3ba8828b3321ca811111fa75cd3aa3bb5ace5b818310610c65575050906020610b1c92820101610b10565b6020919350806001915483858801015201910190918392610c4d565b92607f1692610bf8565b91907f7fffffffffffffffffffffffffffffff5d576e7357a4501ddfe92f46681b20a08411610d0d579160209360809260ff5f9560405194855216868401526040830152606082015282805260015afa15610d02575f516001600160a01b03811615610cf857905f905f90565b505f906001905f90565b6040513d5f823e3d90fd5b5050505f916003919056fea26469706673582212203056aa6eaecae86add35c1467195955e57b18317ca4c499836be5c9c66a076d964736f6c634300081c0033",
  "linkReferences": {},
  "deployedLinkReferences": {}
}