{
  "_format": "hh-sol-artifact-1",
  "contractName": "MarketingVault",
  "sourceName": "contracts/MarketingVault.sol",
  "abi": [
    {
      "inputs": [
        {
          "internalType": "address",
          "name": "_signer",
          "type": "address"
        },
        {
          "internalType": "address",
          "name": "_owner",
          "type": "address"
        }
      ],
      "stateMutability": "nonpayable",
      "type": "constructor"
    },
    {
      "inputs": [],
      "name": "ECDSAInvalidSignature",
      "type": "error"
    },
    {
      "inputs": [
        {
          "internalType": "uint256",
          "name": "length",
          "type": "uint256"
        }
      ],
      "name": "ECDSAInvalidSignatureLength",
      "type": "error"
    },
    {
      "inputs": [
        {
          "internalType": "bytes32",
          "name": "s",
          "type": "bytes32"
        }
      ],
      "name": "ECDSAInvalidSignatureS",
      "type": "error"
    },
    {
      "inputs": [],
      "name": "InvalidShortString",
      "type": "error"
    },
    {
      "inputs": [
        {
          "internalType": "address",
          "name": "owner",
          "type": "address"
        }
      ],
      "name": "OwnableInvalidOwner",
      "type": "error"
    },
    {
      "inputs": [
        {
          "internalType": "address",
          "name": "account",
          "type": "address"
        }
      ],
      "name": "OwnableUnauthorizedAccount",
      "type": "error"
    },
    {
      "inputs": [],
      "name": "ReentrancyGuardReentrantCall",
      "type": "error"
    },
    {
      "inputs": [
        {
          "internalType": "string",
          "name": "str",
          "type": "string"
        }
      ],
      "name": "StringTooLong",
      "type": "error"
    },
    {
      "anonymous": false,
      "inputs": [
        {
          "indexed": true,
          "internalType": "address",
          "name": "recipient",
          "type": "address"
        },
        {
          "indexed": false,
          "internalType": "uint256",
          "name": "amount",
          "type": "uint256"
        },
        {
          "indexed": false,
          "internalType": "uint256",
          "name": "nonce",
          "type": "uint256"
        }
      ],
      "name": "ApprovedPaymentClaimed",
      "type": "event"
    },
    {
      "anonymous": false,
      "inputs": [
        {
          "indexed": true,
          "internalType": "address",
          "name": "sender",
          "type": "address"
        },
        {
          "indexed": false,
          "internalType": "uint256",
          "name": "amount",
          "type": "uint256"
        }
      ],
      "name": "Deposited",
      "type": "event"
    },
    {
      "anonymous": false,
      "inputs": [],
      "name": "EIP712DomainChanged",
      "type": "event"
    },
    {
      "anonymous": false,
      "inputs": [
        {
          "indexed": true,
          "internalType": "address",
          "name": "previousOwner",
          "type": "address"
        },
        {
          "indexed": true,
          "internalType": "address",
          "name": "newOwner",
          "type": "address"
        }
      ],
      "name": "OwnershipTransferred",
      "type": "event"
    },
    {
      "anonymous": false,
      "inputs": [
        {
          "indexed": true,
          "internalType": "address",
          "name": "oldSigner",
          "type": "address"
        },
        {
          "indexed": true,
          "internalType": "address",
          "name": "newSigner",
          "type": "address"
        }
      ],
      "name": "SignerUpdated",
      "type": "event"
    },
    {
      "inputs": [],
      "name": "CLAIM_TYPEHASH",
      "outputs": [
        {
          "internalType": "bytes32",
          "name": "",
          "type": "bytes32"
        }
      ],
      "stateMutability": "view",
      "type": "function"
    },
    {
      "inputs": [
        {
          "internalType": "uint256",
          "name": "_amount",
          "type": "uint256"
        },
        {
          "internalType": "uint256",
          "name": "_nonce",
          "type": "uint256"
        },
        {
          "internalType": "uint256",
          "name": "_deadline",
          "type": "uint256"
        },
        {
          "internalType": "bytes",
          "name": "_sig",
          "type": "bytes"
        }
      ],
      "name": "claimApprovedPayment",
      "outputs": [],
      "stateMutability": "nonpayable",
      "type": "function"
    },
    {
      "inputs": [
        {
          "internalType": "address",
          "name": "",
          "type": "address"
        }
      ],
      "name": "claimed",
      "outputs": [
        {
          "internalType": "uint256",
          "name": "",
          "type": "uint256"
        }
      ],
      "stateMutability": "view",
      "type": "function"
    },
    {
      "inputs": [],
      "name": "eip712Domain",
      "outputs": [
        {
          "internalType": "bytes1",
          "name": "fields",
          "type": "bytes1"
        },
        {
          "internalType": "string",
          "name": "name",
          "type": "string"
        },
        {
          "internalType": "string",
          "name": "version",
          "type": "string"
        },
        {
          "internalType": "uint256",
          "name": "chainId",
          "type": "uint256"
        },
        {
          "internalType": "address",
          "name": "verifyingContract",
          "type": "address"
        },
        {
          "internalType": "bytes32",
          "name": "salt",
          "type": "bytes32"
        },
        {
          "internalType": "uint256[]",
          "name": "extensions",
          "type": "uint256[]"
        }
      ],
      "stateMutability": "view",
      "type": "function"
    },
    {
      "inputs": [
        {
          "internalType": "address",
          "name": "",
          "type": "address"
        }
      ],
      "name": "nonces",
      "outputs": [
        {
          "internalType": "uint256",
          "name": "",
          "type": "uint256"
        }
      ],
      "stateMutability": "view",
      "type": "function"
    },
    {
      "inputs": [],
      "name": "owner",
      "outputs": [
        {
          "internalType": "address",
          "name": "",
          "type": "address"
        }
      ],
      "stateMutability": "view",
      "type": "function"
    },
    {
      "inputs": [],
      "name": "renounceOwnership",
      "outputs": [],
      "stateMutability": "nonpayable",
      "type": "function"
    },
    {
      "inputs": [
        {
          "internalType": "address",
          "name": "_signer",
          "type": "address"
        }
      ],
      "name": "setSigner",
      "outputs": [],
      "stateMutability": "nonpayable",
      "type": "function"
    },
    {
      "inputs": [],
      "name": "signer",
      "outputs": [
        {
          "internalType": "address",
          "name": "",
          "type": "address"
        }
      ],
      "stateMutability": "view",
      "type": "function"
    },
    {
      "inputs": [],
      "name": "totalClaimed",
      "outputs": [
        {
          "internalType": "uint256",
          "name": "",
          "type": "uint256"
        }
      ],
      "stateMutability": "view",
      "type": "function"
    },
    {
      "inputs": [
        {
          "internalType": "address",
          "name": "newOwner",
          "type": "address"
        }
      ],
      "name": "transferOwnership",
      "outputs": [],
      "stateMutability": "nonpayable",
      "type": "function"
    },
    {
      "stateMutability": "payable",
      "type": "receive"
    }
  ],
  "bytecode": "0x610160604052348015610010575f5ffd5b506040516113e83803806113e883398101604081905261002f916102c1565b604080518082018252600e81526d13585c9ad95d1a5b99d5985d5b1d60921b602080830191909152825180840190935260018352603160f81b9083015290826001600160a01b03811661009c57604051631e4fbdf760e01b81525f60048201526024015b60405180910390fd5b6100a5816101e8565b5060017f9b779b17422d0df92223018b32b4d1fa46e071723d6817e2486d003becc55f00556100d5826001610237565b610120526100e4816002610237565b61014052815160208084019190912060e052815190820120610100524660a05261017060e05161010051604080517f8b73c3c69bb8fe3d512ecc4cf759cc79239f7b179b0ffacaa9a75d522b39400f60208201529081019290925260608201524660808201523060a08201525f9060c00160405160208183030381529060405280519060200120905090565b60805250503060c0526001600160a01b0382166101c25760405162461bcd60e51b815260206004820152601060248201526f26a5aa1d103d32b9379039b4b3b732b960811b6044820152606401610093565b50600380546001600160a01b0319166001600160a01b039290921691909117905561049c565b5f80546001600160a01b038381166001600160a01b0319831681178455604051919092169283917f8be0079c531659141344cd1fd0a4f28419497f9722a3daafe3b4186f6b6457e09190a35050565b5f6020835110156102525761024b83610269565b9050610263565b8161025d848261038a565b5060ff90505b92915050565b5f5f829050601f81511115610293578260405163305a27a960e01b81526004016100939190610444565b805161029e82610479565b179392505050565b80516001600160a01b03811681146102bc575f5ffd5b919050565b5f5f604083850312156102d2575f5ffd5b6102db836102a6565b91506102e9602084016102a6565b90509250929050565b634e487b7160e01b5f52604160045260245ffd5b600181811c9082168061031a57607f821691505b60208210810361033857634e487b7160e01b5f52602260045260245ffd5b50919050565b601f82111561038557805f5260205f20601f840160051c810160208510156103635750805b601f840160051c820191505b81811015610382575f815560010161036f565b50505b505050565b81516001600160401b038111156103a3576103a36102f2565b6103b7816103b18454610306565b8461033e565b6020601f8211600181146103e9575f83156103d25750848201515b5f19600385901b1c1916600184901b178455610382565b5f84815260208120601f198516915b8281101561041857878501518255602094850194600190920191016103f8565b508482101561043557868401515f19600387901b60f8161c191681555b50505050600190811b01905550565b602081525f82518060208401528060208501604085015e5f604082850101526040601f19601f83011684010191505092915050565b80516020808301519190811015610338575f1960209190910360031b1b16919050565b60805160a05160c05160e051610100516101205161014051610efb6104ed5f395f61085701525f61082501525f61099801525f61097001525f6108cb01525f6108f501525f61091f0152610efb5ff3fe60806040526004361061009d575f3560e01c80637ecebe00116100625780637ecebe00146101ae57806384b0196e146101d95780638da5cb5b14610200578063c884ef831461021c578063d54ad2a114610247578063f2fde38b1461025c575f5ffd5b8063238ac933146100dd5780636b0509b1146101195780636c19e7831461015a578063715018a61461017b57806376d9e4581461018f575f5ffd5b366100d95760405134815233907f2da466a7b24304f47e87fa2e1e5a81b9831ce54fec19055ce277ca2f39ba42c49060200160405180910390a2005b5f5ffd5b3480156100e8575f5ffd5b506003546100fc906001600160a01b031681565b6040516001600160a01b0390911681526020015b60405180910390f35b348015610124575f5ffd5b5061014c7f1331222e9152ff6ce0ad52f94364f233f09e35fe90b5c6b3c0598311a087481b81565b604051908152602001610110565b348015610165575f5ffd5b50610179610174366004610cc2565b61027b565b005b348015610186575f5ffd5b5061017961032c565b34801561019a575f5ffd5b506101796101a9366004610cef565b61033f565b3480156101b9575f5ffd5b5061014c6101c8366004610cc2565b60046020525f908152604090205481565b3480156101e4575f5ffd5b506101ed6105f8565b6040516101109796959493929190610da4565b34801561020b575f5ffd5b505f546001600160a01b03166100fc565b348015610227575f5ffd5b5061014c610236366004610cc2565b60056020525f908152604090205481565b348015610252575f5ffd5b5061014c60065481565b348015610267575f5ffd5b50610179610276366004610cc2565b61063a565b610283610677565b6001600160a01b0381166102d15760405162461bcd60e51b815260206004820152601060248201526f26a5aa1d103d32b9379039b4b3b732b960811b60448201526064015b60405180910390fd5b6003546040516001600160a01b038084169216907f2d025324f0a785e8c12d0a0d91a9caa49df4ef20ff87e0df7213a1d4f3157beb905f90a3600380546001600160a01b0319166001600160a01b0392909216919091179055565b610334610677565b61033d5f6106a3565b565b6103476106f2565b824211156103865760405162461bcd60e51b815260206004820152600c60248201526b1352d50e88195e1c1a5c995960a21b60448201526064016102c8565b335f9081526004602052604090205484146103d85760405162461bcd60e51b81526020600482015260126024820152714d4b543a20696e76616c6964206e6f6e636560701b60448201526064016102c8565b5f851161041a5760405162461bcd60e51b815260206004820152601060248201526f1352d50e881e995c9bc8185b5bdd5b9d60821b60448201526064016102c8565b604080517f1331222e9152ff6ce0ad52f94364f233f09e35fe90b5c6b3c0598311a087481b60208201523391810191909152606081018690526080810185905260a081018490525f9060c0016040516020818303038152906040528051906020012090505f61048882610720565b90505f6104cc85858080601f0160208091040260200160405190810160405280939291908181526020018383808284375f9201919091525086939250506107529050565b6003549091506001600160a01b038083169116146105255760405162461bcd60e51b81526020600482015260166024820152754d4b543a20696e76616c6964207369676e617475726560501b60448201526064016102c8565b335f90815260046020526040812080549161053f83610e4e565b9091555050335f90815260056020526040812080548a9290610562908490610e66565b925050819055508760065f82825461057a9190610e66565b9091555061058a9050338961077a565b604080518981526020810189905233917f2e3fc7f3f4be5ffc138a6a35bad9c7436668d4c3d2d78fba8405cdf737e481d2910160405180910390a25050506105f160017f9b779b17422d0df92223018b32b4d1fa46e071723d6817e2486d003becc55f0055565b5050505050565b5f6060805f5f5f606061060961081e565b610611610850565b604080515f80825260208201909252600f60f81b9b939a50919850469750309650945092509050565b610642610677565b6001600160a01b03811661066b57604051631e4fbdf760e01b81525f60048201526024016102c8565b610674816106a3565b50565b5f546001600160a01b0316331461033d5760405163118cdaa760e01b81523360048201526024016102c8565b5f80546001600160a01b038381166001600160a01b0319831681178455604051919092169283917f8be0079c531659141344cd1fd0a4f28419497f9722a3daafe3b4186f6b6457e09190a35050565b6106fa61087d565b60027f9b779b17422d0df92223018b32b4d1fa46e071723d6817e2486d003becc55f0055565b5f61074c61072c6108bf565b8360405161190160f01b8152600281019290925260228201526042902090565b92915050565b5f5f5f5f61076086866109e8565b9250925092506107708282610a31565b5090949350505050565b5f826001600160a01b0316826040515f6040518083038185875af1925050503d805f81146107c3576040519150601f19603f3d011682016040523d82523d5f602084013e6107c8565b606091505b50509050806108195760405162461bcd60e51b815260206004820152601860248201527f4d4b543a20424e42207472616e73666572206661696c6564000000000000000060448201526064016102c8565b505050565b606061084b7f00000000000000000000000000000000000000000000000000000000000000006001610aed565b905090565b606061084b7f00000000000000000000000000000000000000000000000000000000000000006002610aed565b7f9b779b17422d0df92223018b32b4d1fa46e071723d6817e2486d003becc55f005460020361033d57604051633ee5aeb560e01b815260040160405180910390fd5b5f306001600160a01b037f00000000000000000000000000000000000000000000000000000000000000001614801561091757507f000000000000000000000000000000000000000000000000000000000000000046145b1561094157507f000000000000000000000000000000000000000000000000000000000000000090565b61084b604080517f8b73c3c69bb8fe3d512ecc4cf759cc79239f7b179b0ffacaa9a75d522b39400f60208201527f0000000000000000000000000000000000000000000000000000000000000000918101919091527f000000000000000000000000000000000000000000000000000000000000000060608201524660808201523060a08201525f9060c00160405160208183030381529060405280519060200120905090565b5f5f5f8351604103610a1f576020840151604085015160608601515f1a610a1188828585610b96565b955095509550505050610a2a565b505081515f91506002905b9250925092565b5f826003811115610a4457610a44610e79565b03610a4d575050565b6001826003811115610a6157610a61610e79565b03610a7f5760405163f645eedf60e01b815260040160405180910390fd5b6002826003811115610a9357610a93610e79565b03610ab45760405163fce698f760e01b8152600481018290526024016102c8565b6003826003811115610ac857610ac8610e79565b03610ae9576040516335e2f38360e21b8152600481018290526024016102c8565b5050565b606060ff8314610b0757610b0083610c5e565b905061074c565b818054610b1390610e8d565b80601f0160208091040260200160405190810160405280929190818152602001828054610b3f90610e8d565b8015610b8a5780601f10610b6157610100808354040283529160200191610b8a565b820191905f5260205f20905b815481529060010190602001808311610b6d57829003601f168201915b5050505050905061074c565b5f80807f7fffffffffffffffffffffffffffffff5d576e7357a4501ddfe92f46681b20a0841115610bcf57505f91506003905082610c54565b604080515f808252602082018084528a905260ff891692820192909252606081018790526080810186905260019060a0016020604051602081039080840390855afa158015610c20573d5f5f3e3d5ffd5b5050604051601f1901519150506001600160a01b038116610c4b57505f925060019150829050610c54565b92505f91508190505b9450945094915050565b60605f610c6a83610c9b565b6040805160208082528183019092529192505f91906020820181803683375050509182525060208101929092525090565b5f60ff8216601f81111561074c57604051632cd44ac360e21b815260040160405180910390fd5b5f60208284031215610cd2575f5ffd5b81356001600160a01b0381168114610ce8575f5ffd5b9392505050565b5f5f5f5f5f60808688031215610d03575f5ffd5b853594506020860135935060408601359250606086013567ffffffffffffffff811115610d2e575f5ffd5b8601601f81018813610d3e575f5ffd5b803567ffffffffffffffff811115610d54575f5ffd5b886020828401011115610d65575f5ffd5b959894975092955050506020019190565b5f81518084528060208401602086015e5f602082860101526020601f19601f83011685010191505092915050565b60ff60f81b8816815260e060208201525f610dc260e0830189610d76565b8281036040840152610dd48189610d76565b606084018890526001600160a01b038716608085015260a0840186905283810360c0850152845180825260208087019350909101905f5b81811015610e29578351835260209384019390920191600101610e0b565b50909b9a5050505050505050505050565b634e487b7160e01b5f52601160045260245ffd5b5f60018201610e5f57610e5f610e3a565b5060010190565b8082018082111561074c5761074c610e3a565b634e487b7160e01b5f52602160045260245ffd5b600181811c90821680610ea157607f821691505b602082108103610ebf57634e487b7160e01b5f52602260045260245ffd5b5091905056fea26469706673582212206506b59179e2e71a92ca118e0bf43837ffc81dd100ddf00b34d81f379350e76a64736f6c634300081c0033",
  "linkReferences": {},
  "deployedLinkReferences": {}
}