{
  "_format": "hh-sol-artifact-1",
  "contractName": "TaxReceiver",
  "sourceName": "contracts/TaxReceiver.sol",
  "abi": [
    {
      "inputs": [
        {
          "internalType": "address",
          "name": "_holderDividend",
          "type": "address"
        },
        {
          "internalType": "address",
          "name": "_marketingWallet",
          "type": "address"
        },
        {
          "internalType": "address",
          "name": "_owner",
          "type": "address"
        }
      ],
      "stateMutability": "nonpayable",
      "type": "constructor"
    },
    {
      "inputs": [],
      "name": "BpsOutOfRange",
      "type": "error"
    },
    {
      "inputs": [],
      "name": "NothingToForward",
      "type": "error"
    },
    {
      "inputs": [
        {
          "internalType": "address",
          "name": "owner",
          "type": "address"
        }
      ],
      "name": "OwnableInvalidOwner",
      "type": "error"
    },
    {
      "inputs": [
        {
          "internalType": "address",
          "name": "account",
          "type": "address"
        }
      ],
      "name": "OwnableUnauthorizedAccount",
      "type": "error"
    },
    {
      "inputs": [],
      "name": "ReentrancyGuardReentrantCall",
      "type": "error"
    },
    {
      "inputs": [],
      "name": "TransferFailed",
      "type": "error"
    },
    {
      "inputs": [],
      "name": "ZeroAddress",
      "type": "error"
    },
    {
      "anonymous": false,
      "inputs": [
        {
          "indexed": false,
          "internalType": "uint256",
          "name": "dividendBps",
          "type": "uint256"
        }
      ],
      "name": "AllocationUpdated",
      "type": "event"
    },
    {
      "anonymous": false,
      "inputs": [
        {
          "indexed": false,
          "internalType": "uint256",
          "name": "amount",
          "type": "uint256"
        }
      ],
      "name": "ForwardedToDividend",
      "type": "event"
    },
    {
      "anonymous": false,
      "inputs": [
        {
          "indexed": true,
          "internalType": "address",
          "name": "wallet",
          "type": "address"
        },
        {
          "indexed": false,
          "internalType": "uint256",
          "name": "amount",
          "type": "uint256"
        }
      ],
      "name": "ForwardedToMarketing",
      "type": "event"
    },
    {
      "anonymous": false,
      "inputs": [
        {
          "indexed": true,
          "internalType": "address",
          "name": "prev",
          "type": "address"
        },
        {
          "indexed": true,
          "internalType": "address",
          "name": "next",
          "type": "address"
        }
      ],
      "name": "HolderDividendUpdated",
      "type": "event"
    },
    {
      "anonymous": false,
      "inputs": [
        {
          "indexed": true,
          "internalType": "address",
          "name": "prev",
          "type": "address"
        },
        {
          "indexed": true,
          "internalType": "address",
          "name": "next",
          "type": "address"
        }
      ],
      "name": "MarketingWalletUpdated",
      "type": "event"
    },
    {
      "anonymous": false,
      "inputs": [
        {
          "indexed": true,
          "internalType": "address",
          "name": "previousOwner",
          "type": "address"
        },
        {
          "indexed": true,
          "internalType": "address",
          "name": "newOwner",
          "type": "address"
        }
      ],
      "name": "OwnershipTransferred",
      "type": "event"
    },
    {
      "anonymous": false,
      "inputs": [
        {
          "indexed": true,
          "internalType": "address",
          "name": "sender",
          "type": "address"
        },
        {
          "indexed": false,
          "internalType": "uint256",
          "name": "amount",
          "type": "uint256"
        }
      ],
      "name": "Received",
      "type": "event"
    },
    {
      "stateMutability": "payable",
      "type": "fallback"
    },
    {
      "inputs": [],
      "name": "TOTAL_BPS",
      "outputs": [
        {
          "internalType": "uint256",
          "name": "",
          "type": "uint256"
        }
      ],
      "stateMutability": "view",
      "type": "function"
    },
    {
      "inputs": [],
      "name": "dividendBps",
      "outputs": [
        {
          "internalType": "uint256",
          "name": "",
          "type": "uint256"
        }
      ],
      "stateMutability": "view",
      "type": "function"
    },
    {
      "inputs": [],
      "name": "emergencyWithdraw",
      "outputs": [],
      "stateMutability": "nonpayable",
      "type": "function"
    },
    {
      "inputs": [],
      "name": "flush",
      "outputs": [],
      "stateMutability": "nonpayable",
      "type": "function"
    },
    {
      "inputs": [
        {
          "internalType": "uint256",
          "name": "amount",
          "type": "uint256"
        }
      ],
      "name": "flushAmount",
      "outputs": [],
      "stateMutability": "nonpayable",
      "type": "function"
    },
    {
      "inputs": [],
      "name": "holderDividend",
      "outputs": [
        {
          "internalType": "address",
          "name": "",
          "type": "address"
        }
      ],
      "stateMutability": "view",
      "type": "function"
    },
    {
      "inputs": [],
      "name": "marketingWallet",
      "outputs": [
        {
          "internalType": "address",
          "name": "",
          "type": "address"
        }
      ],
      "stateMutability": "view",
      "type": "function"
    },
    {
      "inputs": [],
      "name": "owner",
      "outputs": [
        {
          "internalType": "address",
          "name": "",
          "type": "address"
        }
      ],
      "stateMutability": "view",
      "type": "function"
    },
    {
      "inputs": [],
      "name": "renounceOwnership",
      "outputs": [],
      "stateMutability": "nonpayable",
      "type": "function"
    },
    {
      "inputs": [
        {
          "internalType": "uint256",
          "name": "_dividendBps",
          "type": "uint256"
        }
      ],
      "name": "setAllocation",
      "outputs": [],
      "stateMutability": "nonpayable",
      "type": "function"
    },
    {
      "inputs": [
        {
          "internalType": "address",
          "name": "_next",
          "type": "address"
        }
      ],
      "name": "setHolderDividend",
      "outputs": [],
      "stateMutability": "nonpayable",
      "type": "function"
    },
    {
      "inputs": [
        {
          "internalType": "address",
          "name": "_next",
          "type": "address"
        }
      ],
      "name": "setMarketingWallet",
      "outputs": [],
      "stateMutability": "nonpayable",
      "type": "function"
    },
    {
      "inputs": [],
      "name": "totalForwardedToDividend",
      "outputs": [
        {
          "internalType": "uint256",
          "name": "",
          "type": "uint256"
        }
      ],
      "stateMutability": "view",
      "type": "function"
    },
    {
      "inputs": [],
      "name": "totalForwardedToMarketing",
      "outputs": [
        {
          "internalType": "uint256",
          "name": "",
          "type": "uint256"
        }
      ],
      "stateMutability": "view",
      "type": "function"
    },
    {
      "inputs": [],
      "name": "totalReceived",
      "outputs": [
        {
          "internalType": "uint256",
          "name": "",
          "type": "uint256"
        }
      ],
      "stateMutability": "view",
      "type": "function"
    },
    {
      "inputs": [
        {
          "internalType": "address",
          "name": "newOwner",
          "type": "address"
        }
      ],
      "name": "transferOwnership",
      "outputs": [],
      "stateMutability": "nonpayable",
      "type": "function"
    },
    {
      "stateMutability": "payable",
      "type": "receive"
    }
  ],
  "bytecode": "0x6080604052612710600355348015610015575f5ffd5b50604051610bb7380380610bb783398101604081905261003491610153565b806001600160a01b03811661006257604051631e4fbdf760e01b81525f600482015260240160405180910390fd5b61006b816100e9565b5060017f9b779b17422d0df92223018b32b4d1fa46e071723d6817e2486d003becc55f00556001600160a01b0383166100b75760405163d92e233d60e01b815260040160405180910390fd5b50600180546001600160a01b039384166001600160a01b03199182161790915560028054929093169116179055610193565b5f80546001600160a01b038381166001600160a01b0319831681178455604051919092169283917f8be0079c531659141344cd1fd0a4f28419497f9722a3daafe3b4186f6b6457e09190a35050565b80516001600160a01b038116811461014e575f5ffd5b919050565b5f5f5f60608486031215610165575f5ffd5b61016e84610138565b925061017c60208501610138565b915061018a60408501610138565b90509250925092565b610a17806101a05f395ff3fe6080604052600436106100f6575f3560e01c80638da5cb5b11610089578063d3cd52bc11610058578063d3cd52bc146102c3578063db2e21bc146102d8578063e51fde32146102ec578063f2fde38b1461030157610148565b80638da5cb5b1461025a578063a3c2c46214610276578063ac0ab8fc14610299578063d361ea49146102ae57610148565b80636b9f96ea116100c55780636b9f96ea146101f4578063715018a61461020857806375f0a8741461021c5780637db6a9451461023b57610148565b8063250055a8146101595780632bd8d5521461017a57806355d5ea01146101995780635d098b38146101d557610148565b36610148573460045f82825461010c9190610905565b909155505060405134815233907f88a5966d370b9919b20f3e2c13ff65706f196a4e32cc2c12bf57088f885258749060200160405180910390a2005b3460045f82825461010c9190610905565b348015610164575f5ffd5b5061017861017336600461091e565b610320565b005b348015610185575f5ffd5b5061017861019436600461091e565b610372565b3480156101a4575f5ffd5b506001546101b8906001600160a01b031681565b6040516001600160a01b0390911681526020015b60405180910390f35b3480156101e0575f5ffd5b506101786101ef366004610935565b6103d8565b3480156101ff575f5ffd5b5061017861043b565b348015610213575f5ffd5b50610178610487565b348015610227575f5ffd5b506002546101b8906001600160a01b031681565b348015610246575f5ffd5b50610178610255366004610935565b610498565b348015610265575f5ffd5b505f546001600160a01b03166101b8565b348015610281575f5ffd5b5061028b60045481565b6040519081526020016101cc565b3480156102a4575f5ffd5b5061028b60065481565b3480156102b9575f5ffd5b5061028b60055481565b3480156102ce575f5ffd5b5061028b61271081565b3480156102e3575f5ffd5b50610178610522565b3480156102f7575f5ffd5b5061028b60035481565b34801561030c575f5ffd5b5061017861031b366004610935565b6105dd565b61032861061c565b610330610648565b805f03610350576040516331be0bb960e11b815260040160405180910390fd5b61035981610663565b61036f60015f5160206109c25f395f51905f5255565b50565b61037a61061c565b61271081111561039d5760405163063941ff60e31b815260040160405180910390fd5b60038190556040518181527fa7b1e4bad67f3cc85f41113df7138befaff0ffb3f75177d5a8fb7d2e442bd3e09060200160405180910390a150565b6103e061061c565b6002546040516001600160a01b038084169216907f8616c7a330e3cf61290821331585511f1e2778171e2b005fb5ec60cfe874dc67905f90a3600280546001600160a01b0319166001600160a01b0392909216919091179055565b610443610648565b475f819003610465576040516331be0bb960e11b815260040160405180910390fd5b61046e81610663565b5061048560015f5160206109c25f395f51905f5255565b565b61048f61061c565b6104855f610873565b6104a061061c565b6001600160a01b0381166104c75760405163d92e233d60e01b815260040160405180910390fd5b6001546040516001600160a01b038084169216907f94b26e82e0ac7252d24b51ca47ff930d06a0ee1335422d230e2156da06485895905f90a3600180546001600160a01b0319166001600160a01b0392909216919091179055565b61052a61061c565b610532610648565b475f819003610554576040516331be0bb960e11b815260040160405180910390fd5b5f80546040516001600160a01b039091169083908381818185875af1925050503d805f811461059e576040519150601f19603f3d011682016040523d82523d5f602084013e6105a3565b606091505b50509050806105c5576040516312171d8360e31b815260040160405180910390fd5b505061048560015f5160206109c25f395f51905f5255565b6105e561061c565b6001600160a01b03811661061357604051631e4fbdf760e01b81525f60048201526024015b60405180910390fd5b61036f81610873565b5f546001600160a01b031633146104855760405163118cdaa760e01b815233600482015260240161060a565b6106506108c2565b60025f5160206109c25f395f51905f5255565b5f612710600354836106759190610962565b61067f9190610979565b90505f61068c8284610998565b90508115610785578160055f8282546106a59190610905565b909155505060015460408051600481526024810182526020810180516001600160e01b03166317552f6960e21b17905290515f926001600160a01b03169185916106ef91906109ab565b5f6040518083038185875af1925050503d805f8114610729576040519150601f19603f3d011682016040523d82523d5f602084013e61072e565b606091505b5050905080610750576040516312171d8360e31b815260040160405180910390fd5b6040518381527f138c70ada9ea0c0d7da1b5e25a66354714c16d8aae412b278ba7182acb2bb9519060200160405180910390a1505b5f8111801561079e57506002546001600160a01b031615155b1561086e578060065f8282546107b49190610905565b90915550506002546040515f916001600160a01b03169083908381818185875af1925050503d805f8114610803576040519150601f19603f3d011682016040523d82523d5f602084013e610808565b606091505b505090508061082a576040516312171d8360e31b815260040160405180910390fd5b6002546040518381526001600160a01b03909116907f0918afb2104075ad8a2bb46a7f690b4aa1aa097202d3add75b0ece5bbb71c9399060200160405180910390a2505b505050565b5f80546001600160a01b038381166001600160a01b0319831681178455604051919092169283917f8be0079c531659141344cd1fd0a4f28419497f9722a3daafe3b4186f6b6457e09190a35050565b5f5160206109c25f395f51905f525460020361048557604051633ee5aeb560e01b815260040160405180910390fd5b634e487b7160e01b5f52601160045260245ffd5b80820180821115610918576109186108f1565b92915050565b5f6020828403121561092e575f5ffd5b5035919050565b5f60208284031215610945575f5ffd5b81356001600160a01b038116811461095b575f5ffd5b9392505050565b8082028115828204841417610918576109186108f1565b5f8261099357634e487b7160e01b5f52601260045260245ffd5b500490565b81810381811115610918576109186108f1565b5f82518060208501845e5f92019182525091905056fe9b779b17422d0df92223018b32b4d1fa46e071723d6817e2486d003becc55f00a264697066735822122060cb1db2e99a306d6a9089364e262b20acda457db0b10f5b94b58a52be6343b864736f6c634300081c0033",
  "linkReferences": {},
  "deployedLinkReferences": {}
}