{
  "_format": "hh-sol-artifact-1",
  "contractName": "TaxReceiver",
  "sourceName": "contracts/TaxReceiver.sol",
  "abi": [
    {
      "inputs": [
        {
          "internalType": "address",
          "name": "_studioWallet",
          "type": "address"
        },
        {
          "internalType": "address",
          "name": "_owner",
          "type": "address"
        }
      ],
      "stateMutability": "nonpayable",
      "type": "constructor"
    },
    {
      "inputs": [],
      "name": "NotWired",
      "type": "error"
    },
    {
      "inputs": [],
      "name": "NothingToFlush",
      "type": "error"
    },
    {
      "inputs": [
        {
          "internalType": "address",
          "name": "owner",
          "type": "address"
        }
      ],
      "name": "OwnableInvalidOwner",
      "type": "error"
    },
    {
      "inputs": [
        {
          "internalType": "address",
          "name": "account",
          "type": "address"
        }
      ],
      "name": "OwnableUnauthorizedAccount",
      "type": "error"
    },
    {
      "inputs": [],
      "name": "ReentrancyGuardReentrantCall",
      "type": "error"
    },
    {
      "inputs": [],
      "name": "TransferFailed",
      "type": "error"
    },
    {
      "inputs": [],
      "name": "ZeroAddress",
      "type": "error"
    },
    {
      "anonymous": false,
      "inputs": [
        {
          "indexed": true,
          "internalType": "address",
          "name": "prev",
          "type": "address"
        },
        {
          "indexed": true,
          "internalType": "address",
          "name": "next",
          "type": "address"
        }
      ],
      "name": "BottomProtectionVaultSet",
      "type": "event"
    },
    {
      "anonymous": false,
      "inputs": [
        {
          "indexed": false,
          "internalType": "uint256",
          "name": "toDividend",
          "type": "uint256"
        },
        {
          "indexed": false,
          "internalType": "uint256",
          "name": "toBottom",
          "type": "uint256"
        },
        {
          "indexed": false,
          "internalType": "uint256",
          "name": "toStudio",
          "type": "uint256"
        }
      ],
      "name": "Flushed",
      "type": "event"
    },
    {
      "anonymous": false,
      "inputs": [
        {
          "indexed": true,
          "internalType": "address",
          "name": "prev",
          "type": "address"
        },
        {
          "indexed": true,
          "internalType": "address",
          "name": "next",
          "type": "address"
        }
      ],
      "name": "HolderDividendSet",
      "type": "event"
    },
    {
      "anonymous": false,
      "inputs": [
        {
          "indexed": true,
          "internalType": "address",
          "name": "previousOwner",
          "type": "address"
        },
        {
          "indexed": true,
          "internalType": "address",
          "name": "newOwner",
          "type": "address"
        }
      ],
      "name": "OwnershipTransferred",
      "type": "event"
    },
    {
      "anonymous": false,
      "inputs": [
        {
          "indexed": true,
          "internalType": "address",
          "name": "sender",
          "type": "address"
        },
        {
          "indexed": false,
          "internalType": "uint256",
          "name": "amount",
          "type": "uint256"
        }
      ],
      "name": "Received",
      "type": "event"
    },
    {
      "anonymous": false,
      "inputs": [
        {
          "indexed": true,
          "internalType": "address",
          "name": "holderDividend",
          "type": "address"
        },
        {
          "indexed": true,
          "internalType": "address",
          "name": "bottomProtectionVault",
          "type": "address"
        }
      ],
      "name": "Wired",
      "type": "event"
    },
    {
      "stateMutability": "payable",
      "type": "fallback"
    },
    {
      "inputs": [],
      "name": "BOTTOM_BPS",
      "outputs": [
        {
          "internalType": "uint256",
          "name": "",
          "type": "uint256"
        }
      ],
      "stateMutability": "view",
      "type": "function"
    },
    {
      "inputs": [],
      "name": "DIVIDEND_BPS",
      "outputs": [
        {
          "internalType": "uint256",
          "name": "",
          "type": "uint256"
        }
      ],
      "stateMutability": "view",
      "type": "function"
    },
    {
      "inputs": [],
      "name": "STUDIO_BPS",
      "outputs": [
        {
          "internalType": "uint256",
          "name": "",
          "type": "uint256"
        }
      ],
      "stateMutability": "view",
      "type": "function"
    },
    {
      "inputs": [],
      "name": "TOTAL_BPS",
      "outputs": [
        {
          "internalType": "uint256",
          "name": "",
          "type": "uint256"
        }
      ],
      "stateMutability": "view",
      "type": "function"
    },
    {
      "inputs": [],
      "name": "bottomProtectionVault",
      "outputs": [
        {
          "internalType": "address",
          "name": "",
          "type": "address"
        }
      ],
      "stateMutability": "view",
      "type": "function"
    },
    {
      "inputs": [],
      "name": "emergencyWithdraw",
      "outputs": [],
      "stateMutability": "nonpayable",
      "type": "function"
    },
    {
      "inputs": [],
      "name": "flush",
      "outputs": [],
      "stateMutability": "nonpayable",
      "type": "function"
    },
    {
      "inputs": [
        {
          "internalType": "uint256",
          "name": "amount",
          "type": "uint256"
        }
      ],
      "name": "flushAmount",
      "outputs": [],
      "stateMutability": "nonpayable",
      "type": "function"
    },
    {
      "inputs": [],
      "name": "holderDividend",
      "outputs": [
        {
          "internalType": "address",
          "name": "",
          "type": "address"
        }
      ],
      "stateMutability": "view",
      "type": "function"
    },
    {
      "inputs": [],
      "name": "owner",
      "outputs": [
        {
          "internalType": "address",
          "name": "",
          "type": "address"
        }
      ],
      "stateMutability": "view",
      "type": "function"
    },
    {
      "inputs": [],
      "name": "pendingBalance",
      "outputs": [
        {
          "internalType": "uint256",
          "name": "",
          "type": "uint256"
        }
      ],
      "stateMutability": "view",
      "type": "function"
    },
    {
      "inputs": [],
      "name": "renounceOwnership",
      "outputs": [],
      "stateMutability": "nonpayable",
      "type": "function"
    },
    {
      "inputs": [
        {
          "internalType": "address",
          "name": "_next",
          "type": "address"
        }
      ],
      "name": "setBottomProtectionVault",
      "outputs": [],
      "stateMutability": "nonpayable",
      "type": "function"
    },
    {
      "inputs": [
        {
          "internalType": "address",
          "name": "_next",
          "type": "address"
        }
      ],
      "name": "setHolderDividend",
      "outputs": [],
      "stateMutability": "nonpayable",
      "type": "function"
    },
    {
      "inputs": [],
      "name": "studioWallet",
      "outputs": [
        {
          "internalType": "address",
          "name": "",
          "type": "address"
        }
      ],
      "stateMutability": "view",
      "type": "function"
    },
    {
      "inputs": [],
      "name": "totalForwardedToBottom",
      "outputs": [
        {
          "internalType": "uint256",
          "name": "",
          "type": "uint256"
        }
      ],
      "stateMutability": "view",
      "type": "function"
    },
    {
      "inputs": [],
      "name": "totalForwardedToDividend",
      "outputs": [
        {
          "internalType": "uint256",
          "name": "",
          "type": "uint256"
        }
      ],
      "stateMutability": "view",
      "type": "function"
    },
    {
      "inputs": [],
      "name": "totalForwardedToStudio",
      "outputs": [
        {
          "internalType": "uint256",
          "name": "",
          "type": "uint256"
        }
      ],
      "stateMutability": "view",
      "type": "function"
    },
    {
      "inputs": [],
      "name": "totalReceived",
      "outputs": [
        {
          "internalType": "uint256",
          "name": "",
          "type": "uint256"
        }
      ],
      "stateMutability": "view",
      "type": "function"
    },
    {
      "inputs": [
        {
          "internalType": "address",
          "name": "newOwner",
          "type": "address"
        }
      ],
      "name": "transferOwnership",
      "outputs": [],
      "stateMutability": "nonpayable",
      "type": "function"
    },
    {
      "inputs": [],
      "name": "wired",
      "outputs": [
        {
          "internalType": "bool",
          "name": "",
          "type": "bool"
        }
      ],
      "stateMutability": "view",
      "type": "function"
    },
    {
      "stateMutability": "payable",
      "type": "receive"
    }
  ],
  "bytecode": "0x60a03461011f57601f610add38819003918201601f19168301916001600160401b0383118484101761012357808492604094855283398101031261011f5761004681610137565b906001600160a01b039061005c90602001610137565b1690811561010c575f80546001600160a01b031981168417825560405193916001600160a01b03909116907f8be0079c531659141344cd1fd0a4f28419497f9722a3daafe3b4186f6b6457e09080a360017f9b779b17422d0df92223018b32b4d1fa46e071723d6817e2486d003becc55f00556001600160a01b038116156100fd57608052610991908161014c82396080518181816101b301526107bf0152f35b63d92e233d60e01b5f5260045ffd5b631e4fbdf760e01b5f525f60045260245ffd5b5f80fd5b634e487b7160e01b5f52604160045260245ffd5b51906001600160a01b038216820361011f5756fe60806040526004361015610026575b361561001e5761001c61066a565b005b61001c61066a565b5f3560e01c8063250055a81461057757806337efa0fb1461054f57806339d57b021461052a578063445e7d0714610357578063476cdb781461050d57806355d5ea01146104e557806357b4d18e146104ca5780636b9f96ea14610472578063715018a61461041b5780637db6a9451461039f5780638d7036de146103835780638da5cb5b1461035c5780639088f4ea1461035757806396319c4d146102cc578063a3c2c462146102af578063d361ea4914610292578063d3cd52bc14610276578063db2e21bc146101ff578063e7201df9146101e2578063ead8a5811461019e5763f2fde38b0361000e573461019a57602036600319011261019a576004356001600160a01b0381169081900361019a5761013f6106a7565b8015610187575f80546001600160a01b03198116831782556001600160a01b0316907f8be0079c531659141344cd1fd0a4f28419497f9722a3daafe3b4186f6b6457e09080a3005b631e4fbdf760e01b5f525f60045260245ffd5b5f80fd5b3461019a575f36600319011261019a576040517f00000000000000000000000000000000000000000000000000000000000000006001600160a01b03168152602090f35b3461019a575f36600319011261019a576020600554604051908152f35b3461019a575f36600319011261019a576102176106a7565b61021f6106cd565b478015610267575f8080809360018060a01b038254165af161023f61060a565b50156102585760015f51602061093c5f395f51905f5255005b6312171d8360e31b5f5260045ffd5b633ada528f60e21b5f5260045ffd5b3461019a575f36600319011261019a5760206040516127108152f35b3461019a575f36600319011261019a576020600454604051908152f35b3461019a575f36600319011261019a576020600354604051908152f35b3461019a57602036600319011261019a576004356001600160a01b0381169081900361019a576102fa6106a7565b801561034857600254816001600160a01b0382167f388977642ba24ae1f2b970f05e4e2d1bb34d5d0e8bde6de96cf261136e1c0f205f80a36001600160a01b0319161760025561001c6108b0565b63d92e233d60e01b5f5260045ffd5b6105b8565b3461019a575f36600319011261019a575f546040516001600160a01b039091168152602090f35b3461019a575f36600319011261019a576020604051610fa08152f35b3461019a57602036600319011261019a576004356001600160a01b0381169081900361019a576103cd6106a7565b801561034857600154816001600160a01b0382167fb67206fb44c4fdebea9bf3d75f205d2f305d4d76ef5cc3f581f0415a9303b20f5f80a36001600160a01b0319161760015561001c6108b0565b3461019a575f36600319011261019a576104336106a7565b5f80546001600160a01b0319811682556001600160a01b03167f8be0079c531659141344cd1fd0a4f28419497f9722a3daafe3b4186f6b6457e08280a3005b3461019a575f36600319011261019a5761048a6106cd565b60ff60025460a01c16156104bb57478015610267576104a890610712565b60015f51602061093c5f395f51905f5255005b6307f97e9360e31b5f5260045ffd5b3461019a575f36600319011261019a57602047604051908152f35b3461019a575f36600319011261019a576001546040516001600160a01b039091168152602090f35b3461019a575f36600319011261019a576020600654604051908152f35b3461019a575f36600319011261019a57602060ff60025460a01c166040519015158152f35b3461019a575f36600319011261019a576002546040516001600160a01b039091168152602090f35b3461019a57602036600319011261019a576004356105936106a7565b61059b6106cd565b60ff60025460a01c16156104bb578015610267576104a890610712565b3461019a575f36600319011261019a576020604051610bb88152f35b90601f8019910116810190811067ffffffffffffffff8211176105f657604052565b634e487b7160e01b5f52604160045260245ffd5b3d15610644573d9067ffffffffffffffff82116105f65760405191610639601f8201601f1916602001846105d4565b82523d5f602084013e565b606090565b9190820180921161065657565b634e487b7160e01b5f52601160045260245ffd5b61067634600354610649565b6003556040513481527f88a5966d370b9919b20f3e2c13ff65706f196a4e32cc2c12bf57088f8852587460203392a2565b5f546001600160a01b031633036106ba57565b63118cdaa760e01b5f523360045260245ffd5b60025f51602061093c5f395f51905f5254146106f65760025f51602061093c5f395f51905f5255565b633ee5aeb560e01b5f5260045ffd5b9190820391821161065657565b610fa0810290801591818104610fa01483171561065657612710900491610bb8820290828204610bb814171561065657829161075761271061075c9304948592610705565b610705565b9181610852575b806107f4575b826107a8575b907fac9277ba0591e1c0c98f15cd808e9b0ef53df9369302771f2621a9b254a0ed419260609260405192835260208301526040820152a1565b906107b583600654610649565b6006555f808080867f00000000000000000000000000000000000000000000000000000000000000005af16107e861060a565b5015610258579061076f565b61080081600554610649565b6005555f8060018060a01b03600254166040518460208201916317552f6960e21b8352600481526108326024826105d4565b51925af161083e61060a565b50610769576312171d8360e31b5f5260045ffd5b61085e82600454610649565b6004555f8060018060a01b03600154166040518560208201916317552f6960e21b8352600481526108906024826105d4565b51925af161089c61060a565b50610763576312171d8360e31b5f5260045ffd5b60025460ff8160a01c161580610927575b80610915575b6108ce5750565b60ff60a01b198116600160a01b176002556001546001600160a01b0391821691167fce454530599629df9da536b647088db8c52b39355f210fa0b3016000433adff45f80a3565b506001600160a01b03811615156108c7565b506001546001600160a01b031615156108c156fe9b779b17422d0df92223018b32b4d1fa46e071723d6817e2486d003becc55f00a264697066735822122080195ac7e3b0ec7d8d69ba683064e8bfaca5986a386f05b8b349aaa3ae29ad4164736f6c634300081c0033",
  "linkReferences": {},
  "deployedLinkReferences": {}
}