{"contracts/TaxReceiver.sol":{"TaxReceiver":{"abi":[{"inputs":[{"internalType":"address","name":"_holderDividend","type":"address"},{"internalType":"address","name":"_marketingWallet","type":"address"},{"internalType":"address","name":"_owner","type":"address"}],"stateMutability":"nonpayable","type":"constructor"},{"inputs":[],"name":"BpsOutOfRange","type":"error"},{"inputs":[],"name":"NothingToForward","type":"error"},{"inputs":[{"internalType":"address","name":"owner","type":"address"}],"name":"OwnableInvalidOwner","type":"error"},{"inputs":[{"internalType":"address","name":"account","type":"address"}],"name":"OwnableUnauthorizedAccount","type":"error"},{"inputs":[],"name":"ReentrancyGuardReentrantCall","type":"error"},{"inputs":[],"name":"TransferFailed","type":"error"},{"inputs":[],"name":"ZeroAddress","type":"error"},{"anonymous":false,"inputs":[{"indexed":false,"internalType":"uint256","name":"dividendBps","type":"uint256"}],"name":"AllocationUpdated","type":"event"},{"anonymous":false,"inputs":[{"indexed":false,"internalType":"uint256","name":"amount","type":"uint256"}],"name":"ForwardedToDividend","type":"event"},{"anonymous":false,"inputs":[{"indexed":true,"internalType":"address","name":"wallet","type":"address"},{"indexed":false,"internalType":"uint256","name":"amount","type":"uint256"}],"name":"ForwardedToMarketing","type":"event"},{"anonymous":false,"inputs":[{"indexed":true,"internalType":"address","name":"prev","type":"address"},{"indexed":true,"internalType":"address","name":"next","type":"address"}],"name":"HolderDividendUpdated","type":"event"},{"anonymous":false,"inputs":[{"indexed":true,"internalType":"address","name":"prev","type":"address"},{"indexed":true,"internalType":"address","name":"next","type":"address"}],"name":"MarketingWalletUpdated","type":"event"},{"anonymous":false,"inputs":[{"indexed":true,"internalType":"address","name":"previousOwner","type":"address"},{"indexed":true,"internalType":"address","name":"newOwner","type":"address"}],"name":"OwnershipTransferred","type":"event"},{"anonymous":false,"inputs":[{"indexed":true,"internalType":"address","name":"sender","type":"address"},{"indexed":false,"internalType":"uint256","name":"amount","type":"uint256"}],"name":"Received","type":"event"},{"stateMutability":"payable","type":"fallback"},{"inputs":[],"name":"TOTAL_BPS","outputs":[{"internalType":"uint256","name":"","type":"uint256"}],"stateMutability":"view","type":"function"},{"inputs":[],"name":"dividendBps","outputs":[{"internalType":"uint256","name":"","type":"uint256"}],"stateMutability":"view","type":"function"},{"inputs":[],"name":"emergencyWithdraw","outputs":[],"stateMutability":"nonpayable","type":"function"},{"inputs":[],"name":"flush","outputs":[],"stateMutability":"nonpayable","type":"function"},{"inputs":[{"internalType":"uint256","name":"amount","type":"uint256"}],"name":"flushAmount","outputs":[],"stateMutability":"nonpayable","type":"function"},{"inputs":[],"name":"holderDividend","outputs":[{"internalType":"address","name":"","type":"address"}],"stateMutability":"view","type":"function"},{"inputs":[],"name":"marketingWallet","outputs":[{"internalType":"address","name":"","type":"address"}],"stateMutability":"view","type":"function"},{"inputs":[],"name":"owner","outputs":[{"internalType":"address","name":"","type":"address"}],"stateMutability":"view","type":"function"},{"inputs":[],"name":"renounceOwnership","outputs":[],"stateMutability":"nonpayable","type":"function"},{"inputs":[{"internalType":"uint256","name":"_dividendBps","type":"uint256"}],"name":"setAllocation","outputs":[],"stateMutability":"nonpayable","type":"function"},{"inputs":[{"internalType":"address","name":"_next","type":"address"}],"name":"setHolderDividend","outputs":[],"stateMutability":"nonpayable","type":"function"},{"inputs":[{"internalType":"address","name":"_next","type":"address"}],"name":"setMarketingWallet","outputs":[],"stateMutability":"nonpayable","type":"function"},{"inputs":[],"name":"totalForwardedToDividend","outputs":[{"internalType":"uint256","name":"","type":"uint256"}],"stateMutability":"view","type":"function"},{"inputs":[],"name":"totalForwardedToMarketing","outputs":[{"internalType":"uint256","name":"","type":"uint256"}],"stateMutability":"view","type":"function"},{"inputs":[],"name":"totalReceived","outputs":[{"internalType":"uint256","name":"","type":"uint256"}],"stateMutability":"view","type":"function"},{"inputs":[{"internalType":"address","name":"newOwner","type":"address"}],"name":"transferOwnership","outputs":[],"stateMutability":"nonpayable","type":"function"},{"stateMutability":"payable","type":"receive"}],"evm":{"bytecode":{"linkReferences":{},"object":"6080604052612710600355348015610015575f5ffd5b50604051610bb7380380610bb783398101604081905261003491610153565b806001600160a01b03811661006257604051631e4fbdf760e01b81525f600482015260240160405180910390fd5b61006b816100e9565b5060017f9b779b17422d0df92223018b32b4d1fa46e071723d6817e2486d003becc55f00556001600160a01b0383166100b75760405163d92e233d60e01b815260040160405180910390fd5b50600180546001600160a01b039384166001600160a01b03199182161790915560028054929093169116179055610193565b5f80546001600160a01b038381166001600160a01b0319831681178455604051919092169283917f8be0079c531659141344cd1fd0a4f28419497f9722a3daafe3b4186f6b6457e09190a35050565b80516001600160a01b038116811461014e575f5ffd5b919050565b5f5f5f60608486031215610165575f5ffd5b61016e84610138565b925061017c60208501610138565b915061018a60408501610138565b90509250925092565b610a17806101a05f395ff3fe6080604052600436106100f6575f3560e01c80638da5cb5b11610089578063d3cd52bc11610058578063d3cd52bc146102c3578063db2e21bc146102d8578063e51fde32146102ec578063f2fde38b1461030157610148565b80638da5cb5b1461025a578063a3c2c46214610276578063ac0ab8fc14610299578063d361ea49146102ae57610148565b80636b9f96ea116100c55780636b9f96ea146101f4578063715018a61461020857806375f0a8741461021c5780637db6a9451461023b57610148565b8063250055a8146101595780632bd8d5521461017a57806355d5ea01146101995780635d098b38146101d557610148565b36610148573460045f82825461010c9190610905565b909155505060405134815233907f88a5966d370b9919b20f3e2c13ff65706f196a4e32cc2c12bf57088f885258749060200160405180910390a2005b3460045f82825461010c9190610905565b348015610164575f5ffd5b5061017861017336600461091e565b610320565b005b348015610185575f5ffd5b5061017861019436600461091e565b610372565b3480156101a4575f5ffd5b506001546101b8906001600160a01b031681565b6040516001600160a01b0390911681526020015b60405180910390f35b3480156101e0575f5ffd5b506101786101ef366004610935565b6103d8565b3480156101ff575f5ffd5b5061017861043b565b348015610213575f5ffd5b50610178610487565b348015610227575f5ffd5b506002546101b8906001600160a01b031681565b348015610246575f5ffd5b50610178610255366004610935565b610498565b348015610265575f5ffd5b505f546001600160a01b03166101b8565b348015610281575f5ffd5b5061028b60045481565b6040519081526020016101cc565b3480156102a4575f5ffd5b5061028b60065481565b3480156102b9575f5ffd5b5061028b60055481565b3480156102ce575f5ffd5b5061028b61271081565b3480156102e3575f5ffd5b50610178610522565b3480156102f7575f5ffd5b5061028b60035481565b34801561030c575f5ffd5b5061017861031b366004610935565b6105dd565b61032861061c565b610330610648565b805f03610350576040516331be0bb960e11b815260040160405180910390fd5b61035981610663565b61036f60015f5160206109c25f395f51905f5255565b50565b61037a61061c565b61271081111561039d5760405163063941ff60e31b815260040160405180910390fd5b60038190556040518181527fa7b1e4bad67f3cc85f41113df7138befaff0ffb3f75177d5a8fb7d2e442bd3e09060200160405180910390a150565b6103e061061c565b6002546040516001600160a01b038084169216907f8616c7a330e3cf61290821331585511f1e2778171e2b005fb5ec60cfe874dc67905f90a3600280546001600160a01b0319166001600160a01b0392909216919091179055565b610443610648565b475f819003610465576040516331be0bb960e11b815260040160405180910390fd5b61046e81610663565b5061048560015f5160206109c25f395f51905f5255565b565b61048f61061c565b6104855f610873565b6104a061061c565b6001600160a01b0381166104c75760405163d92e233d60e01b815260040160405180910390fd5b6001546040516001600160a01b038084169216907f94b26e82e0ac7252d24b51ca47ff930d06a0ee1335422d230e2156da06485895905f90a3600180546001600160a01b0319166001600160a01b0392909216919091179055565b61052a61061c565b610532610648565b475f819003610554576040516331be0bb960e11b815260040160405180910390fd5b5f80546040516001600160a01b039091169083908381818185875af1925050503d805f811461059e576040519150601f19603f3d011682016040523d82523d5f602084013e6105a3565b606091505b50509050806105c5576040516312171d8360e31b815260040160405180910390fd5b505061048560015f5160206109c25f395f51905f5255565b6105e561061c565b6001600160a01b03811661061357604051631e4fbdf760e01b81525f60048201526024015b60405180910390fd5b61036f81610873565b5f546001600160a01b031633146104855760405163118cdaa760e01b815233600482015260240161060a565b6106506108c2565b60025f5160206109c25f395f51905f5255565b5f612710600354836106759190610962565b61067f9190610979565b90505f61068c8284610998565b90508115610785578160055f8282546106a59190610905565b909155505060015460408051600481526024810182526020810180516001600160e01b03166317552f6960e21b17905290515f926001600160a01b03169185916106ef91906109ab565b5f6040518083038185875af1925050503d805f8114610729576040519150601f19603f3d011682016040523d82523d5f602084013e61072e565b606091505b5050905080610750576040516312171d8360e31b815260040160405180910390fd5b6040518381527f138c70ada9ea0c0d7da1b5e25a66354714c16d8aae412b278ba7182acb2bb9519060200160405180910390a1505b5f8111801561079e57506002546001600160a01b031615155b1561086e578060065f8282546107b49190610905565b90915550506002546040515f916001600160a01b03169083908381818185875af1925050503d805f8114610803576040519150601f19603f3d011682016040523d82523d5f602084013e610808565b606091505b505090508061082a576040516312171d8360e31b815260040160405180910390fd5b6002546040518381526001600160a01b03909116907f0918afb2104075ad8a2bb46a7f690b4aa1aa097202d3add75b0ece5bbb71c9399060200160405180910390a2505b505050565b5f80546001600160a01b038381166001600160a01b0319831681178455604051919092169283917f8be0079c531659141344cd1fd0a4f28419497f9722a3daafe3b4186f6b6457e09190a35050565b5f5160206109c25f395f51905f525460020361048557604051633ee5aeb560e01b815260040160405180910390fd5b634e487b7160e01b5f52601160045260245ffd5b80820180821115610918576109186108f1565b92915050565b5f6020828403121561092e575f5ffd5b5035919050565b5f60208284031215610945575f5ffd5b81356001600160a01b038116811461095b575f5ffd5b9392505050565b8082028115828204841417610918576109186108f1565b5f8261099357634e487b7160e01b5f52601260045260245ffd5b500490565b81810381811115610918576109186108f1565b5f82518060208501845e5f92019182525091905056fe9b779b17422d0df92223018b32b4d1fa46e071723d6817e2486d003becc55f00a264697066735822122060cb1db2e99a306d6a9089364e262b20acda457db0b10f5b94b58a52be6343b864736f6c634300081c0033","opcodes":"PUSH1 0x80 PUSH1 0x40 MSTORE PUSH2 0x2710 PUSH1 0x3 SSTORE CALLVALUE DUP1 ISZERO PUSH2 0x15 JUMPI PUSH0 PUSH0 REVERT JUMPDEST POP PUSH1 0x40 MLOAD PUSH2 0xBB7 CODESIZE SUB DUP1 PUSH2 0xBB7 DUP4 CODECOPY DUP2 ADD PUSH1 0x40 DUP2 SWAP1 MSTORE PUSH2 0x34 SWAP2 PUSH2 0x153 JUMP JUMPDEST DUP1 PUSH1 0x1 PUSH1 0x1 PUSH1 0xA0 SHL SUB DUP2 AND PUSH2 0x62 JUMPI PUSH1 0x40 MLOAD PUSH4 0x1E4FBDF7 PUSH1 0xE0 SHL DUP2 MSTORE PUSH0 PUSH1 0x4 DUP3 ADD MSTORE PUSH1 0x24 ADD PUSH1 0x40 MLOAD DUP1 SWAP2 SUB SWAP1 REVERT JUMPDEST PUSH2 0x6B DUP2 PUSH2 0xE9 JUMP JUMPDEST POP PUSH1 0x1 PUSH32 0x9B779B17422D0DF92223018B32B4D1FA46E071723D6817E2486D003BECC55F00 SSTORE PUSH1 0x1 PUSH1 0x1 PUSH1 0xA0 SHL SUB DUP4 AND PUSH2 0xB7 JUMPI PUSH1 0x40 MLOAD PUSH4 0xD92E233D PUSH1 0xE0 SHL DUP2 MSTORE PUSH1 0x4 ADD PUSH1 0x40 MLOAD DUP1 SWAP2 SUB SWAP1 REVERT JUMPDEST POP PUSH1 0x1 DUP1 SLOAD PUSH1 0x1 PUSH1 0x1 PUSH1 0xA0 SHL SUB SWAP4 DUP5 AND PUSH1 0x1 PUSH1 0x1 PUSH1 0xA0 SHL SUB NOT SWAP2 DUP3 AND OR SWAP1 SWAP2 SSTORE PUSH1 0x2 DUP1 SLOAD SWAP3 SWAP1 SWAP4 AND SWAP2 AND OR SWAP1 SSTORE PUSH2 0x193 JUMP JUMPDEST PUSH0 DUP1 SLOAD PUSH1 0x1 PUSH1 0x1 PUSH1 0xA0 SHL SUB DUP4 DUP2 AND PUSH1 0x1 PUSH1 0x1 PUSH1 0xA0 SHL SUB NOT DUP4 AND DUP2 OR DUP5 SSTORE PUSH1 0x40 MLOAD SWAP2 SWAP1 SWAP3 AND SWAP3 DUP4 SWAP2 PUSH32 0x8BE0079C531659141344CD1FD0A4F28419497F9722A3DAAFE3B4186F6B6457E0 SWAP2 SWAP1 LOG3 POP POP JUMP JUMPDEST DUP1 MLOAD PUSH1 0x1 PUSH1 0x1 PUSH1 0xA0 SHL SUB DUP2 AND DUP2 EQ PUSH2 0x14E JUMPI PUSH0 PUSH0 REVERT JUMPDEST SWAP2 SWAP1 POP JUMP JUMPDEST PUSH0 PUSH0 PUSH0 PUSH1 0x60 DUP5 DUP7 SUB SLT ISZERO PUSH2 0x165 JUMPI PUSH0 PUSH0 REVERT JUMPDEST PUSH2 0x16E DUP5 PUSH2 0x138 JUMP JUMPDEST SWAP3 POP PUSH2 0x17C PUSH1 0x20 DUP6 ADD PUSH2 0x138 JUMP JUMPDEST SWAP2 POP PUSH2 0x18A PUSH1 0x40 DUP6 ADD PUSH2 0x138 JUMP JUMPDEST SWAP1 POP SWAP3 POP SWAP3 POP SWAP3 JUMP JUMPDEST PUSH2 0xA17 DUP1 PUSH2 0x1A0 PUSH0 CODECOPY PUSH0 RETURN INVALID PUSH1 0x80 PUSH1 0x40 MSTORE PUSH1 0x4 CALLDATASIZE LT PUSH2 0xF6 JUMPI PUSH0 CALLDATALOAD PUSH1 0xE0 SHR DUP1 PUSH4 0x8DA5CB5B GT PUSH2 0x89 JUMPI DUP1 PUSH4 0xD3CD52BC GT PUSH2 0x58 JUMPI DUP1 PUSH4 0xD3CD52BC EQ PUSH2 0x2C3 JUMPI DUP1 PUSH4 0xDB2E21BC EQ PUSH2 0x2D8 JUMPI DUP1 PUSH4 0xE51FDE32 EQ PUSH2 0x2EC JUMPI DUP1 PUSH4 0xF2FDE38B EQ PUSH2 0x301 JUMPI PUSH2 0x148 JUMP JUMPDEST DUP1 PUSH4 0x8DA5CB5B EQ PUSH2 0x25A JUMPI DUP1 PUSH4 0xA3C2C462 EQ PUSH2 0x276 JUMPI DUP1 PUSH4 0xAC0AB8FC EQ PUSH2 0x299 JUMPI DUP1 PUSH4 0xD361EA49 EQ PUSH2 0x2AE JUMPI PUSH2 0x148 JUMP JUMPDEST DUP1 PUSH4 0x6B9F96EA GT PUSH2 0xC5 JUMPI DUP1 PUSH4 0x6B9F96EA EQ PUSH2 0x1F4 JUMPI DUP1 PUSH4 0x715018A6 EQ PUSH2 0x208 JUMPI DUP1 PUSH4 0x75F0A874 EQ PUSH2 0x21C JUMPI DUP1 PUSH4 0x7DB6A945 EQ PUSH2 0x23B JUMPI PUSH2 0x148 JUMP JUMPDEST DUP1 PUSH4 0x250055A8 EQ PUSH2 0x159 JUMPI DUP1 PUSH4 0x2BD8D552 EQ PUSH2 0x17A JUMPI DUP1 PUSH4 0x55D5EA01 EQ PUSH2 0x199 JUMPI DUP1 PUSH4 0x5D098B38 EQ PUSH2 0x1D5 JUMPI PUSH2 0x148 JUMP JUMPDEST CALLDATASIZE PUSH2 0x148 JUMPI CALLVALUE PUSH1 0x4 PUSH0 DUP3 DUP3 SLOAD PUSH2 0x10C SWAP2 SWAP1 PUSH2 0x905 JUMP JUMPDEST SWAP1 SWAP2 SSTORE POP POP PUSH1 0x40 MLOAD CALLVALUE DUP2 MSTORE CALLER SWAP1 PUSH32 0x88A5966D370B9919B20F3E2C13FF65706F196A4E32CC2C12BF57088F88525874 SWAP1 PUSH1 0x20 ADD PUSH1 0x40 MLOAD DUP1 SWAP2 SUB SWAP1 LOG2 STOP JUMPDEST CALLVALUE PUSH1 0x4 PUSH0 DUP3 DUP3 SLOAD PUSH2 0x10C SWAP2 SWAP1 PUSH2 0x905 JUMP JUMPDEST CALLVALUE DUP1 ISZERO PUSH2 0x164 JUMPI PUSH0 PUSH0 REVERT JUMPDEST POP PUSH2 0x178 PUSH2 0x173 CALLDATASIZE PUSH1 0x4 PUSH2 0x91E JUMP JUMPDEST PUSH2 0x320 JUMP JUMPDEST STOP JUMPDEST CALLVALUE DUP1 ISZERO PUSH2 0x185 JUMPI PUSH0 PUSH0 REVERT JUMPDEST POP PUSH2 0x178 PUSH2 0x194 CALLDATASIZE PUSH1 0x4 PUSH2 0x91E JUMP JUMPDEST PUSH2 0x372 JUMP JUMPDEST CALLVALUE DUP1 ISZERO PUSH2 0x1A4 JUMPI PUSH0 PUSH0 REVERT JUMPDEST POP PUSH1 0x1 SLOAD PUSH2 0x1B8 SWAP1 PUSH1 0x1 PUSH1 0x1 PUSH1 0xA0 SHL SUB AND DUP2 JUMP JUMPDEST PUSH1 0x40 MLOAD PUSH1 0x1 PUSH1 0x1 PUSH1 0xA0 SHL SUB SWAP1 SWAP2 AND DUP2 MSTORE PUSH1 0x20 ADD JUMPDEST PUSH1 0x40 MLOAD DUP1 SWAP2 SUB SWAP1 RETURN JUMPDEST CALLVALUE DUP1 ISZERO PUSH2 0x1E0 JUMPI PUSH0 PUSH0 REVERT JUMPDEST POP PUSH2 0x178 PUSH2 0x1EF CALLDATASIZE PUSH1 0x4 PUSH2 0x935 JUMP JUMPDEST PUSH2 0x3D8 JUMP JUMPDEST CALLVALUE DUP1 ISZERO PUSH2 0x1FF JUMPI PUSH0 PUSH0 REVERT JUMPDEST POP PUSH2 0x178 PUSH2 0x43B JUMP JUMPDEST CALLVALUE DUP1 ISZERO PUSH2 0x213 JUMPI PUSH0 PUSH0 REVERT JUMPDEST POP PUSH2 0x178 PUSH2 0x487 JUMP JUMPDEST CALLVALUE DUP1 ISZERO PUSH2 0x227 JUMPI PUSH0 PUSH0 REVERT JUMPDEST POP PUSH1 0x2 SLOAD PUSH2 0x1B8 SWAP1 PUSH1 0x1 PUSH1 0x1 PUSH1 0xA0 SHL SUB AND DUP2 JUMP JUMPDEST CALLVALUE DUP1 ISZERO PUSH2 0x246 JUMPI PUSH0 PUSH0 REVERT JUMPDEST POP PUSH2 0x178 PUSH2 0x255 CALLDATASIZE PUSH1 0x4 PUSH2 0x935 JUMP JUMPDEST PUSH2 0x498 JUMP JUMPDEST CALLVALUE DUP1 ISZERO PUSH2 0x265 JUMPI PUSH0 PUSH0 REVERT JUMPDEST POP PUSH0 SLOAD PUSH1 0x1 PUSH1 0x1 PUSH1 0xA0 SHL SUB AND PUSH2 0x1B8 JUMP JUMPDEST CALLVALUE DUP1 ISZERO PUSH2 0x281 JUMPI PUSH0 PUSH0 REVERT JUMPDEST POP PUSH2 0x28B PUSH1 0x4 SLOAD DUP2 JUMP JUMPDEST PUSH1 0x40 MLOAD SWAP1 DUP2 MSTORE PUSH1 0x20 ADD PUSH2 0x1CC JUMP JUMPDEST CALLVALUE DUP1 ISZERO PUSH2 0x2A4 JUMPI PUSH0 PUSH0 REVERT JUMPDEST POP PUSH2 0x28B PUSH1 0x6 SLOAD DUP2 JUMP JUMPDEST CALLVALUE DUP1 ISZERO PUSH2 0x2B9 JUMPI PUSH0 PUSH0 REVERT JUMPDEST POP PUSH2 0x28B PUSH1 0x5 SLOAD DUP2 JUMP JUMPDEST CALLVALUE DUP1 ISZERO PUSH2 0x2CE JUMPI PUSH0 PUSH0 REVERT JUMPDEST POP PUSH2 0x28B PUSH2 0x2710 DUP2 JUMP JUMPDEST CALLVALUE DUP1 ISZERO PUSH2 0x2E3 JUMPI PUSH0 PUSH0 REVERT JUMPDEST POP PUSH2 0x178 PUSH2 0x522 JUMP JUMPDEST CALLVALUE DUP1 ISZERO PUSH2 0x2F7 JUMPI PUSH0 PUSH0 REVERT JUMPDEST POP PUSH2 0x28B PUSH1 0x3 SLOAD DUP2 JUMP JUMPDEST CALLVALUE DUP1 ISZERO PUSH2 0x30C JUMPI PUSH0 PUSH0 REVERT JUMPDEST POP PUSH2 0x178 PUSH2 0x31B CALLDATASIZE PUSH1 0x4 PUSH2 0x935 JUMP JUMPDEST PUSH2 0x5DD JUMP JUMPDEST PUSH2 0x328 PUSH2 0x61C JUMP JUMPDEST PUSH2 0x330 PUSH2 0x648 JUMP JUMPDEST DUP1 PUSH0 SUB PUSH2 0x350 JUMPI PUSH1 0x40 MLOAD PUSH4 0x31BE0BB9 PUSH1 0xE1 SHL DUP2 MSTORE PUSH1 0x4 ADD PUSH1 0x40 MLOAD DUP1 SWAP2 SUB SWAP1 REVERT JUMPDEST PUSH2 0x359 DUP2 PUSH2 0x663 JUMP JUMPDEST PUSH2 0x36F PUSH1 0x1 PUSH0 MLOAD PUSH1 0x20 PUSH2 0x9C2 PUSH0 CODECOPY PUSH0 MLOAD SWAP1 PUSH0 MSTORE SSTORE JUMP JUMPDEST POP JUMP JUMPDEST PUSH2 0x37A PUSH2 0x61C JUMP JUMPDEST PUSH2 0x2710 DUP2 GT ISZERO PUSH2 0x39D JUMPI PUSH1 0x40 MLOAD PUSH4 0x63941FF PUSH1 0xE3 SHL DUP2 MSTORE PUSH1 0x4 ADD PUSH1 0x40 MLOAD DUP1 SWAP2 SUB SWAP1 REVERT JUMPDEST PUSH1 0x3 DUP2 SWAP1 SSTORE PUSH1 0x40 MLOAD DUP2 DUP2 MSTORE PUSH32 0xA7B1E4BAD67F3CC85F41113DF7138BEFAFF0FFB3F75177D5A8FB7D2E442BD3E0 SWAP1 PUSH1 0x20 ADD PUSH1 0x40 MLOAD DUP1 SWAP2 SUB SWAP1 LOG1 POP JUMP JUMPDEST PUSH2 0x3E0 PUSH2 0x61C JUMP JUMPDEST PUSH1 0x2 SLOAD PUSH1 0x40 MLOAD PUSH1 0x1 PUSH1 0x1 PUSH1 0xA0 SHL SUB DUP1 DUP5 AND SWAP3 AND SWAP1 PUSH32 0x8616C7A330E3CF61290821331585511F1E2778171E2B005FB5EC60CFE874DC67 SWAP1 PUSH0 SWAP1 LOG3 PUSH1 0x2 DUP1 SLOAD PUSH1 0x1 PUSH1 0x1 PUSH1 0xA0 SHL SUB NOT AND PUSH1 0x1 PUSH1 0x1 PUSH1 0xA0 SHL SUB SWAP3 SWAP1 SWAP3 AND SWAP2 SWAP1 SWAP2 OR SWAP1 SSTORE JUMP JUMPDEST PUSH2 0x443 PUSH2 0x648 JUMP JUMPDEST SELFBALANCE PUSH0 DUP2 SWAP1 SUB PUSH2 0x465 JUMPI PUSH1 0x40 MLOAD PUSH4 0x31BE0BB9 PUSH1 0xE1 SHL DUP2 MSTORE PUSH1 0x4 ADD PUSH1 0x40 MLOAD DUP1 SWAP2 SUB SWAP1 REVERT JUMPDEST PUSH2 0x46E DUP2 PUSH2 0x663 JUMP JUMPDEST POP PUSH2 0x485 PUSH1 0x1 PUSH0 MLOAD PUSH1 0x20 PUSH2 0x9C2 PUSH0 CODECOPY PUSH0 MLOAD SWAP1 PUSH0 MSTORE SSTORE JUMP JUMPDEST JUMP JUMPDEST PUSH2 0x48F PUSH2 0x61C JUMP JUMPDEST PUSH2 0x485 PUSH0 PUSH2 0x873 JUMP JUMPDEST PUSH2 0x4A0 PUSH2 0x61C JUMP JUMPDEST PUSH1 0x1 PUSH1 0x1 PUSH1 0xA0 SHL SUB DUP2 AND PUSH2 0x4C7 JUMPI PUSH1 0x40 MLOAD PUSH4 0xD92E233D PUSH1 0xE0 SHL DUP2 MSTORE PUSH1 0x4 ADD PUSH1 0x40 MLOAD DUP1 SWAP2 SUB SWAP1 REVERT JUMPDEST PUSH1 0x1 SLOAD PUSH1 0x40 MLOAD PUSH1 0x1 PUSH1 0x1 PUSH1 0xA0 SHL SUB DUP1 DUP5 AND SWAP3 AND SWAP1 PUSH32 0x94B26E82E0AC7252D24B51CA47FF930D06A0EE1335422D230E2156DA06485895 SWAP1 PUSH0 SWAP1 LOG3 PUSH1 0x1 DUP1 SLOAD PUSH1 0x1 PUSH1 0x1 PUSH1 0xA0 SHL SUB NOT AND PUSH1 0x1 PUSH1 0x1 PUSH1 0xA0 SHL SUB SWAP3 SWAP1 SWAP3 AND SWAP2 SWAP1 SWAP2 OR SWAP1 SSTORE JUMP JUMPDEST PUSH2 0x52A PUSH2 0x61C JUMP JUMPDEST PUSH2 0x532 PUSH2 0x648 JUMP JUMPDEST SELFBALANCE PUSH0 DUP2 SWAP1 SUB PUSH2 0x554 JUMPI PUSH1 0x40 MLOAD PUSH4 0x31BE0BB9 PUSH1 0xE1 SHL DUP2 MSTORE PUSH1 0x4 ADD PUSH1 0x40 MLOAD DUP1 SWAP2 SUB SWAP1 REVERT JUMPDEST PUSH0 DUP1 SLOAD PUSH1 0x40 MLOAD PUSH1 0x1 PUSH1 0x1 PUSH1 0xA0 SHL SUB SWAP1 SWAP2 AND SWAP1 DUP4 SWAP1 DUP4 DUP2 DUP2 DUP2 DUP6 DUP8 GAS CALL SWAP3 POP POP POP RETURNDATASIZE DUP1 PUSH0 DUP2 EQ PUSH2 0x59E JUMPI PUSH1 0x40 MLOAD SWAP2 POP PUSH1 0x1F NOT PUSH1 0x3F RETURNDATASIZE ADD AND DUP3 ADD PUSH1 0x40 MSTORE RETURNDATASIZE DUP3 MSTORE RETURNDATASIZE PUSH0 PUSH1 0x20 DUP5 ADD RETURNDATACOPY PUSH2 0x5A3 JUMP JUMPDEST PUSH1 0x60 SWAP2 POP JUMPDEST POP POP SWAP1 POP DUP1 PUSH2 0x5C5 JUMPI PUSH1 0x40 MLOAD PUSH4 0x12171D83 PUSH1 0xE3 SHL DUP2 MSTORE PUSH1 0x4 ADD PUSH1 0x40 MLOAD DUP1 SWAP2 SUB SWAP1 REVERT JUMPDEST POP POP PUSH2 0x485 PUSH1 0x1 PUSH0 MLOAD PUSH1 0x20 PUSH2 0x9C2 PUSH0 CODECOPY PUSH0 MLOAD SWAP1 PUSH0 MSTORE SSTORE JUMP JUMPDEST PUSH2 0x5E5 PUSH2 0x61C JUMP JUMPDEST PUSH1 0x1 PUSH1 0x1 PUSH1 0xA0 SHL SUB DUP2 AND PUSH2 0x613 JUMPI PUSH1 0x40 MLOAD PUSH4 0x1E4FBDF7 PUSH1 0xE0 SHL DUP2 MSTORE PUSH0 PUSH1 0x4 DUP3 ADD MSTORE PUSH1 0x24 ADD JUMPDEST PUSH1 0x40 MLOAD DUP1 SWAP2 SUB SWAP1 REVERT JUMPDEST PUSH2 0x36F DUP2 PUSH2 0x873 JUMP JUMPDEST PUSH0 SLOAD PUSH1 0x1 PUSH1 0x1 PUSH1 0xA0 SHL SUB AND CALLER EQ PUSH2 0x485 JUMPI PUSH1 0x40 MLOAD PUSH4 0x118CDAA7 PUSH1 0xE0 SHL DUP2 MSTORE CALLER PUSH1 0x4 DUP3 ADD MSTORE PUSH1 0x24 ADD PUSH2 0x60A JUMP JUMPDEST PUSH2 0x650 PUSH2 0x8C2 JUMP JUMPDEST PUSH1 0x2 PUSH0 MLOAD PUSH1 0x20 PUSH2 0x9C2 PUSH0 CODECOPY PUSH0 MLOAD SWAP1 PUSH0 MSTORE SSTORE JUMP JUMPDEST PUSH0 PUSH2 0x2710 PUSH1 0x3 SLOAD DUP4 PUSH2 0x675 SWAP2 SWAP1 PUSH2 0x962 JUMP JUMPDEST PUSH2 0x67F SWAP2 SWAP1 PUSH2 0x979 JUMP JUMPDEST SWAP1 POP PUSH0 PUSH2 0x68C DUP3 DUP5 PUSH2 0x998 JUMP JUMPDEST SWAP1 POP DUP2 ISZERO PUSH2 0x785 JUMPI DUP2 PUSH1 0x5 PUSH0 DUP3 DUP3 SLOAD PUSH2 0x6A5 SWAP2 SWAP1 PUSH2 0x905 JUMP JUMPDEST SWAP1 SWAP2 SSTORE POP POP PUSH1 0x1 SLOAD PUSH1 0x40 DUP1 MLOAD PUSH1 0x4 DUP2 MSTORE PUSH1 0x24 DUP2 ADD DUP3 MSTORE PUSH1 0x20 DUP2 ADD DUP1 MLOAD PUSH1 0x1 PUSH1 0x1 PUSH1 0xE0 SHL SUB AND PUSH4 0x17552F69 PUSH1 0xE2 SHL OR SWAP1 MSTORE SWAP1 MLOAD PUSH0 SWAP3 PUSH1 0x1 PUSH1 0x1 PUSH1 0xA0 SHL SUB AND SWAP2 DUP6 SWAP2 PUSH2 0x6EF SWAP2 SWAP1 PUSH2 0x9AB JUMP JUMPDEST PUSH0 PUSH1 0x40 MLOAD DUP1 DUP4 SUB DUP2 DUP6 DUP8 GAS CALL SWAP3 POP POP POP RETURNDATASIZE DUP1 PUSH0 DUP2 EQ PUSH2 0x729 JUMPI PUSH1 0x40 MLOAD SWAP2 POP PUSH1 0x1F NOT PUSH1 0x3F RETURNDATASIZE ADD AND DUP3 ADD PUSH1 0x40 MSTORE RETURNDATASIZE DUP3 MSTORE RETURNDATASIZE PUSH0 PUSH1 0x20 DUP5 ADD RETURNDATACOPY PUSH2 0x72E JUMP JUMPDEST PUSH1 0x60 SWAP2 POP JUMPDEST POP POP SWAP1 POP DUP1 PUSH2 0x750 JUMPI PUSH1 0x40 MLOAD PUSH4 0x12171D83 PUSH1 0xE3 SHL DUP2 MSTORE PUSH1 0x4 ADD PUSH1 0x40 MLOAD DUP1 SWAP2 SUB SWAP1 REVERT JUMPDEST PUSH1 0x40 MLOAD DUP4 DUP2 MSTORE PUSH32 0x138C70ADA9EA0C0D7DA1B5E25A66354714C16D8AAE412B278BA7182ACB2BB951 SWAP1 PUSH1 0x20 ADD PUSH1 0x40 MLOAD DUP1 SWAP2 SUB SWAP1 LOG1 POP JUMPDEST PUSH0 DUP2 GT DUP1 ISZERO PUSH2 0x79E JUMPI POP PUSH1 0x2 SLOAD PUSH1 0x1 PUSH1 0x1 PUSH1 0xA0 SHL SUB AND ISZERO ISZERO JUMPDEST ISZERO PUSH2 0x86E JUMPI DUP1 PUSH1 0x6 PUSH0 DUP3 DUP3 SLOAD PUSH2 0x7B4 SWAP2 SWAP1 PUSH2 0x905 JUMP JUMPDEST SWAP1 SWAP2 SSTORE POP POP PUSH1 0x2 SLOAD PUSH1 0x40 MLOAD PUSH0 SWAP2 PUSH1 0x1 PUSH1 0x1 PUSH1 0xA0 SHL SUB AND SWAP1 DUP4 SWAP1 DUP4 DUP2 DUP2 DUP2 DUP6 DUP8 GAS CALL SWAP3 POP POP POP RETURNDATASIZE DUP1 PUSH0 DUP2 EQ PUSH2 0x803 JUMPI PUSH1 0x40 MLOAD SWAP2 POP PUSH1 0x1F NOT PUSH1 0x3F RETURNDATASIZE ADD AND DUP3 ADD PUSH1 0x40 MSTORE RETURNDATASIZE DUP3 MSTORE RETURNDATASIZE PUSH0 PUSH1 0x20 DUP5 ADD RETURNDATACOPY PUSH2 0x808 JUMP JUMPDEST PUSH1 0x60 SWAP2 POP JUMPDEST POP POP SWAP1 POP DUP1 PUSH2 0x82A JUMPI PUSH1 0x40 MLOAD PUSH4 0x12171D83 PUSH1 0xE3 SHL DUP2 MSTORE PUSH1 0x4 ADD PUSH1 0x40 MLOAD DUP1 SWAP2 SUB SWAP1 REVERT JUMPDEST PUSH1 0x2 SLOAD PUSH1 0x40 MLOAD DUP4 DUP2 MSTORE PUSH1 0x1 PUSH1 0x1 PUSH1 0xA0 SHL SUB SWAP1 SWAP2 AND SWAP1 PUSH32 0x918AFB2104075AD8A2BB46A7F690B4AA1AA097202D3ADD75B0ECE5BBB71C939 SWAP1 PUSH1 0x20 ADD PUSH1 0x40 MLOAD DUP1 SWAP2 SUB SWAP1 LOG2 POP JUMPDEST POP POP POP JUMP JUMPDEST PUSH0 DUP1 SLOAD PUSH1 0x1 PUSH1 0x1 PUSH1 0xA0 SHL SUB DUP4 DUP2 AND PUSH1 0x1 PUSH1 0x1 PUSH1 0xA0 SHL SUB NOT DUP4 AND DUP2 OR DUP5 SSTORE PUSH1 0x40 MLOAD SWAP2 SWAP1 SWAP3 AND SWAP3 DUP4 SWAP2 PUSH32 0x8BE0079C531659141344CD1FD0A4F28419497F9722A3DAAFE3B4186F6B6457E0 SWAP2 SWAP1 LOG3 POP POP JUMP JUMPDEST PUSH0 MLOAD PUSH1 0x20 PUSH2 0x9C2 PUSH0 CODECOPY PUSH0 MLOAD SWAP1 PUSH0 MSTORE SLOAD PUSH1 0x2 SUB PUSH2 0x485 JUMPI PUSH1 0x40 MLOAD PUSH4 0x3EE5AEB5 PUSH1 0xE0 SHL DUP2 MSTORE PUSH1 0x4 ADD PUSH1 0x40 MLOAD DUP1 SWAP2 SUB SWAP1 REVERT JUMPDEST PUSH4 0x4E487B71 PUSH1 0xE0 SHL PUSH0 MSTORE PUSH1 0x11 PUSH1 0x4 MSTORE PUSH1 0x24 PUSH0 REVERT JUMPDEST DUP1 DUP3 ADD DUP1 DUP3 GT ISZERO PUSH2 0x918 JUMPI PUSH2 0x918 PUSH2 0x8F1 JUMP JUMPDEST SWAP3 SWAP2 POP POP JUMP JUMPDEST PUSH0 PUSH1 0x20 DUP3 DUP5 SUB SLT ISZERO PUSH2 0x92E JUMPI PUSH0 PUSH0 REVERT JUMPDEST POP CALLDATALOAD SWAP2 SWAP1 POP JUMP JUMPDEST PUSH0 PUSH1 0x20 DUP3 DUP5 SUB SLT ISZERO PUSH2 0x945 JUMPI PUSH0 PUSH0 REVERT JUMPDEST DUP2 CALLDATALOAD PUSH1 0x1 PUSH1 0x1 PUSH1 0xA0 SHL SUB DUP2 AND DUP2 EQ PUSH2 0x95B JUMPI PUSH0 PUSH0 REVERT JUMPDEST SWAP4 SWAP3 POP POP POP JUMP JUMPDEST DUP1 DUP3 MUL DUP2 ISZERO DUP3 DUP3 DIV DUP5 EQ OR PUSH2 0x918 JUMPI PUSH2 0x918 PUSH2 0x8F1 JUMP JUMPDEST PUSH0 DUP3 PUSH2 0x993 JUMPI PUSH4 0x4E487B71 PUSH1 0xE0 SHL PUSH0 MSTORE PUSH1 0x12 PUSH1 0x4 MSTORE PUSH1 0x24 PUSH0 REVERT JUMPDEST POP DIV SWAP1 JUMP JUMPDEST DUP2 DUP2 SUB DUP2 DUP2 GT ISZERO PUSH2 0x918 JUMPI PUSH2 0x918 PUSH2 0x8F1 JUMP JUMPDEST PUSH0 DUP3 MLOAD DUP1 PUSH1 0x20 DUP6 ADD DUP5 MCOPY PUSH0 SWAP3 ADD SWAP2 DUP3 MSTORE POP SWAP2 SWAP1 POP JUMP INVALID SWAP12 PUSH24 0x9B17422D0DF92223018B32B4D1FA46E071723D6817E2486D STOP EXTCODESIZE 0xEC 0xC5 PUSH0 STOP LOG2 PUSH5 0x6970667358 0x22 SLT KECCAK256 PUSH1 0xCB SAR 0xB2 0xE9 SWAP11 ADDRESS PUSH14 0x6A9089364E262B20ACDA457DB0B1 0xF JUMPDEST SWAP5 0xB5 DUP11 MSTORE 0xBE PUSH4 0x43B86473 PUSH16 0x6C634300081C00330000000000000000 "},"methodIdentifiers":{"TOTAL_BPS()":"d3cd52bc","dividendBps()":"e51fde32","emergencyWithdraw()":"db2e21bc","flush()":"6b9f96ea","flushAmount(uint256)":"250055a8","holderDividend()":"55d5ea01","marketingWallet()":"75f0a874","owner()":"8da5cb5b","renounceOwnership()":"715018a6","setAllocation(uint256)":"2bd8d552","setHolderDividend(address)":"7db6a945","setMarketingWallet(address)":"5d098b38","totalForwardedToDividend()":"d361ea49","totalForwardedToMarketing()":"ac0ab8fc","totalReceived()":"a3c2c462","transferOwnership(address)":"f2fde38b"}}}}}