{"contracts/MasterVault.sol":{"MasterVault":{"abi":[{"inputs":[{"internalType":"address","name":"_lpRewardVault","type":"address"},{"internalType":"address","name":"_referralVault","type":"address"},{"internalType":"address","name":"_marketingVault","type":"address"},{"internalType":"address","name":"_owner","type":"address"}],"stateMutability":"nonpayable","type":"constructor"},{"inputs":[{"internalType":"address","name":"owner","type":"address"}],"name":"OwnableInvalidOwner","type":"error"},{"inputs":[{"internalType":"address","name":"account","type":"address"}],"name":"OwnableUnauthorizedAccount","type":"error"},{"inputs":[],"name":"ReentrancyGuardReentrantCall","type":"error"},{"anonymous":false,"inputs":[{"indexed":false,"internalType":"uint256","name":"lpBps","type":"uint256"},{"indexed":false,"internalType":"uint256","name":"referralBps","type":"uint256"},{"indexed":false,"internalType":"uint256","name":"marketingBps","type":"uint256"}],"name":"AllocationUpdated","type":"event"},{"anonymous":false,"inputs":[{"indexed":false,"internalType":"uint256","name":"toLp","type":"uint256"},{"indexed":false,"internalType":"uint256","name":"toReferral","type":"uint256"},{"indexed":false,"internalType":"uint256","name":"toMarketing","type":"uint256"},{"indexed":false,"internalType":"uint256","name":"timestamp","type":"uint256"}],"name":"Distributed","type":"event"},{"anonymous":false,"inputs":[{"indexed":true,"internalType":"address","name":"previousOwner","type":"address"},{"indexed":true,"internalType":"address","name":"newOwner","type":"address"}],"name":"OwnershipTransferred","type":"event"},{"anonymous":false,"inputs":[{"indexed":true,"internalType":"address","name":"sender","type":"address"},{"indexed":false,"internalType":"uint256","name":"amount","type":"uint256"}],"name":"Received","type":"event"},{"anonymous":false,"inputs":[{"indexed":false,"internalType":"address","name":"lpRewardVault","type":"address"},{"indexed":false,"internalType":"address","name":"referralVault","type":"address"},{"indexed":false,"internalType":"address","name":"marketingVault","type":"address"}],"name":"RecipientsUpdated","type":"event"},{"stateMutability":"payable","type":"fallback"},{"inputs":[],"name":"TOTAL_BPS","outputs":[{"internalType":"uint256","name":"","type":"uint256"}],"stateMutability":"view","type":"function"},{"inputs":[],"name":"distribute","outputs":[],"stateMutability":"nonpayable","type":"function"},{"inputs":[],"name":"lpBps","outputs":[{"internalType":"uint256","name":"","type":"uint256"}],"stateMutability":"view","type":"function"},{"inputs":[],"name":"lpRewardVault","outputs":[{"internalType":"address","name":"","type":"address"}],"stateMutability":"view","type":"function"},{"inputs":[],"name":"marketingBps","outputs":[{"internalType":"uint256","name":"","type":"uint256"}],"stateMutability":"view","type":"function"},{"inputs":[],"name":"marketingVault","outputs":[{"internalType":"address","name":"","type":"address"}],"stateMutability":"view","type":"function"},{"inputs":[],"name":"owner","outputs":[{"internalType":"address","name":"","type":"address"}],"stateMutability":"view","type":"function"},{"inputs":[],"name":"referralBps","outputs":[{"internalType":"uint256","name":"","type":"uint256"}],"stateMutability":"view","type":"function"},{"inputs":[],"name":"referralVault","outputs":[{"internalType":"address","name":"","type":"address"}],"stateMutability":"view","type":"function"},{"inputs":[],"name":"renounceOwnership","outputs":[],"stateMutability":"nonpayable","type":"function"},{"inputs":[{"internalType":"uint256","name":"_lpBps","type":"uint256"},{"internalType":"uint256","name":"_referralBps","type":"uint256"},{"internalType":"uint256","name":"_marketingBps","type":"uint256"}],"name":"setAllocation","outputs":[],"stateMutability":"nonpayable","type":"function"},{"inputs":[{"internalType":"address","name":"_lpRewardVault","type":"address"},{"internalType":"address","name":"_referralVault","type":"address"},{"internalType":"address","name":"_marketingVault","type":"address"}],"name":"setRecipients","outputs":[],"stateMutability":"nonpayable","type":"function"},{"inputs":[],"name":"totalDistributedToLP","outputs":[{"internalType":"uint256","name":"","type":"uint256"}],"stateMutability":"view","type":"function"},{"inputs":[],"name":"totalDistributedToMarketing","outputs":[{"internalType":"uint256","name":"","type":"uint256"}],"stateMutability":"view","type":"function"},{"inputs":[],"name":"totalDistributedToReferral","outputs":[{"internalType":"uint256","name":"","type":"uint256"}],"stateMutability":"view","type":"function"},{"inputs":[],"name":"totalReceived","outputs":[{"internalType":"uint256","name":"","type":"uint256"}],"stateMutability":"view","type":"function"},{"inputs":[{"internalType":"address","name":"newOwner","type":"address"}],"name":"transferOwnership","outputs":[],"stateMutability":"nonpayable","type":"function"},{"stateMutability":"payable","type":"receive"}],"evm":{"bytecode":{"linkReferences":{},"object":"60806040526110be6001556110be600255610594600355348015610021575f5ffd5b50604051610ca8380380610ca883398101604081905261004091610223565b806001600160a01b03811661006f57604051631e4fbdf760e01b81525f60048201526024015b60405180910390fd5b610078816101b9565b5060017f9b779b17422d0df92223018b32b4d1fa46e071723d6817e2486d003becc55f00556001600160a01b0384166100e15760405162461bcd60e51b815260206004820152600b60248201526a04d563a207a65726f206c760ac1b6044820152606401610066565b6001600160a01b03831661012b5760405162461bcd60e51b815260206004820152601160248201527013558e881e995c9bc81c9959995c9c985b607a1b6044820152606401610066565b6001600160a01b0382166101765760405162461bcd60e51b81526020600482015260126024820152714d563a207a65726f206d61726b6574696e6760701b6044820152606401610066565b50600480546001600160a01b039485166001600160a01b031991821617909155600580549385169382169390931790925560068054919093169116179055610274565b5f80546001600160a01b038381166001600160a01b0319831681178455604051919092169283917f8be0079c531659141344cd1fd0a4f28419497f9722a3daafe3b4186f6b6457e09190a35050565b80516001600160a01b038116811461021e575f5ffd5b919050565b5f5f5f5f60808587031215610236575f5ffd5b61023f85610208565b935061024d60208601610208565b925061025b60408601610208565b915061026960608601610208565b905092959194509250565b610a27806102815f395ff3fe608060405260043610610101575f3560e01c8063715018a611610094578063ba51e78611610063578063ba51e786146102b1578063d3cd52bc146102d0578063e4fc6b6d146102e5578063f2fde38b146102f9578063fcd0251b1461031857610153565b8063715018a6146102575780638da5cb5b1461026b578063a3c2c46214610287578063ab2fd6001461029c57610153565b80634c265a13116100d05780634c265a13146101d75780635d41f8e41461020e57806366e3540a14610223578063683a01691461023857610153565b8063088ff0771461016457806315d75b591461018c5780631fbb6ff0146101ad57806329f827da146101c257610153565b36610153573460075f82825461011791906108eb565b909155505060405134815233907f88a5966d370b9919b20f3e2c13ff65706f196a4e32cc2c12bf57088f885258749060200160405180910390a2005b3460075f82825461011791906108eb565b34801561016f575f5ffd5b5061017960095481565b6040519081526020015b60405180910390f35b348015610197575f5ffd5b506101ab6101a6366004610904565b610337565b005b3480156101b8575f5ffd5b5061017960025481565b3480156101cd575f5ffd5b5061017960085481565b3480156101e2575f5ffd5b506006546101f6906001600160a01b031681565b6040516001600160a01b039091168152602001610183565b348015610219575f5ffd5b5061017960015481565b34801561022e575f5ffd5b5061017960035481565b348015610243575f5ffd5b506004546101f6906001600160a01b031681565b348015610262575f5ffd5b506101ab6103ff565b348015610276575f5ffd5b505f546001600160a01b03166101f6565b348015610292575f5ffd5b5061017960075481565b3480156102a7575f5ffd5b50610179600a5481565b3480156102bc575f5ffd5b506005546101f6906001600160a01b031681565b3480156102db575f5ffd5b5061017961271081565b3480156102f0575f5ffd5b506101ab610412565b348015610304575f5ffd5b506101ab610313366004610948565b6105b8565b348015610323575f5ffd5b506101ab610332366004610968565b6105f5565b61033f610752565b6127108161034d84866108eb565b61035791906108eb565b146103a95760405162461bcd60e51b815260206004820152601960248201527f4d563a20627073206d7573742073756d20746f2031303030300000000000000060448201526064015b60405180910390fd5b60018390556002829055600381905560408051848152602081018490529081018290527f21c55dfccedf7a8f464081b4c32abf493ebe4c9a653d37fd29365b3775a79cfd906060015b60405180910390a1505050565b610407610752565b6104105f61077e565b565b61041a6107cd565b47806104685760405162461bcd60e51b815260206004820152601960248201527f4d563a206e6f7468696e6720746f20646973747269627574650000000000000060448201526064016103a0565b5f6127106001548361047a91906109a8565b61048491906109bf565b90505f6127106002548461049891906109a8565b6104a291906109bf565b90505f816104b084866109de565b6104ba91906109de565b90508260085f8282546104cd91906108eb565b925050819055508160095f8282546104e591906108eb565b9250508190555080600a5f8282546104fd91906108eb565b9091555050600454610518906001600160a01b0316846107fb565b60055461052e906001600160a01b0316836107fb565b600654610544906001600160a01b0316826107fb565b60408051848152602081018490529081018290524260608201527ff7576d8c2653e9d07af5ef229acf59b339e327d4e0eaddb4a96615534cf148f89060800160405180910390a15050505061041060017f9b779b17422d0df92223018b32b4d1fa46e071723d6817e2486d003becc55f0055565b6105c0610752565b6001600160a01b0381166105e957604051631e4fbdf760e01b81525f60048201526024016103a0565b6105f28161077e565b50565b6105fd610752565b6001600160a01b0383166106415760405162461bcd60e51b815260206004820152600b60248201526a04d563a207a65726f206c760ac1b60448201526064016103a0565b6001600160a01b03821661068b5760405162461bcd60e51b815260206004820152601160248201527013558e881e995c9bc81c9959995c9c985b607a1b60448201526064016103a0565b6001600160a01b0381166106d65760405162461bcd60e51b81526020600482015260126024820152714d563a207a65726f206d61726b6574696e6760701b60448201526064016103a0565b600480546001600160a01b038581166001600160a01b0319928316811790935560058054868316908416811790915560068054928616929093168217909255604080519384526020840192909252908201527fec281be185293b0327cfe7ac0590abd3cef1fa7d5b8024c3c2bca20b563b3b84906060016103f2565b5f546001600160a01b031633146104105760405163118cdaa760e01b81523360048201526024016103a0565b5f80546001600160a01b038381166001600160a01b0319831681178455604051919092169283917f8be0079c531659141344cd1fd0a4f28419497f9722a3daafe3b4186f6b6457e09190a35050565b6107d5610895565b60027f9b779b17422d0df92223018b32b4d1fa46e071723d6817e2486d003becc55f0055565b5f826001600160a01b0316826040515f6040518083038185875af1925050503d805f8114610844576040519150601f19603f3d011682016040523d82523d5f602084013e610849565b606091505b50509050806108905760405162461bcd60e51b815260206004820152601360248201527213558e881d1c985b9cd9995c8819985a5b1959606a1b60448201526064016103a0565b505050565b7f9b779b17422d0df92223018b32b4d1fa46e071723d6817e2486d003becc55f005460020361041057604051633ee5aeb560e01b815260040160405180910390fd5b634e487b7160e01b5f52601160045260245ffd5b808201808211156108fe576108fe6108d7565b92915050565b5f5f5f60608486031215610916575f5ffd5b505081359360208301359350604090920135919050565b80356001600160a01b0381168114610943575f5ffd5b919050565b5f60208284031215610958575f5ffd5b6109618261092d565b9392505050565b5f5f5f6060848603121561097a575f5ffd5b6109838461092d565b92506109916020850161092d565b915061099f6040850161092d565b90509250925092565b80820281158282048414176108fe576108fe6108d7565b5f826109d957634e487b7160e01b5f52601260045260245ffd5b500490565b818103818111156108fe576108fe6108d756fea26469706673582212207e68effb7f43bda7fb373241a48a2fa234b4ac230ee2d5a544a3b8c49bb4fb5b64736f6c634300081c0033","opcodes":"PUSH1 0x80 PUSH1 0x40 MSTORE PUSH2 0x10BE PUSH1 0x1 SSTORE PUSH2 0x10BE PUSH1 0x2 SSTORE PUSH2 0x594 PUSH1 0x3 SSTORE CALLVALUE DUP1 ISZERO PUSH2 0x21 JUMPI PUSH0 PUSH0 REVERT JUMPDEST POP PUSH1 0x40 MLOAD PUSH2 0xCA8 CODESIZE SUB DUP1 PUSH2 0xCA8 DUP4 CODECOPY DUP2 ADD PUSH1 0x40 DUP2 SWAP1 MSTORE PUSH2 0x40 SWAP2 PUSH2 0x223 JUMP JUMPDEST DUP1 PUSH1 0x1 PUSH1 0x1 PUSH1 0xA0 SHL SUB DUP2 AND PUSH2 0x6F JUMPI PUSH1 0x40 MLOAD PUSH4 0x1E4FBDF7 PUSH1 0xE0 SHL DUP2 MSTORE PUSH0 PUSH1 0x4 DUP3 ADD MSTORE PUSH1 0x24 ADD JUMPDEST PUSH1 0x40 MLOAD DUP1 SWAP2 SUB SWAP1 REVERT JUMPDEST PUSH2 0x78 DUP2 PUSH2 0x1B9 JUMP JUMPDEST POP PUSH1 0x1 PUSH32 0x9B779B17422D0DF92223018B32B4D1FA46E071723D6817E2486D003BECC55F00 SSTORE PUSH1 0x1 PUSH1 0x1 PUSH1 0xA0 SHL SUB DUP5 AND PUSH2 0xE1 JUMPI PUSH1 0x40 MLOAD PUSH3 0x461BCD PUSH1 0xE5 SHL DUP2 MSTORE PUSH1 0x20 PUSH1 0x4 DUP3 ADD MSTORE PUSH1 0xB PUSH1 0x24 DUP3 ADD MSTORE PUSH11 0x4D563A207A65726F206C7 PUSH1 0xAC SHL PUSH1 0x44 DUP3 ADD MSTORE PUSH1 0x64 ADD PUSH2 0x66 JUMP JUMPDEST PUSH1 0x1 PUSH1 0x1 PUSH1 0xA0 SHL SUB DUP4 AND PUSH2 0x12B JUMPI PUSH1 0x40 MLOAD PUSH3 0x461BCD PUSH1 0xE5 SHL DUP2 MSTORE PUSH1 0x20 PUSH1 0x4 DUP3 ADD MSTORE PUSH1 0x11 PUSH1 0x24 DUP3 ADD MSTORE PUSH17 0x13558E881E995C9BC81C9959995C9C985B PUSH1 0x7A SHL PUSH1 0x44 DUP3 ADD MSTORE PUSH1 0x64 ADD PUSH2 0x66 JUMP JUMPDEST PUSH1 0x1 PUSH1 0x1 PUSH1 0xA0 SHL SUB DUP3 AND PUSH2 0x176 JUMPI PUSH1 0x40 MLOAD PUSH3 0x461BCD PUSH1 0xE5 SHL DUP2 MSTORE PUSH1 0x20 PUSH1 0x4 DUP3 ADD MSTORE PUSH1 0x12 PUSH1 0x24 DUP3 ADD MSTORE PUSH18 0x4D563A207A65726F206D61726B6574696E67 PUSH1 0x70 SHL PUSH1 0x44 DUP3 ADD MSTORE PUSH1 0x64 ADD PUSH2 0x66 JUMP JUMPDEST POP PUSH1 0x4 DUP1 SLOAD PUSH1 0x1 PUSH1 0x1 PUSH1 0xA0 SHL SUB SWAP5 DUP6 AND PUSH1 0x1 PUSH1 0x1 PUSH1 0xA0 SHL SUB NOT SWAP2 DUP3 AND OR SWAP1 SWAP2 SSTORE PUSH1 0x5 DUP1 SLOAD SWAP4 DUP6 AND SWAP4 DUP3 AND SWAP4 SWAP1 SWAP4 OR SWAP1 SWAP3 SSTORE PUSH1 0x6 DUP1 SLOAD SWAP2 SWAP1 SWAP4 AND SWAP2 AND OR SWAP1 SSTORE PUSH2 0x274 JUMP JUMPDEST PUSH0 DUP1 SLOAD PUSH1 0x1 PUSH1 0x1 PUSH1 0xA0 SHL SUB DUP4 DUP2 AND PUSH1 0x1 PUSH1 0x1 PUSH1 0xA0 SHL SUB NOT DUP4 AND DUP2 OR DUP5 SSTORE PUSH1 0x40 MLOAD SWAP2 SWAP1 SWAP3 AND SWAP3 DUP4 SWAP2 PUSH32 0x8BE0079C531659141344CD1FD0A4F28419497F9722A3DAAFE3B4186F6B6457E0 SWAP2 SWAP1 LOG3 POP POP JUMP JUMPDEST DUP1 MLOAD PUSH1 0x1 PUSH1 0x1 PUSH1 0xA0 SHL SUB DUP2 AND DUP2 EQ PUSH2 0x21E JUMPI PUSH0 PUSH0 REVERT JUMPDEST SWAP2 SWAP1 POP JUMP JUMPDEST PUSH0 PUSH0 PUSH0 PUSH0 PUSH1 0x80 DUP6 DUP8 SUB SLT ISZERO PUSH2 0x236 JUMPI PUSH0 PUSH0 REVERT JUMPDEST PUSH2 0x23F DUP6 PUSH2 0x208 JUMP JUMPDEST SWAP4 POP PUSH2 0x24D PUSH1 0x20 DUP7 ADD PUSH2 0x208 JUMP JUMPDEST SWAP3 POP PUSH2 0x25B PUSH1 0x40 DUP7 ADD PUSH2 0x208 JUMP JUMPDEST SWAP2 POP PUSH2 0x269 PUSH1 0x60 DUP7 ADD PUSH2 0x208 JUMP JUMPDEST SWAP1 POP SWAP3 SWAP6 SWAP2 SWAP5 POP SWAP3 POP JUMP JUMPDEST PUSH2 0xA27 DUP1 PUSH2 0x281 PUSH0 CODECOPY PUSH0 RETURN INVALID PUSH1 0x80 PUSH1 0x40 MSTORE PUSH1 0x4 CALLDATASIZE LT PUSH2 0x101 JUMPI PUSH0 CALLDATALOAD PUSH1 0xE0 SHR DUP1 PUSH4 0x715018A6 GT PUSH2 0x94 JUMPI DUP1 PUSH4 0xBA51E786 GT PUSH2 0x63 JUMPI DUP1 PUSH4 0xBA51E786 EQ PUSH2 0x2B1 JUMPI DUP1 PUSH4 0xD3CD52BC EQ PUSH2 0x2D0 JUMPI DUP1 PUSH4 0xE4FC6B6D EQ PUSH2 0x2E5 JUMPI DUP1 PUSH4 0xF2FDE38B EQ PUSH2 0x2F9 JUMPI DUP1 PUSH4 0xFCD0251B EQ PUSH2 0x318 JUMPI PUSH2 0x153 JUMP JUMPDEST DUP1 PUSH4 0x715018A6 EQ PUSH2 0x257 JUMPI DUP1 PUSH4 0x8DA5CB5B EQ PUSH2 0x26B JUMPI DUP1 PUSH4 0xA3C2C462 EQ PUSH2 0x287 JUMPI DUP1 PUSH4 0xAB2FD600 EQ PUSH2 0x29C JUMPI PUSH2 0x153 JUMP JUMPDEST DUP1 PUSH4 0x4C265A13 GT PUSH2 0xD0 JUMPI DUP1 PUSH4 0x4C265A13 EQ PUSH2 0x1D7 JUMPI DUP1 PUSH4 0x5D41F8E4 EQ PUSH2 0x20E JUMPI DUP1 PUSH4 0x66E3540A EQ PUSH2 0x223 JUMPI DUP1 PUSH4 0x683A0169 EQ PUSH2 0x238 JUMPI PUSH2 0x153 JUMP JUMPDEST DUP1 PUSH4 0x88FF077 EQ PUSH2 0x164 JUMPI DUP1 PUSH4 0x15D75B59 EQ PUSH2 0x18C JUMPI DUP1 PUSH4 0x1FBB6FF0 EQ PUSH2 0x1AD JUMPI DUP1 PUSH4 0x29F827DA EQ PUSH2 0x1C2 JUMPI PUSH2 0x153 JUMP JUMPDEST CALLDATASIZE PUSH2 0x153 JUMPI CALLVALUE PUSH1 0x7 PUSH0 DUP3 DUP3 SLOAD PUSH2 0x117 SWAP2 SWAP1 PUSH2 0x8EB JUMP JUMPDEST SWAP1 SWAP2 SSTORE POP POP PUSH1 0x40 MLOAD CALLVALUE DUP2 MSTORE CALLER SWAP1 PUSH32 0x88A5966D370B9919B20F3E2C13FF65706F196A4E32CC2C12BF57088F88525874 SWAP1 PUSH1 0x20 ADD PUSH1 0x40 MLOAD DUP1 SWAP2 SUB SWAP1 LOG2 STOP JUMPDEST CALLVALUE PUSH1 0x7 PUSH0 DUP3 DUP3 SLOAD PUSH2 0x117 SWAP2 SWAP1 PUSH2 0x8EB JUMP JUMPDEST CALLVALUE DUP1 ISZERO PUSH2 0x16F JUMPI PUSH0 PUSH0 REVERT JUMPDEST POP PUSH2 0x179 PUSH1 0x9 SLOAD DUP2 JUMP JUMPDEST PUSH1 0x40 MLOAD SWAP1 DUP2 MSTORE PUSH1 0x20 ADD JUMPDEST PUSH1 0x40 MLOAD DUP1 SWAP2 SUB SWAP1 RETURN JUMPDEST CALLVALUE DUP1 ISZERO PUSH2 0x197 JUMPI PUSH0 PUSH0 REVERT JUMPDEST POP PUSH2 0x1AB PUSH2 0x1A6 CALLDATASIZE PUSH1 0x4 PUSH2 0x904 JUMP JUMPDEST PUSH2 0x337 JUMP JUMPDEST STOP JUMPDEST CALLVALUE DUP1 ISZERO PUSH2 0x1B8 JUMPI PUSH0 PUSH0 REVERT JUMPDEST POP PUSH2 0x179 PUSH1 0x2 SLOAD DUP2 JUMP JUMPDEST CALLVALUE DUP1 ISZERO PUSH2 0x1CD JUMPI PUSH0 PUSH0 REVERT JUMPDEST POP PUSH2 0x179 PUSH1 0x8 SLOAD DUP2 JUMP JUMPDEST CALLVALUE DUP1 ISZERO PUSH2 0x1E2 JUMPI PUSH0 PUSH0 REVERT JUMPDEST POP PUSH1 0x6 SLOAD PUSH2 0x1F6 SWAP1 PUSH1 0x1 PUSH1 0x1 PUSH1 0xA0 SHL SUB AND DUP2 JUMP JUMPDEST PUSH1 0x40 MLOAD PUSH1 0x1 PUSH1 0x1 PUSH1 0xA0 SHL SUB SWAP1 SWAP2 AND DUP2 MSTORE PUSH1 0x20 ADD PUSH2 0x183 JUMP JUMPDEST CALLVALUE DUP1 ISZERO PUSH2 0x219 JUMPI PUSH0 PUSH0 REVERT JUMPDEST POP PUSH2 0x179 PUSH1 0x1 SLOAD DUP2 JUMP JUMPDEST CALLVALUE DUP1 ISZERO PUSH2 0x22E JUMPI PUSH0 PUSH0 REVERT JUMPDEST POP PUSH2 0x179 PUSH1 0x3 SLOAD DUP2 JUMP JUMPDEST CALLVALUE DUP1 ISZERO PUSH2 0x243 JUMPI PUSH0 PUSH0 REVERT JUMPDEST POP PUSH1 0x4 SLOAD PUSH2 0x1F6 SWAP1 PUSH1 0x1 PUSH1 0x1 PUSH1 0xA0 SHL SUB AND DUP2 JUMP JUMPDEST CALLVALUE DUP1 ISZERO PUSH2 0x262 JUMPI PUSH0 PUSH0 REVERT JUMPDEST POP PUSH2 0x1AB PUSH2 0x3FF JUMP JUMPDEST CALLVALUE DUP1 ISZERO PUSH2 0x276 JUMPI PUSH0 PUSH0 REVERT JUMPDEST POP PUSH0 SLOAD PUSH1 0x1 PUSH1 0x1 PUSH1 0xA0 SHL SUB AND PUSH2 0x1F6 JUMP JUMPDEST CALLVALUE DUP1 ISZERO PUSH2 0x292 JUMPI PUSH0 PUSH0 REVERT JUMPDEST POP PUSH2 0x179 PUSH1 0x7 SLOAD DUP2 JUMP JUMPDEST CALLVALUE DUP1 ISZERO PUSH2 0x2A7 JUMPI PUSH0 PUSH0 REVERT JUMPDEST POP PUSH2 0x179 PUSH1 0xA SLOAD DUP2 JUMP JUMPDEST CALLVALUE DUP1 ISZERO PUSH2 0x2BC JUMPI PUSH0 PUSH0 REVERT JUMPDEST POP PUSH1 0x5 SLOAD PUSH2 0x1F6 SWAP1 PUSH1 0x1 PUSH1 0x1 PUSH1 0xA0 SHL SUB AND DUP2 JUMP JUMPDEST CALLVALUE DUP1 ISZERO PUSH2 0x2DB JUMPI PUSH0 PUSH0 REVERT JUMPDEST POP PUSH2 0x179 PUSH2 0x2710 DUP2 JUMP JUMPDEST CALLVALUE DUP1 ISZERO PUSH2 0x2F0 JUMPI PUSH0 PUSH0 REVERT JUMPDEST POP PUSH2 0x1AB PUSH2 0x412 JUMP JUMPDEST CALLVALUE DUP1 ISZERO PUSH2 0x304 JUMPI PUSH0 PUSH0 REVERT JUMPDEST POP PUSH2 0x1AB PUSH2 0x313 CALLDATASIZE PUSH1 0x4 PUSH2 0x948 JUMP JUMPDEST PUSH2 0x5B8 JUMP JUMPDEST CALLVALUE DUP1 ISZERO PUSH2 0x323 JUMPI PUSH0 PUSH0 REVERT JUMPDEST POP PUSH2 0x1AB PUSH2 0x332 CALLDATASIZE PUSH1 0x4 PUSH2 0x968 JUMP JUMPDEST PUSH2 0x5F5 JUMP JUMPDEST PUSH2 0x33F PUSH2 0x752 JUMP JUMPDEST PUSH2 0x2710 DUP2 PUSH2 0x34D DUP5 DUP7 PUSH2 0x8EB JUMP JUMPDEST PUSH2 0x357 SWAP2 SWAP1 PUSH2 0x8EB JUMP JUMPDEST EQ PUSH2 0x3A9 JUMPI PUSH1 0x40 MLOAD PUSH3 0x461BCD PUSH1 0xE5 SHL DUP2 MSTORE PUSH1 0x20 PUSH1 0x4 DUP3 ADD MSTORE PUSH1 0x19 PUSH1 0x24 DUP3 ADD MSTORE PUSH32 0x4D563A20627073206D7573742073756D20746F20313030303000000000000000 PUSH1 0x44 DUP3 ADD MSTORE PUSH1 0x64 ADD JUMPDEST PUSH1 0x40 MLOAD DUP1 SWAP2 SUB SWAP1 REVERT JUMPDEST PUSH1 0x1 DUP4 SWAP1 SSTORE PUSH1 0x2 DUP3 SWAP1 SSTORE PUSH1 0x3 DUP2 SWAP1 SSTORE PUSH1 0x40 DUP1 MLOAD DUP5 DUP2 MSTORE PUSH1 0x20 DUP2 ADD DUP5 SWAP1 MSTORE SWAP1 DUP2 ADD DUP3 SWAP1 MSTORE PUSH32 0x21C55DFCCEDF7A8F464081B4C32ABF493EBE4C9A653D37FD29365B3775A79CFD SWAP1 PUSH1 0x60 ADD JUMPDEST PUSH1 0x40 MLOAD DUP1 SWAP2 SUB SWAP1 LOG1 POP POP POP JUMP JUMPDEST PUSH2 0x407 PUSH2 0x752 JUMP JUMPDEST PUSH2 0x410 PUSH0 PUSH2 0x77E JUMP JUMPDEST JUMP JUMPDEST PUSH2 0x41A PUSH2 0x7CD JUMP JUMPDEST SELFBALANCE DUP1 PUSH2 0x468 JUMPI PUSH1 0x40 MLOAD PUSH3 0x461BCD PUSH1 0xE5 SHL DUP2 MSTORE PUSH1 0x20 PUSH1 0x4 DUP3 ADD MSTORE PUSH1 0x19 PUSH1 0x24 DUP3 ADD MSTORE PUSH32 0x4D563A206E6F7468696E6720746F206469737472696275746500000000000000 PUSH1 0x44 DUP3 ADD MSTORE PUSH1 0x64 ADD PUSH2 0x3A0 JUMP JUMPDEST PUSH0 PUSH2 0x2710 PUSH1 0x1 SLOAD DUP4 PUSH2 0x47A SWAP2 SWAP1 PUSH2 0x9A8 JUMP JUMPDEST PUSH2 0x484 SWAP2 SWAP1 PUSH2 0x9BF JUMP JUMPDEST SWAP1 POP PUSH0 PUSH2 0x2710 PUSH1 0x2 SLOAD DUP5 PUSH2 0x498 SWAP2 SWAP1 PUSH2 0x9A8 JUMP JUMPDEST PUSH2 0x4A2 SWAP2 SWAP1 PUSH2 0x9BF JUMP JUMPDEST SWAP1 POP PUSH0 DUP2 PUSH2 0x4B0 DUP5 DUP7 PUSH2 0x9DE JUMP JUMPDEST PUSH2 0x4BA SWAP2 SWAP1 PUSH2 0x9DE JUMP JUMPDEST SWAP1 POP DUP3 PUSH1 0x8 PUSH0 DUP3 DUP3 SLOAD PUSH2 0x4CD SWAP2 SWAP1 PUSH2 0x8EB JUMP JUMPDEST SWAP3 POP POP DUP2 SWAP1 SSTORE POP DUP2 PUSH1 0x9 PUSH0 DUP3 DUP3 SLOAD PUSH2 0x4E5 SWAP2 SWAP1 PUSH2 0x8EB JUMP JUMPDEST SWAP3 POP POP DUP2 SWAP1 SSTORE POP DUP1 PUSH1 0xA PUSH0 DUP3 DUP3 SLOAD PUSH2 0x4FD SWAP2 SWAP1 PUSH2 0x8EB JUMP JUMPDEST SWAP1 SWAP2 SSTORE POP POP PUSH1 0x4 SLOAD PUSH2 0x518 SWAP1 PUSH1 0x1 PUSH1 0x1 PUSH1 0xA0 SHL SUB AND DUP5 PUSH2 0x7FB JUMP JUMPDEST PUSH1 0x5 SLOAD PUSH2 0x52E SWAP1 PUSH1 0x1 PUSH1 0x1 PUSH1 0xA0 SHL SUB AND DUP4 PUSH2 0x7FB JUMP JUMPDEST PUSH1 0x6 SLOAD PUSH2 0x544 SWAP1 PUSH1 0x1 PUSH1 0x1 PUSH1 0xA0 SHL SUB AND DUP3 PUSH2 0x7FB JUMP JUMPDEST PUSH1 0x40 DUP1 MLOAD DUP5 DUP2 MSTORE PUSH1 0x20 DUP2 ADD DUP5 SWAP1 MSTORE SWAP1 DUP2 ADD DUP3 SWAP1 MSTORE TIMESTAMP PUSH1 0x60 DUP3 ADD MSTORE PUSH32 0xF7576D8C2653E9D07AF5EF229ACF59B339E327D4E0EADDB4A96615534CF148F8 SWAP1 PUSH1 0x80 ADD PUSH1 0x40 MLOAD DUP1 SWAP2 SUB SWAP1 LOG1 POP POP POP POP PUSH2 0x410 PUSH1 0x1 PUSH32 0x9B779B17422D0DF92223018B32B4D1FA46E071723D6817E2486D003BECC55F00 SSTORE JUMP JUMPDEST PUSH2 0x5C0 PUSH2 0x752 JUMP JUMPDEST PUSH1 0x1 PUSH1 0x1 PUSH1 0xA0 SHL SUB DUP2 AND PUSH2 0x5E9 JUMPI PUSH1 0x40 MLOAD PUSH4 0x1E4FBDF7 PUSH1 0xE0 SHL DUP2 MSTORE PUSH0 PUSH1 0x4 DUP3 ADD MSTORE PUSH1 0x24 ADD PUSH2 0x3A0 JUMP JUMPDEST PUSH2 0x5F2 DUP2 PUSH2 0x77E JUMP JUMPDEST POP JUMP JUMPDEST PUSH2 0x5FD PUSH2 0x752 JUMP JUMPDEST PUSH1 0x1 PUSH1 0x1 PUSH1 0xA0 SHL SUB DUP4 AND PUSH2 0x641 JUMPI PUSH1 0x40 MLOAD PUSH3 0x461BCD PUSH1 0xE5 SHL DUP2 MSTORE PUSH1 0x20 PUSH1 0x4 DUP3 ADD MSTORE PUSH1 0xB PUSH1 0x24 DUP3 ADD MSTORE PUSH11 0x4D563A207A65726F206C7 PUSH1 0xAC SHL PUSH1 0x44 DUP3 ADD MSTORE PUSH1 0x64 ADD PUSH2 0x3A0 JUMP JUMPDEST PUSH1 0x1 PUSH1 0x1 PUSH1 0xA0 SHL SUB DUP3 AND PUSH2 0x68B JUMPI PUSH1 0x40 MLOAD PUSH3 0x461BCD PUSH1 0xE5 SHL DUP2 MSTORE PUSH1 0x20 PUSH1 0x4 DUP3 ADD MSTORE PUSH1 0x11 PUSH1 0x24 DUP3 ADD MSTORE PUSH17 0x13558E881E995C9BC81C9959995C9C985B PUSH1 0x7A SHL PUSH1 0x44 DUP3 ADD MSTORE PUSH1 0x64 ADD PUSH2 0x3A0 JUMP JUMPDEST PUSH1 0x1 PUSH1 0x1 PUSH1 0xA0 SHL SUB DUP2 AND PUSH2 0x6D6 JUMPI PUSH1 0x40 MLOAD PUSH3 0x461BCD PUSH1 0xE5 SHL DUP2 MSTORE PUSH1 0x20 PUSH1 0x4 DUP3 ADD MSTORE PUSH1 0x12 PUSH1 0x24 DUP3 ADD MSTORE PUSH18 0x4D563A207A65726F206D61726B6574696E67 PUSH1 0x70 SHL PUSH1 0x44 DUP3 ADD MSTORE PUSH1 0x64 ADD PUSH2 0x3A0 JUMP JUMPDEST PUSH1 0x4 DUP1 SLOAD PUSH1 0x1 PUSH1 0x1 PUSH1 0xA0 SHL SUB DUP6 DUP2 AND PUSH1 0x1 PUSH1 0x1 PUSH1 0xA0 SHL SUB NOT SWAP3 DUP4 AND DUP2 OR SWAP1 SWAP4 SSTORE PUSH1 0x5 DUP1 SLOAD DUP7 DUP4 AND SWAP1 DUP5 AND DUP2 OR SWAP1 SWAP2 SSTORE PUSH1 0x6 DUP1 SLOAD SWAP3 DUP7 AND SWAP3 SWAP1 SWAP4 AND DUP3 OR SWAP1 SWAP3 SSTORE PUSH1 0x40 DUP1 MLOAD SWAP4 DUP5 MSTORE PUSH1 0x20 DUP5 ADD SWAP3 SWAP1 SWAP3 MSTORE SWAP1 DUP3 ADD MSTORE PUSH32 0xEC281BE185293B0327CFE7AC0590ABD3CEF1FA7D5B8024C3C2BCA20B563B3B84 SWAP1 PUSH1 0x60 ADD PUSH2 0x3F2 JUMP JUMPDEST PUSH0 SLOAD PUSH1 0x1 PUSH1 0x1 PUSH1 0xA0 SHL SUB AND CALLER EQ PUSH2 0x410 JUMPI PUSH1 0x40 MLOAD PUSH4 0x118CDAA7 PUSH1 0xE0 SHL DUP2 MSTORE CALLER PUSH1 0x4 DUP3 ADD MSTORE PUSH1 0x24 ADD PUSH2 0x3A0 JUMP JUMPDEST PUSH0 DUP1 SLOAD PUSH1 0x1 PUSH1 0x1 PUSH1 0xA0 SHL SUB DUP4 DUP2 AND PUSH1 0x1 PUSH1 0x1 PUSH1 0xA0 SHL SUB NOT DUP4 AND DUP2 OR DUP5 SSTORE PUSH1 0x40 MLOAD SWAP2 SWAP1 SWAP3 AND SWAP3 DUP4 SWAP2 PUSH32 0x8BE0079C531659141344CD1FD0A4F28419497F9722A3DAAFE3B4186F6B6457E0 SWAP2 SWAP1 LOG3 POP POP JUMP JUMPDEST PUSH2 0x7D5 PUSH2 0x895 JUMP JUMPDEST PUSH1 0x2 PUSH32 0x9B779B17422D0DF92223018B32B4D1FA46E071723D6817E2486D003BECC55F00 SSTORE JUMP JUMPDEST PUSH0 DUP3 PUSH1 0x1 PUSH1 0x1 PUSH1 0xA0 SHL SUB AND DUP3 PUSH1 0x40 MLOAD PUSH0 PUSH1 0x40 MLOAD DUP1 DUP4 SUB DUP2 DUP6 DUP8 GAS CALL SWAP3 POP POP POP RETURNDATASIZE DUP1 PUSH0 DUP2 EQ PUSH2 0x844 JUMPI PUSH1 0x40 MLOAD SWAP2 POP PUSH1 0x1F NOT PUSH1 0x3F RETURNDATASIZE ADD AND DUP3 ADD PUSH1 0x40 MSTORE RETURNDATASIZE DUP3 MSTORE RETURNDATASIZE PUSH0 PUSH1 0x20 DUP5 ADD RETURNDATACOPY PUSH2 0x849 JUMP JUMPDEST PUSH1 0x60 SWAP2 POP JUMPDEST POP POP SWAP1 POP DUP1 PUSH2 0x890 JUMPI PUSH1 0x40 MLOAD PUSH3 0x461BCD PUSH1 0xE5 SHL DUP2 MSTORE PUSH1 0x20 PUSH1 0x4 DUP3 ADD MSTORE PUSH1 0x13 PUSH1 0x24 DUP3 ADD MSTORE PUSH19 0x13558E881D1C985B9CD9995C8819985A5B1959 PUSH1 0x6A SHL PUSH1 0x44 DUP3 ADD MSTORE PUSH1 0x64 ADD PUSH2 0x3A0 JUMP JUMPDEST POP POP POP JUMP JUMPDEST PUSH32 0x9B779B17422D0DF92223018B32B4D1FA46E071723D6817E2486D003BECC55F00 SLOAD PUSH1 0x2 SUB PUSH2 0x410 JUMPI PUSH1 0x40 MLOAD PUSH4 0x3EE5AEB5 PUSH1 0xE0 SHL DUP2 MSTORE PUSH1 0x4 ADD PUSH1 0x40 MLOAD DUP1 SWAP2 SUB SWAP1 REVERT JUMPDEST PUSH4 0x4E487B71 PUSH1 0xE0 SHL PUSH0 MSTORE PUSH1 0x11 PUSH1 0x4 MSTORE PUSH1 0x24 PUSH0 REVERT JUMPDEST DUP1 DUP3 ADD DUP1 DUP3 GT ISZERO PUSH2 0x8FE JUMPI PUSH2 0x8FE PUSH2 0x8D7 JUMP JUMPDEST SWAP3 SWAP2 POP POP JUMP JUMPDEST PUSH0 PUSH0 PUSH0 PUSH1 0x60 DUP5 DUP7 SUB SLT ISZERO PUSH2 0x916 JUMPI PUSH0 PUSH0 REVERT JUMPDEST POP POP DUP2 CALLDATALOAD SWAP4 PUSH1 0x20 DUP4 ADD CALLDATALOAD SWAP4 POP PUSH1 0x40 SWAP1 SWAP3 ADD CALLDATALOAD SWAP2 SWAP1 POP JUMP JUMPDEST DUP1 CALLDATALOAD PUSH1 0x1 PUSH1 0x1 PUSH1 0xA0 SHL SUB DUP2 AND DUP2 EQ PUSH2 0x943 JUMPI PUSH0 PUSH0 REVERT JUMPDEST SWAP2 SWAP1 POP JUMP JUMPDEST PUSH0 PUSH1 0x20 DUP3 DUP5 SUB SLT ISZERO PUSH2 0x958 JUMPI PUSH0 PUSH0 REVERT JUMPDEST PUSH2 0x961 DUP3 PUSH2 0x92D JUMP JUMPDEST SWAP4 SWAP3 POP POP POP JUMP JUMPDEST PUSH0 PUSH0 PUSH0 PUSH1 0x60 DUP5 DUP7 SUB SLT ISZERO PUSH2 0x97A JUMPI PUSH0 PUSH0 REVERT JUMPDEST PUSH2 0x983 DUP5 PUSH2 0x92D JUMP JUMPDEST SWAP3 POP PUSH2 0x991 PUSH1 0x20 DUP6 ADD PUSH2 0x92D JUMP JUMPDEST SWAP2 POP PUSH2 0x99F PUSH1 0x40 DUP6 ADD PUSH2 0x92D JUMP JUMPDEST SWAP1 POP SWAP3 POP SWAP3 POP SWAP3 JUMP JUMPDEST DUP1 DUP3 MUL DUP2 ISZERO DUP3 DUP3 DIV DUP5 EQ OR PUSH2 0x8FE JUMPI PUSH2 0x8FE PUSH2 0x8D7 JUMP JUMPDEST PUSH0 DUP3 PUSH2 0x9D9 JUMPI PUSH4 0x4E487B71 PUSH1 0xE0 SHL PUSH0 MSTORE PUSH1 0x12 PUSH1 0x4 MSTORE PUSH1 0x24 PUSH0 REVERT JUMPDEST POP DIV SWAP1 JUMP JUMPDEST DUP2 DUP2 SUB DUP2 DUP2 GT ISZERO PUSH2 0x8FE JUMPI PUSH2 0x8FE PUSH2 0x8D7 JUMP INVALID LOG2 PUSH5 0x6970667358 0x22 SLT KECCAK256 PUSH31 0x68EFFB7F43BDA7FB373241A48A2FA234B4AC230EE2D5A544A3B8C49BB4FB5B PUSH5 0x736F6C6343 STOP ADDMOD SHR STOP CALLER "},"methodIdentifiers":{"TOTAL_BPS()":"d3cd52bc","distribute()":"e4fc6b6d","lpBps()":"5d41f8e4","lpRewardVault()":"683a0169","marketingBps()":"66e3540a","marketingVault()":"4c265a13","owner()":"8da5cb5b","referralBps()":"1fbb6ff0","referralVault()":"ba51e786","renounceOwnership()":"715018a6","setAllocation(uint256,uint256,uint256)":"15d75b59","setRecipients(address,address,address)":"fcd0251b","totalDistributedToLP()":"29f827da","totalDistributedToMarketing()":"ab2fd600","totalDistributedToReferral()":"088ff077","totalReceived()":"a3c2c462","transferOwnership(address)":"f2fde38b"}}}}}