{"contracts/HolderDividend.sol":{"HolderDividend":{"abi":[{"inputs":[{"internalType":"address","name":"_token","type":"address"},{"internalType":"uint256","name":"_minimumBalance","type":"uint256"},{"internalType":"address","name":"_owner","type":"address"}],"stateMutability":"nonpayable","type":"constructor"},{"inputs":[],"name":"AlreadyRegistered","type":"error"},{"inputs":[{"internalType":"uint256","name":"have","type":"uint256"},{"internalType":"uint256","name":"need","type":"uint256"}],"name":"InsufficientBalance","type":"error"},{"inputs":[],"name":"NotRegistered","type":"error"},{"inputs":[],"name":"NothingToClaim","type":"error"},{"inputs":[{"internalType":"address","name":"owner","type":"address"}],"name":"OwnableInvalidOwner","type":"error"},{"inputs":[{"internalType":"address","name":"account","type":"address"}],"name":"OwnableUnauthorizedAccount","type":"error"},{"inputs":[],"name":"ReentrancyGuardReentrantCall","type":"error"},{"inputs":[],"name":"TransferFailed","type":"error"},{"inputs":[],"name":"ZeroAddress","type":"error"},{"anonymous":false,"inputs":[{"indexed":true,"internalType":"address","name":"user","type":"address"},{"indexed":false,"internalType":"uint256","name":"oldBalance","type":"uint256"},{"indexed":false,"internalType":"uint256","name":"newBalance","type":"uint256"},{"indexed":false,"internalType":"uint256","name":"newWeightedStartTs","type":"uint256"}],"name":"BalanceUpdated","type":"event"},{"anonymous":false,"inputs":[{"indexed":true,"internalType":"uint256","name":"idx","type":"uint256"},{"indexed":false,"internalType":"uint256","name":"bnbAmount","type":"uint256"},{"indexed":false,"internalType":"uint256","name":"totalWeight","type":"uint256"},{"indexed":false,"internalType":"uint256","name":"settledAt","type":"uint256"}],"name":"BatchSettled","type":"event"},{"anonymous":false,"inputs":[{"indexed":true,"internalType":"address","name":"user","type":"address"},{"indexed":false,"internalType":"uint256","name":"amount","type":"uint256"},{"indexed":false,"internalType":"uint256","name":"nextIdx","type":"uint256"}],"name":"Claimed","type":"event"},{"anonymous":false,"inputs":[{"indexed":true,"internalType":"address","name":"user","type":"address"},{"indexed":false,"internalType":"uint256","name":"forfeitedBnb","type":"uint256"}],"name":"Invalidated","type":"event"},{"anonymous":false,"inputs":[{"indexed":false,"internalType":"uint256","name":"prev","type":"uint256"},{"indexed":false,"internalType":"uint256","name":"next","type":"uint256"}],"name":"MinimumBalanceUpdated","type":"event"},{"anonymous":false,"inputs":[{"indexed":true,"internalType":"address","name":"previousOwner","type":"address"},{"indexed":true,"internalType":"address","name":"newOwner","type":"address"}],"name":"OwnershipTransferred","type":"event"},{"anonymous":false,"inputs":[{"indexed":true,"internalType":"address","name":"user","type":"address"},{"indexed":false,"internalType":"uint256","name":"balance","type":"uint256"}],"name":"Registered","type":"event"},{"anonymous":false,"inputs":[{"indexed":true,"internalType":"address","name":"prev","type":"address"},{"indexed":true,"internalType":"address","name":"next","type":"address"}],"name":"TaxReceiverUpdated","type":"event"},{"inputs":[],"name":"activeRegisteredCount","outputs":[{"internalType":"uint256","name":"","type":"uint256"}],"stateMutability":"view","type":"function"},{"inputs":[],"name":"claim","outputs":[],"stateMutability":"nonpayable","type":"function"},{"inputs":[{"internalType":"address","name":"user","type":"address"}],"name":"currentWeight","outputs":[{"internalType":"uint256","name":"","type":"uint256"}],"stateMutability":"view","type":"function"},{"inputs":[],"name":"emergencyWithdraw","outputs":[],"stateMutability":"nonpayable","type":"function"},{"inputs":[],"name":"forfeitedPool","outputs":[{"internalType":"uint256","name":"","type":"uint256"}],"stateMutability":"view","type":"function"},{"inputs":[],"name":"minimumBalance","outputs":[{"internalType":"uint256","name":"","type":"uint256"}],"stateMutability":"view","type":"function"},{"inputs":[],"name":"notifyReward","outputs":[],"stateMutability":"payable","type":"function"},{"inputs":[],"name":"owner","outputs":[{"internalType":"address","name":"","type":"address"}],"stateMutability":"view","type":"function"},{"inputs":[{"internalType":"address","name":"user","type":"address"}],"name":"pendingReward","outputs":[{"internalType":"uint256","name":"","type":"uint256"}],"stateMutability":"view","type":"function"},{"inputs":[],"name":"register","outputs":[],"stateMutability":"nonpayable","type":"function"},{"inputs":[{"internalType":"uint256","name":"","type":"uint256"}],"name":"registeredList","outputs":[{"internalType":"address","name":"","type":"address"}],"stateMutability":"view","type":"function"},{"inputs":[],"name":"renounceOwnership","outputs":[],"stateMutability":"nonpayable","type":"function"},{"inputs":[{"internalType":"uint256","name":"_minimumBalance","type":"uint256"}],"name":"setMinimumBalance","outputs":[],"stateMutability":"nonpayable","type":"function"},{"inputs":[{"internalType":"address","name":"_taxReceiver","type":"address"}],"name":"setTaxReceiver","outputs":[],"stateMutability":"nonpayable","type":"function"},{"inputs":[],"name":"settlementCount","outputs":[{"internalType":"uint256","name":"","type":"uint256"}],"stateMutability":"view","type":"function"},{"inputs":[{"internalType":"uint256","name":"","type":"uint256"}],"name":"settlements","outputs":[{"internalType":"uint256","name":"bnbAmount","type":"uint256"},{"internalType":"uint256","name":"totalWeight","type":"uint256"},{"internalType":"uint256","name":"settledAt","type":"uint256"}],"stateMutability":"view","type":"function"},{"inputs":[],"name":"taxReceiver","outputs":[{"internalType":"address","name":"","type":"address"}],"stateMutability":"view","type":"function"},{"inputs":[],"name":"token","outputs":[{"internalType":"contract IERC20","name":"","type":"address"}],"stateMutability":"view","type":"function"},{"inputs":[],"name":"totalClaimedGlobal","outputs":[{"internalType":"uint256","name":"","type":"uint256"}],"stateMutability":"view","type":"function"},{"inputs":[],"name":"totalCurrentWeight","outputs":[{"internalType":"uint256","name":"","type":"uint256"}],"stateMutability":"view","type":"function"},{"inputs":[],"name":"totalReceived","outputs":[{"internalType":"uint256","name":"","type":"uint256"}],"stateMutability":"view","type":"function"},{"inputs":[],"name":"totalRegisteredBalance","outputs":[{"internalType":"uint256","name":"","type":"uint256"}],"stateMutability":"view","type":"function"},{"inputs":[{"internalType":"address","name":"newOwner","type":"address"}],"name":"transferOwnership","outputs":[],"stateMutability":"nonpayable","type":"function"},{"inputs":[{"internalType":"address","name":"user","type":"address"}],"name":"updateBalance","outputs":[],"stateMutability":"nonpayable","type":"function"},{"inputs":[{"internalType":"address","name":"user","type":"address"}],"name":"userInfo","outputs":[{"internalType":"bool","name":"registered","type":"bool"},{"internalType":"uint256","name":"registeredBalance","type":"uint256"},{"internalType":"uint256","name":"weightedStartTs","type":"uint256"},{"internalType":"uint256","name":"holdingSeconds","type":"uint256"},{"internalType":"uint256","name":"registeredAt","type":"uint256"},{"internalType":"uint256","name":"nextSettlementIdx","type":"uint256"},{"internalType":"uint256","name":"userTotalClaimed","type":"uint256"},{"internalType":"uint256","name":"pendingBnb","type":"uint256"}],"stateMutability":"view","type":"function"},{"inputs":[{"internalType":"address","name":"user","type":"address"}],"name":"userWeightShare","outputs":[{"internalType":"uint256","name":"numerator","type":"uint256"},{"internalType":"uint256","name":"denominator","type":"uint256"}],"stateMutability":"view","type":"function"},{"inputs":[{"internalType":"address","name":"","type":"address"}],"name":"users","outputs":[{"internalType":"uint256","name":"registeredBalance","type":"uint256"},{"internalType":"uint256","name":"weightedStartTs","type":"uint256"},{"internalType":"uint256","name":"nextSettlementIdx","type":"uint256"},{"internalType":"uint256","name":"totalClaimed","type":"uint256"},{"internalType":"uint256","name":"registeredAt","type":"uint256"},{"internalType":"bool","name":"registered","type":"bool"}],"stateMutability":"view","type":"function"},{"stateMutability":"payable","type":"receive"}],"evm":{"bytecode":{"linkReferences":{},"object":"60a060405234801561000f575f5ffd5b5060405161166038038061166083398101604081905261002e91610132565b806001600160a01b03811661005c57604051631e4fbdf760e01b81525f600482015260240160405180910390fd5b610065816100c8565b5060017f9b779b17422d0df92223018b32b4d1fa46e071723d6817e2486d003becc55f00556001600160a01b0383166100b15760405163d92e233d60e01b815260040160405180910390fd5b506001600160a01b0390911660805260015561016b565b5f80546001600160a01b038381166001600160a01b0319831681178455604051919092169283917f8be0079c531659141344cd1fd0a4f28419497f9722a3daafe3b4186f6b6457e09190a35050565b80516001600160a01b038116811461012d575f5ffd5b919050565b5f5f5f60608486031215610144575f5ffd5b61014d84610117565b92506020840151915061016260408501610117565b90509250925092565b6080516114cf6101915f395f818161054b01528181610715015261098001526114cf5ff3fe608060405260043610610198575f3560e01c8063a3c2c462116100e7578063db2e21bc11610087578063f40f0f5211610062578063f40f0f52146104f2578063f4634de114610511578063fb7c2bf214610525578063fc0c546a1461053a575f5ffd5b8063db2e21bc146104a0578063e6ef73d6146104b4578063f2fde38b146104d3575f5ffd5b8063b9d1d49b116100c2578063b9d1d49b14610438578063cd8de42c1461044d578063d3f216361461046c578063d4a3ffe914610481575f5ffd5b8063a3c2c4621461038e578063a87430ba146103a3578063ab8bc45d14610423575f5ffd5b806340b8405a116101525780635d54bda41161012d5780635d54bda41461030e578063715018a6146103165780637872feb21461032a5780638da5cb5b1461035e575f5ffd5b806340b8405a146102bc5780634e71d92d146102db5780634e7a2207146102ef575f5ffd5b8063037eca76146101ba5780630526d3ae146101dd57806308df7dc8146101f15780631959a0021461022b5780631aa3a008146102875780633446e4b41461029d575f5ffd5b366101b6573460085f8282546101ae9190611397565b925050819055005b5f5ffd5b3480156101c5575f5ffd5b506003545b6040519081526020015b60405180910390f35b3480156101e8575f5ffd5b506101ca61056d565b3480156101fc575f5ffd5b5061021061020b3660046113b0565b6105dc565b604080519384526020840192909252908201526060016101d4565b348015610236575f5ffd5b5061024a6102453660046113c7565b61060d565b6040805198151589526020890197909752958701949094526060860192909252608085015260a084015260c083015260e0820152610100016101d4565b348015610292575f5ffd5b5061029b6106c2565b005b3480156102a8575f5ffd5b5061029b6102b73660046113b0565b6108e3565b3480156102c7575f5ffd5b5061029b6102d63660046113c7565b61092c565b3480156102e6575f5ffd5b5061029b610ae5565b3480156102fa575f5ffd5b506101ca6103093660046113c7565b610bea565b61029b610c4f565b348015610321575f5ffd5b5061029b610d85565b348015610335575f5ffd5b506103496103443660046113c7565b610d96565b604080519283526020830191909152016101d4565b348015610369575f5ffd5b505f546001600160a01b03165b6040516001600160a01b0390911681526020016101d4565b348015610399575f5ffd5b506101ca60085481565b3480156103ae575f5ffd5b506103f46103bd3660046113c7565b600560208190525f918252604090912080546001820154600283015460038401546004850154949095015492949193909260ff1686565b6040805196875260208701959095529385019290925260608401526080830152151560a082015260c0016101d4565b34801561042e575f5ffd5b506101ca60075481565b348015610443575f5ffd5b506101ca60015481565b348015610458575f5ffd5b5061029b6104673660046113c7565b610e26565b348015610477575f5ffd5b506101ca60045481565b34801561048c575f5ffd5b5061037661049b3660046113b0565b610e89565b3480156104ab575f5ffd5b5061029b610eb1565b3480156104bf575f5ffd5b50600254610376906001600160a01b031681565b3480156104de575f5ffd5b5061029b6104ed3660046113c7565b610f6c565b3480156104fd575f5ffd5b506101ca61050c3660046113c7565b610fa6565b34801561051c575f5ffd5b506101ca610fe2565b348015610530575f5ffd5b506101ca60095481565b348015610545575f5ffd5b506103767f000000000000000000000000000000000000000000000000000000000000000081565b5f80805b6006548110156105d65760055f60068381548110610591576105916113ed565b5f9182526020808320909101546001600160a01b0316835282019290925260400190206005015460ff16156105ce57816105ca81611401565b9250505b600101610571565b50919050565b600381815481106105eb575f80fd5b5f91825260209091206003909102018054600182015460029092015490925083565b6001600160a01b0381165f908152600560208190526040822090810154829182918291829182918291829190829060ff16801561064d5750816001015442115b610657575f610666565b60018201546106669042611419565b60058301548354600185015460048601546002870154600388015495965060ff90941694929391928692908661069c575f6106a5565b6106a589610ff0565b995099509950995099509950995099505050919395975091939597565b6106ca6110e1565b335f908152600560208190526040909120015460ff16156106fe57604051630ea075bf60e21b815260040160405180910390fd5b6040516370a0823160e01b81523360048201525f907f00000000000000000000000000000000000000000000000000000000000000006001600160a01b0316906370a0823190602401602060405180830381865afa158015610762573d5f5f3e3d5ffd5b505050506040513d601f19601f82011682018060405250810190610786919061142c565b90506001548110156107c25760015460405163cf47918160e01b81526107b9918391600401918252602082015260400190565b60405180910390fd5b6040805160c081018252828152426020808301828152600380548587019081525f6060870181815260808801968752600160a08901818152338452600597889052998320985189559451948801949094559051600287015591519085015591516004840155925191909201805460ff19169115159190911790556007805483929061084e908490611397565b9091555050600680546001810182555f919091527ff652222313e28459528d920b65115c16c04f3efc82aaedc97be59f3f377c0d3f0180546001600160a01b031916339081179091556040518281527f6f3bf3fa84e4763a43b3d23f9d79be242d6d5c834941ff4c1111b67469e1150c9060200160405180910390a2506108e160015f51602061147a5f395f51905f5255565b565b6108eb6110fc565b60015460408051918252602082018390527fc2ed71504bd70e947d9a514f52be4f28827ef83859c414054d0874ab910844a1910160405180910390a1600155565b6109346110e1565b6001600160a01b0381165f9081526005602081905260409091209081015460ff1661095f5750610acc565b6040516370a0823160e01b81526001600160a01b0383811660048301525f917f0000000000000000000000000000000000000000000000000000000000000000909116906370a0823190602401602060405180830381865afa1580156109c7573d5f5f3e3d5ffd5b505050506040513d601f19601f820116820180604052508101906109eb919061142c565b8254909150811015610a0857610a018383611128565b5050610acc565b8154811115610ac95781545f610a1e8284611419565b9050425f84610a2d8385611443565b6001880154610a3c9087611443565b610a469190611397565b610a50919061145a565b90508484600754610a619190611419565b610a6b9190611397565b6007558486556001860181905560408051858152602081018790529081018290526001600160a01b038816907fd8b455e949c1d522b95778231eec1beff214f4fbe062f64b18a86272caaa1fc79060600160405180910390a2505050505b50505b610ae260015f51602061147a5f395f51905f5255565b50565b610aed6110e1565b335f9081526005602081905260409091209081015460ff16610b225760405163aba4733960e01b815260040160405180910390fd5b5f610b2c82610ff0565b9050805f03610b4e576040516312d37ee560e31b815260040160405180910390fd5b600380546002840181905590830180548391905f90610b6e908490611397565b925050819055508160095f828254610b869190611397565b90915550610b96905033836111dd565b604080518381526020810183905233917f987d620f307ff6b94d58743cb7a7509f24071586a77759b77c2d4e29f75a2f9a910160405180910390a25050506108e160015f51602061147a5f395f51905f5255565b6001600160a01b0381165f90815260056020819052604082209081015460ff16610c1657505f92915050565b5f81600101544211610c28575f610c37565b6001820154610c379042611419565b8254909150610c47908290611443565b949350505050565b3460085f828254610c609190611397565b90915550506004545f90610c749034611397565b9050805f03610c805750565b5f610c89611252565b9050805f03610c985750600455565b5f60048190556003805460408051606080820183528782526020808301888152428486018181526001880189559888905293517fc2575a0e9e593c00f959f8c92f12db2869c3395a3b0502d05e2516446f71f85b97870297880155517fc2575a0e9e593c00f959f8c92f12db2869c3395a3b0502d05e2516446f71f85c87015595517fc2575a0e9e593c00f959f8c92f12db2869c3395a3b0502d05e2516446f71f85d909501949094558151878152948501869052908401529182917fd89917fc1a94c47cec7534fffae602f7f5c38d3444fd4cf7df701dd61c1eca1e91015b60405180910390a2505050565b610d8d6110fc565b6108e15f611305565b6001600160a01b0381165f90815260056020819052604082209081015482919060ff16610dc957505f9360019350915050565b5f81600101544211610ddb575f610dea565b6001820154610dea9042611419565b90505f81835f0154610dfc9190611443565b90505f610e07611252565b9050818115610e165781610e19565b60015b9550955050505050915091565b610e2e6110fc565b6002546040516001600160a01b038084169216907ff970bc488f38cdc7caf559de1924e9c564d90c54d1767c82df2cbc55c9829a5e905f90a3600280546001600160a01b0319166001600160a01b0392909216919091179055565b60068181548110610e98575f80fd5b5f918252602090912001546001600160a01b0316905081565b610eb96110fc565b610ec16110e1565b475f819003610ee3576040516312d37ee560e31b815260040160405180910390fd5b5f80546040516001600160a01b039091169083908381818185875af1925050503d805f8114610f2d576040519150601f19603f3d011682016040523d82523d5f602084013e610f32565b606091505b5050905080610f54576040516312171d8360e31b815260040160405180910390fd5b50506108e160015f51602061147a5f395f51905f5255565b610f746110fc565b6001600160a01b038116610f9d57604051631e4fbdf760e01b81525f60048201526024016107b9565b610ae281611305565b6001600160a01b0381165f90815260056020819052604082209081015460ff16610fd257505f92915050565b610fdb81610ff0565b9392505050565b5f610feb611252565b905090565b60035460028201545f9182915b818110156110d8575f60038281548110611019576110196113ed565b905f5260205f2090600302016040518060600160405290815f8201548152602001600182015481526020016002820154815250509050856001015481604001511161106457506110d0565b5f866001015482604001516110799190611419565b90505f81885f015461108b9190611443565b90505f836020015111801561109f57505f81115b156110cc57602083015183516110b59083611443565b6110bf919061145a565b6110c99087611397565b95505b5050505b600101610ffd565b50909392505050565b6110e9611354565b60025f51602061147a5f395f51905f5255565b5f546001600160a01b031633146108e15760405163118cdaa760e01b81523360048201526024016107b9565b5f61113282610ff0565b90508015611151578060045f82825461114b9190611397565b90915550505b8154600780545f90611164908490611419565b90915550506001600160a01b0383165f81815260056020819052604080832083815560018101849055600281018490556003810184905560048101939093559101805460ff19169055517f488c05909d4e56ae790f1eb8d403a86eee7cf559e6fa940942dbb5890ad0baf990610d789084815260200190565b5f826001600160a01b0316826040515f6040518083038185875af1925050503d805f8114611226576040519150601f19603f3d011682016040523d82523d5f602084013e61122b565b606091505b505090508061124d576040516312171d8360e31b815260040160405180910390fd5b505050565b6006545f9081904290825b818110156112fc575f60068281548110611279576112796113ed565b5f9182526020808320909101546001600160a01b03168083526005918290526040909220908101549192509060ff166112b35750506112f4565b5f816001015486116112c5575f6112d4565b60018201546112d49087611419565b82549091506112e4908290611443565b6112ee9088611397565b96505050505b60010161125d565b50919392505050565b5f80546001600160a01b038381166001600160a01b0319831681178455604051919092169283917f8be0079c531659141344cd1fd0a4f28419497f9722a3daafe3b4186f6b6457e09190a35050565b5f51602061147a5f395f51905f52546002036108e157604051633ee5aeb560e01b815260040160405180910390fd5b634e487b7160e01b5f52601160045260245ffd5b808201808211156113aa576113aa611383565b92915050565b5f602082840312156113c0575f5ffd5b5035919050565b5f602082840312156113d7575f5ffd5b81356001600160a01b0381168114610fdb575f5ffd5b634e487b7160e01b5f52603260045260245ffd5b5f6001820161141257611412611383565b5060010190565b818103818111156113aa576113aa611383565b5f6020828403121561143c575f5ffd5b5051919050565b80820281158282048414176113aa576113aa611383565b5f8261147457634e487b7160e01b5f52601260045260245ffd5b50049056fe9b779b17422d0df92223018b32b4d1fa46e071723d6817e2486d003becc55f00a264697066735822122060eab2810f2eb6a690541ebefc82d76f14d4c25d6a6872c9b82042812e4d94ef64736f6c634300081c0033","opcodes":"PUSH1 0xA0 PUSH1 0x40 MSTORE CALLVALUE DUP1 ISZERO PUSH2 0xF JUMPI PUSH0 PUSH0 REVERT JUMPDEST POP PUSH1 0x40 MLOAD PUSH2 0x1660 CODESIZE SUB DUP1 PUSH2 0x1660 DUP4 CODECOPY DUP2 ADD PUSH1 0x40 DUP2 SWAP1 MSTORE PUSH2 0x2E SWAP2 PUSH2 0x132 JUMP JUMPDEST DUP1 PUSH1 0x1 PUSH1 0x1 PUSH1 0xA0 SHL SUB DUP2 AND PUSH2 0x5C JUMPI PUSH1 0x40 MLOAD PUSH4 0x1E4FBDF7 PUSH1 0xE0 SHL DUP2 MSTORE PUSH0 PUSH1 0x4 DUP3 ADD MSTORE PUSH1 0x24 ADD PUSH1 0x40 MLOAD DUP1 SWAP2 SUB SWAP1 REVERT JUMPDEST PUSH2 0x65 DUP2 PUSH2 0xC8 JUMP JUMPDEST POP PUSH1 0x1 PUSH32 0x9B779B17422D0DF92223018B32B4D1FA46E071723D6817E2486D003BECC55F00 SSTORE PUSH1 0x1 PUSH1 0x1 PUSH1 0xA0 SHL SUB DUP4 AND PUSH2 0xB1 JUMPI PUSH1 0x40 MLOAD PUSH4 0xD92E233D PUSH1 0xE0 SHL DUP2 MSTORE PUSH1 0x4 ADD PUSH1 0x40 MLOAD DUP1 SWAP2 SUB SWAP1 REVERT JUMPDEST POP PUSH1 0x1 PUSH1 0x1 PUSH1 0xA0 SHL SUB SWAP1 SWAP2 AND PUSH1 0x80 MSTORE PUSH1 0x1 SSTORE PUSH2 0x16B JUMP JUMPDEST PUSH0 DUP1 SLOAD PUSH1 0x1 PUSH1 0x1 PUSH1 0xA0 SHL SUB DUP4 DUP2 AND PUSH1 0x1 PUSH1 0x1 PUSH1 0xA0 SHL SUB NOT DUP4 AND DUP2 OR DUP5 SSTORE PUSH1 0x40 MLOAD SWAP2 SWAP1 SWAP3 AND SWAP3 DUP4 SWAP2 PUSH32 0x8BE0079C531659141344CD1FD0A4F28419497F9722A3DAAFE3B4186F6B6457E0 SWAP2 SWAP1 LOG3 POP POP JUMP JUMPDEST DUP1 MLOAD PUSH1 0x1 PUSH1 0x1 PUSH1 0xA0 SHL SUB DUP2 AND DUP2 EQ PUSH2 0x12D JUMPI PUSH0 PUSH0 REVERT JUMPDEST SWAP2 SWAP1 POP JUMP JUMPDEST PUSH0 PUSH0 PUSH0 PUSH1 0x60 DUP5 DUP7 SUB SLT ISZERO PUSH2 0x144 JUMPI PUSH0 PUSH0 REVERT JUMPDEST PUSH2 0x14D DUP5 PUSH2 0x117 JUMP JUMPDEST SWAP3 POP PUSH1 0x20 DUP5 ADD MLOAD SWAP2 POP PUSH2 0x162 PUSH1 0x40 DUP6 ADD PUSH2 0x117 JUMP JUMPDEST SWAP1 POP SWAP3 POP SWAP3 POP SWAP3 JUMP JUMPDEST PUSH1 0x80 MLOAD PUSH2 0x14CF PUSH2 0x191 PUSH0 CODECOPY PUSH0 DUP2 DUP2 PUSH2 0x54B ADD MSTORE DUP2 DUP2 PUSH2 0x715 ADD MSTORE PUSH2 0x980 ADD MSTORE PUSH2 0x14CF PUSH0 RETURN INVALID PUSH1 0x80 PUSH1 0x40 MSTORE PUSH1 0x4 CALLDATASIZE LT PUSH2 0x198 JUMPI PUSH0 CALLDATALOAD PUSH1 0xE0 SHR DUP1 PUSH4 0xA3C2C462 GT PUSH2 0xE7 JUMPI DUP1 PUSH4 0xDB2E21BC GT PUSH2 0x87 JUMPI DUP1 PUSH4 0xF40F0F52 GT PUSH2 0x62 JUMPI DUP1 PUSH4 0xF40F0F52 EQ PUSH2 0x4F2 JUMPI DUP1 PUSH4 0xF4634DE1 EQ PUSH2 0x511 JUMPI DUP1 PUSH4 0xFB7C2BF2 EQ PUSH2 0x525 JUMPI DUP1 PUSH4 0xFC0C546A EQ PUSH2 0x53A JUMPI PUSH0 PUSH0 REVERT JUMPDEST DUP1 PUSH4 0xDB2E21BC EQ PUSH2 0x4A0 JUMPI DUP1 PUSH4 0xE6EF73D6 EQ PUSH2 0x4B4 JUMPI DUP1 PUSH4 0xF2FDE38B EQ PUSH2 0x4D3 JUMPI PUSH0 PUSH0 REVERT JUMPDEST DUP1 PUSH4 0xB9D1D49B GT PUSH2 0xC2 JUMPI DUP1 PUSH4 0xB9D1D49B EQ PUSH2 0x438 JUMPI DUP1 PUSH4 0xCD8DE42C EQ PUSH2 0x44D JUMPI DUP1 PUSH4 0xD3F21636 EQ PUSH2 0x46C JUMPI DUP1 PUSH4 0xD4A3FFE9 EQ PUSH2 0x481 JUMPI PUSH0 PUSH0 REVERT JUMPDEST DUP1 PUSH4 0xA3C2C462 EQ PUSH2 0x38E JUMPI DUP1 PUSH4 0xA87430BA EQ PUSH2 0x3A3 JUMPI DUP1 PUSH4 0xAB8BC45D EQ PUSH2 0x423 JUMPI PUSH0 PUSH0 REVERT JUMPDEST DUP1 PUSH4 0x40B8405A GT PUSH2 0x152 JUMPI DUP1 PUSH4 0x5D54BDA4 GT PUSH2 0x12D JUMPI DUP1 PUSH4 0x5D54BDA4 EQ PUSH2 0x30E JUMPI DUP1 PUSH4 0x715018A6 EQ PUSH2 0x316 JUMPI DUP1 PUSH4 0x7872FEB2 EQ PUSH2 0x32A JUMPI DUP1 PUSH4 0x8DA5CB5B EQ PUSH2 0x35E JUMPI PUSH0 PUSH0 REVERT JUMPDEST DUP1 PUSH4 0x40B8405A EQ PUSH2 0x2BC JUMPI DUP1 PUSH4 0x4E71D92D EQ PUSH2 0x2DB JUMPI DUP1 PUSH4 0x4E7A2207 EQ PUSH2 0x2EF JUMPI PUSH0 PUSH0 REVERT JUMPDEST DUP1 PUSH4 0x37ECA76 EQ PUSH2 0x1BA JUMPI DUP1 PUSH4 0x526D3AE EQ PUSH2 0x1DD JUMPI DUP1 PUSH4 0x8DF7DC8 EQ PUSH2 0x1F1 JUMPI DUP1 PUSH4 0x1959A002 EQ PUSH2 0x22B JUMPI DUP1 PUSH4 0x1AA3A008 EQ PUSH2 0x287 JUMPI DUP1 PUSH4 0x3446E4B4 EQ PUSH2 0x29D JUMPI PUSH0 PUSH0 REVERT JUMPDEST CALLDATASIZE PUSH2 0x1B6 JUMPI CALLVALUE PUSH1 0x8 PUSH0 DUP3 DUP3 SLOAD PUSH2 0x1AE SWAP2 SWAP1 PUSH2 0x1397 JUMP JUMPDEST SWAP3 POP POP DUP2 SWAP1 SSTORE STOP JUMPDEST PUSH0 PUSH0 REVERT JUMPDEST CALLVALUE DUP1 ISZERO PUSH2 0x1C5 JUMPI PUSH0 PUSH0 REVERT JUMPDEST POP PUSH1 0x3 SLOAD JUMPDEST PUSH1 0x40 MLOAD SWAP1 DUP2 MSTORE PUSH1 0x20 ADD JUMPDEST PUSH1 0x40 MLOAD DUP1 SWAP2 SUB SWAP1 RETURN JUMPDEST CALLVALUE DUP1 ISZERO PUSH2 0x1E8 JUMPI PUSH0 PUSH0 REVERT JUMPDEST POP PUSH2 0x1CA PUSH2 0x56D JUMP JUMPDEST CALLVALUE DUP1 ISZERO PUSH2 0x1FC JUMPI PUSH0 PUSH0 REVERT JUMPDEST POP PUSH2 0x210 PUSH2 0x20B CALLDATASIZE PUSH1 0x4 PUSH2 0x13B0 JUMP JUMPDEST PUSH2 0x5DC JUMP JUMPDEST PUSH1 0x40 DUP1 MLOAD SWAP4 DUP5 MSTORE PUSH1 0x20 DUP5 ADD SWAP3 SWAP1 SWAP3 MSTORE SWAP1 DUP3 ADD MSTORE PUSH1 0x60 ADD PUSH2 0x1D4 JUMP JUMPDEST CALLVALUE DUP1 ISZERO PUSH2 0x236 JUMPI PUSH0 PUSH0 REVERT JUMPDEST POP PUSH2 0x24A PUSH2 0x245 CALLDATASIZE PUSH1 0x4 PUSH2 0x13C7 JUMP JUMPDEST PUSH2 0x60D JUMP JUMPDEST PUSH1 0x40 DUP1 MLOAD SWAP9 ISZERO ISZERO DUP10 MSTORE PUSH1 0x20 DUP10 ADD SWAP8 SWAP1 SWAP8 MSTORE SWAP6 DUP8 ADD SWAP5 SWAP1 SWAP5 MSTORE PUSH1 0x60 DUP7 ADD SWAP3 SWAP1 SWAP3 MSTORE PUSH1 0x80 DUP6 ADD MSTORE PUSH1 0xA0 DUP5 ADD MSTORE PUSH1 0xC0 DUP4 ADD MSTORE PUSH1 0xE0 DUP3 ADD MSTORE PUSH2 0x100 ADD PUSH2 0x1D4 JUMP JUMPDEST CALLVALUE DUP1 ISZERO PUSH2 0x292 JUMPI PUSH0 PUSH0 REVERT JUMPDEST POP PUSH2 0x29B PUSH2 0x6C2 JUMP JUMPDEST STOP JUMPDEST CALLVALUE DUP1 ISZERO PUSH2 0x2A8 JUMPI PUSH0 PUSH0 REVERT JUMPDEST POP PUSH2 0x29B PUSH2 0x2B7 CALLDATASIZE PUSH1 0x4 PUSH2 0x13B0 JUMP JUMPDEST PUSH2 0x8E3 JUMP JUMPDEST CALLVALUE DUP1 ISZERO PUSH2 0x2C7 JUMPI PUSH0 PUSH0 REVERT JUMPDEST POP PUSH2 0x29B PUSH2 0x2D6 CALLDATASIZE PUSH1 0x4 PUSH2 0x13C7 JUMP JUMPDEST PUSH2 0x92C JUMP JUMPDEST CALLVALUE DUP1 ISZERO PUSH2 0x2E6 JUMPI PUSH0 PUSH0 REVERT JUMPDEST POP PUSH2 0x29B PUSH2 0xAE5 JUMP JUMPDEST CALLVALUE DUP1 ISZERO PUSH2 0x2FA JUMPI PUSH0 PUSH0 REVERT JUMPDEST POP PUSH2 0x1CA PUSH2 0x309 CALLDATASIZE PUSH1 0x4 PUSH2 0x13C7 JUMP JUMPDEST PUSH2 0xBEA JUMP JUMPDEST PUSH2 0x29B PUSH2 0xC4F JUMP JUMPDEST CALLVALUE DUP1 ISZERO PUSH2 0x321 JUMPI PUSH0 PUSH0 REVERT JUMPDEST POP PUSH2 0x29B PUSH2 0xD85 JUMP JUMPDEST CALLVALUE DUP1 ISZERO PUSH2 0x335 JUMPI PUSH0 PUSH0 REVERT JUMPDEST POP PUSH2 0x349 PUSH2 0x344 CALLDATASIZE PUSH1 0x4 PUSH2 0x13C7 JUMP JUMPDEST PUSH2 0xD96 JUMP JUMPDEST PUSH1 0x40 DUP1 MLOAD SWAP3 DUP4 MSTORE PUSH1 0x20 DUP4 ADD SWAP2 SWAP1 SWAP2 MSTORE ADD PUSH2 0x1D4 JUMP JUMPDEST CALLVALUE DUP1 ISZERO PUSH2 0x369 JUMPI PUSH0 PUSH0 REVERT JUMPDEST POP PUSH0 SLOAD PUSH1 0x1 PUSH1 0x1 PUSH1 0xA0 SHL SUB AND JUMPDEST PUSH1 0x40 MLOAD PUSH1 0x1 PUSH1 0x1 PUSH1 0xA0 SHL SUB SWAP1 SWAP2 AND DUP2 MSTORE PUSH1 0x20 ADD PUSH2 0x1D4 JUMP JUMPDEST CALLVALUE DUP1 ISZERO PUSH2 0x399 JUMPI PUSH0 PUSH0 REVERT JUMPDEST POP PUSH2 0x1CA PUSH1 0x8 SLOAD DUP2 JUMP JUMPDEST CALLVALUE DUP1 ISZERO PUSH2 0x3AE JUMPI PUSH0 PUSH0 REVERT JUMPDEST POP PUSH2 0x3F4 PUSH2 0x3BD CALLDATASIZE PUSH1 0x4 PUSH2 0x13C7 JUMP JUMPDEST PUSH1 0x5 PUSH1 0x20 DUP2 SWAP1 MSTORE PUSH0 SWAP2 DUP3 MSTORE PUSH1 0x40 SWAP1 SWAP2 KECCAK256 DUP1 SLOAD PUSH1 0x1 DUP3 ADD SLOAD PUSH1 0x2 DUP4 ADD SLOAD PUSH1 0x3 DUP5 ADD SLOAD PUSH1 0x4 DUP6 ADD SLOAD SWAP5 SWAP1 SWAP6 ADD SLOAD SWAP3 SWAP5 SWAP2 SWAP4 SWAP1 SWAP3 PUSH1 0xFF AND DUP7 JUMP JUMPDEST PUSH1 0x40 DUP1 MLOAD SWAP7 DUP8 MSTORE PUSH1 0x20 DUP8 ADD SWAP6 SWAP1 SWAP6 MSTORE SWAP4 DUP6 ADD SWAP3 SWAP1 SWAP3 MSTORE PUSH1 0x60 DUP5 ADD MSTORE PUSH1 0x80 DUP4 ADD MSTORE ISZERO ISZERO PUSH1 0xA0 DUP3 ADD MSTORE PUSH1 0xC0 ADD PUSH2 0x1D4 JUMP JUMPDEST CALLVALUE DUP1 ISZERO PUSH2 0x42E JUMPI PUSH0 PUSH0 REVERT JUMPDEST POP PUSH2 0x1CA PUSH1 0x7 SLOAD DUP2 JUMP JUMPDEST CALLVALUE DUP1 ISZERO PUSH2 0x443 JUMPI PUSH0 PUSH0 REVERT JUMPDEST POP PUSH2 0x1CA PUSH1 0x1 SLOAD DUP2 JUMP JUMPDEST CALLVALUE DUP1 ISZERO PUSH2 0x458 JUMPI PUSH0 PUSH0 REVERT JUMPDEST POP PUSH2 0x29B PUSH2 0x467 CALLDATASIZE PUSH1 0x4 PUSH2 0x13C7 JUMP JUMPDEST PUSH2 0xE26 JUMP JUMPDEST CALLVALUE DUP1 ISZERO PUSH2 0x477 JUMPI PUSH0 PUSH0 REVERT JUMPDEST POP PUSH2 0x1CA PUSH1 0x4 SLOAD DUP2 JUMP JUMPDEST CALLVALUE DUP1 ISZERO PUSH2 0x48C JUMPI PUSH0 PUSH0 REVERT JUMPDEST POP PUSH2 0x376 PUSH2 0x49B CALLDATASIZE PUSH1 0x4 PUSH2 0x13B0 JUMP JUMPDEST PUSH2 0xE89 JUMP JUMPDEST CALLVALUE DUP1 ISZERO PUSH2 0x4AB JUMPI PUSH0 PUSH0 REVERT JUMPDEST POP PUSH2 0x29B PUSH2 0xEB1 JUMP JUMPDEST CALLVALUE DUP1 ISZERO PUSH2 0x4BF JUMPI PUSH0 PUSH0 REVERT JUMPDEST POP PUSH1 0x2 SLOAD PUSH2 0x376 SWAP1 PUSH1 0x1 PUSH1 0x1 PUSH1 0xA0 SHL SUB AND DUP2 JUMP JUMPDEST CALLVALUE DUP1 ISZERO PUSH2 0x4DE JUMPI PUSH0 PUSH0 REVERT JUMPDEST POP PUSH2 0x29B PUSH2 0x4ED CALLDATASIZE PUSH1 0x4 PUSH2 0x13C7 JUMP JUMPDEST PUSH2 0xF6C JUMP JUMPDEST CALLVALUE DUP1 ISZERO PUSH2 0x4FD JUMPI PUSH0 PUSH0 REVERT JUMPDEST POP PUSH2 0x1CA PUSH2 0x50C CALLDATASIZE PUSH1 0x4 PUSH2 0x13C7 JUMP JUMPDEST PUSH2 0xFA6 JUMP JUMPDEST CALLVALUE DUP1 ISZERO PUSH2 0x51C JUMPI PUSH0 PUSH0 REVERT JUMPDEST POP PUSH2 0x1CA PUSH2 0xFE2 JUMP JUMPDEST CALLVALUE DUP1 ISZERO PUSH2 0x530 JUMPI PUSH0 PUSH0 REVERT JUMPDEST POP PUSH2 0x1CA PUSH1 0x9 SLOAD DUP2 JUMP JUMPDEST CALLVALUE DUP1 ISZERO PUSH2 0x545 JUMPI PUSH0 PUSH0 REVERT JUMPDEST POP PUSH2 0x376 PUSH32 0x0 DUP2 JUMP JUMPDEST PUSH0 DUP1 DUP1 JUMPDEST PUSH1 0x6 SLOAD DUP2 LT ISZERO PUSH2 0x5D6 JUMPI PUSH1 0x5 PUSH0 PUSH1 0x6 DUP4 DUP2 SLOAD DUP2 LT PUSH2 0x591 JUMPI PUSH2 0x591 PUSH2 0x13ED JUMP JUMPDEST PUSH0 SWAP2 DUP3 MSTORE PUSH1 0x20 DUP1 DUP4 KECCAK256 SWAP1 SWAP2 ADD SLOAD PUSH1 0x1 PUSH1 0x1 PUSH1 0xA0 SHL SUB AND DUP4 MSTORE DUP3 ADD SWAP3 SWAP1 SWAP3 MSTORE PUSH1 0x40 ADD SWAP1 KECCAK256 PUSH1 0x5 ADD SLOAD PUSH1 0xFF AND ISZERO PUSH2 0x5CE JUMPI DUP2 PUSH2 0x5CA DUP2 PUSH2 0x1401 JUMP JUMPDEST SWAP3 POP POP JUMPDEST PUSH1 0x1 ADD PUSH2 0x571 JUMP JUMPDEST POP SWAP2 SWAP1 POP JUMP JUMPDEST PUSH1 0x3 DUP2 DUP2 SLOAD DUP2 LT PUSH2 0x5EB JUMPI PUSH0 DUP1 REVERT JUMPDEST PUSH0 SWAP2 DUP3 MSTORE PUSH1 0x20 SWAP1 SWAP2 KECCAK256 PUSH1 0x3 SWAP1 SWAP2 MUL ADD DUP1 SLOAD PUSH1 0x1 DUP3 ADD SLOAD PUSH1 0x2 SWAP1 SWAP3 ADD SLOAD SWAP1 SWAP3 POP DUP4 JUMP JUMPDEST PUSH1 0x1 PUSH1 0x1 PUSH1 0xA0 SHL SUB DUP2 AND PUSH0 SWAP1 DUP2 MSTORE PUSH1 0x5 PUSH1 0x20 DUP2 SWAP1 MSTORE PUSH1 0x40 DUP3 KECCAK256 SWAP1 DUP2 ADD SLOAD DUP3 SWAP2 DUP3 SWAP2 DUP3 SWAP2 DUP3 SWAP2 DUP3 SWAP2 DUP3 SWAP2 DUP3 SWAP2 SWAP1 DUP3 SWAP1 PUSH1 0xFF AND DUP1 ISZERO PUSH2 0x64D JUMPI POP DUP2 PUSH1 0x1 ADD SLOAD TIMESTAMP GT JUMPDEST PUSH2 0x657 JUMPI PUSH0 PUSH2 0x666 JUMP JUMPDEST PUSH1 0x1 DUP3 ADD SLOAD PUSH2 0x666 SWAP1 TIMESTAMP PUSH2 0x1419 JUMP JUMPDEST PUSH1 0x5 DUP4 ADD SLOAD DUP4 SLOAD PUSH1 0x1 DUP6 ADD SLOAD PUSH1 0x4 DUP7 ADD SLOAD PUSH1 0x2 DUP8 ADD SLOAD PUSH1 0x3 DUP9 ADD SLOAD SWAP6 SWAP7 POP PUSH1 0xFF SWAP1 SWAP5 AND SWAP5 SWAP3 SWAP4 SWAP2 SWAP3 DUP7 SWAP3 SWAP1 DUP7 PUSH2 0x69C JUMPI PUSH0 PUSH2 0x6A5 JUMP JUMPDEST PUSH2 0x6A5 DUP10 PUSH2 0xFF0 JUMP JUMPDEST SWAP10 POP SWAP10 POP SWAP10 POP SWAP10 POP SWAP10 POP SWAP10 POP SWAP10 POP SWAP10 POP POP POP SWAP2 SWAP4 SWAP6 SWAP8 POP SWAP2 SWAP4 SWAP6 SWAP8 JUMP JUMPDEST PUSH2 0x6CA PUSH2 0x10E1 JUMP JUMPDEST CALLER PUSH0 SWAP1 DUP2 MSTORE PUSH1 0x5 PUSH1 0x20 DUP2 SWAP1 MSTORE PUSH1 0x40 SWAP1 SWAP2 KECCAK256 ADD SLOAD PUSH1 0xFF AND ISZERO PUSH2 0x6FE JUMPI PUSH1 0x40 MLOAD PUSH4 0xEA075BF PUSH1 0xE2 SHL DUP2 MSTORE PUSH1 0x4 ADD PUSH1 0x40 MLOAD DUP1 SWAP2 SUB SWAP1 REVERT JUMPDEST PUSH1 0x40 MLOAD PUSH4 0x70A08231 PUSH1 0xE0 SHL DUP2 MSTORE CALLER PUSH1 0x4 DUP3 ADD MSTORE PUSH0 SWAP1 PUSH32 0x0 PUSH1 0x1 PUSH1 0x1 PUSH1 0xA0 SHL SUB AND SWAP1 PUSH4 0x70A08231 SWAP1 PUSH1 0x24 ADD PUSH1 0x20 PUSH1 0x40 MLOAD DUP1 DUP4 SUB DUP2 DUP7 GAS STATICCALL ISZERO DUP1 ISZERO PUSH2 0x762 JUMPI RETURNDATASIZE PUSH0 PUSH0 RETURNDATACOPY RETURNDATASIZE PUSH0 REVERT JUMPDEST POP POP POP POP PUSH1 0x40 MLOAD RETURNDATASIZE PUSH1 0x1F NOT PUSH1 0x1F DUP3 ADD AND DUP3 ADD DUP1 PUSH1 0x40 MSTORE POP DUP2 ADD SWAP1 PUSH2 0x786 SWAP2 SWAP1 PUSH2 0x142C JUMP JUMPDEST SWAP1 POP PUSH1 0x1 SLOAD DUP2 LT ISZERO PUSH2 0x7C2 JUMPI PUSH1 0x1 SLOAD PUSH1 0x40 MLOAD PUSH4 0xCF479181 PUSH1 0xE0 SHL DUP2 MSTORE PUSH2 0x7B9 SWAP2 DUP4 SWAP2 PUSH1 0x4 ADD SWAP2 DUP3 MSTORE PUSH1 0x20 DUP3 ADD MSTORE PUSH1 0x40 ADD SWAP1 JUMP JUMPDEST PUSH1 0x40 MLOAD DUP1 SWAP2 SUB SWAP1 REVERT JUMPDEST PUSH1 0x40 DUP1 MLOAD PUSH1 0xC0 DUP2 ADD DUP3 MSTORE DUP3 DUP2 MSTORE TIMESTAMP PUSH1 0x20 DUP1 DUP4 ADD DUP3 DUP2 MSTORE PUSH1 0x3 DUP1 SLOAD DUP6 DUP8 ADD SWAP1 DUP2 MSTORE PUSH0 PUSH1 0x60 DUP8 ADD DUP2 DUP2 MSTORE PUSH1 0x80 DUP9 ADD SWAP7 DUP8 MSTORE PUSH1 0x1 PUSH1 0xA0 DUP10 ADD DUP2 DUP2 MSTORE CALLER DUP5 MSTORE PUSH1 0x5 SWAP8 DUP9 SWAP1 MSTORE SWAP10 DUP4 KECCAK256 SWAP9 MLOAD DUP10 SSTORE SWAP5 MLOAD SWAP5 DUP9 ADD SWAP5 SWAP1 SWAP5 SSTORE SWAP1 MLOAD PUSH1 0x2 DUP8 ADD SSTORE SWAP2 MLOAD SWAP1 DUP6 ADD SSTORE SWAP2 MLOAD PUSH1 0x4 DUP5 ADD SSTORE SWAP3 MLOAD SWAP2 SWAP1 SWAP3 ADD DUP1 SLOAD PUSH1 0xFF NOT AND SWAP2 ISZERO ISZERO SWAP2 SWAP1 SWAP2 OR SWAP1 SSTORE PUSH1 0x7 DUP1 SLOAD DUP4 SWAP3 SWAP1 PUSH2 0x84E SWAP1 DUP5 SWAP1 PUSH2 0x1397 JUMP JUMPDEST SWAP1 SWAP2 SSTORE POP POP PUSH1 0x6 DUP1 SLOAD PUSH1 0x1 DUP2 ADD DUP3 SSTORE PUSH0 SWAP2 SWAP1 SWAP2 MSTORE PUSH32 0xF652222313E28459528D920B65115C16C04F3EFC82AAEDC97BE59F3F377C0D3F ADD DUP1 SLOAD PUSH1 0x1 PUSH1 0x1 PUSH1 0xA0 SHL SUB NOT AND CALLER SWAP1 DUP2 OR SWAP1 SWAP2 SSTORE PUSH1 0x40 MLOAD DUP3 DUP2 MSTORE PUSH32 0x6F3BF3FA84E4763A43B3D23F9D79BE242D6D5C834941FF4C1111B67469E1150C SWAP1 PUSH1 0x20 ADD PUSH1 0x40 MLOAD DUP1 SWAP2 SUB SWAP1 LOG2 POP PUSH2 0x8E1 PUSH1 0x1 PUSH0 MLOAD PUSH1 0x20 PUSH2 0x147A PUSH0 CODECOPY PUSH0 MLOAD SWAP1 PUSH0 MSTORE SSTORE JUMP JUMPDEST JUMP JUMPDEST PUSH2 0x8EB PUSH2 0x10FC JUMP JUMPDEST PUSH1 0x1 SLOAD PUSH1 0x40 DUP1 MLOAD SWAP2 DUP3 MSTORE PUSH1 0x20 DUP3 ADD DUP4 SWAP1 MSTORE PUSH32 0xC2ED71504BD70E947D9A514F52BE4F28827EF83859C414054D0874AB910844A1 SWAP2 ADD PUSH1 0x40 MLOAD DUP1 SWAP2 SUB SWAP1 LOG1 PUSH1 0x1 SSTORE JUMP JUMPDEST PUSH2 0x934 PUSH2 0x10E1 JUMP JUMPDEST PUSH1 0x1 PUSH1 0x1 PUSH1 0xA0 SHL SUB DUP2 AND PUSH0 SWAP1 DUP2 MSTORE PUSH1 0x5 PUSH1 0x20 DUP2 SWAP1 MSTORE PUSH1 0x40 SWAP1 SWAP2 KECCAK256 SWAP1 DUP2 ADD SLOAD PUSH1 0xFF AND PUSH2 0x95F JUMPI POP PUSH2 0xACC JUMP JUMPDEST PUSH1 0x40 MLOAD PUSH4 0x70A08231 PUSH1 0xE0 SHL DUP2 MSTORE PUSH1 0x1 PUSH1 0x1 PUSH1 0xA0 SHL SUB DUP4 DUP2 AND PUSH1 0x4 DUP4 ADD MSTORE PUSH0 SWAP2 PUSH32 0x0 SWAP1 SWAP2 AND SWAP1 PUSH4 0x70A08231 SWAP1 PUSH1 0x24 ADD PUSH1 0x20 PUSH1 0x40 MLOAD DUP1 DUP4 SUB DUP2 DUP7 GAS STATICCALL ISZERO DUP1 ISZERO PUSH2 0x9C7 JUMPI RETURNDATASIZE PUSH0 PUSH0 RETURNDATACOPY RETURNDATASIZE PUSH0 REVERT JUMPDEST POP POP POP POP PUSH1 0x40 MLOAD RETURNDATASIZE PUSH1 0x1F NOT PUSH1 0x1F DUP3 ADD AND DUP3 ADD DUP1 PUSH1 0x40 MSTORE POP DUP2 ADD SWAP1 PUSH2 0x9EB SWAP2 SWAP1 PUSH2 0x142C JUMP JUMPDEST DUP3 SLOAD SWAP1 SWAP2 POP DUP2 LT ISZERO PUSH2 0xA08 JUMPI PUSH2 0xA01 DUP4 DUP4 PUSH2 0x1128 JUMP JUMPDEST POP POP PUSH2 0xACC JUMP JUMPDEST DUP2 SLOAD DUP2 GT ISZERO PUSH2 0xAC9 JUMPI DUP2 SLOAD PUSH0 PUSH2 0xA1E DUP3 DUP5 PUSH2 0x1419 JUMP JUMPDEST SWAP1 POP TIMESTAMP PUSH0 DUP5 PUSH2 0xA2D DUP4 DUP6 PUSH2 0x1443 JUMP JUMPDEST PUSH1 0x1 DUP9 ADD SLOAD PUSH2 0xA3C SWAP1 DUP8 PUSH2 0x1443 JUMP JUMPDEST PUSH2 0xA46 SWAP2 SWAP1 PUSH2 0x1397 JUMP JUMPDEST PUSH2 0xA50 SWAP2 SWAP1 PUSH2 0x145A JUMP JUMPDEST SWAP1 POP DUP5 DUP5 PUSH1 0x7 SLOAD PUSH2 0xA61 SWAP2 SWAP1 PUSH2 0x1419 JUMP JUMPDEST PUSH2 0xA6B SWAP2 SWAP1 PUSH2 0x1397 JUMP JUMPDEST PUSH1 0x7 SSTORE DUP5 DUP7 SSTORE PUSH1 0x1 DUP7 ADD DUP2 SWAP1 SSTORE PUSH1 0x40 DUP1 MLOAD DUP6 DUP2 MSTORE PUSH1 0x20 DUP2 ADD DUP8 SWAP1 MSTORE SWAP1 DUP2 ADD DUP3 SWAP1 MSTORE PUSH1 0x1 PUSH1 0x1 PUSH1 0xA0 SHL SUB DUP9 AND SWAP1 PUSH32 0xD8B455E949C1D522B95778231EEC1BEFF214F4FBE062F64B18A86272CAAA1FC7 SWAP1 PUSH1 0x60 ADD PUSH1 0x40 MLOAD DUP1 SWAP2 SUB SWAP1 LOG2 POP POP POP POP JUMPDEST POP POP JUMPDEST PUSH2 0xAE2 PUSH1 0x1 PUSH0 MLOAD PUSH1 0x20 PUSH2 0x147A PUSH0 CODECOPY PUSH0 MLOAD SWAP1 PUSH0 MSTORE SSTORE JUMP JUMPDEST POP JUMP JUMPDEST PUSH2 0xAED PUSH2 0x10E1 JUMP JUMPDEST CALLER PUSH0 SWAP1 DUP2 MSTORE PUSH1 0x5 PUSH1 0x20 DUP2 SWAP1 MSTORE PUSH1 0x40 SWAP1 SWAP2 KECCAK256 SWAP1 DUP2 ADD SLOAD PUSH1 0xFF AND PUSH2 0xB22 JUMPI PUSH1 0x40 MLOAD PUSH4 0xABA47339 PUSH1 0xE0 SHL DUP2 MSTORE PUSH1 0x4 ADD PUSH1 0x40 MLOAD DUP1 SWAP2 SUB SWAP1 REVERT JUMPDEST PUSH0 PUSH2 0xB2C DUP3 PUSH2 0xFF0 JUMP JUMPDEST SWAP1 POP DUP1 PUSH0 SUB PUSH2 0xB4E JUMPI PUSH1 0x40 MLOAD PUSH4 0x12D37EE5 PUSH1 0xE3 SHL DUP2 MSTORE PUSH1 0x4 ADD PUSH1 0x40 MLOAD DUP1 SWAP2 SUB SWAP1 REVERT JUMPDEST PUSH1 0x3 DUP1 SLOAD PUSH1 0x2 DUP5 ADD DUP2 SWAP1 SSTORE SWAP1 DUP4 ADD DUP1 SLOAD DUP4 SWAP2 SWAP1 PUSH0 SWAP1 PUSH2 0xB6E SWAP1 DUP5 SWAP1 PUSH2 0x1397 JUMP JUMPDEST SWAP3 POP POP DUP2 SWAP1 SSTORE POP DUP2 PUSH1 0x9 PUSH0 DUP3 DUP3 SLOAD PUSH2 0xB86 SWAP2 SWAP1 PUSH2 0x1397 JUMP JUMPDEST SWAP1 SWAP2 SSTORE POP PUSH2 0xB96 SWAP1 POP CALLER DUP4 PUSH2 0x11DD JUMP JUMPDEST PUSH1 0x40 DUP1 MLOAD DUP4 DUP2 MSTORE PUSH1 0x20 DUP2 ADD DUP4 SWAP1 MSTORE CALLER SWAP2 PUSH32 0x987D620F307FF6B94D58743CB7A7509F24071586A77759B77C2D4E29F75A2F9A SWAP2 ADD PUSH1 0x40 MLOAD DUP1 SWAP2 SUB SWAP1 LOG2 POP POP POP PUSH2 0x8E1 PUSH1 0x1 PUSH0 MLOAD PUSH1 0x20 PUSH2 0x147A PUSH0 CODECOPY PUSH0 MLOAD SWAP1 PUSH0 MSTORE SSTORE JUMP JUMPDEST PUSH1 0x1 PUSH1 0x1 PUSH1 0xA0 SHL SUB DUP2 AND PUSH0 SWAP1 DUP2 MSTORE PUSH1 0x5 PUSH1 0x20 DUP2 SWAP1 MSTORE PUSH1 0x40 DUP3 KECCAK256 SWAP1 DUP2 ADD SLOAD PUSH1 0xFF AND PUSH2 0xC16 JUMPI POP PUSH0 SWAP3 SWAP2 POP POP JUMP JUMPDEST PUSH0 DUP2 PUSH1 0x1 ADD SLOAD TIMESTAMP GT PUSH2 0xC28 JUMPI PUSH0 PUSH2 0xC37 JUMP JUMPDEST PUSH1 0x1 DUP3 ADD SLOAD PUSH2 0xC37 SWAP1 TIMESTAMP PUSH2 0x1419 JUMP JUMPDEST DUP3 SLOAD SWAP1 SWAP2 POP PUSH2 0xC47 SWAP1 DUP3 SWAP1 PUSH2 0x1443 JUMP JUMPDEST SWAP5 SWAP4 POP POP POP POP JUMP JUMPDEST CALLVALUE PUSH1 0x8 PUSH0 DUP3 DUP3 SLOAD PUSH2 0xC60 SWAP2 SWAP1 PUSH2 0x1397 JUMP JUMPDEST SWAP1 SWAP2 SSTORE POP POP PUSH1 0x4 SLOAD PUSH0 SWAP1 PUSH2 0xC74 SWAP1 CALLVALUE PUSH2 0x1397 JUMP JUMPDEST SWAP1 POP DUP1 PUSH0 SUB PUSH2 0xC80 JUMPI POP JUMP JUMPDEST PUSH0 PUSH2 0xC89 PUSH2 0x1252 JUMP JUMPDEST SWAP1 POP DUP1 PUSH0 SUB PUSH2 0xC98 JUMPI POP PUSH1 0x4 SSTORE JUMP JUMPDEST PUSH0 PUSH1 0x4 DUP2 SWAP1 SSTORE PUSH1 0x3 DUP1 SLOAD PUSH1 0x40 DUP1 MLOAD PUSH1 0x60 DUP1 DUP3 ADD DUP4 MSTORE DUP8 DUP3 MSTORE PUSH1 0x20 DUP1 DUP4 ADD DUP9 DUP2 MSTORE TIMESTAMP DUP5 DUP7 ADD DUP2 DUP2 MSTORE PUSH1 0x1 DUP9 ADD DUP10 SSTORE SWAP9 DUP9 SWAP1 MSTORE SWAP4 MLOAD PUSH32 0xC2575A0E9E593C00F959F8C92F12DB2869C3395A3B0502D05E2516446F71F85B SWAP8 DUP8 MUL SWAP8 DUP9 ADD SSTORE MLOAD PUSH32 0xC2575A0E9E593C00F959F8C92F12DB2869C3395A3B0502D05E2516446F71F85C DUP8 ADD SSTORE SWAP6 MLOAD PUSH32 0xC2575A0E9E593C00F959F8C92F12DB2869C3395A3B0502D05E2516446F71F85D SWAP1 SWAP6 ADD SWAP5 SWAP1 SWAP5 SSTORE DUP2 MLOAD DUP8 DUP2 MSTORE SWAP5 DUP6 ADD DUP7 SWAP1 MSTORE SWAP1 DUP5 ADD MSTORE SWAP2 DUP3 SWAP2 PUSH32 0xD89917FC1A94C47CEC7534FFFAE602F7F5C38D3444FD4CF7DF701DD61C1ECA1E SWAP2 ADD JUMPDEST PUSH1 0x40 MLOAD DUP1 SWAP2 SUB SWAP1 LOG2 POP POP POP JUMP JUMPDEST PUSH2 0xD8D PUSH2 0x10FC JUMP JUMPDEST PUSH2 0x8E1 PUSH0 PUSH2 0x1305 JUMP JUMPDEST PUSH1 0x1 PUSH1 0x1 PUSH1 0xA0 SHL SUB DUP2 AND PUSH0 SWAP1 DUP2 MSTORE PUSH1 0x5 PUSH1 0x20 DUP2 SWAP1 MSTORE PUSH1 0x40 DUP3 KECCAK256 SWAP1 DUP2 ADD SLOAD DUP3 SWAP2 SWAP1 PUSH1 0xFF AND PUSH2 0xDC9 JUMPI POP PUSH0 SWAP4 PUSH1 0x1 SWAP4 POP SWAP2 POP POP JUMP JUMPDEST PUSH0 DUP2 PUSH1 0x1 ADD SLOAD TIMESTAMP GT PUSH2 0xDDB JUMPI PUSH0 PUSH2 0xDEA JUMP JUMPDEST PUSH1 0x1 DUP3 ADD SLOAD PUSH2 0xDEA SWAP1 TIMESTAMP PUSH2 0x1419 JUMP JUMPDEST SWAP1 POP PUSH0 DUP2 DUP4 PUSH0 ADD SLOAD PUSH2 0xDFC SWAP2 SWAP1 PUSH2 0x1443 JUMP JUMPDEST SWAP1 POP PUSH0 PUSH2 0xE07 PUSH2 0x1252 JUMP JUMPDEST SWAP1 POP DUP2 DUP2 ISZERO PUSH2 0xE16 JUMPI DUP2 PUSH2 0xE19 JUMP JUMPDEST PUSH1 0x1 JUMPDEST SWAP6 POP SWAP6 POP POP POP POP POP SWAP2 POP SWAP2 JUMP JUMPDEST PUSH2 0xE2E PUSH2 0x10FC JUMP JUMPDEST PUSH1 0x2 SLOAD PUSH1 0x40 MLOAD PUSH1 0x1 PUSH1 0x1 PUSH1 0xA0 SHL SUB DUP1 DUP5 AND SWAP3 AND SWAP1 PUSH32 0xF970BC488F38CDC7CAF559DE1924E9C564D90C54D1767C82DF2CBC55C9829A5E SWAP1 PUSH0 SWAP1 LOG3 PUSH1 0x2 DUP1 SLOAD PUSH1 0x1 PUSH1 0x1 PUSH1 0xA0 SHL SUB NOT AND PUSH1 0x1 PUSH1 0x1 PUSH1 0xA0 SHL SUB SWAP3 SWAP1 SWAP3 AND SWAP2 SWAP1 SWAP2 OR SWAP1 SSTORE JUMP JUMPDEST PUSH1 0x6 DUP2 DUP2 SLOAD DUP2 LT PUSH2 0xE98 JUMPI PUSH0 DUP1 REVERT JUMPDEST PUSH0 SWAP2 DUP3 MSTORE PUSH1 0x20 SWAP1 SWAP2 KECCAK256 ADD SLOAD PUSH1 0x1 PUSH1 0x1 PUSH1 0xA0 SHL SUB AND SWAP1 POP DUP2 JUMP JUMPDEST PUSH2 0xEB9 PUSH2 0x10FC JUMP JUMPDEST PUSH2 0xEC1 PUSH2 0x10E1 JUMP JUMPDEST SELFBALANCE PUSH0 DUP2 SWAP1 SUB PUSH2 0xEE3 JUMPI PUSH1 0x40 MLOAD PUSH4 0x12D37EE5 PUSH1 0xE3 SHL DUP2 MSTORE PUSH1 0x4 ADD PUSH1 0x40 MLOAD DUP1 SWAP2 SUB SWAP1 REVERT JUMPDEST PUSH0 DUP1 SLOAD PUSH1 0x40 MLOAD PUSH1 0x1 PUSH1 0x1 PUSH1 0xA0 SHL SUB SWAP1 SWAP2 AND SWAP1 DUP4 SWAP1 DUP4 DUP2 DUP2 DUP2 DUP6 DUP8 GAS CALL SWAP3 POP POP POP RETURNDATASIZE DUP1 PUSH0 DUP2 EQ PUSH2 0xF2D JUMPI PUSH1 0x40 MLOAD SWAP2 POP PUSH1 0x1F NOT PUSH1 0x3F RETURNDATASIZE ADD AND DUP3 ADD PUSH1 0x40 MSTORE RETURNDATASIZE DUP3 MSTORE RETURNDATASIZE PUSH0 PUSH1 0x20 DUP5 ADD RETURNDATACOPY PUSH2 0xF32 JUMP JUMPDEST PUSH1 0x60 SWAP2 POP JUMPDEST POP POP SWAP1 POP DUP1 PUSH2 0xF54 JUMPI PUSH1 0x40 MLOAD PUSH4 0x12171D83 PUSH1 0xE3 SHL DUP2 MSTORE PUSH1 0x4 ADD PUSH1 0x40 MLOAD DUP1 SWAP2 SUB SWAP1 REVERT JUMPDEST POP POP PUSH2 0x8E1 PUSH1 0x1 PUSH0 MLOAD PUSH1 0x20 PUSH2 0x147A PUSH0 CODECOPY PUSH0 MLOAD SWAP1 PUSH0 MSTORE SSTORE JUMP JUMPDEST PUSH2 0xF74 PUSH2 0x10FC JUMP JUMPDEST PUSH1 0x1 PUSH1 0x1 PUSH1 0xA0 SHL SUB DUP2 AND PUSH2 0xF9D JUMPI PUSH1 0x40 MLOAD PUSH4 0x1E4FBDF7 PUSH1 0xE0 SHL DUP2 MSTORE PUSH0 PUSH1 0x4 DUP3 ADD MSTORE PUSH1 0x24 ADD PUSH2 0x7B9 JUMP JUMPDEST PUSH2 0xAE2 DUP2 PUSH2 0x1305 JUMP JUMPDEST PUSH1 0x1 PUSH1 0x1 PUSH1 0xA0 SHL SUB DUP2 AND PUSH0 SWAP1 DUP2 MSTORE PUSH1 0x5 PUSH1 0x20 DUP2 SWAP1 MSTORE PUSH1 0x40 DUP3 KECCAK256 SWAP1 DUP2 ADD SLOAD PUSH1 0xFF AND PUSH2 0xFD2 JUMPI POP PUSH0 SWAP3 SWAP2 POP POP JUMP JUMPDEST PUSH2 0xFDB DUP2 PUSH2 0xFF0 JUMP JUMPDEST SWAP4 SWAP3 POP POP POP JUMP JUMPDEST PUSH0 PUSH2 0xFEB PUSH2 0x1252 JUMP JUMPDEST SWAP1 POP SWAP1 JUMP JUMPDEST PUSH1 0x3 SLOAD PUSH1 0x2 DUP3 ADD SLOAD PUSH0 SWAP2 DUP3 SWAP2 JUMPDEST DUP2 DUP2 LT ISZERO PUSH2 0x10D8 JUMPI PUSH0 PUSH1 0x3 DUP3 DUP2 SLOAD DUP2 LT PUSH2 0x1019 JUMPI PUSH2 0x1019 PUSH2 0x13ED JUMP JUMPDEST SWAP1 PUSH0 MSTORE PUSH1 0x20 PUSH0 KECCAK256 SWAP1 PUSH1 0x3 MUL ADD PUSH1 0x40 MLOAD DUP1 PUSH1 0x60 ADD PUSH1 0x40 MSTORE SWAP1 DUP2 PUSH0 DUP3 ADD SLOAD DUP2 MSTORE PUSH1 0x20 ADD PUSH1 0x1 DUP3 ADD SLOAD DUP2 MSTORE PUSH1 0x20 ADD PUSH1 0x2 DUP3 ADD SLOAD DUP2 MSTORE POP POP SWAP1 POP DUP6 PUSH1 0x1 ADD SLOAD DUP2 PUSH1 0x40 ADD MLOAD GT PUSH2 0x1064 JUMPI POP PUSH2 0x10D0 JUMP JUMPDEST PUSH0 DUP7 PUSH1 0x1 ADD SLOAD DUP3 PUSH1 0x40 ADD MLOAD PUSH2 0x1079 SWAP2 SWAP1 PUSH2 0x1419 JUMP JUMPDEST SWAP1 POP PUSH0 DUP2 DUP9 PUSH0 ADD SLOAD PUSH2 0x108B SWAP2 SWAP1 PUSH2 0x1443 JUMP JUMPDEST SWAP1 POP PUSH0 DUP4 PUSH1 0x20 ADD MLOAD GT DUP1 ISZERO PUSH2 0x109F JUMPI POP PUSH0 DUP2 GT JUMPDEST ISZERO PUSH2 0x10CC JUMPI PUSH1 0x20 DUP4 ADD MLOAD DUP4 MLOAD PUSH2 0x10B5 SWAP1 DUP4 PUSH2 0x1443 JUMP JUMPDEST PUSH2 0x10BF SWAP2 SWAP1 PUSH2 0x145A JUMP JUMPDEST PUSH2 0x10C9 SWAP1 DUP8 PUSH2 0x1397 JUMP JUMPDEST SWAP6 POP JUMPDEST POP POP POP JUMPDEST PUSH1 0x1 ADD PUSH2 0xFFD JUMP JUMPDEST POP SWAP1 SWAP4 SWAP3 POP POP POP JUMP JUMPDEST PUSH2 0x10E9 PUSH2 0x1354 JUMP JUMPDEST PUSH1 0x2 PUSH0 MLOAD PUSH1 0x20 PUSH2 0x147A PUSH0 CODECOPY PUSH0 MLOAD SWAP1 PUSH0 MSTORE SSTORE JUMP JUMPDEST PUSH0 SLOAD PUSH1 0x1 PUSH1 0x1 PUSH1 0xA0 SHL SUB AND CALLER EQ PUSH2 0x8E1 JUMPI PUSH1 0x40 MLOAD PUSH4 0x118CDAA7 PUSH1 0xE0 SHL DUP2 MSTORE CALLER PUSH1 0x4 DUP3 ADD MSTORE PUSH1 0x24 ADD PUSH2 0x7B9 JUMP JUMPDEST PUSH0 PUSH2 0x1132 DUP3 PUSH2 0xFF0 JUMP JUMPDEST SWAP1 POP DUP1 ISZERO PUSH2 0x1151 JUMPI DUP1 PUSH1 0x4 PUSH0 DUP3 DUP3 SLOAD PUSH2 0x114B SWAP2 SWAP1 PUSH2 0x1397 JUMP JUMPDEST SWAP1 SWAP2 SSTORE POP POP JUMPDEST DUP2 SLOAD PUSH1 0x7 DUP1 SLOAD PUSH0 SWAP1 PUSH2 0x1164 SWAP1 DUP5 SWAP1 PUSH2 0x1419 JUMP JUMPDEST SWAP1 SWAP2 SSTORE POP POP PUSH1 0x1 PUSH1 0x1 PUSH1 0xA0 SHL SUB DUP4 AND PUSH0 DUP2 DUP2 MSTORE PUSH1 0x5 PUSH1 0x20 DUP2 SWAP1 MSTORE PUSH1 0x40 DUP1 DUP4 KECCAK256 DUP4 DUP2 SSTORE PUSH1 0x1 DUP2 ADD DUP5 SWAP1 SSTORE PUSH1 0x2 DUP2 ADD DUP5 SWAP1 SSTORE PUSH1 0x3 DUP2 ADD DUP5 SWAP1 SSTORE PUSH1 0x4 DUP2 ADD SWAP4 SWAP1 SWAP4 SSTORE SWAP2 ADD DUP1 SLOAD PUSH1 0xFF NOT AND SWAP1 SSTORE MLOAD PUSH32 0x488C05909D4E56AE790F1EB8D403A86EEE7CF559E6FA940942DBB5890AD0BAF9 SWAP1 PUSH2 0xD78 SWAP1 DUP5 DUP2 MSTORE PUSH1 0x20 ADD SWAP1 JUMP JUMPDEST PUSH0 DUP3 PUSH1 0x1 PUSH1 0x1 PUSH1 0xA0 SHL SUB AND DUP3 PUSH1 0x40 MLOAD PUSH0 PUSH1 0x40 MLOAD DUP1 DUP4 SUB DUP2 DUP6 DUP8 GAS CALL SWAP3 POP POP POP RETURNDATASIZE DUP1 PUSH0 DUP2 EQ PUSH2 0x1226 JUMPI PUSH1 0x40 MLOAD SWAP2 POP PUSH1 0x1F NOT PUSH1 0x3F RETURNDATASIZE ADD AND DUP3 ADD PUSH1 0x40 MSTORE RETURNDATASIZE DUP3 MSTORE RETURNDATASIZE PUSH0 PUSH1 0x20 DUP5 ADD RETURNDATACOPY PUSH2 0x122B JUMP JUMPDEST PUSH1 0x60 SWAP2 POP JUMPDEST POP POP SWAP1 POP DUP1 PUSH2 0x124D JUMPI PUSH1 0x40 MLOAD PUSH4 0x12171D83 PUSH1 0xE3 SHL DUP2 MSTORE PUSH1 0x4 ADD PUSH1 0x40 MLOAD DUP1 SWAP2 SUB SWAP1 REVERT JUMPDEST POP POP POP JUMP JUMPDEST PUSH1 0x6 SLOAD PUSH0 SWAP1 DUP2 SWAP1 TIMESTAMP SWAP1 DUP3 JUMPDEST DUP2 DUP2 LT ISZERO PUSH2 0x12FC JUMPI PUSH0 PUSH1 0x6 DUP3 DUP2 SLOAD DUP2 LT PUSH2 0x1279 JUMPI PUSH2 0x1279 PUSH2 0x13ED JUMP JUMPDEST PUSH0 SWAP2 DUP3 MSTORE PUSH1 0x20 DUP1 DUP4 KECCAK256 SWAP1 SWAP2 ADD SLOAD PUSH1 0x1 PUSH1 0x1 PUSH1 0xA0 SHL SUB AND DUP1 DUP4 MSTORE PUSH1 0x5 SWAP2 DUP3 SWAP1 MSTORE PUSH1 0x40 SWAP1 SWAP3 KECCAK256 SWAP1 DUP2 ADD SLOAD SWAP2 SWAP3 POP SWAP1 PUSH1 0xFF AND PUSH2 0x12B3 JUMPI POP POP PUSH2 0x12F4 JUMP JUMPDEST PUSH0 DUP2 PUSH1 0x1 ADD SLOAD DUP7 GT PUSH2 0x12C5 JUMPI PUSH0 PUSH2 0x12D4 JUMP JUMPDEST PUSH1 0x1 DUP3 ADD SLOAD PUSH2 0x12D4 SWAP1 DUP8 PUSH2 0x1419 JUMP JUMPDEST DUP3 SLOAD SWAP1 SWAP2 POP PUSH2 0x12E4 SWAP1 DUP3 SWAP1 PUSH2 0x1443 JUMP JUMPDEST PUSH2 0x12EE SWAP1 DUP9 PUSH2 0x1397 JUMP JUMPDEST SWAP7 POP POP POP POP JUMPDEST PUSH1 0x1 ADD PUSH2 0x125D JUMP JUMPDEST POP SWAP2 SWAP4 SWAP3 POP POP POP JUMP JUMPDEST PUSH0 DUP1 SLOAD PUSH1 0x1 PUSH1 0x1 PUSH1 0xA0 SHL SUB DUP4 DUP2 AND PUSH1 0x1 PUSH1 0x1 PUSH1 0xA0 SHL SUB NOT DUP4 AND DUP2 OR DUP5 SSTORE PUSH1 0x40 MLOAD SWAP2 SWAP1 SWAP3 AND SWAP3 DUP4 SWAP2 PUSH32 0x8BE0079C531659141344CD1FD0A4F28419497F9722A3DAAFE3B4186F6B6457E0 SWAP2 SWAP1 LOG3 POP POP JUMP JUMPDEST PUSH0 MLOAD PUSH1 0x20 PUSH2 0x147A PUSH0 CODECOPY PUSH0 MLOAD SWAP1 PUSH0 MSTORE SLOAD PUSH1 0x2 SUB PUSH2 0x8E1 JUMPI PUSH1 0x40 MLOAD PUSH4 0x3EE5AEB5 PUSH1 0xE0 SHL DUP2 MSTORE PUSH1 0x4 ADD PUSH1 0x40 MLOAD DUP1 SWAP2 SUB SWAP1 REVERT JUMPDEST PUSH4 0x4E487B71 PUSH1 0xE0 SHL PUSH0 MSTORE PUSH1 0x11 PUSH1 0x4 MSTORE PUSH1 0x24 PUSH0 REVERT JUMPDEST DUP1 DUP3 ADD DUP1 DUP3 GT ISZERO PUSH2 0x13AA JUMPI PUSH2 0x13AA PUSH2 0x1383 JUMP JUMPDEST SWAP3 SWAP2 POP POP JUMP JUMPDEST PUSH0 PUSH1 0x20 DUP3 DUP5 SUB SLT ISZERO PUSH2 0x13C0 JUMPI PUSH0 PUSH0 REVERT JUMPDEST POP CALLDATALOAD SWAP2 SWAP1 POP JUMP JUMPDEST PUSH0 PUSH1 0x20 DUP3 DUP5 SUB SLT ISZERO PUSH2 0x13D7 JUMPI PUSH0 PUSH0 REVERT JUMPDEST DUP2 CALLDATALOAD PUSH1 0x1 PUSH1 0x1 PUSH1 0xA0 SHL SUB DUP2 AND DUP2 EQ PUSH2 0xFDB JUMPI PUSH0 PUSH0 REVERT JUMPDEST PUSH4 0x4E487B71 PUSH1 0xE0 SHL PUSH0 MSTORE PUSH1 0x32 PUSH1 0x4 MSTORE PUSH1 0x24 PUSH0 REVERT JUMPDEST PUSH0 PUSH1 0x1 DUP3 ADD PUSH2 0x1412 JUMPI PUSH2 0x1412 PUSH2 0x1383 JUMP JUMPDEST POP PUSH1 0x1 ADD SWAP1 JUMP JUMPDEST DUP2 DUP2 SUB DUP2 DUP2 GT ISZERO PUSH2 0x13AA JUMPI PUSH2 0x13AA PUSH2 0x1383 JUMP JUMPDEST PUSH0 PUSH1 0x20 DUP3 DUP5 SUB SLT ISZERO PUSH2 0x143C JUMPI PUSH0 PUSH0 REVERT JUMPDEST POP MLOAD SWAP2 SWAP1 POP JUMP JUMPDEST DUP1 DUP3 MUL DUP2 ISZERO DUP3 DUP3 DIV DUP5 EQ OR PUSH2 0x13AA JUMPI PUSH2 0x13AA PUSH2 0x1383 JUMP JUMPDEST PUSH0 DUP3 PUSH2 0x1474 JUMPI PUSH4 0x4E487B71 PUSH1 0xE0 SHL PUSH0 MSTORE PUSH1 0x12 PUSH1 0x4 MSTORE PUSH1 0x24 PUSH0 REVERT JUMPDEST POP DIV SWAP1 JUMP INVALID SWAP12 PUSH24 0x9B17422D0DF92223018B32B4D1FA46E071723D6817E2486D STOP EXTCODESIZE 0xEC 0xC5 PUSH0 STOP LOG2 PUSH5 0x6970667358 0x22 SLT KECCAK256 PUSH1 0xEA 0xB2 DUP2 0xF 0x2E 0xB6 0xA6 SWAP1 SLOAD 0x1E 0xBE 0xFC DUP3 0xD7 PUSH16 0x14D4C25D6A6872C9B82042812E4D94EF PUSH5 0x736F6C6343 STOP ADDMOD SHR STOP CALLER "},"methodIdentifiers":{"activeRegisteredCount()":"0526d3ae","claim()":"4e71d92d","currentWeight(address)":"4e7a2207","emergencyWithdraw()":"db2e21bc","forfeitedPool()":"d3f21636","minimumBalance()":"b9d1d49b","notifyReward()":"5d54bda4","owner()":"8da5cb5b","pendingReward(address)":"f40f0f52","register()":"1aa3a008","registeredList(uint256)":"d4a3ffe9","renounceOwnership()":"715018a6","setMinimumBalance(uint256)":"3446e4b4","setTaxReceiver(address)":"cd8de42c","settlementCount()":"037eca76","settlements(uint256)":"08df7dc8","taxReceiver()":"e6ef73d6","token()":"fc0c546a","totalClaimedGlobal()":"fb7c2bf2","totalCurrentWeight()":"f4634de1","totalReceived()":"a3c2c462","totalRegisteredBalance()":"ab8bc45d","transferOwnership(address)":"f2fde38b","updateBalance(address)":"40b8405a","userInfo(address)":"1959a002","userWeightShare(address)":"7872feb2","users(address)":"a87430ba"}}}}}