{"contracts/LPRewardVault.sol":{"LPRewardVault":{"abi":[{"inputs":[{"internalType":"address","name":"_owner","type":"address"}],"stateMutability":"nonpayable","type":"constructor"},{"inputs":[],"name":"AlreadyActive","type":"error"},{"inputs":[],"name":"InsufficientStake","type":"error"},{"inputs":[],"name":"NotActive","type":"error"},{"inputs":[],"name":"NothingToClaim","type":"error"},{"inputs":[{"internalType":"address","name":"owner","type":"address"}],"name":"OwnableInvalidOwner","type":"error"},{"inputs":[{"internalType":"address","name":"account","type":"address"}],"name":"OwnableUnauthorizedAccount","type":"error"},{"inputs":[],"name":"ReentrancyGuardReentrantCall","type":"error"},{"inputs":[{"internalType":"address","name":"token","type":"address"}],"name":"SafeERC20FailedOperation","type":"error"},{"inputs":[],"name":"TransferFailed","type":"error"},{"inputs":[],"name":"ZeroAddress","type":"error"},{"inputs":[],"name":"ZeroAmount","type":"error"},{"anonymous":false,"inputs":[{"indexed":true,"internalType":"address","name":"lpToken","type":"address"}],"name":"Activated","type":"event"},{"anonymous":false,"inputs":[{"indexed":true,"internalType":"address","name":"user","type":"address"},{"indexed":false,"internalType":"uint256","name":"reward","type":"uint256"}],"name":"Claimed","type":"event"},{"anonymous":false,"inputs":[{"indexed":true,"internalType":"address","name":"to","type":"address"},{"indexed":false,"internalType":"uint256","name":"amount","type":"uint256"}],"name":"EmergencyWithdrawn","type":"event"},{"anonymous":false,"inputs":[{"indexed":true,"internalType":"address","name":"previousOwner","type":"address"},{"indexed":true,"internalType":"address","name":"newOwner","type":"address"}],"name":"OwnershipTransferred","type":"event"},{"anonymous":false,"inputs":[{"indexed":false,"internalType":"uint256","name":"amount","type":"uint256"}],"name":"RewardAdded","type":"event"},{"anonymous":false,"inputs":[{"indexed":true,"internalType":"address","name":"user","type":"address"},{"indexed":false,"internalType":"uint256","name":"amount","type":"uint256"}],"name":"Staked","type":"event"},{"anonymous":false,"inputs":[{"indexed":true,"internalType":"address","name":"user","type":"address"},{"indexed":false,"internalType":"uint256","name":"amount","type":"uint256"}],"name":"Unstaked","type":"event"},{"stateMutability":"payable","type":"fallback"},{"inputs":[],"name":"PRECISION","outputs":[{"internalType":"uint256","name":"","type":"uint256"}],"stateMutability":"view","type":"function"},{"inputs":[],"name":"accRewardPerShare","outputs":[{"internalType":"uint256","name":"","type":"uint256"}],"stateMutability":"view","type":"function"},{"inputs":[],"name":"accumulatedBnb","outputs":[{"internalType":"uint256","name":"","type":"uint256"}],"stateMutability":"view","type":"function"},{"inputs":[{"internalType":"address","name":"_lpToken","type":"address"}],"name":"activate","outputs":[],"stateMutability":"nonpayable","type":"function"},{"inputs":[],"name":"active","outputs":[{"internalType":"bool","name":"","type":"bool"}],"stateMutability":"view","type":"function"},{"inputs":[],"name":"claim","outputs":[],"stateMutability":"nonpayable","type":"function"},{"inputs":[{"internalType":"address","name":"_user","type":"address"}],"name":"earned","outputs":[{"internalType":"uint256","name":"","type":"uint256"}],"stateMutability":"view","type":"function"},{"inputs":[],"name":"emergencyWithdraw","outputs":[],"stateMutability":"nonpayable","type":"function"},{"inputs":[],"name":"lpToken","outputs":[{"internalType":"contract IERC20","name":"","type":"address"}],"stateMutability":"view","type":"function"},{"inputs":[],"name":"owner","outputs":[{"internalType":"address","name":"","type":"address"}],"stateMutability":"view","type":"function"},{"inputs":[],"name":"pendingRewards","outputs":[{"internalType":"uint256","name":"","type":"uint256"}],"stateMutability":"view","type":"function"},{"inputs":[],"name":"renounceOwnership","outputs":[],"stateMutability":"nonpayable","type":"function"},{"inputs":[{"internalType":"uint256","name":"_amount","type":"uint256"}],"name":"stake","outputs":[],"stateMutability":"nonpayable","type":"function"},{"inputs":[],"name":"totalDistributed","outputs":[{"internalType":"uint256","name":"","type":"uint256"}],"stateMutability":"view","type":"function"},{"inputs":[],"name":"totalReceived","outputs":[{"internalType":"uint256","name":"","type":"uint256"}],"stateMutability":"view","type":"function"},{"inputs":[],"name":"totalStaked","outputs":[{"internalType":"uint256","name":"","type":"uint256"}],"stateMutability":"view","type":"function"},{"inputs":[{"internalType":"address","name":"newOwner","type":"address"}],"name":"transferOwnership","outputs":[],"stateMutability":"nonpayable","type":"function"},{"inputs":[{"internalType":"uint256","name":"_amount","type":"uint256"}],"name":"unstake","outputs":[],"stateMutability":"nonpayable","type":"function"},{"inputs":[{"internalType":"address","name":"","type":"address"}],"name":"userInfo","outputs":[{"internalType":"uint256","name":"amount","type":"uint256"},{"internalType":"uint256","name":"rewardDebt","type":"uint256"}],"stateMutability":"view","type":"function"},{"stateMutability":"payable","type":"receive"}],"evm":{"bytecode":{"linkReferences":{},"object":"608060405234801561000f575f5ffd5b50604051610fcb380380610fcb83398101604081905261002e916100ec565b806001600160a01b03811661005c57604051631e4fbdf760e01b81525f600482015260240160405180910390fd5b6100658161009d565b5060017f9b779b17422d0df92223018b32b4d1fa46e071723d6817e2486d003becc55f0055506001805460ff60a01b19169055610119565b5f80546001600160a01b038381166001600160a01b0319831681178455604051919092169283917f8be0079c531659141344cd1fd0a4f28419497f9722a3daafe3b4186f6b6457e09190a35050565b5f602082840312156100fc575f5ffd5b81516001600160a01b0381168114610112575f5ffd5b9392505050565b610ea5806101265f395ff3fe608060405260043610610116575f3560e01c8063817b1cd21161009f578063aaf5eb6811610063578063aaf5eb68146103d3578063db2e21bc146103ee578063eded3fda14610402578063efca2eed14610417578063f2fde38b1461042c576101d6565b8063817b1cd2146103595780638da5cb5b1461036e578063939d62371461038a578063a3c2c4621461039f578063a694fc3a146103b4576101d6565b80632e17de78116100e65780632e17de78146102c95780634e71d92d146102e85780635fcbd285146102fc578063715018a61461033357806372d5439414610347576101d6565b80628cc262146101ff57806302fb0c5e146102315780631959a002146102615780631c5a9d9c146102a8576101d6565b366101d6573460055f82825461012c9190610daf565b90915550506002541561018a575f600454346101489190610daf565b5f600455600254909150610164670de0b6b3a764000083610dc2565b61016e9190610dd9565b60035f82825461017e9190610daf565b909155506101a1915050565b3460045f82825461019b9190610daf565b90915550505b6040513481527fde88a922e0d3b88b24e9623efeb464919c6bf9f66857a65e2bfcf2ce87a9433d9060200160405180910390a1005b3460055f8282546101e79190610daf565b925050819055503460045f82825461019b9190610daf565b34801561020a575f5ffd5b5061021e610219366004610df8565b61044b565b6040519081526020015b60405180910390f35b34801561023c575f5ffd5b5060015461025190600160a01b900460ff1681565b6040519015158152602001610228565b34801561026c575f5ffd5b5061029361027b366004610df8565b60076020525f90815260409020805460019091015482565b60408051928352602083019190915201610228565b3480156102b3575f5ffd5b506102c76102c2366004610df8565b610471565b005b3480156102d4575f5ffd5b506102c76102e3366004610e25565b61051a565b3480156102f3575f5ffd5b506102c76106c4565b348015610307575f5ffd5b5060015461031b906001600160a01b031681565b6040516001600160a01b039091168152602001610228565b34801561033e575f5ffd5b506102c76107c7565b348015610352575f5ffd5b504761021e565b348015610364575f5ffd5b5061021e60025481565b348015610379575f5ffd5b505f546001600160a01b031661031b565b348015610395575f5ffd5b5061021e60035481565b3480156103aa575f5ffd5b5061021e60055481565b3480156103bf575f5ffd5b506102c76103ce366004610e25565b6107d8565b3480156103de575f5ffd5b5061021e670de0b6b3a764000081565b3480156103f9575f5ffd5b506102c76109b8565b34801561040d575f5ffd5b5061021e60045481565b348015610422575f5ffd5b5061021e60065481565b348015610437575f5ffd5b506102c7610446366004610df8565b610aa0565b6001600160a01b0381165f90815260076020526040812061046b90610adf565b92915050565b610479610b21565b600154600160a01b900460ff16156104a457604051637cdf305160e11b815260040160405180910390fd5b6001600160a01b0381166104cb5760405163d92e233d60e01b815260040160405180910390fd5b600180546001600160a81b0319166001600160a01b038316908117600160a01b179091556040517f0cc43938d137e7efade6a531f663e78c1fc75257b0d65ffda2fdaf70cb49cdf9905f90a250565b610522610b4d565b600154600160a01b900460ff1661054c57604051634065aaf160e11b815260040160405180910390fd5b335f908152600760205260409020805482111561057c576040516378de4a6960e11b815260040160405180910390fd5b815f0361059c57604051631f2a200560e01b815260040160405180910390fd5b5f6105a682610adf565b90508015610605578060065f8282546105bf9190610daf565b909155506105cf90503382610b68565b60405181815233907fd8138f8a3f377c5259ca548e70e4c2de94f129f5a11036a15b69513cba2b426a9060200160405180910390a25b82825f015f8282546106179190610e3c565b925050819055508260025f82825461062f9190610e3c565b90915550506003548254670de0b6b3a76400009161064c91610dc2565b6106569190610dd9565b60018084019190915554610674906001600160a01b03163385610bdd565b60405183815233907f0f5bb82176feb1b5e747e28471aa92156a04d9f3ab9f45f28e2d704232b93f759060200160405180910390a250506106c160015f516020610e505f395f51905f5255565b50565b6106cc610b4d565b600154600160a01b900460ff166106f657604051634065aaf160e11b815260040160405180910390fd5b335f9081526007602052604081209061070e82610adf565b9050805f03610730576040516312d37ee560e31b815260040160405180910390fd5b8060065f8282546107419190610daf565b90915550506003548254670de0b6b3a76400009161075e91610dc2565b6107689190610dd9565b60018301556107773382610b68565b60405181815233907fd8138f8a3f377c5259ca548e70e4c2de94f129f5a11036a15b69513cba2b426a906020015b60405180910390a250506107c560015f516020610e505f395f51905f5255565b565b6107cf610b21565b6107c55f610c12565b6107e0610b4d565b600154600160a01b900460ff1661080a57604051634065aaf160e11b815260040160405180910390fd5b805f0361082a57604051631f2a200560e01b815260040160405180910390fd5b335f9081526007602052604090208054156108aa575f61084982610adf565b905080156108a8578060065f8282546108629190610daf565b9091555061087290503382610b68565b60405181815233907fd8138f8a3f377c5259ca548e70e4c2de94f129f5a11036a15b69513cba2b426a9060200160405180910390a25b505b6001546108c2906001600160a01b0316333085610c61565b81815f015f8282546108d49190610daf565b925050819055508160025f8282546108ec9190610daf565b90915550506004541580159061090357505f600254115b1561094557600254670de0b6b3a76400006004546109219190610dc2565b61092b9190610dd9565b60035f82825461093b9190610daf565b90915550505f6004555b6003548154670de0b6b3a76400009161095d91610dc2565b6109679190610dd9565b600182015560405182815233907f9e71bc8eea02a63969f509818f2dafb9254532904319f9dbda79b67bd34a5f3d9060200160405180910390a2506106c160015f516020610e505f395f51905f5255565b6109c0610b21565b6109c8610b4d565b475f8190036109ea576040516312d37ee560e31b815260040160405180910390fd5b5f80546040516001600160a01b039091169083908381818185875af1925050503d805f8114610a34576040519150601f19603f3d011682016040523d82523d5f602084013e610a39565b606091505b5050905080610a5b576040516312171d8360e31b815260040160405180910390fd5b5f546001600160a01b03166001600160a01b03167f2e39961a70a10f4d46383948095ac2752b3ee642a7c76aa827410aaff08c2e51836040516107a591815260200190565b610aa8610b21565b6001600160a01b038116610ad657604051631e4fbdf760e01b81525f60048201526024015b60405180910390fd5b6106c181610c12565b80545f908103610af057505f919050565b60018201546003548354670de0b6b3a764000091610b0d91610dc2565b610b179190610dd9565b61046b9190610e3c565b5f546001600160a01b031633146107c55760405163118cdaa760e01b8152336004820152602401610acd565b610b55610c9d565b60025f516020610e505f395f51905f5255565b5f826001600160a01b0316826040515f6040518083038185875af1925050503d805f8114610bb1576040519150601f19603f3d011682016040523d82523d5f602084013e610bb6565b606091505b5050905080610bd8576040516312171d8360e31b815260040160405180910390fd5b505050565b610bea8383836001610ccc565b610bd857604051635274afe760e01b81526001600160a01b0384166004820152602401610acd565b5f80546001600160a01b038381166001600160a01b0319831681178455604051919092169283917f8be0079c531659141344cd1fd0a4f28419497f9722a3daafe3b4186f6b6457e09190a35050565b610c6f848484846001610d2e565b610c9757604051635274afe760e01b81526001600160a01b0385166004820152602401610acd565b50505050565b5f516020610e505f395f51905f52546002036107c557604051633ee5aeb560e01b815260040160405180910390fd5b60405163a9059cbb60e01b5f8181526001600160a01b038616600452602485905291602083604481808b5af1925060015f51148316610d22578383151615610d16573d5f823e3d81fd5b5f873b113d1516831692505b60405250949350505050565b6040516323b872dd60e01b5f8181526001600160a01b038781166004528616602452604485905291602083606481808c5af1925060015f51148316610d8a578383151615610d7e573d5f823e3d81fd5b5f883b113d1516831692505b604052505f60605295945050505050565b634e487b7160e01b5f52601160045260245ffd5b8082018082111561046b5761046b610d9b565b808202811582820484141761046b5761046b610d9b565b5f82610df357634e487b7160e01b5f52601260045260245ffd5b500490565b5f60208284031215610e08575f5ffd5b81356001600160a01b0381168114610e1e575f5ffd5b9392505050565b5f60208284031215610e35575f5ffd5b5035919050565b8181038181111561046b5761046b610d9b56fe9b779b17422d0df92223018b32b4d1fa46e071723d6817e2486d003becc55f00a26469706673582212204bf86f25a878520c8f476466efee8c6e3e6ad3dfd8b62a180b2f3779057c284b64736f6c634300081c0033","opcodes":"PUSH1 0x80 PUSH1 0x40 MSTORE CALLVALUE DUP1 ISZERO PUSH2 0xF JUMPI PUSH0 PUSH0 REVERT JUMPDEST POP PUSH1 0x40 MLOAD PUSH2 0xFCB CODESIZE SUB DUP1 PUSH2 0xFCB DUP4 CODECOPY DUP2 ADD PUSH1 0x40 DUP2 SWAP1 MSTORE PUSH2 0x2E SWAP2 PUSH2 0xEC JUMP JUMPDEST DUP1 PUSH1 0x1 PUSH1 0x1 PUSH1 0xA0 SHL SUB DUP2 AND PUSH2 0x5C JUMPI PUSH1 0x40 MLOAD PUSH4 0x1E4FBDF7 PUSH1 0xE0 SHL DUP2 MSTORE PUSH0 PUSH1 0x4 DUP3 ADD MSTORE PUSH1 0x24 ADD PUSH1 0x40 MLOAD DUP1 SWAP2 SUB SWAP1 REVERT JUMPDEST PUSH2 0x65 DUP2 PUSH2 0x9D JUMP JUMPDEST POP PUSH1 0x1 PUSH32 0x9B779B17422D0DF92223018B32B4D1FA46E071723D6817E2486D003BECC55F00 SSTORE POP PUSH1 0x1 DUP1 SLOAD PUSH1 0xFF PUSH1 0xA0 SHL NOT AND SWAP1 SSTORE PUSH2 0x119 JUMP JUMPDEST PUSH0 DUP1 SLOAD PUSH1 0x1 PUSH1 0x1 PUSH1 0xA0 SHL SUB DUP4 DUP2 AND PUSH1 0x1 PUSH1 0x1 PUSH1 0xA0 SHL SUB NOT DUP4 AND DUP2 OR DUP5 SSTORE PUSH1 0x40 MLOAD SWAP2 SWAP1 SWAP3 AND SWAP3 DUP4 SWAP2 PUSH32 0x8BE0079C531659141344CD1FD0A4F28419497F9722A3DAAFE3B4186F6B6457E0 SWAP2 SWAP1 LOG3 POP POP JUMP JUMPDEST PUSH0 PUSH1 0x20 DUP3 DUP5 SUB SLT ISZERO PUSH2 0xFC JUMPI PUSH0 PUSH0 REVERT JUMPDEST DUP2 MLOAD PUSH1 0x1 PUSH1 0x1 PUSH1 0xA0 SHL SUB DUP2 AND DUP2 EQ PUSH2 0x112 JUMPI PUSH0 PUSH0 REVERT JUMPDEST SWAP4 SWAP3 POP POP POP JUMP JUMPDEST PUSH2 0xEA5 DUP1 PUSH2 0x126 PUSH0 CODECOPY PUSH0 RETURN INVALID PUSH1 0x80 PUSH1 0x40 MSTORE PUSH1 0x4 CALLDATASIZE LT PUSH2 0x116 JUMPI PUSH0 CALLDATALOAD PUSH1 0xE0 SHR DUP1 PUSH4 0x817B1CD2 GT PUSH2 0x9F JUMPI DUP1 PUSH4 0xAAF5EB68 GT PUSH2 0x63 JUMPI DUP1 PUSH4 0xAAF5EB68 EQ PUSH2 0x3D3 JUMPI DUP1 PUSH4 0xDB2E21BC EQ PUSH2 0x3EE JUMPI DUP1 PUSH4 0xEDED3FDA EQ PUSH2 0x402 JUMPI DUP1 PUSH4 0xEFCA2EED EQ PUSH2 0x417 JUMPI DUP1 PUSH4 0xF2FDE38B EQ PUSH2 0x42C JUMPI PUSH2 0x1D6 JUMP JUMPDEST DUP1 PUSH4 0x817B1CD2 EQ PUSH2 0x359 JUMPI DUP1 PUSH4 0x8DA5CB5B EQ PUSH2 0x36E JUMPI DUP1 PUSH4 0x939D6237 EQ PUSH2 0x38A JUMPI DUP1 PUSH4 0xA3C2C462 EQ PUSH2 0x39F JUMPI DUP1 PUSH4 0xA694FC3A EQ PUSH2 0x3B4 JUMPI PUSH2 0x1D6 JUMP JUMPDEST DUP1 PUSH4 0x2E17DE78 GT PUSH2 0xE6 JUMPI DUP1 PUSH4 0x2E17DE78 EQ PUSH2 0x2C9 JUMPI DUP1 PUSH4 0x4E71D92D EQ PUSH2 0x2E8 JUMPI DUP1 PUSH4 0x5FCBD285 EQ PUSH2 0x2FC JUMPI DUP1 PUSH4 0x715018A6 EQ PUSH2 0x333 JUMPI DUP1 PUSH4 0x72D54394 EQ PUSH2 0x347 JUMPI PUSH2 0x1D6 JUMP JUMPDEST DUP1 PUSH3 0x8CC262 EQ PUSH2 0x1FF JUMPI DUP1 PUSH4 0x2FB0C5E EQ PUSH2 0x231 JUMPI DUP1 PUSH4 0x1959A002 EQ PUSH2 0x261 JUMPI DUP1 PUSH4 0x1C5A9D9C EQ PUSH2 0x2A8 JUMPI PUSH2 0x1D6 JUMP JUMPDEST CALLDATASIZE PUSH2 0x1D6 JUMPI CALLVALUE PUSH1 0x5 PUSH0 DUP3 DUP3 SLOAD PUSH2 0x12C SWAP2 SWAP1 PUSH2 0xDAF JUMP JUMPDEST SWAP1 SWAP2 SSTORE POP POP PUSH1 0x2 SLOAD ISZERO PUSH2 0x18A JUMPI PUSH0 PUSH1 0x4 SLOAD CALLVALUE PUSH2 0x148 SWAP2 SWAP1 PUSH2 0xDAF JUMP JUMPDEST PUSH0 PUSH1 0x4 SSTORE PUSH1 0x2 SLOAD SWAP1 SWAP2 POP PUSH2 0x164 PUSH8 0xDE0B6B3A7640000 DUP4 PUSH2 0xDC2 JUMP JUMPDEST PUSH2 0x16E SWAP2 SWAP1 PUSH2 0xDD9 JUMP JUMPDEST PUSH1 0x3 PUSH0 DUP3 DUP3 SLOAD PUSH2 0x17E SWAP2 SWAP1 PUSH2 0xDAF JUMP JUMPDEST SWAP1 SWAP2 SSTORE POP PUSH2 0x1A1 SWAP2 POP POP JUMP JUMPDEST CALLVALUE PUSH1 0x4 PUSH0 DUP3 DUP3 SLOAD PUSH2 0x19B SWAP2 SWAP1 PUSH2 0xDAF JUMP JUMPDEST SWAP1 SWAP2 SSTORE POP POP JUMPDEST PUSH1 0x40 MLOAD CALLVALUE DUP2 MSTORE PUSH32 0xDE88A922E0D3B88B24E9623EFEB464919C6BF9F66857A65E2BFCF2CE87A9433D SWAP1 PUSH1 0x20 ADD PUSH1 0x40 MLOAD DUP1 SWAP2 SUB SWAP1 LOG1 STOP JUMPDEST CALLVALUE PUSH1 0x5 PUSH0 DUP3 DUP3 SLOAD PUSH2 0x1E7 SWAP2 SWAP1 PUSH2 0xDAF JUMP JUMPDEST SWAP3 POP POP DUP2 SWAP1 SSTORE POP CALLVALUE PUSH1 0x4 PUSH0 DUP3 DUP3 SLOAD PUSH2 0x19B SWAP2 SWAP1 PUSH2 0xDAF JUMP JUMPDEST CALLVALUE DUP1 ISZERO PUSH2 0x20A JUMPI PUSH0 PUSH0 REVERT JUMPDEST POP PUSH2 0x21E PUSH2 0x219 CALLDATASIZE PUSH1 0x4 PUSH2 0xDF8 JUMP JUMPDEST PUSH2 0x44B JUMP JUMPDEST PUSH1 0x40 MLOAD SWAP1 DUP2 MSTORE PUSH1 0x20 ADD JUMPDEST PUSH1 0x40 MLOAD DUP1 SWAP2 SUB SWAP1 RETURN JUMPDEST CALLVALUE DUP1 ISZERO PUSH2 0x23C JUMPI PUSH0 PUSH0 REVERT JUMPDEST POP PUSH1 0x1 SLOAD PUSH2 0x251 SWAP1 PUSH1 0x1 PUSH1 0xA0 SHL SWAP1 DIV PUSH1 0xFF AND DUP2 JUMP JUMPDEST PUSH1 0x40 MLOAD SWAP1 ISZERO ISZERO DUP2 MSTORE PUSH1 0x20 ADD PUSH2 0x228 JUMP JUMPDEST CALLVALUE DUP1 ISZERO PUSH2 0x26C JUMPI PUSH0 PUSH0 REVERT JUMPDEST POP PUSH2 0x293 PUSH2 0x27B CALLDATASIZE PUSH1 0x4 PUSH2 0xDF8 JUMP JUMPDEST PUSH1 0x7 PUSH1 0x20 MSTORE PUSH0 SWAP1 DUP2 MSTORE PUSH1 0x40 SWAP1 KECCAK256 DUP1 SLOAD PUSH1 0x1 SWAP1 SWAP2 ADD SLOAD DUP3 JUMP JUMPDEST PUSH1 0x40 DUP1 MLOAD SWAP3 DUP4 MSTORE PUSH1 0x20 DUP4 ADD SWAP2 SWAP1 SWAP2 MSTORE ADD PUSH2 0x228 JUMP JUMPDEST CALLVALUE DUP1 ISZERO PUSH2 0x2B3 JUMPI PUSH0 PUSH0 REVERT JUMPDEST POP PUSH2 0x2C7 PUSH2 0x2C2 CALLDATASIZE PUSH1 0x4 PUSH2 0xDF8 JUMP JUMPDEST PUSH2 0x471 JUMP JUMPDEST STOP JUMPDEST CALLVALUE DUP1 ISZERO PUSH2 0x2D4 JUMPI PUSH0 PUSH0 REVERT JUMPDEST POP PUSH2 0x2C7 PUSH2 0x2E3 CALLDATASIZE PUSH1 0x4 PUSH2 0xE25 JUMP JUMPDEST PUSH2 0x51A JUMP JUMPDEST CALLVALUE DUP1 ISZERO PUSH2 0x2F3 JUMPI PUSH0 PUSH0 REVERT JUMPDEST POP PUSH2 0x2C7 PUSH2 0x6C4 JUMP JUMPDEST CALLVALUE DUP1 ISZERO PUSH2 0x307 JUMPI PUSH0 PUSH0 REVERT JUMPDEST POP PUSH1 0x1 SLOAD PUSH2 0x31B SWAP1 PUSH1 0x1 PUSH1 0x1 PUSH1 0xA0 SHL SUB AND DUP2 JUMP JUMPDEST PUSH1 0x40 MLOAD PUSH1 0x1 PUSH1 0x1 PUSH1 0xA0 SHL SUB SWAP1 SWAP2 AND DUP2 MSTORE PUSH1 0x20 ADD PUSH2 0x228 JUMP JUMPDEST CALLVALUE DUP1 ISZERO PUSH2 0x33E JUMPI PUSH0 PUSH0 REVERT JUMPDEST POP PUSH2 0x2C7 PUSH2 0x7C7 JUMP JUMPDEST CALLVALUE DUP1 ISZERO PUSH2 0x352 JUMPI PUSH0 PUSH0 REVERT JUMPDEST POP SELFBALANCE PUSH2 0x21E JUMP JUMPDEST CALLVALUE DUP1 ISZERO PUSH2 0x364 JUMPI PUSH0 PUSH0 REVERT JUMPDEST POP PUSH2 0x21E PUSH1 0x2 SLOAD DUP2 JUMP JUMPDEST CALLVALUE DUP1 ISZERO PUSH2 0x379 JUMPI PUSH0 PUSH0 REVERT JUMPDEST POP PUSH0 SLOAD PUSH1 0x1 PUSH1 0x1 PUSH1 0xA0 SHL SUB AND PUSH2 0x31B JUMP JUMPDEST CALLVALUE DUP1 ISZERO PUSH2 0x395 JUMPI PUSH0 PUSH0 REVERT JUMPDEST POP PUSH2 0x21E PUSH1 0x3 SLOAD DUP2 JUMP JUMPDEST CALLVALUE DUP1 ISZERO PUSH2 0x3AA JUMPI PUSH0 PUSH0 REVERT JUMPDEST POP PUSH2 0x21E PUSH1 0x5 SLOAD DUP2 JUMP JUMPDEST CALLVALUE DUP1 ISZERO PUSH2 0x3BF JUMPI PUSH0 PUSH0 REVERT JUMPDEST POP PUSH2 0x2C7 PUSH2 0x3CE CALLDATASIZE PUSH1 0x4 PUSH2 0xE25 JUMP JUMPDEST PUSH2 0x7D8 JUMP JUMPDEST CALLVALUE DUP1 ISZERO PUSH2 0x3DE JUMPI PUSH0 PUSH0 REVERT JUMPDEST POP PUSH2 0x21E PUSH8 0xDE0B6B3A7640000 DUP2 JUMP JUMPDEST CALLVALUE DUP1 ISZERO PUSH2 0x3F9 JUMPI PUSH0 PUSH0 REVERT JUMPDEST POP PUSH2 0x2C7 PUSH2 0x9B8 JUMP JUMPDEST CALLVALUE DUP1 ISZERO PUSH2 0x40D JUMPI PUSH0 PUSH0 REVERT JUMPDEST POP PUSH2 0x21E PUSH1 0x4 SLOAD DUP2 JUMP JUMPDEST CALLVALUE DUP1 ISZERO PUSH2 0x422 JUMPI PUSH0 PUSH0 REVERT JUMPDEST POP PUSH2 0x21E PUSH1 0x6 SLOAD DUP2 JUMP JUMPDEST CALLVALUE DUP1 ISZERO PUSH2 0x437 JUMPI PUSH0 PUSH0 REVERT JUMPDEST POP PUSH2 0x2C7 PUSH2 0x446 CALLDATASIZE PUSH1 0x4 PUSH2 0xDF8 JUMP JUMPDEST PUSH2 0xAA0 JUMP JUMPDEST PUSH1 0x1 PUSH1 0x1 PUSH1 0xA0 SHL SUB DUP2 AND PUSH0 SWAP1 DUP2 MSTORE PUSH1 0x7 PUSH1 0x20 MSTORE PUSH1 0x40 DUP2 KECCAK256 PUSH2 0x46B SWAP1 PUSH2 0xADF JUMP JUMPDEST SWAP3 SWAP2 POP POP JUMP JUMPDEST PUSH2 0x479 PUSH2 0xB21 JUMP JUMPDEST PUSH1 0x1 SLOAD PUSH1 0x1 PUSH1 0xA0 SHL SWAP1 DIV PUSH1 0xFF AND ISZERO PUSH2 0x4A4 JUMPI PUSH1 0x40 MLOAD PUSH4 0x7CDF3051 PUSH1 0xE1 SHL DUP2 MSTORE PUSH1 0x4 ADD PUSH1 0x40 MLOAD DUP1 SWAP2 SUB SWAP1 REVERT JUMPDEST PUSH1 0x1 PUSH1 0x1 PUSH1 0xA0 SHL SUB DUP2 AND PUSH2 0x4CB JUMPI PUSH1 0x40 MLOAD PUSH4 0xD92E233D PUSH1 0xE0 SHL DUP2 MSTORE PUSH1 0x4 ADD PUSH1 0x40 MLOAD DUP1 SWAP2 SUB SWAP1 REVERT JUMPDEST PUSH1 0x1 DUP1 SLOAD PUSH1 0x1 PUSH1 0x1 PUSH1 0xA8 SHL SUB NOT AND PUSH1 0x1 PUSH1 0x1 PUSH1 0xA0 SHL SUB DUP4 AND SWAP1 DUP2 OR PUSH1 0x1 PUSH1 0xA0 SHL OR SWAP1 SWAP2 SSTORE PUSH1 0x40 MLOAD PUSH32 0xCC43938D137E7EFADE6A531F663E78C1FC75257B0D65FFDA2FDAF70CB49CDF9 SWAP1 PUSH0 SWAP1 LOG2 POP JUMP JUMPDEST PUSH2 0x522 PUSH2 0xB4D JUMP JUMPDEST PUSH1 0x1 SLOAD PUSH1 0x1 PUSH1 0xA0 SHL SWAP1 DIV PUSH1 0xFF AND PUSH2 0x54C JUMPI PUSH1 0x40 MLOAD PUSH4 0x4065AAF1 PUSH1 0xE1 SHL DUP2 MSTORE PUSH1 0x4 ADD PUSH1 0x40 MLOAD DUP1 SWAP2 SUB SWAP1 REVERT JUMPDEST CALLER PUSH0 SWAP1 DUP2 MSTORE PUSH1 0x7 PUSH1 0x20 MSTORE PUSH1 0x40 SWAP1 KECCAK256 DUP1 SLOAD DUP3 GT ISZERO PUSH2 0x57C JUMPI PUSH1 0x40 MLOAD PUSH4 0x78DE4A69 PUSH1 0xE1 SHL DUP2 MSTORE PUSH1 0x4 ADD PUSH1 0x40 MLOAD DUP1 SWAP2 SUB SWAP1 REVERT JUMPDEST DUP2 PUSH0 SUB PUSH2 0x59C JUMPI PUSH1 0x40 MLOAD PUSH4 0x1F2A2005 PUSH1 0xE0 SHL DUP2 MSTORE PUSH1 0x4 ADD PUSH1 0x40 MLOAD DUP1 SWAP2 SUB SWAP1 REVERT JUMPDEST PUSH0 PUSH2 0x5A6 DUP3 PUSH2 0xADF JUMP JUMPDEST SWAP1 POP DUP1 ISZERO PUSH2 0x605 JUMPI DUP1 PUSH1 0x6 PUSH0 DUP3 DUP3 SLOAD PUSH2 0x5BF SWAP2 SWAP1 PUSH2 0xDAF JUMP JUMPDEST SWAP1 SWAP2 SSTORE POP PUSH2 0x5CF SWAP1 POP CALLER DUP3 PUSH2 0xB68 JUMP JUMPDEST PUSH1 0x40 MLOAD DUP2 DUP2 MSTORE CALLER SWAP1 PUSH32 0xD8138F8A3F377C5259CA548E70E4C2DE94F129F5A11036A15B69513CBA2B426A SWAP1 PUSH1 0x20 ADD PUSH1 0x40 MLOAD DUP1 SWAP2 SUB SWAP1 LOG2 JUMPDEST DUP3 DUP3 PUSH0 ADD PUSH0 DUP3 DUP3 SLOAD PUSH2 0x617 SWAP2 SWAP1 PUSH2 0xE3C JUMP JUMPDEST SWAP3 POP POP DUP2 SWAP1 SSTORE POP DUP3 PUSH1 0x2 PUSH0 DUP3 DUP3 SLOAD PUSH2 0x62F SWAP2 SWAP1 PUSH2 0xE3C JUMP JUMPDEST SWAP1 SWAP2 SSTORE POP POP PUSH1 0x3 SLOAD DUP3 SLOAD PUSH8 0xDE0B6B3A7640000 SWAP2 PUSH2 0x64C SWAP2 PUSH2 0xDC2 JUMP JUMPDEST PUSH2 0x656 SWAP2 SWAP1 PUSH2 0xDD9 JUMP JUMPDEST PUSH1 0x1 DUP1 DUP5 ADD SWAP2 SWAP1 SWAP2 SSTORE SLOAD PUSH2 0x674 SWAP1 PUSH1 0x1 PUSH1 0x1 PUSH1 0xA0 SHL SUB AND CALLER DUP6 PUSH2 0xBDD JUMP JUMPDEST PUSH1 0x40 MLOAD DUP4 DUP2 MSTORE CALLER SWAP1 PUSH32 0xF5BB82176FEB1B5E747E28471AA92156A04D9F3AB9F45F28E2D704232B93F75 SWAP1 PUSH1 0x20 ADD PUSH1 0x40 MLOAD DUP1 SWAP2 SUB SWAP1 LOG2 POP POP PUSH2 0x6C1 PUSH1 0x1 PUSH0 MLOAD PUSH1 0x20 PUSH2 0xE50 PUSH0 CODECOPY PUSH0 MLOAD SWAP1 PUSH0 MSTORE SSTORE JUMP JUMPDEST POP JUMP JUMPDEST PUSH2 0x6CC PUSH2 0xB4D JUMP JUMPDEST PUSH1 0x1 SLOAD PUSH1 0x1 PUSH1 0xA0 SHL SWAP1 DIV PUSH1 0xFF AND PUSH2 0x6F6 JUMPI PUSH1 0x40 MLOAD PUSH4 0x4065AAF1 PUSH1 0xE1 SHL DUP2 MSTORE PUSH1 0x4 ADD PUSH1 0x40 MLOAD DUP1 SWAP2 SUB SWAP1 REVERT JUMPDEST CALLER PUSH0 SWAP1 DUP2 MSTORE PUSH1 0x7 PUSH1 0x20 MSTORE PUSH1 0x40 DUP2 KECCAK256 SWAP1 PUSH2 0x70E DUP3 PUSH2 0xADF JUMP JUMPDEST SWAP1 POP DUP1 PUSH0 SUB PUSH2 0x730 JUMPI PUSH1 0x40 MLOAD PUSH4 0x12D37EE5 PUSH1 0xE3 SHL DUP2 MSTORE PUSH1 0x4 ADD PUSH1 0x40 MLOAD DUP1 SWAP2 SUB SWAP1 REVERT JUMPDEST DUP1 PUSH1 0x6 PUSH0 DUP3 DUP3 SLOAD PUSH2 0x741 SWAP2 SWAP1 PUSH2 0xDAF JUMP JUMPDEST SWAP1 SWAP2 SSTORE POP POP PUSH1 0x3 SLOAD DUP3 SLOAD PUSH8 0xDE0B6B3A7640000 SWAP2 PUSH2 0x75E SWAP2 PUSH2 0xDC2 JUMP JUMPDEST PUSH2 0x768 SWAP2 SWAP1 PUSH2 0xDD9 JUMP JUMPDEST PUSH1 0x1 DUP4 ADD SSTORE PUSH2 0x777 CALLER DUP3 PUSH2 0xB68 JUMP JUMPDEST PUSH1 0x40 MLOAD DUP2 DUP2 MSTORE CALLER SWAP1 PUSH32 0xD8138F8A3F377C5259CA548E70E4C2DE94F129F5A11036A15B69513CBA2B426A SWAP1 PUSH1 0x20 ADD JUMPDEST PUSH1 0x40 MLOAD DUP1 SWAP2 SUB SWAP1 LOG2 POP POP PUSH2 0x7C5 PUSH1 0x1 PUSH0 MLOAD PUSH1 0x20 PUSH2 0xE50 PUSH0 CODECOPY PUSH0 MLOAD SWAP1 PUSH0 MSTORE SSTORE JUMP JUMPDEST JUMP JUMPDEST PUSH2 0x7CF PUSH2 0xB21 JUMP JUMPDEST PUSH2 0x7C5 PUSH0 PUSH2 0xC12 JUMP JUMPDEST PUSH2 0x7E0 PUSH2 0xB4D JUMP JUMPDEST PUSH1 0x1 SLOAD PUSH1 0x1 PUSH1 0xA0 SHL SWAP1 DIV PUSH1 0xFF AND PUSH2 0x80A JUMPI PUSH1 0x40 MLOAD PUSH4 0x4065AAF1 PUSH1 0xE1 SHL DUP2 MSTORE PUSH1 0x4 ADD PUSH1 0x40 MLOAD DUP1 SWAP2 SUB SWAP1 REVERT JUMPDEST DUP1 PUSH0 SUB PUSH2 0x82A JUMPI PUSH1 0x40 MLOAD PUSH4 0x1F2A2005 PUSH1 0xE0 SHL DUP2 MSTORE PUSH1 0x4 ADD PUSH1 0x40 MLOAD DUP1 SWAP2 SUB SWAP1 REVERT JUMPDEST CALLER PUSH0 SWAP1 DUP2 MSTORE PUSH1 0x7 PUSH1 0x20 MSTORE PUSH1 0x40 SWAP1 KECCAK256 DUP1 SLOAD ISZERO PUSH2 0x8AA JUMPI PUSH0 PUSH2 0x849 DUP3 PUSH2 0xADF JUMP JUMPDEST SWAP1 POP DUP1 ISZERO PUSH2 0x8A8 JUMPI DUP1 PUSH1 0x6 PUSH0 DUP3 DUP3 SLOAD PUSH2 0x862 SWAP2 SWAP1 PUSH2 0xDAF JUMP JUMPDEST SWAP1 SWAP2 SSTORE POP PUSH2 0x872 SWAP1 POP CALLER DUP3 PUSH2 0xB68 JUMP JUMPDEST PUSH1 0x40 MLOAD DUP2 DUP2 MSTORE CALLER SWAP1 PUSH32 0xD8138F8A3F377C5259CA548E70E4C2DE94F129F5A11036A15B69513CBA2B426A SWAP1 PUSH1 0x20 ADD PUSH1 0x40 MLOAD DUP1 SWAP2 SUB SWAP1 LOG2 JUMPDEST POP JUMPDEST PUSH1 0x1 SLOAD PUSH2 0x8C2 SWAP1 PUSH1 0x1 PUSH1 0x1 PUSH1 0xA0 SHL SUB AND CALLER ADDRESS DUP6 PUSH2 0xC61 JUMP JUMPDEST DUP2 DUP2 PUSH0 ADD PUSH0 DUP3 DUP3 SLOAD PUSH2 0x8D4 SWAP2 SWAP1 PUSH2 0xDAF JUMP JUMPDEST SWAP3 POP POP DUP2 SWAP1 SSTORE POP DUP2 PUSH1 0x2 PUSH0 DUP3 DUP3 SLOAD PUSH2 0x8EC SWAP2 SWAP1 PUSH2 0xDAF JUMP JUMPDEST SWAP1 SWAP2 SSTORE POP POP PUSH1 0x4 SLOAD ISZERO DUP1 ISZERO SWAP1 PUSH2 0x903 JUMPI POP PUSH0 PUSH1 0x2 SLOAD GT JUMPDEST ISZERO PUSH2 0x945 JUMPI PUSH1 0x2 SLOAD PUSH8 0xDE0B6B3A7640000 PUSH1 0x4 SLOAD PUSH2 0x921 SWAP2 SWAP1 PUSH2 0xDC2 JUMP JUMPDEST PUSH2 0x92B SWAP2 SWAP1 PUSH2 0xDD9 JUMP JUMPDEST PUSH1 0x3 PUSH0 DUP3 DUP3 SLOAD PUSH2 0x93B SWAP2 SWAP1 PUSH2 0xDAF JUMP JUMPDEST SWAP1 SWAP2 SSTORE POP POP PUSH0 PUSH1 0x4 SSTORE JUMPDEST PUSH1 0x3 SLOAD DUP2 SLOAD PUSH8 0xDE0B6B3A7640000 SWAP2 PUSH2 0x95D SWAP2 PUSH2 0xDC2 JUMP JUMPDEST PUSH2 0x967 SWAP2 SWAP1 PUSH2 0xDD9 JUMP JUMPDEST PUSH1 0x1 DUP3 ADD SSTORE PUSH1 0x40 MLOAD DUP3 DUP2 MSTORE CALLER SWAP1 PUSH32 0x9E71BC8EEA02A63969F509818F2DAFB9254532904319F9DBDA79B67BD34A5F3D SWAP1 PUSH1 0x20 ADD PUSH1 0x40 MLOAD DUP1 SWAP2 SUB SWAP1 LOG2 POP PUSH2 0x6C1 PUSH1 0x1 PUSH0 MLOAD PUSH1 0x20 PUSH2 0xE50 PUSH0 CODECOPY PUSH0 MLOAD SWAP1 PUSH0 MSTORE SSTORE JUMP JUMPDEST PUSH2 0x9C0 PUSH2 0xB21 JUMP JUMPDEST PUSH2 0x9C8 PUSH2 0xB4D JUMP JUMPDEST SELFBALANCE PUSH0 DUP2 SWAP1 SUB PUSH2 0x9EA JUMPI PUSH1 0x40 MLOAD PUSH4 0x12D37EE5 PUSH1 0xE3 SHL DUP2 MSTORE PUSH1 0x4 ADD PUSH1 0x40 MLOAD DUP1 SWAP2 SUB SWAP1 REVERT JUMPDEST PUSH0 DUP1 SLOAD PUSH1 0x40 MLOAD PUSH1 0x1 PUSH1 0x1 PUSH1 0xA0 SHL SUB SWAP1 SWAP2 AND SWAP1 DUP4 SWAP1 DUP4 DUP2 DUP2 DUP2 DUP6 DUP8 GAS CALL SWAP3 POP POP POP RETURNDATASIZE DUP1 PUSH0 DUP2 EQ PUSH2 0xA34 JUMPI PUSH1 0x40 MLOAD SWAP2 POP PUSH1 0x1F NOT PUSH1 0x3F RETURNDATASIZE ADD AND DUP3 ADD PUSH1 0x40 MSTORE RETURNDATASIZE DUP3 MSTORE RETURNDATASIZE PUSH0 PUSH1 0x20 DUP5 ADD RETURNDATACOPY PUSH2 0xA39 JUMP JUMPDEST PUSH1 0x60 SWAP2 POP JUMPDEST POP POP SWAP1 POP DUP1 PUSH2 0xA5B JUMPI PUSH1 0x40 MLOAD PUSH4 0x12171D83 PUSH1 0xE3 SHL DUP2 MSTORE PUSH1 0x4 ADD PUSH1 0x40 MLOAD DUP1 SWAP2 SUB SWAP1 REVERT JUMPDEST PUSH0 SLOAD PUSH1 0x1 PUSH1 0x1 PUSH1 0xA0 SHL SUB AND PUSH1 0x1 PUSH1 0x1 PUSH1 0xA0 SHL SUB AND PUSH32 0x2E39961A70A10F4D46383948095AC2752B3EE642A7C76AA827410AAFF08C2E51 DUP4 PUSH1 0x40 MLOAD PUSH2 0x7A5 SWAP2 DUP2 MSTORE PUSH1 0x20 ADD SWAP1 JUMP JUMPDEST PUSH2 0xAA8 PUSH2 0xB21 JUMP JUMPDEST PUSH1 0x1 PUSH1 0x1 PUSH1 0xA0 SHL SUB DUP2 AND PUSH2 0xAD6 JUMPI PUSH1 0x40 MLOAD PUSH4 0x1E4FBDF7 PUSH1 0xE0 SHL DUP2 MSTORE PUSH0 PUSH1 0x4 DUP3 ADD MSTORE PUSH1 0x24 ADD JUMPDEST PUSH1 0x40 MLOAD DUP1 SWAP2 SUB SWAP1 REVERT JUMPDEST PUSH2 0x6C1 DUP2 PUSH2 0xC12 JUMP JUMPDEST DUP1 SLOAD PUSH0 SWAP1 DUP2 SUB PUSH2 0xAF0 JUMPI POP PUSH0 SWAP2 SWAP1 POP JUMP JUMPDEST PUSH1 0x1 DUP3 ADD SLOAD PUSH1 0x3 SLOAD DUP4 SLOAD PUSH8 0xDE0B6B3A7640000 SWAP2 PUSH2 0xB0D SWAP2 PUSH2 0xDC2 JUMP JUMPDEST PUSH2 0xB17 SWAP2 SWAP1 PUSH2 0xDD9 JUMP JUMPDEST PUSH2 0x46B SWAP2 SWAP1 PUSH2 0xE3C JUMP JUMPDEST PUSH0 SLOAD PUSH1 0x1 PUSH1 0x1 PUSH1 0xA0 SHL SUB AND CALLER EQ PUSH2 0x7C5 JUMPI PUSH1 0x40 MLOAD PUSH4 0x118CDAA7 PUSH1 0xE0 SHL DUP2 MSTORE CALLER PUSH1 0x4 DUP3 ADD MSTORE PUSH1 0x24 ADD PUSH2 0xACD JUMP JUMPDEST PUSH2 0xB55 PUSH2 0xC9D JUMP JUMPDEST PUSH1 0x2 PUSH0 MLOAD PUSH1 0x20 PUSH2 0xE50 PUSH0 CODECOPY PUSH0 MLOAD SWAP1 PUSH0 MSTORE SSTORE JUMP JUMPDEST PUSH0 DUP3 PUSH1 0x1 PUSH1 0x1 PUSH1 0xA0 SHL SUB AND DUP3 PUSH1 0x40 MLOAD PUSH0 PUSH1 0x40 MLOAD DUP1 DUP4 SUB DUP2 DUP6 DUP8 GAS CALL SWAP3 POP POP POP RETURNDATASIZE DUP1 PUSH0 DUP2 EQ PUSH2 0xBB1 JUMPI PUSH1 0x40 MLOAD SWAP2 POP PUSH1 0x1F NOT PUSH1 0x3F RETURNDATASIZE ADD AND DUP3 ADD PUSH1 0x40 MSTORE RETURNDATASIZE DUP3 MSTORE RETURNDATASIZE PUSH0 PUSH1 0x20 DUP5 ADD RETURNDATACOPY PUSH2 0xBB6 JUMP JUMPDEST PUSH1 0x60 SWAP2 POP JUMPDEST POP POP SWAP1 POP DUP1 PUSH2 0xBD8 JUMPI PUSH1 0x40 MLOAD PUSH4 0x12171D83 PUSH1 0xE3 SHL DUP2 MSTORE PUSH1 0x4 ADD PUSH1 0x40 MLOAD DUP1 SWAP2 SUB SWAP1 REVERT JUMPDEST POP POP POP JUMP JUMPDEST PUSH2 0xBEA DUP4 DUP4 DUP4 PUSH1 0x1 PUSH2 0xCCC JUMP JUMPDEST PUSH2 0xBD8 JUMPI PUSH1 0x40 MLOAD PUSH4 0x5274AFE7 PUSH1 0xE0 SHL DUP2 MSTORE PUSH1 0x1 PUSH1 0x1 PUSH1 0xA0 SHL SUB DUP5 AND PUSH1 0x4 DUP3 ADD MSTORE PUSH1 0x24 ADD PUSH2 0xACD JUMP JUMPDEST PUSH0 DUP1 SLOAD PUSH1 0x1 PUSH1 0x1 PUSH1 0xA0 SHL SUB DUP4 DUP2 AND PUSH1 0x1 PUSH1 0x1 PUSH1 0xA0 SHL SUB NOT DUP4 AND DUP2 OR DUP5 SSTORE PUSH1 0x40 MLOAD SWAP2 SWAP1 SWAP3 AND SWAP3 DUP4 SWAP2 PUSH32 0x8BE0079C531659141344CD1FD0A4F28419497F9722A3DAAFE3B4186F6B6457E0 SWAP2 SWAP1 LOG3 POP POP JUMP JUMPDEST PUSH2 0xC6F DUP5 DUP5 DUP5 DUP5 PUSH1 0x1 PUSH2 0xD2E JUMP JUMPDEST PUSH2 0xC97 JUMPI PUSH1 0x40 MLOAD PUSH4 0x5274AFE7 PUSH1 0xE0 SHL DUP2 MSTORE PUSH1 0x1 PUSH1 0x1 PUSH1 0xA0 SHL SUB DUP6 AND PUSH1 0x4 DUP3 ADD MSTORE PUSH1 0x24 ADD PUSH2 0xACD JUMP JUMPDEST POP POP POP POP JUMP JUMPDEST PUSH0 MLOAD PUSH1 0x20 PUSH2 0xE50 PUSH0 CODECOPY PUSH0 MLOAD SWAP1 PUSH0 MSTORE SLOAD PUSH1 0x2 SUB PUSH2 0x7C5 JUMPI PUSH1 0x40 MLOAD PUSH4 0x3EE5AEB5 PUSH1 0xE0 SHL DUP2 MSTORE PUSH1 0x4 ADD PUSH1 0x40 MLOAD DUP1 SWAP2 SUB SWAP1 REVERT JUMPDEST PUSH1 0x40 MLOAD PUSH4 0xA9059CBB PUSH1 0xE0 SHL PUSH0 DUP2 DUP2 MSTORE PUSH1 0x1 PUSH1 0x1 PUSH1 0xA0 SHL SUB DUP7 AND PUSH1 0x4 MSTORE PUSH1 0x24 DUP6 SWAP1 MSTORE SWAP2 PUSH1 0x20 DUP4 PUSH1 0x44 DUP2 DUP1 DUP12 GAS CALL SWAP3 POP PUSH1 0x1 PUSH0 MLOAD EQ DUP4 AND PUSH2 0xD22 JUMPI DUP4 DUP4 ISZERO AND ISZERO PUSH2 0xD16 JUMPI RETURNDATASIZE PUSH0 DUP3 RETURNDATACOPY RETURNDATASIZE DUP2 REVERT JUMPDEST PUSH0 DUP8 EXTCODESIZE GT RETURNDATASIZE ISZERO AND DUP4 AND SWAP3 POP JUMPDEST PUSH1 0x40 MSTORE POP SWAP5 SWAP4 POP POP POP POP JUMP JUMPDEST PUSH1 0x40 MLOAD PUSH4 0x23B872DD PUSH1 0xE0 SHL PUSH0 DUP2 DUP2 MSTORE PUSH1 0x1 PUSH1 0x1 PUSH1 0xA0 SHL SUB DUP8 DUP2 AND PUSH1 0x4 MSTORE DUP7 AND PUSH1 0x24 MSTORE PUSH1 0x44 DUP6 SWAP1 MSTORE SWAP2 PUSH1 0x20 DUP4 PUSH1 0x64 DUP2 DUP1 DUP13 GAS CALL SWAP3 POP PUSH1 0x1 PUSH0 MLOAD EQ DUP4 AND PUSH2 0xD8A JUMPI DUP4 DUP4 ISZERO AND ISZERO PUSH2 0xD7E JUMPI RETURNDATASIZE PUSH0 DUP3 RETURNDATACOPY RETURNDATASIZE DUP2 REVERT JUMPDEST PUSH0 DUP9 EXTCODESIZE GT RETURNDATASIZE ISZERO AND DUP4 AND SWAP3 POP JUMPDEST PUSH1 0x40 MSTORE POP PUSH0 PUSH1 0x60 MSTORE SWAP6 SWAP5 POP POP POP POP POP JUMP JUMPDEST PUSH4 0x4E487B71 PUSH1 0xE0 SHL PUSH0 MSTORE PUSH1 0x11 PUSH1 0x4 MSTORE PUSH1 0x24 PUSH0 REVERT JUMPDEST DUP1 DUP3 ADD DUP1 DUP3 GT ISZERO PUSH2 0x46B JUMPI PUSH2 0x46B PUSH2 0xD9B JUMP JUMPDEST DUP1 DUP3 MUL DUP2 ISZERO DUP3 DUP3 DIV DUP5 EQ OR PUSH2 0x46B JUMPI PUSH2 0x46B PUSH2 0xD9B JUMP JUMPDEST PUSH0 DUP3 PUSH2 0xDF3 JUMPI PUSH4 0x4E487B71 PUSH1 0xE0 SHL PUSH0 MSTORE PUSH1 0x12 PUSH1 0x4 MSTORE PUSH1 0x24 PUSH0 REVERT JUMPDEST POP DIV SWAP1 JUMP JUMPDEST PUSH0 PUSH1 0x20 DUP3 DUP5 SUB SLT ISZERO PUSH2 0xE08 JUMPI PUSH0 PUSH0 REVERT JUMPDEST DUP2 CALLDATALOAD PUSH1 0x1 PUSH1 0x1 PUSH1 0xA0 SHL SUB DUP2 AND DUP2 EQ PUSH2 0xE1E JUMPI PUSH0 PUSH0 REVERT JUMPDEST SWAP4 SWAP3 POP POP POP JUMP JUMPDEST PUSH0 PUSH1 0x20 DUP3 DUP5 SUB SLT ISZERO PUSH2 0xE35 JUMPI PUSH0 PUSH0 REVERT JUMPDEST POP CALLDATALOAD SWAP2 SWAP1 POP JUMP JUMPDEST DUP2 DUP2 SUB DUP2 DUP2 GT ISZERO PUSH2 0x46B JUMPI PUSH2 0x46B PUSH2 0xD9B JUMP INVALID SWAP12 PUSH24 0x9B17422D0DF92223018B32B4D1FA46E071723D6817E2486D STOP EXTCODESIZE 0xEC 0xC5 PUSH0 STOP LOG2 PUSH5 0x6970667358 0x22 SLT KECCAK256 0x4B 0xF8 PUSH16 0x25A878520C8F476466EFEE8C6E3E6AD3 0xDF 0xD8 0xB6 0x2A XOR SIGNEXTEND 0x2F CALLDATACOPY PUSH26 0x57C284B64736F6C634300081C00330000000000000000000000 "},"methodIdentifiers":{"PRECISION()":"aaf5eb68","accRewardPerShare()":"939d6237","accumulatedBnb()":"72d54394","activate(address)":"1c5a9d9c","active()":"02fb0c5e","claim()":"4e71d92d","earned(address)":"008cc262","emergencyWithdraw()":"db2e21bc","lpToken()":"5fcbd285","owner()":"8da5cb5b","pendingRewards()":"eded3fda","renounceOwnership()":"715018a6","stake(uint256)":"a694fc3a","totalDistributed()":"efca2eed","totalReceived()":"a3c2c462","totalStaked()":"817b1cd2","transferOwnership(address)":"f2fde38b","unstake(uint256)":"2e17de78","userInfo(address)":"1959a002"}}}}}