{"contracts/MarketingVault.sol":{"MarketingVault":{"abi":[{"inputs":[{"internalType":"address","name":"_signer","type":"address"},{"internalType":"address","name":"_owner","type":"address"}],"stateMutability":"nonpayable","type":"constructor"},{"inputs":[],"name":"ECDSAInvalidSignature","type":"error"},{"inputs":[{"internalType":"uint256","name":"length","type":"uint256"}],"name":"ECDSAInvalidSignatureLength","type":"error"},{"inputs":[{"internalType":"bytes32","name":"s","type":"bytes32"}],"name":"ECDSAInvalidSignatureS","type":"error"},{"inputs":[],"name":"InvalidShortString","type":"error"},{"inputs":[{"internalType":"address","name":"owner","type":"address"}],"name":"OwnableInvalidOwner","type":"error"},{"inputs":[{"internalType":"address","name":"account","type":"address"}],"name":"OwnableUnauthorizedAccount","type":"error"},{"inputs":[],"name":"ReentrancyGuardReentrantCall","type":"error"},{"inputs":[{"internalType":"string","name":"str","type":"string"}],"name":"StringTooLong","type":"error"},{"anonymous":false,"inputs":[{"indexed":true,"internalType":"address","name":"recipient","type":"address"},{"indexed":false,"internalType":"uint256","name":"amount","type":"uint256"},{"indexed":false,"internalType":"uint256","name":"nonce","type":"uint256"}],"name":"ApprovedPaymentClaimed","type":"event"},{"anonymous":false,"inputs":[{"indexed":true,"internalType":"address","name":"sender","type":"address"},{"indexed":false,"internalType":"uint256","name":"amount","type":"uint256"}],"name":"Deposited","type":"event"},{"anonymous":false,"inputs":[],"name":"EIP712DomainChanged","type":"event"},{"anonymous":false,"inputs":[{"indexed":true,"internalType":"address","name":"previousOwner","type":"address"},{"indexed":true,"internalType":"address","name":"newOwner","type":"address"}],"name":"OwnershipTransferred","type":"event"},{"anonymous":false,"inputs":[{"indexed":true,"internalType":"address","name":"oldSigner","type":"address"},{"indexed":true,"internalType":"address","name":"newSigner","type":"address"}],"name":"SignerUpdated","type":"event"},{"inputs":[],"name":"CLAIM_TYPEHASH","outputs":[{"internalType":"bytes32","name":"","type":"bytes32"}],"stateMutability":"view","type":"function"},{"inputs":[{"internalType":"uint256","name":"_amount","type":"uint256"},{"internalType":"uint256","name":"_nonce","type":"uint256"},{"internalType":"uint256","name":"_deadline","type":"uint256"},{"internalType":"bytes","name":"_sig","type":"bytes"}],"name":"claimApprovedPayment","outputs":[],"stateMutability":"nonpayable","type":"function"},{"inputs":[{"internalType":"address","name":"","type":"address"}],"name":"claimed","outputs":[{"internalType":"uint256","name":"","type":"uint256"}],"stateMutability":"view","type":"function"},{"inputs":[],"name":"eip712Domain","outputs":[{"internalType":"bytes1","name":"fields","type":"bytes1"},{"internalType":"string","name":"name","type":"string"},{"internalType":"string","name":"version","type":"string"},{"internalType":"uint256","name":"chainId","type":"uint256"},{"internalType":"address","name":"verifyingContract","type":"address"},{"internalType":"bytes32","name":"salt","type":"bytes32"},{"internalType":"uint256[]","name":"extensions","type":"uint256[]"}],"stateMutability":"view","type":"function"},{"inputs":[{"internalType":"address","name":"","type":"address"}],"name":"nonces","outputs":[{"internalType":"uint256","name":"","type":"uint256"}],"stateMutability":"view","type":"function"},{"inputs":[],"name":"owner","outputs":[{"internalType":"address","name":"","type":"address"}],"stateMutability":"view","type":"function"},{"inputs":[],"name":"renounceOwnership","outputs":[],"stateMutability":"nonpayable","type":"function"},{"inputs":[{"internalType":"address","name":"_signer","type":"address"}],"name":"setSigner","outputs":[],"stateMutability":"nonpayable","type":"function"},{"inputs":[],"name":"signer","outputs":[{"internalType":"address","name":"","type":"address"}],"stateMutability":"view","type":"function"},{"inputs":[],"name":"totalClaimed","outputs":[{"internalType":"uint256","name":"","type":"uint256"}],"stateMutability":"view","type":"function"},{"inputs":[{"internalType":"address","name":"newOwner","type":"address"}],"name":"transferOwnership","outputs":[],"stateMutability":"nonpayable","type":"function"},{"stateMutability":"payable","type":"receive"}],"evm":{"bytecode":{"linkReferences":{},"object":"6101608060405234610245576040816112b680380380916100208285610249565b8339810103126102455761003f602061003883610280565b9201610280565b6040519061004e604083610249565b600e8252602082016d13585c9ad95d1a5b99d5985d5b1d60921b815260405192610079604085610249565b60018452603160f81b60208501908152926001600160a01b03168015610232575f80546001600160a01b03198116831782556001600160a01b0316907f8be0079c531659141344cd1fd0a4f28419497f9722a3daafe3b4186f6b6457e09080a360017f9b779b17422d0df92223018b32b4d1fa46e071723d6817e2486d003becc55f005561010681610294565b610120526101138461042f565b61014052519020918260e05251902080610100524660a0526040519060208201927f8b73c3c69bb8fe3d512ecc4cf759cc79239f7b179b0ffacaa9a75d522b39400f8452604083015260608201524660808201523060a082015260a0815261017c60c082610249565b5190206080523060c0526001600160a01b031680156101fa57600380546001600160a01b031916919091179055604051610d4e9081610568823960805181610901015260a051816109be015260c051816108cb015260e0518161095001526101005181610976015261012051816101f20152610140518161021b0152f35b60405162461bcd60e51b815260206004820152601060248201526f26a5aa1d103d32b9379039b4b3b732b960811b6044820152606490fd5b631e4fbdf760e01b5f525f60045260245ffd5b5f80fd5b601f909101601f19168101906001600160401b0382119082101761026c57604052565b634e487b7160e01b5f52604160045260245ffd5b51906001600160a01b038216820361024557565b908151602081105f1461030e575090601f8151116102ce5760208151910151602082106102bf571790565b5f198260200360031b1b161790565b604460209160405192839163305a27a960e01b83528160048401528051918291826024860152018484015e5f828201840152601f01601f19168101030190fd5b6001600160401b03811161026c57600154600181811c91168015610425575b602082101461041157601f81116103de575b50602092601f821160011461037d57928192935f92610372575b50508160011b915f199060031b1c19161760015560ff90565b015190505f80610359565b601f1982169360015f52805f20915f5b8681106103c657508360019596106103ae575b505050811b0160015560ff90565b01515f1960f88460031b161c191690555f80806103a0565b9192602060018192868501518155019401920161038d565b60015f52601f60205f20910160051c810190601f830160051c015b818110610406575061033f565b5f81556001016103f9565b634e487b7160e01b5f52602260045260245ffd5b90607f169061032d565b908151602081105f1461045a575090601f8151116102ce5760208151910151602082106102bf571790565b6001600160401b03811161026c57600254600181811c9116801561055d575b602082101461041157601f811161052a575b50602092601f82116001146104c957928192935f926104be575b50508160011b915f199060031b1c19161760025560ff90565b015190505f806104a5565b601f1982169360025f52805f20915f5b86811061051257508360019596106104fa575b505050811b0160025560ff90565b01515f1960f88460031b161c191690555f80806104ec565b919260206001819286850151815501940192016104d9565b60025f52601f60205f20910160051c810190601f830160051c015b818110610552575061048b565b5f8155600101610545565b90607f169061047956fe6080806040526004361015610048575b50361561001a575f80fd5b6040513481527f2da466a7b24304f47e87fa2e1e5a81b9831ce54fec19055ce277ca2f39ba42c460203392a2005b5f3560e01c908163238ac933146107fc575080636b0509b1146107c25780636c19e78314610714578063715018a6146106bd57806376d9e4581461030e5780637ecebe00146102d257806384b0196e146101da5780638da5cb5b146101b3578063c884ef8314610177578063d54ad2a11461015a5763f2fde38b146100cd575f61000f565b34610156576020366003190112610156576004356001600160a01b03811690819003610156576100fb6108a2565b8015610143575f80546001600160a01b03198116831782556001600160a01b0316907f8be0079c531659141344cd1fd0a4f28419497f9722a3daafe3b4186f6b6457e09080a3005b631e4fbdf760e01b5f525f60045260245ffd5b5f80fd5b34610156575f366003190112610156576020600654604051908152f35b34610156576020366003190112610156576004356001600160a01b03811690819003610156575f526005602052602060405f2054604051908152f35b34610156575f366003190112610156575f546040516001600160a01b039091168152602090f35b34610156575f366003190112610156576102766102167f0000000000000000000000000000000000000000000000000000000000000000610a92565b61023f7f0000000000000000000000000000000000000000000000000000000000000000610bbb565b6020610284604051926102528385610843565b5f84525f368137604051958695600f60f81b875260e08588015260e087019061081f565b90858203604087015261081f565b4660608501523060808501525f60a085015283810360c08501528180845192838152019301915f5b8281106102bb57505050500390f35b8351855286955093810193928101926001016102ac565b34610156576020366003190112610156576004356001600160a01b03811690819003610156575f526004602052602060405f2054604051908152f35b346101565760803660031901126101565760043560243560643560443567ffffffffffffffff821161015657366023830112156101565781600401359167ffffffffffffffff83116101565736602484830101116101565760027f9b779b17422d0df92223018b32b4d1fa46e071723d6817e2486d003becc55f0054146106ae5760027f9b779b17422d0df92223018b32b4d1fa46e071723d6817e2486d003becc55f005581421161067a57335f52600460205260405f2054840361064057841561060857610488925f6020604261047f95604051838101917f1331222e9152ff6ce0ad52f94364f233f09e35fe90b5c6b3c0598311a087481b83523360408301528b60608301528a608083015260a082015260a0815261043060c082610843565b51902061043b6108c8565b906040519161190160f01b835260028301526022820152209280602461046082610879565b9661046e6040519889610843565b8288520183870137840101526109e4565b90929192610a1e565b6003546001600160a01b039081169116036105ca57335f52600460205260405f2080545f1981146105b6576001019055335f52600560205260405f206104cf838254610895565b90556104dd82600654610895565b6006555f80808085335af13d156105b1573d6104f881610879565b906105066040519283610843565b81525f60203d92013e5b1561056c5760405191825260208201527f2e3fc7f3f4be5ffc138a6a35bad9c7436668d4c3d2d78fba8405cdf737e481d260403392a260017f9b779b17422d0df92223018b32b4d1fa46e071723d6817e2486d003becc55f0055005b60405162461bcd60e51b815260206004820152601860248201527f4d4b543a20424e42207472616e73666572206661696c656400000000000000006044820152606490fd5b610510565b634e487b7160e01b5f52601160045260245ffd5b60405162461bcd60e51b81526020600482015260166024820152754d4b543a20696e76616c6964207369676e617475726560501b6044820152606490fd5b60405162461bcd60e51b815260206004820152601060248201526f1352d50e881e995c9bc8185b5bdd5b9d60821b6044820152606490fd5b60405162461bcd60e51b81526020600482015260126024820152714d4b543a20696e76616c6964206e6f6e636560701b6044820152606490fd5b60405162461bcd60e51b815260206004820152600c60248201526b1352d50e88195e1c1a5c995960a21b6044820152606490fd5b633ee5aeb560e01b5f5260045ffd5b34610156575f366003190112610156576106d56108a2565b5f80546001600160a01b0319811682556001600160a01b03167f8be0079c531659141344cd1fd0a4f28419497f9722a3daafe3b4186f6b6457e08280a3005b34610156576020366003190112610156576004356001600160a01b03811690819003610156576107426108a2565b801561078a57600354816001600160a01b0382167f2d025324f0a785e8c12d0a0d91a9caa49df4ef20ff87e0df7213a1d4f3157beb5f80a36001600160a01b03191617600355005b60405162461bcd60e51b815260206004820152601060248201526f26a5aa1d103d32b9379039b4b3b732b960811b6044820152606490fd5b34610156575f3660031901126101565760206040517f1331222e9152ff6ce0ad52f94364f233f09e35fe90b5c6b3c0598311a087481b8152f35b34610156575f366003190112610156576003546001600160a01b03168152602090f35b805180835260209291819084018484015e5f828201840152601f01601f1916010190565b90601f8019910116810190811067ffffffffffffffff82111761086557604052565b634e487b7160e01b5f52604160045260245ffd5b67ffffffffffffffff811161086557601f01601f191660200190565b919082018092116105b657565b5f546001600160a01b031633036108b557565b63118cdaa760e01b5f523360045260245ffd5b307f00000000000000000000000000000000000000000000000000000000000000006001600160a01b031614806109bb575b15610923577f000000000000000000000000000000000000000000000000000000000000000090565b60405160208101907f8b73c3c69bb8fe3d512ecc4cf759cc79239f7b179b0ffacaa9a75d522b39400f82527f000000000000000000000000000000000000000000000000000000000000000060408201527f000000000000000000000000000000000000000000000000000000000000000060608201524660808201523060a082015260a081526109b560c082610843565b51902090565b507f000000000000000000000000000000000000000000000000000000000000000046146108fa565b8151919060418303610a1457610a0d9250602082015190606060408401519301515f1a90610c8b565b9192909190565b50505f9160029190565b6004811015610a7e5780610a30575050565b60018103610a475763f645eedf60e01b5f5260045ffd5b60028103610a62575063fce698f760e01b5f5260045260245ffd5b600314610a6c5750565b6335e2f38360e21b5f5260045260245ffd5b634e487b7160e01b5f52602160045260245ffd5b60ff8114610ad85760ff811690601f8211610ac95760405191610ab6604084610843565b6020808452838101919036833783525290565b632cd44ac360e21b5f5260045ffd5b506040515f6001548060011c9160018216918215610bb1575b602084108314610b9d578385528492908115610b7e5750600114610b1f575b610b1c92500382610843565b90565b5060015f90815290917fb10e2d527612073b26eecdfd717e6a320cf44b4afac2b0732d9fcbe2b7fa0cf65b818310610b62575050906020610b1c92820101610b10565b6020919350806001915483858801015201910190918392610b4a565b60209250610b1c94915060ff191682840152151560051b820101610b10565b634e487b7160e01b5f52602260045260245ffd5b92607f1692610af1565b60ff8114610bdf5760ff811690601f8211610ac95760405191610ab6604084610843565b506040515f6002548060011c9160018216918215610c81575b602084108314610b9d578385528492908115610b7e5750600114610c2257610b1c92500382610843565b5060025f90815290917f405787fa12a823e0f2b7631cc41b3ba8828b3321ca811111fa75cd3aa3bb5ace5b818310610c65575050906020610b1c92820101610b10565b6020919350806001915483858801015201910190918392610c4d565b92607f1692610bf8565b91907f7fffffffffffffffffffffffffffffff5d576e7357a4501ddfe92f46681b20a08411610d0d579160209360809260ff5f9560405194855216868401526040830152606082015282805260015afa15610d02575f516001600160a01b03811615610cf857905f905f90565b505f906001905f90565b6040513d5f823e3d90fd5b5050505f916003919056fea26469706673582212203056aa6eaecae86add35c1467195955e57b18317ca4c499836be5c9c66a076d964736f6c634300081c0033","opcodes":"PUSH2 0x160 DUP1 PUSH1 0x40 MSTORE CALLVALUE PUSH2 0x245 JUMPI PUSH1 0x40 DUP2 PUSH2 0x12B6 DUP1 CODESIZE SUB DUP1 SWAP2 PUSH2 0x20 DUP3 DUP6 PUSH2 0x249 JUMP JUMPDEST DUP4 CODECOPY DUP2 ADD SUB SLT PUSH2 0x245 JUMPI PUSH2 0x3F PUSH1 0x20 PUSH2 0x38 DUP4 PUSH2 0x280 JUMP JUMPDEST SWAP3 ADD PUSH2 0x280 JUMP JUMPDEST PUSH1 0x40 MLOAD SWAP1 PUSH2 0x4E PUSH1 0x40 DUP4 PUSH2 0x249 JUMP JUMPDEST PUSH1 0xE DUP3 MSTORE PUSH1 0x20 DUP3 ADD PUSH14 0x13585C9AD95D1A5B99D5985D5B1D PUSH1 0x92 SHL DUP2 MSTORE PUSH1 0x40 MLOAD SWAP3 PUSH2 0x79 PUSH1 0x40 DUP6 PUSH2 0x249 JUMP JUMPDEST PUSH1 0x1 DUP5 MSTORE PUSH1 0x31 PUSH1 0xF8 SHL PUSH1 0x20 DUP6 ADD SWAP1 DUP2 MSTORE SWAP3 PUSH1 0x1 PUSH1 0x1 PUSH1 0xA0 SHL SUB AND DUP1 ISZERO PUSH2 0x232 JUMPI PUSH0 DUP1 SLOAD PUSH1 0x1 PUSH1 0x1 PUSH1 0xA0 SHL SUB NOT DUP2 AND DUP4 OR DUP3 SSTORE PUSH1 0x1 PUSH1 0x1 PUSH1 0xA0 SHL SUB AND SWAP1 PUSH32 0x8BE0079C531659141344CD1FD0A4F28419497F9722A3DAAFE3B4186F6B6457E0 SWAP1 DUP1 LOG3 PUSH1 0x1 PUSH32 0x9B779B17422D0DF92223018B32B4D1FA46E071723D6817E2486D003BECC55F00 SSTORE PUSH2 0x106 DUP2 PUSH2 0x294 JUMP JUMPDEST PUSH2 0x120 MSTORE PUSH2 0x113 DUP5 PUSH2 0x42F JUMP JUMPDEST PUSH2 0x140 MSTORE MLOAD SWAP1 KECCAK256 SWAP2 DUP3 PUSH1 0xE0 MSTORE MLOAD SWAP1 KECCAK256 DUP1 PUSH2 0x100 MSTORE CHAINID PUSH1 0xA0 MSTORE PUSH1 0x40 MLOAD SWAP1 PUSH1 0x20 DUP3 ADD SWAP3 PUSH32 0x8B73C3C69BB8FE3D512ECC4CF759CC79239F7B179B0FFACAA9A75D522B39400F DUP5 MSTORE PUSH1 0x40 DUP4 ADD MSTORE PUSH1 0x60 DUP3 ADD MSTORE CHAINID PUSH1 0x80 DUP3 ADD MSTORE ADDRESS PUSH1 0xA0 DUP3 ADD MSTORE PUSH1 0xA0 DUP2 MSTORE PUSH2 0x17C PUSH1 0xC0 DUP3 PUSH2 0x249 JUMP JUMPDEST MLOAD SWAP1 KECCAK256 PUSH1 0x80 MSTORE ADDRESS PUSH1 0xC0 MSTORE PUSH1 0x1 PUSH1 0x1 PUSH1 0xA0 SHL SUB AND DUP1 ISZERO PUSH2 0x1FA JUMPI PUSH1 0x3 DUP1 SLOAD PUSH1 0x1 PUSH1 0x1 PUSH1 0xA0 SHL SUB NOT AND SWAP2 SWAP1 SWAP2 OR SWAP1 SSTORE PUSH1 0x40 MLOAD PUSH2 0xD4E SWAP1 DUP2 PUSH2 0x568 DUP3 CODECOPY PUSH1 0x80 MLOAD DUP2 PUSH2 0x901 ADD MSTORE PUSH1 0xA0 MLOAD DUP2 PUSH2 0x9BE ADD MSTORE PUSH1 0xC0 MLOAD DUP2 PUSH2 0x8CB ADD MSTORE PUSH1 0xE0 MLOAD DUP2 PUSH2 0x950 ADD MSTORE PUSH2 0x100 MLOAD DUP2 PUSH2 0x976 ADD MSTORE PUSH2 0x120 MLOAD DUP2 PUSH2 0x1F2 ADD MSTORE PUSH2 0x140 MLOAD DUP2 PUSH2 0x21B ADD MSTORE RETURN JUMPDEST PUSH1 0x40 MLOAD PUSH3 0x461BCD PUSH1 0xE5 SHL DUP2 MSTORE PUSH1 0x20 PUSH1 0x4 DUP3 ADD MSTORE PUSH1 0x10 PUSH1 0x24 DUP3 ADD MSTORE PUSH16 0x26A5AA1D103D32B9379039B4B3B732B9 PUSH1 0x81 SHL PUSH1 0x44 DUP3 ADD MSTORE PUSH1 0x64 SWAP1 REVERT JUMPDEST PUSH4 0x1E4FBDF7 PUSH1 0xE0 SHL PUSH0 MSTORE PUSH0 PUSH1 0x4 MSTORE PUSH1 0x24 PUSH0 REVERT JUMPDEST PUSH0 DUP1 REVERT JUMPDEST PUSH1 0x1F SWAP1 SWAP2 ADD PUSH1 0x1F NOT AND DUP2 ADD SWAP1 PUSH1 0x1 PUSH1 0x1 PUSH1 0x40 SHL SUB DUP3 GT SWAP1 DUP3 LT OR PUSH2 0x26C JUMPI PUSH1 0x40 MSTORE JUMP JUMPDEST PUSH4 0x4E487B71 PUSH1 0xE0 SHL PUSH0 MSTORE PUSH1 0x41 PUSH1 0x4 MSTORE PUSH1 0x24 PUSH0 REVERT JUMPDEST MLOAD SWAP1 PUSH1 0x1 PUSH1 0x1 PUSH1 0xA0 SHL SUB DUP3 AND DUP3 SUB PUSH2 0x245 JUMPI JUMP JUMPDEST SWAP1 DUP2 MLOAD PUSH1 0x20 DUP2 LT PUSH0 EQ PUSH2 0x30E JUMPI POP SWAP1 PUSH1 0x1F DUP2 MLOAD GT PUSH2 0x2CE JUMPI PUSH1 0x20 DUP2 MLOAD SWAP2 ADD MLOAD PUSH1 0x20 DUP3 LT PUSH2 0x2BF JUMPI OR SWAP1 JUMP JUMPDEST PUSH0 NOT DUP3 PUSH1 0x20 SUB PUSH1 0x3 SHL SHL AND OR SWAP1 JUMP JUMPDEST PUSH1 0x44 PUSH1 0x20 SWAP2 PUSH1 0x40 MLOAD SWAP3 DUP4 SWAP2 PUSH4 0x305A27A9 PUSH1 0xE0 SHL DUP4 MSTORE DUP2 PUSH1 0x4 DUP5 ADD MSTORE DUP1 MLOAD SWAP2 DUP3 SWAP2 DUP3 PUSH1 0x24 DUP7 ADD MSTORE ADD DUP5 DUP5 ADD MCOPY PUSH0 DUP3 DUP3 ADD DUP5 ADD MSTORE PUSH1 0x1F ADD PUSH1 0x1F NOT AND DUP2 ADD SUB ADD SWAP1 REVERT JUMPDEST PUSH1 0x1 PUSH1 0x1 PUSH1 0x40 SHL SUB DUP2 GT PUSH2 0x26C JUMPI PUSH1 0x1 SLOAD PUSH1 0x1 DUP2 DUP2 SHR SWAP2 AND DUP1 ISZERO PUSH2 0x425 JUMPI JUMPDEST PUSH1 0x20 DUP3 LT EQ PUSH2 0x411 JUMPI PUSH1 0x1F DUP2 GT PUSH2 0x3DE JUMPI JUMPDEST POP PUSH1 0x20 SWAP3 PUSH1 0x1F DUP3 GT PUSH1 0x1 EQ PUSH2 0x37D JUMPI SWAP3 DUP2 SWAP3 SWAP4 PUSH0 SWAP3 PUSH2 0x372 JUMPI JUMPDEST POP POP DUP2 PUSH1 0x1 SHL SWAP2 PUSH0 NOT SWAP1 PUSH1 0x3 SHL SHR NOT AND OR PUSH1 0x1 SSTORE PUSH1 0xFF SWAP1 JUMP JUMPDEST ADD MLOAD SWAP1 POP PUSH0 DUP1 PUSH2 0x359 JUMP JUMPDEST PUSH1 0x1F NOT DUP3 AND SWAP4 PUSH1 0x1 PUSH0 MSTORE DUP1 PUSH0 KECCAK256 SWAP2 PUSH0 JUMPDEST DUP7 DUP2 LT PUSH2 0x3C6 JUMPI POP DUP4 PUSH1 0x1 SWAP6 SWAP7 LT PUSH2 0x3AE JUMPI JUMPDEST POP POP POP DUP2 SHL ADD PUSH1 0x1 SSTORE PUSH1 0xFF SWAP1 JUMP JUMPDEST ADD MLOAD PUSH0 NOT PUSH1 0xF8 DUP5 PUSH1 0x3 SHL AND SHR NOT AND SWAP1 SSTORE PUSH0 DUP1 DUP1 PUSH2 0x3A0 JUMP JUMPDEST SWAP2 SWAP3 PUSH1 0x20 PUSH1 0x1 DUP2 SWAP3 DUP7 DUP6 ADD MLOAD DUP2 SSTORE ADD SWAP5 ADD SWAP3 ADD PUSH2 0x38D JUMP JUMPDEST PUSH1 0x1 PUSH0 MSTORE PUSH1 0x1F PUSH1 0x20 PUSH0 KECCAK256 SWAP2 ADD PUSH1 0x5 SHR DUP2 ADD SWAP1 PUSH1 0x1F DUP4 ADD PUSH1 0x5 SHR ADD JUMPDEST DUP2 DUP2 LT PUSH2 0x406 JUMPI POP PUSH2 0x33F JUMP JUMPDEST PUSH0 DUP2 SSTORE PUSH1 0x1 ADD PUSH2 0x3F9 JUMP JUMPDEST PUSH4 0x4E487B71 PUSH1 0xE0 SHL PUSH0 MSTORE PUSH1 0x22 PUSH1 0x4 MSTORE PUSH1 0x24 PUSH0 REVERT JUMPDEST SWAP1 PUSH1 0x7F AND SWAP1 PUSH2 0x32D JUMP JUMPDEST SWAP1 DUP2 MLOAD PUSH1 0x20 DUP2 LT PUSH0 EQ PUSH2 0x45A JUMPI POP SWAP1 PUSH1 0x1F DUP2 MLOAD GT PUSH2 0x2CE JUMPI PUSH1 0x20 DUP2 MLOAD SWAP2 ADD MLOAD PUSH1 0x20 DUP3 LT PUSH2 0x2BF JUMPI OR SWAP1 JUMP JUMPDEST PUSH1 0x1 PUSH1 0x1 PUSH1 0x40 SHL SUB DUP2 GT PUSH2 0x26C JUMPI PUSH1 0x2 SLOAD PUSH1 0x1 DUP2 DUP2 SHR SWAP2 AND DUP1 ISZERO PUSH2 0x55D JUMPI JUMPDEST PUSH1 0x20 DUP3 LT EQ PUSH2 0x411 JUMPI PUSH1 0x1F DUP2 GT PUSH2 0x52A JUMPI JUMPDEST POP PUSH1 0x20 SWAP3 PUSH1 0x1F DUP3 GT PUSH1 0x1 EQ PUSH2 0x4C9 JUMPI SWAP3 DUP2 SWAP3 SWAP4 PUSH0 SWAP3 PUSH2 0x4BE JUMPI JUMPDEST POP POP DUP2 PUSH1 0x1 SHL SWAP2 PUSH0 NOT SWAP1 PUSH1 0x3 SHL SHR NOT AND OR PUSH1 0x2 SSTORE PUSH1 0xFF SWAP1 JUMP JUMPDEST ADD MLOAD SWAP1 POP PUSH0 DUP1 PUSH2 0x4A5 JUMP JUMPDEST PUSH1 0x1F NOT DUP3 AND SWAP4 PUSH1 0x2 PUSH0 MSTORE DUP1 PUSH0 KECCAK256 SWAP2 PUSH0 JUMPDEST DUP7 DUP2 LT PUSH2 0x512 JUMPI POP DUP4 PUSH1 0x1 SWAP6 SWAP7 LT PUSH2 0x4FA JUMPI JUMPDEST POP POP POP DUP2 SHL ADD PUSH1 0x2 SSTORE PUSH1 0xFF SWAP1 JUMP JUMPDEST ADD MLOAD PUSH0 NOT PUSH1 0xF8 DUP5 PUSH1 0x3 SHL AND SHR NOT AND SWAP1 SSTORE PUSH0 DUP1 DUP1 PUSH2 0x4EC JUMP JUMPDEST SWAP2 SWAP3 PUSH1 0x20 PUSH1 0x1 DUP2 SWAP3 DUP7 DUP6 ADD MLOAD DUP2 SSTORE ADD SWAP5 ADD SWAP3 ADD PUSH2 0x4D9 JUMP JUMPDEST PUSH1 0x2 PUSH0 MSTORE PUSH1 0x1F PUSH1 0x20 PUSH0 KECCAK256 SWAP2 ADD PUSH1 0x5 SHR DUP2 ADD SWAP1 PUSH1 0x1F DUP4 ADD PUSH1 0x5 SHR ADD JUMPDEST DUP2 DUP2 LT PUSH2 0x552 JUMPI POP PUSH2 0x48B JUMP JUMPDEST PUSH0 DUP2 SSTORE PUSH1 0x1 ADD PUSH2 0x545 JUMP JUMPDEST SWAP1 PUSH1 0x7F AND SWAP1 PUSH2 0x479 JUMP INVALID PUSH1 0x80 DUP1 PUSH1 0x40 MSTORE PUSH1 0x4 CALLDATASIZE LT ISZERO PUSH2 0x48 JUMPI JUMPDEST POP CALLDATASIZE ISZERO PUSH2 0x1A JUMPI PUSH0 DUP1 REVERT JUMPDEST PUSH1 0x40 MLOAD CALLVALUE DUP2 MSTORE PUSH32 0x2DA466A7B24304F47E87FA2E1E5A81B9831CE54FEC19055CE277CA2F39BA42C4 PUSH1 0x20 CALLER SWAP3 LOG2 STOP JUMPDEST PUSH0 CALLDATALOAD PUSH1 0xE0 SHR SWAP1 DUP2 PUSH4 0x238AC933 EQ PUSH2 0x7FC JUMPI POP DUP1 PUSH4 0x6B0509B1 EQ PUSH2 0x7C2 JUMPI DUP1 PUSH4 0x6C19E783 EQ PUSH2 0x714 JUMPI DUP1 PUSH4 0x715018A6 EQ PUSH2 0x6BD JUMPI DUP1 PUSH4 0x76D9E458 EQ PUSH2 0x30E JUMPI DUP1 PUSH4 0x7ECEBE00 EQ PUSH2 0x2D2 JUMPI DUP1 PUSH4 0x84B0196E EQ PUSH2 0x1DA JUMPI DUP1 PUSH4 0x8DA5CB5B EQ PUSH2 0x1B3 JUMPI DUP1 PUSH4 0xC884EF83 EQ PUSH2 0x177 JUMPI DUP1 PUSH4 0xD54AD2A1 EQ PUSH2 0x15A JUMPI PUSH4 0xF2FDE38B EQ PUSH2 0xCD JUMPI PUSH0 PUSH2 0xF JUMP JUMPDEST CALLVALUE PUSH2 0x156 JUMPI PUSH1 0x20 CALLDATASIZE PUSH1 0x3 NOT ADD SLT PUSH2 0x156 JUMPI PUSH1 0x4 CALLDATALOAD PUSH1 0x1 PUSH1 0x1 PUSH1 0xA0 SHL SUB DUP2 AND SWAP1 DUP2 SWAP1 SUB PUSH2 0x156 JUMPI PUSH2 0xFB PUSH2 0x8A2 JUMP JUMPDEST DUP1 ISZERO PUSH2 0x143 JUMPI PUSH0 DUP1 SLOAD PUSH1 0x1 PUSH1 0x1 PUSH1 0xA0 SHL SUB NOT DUP2 AND DUP4 OR DUP3 SSTORE PUSH1 0x1 PUSH1 0x1 PUSH1 0xA0 SHL SUB AND SWAP1 PUSH32 0x8BE0079C531659141344CD1FD0A4F28419497F9722A3DAAFE3B4186F6B6457E0 SWAP1 DUP1 LOG3 STOP JUMPDEST PUSH4 0x1E4FBDF7 PUSH1 0xE0 SHL PUSH0 MSTORE PUSH0 PUSH1 0x4 MSTORE PUSH1 0x24 PUSH0 REVERT JUMPDEST PUSH0 DUP1 REVERT JUMPDEST CALLVALUE PUSH2 0x156 JUMPI PUSH0 CALLDATASIZE PUSH1 0x3 NOT ADD SLT PUSH2 0x156 JUMPI PUSH1 0x20 PUSH1 0x6 SLOAD PUSH1 0x40 MLOAD SWAP1 DUP2 MSTORE RETURN JUMPDEST CALLVALUE PUSH2 0x156 JUMPI PUSH1 0x20 CALLDATASIZE PUSH1 0x3 NOT ADD SLT PUSH2 0x156 JUMPI PUSH1 0x4 CALLDATALOAD PUSH1 0x1 PUSH1 0x1 PUSH1 0xA0 SHL SUB DUP2 AND SWAP1 DUP2 SWAP1 SUB PUSH2 0x156 JUMPI PUSH0 MSTORE PUSH1 0x5 PUSH1 0x20 MSTORE PUSH1 0x20 PUSH1 0x40 PUSH0 KECCAK256 SLOAD PUSH1 0x40 MLOAD SWAP1 DUP2 MSTORE RETURN JUMPDEST CALLVALUE PUSH2 0x156 JUMPI PUSH0 CALLDATASIZE PUSH1 0x3 NOT ADD SLT PUSH2 0x156 JUMPI PUSH0 SLOAD PUSH1 0x40 MLOAD PUSH1 0x1 PUSH1 0x1 PUSH1 0xA0 SHL SUB SWAP1 SWAP2 AND DUP2 MSTORE PUSH1 0x20 SWAP1 RETURN JUMPDEST CALLVALUE PUSH2 0x156 JUMPI PUSH0 CALLDATASIZE PUSH1 0x3 NOT ADD SLT PUSH2 0x156 JUMPI PUSH2 0x276 PUSH2 0x216 PUSH32 0x0 PUSH2 0xA92 JUMP JUMPDEST PUSH2 0x23F PUSH32 0x0 PUSH2 0xBBB JUMP JUMPDEST PUSH1 0x20 PUSH2 0x284 PUSH1 0x40 MLOAD SWAP3 PUSH2 0x252 DUP4 DUP6 PUSH2 0x843 JUMP JUMPDEST PUSH0 DUP5 MSTORE PUSH0 CALLDATASIZE DUP2 CALLDATACOPY PUSH1 0x40 MLOAD SWAP6 DUP7 SWAP6 PUSH1 0xF PUSH1 0xF8 SHL DUP8 MSTORE PUSH1 0xE0 DUP6 DUP9 ADD MSTORE PUSH1 0xE0 DUP8 ADD SWAP1 PUSH2 0x81F JUMP JUMPDEST SWAP1 DUP6 DUP3 SUB PUSH1 0x40 DUP8 ADD MSTORE PUSH2 0x81F JUMP JUMPDEST CHAINID PUSH1 0x60 DUP6 ADD MSTORE ADDRESS PUSH1 0x80 DUP6 ADD MSTORE PUSH0 PUSH1 0xA0 DUP6 ADD MSTORE DUP4 DUP2 SUB PUSH1 0xC0 DUP6 ADD MSTORE DUP2 DUP1 DUP5 MLOAD SWAP3 DUP4 DUP2 MSTORE ADD SWAP4 ADD SWAP2 PUSH0 JUMPDEST DUP3 DUP2 LT PUSH2 0x2BB JUMPI POP POP POP POP SUB SWAP1 RETURN JUMPDEST DUP4 MLOAD DUP6 MSTORE DUP7 SWAP6 POP SWAP4 DUP2 ADD SWAP4 SWAP3 DUP2 ADD SWAP3 PUSH1 0x1 ADD PUSH2 0x2AC JUMP JUMPDEST CALLVALUE PUSH2 0x156 JUMPI PUSH1 0x20 CALLDATASIZE PUSH1 0x3 NOT ADD SLT PUSH2 0x156 JUMPI PUSH1 0x4 CALLDATALOAD PUSH1 0x1 PUSH1 0x1 PUSH1 0xA0 SHL SUB DUP2 AND SWAP1 DUP2 SWAP1 SUB PUSH2 0x156 JUMPI PUSH0 MSTORE PUSH1 0x4 PUSH1 0x20 MSTORE PUSH1 0x20 PUSH1 0x40 PUSH0 KECCAK256 SLOAD PUSH1 0x40 MLOAD SWAP1 DUP2 MSTORE RETURN JUMPDEST CALLVALUE PUSH2 0x156 JUMPI PUSH1 0x80 CALLDATASIZE PUSH1 0x3 NOT ADD SLT PUSH2 0x156 JUMPI PUSH1 0x4 CALLDATALOAD PUSH1 0x24 CALLDATALOAD PUSH1 0x64 CALLDATALOAD PUSH1 0x44 CALLDATALOAD PUSH8 0xFFFFFFFFFFFFFFFF DUP3 GT PUSH2 0x156 JUMPI CALLDATASIZE PUSH1 0x23 DUP4 ADD SLT ISZERO PUSH2 0x156 JUMPI DUP2 PUSH1 0x4 ADD CALLDATALOAD SWAP2 PUSH8 0xFFFFFFFFFFFFFFFF DUP4 GT PUSH2 0x156 JUMPI CALLDATASIZE PUSH1 0x24 DUP5 DUP4 ADD ADD GT PUSH2 0x156 JUMPI PUSH1 0x2 PUSH32 0x9B779B17422D0DF92223018B32B4D1FA46E071723D6817E2486D003BECC55F00 SLOAD EQ PUSH2 0x6AE JUMPI PUSH1 0x2 PUSH32 0x9B779B17422D0DF92223018B32B4D1FA46E071723D6817E2486D003BECC55F00 SSTORE DUP2 TIMESTAMP GT PUSH2 0x67A JUMPI CALLER PUSH0 MSTORE PUSH1 0x4 PUSH1 0x20 MSTORE PUSH1 0x40 PUSH0 KECCAK256 SLOAD DUP5 SUB PUSH2 0x640 JUMPI DUP5 ISZERO PUSH2 0x608 JUMPI PUSH2 0x488 SWAP3 PUSH0 PUSH1 0x20 PUSH1 0x42 PUSH2 0x47F SWAP6 PUSH1 0x40 MLOAD DUP4 DUP2 ADD SWAP2 PUSH32 0x1331222E9152FF6CE0AD52F94364F233F09E35FE90B5C6B3C0598311A087481B DUP4 MSTORE CALLER PUSH1 0x40 DUP4 ADD MSTORE DUP12 PUSH1 0x60 DUP4 ADD MSTORE DUP11 PUSH1 0x80 DUP4 ADD MSTORE PUSH1 0xA0 DUP3 ADD MSTORE PUSH1 0xA0 DUP2 MSTORE PUSH2 0x430 PUSH1 0xC0 DUP3 PUSH2 0x843 JUMP JUMPDEST MLOAD SWAP1 KECCAK256 PUSH2 0x43B PUSH2 0x8C8 JUMP JUMPDEST SWAP1 PUSH1 0x40 MLOAD SWAP2 PUSH2 0x1901 PUSH1 0xF0 SHL DUP4 MSTORE PUSH1 0x2 DUP4 ADD MSTORE PUSH1 0x22 DUP3 ADD MSTORE KECCAK256 SWAP3 DUP1 PUSH1 0x24 PUSH2 0x460 DUP3 PUSH2 0x879 JUMP JUMPDEST SWAP7 PUSH2 0x46E PUSH1 0x40 MLOAD SWAP9 DUP10 PUSH2 0x843 JUMP JUMPDEST DUP3 DUP9 MSTORE ADD DUP4 DUP8 ADD CALLDATACOPY DUP5 ADD ADD MSTORE PUSH2 0x9E4 JUMP JUMPDEST SWAP1 SWAP3 SWAP2 SWAP3 PUSH2 0xA1E JUMP JUMPDEST PUSH1 0x3 SLOAD PUSH1 0x1 PUSH1 0x1 PUSH1 0xA0 SHL SUB SWAP1 DUP2 AND SWAP2 AND SUB PUSH2 0x5CA JUMPI CALLER PUSH0 MSTORE PUSH1 0x4 PUSH1 0x20 MSTORE PUSH1 0x40 PUSH0 KECCAK256 DUP1 SLOAD PUSH0 NOT DUP2 EQ PUSH2 0x5B6 JUMPI PUSH1 0x1 ADD SWAP1 SSTORE CALLER PUSH0 MSTORE PUSH1 0x5 PUSH1 0x20 MSTORE PUSH1 0x40 PUSH0 KECCAK256 PUSH2 0x4CF DUP4 DUP3 SLOAD PUSH2 0x895 JUMP JUMPDEST SWAP1 SSTORE PUSH2 0x4DD DUP3 PUSH1 0x6 SLOAD PUSH2 0x895 JUMP JUMPDEST PUSH1 0x6 SSTORE PUSH0 DUP1 DUP1 DUP1 DUP6 CALLER GAS CALL RETURNDATASIZE ISZERO PUSH2 0x5B1 JUMPI RETURNDATASIZE PUSH2 0x4F8 DUP2 PUSH2 0x879 JUMP JUMPDEST SWAP1 PUSH2 0x506 PUSH1 0x40 MLOAD SWAP3 DUP4 PUSH2 0x843 JUMP JUMPDEST DUP2 MSTORE PUSH0 PUSH1 0x20 RETURNDATASIZE SWAP3 ADD RETURNDATACOPY JUMPDEST ISZERO PUSH2 0x56C JUMPI PUSH1 0x40 MLOAD SWAP2 DUP3 MSTORE PUSH1 0x20 DUP3 ADD MSTORE PUSH32 0x2E3FC7F3F4BE5FFC138A6A35BAD9C7436668D4C3D2D78FBA8405CDF737E481D2 PUSH1 0x40 CALLER SWAP3 LOG2 PUSH1 0x1 PUSH32 0x9B779B17422D0DF92223018B32B4D1FA46E071723D6817E2486D003BECC55F00 SSTORE STOP JUMPDEST PUSH1 0x40 MLOAD PUSH3 0x461BCD PUSH1 0xE5 SHL DUP2 MSTORE PUSH1 0x20 PUSH1 0x4 DUP3 ADD MSTORE PUSH1 0x18 PUSH1 0x24 DUP3 ADD MSTORE PUSH32 0x4D4B543A20424E42207472616E73666572206661696C65640000000000000000 PUSH1 0x44 DUP3 ADD MSTORE PUSH1 0x64 SWAP1 REVERT JUMPDEST PUSH2 0x510 JUMP JUMPDEST PUSH4 0x4E487B71 PUSH1 0xE0 SHL PUSH0 MSTORE PUSH1 0x11 PUSH1 0x4 MSTORE PUSH1 0x24 PUSH0 REVERT JUMPDEST PUSH1 0x40 MLOAD PUSH3 0x461BCD PUSH1 0xE5 SHL DUP2 MSTORE PUSH1 0x20 PUSH1 0x4 DUP3 ADD MSTORE PUSH1 0x16 PUSH1 0x24 DUP3 ADD MSTORE PUSH22 0x4D4B543A20696E76616C6964207369676E6174757265 PUSH1 0x50 SHL PUSH1 0x44 DUP3 ADD MSTORE PUSH1 0x64 SWAP1 REVERT JUMPDEST PUSH1 0x40 MLOAD PUSH3 0x461BCD PUSH1 0xE5 SHL DUP2 MSTORE PUSH1 0x20 PUSH1 0x4 DUP3 ADD MSTORE PUSH1 0x10 PUSH1 0x24 DUP3 ADD MSTORE PUSH16 0x1352D50E881E995C9BC8185B5BDD5B9D PUSH1 0x82 SHL PUSH1 0x44 DUP3 ADD MSTORE PUSH1 0x64 SWAP1 REVERT JUMPDEST PUSH1 0x40 MLOAD PUSH3 0x461BCD PUSH1 0xE5 SHL DUP2 MSTORE PUSH1 0x20 PUSH1 0x4 DUP3 ADD MSTORE PUSH1 0x12 PUSH1 0x24 DUP3 ADD MSTORE PUSH18 0x4D4B543A20696E76616C6964206E6F6E6365 PUSH1 0x70 SHL PUSH1 0x44 DUP3 ADD MSTORE PUSH1 0x64 SWAP1 REVERT JUMPDEST PUSH1 0x40 MLOAD PUSH3 0x461BCD PUSH1 0xE5 SHL DUP2 MSTORE PUSH1 0x20 PUSH1 0x4 DUP3 ADD MSTORE PUSH1 0xC PUSH1 0x24 DUP3 ADD MSTORE PUSH12 0x1352D50E88195E1C1A5C9959 PUSH1 0xA2 SHL PUSH1 0x44 DUP3 ADD MSTORE PUSH1 0x64 SWAP1 REVERT JUMPDEST PUSH4 0x3EE5AEB5 PUSH1 0xE0 SHL PUSH0 MSTORE PUSH1 0x4 PUSH0 REVERT JUMPDEST CALLVALUE PUSH2 0x156 JUMPI PUSH0 CALLDATASIZE PUSH1 0x3 NOT ADD SLT PUSH2 0x156 JUMPI PUSH2 0x6D5 PUSH2 0x8A2 JUMP JUMPDEST PUSH0 DUP1 SLOAD PUSH1 0x1 PUSH1 0x1 PUSH1 0xA0 SHL SUB NOT DUP2 AND DUP3 SSTORE PUSH1 0x1 PUSH1 0x1 PUSH1 0xA0 SHL SUB AND PUSH32 0x8BE0079C531659141344CD1FD0A4F28419497F9722A3DAAFE3B4186F6B6457E0 DUP3 DUP1 LOG3 STOP JUMPDEST CALLVALUE PUSH2 0x156 JUMPI PUSH1 0x20 CALLDATASIZE PUSH1 0x3 NOT ADD SLT PUSH2 0x156 JUMPI PUSH1 0x4 CALLDATALOAD PUSH1 0x1 PUSH1 0x1 PUSH1 0xA0 SHL SUB DUP2 AND SWAP1 DUP2 SWAP1 SUB PUSH2 0x156 JUMPI PUSH2 0x742 PUSH2 0x8A2 JUMP JUMPDEST DUP1 ISZERO PUSH2 0x78A JUMPI PUSH1 0x3 SLOAD DUP2 PUSH1 0x1 PUSH1 0x1 PUSH1 0xA0 SHL SUB DUP3 AND PUSH32 0x2D025324F0A785E8C12D0A0D91A9CAA49DF4EF20FF87E0DF7213A1D4F3157BEB PUSH0 DUP1 LOG3 PUSH1 0x1 PUSH1 0x1 PUSH1 0xA0 SHL SUB NOT AND OR PUSH1 0x3 SSTORE STOP JUMPDEST PUSH1 0x40 MLOAD PUSH3 0x461BCD PUSH1 0xE5 SHL DUP2 MSTORE PUSH1 0x20 PUSH1 0x4 DUP3 ADD MSTORE PUSH1 0x10 PUSH1 0x24 DUP3 ADD MSTORE PUSH16 0x26A5AA1D103D32B9379039B4B3B732B9 PUSH1 0x81 SHL PUSH1 0x44 DUP3 ADD MSTORE PUSH1 0x64 SWAP1 REVERT JUMPDEST CALLVALUE PUSH2 0x156 JUMPI PUSH0 CALLDATASIZE PUSH1 0x3 NOT ADD SLT PUSH2 0x156 JUMPI PUSH1 0x20 PUSH1 0x40 MLOAD PUSH32 0x1331222E9152FF6CE0AD52F94364F233F09E35FE90B5C6B3C0598311A087481B DUP2 MSTORE RETURN JUMPDEST CALLVALUE PUSH2 0x156 JUMPI PUSH0 CALLDATASIZE PUSH1 0x3 NOT ADD SLT PUSH2 0x156 JUMPI PUSH1 0x3 SLOAD PUSH1 0x1 PUSH1 0x1 PUSH1 0xA0 SHL SUB AND DUP2 MSTORE PUSH1 0x20 SWAP1 RETURN JUMPDEST DUP1 MLOAD DUP1 DUP4 MSTORE PUSH1 0x20 SWAP3 SWAP2 DUP2 SWAP1 DUP5 ADD DUP5 DUP5 ADD MCOPY PUSH0 DUP3 DUP3 ADD DUP5 ADD MSTORE PUSH1 0x1F ADD PUSH1 0x1F NOT AND ADD ADD SWAP1 JUMP JUMPDEST SWAP1 PUSH1 0x1F DUP1 NOT SWAP2 ADD AND DUP2 ADD SWAP1 DUP2 LT PUSH8 0xFFFFFFFFFFFFFFFF DUP3 GT OR PUSH2 0x865 JUMPI PUSH1 0x40 MSTORE JUMP JUMPDEST PUSH4 0x4E487B71 PUSH1 0xE0 SHL PUSH0 MSTORE PUSH1 0x41 PUSH1 0x4 MSTORE PUSH1 0x24 PUSH0 REVERT JUMPDEST PUSH8 0xFFFFFFFFFFFFFFFF DUP2 GT PUSH2 0x865 JUMPI PUSH1 0x1F ADD PUSH1 0x1F NOT AND PUSH1 0x20 ADD SWAP1 JUMP JUMPDEST SWAP2 SWAP1 DUP3 ADD DUP1 SWAP3 GT PUSH2 0x5B6 JUMPI JUMP JUMPDEST PUSH0 SLOAD PUSH1 0x1 PUSH1 0x1 PUSH1 0xA0 SHL SUB AND CALLER SUB PUSH2 0x8B5 JUMPI JUMP JUMPDEST PUSH4 0x118CDAA7 PUSH1 0xE0 SHL PUSH0 MSTORE CALLER PUSH1 0x4 MSTORE PUSH1 0x24 PUSH0 REVERT JUMPDEST ADDRESS PUSH32 0x0 PUSH1 0x1 PUSH1 0x1 PUSH1 0xA0 SHL SUB AND EQ DUP1 PUSH2 0x9BB JUMPI JUMPDEST ISZERO PUSH2 0x923 JUMPI PUSH32 0x0 SWAP1 JUMP JUMPDEST PUSH1 0x40 MLOAD PUSH1 0x20 DUP2 ADD SWAP1 PUSH32 0x8B73C3C69BB8FE3D512ECC4CF759CC79239F7B179B0FFACAA9A75D522B39400F DUP3 MSTORE PUSH32 0x0 PUSH1 0x40 DUP3 ADD MSTORE PUSH32 0x0 PUSH1 0x60 DUP3 ADD MSTORE CHAINID PUSH1 0x80 DUP3 ADD MSTORE ADDRESS PUSH1 0xA0 DUP3 ADD MSTORE PUSH1 0xA0 DUP2 MSTORE PUSH2 0x9B5 PUSH1 0xC0 DUP3 PUSH2 0x843 JUMP JUMPDEST MLOAD SWAP1 KECCAK256 SWAP1 JUMP JUMPDEST POP PUSH32 0x0 CHAINID EQ PUSH2 0x8FA JUMP JUMPDEST DUP2 MLOAD SWAP2 SWAP1 PUSH1 0x41 DUP4 SUB PUSH2 0xA14 JUMPI PUSH2 0xA0D SWAP3 POP PUSH1 0x20 DUP3 ADD MLOAD SWAP1 PUSH1 0x60 PUSH1 0x40 DUP5 ADD MLOAD SWAP4 ADD MLOAD PUSH0 BYTE SWAP1 PUSH2 0xC8B JUMP JUMPDEST SWAP2 SWAP3 SWAP1 SWAP2 SWAP1 JUMP JUMPDEST POP POP PUSH0 SWAP2 PUSH1 0x2 SWAP2 SWAP1 JUMP JUMPDEST PUSH1 0x4 DUP2 LT ISZERO PUSH2 0xA7E JUMPI DUP1 PUSH2 0xA30 JUMPI POP POP JUMP JUMPDEST PUSH1 0x1 DUP2 SUB PUSH2 0xA47 JUMPI PUSH4 0xF645EEDF PUSH1 0xE0 SHL PUSH0 MSTORE PUSH1 0x4 PUSH0 REVERT JUMPDEST PUSH1 0x2 DUP2 SUB PUSH2 0xA62 JUMPI POP PUSH4 0xFCE698F7 PUSH1 0xE0 SHL PUSH0 MSTORE PUSH1 0x4 MSTORE PUSH1 0x24 PUSH0 REVERT JUMPDEST PUSH1 0x3 EQ PUSH2 0xA6C JUMPI POP JUMP JUMPDEST PUSH4 0x35E2F383 PUSH1 0xE2 SHL PUSH0 MSTORE PUSH1 0x4 MSTORE PUSH1 0x24 PUSH0 REVERT JUMPDEST PUSH4 0x4E487B71 PUSH1 0xE0 SHL PUSH0 MSTORE PUSH1 0x21 PUSH1 0x4 MSTORE PUSH1 0x24 PUSH0 REVERT JUMPDEST PUSH1 0xFF DUP2 EQ PUSH2 0xAD8 JUMPI PUSH1 0xFF DUP2 AND SWAP1 PUSH1 0x1F DUP3 GT PUSH2 0xAC9 JUMPI PUSH1 0x40 MLOAD SWAP2 PUSH2 0xAB6 PUSH1 0x40 DUP5 PUSH2 0x843 JUMP JUMPDEST PUSH1 0x20 DUP1 DUP5 MSTORE DUP4 DUP2 ADD SWAP2 SWAP1 CALLDATASIZE DUP4 CALLDATACOPY DUP4 MSTORE MSTORE SWAP1 JUMP JUMPDEST PUSH4 0x2CD44AC3 PUSH1 0xE2 SHL PUSH0 MSTORE PUSH1 0x4 PUSH0 REVERT JUMPDEST POP PUSH1 0x40 MLOAD PUSH0 PUSH1 0x1 SLOAD DUP1 PUSH1 0x1 SHR SWAP2 PUSH1 0x1 DUP3 AND SWAP2 DUP3 ISZERO PUSH2 0xBB1 JUMPI JUMPDEST PUSH1 0x20 DUP5 LT DUP4 EQ PUSH2 0xB9D JUMPI DUP4 DUP6 MSTORE DUP5 SWAP3 SWAP1 DUP2 ISZERO PUSH2 0xB7E JUMPI POP PUSH1 0x1 EQ PUSH2 0xB1F JUMPI JUMPDEST PUSH2 0xB1C SWAP3 POP SUB DUP3 PUSH2 0x843 JUMP JUMPDEST SWAP1 JUMP JUMPDEST POP PUSH1 0x1 PUSH0 SWAP1 DUP2 MSTORE SWAP1 SWAP2 PUSH32 0xB10E2D527612073B26EECDFD717E6A320CF44B4AFAC2B0732D9FCBE2B7FA0CF6 JUMPDEST DUP2 DUP4 LT PUSH2 0xB62 JUMPI POP POP SWAP1 PUSH1 0x20 PUSH2 0xB1C SWAP3 DUP3 ADD ADD PUSH2 0xB10 JUMP JUMPDEST PUSH1 0x20 SWAP2 SWAP4 POP DUP1 PUSH1 0x1 SWAP2 SLOAD DUP4 DUP6 DUP9 ADD ADD MSTORE ADD SWAP2 ADD SWAP1 SWAP2 DUP4 SWAP3 PUSH2 0xB4A JUMP JUMPDEST PUSH1 0x20 SWAP3 POP PUSH2 0xB1C SWAP5 SWAP2 POP PUSH1 0xFF NOT AND DUP3 DUP5 ADD MSTORE ISZERO ISZERO PUSH1 0x5 SHL DUP3 ADD ADD PUSH2 0xB10 JUMP JUMPDEST PUSH4 0x4E487B71 PUSH1 0xE0 SHL PUSH0 MSTORE PUSH1 0x22 PUSH1 0x4 MSTORE PUSH1 0x24 PUSH0 REVERT JUMPDEST SWAP3 PUSH1 0x7F AND SWAP3 PUSH2 0xAF1 JUMP JUMPDEST PUSH1 0xFF DUP2 EQ PUSH2 0xBDF JUMPI PUSH1 0xFF DUP2 AND SWAP1 PUSH1 0x1F DUP3 GT PUSH2 0xAC9 JUMPI PUSH1 0x40 MLOAD SWAP2 PUSH2 0xAB6 PUSH1 0x40 DUP5 PUSH2 0x843 JUMP JUMPDEST POP PUSH1 0x40 MLOAD PUSH0 PUSH1 0x2 SLOAD DUP1 PUSH1 0x1 SHR SWAP2 PUSH1 0x1 DUP3 AND SWAP2 DUP3 ISZERO PUSH2 0xC81 JUMPI JUMPDEST PUSH1 0x20 DUP5 LT DUP4 EQ PUSH2 0xB9D JUMPI DUP4 DUP6 MSTORE DUP5 SWAP3 SWAP1 DUP2 ISZERO PUSH2 0xB7E JUMPI POP PUSH1 0x1 EQ PUSH2 0xC22 JUMPI PUSH2 0xB1C SWAP3 POP SUB DUP3 PUSH2 0x843 JUMP JUMPDEST POP PUSH1 0x2 PUSH0 SWAP1 DUP2 MSTORE SWAP1 SWAP2 PUSH32 0x405787FA12A823E0F2B7631CC41B3BA8828B3321CA811111FA75CD3AA3BB5ACE JUMPDEST DUP2 DUP4 LT PUSH2 0xC65 JUMPI POP POP SWAP1 PUSH1 0x20 PUSH2 0xB1C SWAP3 DUP3 ADD ADD PUSH2 0xB10 JUMP JUMPDEST PUSH1 0x20 SWAP2 SWAP4 POP DUP1 PUSH1 0x1 SWAP2 SLOAD DUP4 DUP6 DUP9 ADD ADD MSTORE ADD SWAP2 ADD SWAP1 SWAP2 DUP4 SWAP3 PUSH2 0xC4D JUMP JUMPDEST SWAP3 PUSH1 0x7F AND SWAP3 PUSH2 0xBF8 JUMP JUMPDEST SWAP2 SWAP1 PUSH32 0x7FFFFFFFFFFFFFFFFFFFFFFFFFFFFFFF5D576E7357A4501DDFE92F46681B20A0 DUP5 GT PUSH2 0xD0D JUMPI SWAP2 PUSH1 0x20 SWAP4 PUSH1 0x80 SWAP3 PUSH1 0xFF PUSH0 SWAP6 PUSH1 0x40 MLOAD SWAP5 DUP6 MSTORE AND DUP7 DUP5 ADD MSTORE PUSH1 0x40 DUP4 ADD MSTORE PUSH1 0x60 DUP3 ADD MSTORE DUP3 DUP1 MSTORE PUSH1 0x1 GAS STATICCALL ISZERO PUSH2 0xD02 JUMPI PUSH0 MLOAD PUSH1 0x1 PUSH1 0x1 PUSH1 0xA0 SHL SUB DUP2 AND ISZERO PUSH2 0xCF8 JUMPI SWAP1 PUSH0 SWAP1 PUSH0 SWAP1 JUMP JUMPDEST POP PUSH0 SWAP1 PUSH1 0x1 SWAP1 PUSH0 SWAP1 JUMP JUMPDEST PUSH1 0x40 MLOAD RETURNDATASIZE PUSH0 DUP3 RETURNDATACOPY RETURNDATASIZE SWAP1 REVERT JUMPDEST POP POP POP PUSH0 SWAP2 PUSH1 0x3 SWAP2 SWAP1 JUMP INVALID LOG2 PUSH5 0x6970667358 0x22 SLT KECCAK256 ADDRESS JUMP 0xAA PUSH15 0xAECAE86ADD35C1467195955E57B183 OR 0xCA 0x4C BLOBHASH SWAP9 CALLDATASIZE 0xBE TLOAD SWAP13 PUSH7 0xA076D964736F6C PUSH4 0x4300081C STOP CALLER "},"methodIdentifiers":{"CLAIM_TYPEHASH()":"6b0509b1","claimApprovedPayment(uint256,uint256,uint256,bytes)":"76d9e458","claimed(address)":"c884ef83","eip712Domain()":"84b0196e","nonces(address)":"7ecebe00","owner()":"8da5cb5b","renounceOwnership()":"715018a6","setSigner(address)":"6c19e783","signer()":"238ac933","totalClaimed()":"d54ad2a1","transferOwnership(address)":"f2fde38b"}}}}}