{"contracts/MasterVault.sol":{"MasterVault":{"abi":[{"inputs":[{"internalType":"address","name":"_lpRewardVault","type":"address"},{"internalType":"address","name":"_referralVault","type":"address"},{"internalType":"address","name":"_marketingVault","type":"address"},{"internalType":"address","name":"_owner","type":"address"}],"stateMutability":"nonpayable","type":"constructor"},{"inputs":[{"internalType":"address","name":"owner","type":"address"}],"name":"OwnableInvalidOwner","type":"error"},{"inputs":[{"internalType":"address","name":"account","type":"address"}],"name":"OwnableUnauthorizedAccount","type":"error"},{"inputs":[],"name":"ReentrancyGuardReentrantCall","type":"error"},{"anonymous":false,"inputs":[{"indexed":false,"internalType":"uint256","name":"lpBps","type":"uint256"},{"indexed":false,"internalType":"uint256","name":"referralBps","type":"uint256"},{"indexed":false,"internalType":"uint256","name":"marketingBps","type":"uint256"}],"name":"AllocationUpdated","type":"event"},{"anonymous":false,"inputs":[{"indexed":false,"internalType":"uint256","name":"toLp","type":"uint256"},{"indexed":false,"internalType":"uint256","name":"toReferral","type":"uint256"},{"indexed":false,"internalType":"uint256","name":"toMarketing","type":"uint256"},{"indexed":false,"internalType":"uint256","name":"timestamp","type":"uint256"}],"name":"Distributed","type":"event"},{"anonymous":false,"inputs":[{"indexed":true,"internalType":"address","name":"previousOwner","type":"address"},{"indexed":true,"internalType":"address","name":"newOwner","type":"address"}],"name":"OwnershipTransferred","type":"event"},{"anonymous":false,"inputs":[{"indexed":true,"internalType":"address","name":"sender","type":"address"},{"indexed":false,"internalType":"uint256","name":"amount","type":"uint256"}],"name":"Received","type":"event"},{"anonymous":false,"inputs":[{"indexed":false,"internalType":"address","name":"lpRewardVault","type":"address"},{"indexed":false,"internalType":"address","name":"referralVault","type":"address"},{"indexed":false,"internalType":"address","name":"marketingVault","type":"address"}],"name":"RecipientsUpdated","type":"event"},{"stateMutability":"payable","type":"fallback"},{"inputs":[],"name":"TOTAL_BPS","outputs":[{"internalType":"uint256","name":"","type":"uint256"}],"stateMutability":"view","type":"function"},{"inputs":[],"name":"distribute","outputs":[],"stateMutability":"nonpayable","type":"function"},{"inputs":[],"name":"lpBps","outputs":[{"internalType":"uint256","name":"","type":"uint256"}],"stateMutability":"view","type":"function"},{"inputs":[],"name":"lpRewardVault","outputs":[{"internalType":"address","name":"","type":"address"}],"stateMutability":"view","type":"function"},{"inputs":[],"name":"marketingBps","outputs":[{"internalType":"uint256","name":"","type":"uint256"}],"stateMutability":"view","type":"function"},{"inputs":[],"name":"marketingVault","outputs":[{"internalType":"address","name":"","type":"address"}],"stateMutability":"view","type":"function"},{"inputs":[],"name":"owner","outputs":[{"internalType":"address","name":"","type":"address"}],"stateMutability":"view","type":"function"},{"inputs":[],"name":"referralBps","outputs":[{"internalType":"uint256","name":"","type":"uint256"}],"stateMutability":"view","type":"function"},{"inputs":[],"name":"referralVault","outputs":[{"internalType":"address","name":"","type":"address"}],"stateMutability":"view","type":"function"},{"inputs":[],"name":"renounceOwnership","outputs":[],"stateMutability":"nonpayable","type":"function"},{"inputs":[{"internalType":"uint256","name":"_lpBps","type":"uint256"},{"internalType":"uint256","name":"_referralBps","type":"uint256"},{"internalType":"uint256","name":"_marketingBps","type":"uint256"}],"name":"setAllocation","outputs":[],"stateMutability":"nonpayable","type":"function"},{"inputs":[{"internalType":"address","name":"_lpRewardVault","type":"address"},{"internalType":"address","name":"_referralVault","type":"address"},{"internalType":"address","name":"_marketingVault","type":"address"}],"name":"setRecipients","outputs":[],"stateMutability":"nonpayable","type":"function"},{"inputs":[],"name":"totalDistributedToLP","outputs":[{"internalType":"uint256","name":"","type":"uint256"}],"stateMutability":"view","type":"function"},{"inputs":[],"name":"totalDistributedToMarketing","outputs":[{"internalType":"uint256","name":"","type":"uint256"}],"stateMutability":"view","type":"function"},{"inputs":[],"name":"totalDistributedToReferral","outputs":[{"internalType":"uint256","name":"","type":"uint256"}],"stateMutability":"view","type":"function"},{"inputs":[],"name":"totalReceived","outputs":[{"internalType":"uint256","name":"","type":"uint256"}],"stateMutability":"view","type":"function"},{"inputs":[{"internalType":"address","name":"newOwner","type":"address"}],"name":"transferOwnership","outputs":[],"stateMutability":"nonpayable","type":"function"},{"stateMutability":"payable","type":"receive"}],"evm":{"bytecode":{"linkReferences":{},"object":"60803461022157601f610b4638819003918201601f19168301916001600160401b03831184841017610225578084926080946040528339810103126102215761004781610239565b9061005460208201610239565b61006060408301610239565b916001600160a01b039061007690606001610239565b1692831561020e575f80546001600160a01b031981168617825560405195916001600160a01b03909116907f8be0079c531659141344cd1fd0a4f28419497f9722a3daafe3b4186f6b6457e09080a360017f9b779b17422d0df92223018b32b4d1fa46e071723d6817e2486d003becc55f008190556110be908190556002556105946003556001600160a01b03169283156101de57506001600160a01b03169081156101a5576001600160a01b031691821561016b5760018060a01b0319600454161760045560018060a01b0319600554161760055560018060a01b031960065416176006556040516108f8908161024e8239f35b60405162461bcd60e51b81526020600482015260126024820152714d563a207a65726f206d61726b6574696e6760701b6044820152606490fd5b60405162461bcd60e51b815260206004820152601160248201527013558e881e995c9bc81c9959995c9c985b607a1b6044820152606490fd5b62461bcd60e51b815260206004820152600b60248201526a04d563a207a65726f206c760ac1b6044820152606490fd5b631e4fbdf760e01b5f525f60045260245ffd5b5f80fd5b634e487b7160e01b5f52604160045260245ffd5b51906001600160a01b03821682036102215756fe6080806040526004361015610028575b5036156100205761001e6107b2565b005b61001e6107b2565b5f3560e01c908163088ff077146107415750806315d75b591461067b5780631fbb6ff01461065e57806329f827da146106415780634c265a13146106195780635d41f8e4146105fc57806366e3540a146105df578063683a0169146105b7578063715018a6146105605780638da5cb5b14610539578063a3c2c4621461051c578063ab2fd600146104ff578063ba51e786146104d7578063d3cd52bc146104bb578063e4fc6b6d146102f9578063f2fde38b146102745763fcd0251b146100ef575f61000f565b346102705760603660031901126102705761010861075b565b6024356001600160a01b03811690819003610270576044356001600160a01b03811692908390036102705761013b6107ef565b6001600160a01b0316801561023d5781156102045782156101ca577fec281be185293b0327cfe7ac0590abd3cef1fa7d5b8024c3c2bca20b563b3b8492606092826001600160601b0360a01b6004541617600455806001600160601b0360a01b6005541617600555816001600160601b0360a01b600654161760065560405192835260208301526040820152a1005b60405162461bcd60e51b81526020600482015260126024820152714d563a207a65726f206d61726b6574696e6760701b6044820152606490fd5b60405162461bcd60e51b815260206004820152601160248201527013558e881e995c9bc81c9959995c9c985b607a1b6044820152606490fd5b60405162461bcd60e51b815260206004820152600b60248201526a04d563a207a65726f206c760ac1b6044820152606490fd5b5f80fd5b346102705760203660031901126102705761028d61075b565b6102956107ef565b6001600160a01b031680156102e6575f80546001600160a01b03198116831782556001600160a01b0316907f8be0079c531659141344cd1fd0a4f28419497f9722a3daafe3b4186f6b6457e09080a3005b631e4fbdf760e01b5f525f60045260245ffd5b34610270575f3660031901126102705760027f9b779b17422d0df92223018b32b4d1fa46e071723d6817e2486d003becc55f0054146104ac5760027f9b779b17422d0df92223018b32b4d1fa46e071723d6817e2486d003becc55f00554780156104675760806103b77ff7576d8c2653e9d07af5ef229acf59b339e327d4e0eaddb4a96615534cf148f89261271061039360015483610792565b049182916103b26127106103a960025484610792565b049384926107a5565b6107a5565b906103c483600854610771565b6008556103d381600954610771565b6009556103e282600a54610771565b600a556004546103fc9084906001600160a01b0316610815565b6005546104139082906001600160a01b0316610815565b60065461042a9083906001600160a01b0316610815565b60405192835260208301526040820152426060820152a160017f9b779b17422d0df92223018b32b4d1fa46e071723d6817e2486d003becc55f0055005b60405162461bcd60e51b815260206004820152601960248201527f4d563a206e6f7468696e6720746f2064697374726962757465000000000000006044820152606490fd5b633ee5aeb560e01b5f5260045ffd5b34610270575f3660031901126102705760206040516127108152f35b34610270575f366003190112610270576005546040516001600160a01b039091168152602090f35b34610270575f366003190112610270576020600a54604051908152f35b34610270575f366003190112610270576020600754604051908152f35b34610270575f366003190112610270575f546040516001600160a01b039091168152602090f35b34610270575f366003190112610270576105786107ef565b5f80546001600160a01b0319811682556001600160a01b03167f8be0079c531659141344cd1fd0a4f28419497f9722a3daafe3b4186f6b6457e08280a3005b34610270575f366003190112610270576004546040516001600160a01b039091168152602090f35b34610270575f366003190112610270576020600354604051908152f35b34610270575f366003190112610270576020600154604051908152f35b34610270575f366003190112610270576006546040516001600160a01b039091168152602090f35b34610270575f366003190112610270576020600854604051908152f35b34610270575f366003190112610270576020600254604051908152f35b346102705760603660031901126102705760443560243560043561069d6107ef565b6127106106b3846106ae8585610771565b610771565b036106fc577f21c55dfccedf7a8f464081b4c32abf493ebe4c9a653d37fd29365b3775a79cfd9260609282600155806002558160035560405192835260208301526040820152a1005b60405162461bcd60e51b815260206004820152601960248201527f4d563a20627073206d7573742073756d20746f203130303030000000000000006044820152606490fd5b34610270575f366003190112610270576020906009548152f35b600435906001600160a01b038216820361027057565b9190820180921161077e57565b634e487b7160e01b5f52601160045260245ffd5b8181029291811591840414171561077e57565b9190820391821161077e57565b6107be34600754610771565b6007556040513481527f88a5966d370b9919b20f3e2c13ff65706f196a4e32cc2c12bf57088f8852587460203392a2565b5f546001600160a01b0316330361080257565b63118cdaa760e01b5f523360045260245ffd5b5f80809381935af13d156108bd573d67ffffffffffffffff81116108a95760405190601f8101601f19908116603f0116820167ffffffffffffffff8111838210176108a95760405281525f60203d92013e5b1561086e57565b60405162461bcd60e51b815260206004820152601360248201527213558e881d1c985b9cd9995c8819985a5b1959606a1b6044820152606490fd5b634e487b7160e01b5f52604160045260245ffd5b61086756fea26469706673582212203fb7632ffdd20aa6c73cc5543099a1787f4e441d548dc373ae03c117fd3d152664736f6c634300081c0033","opcodes":"PUSH1 0x80 CALLVALUE PUSH2 0x221 JUMPI PUSH1 0x1F PUSH2 0xB46 CODESIZE DUP2 SWAP1 SUB SWAP2 DUP3 ADD PUSH1 0x1F NOT AND DUP4 ADD SWAP2 PUSH1 0x1 PUSH1 0x1 PUSH1 0x40 SHL SUB DUP4 GT DUP5 DUP5 LT OR PUSH2 0x225 JUMPI DUP1 DUP5 SWAP3 PUSH1 0x80 SWAP5 PUSH1 0x40 MSTORE DUP4 CODECOPY DUP2 ADD SUB SLT PUSH2 0x221 JUMPI PUSH2 0x47 DUP2 PUSH2 0x239 JUMP JUMPDEST SWAP1 PUSH2 0x54 PUSH1 0x20 DUP3 ADD PUSH2 0x239 JUMP JUMPDEST PUSH2 0x60 PUSH1 0x40 DUP4 ADD PUSH2 0x239 JUMP JUMPDEST SWAP2 PUSH1 0x1 PUSH1 0x1 PUSH1 0xA0 SHL SUB SWAP1 PUSH2 0x76 SWAP1 PUSH1 0x60 ADD PUSH2 0x239 JUMP JUMPDEST AND SWAP3 DUP4 ISZERO PUSH2 0x20E JUMPI PUSH0 DUP1 SLOAD PUSH1 0x1 PUSH1 0x1 PUSH1 0xA0 SHL SUB NOT DUP2 AND DUP7 OR DUP3 SSTORE PUSH1 0x40 MLOAD SWAP6 SWAP2 PUSH1 0x1 PUSH1 0x1 PUSH1 0xA0 SHL SUB SWAP1 SWAP2 AND SWAP1 PUSH32 0x8BE0079C531659141344CD1FD0A4F28419497F9722A3DAAFE3B4186F6B6457E0 SWAP1 DUP1 LOG3 PUSH1 0x1 PUSH32 0x9B779B17422D0DF92223018B32B4D1FA46E071723D6817E2486D003BECC55F00 DUP2 SWAP1 SSTORE PUSH2 0x10BE SWAP1 DUP2 SWAP1 SSTORE PUSH1 0x2 SSTORE PUSH2 0x594 PUSH1 0x3 SSTORE PUSH1 0x1 PUSH1 0x1 PUSH1 0xA0 SHL SUB AND SWAP3 DUP4 ISZERO PUSH2 0x1DE JUMPI POP PUSH1 0x1 PUSH1 0x1 PUSH1 0xA0 SHL SUB AND SWAP1 DUP2 ISZERO PUSH2 0x1A5 JUMPI PUSH1 0x1 PUSH1 0x1 PUSH1 0xA0 SHL SUB AND SWAP2 DUP3 ISZERO PUSH2 0x16B JUMPI PUSH1 0x1 DUP1 PUSH1 0xA0 SHL SUB NOT PUSH1 0x4 SLOAD AND OR PUSH1 0x4 SSTORE PUSH1 0x1 DUP1 PUSH1 0xA0 SHL SUB NOT PUSH1 0x5 SLOAD AND OR PUSH1 0x5 SSTORE PUSH1 0x1 DUP1 PUSH1 0xA0 SHL SUB NOT PUSH1 0x6 SLOAD AND OR PUSH1 0x6 SSTORE PUSH1 0x40 MLOAD PUSH2 0x8F8 SWAP1 DUP2 PUSH2 0x24E DUP3 CODECOPY RETURN JUMPDEST PUSH1 0x40 MLOAD PUSH3 0x461BCD PUSH1 0xE5 SHL DUP2 MSTORE PUSH1 0x20 PUSH1 0x4 DUP3 ADD MSTORE PUSH1 0x12 PUSH1 0x24 DUP3 ADD MSTORE PUSH18 0x4D563A207A65726F206D61726B6574696E67 PUSH1 0x70 SHL PUSH1 0x44 DUP3 ADD MSTORE PUSH1 0x64 SWAP1 REVERT JUMPDEST PUSH1 0x40 MLOAD PUSH3 0x461BCD PUSH1 0xE5 SHL DUP2 MSTORE PUSH1 0x20 PUSH1 0x4 DUP3 ADD MSTORE PUSH1 0x11 PUSH1 0x24 DUP3 ADD MSTORE PUSH17 0x13558E881E995C9BC81C9959995C9C985B PUSH1 0x7A SHL PUSH1 0x44 DUP3 ADD MSTORE PUSH1 0x64 SWAP1 REVERT JUMPDEST PUSH3 0x461BCD PUSH1 0xE5 SHL DUP2 MSTORE PUSH1 0x20 PUSH1 0x4 DUP3 ADD MSTORE PUSH1 0xB PUSH1 0x24 DUP3 ADD MSTORE PUSH11 0x4D563A207A65726F206C7 PUSH1 0xAC SHL PUSH1 0x44 DUP3 ADD MSTORE PUSH1 0x64 SWAP1 REVERT JUMPDEST PUSH4 0x1E4FBDF7 PUSH1 0xE0 SHL PUSH0 MSTORE PUSH0 PUSH1 0x4 MSTORE PUSH1 0x24 PUSH0 REVERT JUMPDEST PUSH0 DUP1 REVERT JUMPDEST PUSH4 0x4E487B71 PUSH1 0xE0 SHL PUSH0 MSTORE PUSH1 0x41 PUSH1 0x4 MSTORE PUSH1 0x24 PUSH0 REVERT JUMPDEST MLOAD SWAP1 PUSH1 0x1 PUSH1 0x1 PUSH1 0xA0 SHL SUB DUP3 AND DUP3 SUB PUSH2 0x221 JUMPI JUMP INVALID PUSH1 0x80 DUP1 PUSH1 0x40 MSTORE PUSH1 0x4 CALLDATASIZE LT ISZERO PUSH2 0x28 JUMPI JUMPDEST POP CALLDATASIZE ISZERO PUSH2 0x20 JUMPI PUSH2 0x1E PUSH2 0x7B2 JUMP JUMPDEST STOP JUMPDEST PUSH2 0x1E PUSH2 0x7B2 JUMP JUMPDEST PUSH0 CALLDATALOAD PUSH1 0xE0 SHR SWAP1 DUP2 PUSH4 0x88FF077 EQ PUSH2 0x741 JUMPI POP DUP1 PUSH4 0x15D75B59 EQ PUSH2 0x67B JUMPI DUP1 PUSH4 0x1FBB6FF0 EQ PUSH2 0x65E JUMPI DUP1 PUSH4 0x29F827DA EQ PUSH2 0x641 JUMPI DUP1 PUSH4 0x4C265A13 EQ PUSH2 0x619 JUMPI DUP1 PUSH4 0x5D41F8E4 EQ PUSH2 0x5FC JUMPI DUP1 PUSH4 0x66E3540A EQ PUSH2 0x5DF JUMPI DUP1 PUSH4 0x683A0169 EQ PUSH2 0x5B7 JUMPI DUP1 PUSH4 0x715018A6 EQ PUSH2 0x560 JUMPI DUP1 PUSH4 0x8DA5CB5B EQ PUSH2 0x539 JUMPI DUP1 PUSH4 0xA3C2C462 EQ PUSH2 0x51C JUMPI DUP1 PUSH4 0xAB2FD600 EQ PUSH2 0x4FF JUMPI DUP1 PUSH4 0xBA51E786 EQ PUSH2 0x4D7 JUMPI DUP1 PUSH4 0xD3CD52BC EQ PUSH2 0x4BB JUMPI DUP1 PUSH4 0xE4FC6B6D EQ PUSH2 0x2F9 JUMPI DUP1 PUSH4 0xF2FDE38B EQ PUSH2 0x274 JUMPI PUSH4 0xFCD0251B EQ PUSH2 0xEF JUMPI PUSH0 PUSH2 0xF JUMP JUMPDEST CALLVALUE PUSH2 0x270 JUMPI PUSH1 0x60 CALLDATASIZE PUSH1 0x3 NOT ADD SLT PUSH2 0x270 JUMPI PUSH2 0x108 PUSH2 0x75B JUMP JUMPDEST PUSH1 0x24 CALLDATALOAD PUSH1 0x1 PUSH1 0x1 PUSH1 0xA0 SHL SUB DUP2 AND SWAP1 DUP2 SWAP1 SUB PUSH2 0x270 JUMPI PUSH1 0x44 CALLDATALOAD PUSH1 0x1 PUSH1 0x1 PUSH1 0xA0 SHL SUB DUP2 AND SWAP3 SWAP1 DUP4 SWAP1 SUB PUSH2 0x270 JUMPI PUSH2 0x13B PUSH2 0x7EF JUMP JUMPDEST PUSH1 0x1 PUSH1 0x1 PUSH1 0xA0 SHL SUB AND DUP1 ISZERO PUSH2 0x23D JUMPI DUP2 ISZERO PUSH2 0x204 JUMPI DUP3 ISZERO PUSH2 0x1CA JUMPI PUSH32 0xEC281BE185293B0327CFE7AC0590ABD3CEF1FA7D5B8024C3C2BCA20B563B3B84 SWAP3 PUSH1 0x60 SWAP3 DUP3 PUSH1 0x1 PUSH1 0x1 PUSH1 0x60 SHL SUB PUSH1 0xA0 SHL PUSH1 0x4 SLOAD AND OR PUSH1 0x4 SSTORE DUP1 PUSH1 0x1 PUSH1 0x1 PUSH1 0x60 SHL SUB PUSH1 0xA0 SHL PUSH1 0x5 SLOAD AND OR PUSH1 0x5 SSTORE DUP2 PUSH1 0x1 PUSH1 0x1 PUSH1 0x60 SHL SUB PUSH1 0xA0 SHL PUSH1 0x6 SLOAD AND OR PUSH1 0x6 SSTORE PUSH1 0x40 MLOAD SWAP3 DUP4 MSTORE PUSH1 0x20 DUP4 ADD MSTORE PUSH1 0x40 DUP3 ADD MSTORE LOG1 STOP JUMPDEST PUSH1 0x40 MLOAD PUSH3 0x461BCD PUSH1 0xE5 SHL DUP2 MSTORE PUSH1 0x20 PUSH1 0x4 DUP3 ADD MSTORE PUSH1 0x12 PUSH1 0x24 DUP3 ADD MSTORE PUSH18 0x4D563A207A65726F206D61726B6574696E67 PUSH1 0x70 SHL PUSH1 0x44 DUP3 ADD MSTORE PUSH1 0x64 SWAP1 REVERT JUMPDEST PUSH1 0x40 MLOAD PUSH3 0x461BCD PUSH1 0xE5 SHL DUP2 MSTORE PUSH1 0x20 PUSH1 0x4 DUP3 ADD MSTORE PUSH1 0x11 PUSH1 0x24 DUP3 ADD MSTORE PUSH17 0x13558E881E995C9BC81C9959995C9C985B PUSH1 0x7A SHL PUSH1 0x44 DUP3 ADD MSTORE PUSH1 0x64 SWAP1 REVERT JUMPDEST PUSH1 0x40 MLOAD PUSH3 0x461BCD PUSH1 0xE5 SHL DUP2 MSTORE PUSH1 0x20 PUSH1 0x4 DUP3 ADD MSTORE PUSH1 0xB PUSH1 0x24 DUP3 ADD MSTORE PUSH11 0x4D563A207A65726F206C7 PUSH1 0xAC SHL PUSH1 0x44 DUP3 ADD MSTORE PUSH1 0x64 SWAP1 REVERT JUMPDEST PUSH0 DUP1 REVERT JUMPDEST CALLVALUE PUSH2 0x270 JUMPI PUSH1 0x20 CALLDATASIZE PUSH1 0x3 NOT ADD SLT PUSH2 0x270 JUMPI PUSH2 0x28D PUSH2 0x75B JUMP JUMPDEST PUSH2 0x295 PUSH2 0x7EF JUMP JUMPDEST PUSH1 0x1 PUSH1 0x1 PUSH1 0xA0 SHL SUB AND DUP1 ISZERO PUSH2 0x2E6 JUMPI PUSH0 DUP1 SLOAD PUSH1 0x1 PUSH1 0x1 PUSH1 0xA0 SHL SUB NOT DUP2 AND DUP4 OR DUP3 SSTORE PUSH1 0x1 PUSH1 0x1 PUSH1 0xA0 SHL SUB AND SWAP1 PUSH32 0x8BE0079C531659141344CD1FD0A4F28419497F9722A3DAAFE3B4186F6B6457E0 SWAP1 DUP1 LOG3 STOP JUMPDEST PUSH4 0x1E4FBDF7 PUSH1 0xE0 SHL PUSH0 MSTORE PUSH0 PUSH1 0x4 MSTORE PUSH1 0x24 PUSH0 REVERT JUMPDEST CALLVALUE PUSH2 0x270 JUMPI PUSH0 CALLDATASIZE PUSH1 0x3 NOT ADD SLT PUSH2 0x270 JUMPI PUSH1 0x2 PUSH32 0x9B779B17422D0DF92223018B32B4D1FA46E071723D6817E2486D003BECC55F00 SLOAD EQ PUSH2 0x4AC JUMPI PUSH1 0x2 PUSH32 0x9B779B17422D0DF92223018B32B4D1FA46E071723D6817E2486D003BECC55F00 SSTORE SELFBALANCE DUP1 ISZERO PUSH2 0x467 JUMPI PUSH1 0x80 PUSH2 0x3B7 PUSH32 0xF7576D8C2653E9D07AF5EF229ACF59B339E327D4E0EADDB4A96615534CF148F8 SWAP3 PUSH2 0x2710 PUSH2 0x393 PUSH1 0x1 SLOAD DUP4 PUSH2 0x792 JUMP JUMPDEST DIV SWAP2 DUP3 SWAP2 PUSH2 0x3B2 PUSH2 0x2710 PUSH2 0x3A9 PUSH1 0x2 SLOAD DUP5 PUSH2 0x792 JUMP JUMPDEST DIV SWAP4 DUP5 SWAP3 PUSH2 0x7A5 JUMP JUMPDEST PUSH2 0x7A5 JUMP JUMPDEST SWAP1 PUSH2 0x3C4 DUP4 PUSH1 0x8 SLOAD PUSH2 0x771 JUMP JUMPDEST PUSH1 0x8 SSTORE PUSH2 0x3D3 DUP2 PUSH1 0x9 SLOAD PUSH2 0x771 JUMP JUMPDEST PUSH1 0x9 SSTORE PUSH2 0x3E2 DUP3 PUSH1 0xA SLOAD PUSH2 0x771 JUMP JUMPDEST PUSH1 0xA SSTORE PUSH1 0x4 SLOAD PUSH2 0x3FC SWAP1 DUP5 SWAP1 PUSH1 0x1 PUSH1 0x1 PUSH1 0xA0 SHL SUB AND PUSH2 0x815 JUMP JUMPDEST PUSH1 0x5 SLOAD PUSH2 0x413 SWAP1 DUP3 SWAP1 PUSH1 0x1 PUSH1 0x1 PUSH1 0xA0 SHL SUB AND PUSH2 0x815 JUMP JUMPDEST PUSH1 0x6 SLOAD PUSH2 0x42A SWAP1 DUP4 SWAP1 PUSH1 0x1 PUSH1 0x1 PUSH1 0xA0 SHL SUB AND PUSH2 0x815 JUMP JUMPDEST PUSH1 0x40 MLOAD SWAP3 DUP4 MSTORE PUSH1 0x20 DUP4 ADD MSTORE PUSH1 0x40 DUP3 ADD MSTORE TIMESTAMP PUSH1 0x60 DUP3 ADD MSTORE LOG1 PUSH1 0x1 PUSH32 0x9B779B17422D0DF92223018B32B4D1FA46E071723D6817E2486D003BECC55F00 SSTORE STOP JUMPDEST PUSH1 0x40 MLOAD PUSH3 0x461BCD PUSH1 0xE5 SHL DUP2 MSTORE PUSH1 0x20 PUSH1 0x4 DUP3 ADD MSTORE PUSH1 0x19 PUSH1 0x24 DUP3 ADD MSTORE PUSH32 0x4D563A206E6F7468696E6720746F206469737472696275746500000000000000 PUSH1 0x44 DUP3 ADD MSTORE PUSH1 0x64 SWAP1 REVERT JUMPDEST PUSH4 0x3EE5AEB5 PUSH1 0xE0 SHL PUSH0 MSTORE PUSH1 0x4 PUSH0 REVERT JUMPDEST CALLVALUE PUSH2 0x270 JUMPI PUSH0 CALLDATASIZE PUSH1 0x3 NOT ADD SLT PUSH2 0x270 JUMPI PUSH1 0x20 PUSH1 0x40 MLOAD PUSH2 0x2710 DUP2 MSTORE RETURN JUMPDEST CALLVALUE PUSH2 0x270 JUMPI PUSH0 CALLDATASIZE PUSH1 0x3 NOT ADD SLT PUSH2 0x270 JUMPI PUSH1 0x5 SLOAD PUSH1 0x40 MLOAD PUSH1 0x1 PUSH1 0x1 PUSH1 0xA0 SHL SUB SWAP1 SWAP2 AND DUP2 MSTORE PUSH1 0x20 SWAP1 RETURN JUMPDEST CALLVALUE PUSH2 0x270 JUMPI PUSH0 CALLDATASIZE PUSH1 0x3 NOT ADD SLT PUSH2 0x270 JUMPI PUSH1 0x20 PUSH1 0xA SLOAD PUSH1 0x40 MLOAD SWAP1 DUP2 MSTORE RETURN JUMPDEST CALLVALUE PUSH2 0x270 JUMPI PUSH0 CALLDATASIZE PUSH1 0x3 NOT ADD SLT PUSH2 0x270 JUMPI PUSH1 0x20 PUSH1 0x7 SLOAD PUSH1 0x40 MLOAD SWAP1 DUP2 MSTORE RETURN JUMPDEST CALLVALUE PUSH2 0x270 JUMPI PUSH0 CALLDATASIZE PUSH1 0x3 NOT ADD SLT PUSH2 0x270 JUMPI PUSH0 SLOAD PUSH1 0x40 MLOAD PUSH1 0x1 PUSH1 0x1 PUSH1 0xA0 SHL SUB SWAP1 SWAP2 AND DUP2 MSTORE PUSH1 0x20 SWAP1 RETURN JUMPDEST CALLVALUE PUSH2 0x270 JUMPI PUSH0 CALLDATASIZE PUSH1 0x3 NOT ADD SLT PUSH2 0x270 JUMPI PUSH2 0x578 PUSH2 0x7EF JUMP JUMPDEST PUSH0 DUP1 SLOAD PUSH1 0x1 PUSH1 0x1 PUSH1 0xA0 SHL SUB NOT DUP2 AND DUP3 SSTORE PUSH1 0x1 PUSH1 0x1 PUSH1 0xA0 SHL SUB AND PUSH32 0x8BE0079C531659141344CD1FD0A4F28419497F9722A3DAAFE3B4186F6B6457E0 DUP3 DUP1 LOG3 STOP JUMPDEST CALLVALUE PUSH2 0x270 JUMPI PUSH0 CALLDATASIZE PUSH1 0x3 NOT ADD SLT PUSH2 0x270 JUMPI PUSH1 0x4 SLOAD PUSH1 0x40 MLOAD PUSH1 0x1 PUSH1 0x1 PUSH1 0xA0 SHL SUB SWAP1 SWAP2 AND DUP2 MSTORE PUSH1 0x20 SWAP1 RETURN JUMPDEST CALLVALUE PUSH2 0x270 JUMPI PUSH0 CALLDATASIZE PUSH1 0x3 NOT ADD SLT PUSH2 0x270 JUMPI PUSH1 0x20 PUSH1 0x3 SLOAD PUSH1 0x40 MLOAD SWAP1 DUP2 MSTORE RETURN JUMPDEST CALLVALUE PUSH2 0x270 JUMPI PUSH0 CALLDATASIZE PUSH1 0x3 NOT ADD SLT PUSH2 0x270 JUMPI PUSH1 0x20 PUSH1 0x1 SLOAD PUSH1 0x40 MLOAD SWAP1 DUP2 MSTORE RETURN JUMPDEST CALLVALUE PUSH2 0x270 JUMPI PUSH0 CALLDATASIZE PUSH1 0x3 NOT ADD SLT PUSH2 0x270 JUMPI PUSH1 0x6 SLOAD PUSH1 0x40 MLOAD PUSH1 0x1 PUSH1 0x1 PUSH1 0xA0 SHL SUB SWAP1 SWAP2 AND DUP2 MSTORE PUSH1 0x20 SWAP1 RETURN JUMPDEST CALLVALUE PUSH2 0x270 JUMPI PUSH0 CALLDATASIZE PUSH1 0x3 NOT ADD SLT PUSH2 0x270 JUMPI PUSH1 0x20 PUSH1 0x8 SLOAD PUSH1 0x40 MLOAD SWAP1 DUP2 MSTORE RETURN JUMPDEST CALLVALUE PUSH2 0x270 JUMPI PUSH0 CALLDATASIZE PUSH1 0x3 NOT ADD SLT PUSH2 0x270 JUMPI PUSH1 0x20 PUSH1 0x2 SLOAD PUSH1 0x40 MLOAD SWAP1 DUP2 MSTORE RETURN JUMPDEST CALLVALUE PUSH2 0x270 JUMPI PUSH1 0x60 CALLDATASIZE PUSH1 0x3 NOT ADD SLT PUSH2 0x270 JUMPI PUSH1 0x44 CALLDATALOAD PUSH1 0x24 CALLDATALOAD PUSH1 0x4 CALLDATALOAD PUSH2 0x69D PUSH2 0x7EF JUMP JUMPDEST PUSH2 0x2710 PUSH2 0x6B3 DUP5 PUSH2 0x6AE DUP6 DUP6 PUSH2 0x771 JUMP JUMPDEST PUSH2 0x771 JUMP JUMPDEST SUB PUSH2 0x6FC JUMPI PUSH32 0x21C55DFCCEDF7A8F464081B4C32ABF493EBE4C9A653D37FD29365B3775A79CFD SWAP3 PUSH1 0x60 SWAP3 DUP3 PUSH1 0x1 SSTORE DUP1 PUSH1 0x2 SSTORE DUP2 PUSH1 0x3 SSTORE PUSH1 0x40 MLOAD SWAP3 DUP4 MSTORE PUSH1 0x20 DUP4 ADD MSTORE PUSH1 0x40 DUP3 ADD MSTORE LOG1 STOP JUMPDEST PUSH1 0x40 MLOAD PUSH3 0x461BCD PUSH1 0xE5 SHL DUP2 MSTORE PUSH1 0x20 PUSH1 0x4 DUP3 ADD MSTORE PUSH1 0x19 PUSH1 0x24 DUP3 ADD MSTORE PUSH32 0x4D563A20627073206D7573742073756D20746F20313030303000000000000000 PUSH1 0x44 DUP3 ADD MSTORE PUSH1 0x64 SWAP1 REVERT JUMPDEST CALLVALUE PUSH2 0x270 JUMPI PUSH0 CALLDATASIZE PUSH1 0x3 NOT ADD SLT PUSH2 0x270 JUMPI PUSH1 0x20 SWAP1 PUSH1 0x9 SLOAD DUP2 MSTORE RETURN JUMPDEST PUSH1 0x4 CALLDATALOAD SWAP1 PUSH1 0x1 PUSH1 0x1 PUSH1 0xA0 SHL SUB DUP3 AND DUP3 SUB PUSH2 0x270 JUMPI JUMP JUMPDEST SWAP2 SWAP1 DUP3 ADD DUP1 SWAP3 GT PUSH2 0x77E JUMPI JUMP JUMPDEST PUSH4 0x4E487B71 PUSH1 0xE0 SHL PUSH0 MSTORE PUSH1 0x11 PUSH1 0x4 MSTORE PUSH1 0x24 PUSH0 REVERT JUMPDEST DUP2 DUP2 MUL SWAP3 SWAP2 DUP2 ISZERO SWAP2 DUP5 DIV EQ OR ISZERO PUSH2 0x77E JUMPI JUMP JUMPDEST SWAP2 SWAP1 DUP3 SUB SWAP2 DUP3 GT PUSH2 0x77E JUMPI JUMP JUMPDEST PUSH2 0x7BE CALLVALUE PUSH1 0x7 SLOAD PUSH2 0x771 JUMP JUMPDEST PUSH1 0x7 SSTORE PUSH1 0x40 MLOAD CALLVALUE DUP2 MSTORE PUSH32 0x88A5966D370B9919B20F3E2C13FF65706F196A4E32CC2C12BF57088F88525874 PUSH1 0x20 CALLER SWAP3 LOG2 JUMP JUMPDEST PUSH0 SLOAD PUSH1 0x1 PUSH1 0x1 PUSH1 0xA0 SHL SUB AND CALLER SUB PUSH2 0x802 JUMPI JUMP JUMPDEST PUSH4 0x118CDAA7 PUSH1 0xE0 SHL PUSH0 MSTORE CALLER PUSH1 0x4 MSTORE PUSH1 0x24 PUSH0 REVERT JUMPDEST PUSH0 DUP1 DUP1 SWAP4 DUP2 SWAP4 GAS CALL RETURNDATASIZE ISZERO PUSH2 0x8BD JUMPI RETURNDATASIZE PUSH8 0xFFFFFFFFFFFFFFFF DUP2 GT PUSH2 0x8A9 JUMPI PUSH1 0x40 MLOAD SWAP1 PUSH1 0x1F DUP2 ADD PUSH1 0x1F NOT SWAP1 DUP2 AND PUSH1 0x3F ADD AND DUP3 ADD PUSH8 0xFFFFFFFFFFFFFFFF DUP2 GT DUP4 DUP3 LT OR PUSH2 0x8A9 JUMPI PUSH1 0x40 MSTORE DUP2 MSTORE PUSH0 PUSH1 0x20 RETURNDATASIZE SWAP3 ADD RETURNDATACOPY JUMPDEST ISZERO PUSH2 0x86E JUMPI JUMP JUMPDEST PUSH1 0x40 MLOAD PUSH3 0x461BCD PUSH1 0xE5 SHL DUP2 MSTORE PUSH1 0x20 PUSH1 0x4 DUP3 ADD MSTORE PUSH1 0x13 PUSH1 0x24 DUP3 ADD MSTORE PUSH19 0x13558E881D1C985B9CD9995C8819985A5B1959 PUSH1 0x6A SHL PUSH1 0x44 DUP3 ADD MSTORE PUSH1 0x64 SWAP1 REVERT JUMPDEST PUSH4 0x4E487B71 PUSH1 0xE0 SHL PUSH0 MSTORE PUSH1 0x41 PUSH1 0x4 MSTORE PUSH1 0x24 PUSH0 REVERT JUMPDEST PUSH2 0x867 JUMP INVALID LOG2 PUSH5 0x6970667358 0x22 SLT KECCAK256 EXTCODEHASH 0xB7 PUSH4 0x2FFDD20A 0xA6 0xC7 EXTCODECOPY 0xC5 SLOAD ADDRESS SWAP10 LOG1 PUSH25 0x7F4E441D548DC373AE03C117FD3D152664736F6C634300081C STOP CALLER "},"methodIdentifiers":{"TOTAL_BPS()":"d3cd52bc","distribute()":"e4fc6b6d","lpBps()":"5d41f8e4","lpRewardVault()":"683a0169","marketingBps()":"66e3540a","marketingVault()":"4c265a13","owner()":"8da5cb5b","referralBps()":"1fbb6ff0","referralVault()":"ba51e786","renounceOwnership()":"715018a6","setAllocation(uint256,uint256,uint256)":"15d75b59","setRecipients(address,address,address)":"fcd0251b","totalDistributedToLP()":"29f827da","totalDistributedToMarketing()":"ab2fd600","totalDistributedToReferral()":"088ff077","totalReceived()":"a3c2c462","transferOwnership(address)":"f2fde38b"}}}}}