{"contracts/ReferralVault.sol":{"ReferralVault":{"abi":[{"inputs":[{"internalType":"address","name":"_signer","type":"address"},{"internalType":"address","name":"_owner","type":"address"}],"stateMutability":"nonpayable","type":"constructor"},{"inputs":[],"name":"ECDSAInvalidSignature","type":"error"},{"inputs":[{"internalType":"uint256","name":"length","type":"uint256"}],"name":"ECDSAInvalidSignatureLength","type":"error"},{"inputs":[{"internalType":"bytes32","name":"s","type":"bytes32"}],"name":"ECDSAInvalidSignatureS","type":"error"},{"inputs":[],"name":"InvalidShortString","type":"error"},{"inputs":[{"internalType":"address","name":"owner","type":"address"}],"name":"OwnableInvalidOwner","type":"error"},{"inputs":[{"internalType":"address","name":"account","type":"address"}],"name":"OwnableUnauthorizedAccount","type":"error"},{"inputs":[],"name":"ReentrancyGuardReentrantCall","type":"error"},{"inputs":[{"internalType":"string","name":"str","type":"string"}],"name":"StringTooLong","type":"error"},{"anonymous":false,"inputs":[{"indexed":true,"internalType":"address","name":"user","type":"address"},{"indexed":false,"internalType":"uint256","name":"amount","type":"uint256"},{"indexed":false,"internalType":"uint256","name":"nonce","type":"uint256"}],"name":"Claimed","type":"event"},{"anonymous":false,"inputs":[{"indexed":true,"internalType":"address","name":"sender","type":"address"},{"indexed":false,"internalType":"uint256","name":"amount","type":"uint256"}],"name":"Deposited","type":"event"},{"anonymous":false,"inputs":[],"name":"EIP712DomainChanged","type":"event"},{"anonymous":false,"inputs":[{"indexed":true,"internalType":"address","name":"previousOwner","type":"address"},{"indexed":true,"internalType":"address","name":"newOwner","type":"address"}],"name":"OwnershipTransferred","type":"event"},{"anonymous":false,"inputs":[{"indexed":true,"internalType":"address","name":"user","type":"address"},{"indexed":true,"internalType":"address","name":"referrer","type":"address"}],"name":"ReferrerBound","type":"event"},{"anonymous":false,"inputs":[{"indexed":true,"internalType":"address","name":"oldSigner","type":"address"},{"indexed":true,"internalType":"address","name":"newSigner","type":"address"}],"name":"SignerUpdated","type":"event"},{"inputs":[],"name":"CLAIM_TYPEHASH","outputs":[{"internalType":"bytes32","name":"","type":"bytes32"}],"stateMutability":"view","type":"function"},{"inputs":[{"internalType":"address","name":"_referrer","type":"address"}],"name":"bindReferrer","outputs":[],"stateMutability":"nonpayable","type":"function"},{"inputs":[{"internalType":"uint256","name":"_amount","type":"uint256"},{"internalType":"uint256","name":"_nonce","type":"uint256"},{"internalType":"uint256","name":"_deadline","type":"uint256"},{"internalType":"bytes","name":"_sig","type":"bytes"}],"name":"claim","outputs":[],"stateMutability":"nonpayable","type":"function"},{"inputs":[{"internalType":"address","name":"","type":"address"}],"name":"claimed","outputs":[{"internalType":"uint256","name":"","type":"uint256"}],"stateMutability":"view","type":"function"},{"inputs":[],"name":"eip712Domain","outputs":[{"internalType":"bytes1","name":"fields","type":"bytes1"},{"internalType":"string","name":"name","type":"string"},{"internalType":"string","name":"version","type":"string"},{"internalType":"uint256","name":"chainId","type":"uint256"},{"internalType":"address","name":"verifyingContract","type":"address"},{"internalType":"bytes32","name":"salt","type":"bytes32"},{"internalType":"uint256[]","name":"extensions","type":"uint256[]"}],"stateMutability":"view","type":"function"},{"inputs":[{"internalType":"address","name":"","type":"address"}],"name":"nonces","outputs":[{"internalType":"uint256","name":"","type":"uint256"}],"stateMutability":"view","type":"function"},{"inputs":[],"name":"owner","outputs":[{"internalType":"address","name":"","type":"address"}],"stateMutability":"view","type":"function"},{"inputs":[{"internalType":"address","name":"","type":"address"}],"name":"referrerOf","outputs":[{"internalType":"address","name":"","type":"address"}],"stateMutability":"view","type":"function"},{"inputs":[],"name":"renounceOwnership","outputs":[],"stateMutability":"nonpayable","type":"function"},{"inputs":[{"internalType":"address","name":"_signer","type":"address"}],"name":"setSigner","outputs":[],"stateMutability":"nonpayable","type":"function"},{"inputs":[],"name":"signer","outputs":[{"internalType":"address","name":"","type":"address"}],"stateMutability":"view","type":"function"},{"inputs":[],"name":"totalClaimed","outputs":[{"internalType":"uint256","name":"","type":"uint256"}],"stateMutability":"view","type":"function"},{"inputs":[{"internalType":"address","name":"newOwner","type":"address"}],"name":"transferOwnership","outputs":[],"stateMutability":"nonpayable","type":"function"},{"stateMutability":"payable","type":"receive"}],"evm":{"bytecode":{"linkReferences":{},"object":"61016080604052346102435760408161144b80380380916100208285610247565b8339810103126102435761003f60206100388361027e565b920161027e565b6040519061004e604083610247565b600d8252602082016c149959995c9c985b15985d5b1d609a1b815260405192610078604085610247565b60018452603160f81b60208501908152926001600160a01b03168015610230575f80546001600160a01b03198116831782556001600160a01b0316907f8be0079c531659141344cd1fd0a4f28419497f9722a3daafe3b4186f6b6457e09080a360017f9b779b17422d0df92223018b32b4d1fa46e071723d6817e2486d003becc55f005561010581610292565b610120526101128461042d565b61014052519020918260e05251902080610100524660a0526040519060208201927f8b73c3c69bb8fe3d512ecc4cf759cc79239f7b179b0ffacaa9a75d522b39400f8452604083015260608201524660808201523060a082015260a0815261017b60c082610247565b5190206080523060c0526001600160a01b031680156101f957600380546001600160a01b031916919091179055604051610ee59081610566823960805181610a98015260a05181610b55015260c05181610a62015260e05181610ae701526101005181610b0d0152610120518161024c015261014051816102750152f35b60405162461bcd60e51b815260206004820152600f60248201526e292b1d103d32b9379039b4b3b732b960891b6044820152606490fd5b631e4fbdf760e01b5f525f60045260245ffd5b5f80fd5b601f909101601f19168101906001600160401b0382119082101761026a57604052565b634e487b7160e01b5f52604160045260245ffd5b51906001600160a01b038216820361024357565b908151602081105f1461030c575090601f8151116102cc5760208151910151602082106102bd571790565b5f198260200360031b1b161790565b604460209160405192839163305a27a960e01b83528160048401528051918291826024860152018484015e5f828201840152601f01601f19168101030190fd5b6001600160401b03811161026a57600154600181811c91168015610423575b602082101461040f57601f81116103dc575b50602092601f821160011461037b57928192935f92610370575b50508160011b915f199060031b1c19161760015560ff90565b015190505f80610357565b601f1982169360015f52805f20915f5b8681106103c457508360019596106103ac575b505050811b0160015560ff90565b01515f1960f88460031b161c191690555f808061039e565b9192602060018192868501518155019401920161038b565b60015f52601f60205f20910160051c810190601f830160051c015b818110610404575061033d565b5f81556001016103f7565b634e487b7160e01b5f52602260045260245ffd5b90607f169061032b565b908151602081105f14610458575090601f8151116102cc5760208151910151602082106102bd571790565b6001600160401b03811161026a57600254600181811c9116801561055b575b602082101461040f57601f8111610528575b50602092601f82116001146104c757928192935f926104bc575b50508160011b915f199060031b1c19161760025560ff90565b015190505f806104a3565b601f1982169360025f52805f20915f5b86811061051057508360019596106104f8575b505050811b0160025560ff90565b01515f1960f88460031b161c191690555f80806104ea565b919260206001819286850151815501940192016104d7565b60025f52601f60205f20910160051c810190601f830160051c015b8181106105505750610489565b5f8155600101610543565b90607f169061047756fe6080806040526004361015610048575b50361561001a575f80fd5b6040513481527f2da466a7b24304f47e87fa2e1e5a81b9831ce54fec19055ce277ca2f39ba42c460203392a2005b5f3560e01c90816304f618cb1461087957508063238ac933146108515780636548b7ae146104a65780636b0509b11461046c5780636c19e783146103bf578063715018a6146103685780637ecebe001461032c57806384b0196e146102345780638da5cb5b1461020d578063c884ef83146101d1578063d21cacdf1461018d578063d54ad2a1146101705763f2fde38b146100e3575f61000f565b3461016c57602036600319011261016c576004356001600160a01b0381169081900361016c57610111610a39565b8015610159575f80546001600160a01b03198116831782556001600160a01b0316907f8be0079c531659141344cd1fd0a4f28419497f9722a3daafe3b4186f6b6457e09080a3005b631e4fbdf760e01b5f525f60045260245ffd5b5f80fd5b3461016c575f36600319011261016c576020600754604051908152f35b3461016c57602036600319011261016c576004356001600160a01b0381169081900361016c575f526004602052602060018060a01b0360405f205416604051908152f35b3461016c57602036600319011261016c576004356001600160a01b0381169081900361016c575f526006602052602060405f2054604051908152f35b3461016c575f36600319011261016c575f546040516001600160a01b039091168152602090f35b3461016c575f36600319011261016c576102d06102707f0000000000000000000000000000000000000000000000000000000000000000610c29565b6102997f0000000000000000000000000000000000000000000000000000000000000000610d52565b60206102de604051926102ac83856109da565b5f84525f368137604051958695600f60f81b875260e08588015260e08701906109b6565b9085820360408701526109b6565b4660608501523060808501525f60a085015283810360c08501528180845192838152019301915f5b82811061031557505050500390f35b835185528695509381019392810192600101610306565b3461016c57602036600319011261016c576004356001600160a01b0381169081900361016c575f526005602052602060405f2054604051908152f35b3461016c575f36600319011261016c57610380610a39565b5f80546001600160a01b0319811682556001600160a01b03167f8be0079c531659141344cd1fd0a4f28419497f9722a3daafe3b4186f6b6457e08280a3005b3461016c57602036600319011261016c576004356001600160a01b0381169081900361016c576103ed610a39565b801561043557600354816001600160a01b0382167f2d025324f0a785e8c12d0a0d91a9caa49df4ef20ff87e0df7213a1d4f3157beb5f80a36001600160a01b03191617600355005b60405162461bcd60e51b815260206004820152600f60248201526e292b1d103d32b9379039b4b3b732b960891b6044820152606490fd5b3461016c575f36600319011261016c5760206040517fd12d604cb88c2ba260114956673fa498973e9ec4bd7acd67886835eb5c1f4f2f8152f35b3461016c57608036600319011261016c5760043560243560643560443567ffffffffffffffff821161016c573660238301121561016c5781600401359167ffffffffffffffff831161016c57366024848301011161016c5760027f9b779b17422d0df92223018b32b4d1fa46e071723d6817e2486d003becc55f0054146108425760027f9b779b17422d0df92223018b32b4d1fa46e071723d6817e2486d003becc55f005581421161080f57335f52600560205260405f205484036107d657841561079f57610620925f6020604261061795604051838101917fd12d604cb88c2ba260114956673fa498973e9ec4bd7acd67886835eb5c1f4f2f83523360408301528b60608301528a608083015260a082015260a081526105c860c0826109da565b5190206105d3610a5f565b906040519161190160f01b83526002830152602282015220928060246105f882610a10565b9661060660405198896109da565b828852018387013784010152610b7b565b90929192610bb5565b6003546001600160a01b0390811691160361076257335f52600560205260405f2080545f19811461074e576001019055335f52600660205260405f20610667838254610a2c565b905561067582600754610a2c565b6007555f80808085335af13d15610749573d61069081610a10565b9061069e60405192836109da565b81525f60203d92013e5b156107045760405191825260208201527f987d620f307ff6b94d58743cb7a7509f24071586a77759b77c2d4e29f75a2f9a60403392a260017f9b779b17422d0df92223018b32b4d1fa46e071723d6817e2486d003becc55f0055005b60405162461bcd60e51b815260206004820152601760248201527f52563a20424e42207472616e73666572206661696c65640000000000000000006044820152606490fd5b6106a8565b634e487b7160e01b5f52601160045260245ffd5b60405162461bcd60e51b815260206004820152601560248201527452563a20696e76616c6964207369676e617475726560581b6044820152606490fd5b60405162461bcd60e51b815260206004820152600f60248201526e14958e881e995c9bc8185b5bdd5b9d608a1b6044820152606490fd5b60405162461bcd60e51b815260206004820152601160248201527052563a20696e76616c6964206e6f6e636560781b6044820152606490fd5b60405162461bcd60e51b815260206004820152600b60248201526a14958e88195e1c1a5c995960aa1b6044820152606490fd5b633ee5aeb560e01b5f5260045ffd5b3461016c575f36600319011261016c576003546040516001600160a01b039091168152602090f35b3461016c57602036600319011261016c576004356001600160a01b038116919082900361016c578115610980575033811461094757335f908152600460205260409020546001600160a01b031661090e57335f81815260046020526040812080546001600160a01b031916841790557fc4c2ddb91b0f73749131d376ad37ce7b01a69dc1b477abc09377cf0e1d511b149080a3005b60405162461bcd60e51b815260206004820152601160248201527014958e88185b1c9958591e48189bdd5b99607a1b6044820152606490fd5b60405162461bcd60e51b815260206004820152601160248201527014958e881cd95b19881c9959995c9c985b607a1b6044820152606490fd5b62461bcd60e51b8152602060048201526011602482015270292b1d103d32b937903932b332b93932b960791b6044820152606490fd5b805180835260209291819084018484015e5f828201840152601f01601f1916010190565b90601f8019910116810190811067ffffffffffffffff8211176109fc57604052565b634e487b7160e01b5f52604160045260245ffd5b67ffffffffffffffff81116109fc57601f01601f191660200190565b9190820180921161074e57565b5f546001600160a01b03163303610a4c57565b63118cdaa760e01b5f523360045260245ffd5b307f00000000000000000000000000000000000000000000000000000000000000006001600160a01b03161480610b52575b15610aba577f000000000000000000000000000000000000000000000000000000000000000090565b60405160208101907f8b73c3c69bb8fe3d512ecc4cf759cc79239f7b179b0ffacaa9a75d522b39400f82527f000000000000000000000000000000000000000000000000000000000000000060408201527f000000000000000000000000000000000000000000000000000000000000000060608201524660808201523060a082015260a08152610b4c60c0826109da565b51902090565b507f00000000000000000000000000000000000000000000000000000000000000004614610a91565b8151919060418303610bab57610ba49250602082015190606060408401519301515f1a90610e22565b9192909190565b50505f9160029190565b6004811015610c155780610bc7575050565b60018103610bde5763f645eedf60e01b5f5260045ffd5b60028103610bf9575063fce698f760e01b5f5260045260245ffd5b600314610c035750565b6335e2f38360e21b5f5260045260245ffd5b634e487b7160e01b5f52602160045260245ffd5b60ff8114610c6f5760ff811690601f8211610c605760405191610c4d6040846109da565b6020808452838101919036833783525290565b632cd44ac360e21b5f5260045ffd5b506040515f6001548060011c9160018216918215610d48575b602084108314610d34578385528492908115610d155750600114610cb6575b610cb3925003826109da565b90565b5060015f90815290917fb10e2d527612073b26eecdfd717e6a320cf44b4afac2b0732d9fcbe2b7fa0cf65b818310610cf9575050906020610cb392820101610ca7565b6020919350806001915483858801015201910190918392610ce1565b60209250610cb394915060ff191682840152151560051b820101610ca7565b634e487b7160e01b5f52602260045260245ffd5b92607f1692610c88565b60ff8114610d765760ff811690601f8211610c605760405191610c4d6040846109da565b506040515f6002548060011c9160018216918215610e18575b602084108314610d34578385528492908115610d155750600114610db957610cb3925003826109da565b5060025f90815290917f405787fa12a823e0f2b7631cc41b3ba8828b3321ca811111fa75cd3aa3bb5ace5b818310610dfc575050906020610cb392820101610ca7565b6020919350806001915483858801015201910190918392610de4565b92607f1692610d8f565b91907f7fffffffffffffffffffffffffffffff5d576e7357a4501ddfe92f46681b20a08411610ea4579160209360809260ff5f9560405194855216868401526040830152606082015282805260015afa15610e99575f516001600160a01b03811615610e8f57905f905f90565b505f906001905f90565b6040513d5f823e3d90fd5b5050505f916003919056fea2646970667358221220b5c5c6b8d8b2571292d4afd2126cf4af92e883b5f3226911077d197604d7ff7f64736f6c634300081c0033","opcodes":"PUSH2 0x160 DUP1 PUSH1 0x40 MSTORE CALLVALUE PUSH2 0x243 JUMPI PUSH1 0x40 DUP2 PUSH2 0x144B DUP1 CODESIZE SUB DUP1 SWAP2 PUSH2 0x20 DUP3 DUP6 PUSH2 0x247 JUMP JUMPDEST DUP4 CODECOPY DUP2 ADD SUB SLT PUSH2 0x243 JUMPI PUSH2 0x3F PUSH1 0x20 PUSH2 0x38 DUP4 PUSH2 0x27E JUMP JUMPDEST SWAP3 ADD PUSH2 0x27E JUMP JUMPDEST PUSH1 0x40 MLOAD SWAP1 PUSH2 0x4E PUSH1 0x40 DUP4 PUSH2 0x247 JUMP JUMPDEST PUSH1 0xD DUP3 MSTORE PUSH1 0x20 DUP3 ADD PUSH13 0x149959995C9C985B15985D5B1D PUSH1 0x9A SHL DUP2 MSTORE PUSH1 0x40 MLOAD SWAP3 PUSH2 0x78 PUSH1 0x40 DUP6 PUSH2 0x247 JUMP JUMPDEST PUSH1 0x1 DUP5 MSTORE PUSH1 0x31 PUSH1 0xF8 SHL PUSH1 0x20 DUP6 ADD SWAP1 DUP2 MSTORE SWAP3 PUSH1 0x1 PUSH1 0x1 PUSH1 0xA0 SHL SUB AND DUP1 ISZERO PUSH2 0x230 JUMPI PUSH0 DUP1 SLOAD PUSH1 0x1 PUSH1 0x1 PUSH1 0xA0 SHL SUB NOT DUP2 AND DUP4 OR DUP3 SSTORE PUSH1 0x1 PUSH1 0x1 PUSH1 0xA0 SHL SUB AND SWAP1 PUSH32 0x8BE0079C531659141344CD1FD0A4F28419497F9722A3DAAFE3B4186F6B6457E0 SWAP1 DUP1 LOG3 PUSH1 0x1 PUSH32 0x9B779B17422D0DF92223018B32B4D1FA46E071723D6817E2486D003BECC55F00 SSTORE PUSH2 0x105 DUP2 PUSH2 0x292 JUMP JUMPDEST PUSH2 0x120 MSTORE PUSH2 0x112 DUP5 PUSH2 0x42D JUMP JUMPDEST PUSH2 0x140 MSTORE MLOAD SWAP1 KECCAK256 SWAP2 DUP3 PUSH1 0xE0 MSTORE MLOAD SWAP1 KECCAK256 DUP1 PUSH2 0x100 MSTORE CHAINID PUSH1 0xA0 MSTORE PUSH1 0x40 MLOAD SWAP1 PUSH1 0x20 DUP3 ADD SWAP3 PUSH32 0x8B73C3C69BB8FE3D512ECC4CF759CC79239F7B179B0FFACAA9A75D522B39400F DUP5 MSTORE PUSH1 0x40 DUP4 ADD MSTORE PUSH1 0x60 DUP3 ADD MSTORE CHAINID PUSH1 0x80 DUP3 ADD MSTORE ADDRESS PUSH1 0xA0 DUP3 ADD MSTORE PUSH1 0xA0 DUP2 MSTORE PUSH2 0x17B PUSH1 0xC0 DUP3 PUSH2 0x247 JUMP JUMPDEST MLOAD SWAP1 KECCAK256 PUSH1 0x80 MSTORE ADDRESS PUSH1 0xC0 MSTORE PUSH1 0x1 PUSH1 0x1 PUSH1 0xA0 SHL SUB AND DUP1 ISZERO PUSH2 0x1F9 JUMPI PUSH1 0x3 DUP1 SLOAD PUSH1 0x1 PUSH1 0x1 PUSH1 0xA0 SHL SUB NOT AND SWAP2 SWAP1 SWAP2 OR SWAP1 SSTORE PUSH1 0x40 MLOAD PUSH2 0xEE5 SWAP1 DUP2 PUSH2 0x566 DUP3 CODECOPY PUSH1 0x80 MLOAD DUP2 PUSH2 0xA98 ADD MSTORE PUSH1 0xA0 MLOAD DUP2 PUSH2 0xB55 ADD MSTORE PUSH1 0xC0 MLOAD DUP2 PUSH2 0xA62 ADD MSTORE PUSH1 0xE0 MLOAD DUP2 PUSH2 0xAE7 ADD MSTORE PUSH2 0x100 MLOAD DUP2 PUSH2 0xB0D ADD MSTORE PUSH2 0x120 MLOAD DUP2 PUSH2 0x24C ADD MSTORE PUSH2 0x140 MLOAD DUP2 PUSH2 0x275 ADD MSTORE RETURN JUMPDEST PUSH1 0x40 MLOAD PUSH3 0x461BCD PUSH1 0xE5 SHL DUP2 MSTORE PUSH1 0x20 PUSH1 0x4 DUP3 ADD MSTORE PUSH1 0xF PUSH1 0x24 DUP3 ADD MSTORE PUSH15 0x292B1D103D32B9379039B4B3B732B9 PUSH1 0x89 SHL PUSH1 0x44 DUP3 ADD MSTORE PUSH1 0x64 SWAP1 REVERT JUMPDEST PUSH4 0x1E4FBDF7 PUSH1 0xE0 SHL PUSH0 MSTORE PUSH0 PUSH1 0x4 MSTORE PUSH1 0x24 PUSH0 REVERT JUMPDEST PUSH0 DUP1 REVERT JUMPDEST PUSH1 0x1F SWAP1 SWAP2 ADD PUSH1 0x1F NOT AND DUP2 ADD SWAP1 PUSH1 0x1 PUSH1 0x1 PUSH1 0x40 SHL SUB DUP3 GT SWAP1 DUP3 LT OR PUSH2 0x26A JUMPI PUSH1 0x40 MSTORE JUMP JUMPDEST PUSH4 0x4E487B71 PUSH1 0xE0 SHL PUSH0 MSTORE PUSH1 0x41 PUSH1 0x4 MSTORE PUSH1 0x24 PUSH0 REVERT JUMPDEST MLOAD SWAP1 PUSH1 0x1 PUSH1 0x1 PUSH1 0xA0 SHL SUB DUP3 AND DUP3 SUB PUSH2 0x243 JUMPI JUMP JUMPDEST SWAP1 DUP2 MLOAD PUSH1 0x20 DUP2 LT PUSH0 EQ PUSH2 0x30C JUMPI POP SWAP1 PUSH1 0x1F DUP2 MLOAD GT PUSH2 0x2CC JUMPI PUSH1 0x20 DUP2 MLOAD SWAP2 ADD MLOAD PUSH1 0x20 DUP3 LT PUSH2 0x2BD JUMPI OR SWAP1 JUMP JUMPDEST PUSH0 NOT DUP3 PUSH1 0x20 SUB PUSH1 0x3 SHL SHL AND OR SWAP1 JUMP JUMPDEST PUSH1 0x44 PUSH1 0x20 SWAP2 PUSH1 0x40 MLOAD SWAP3 DUP4 SWAP2 PUSH4 0x305A27A9 PUSH1 0xE0 SHL DUP4 MSTORE DUP2 PUSH1 0x4 DUP5 ADD MSTORE DUP1 MLOAD SWAP2 DUP3 SWAP2 DUP3 PUSH1 0x24 DUP7 ADD MSTORE ADD DUP5 DUP5 ADD MCOPY PUSH0 DUP3 DUP3 ADD DUP5 ADD MSTORE PUSH1 0x1F ADD PUSH1 0x1F NOT AND DUP2 ADD SUB ADD SWAP1 REVERT JUMPDEST PUSH1 0x1 PUSH1 0x1 PUSH1 0x40 SHL SUB DUP2 GT PUSH2 0x26A JUMPI PUSH1 0x1 SLOAD PUSH1 0x1 DUP2 DUP2 SHR SWAP2 AND DUP1 ISZERO PUSH2 0x423 JUMPI JUMPDEST PUSH1 0x20 DUP3 LT EQ PUSH2 0x40F JUMPI PUSH1 0x1F DUP2 GT PUSH2 0x3DC JUMPI JUMPDEST POP PUSH1 0x20 SWAP3 PUSH1 0x1F DUP3 GT PUSH1 0x1 EQ PUSH2 0x37B JUMPI SWAP3 DUP2 SWAP3 SWAP4 PUSH0 SWAP3 PUSH2 0x370 JUMPI JUMPDEST POP POP DUP2 PUSH1 0x1 SHL SWAP2 PUSH0 NOT SWAP1 PUSH1 0x3 SHL SHR NOT AND OR PUSH1 0x1 SSTORE PUSH1 0xFF SWAP1 JUMP JUMPDEST ADD MLOAD SWAP1 POP PUSH0 DUP1 PUSH2 0x357 JUMP JUMPDEST PUSH1 0x1F NOT DUP3 AND SWAP4 PUSH1 0x1 PUSH0 MSTORE DUP1 PUSH0 KECCAK256 SWAP2 PUSH0 JUMPDEST DUP7 DUP2 LT PUSH2 0x3C4 JUMPI POP DUP4 PUSH1 0x1 SWAP6 SWAP7 LT PUSH2 0x3AC JUMPI JUMPDEST POP POP POP DUP2 SHL ADD PUSH1 0x1 SSTORE PUSH1 0xFF SWAP1 JUMP JUMPDEST ADD MLOAD PUSH0 NOT PUSH1 0xF8 DUP5 PUSH1 0x3 SHL AND SHR NOT AND SWAP1 SSTORE PUSH0 DUP1 DUP1 PUSH2 0x39E JUMP JUMPDEST SWAP2 SWAP3 PUSH1 0x20 PUSH1 0x1 DUP2 SWAP3 DUP7 DUP6 ADD MLOAD DUP2 SSTORE ADD SWAP5 ADD SWAP3 ADD PUSH2 0x38B JUMP JUMPDEST PUSH1 0x1 PUSH0 MSTORE PUSH1 0x1F PUSH1 0x20 PUSH0 KECCAK256 SWAP2 ADD PUSH1 0x5 SHR DUP2 ADD SWAP1 PUSH1 0x1F DUP4 ADD PUSH1 0x5 SHR ADD JUMPDEST DUP2 DUP2 LT PUSH2 0x404 JUMPI POP PUSH2 0x33D JUMP JUMPDEST PUSH0 DUP2 SSTORE PUSH1 0x1 ADD PUSH2 0x3F7 JUMP JUMPDEST PUSH4 0x4E487B71 PUSH1 0xE0 SHL PUSH0 MSTORE PUSH1 0x22 PUSH1 0x4 MSTORE PUSH1 0x24 PUSH0 REVERT JUMPDEST SWAP1 PUSH1 0x7F AND SWAP1 PUSH2 0x32B JUMP JUMPDEST SWAP1 DUP2 MLOAD PUSH1 0x20 DUP2 LT PUSH0 EQ PUSH2 0x458 JUMPI POP SWAP1 PUSH1 0x1F DUP2 MLOAD GT PUSH2 0x2CC JUMPI PUSH1 0x20 DUP2 MLOAD SWAP2 ADD MLOAD PUSH1 0x20 DUP3 LT PUSH2 0x2BD JUMPI OR SWAP1 JUMP JUMPDEST PUSH1 0x1 PUSH1 0x1 PUSH1 0x40 SHL SUB DUP2 GT PUSH2 0x26A JUMPI PUSH1 0x2 SLOAD PUSH1 0x1 DUP2 DUP2 SHR SWAP2 AND DUP1 ISZERO PUSH2 0x55B JUMPI JUMPDEST PUSH1 0x20 DUP3 LT EQ PUSH2 0x40F JUMPI PUSH1 0x1F DUP2 GT PUSH2 0x528 JUMPI JUMPDEST POP PUSH1 0x20 SWAP3 PUSH1 0x1F DUP3 GT PUSH1 0x1 EQ PUSH2 0x4C7 JUMPI SWAP3 DUP2 SWAP3 SWAP4 PUSH0 SWAP3 PUSH2 0x4BC JUMPI JUMPDEST POP POP DUP2 PUSH1 0x1 SHL SWAP2 PUSH0 NOT SWAP1 PUSH1 0x3 SHL SHR NOT AND OR PUSH1 0x2 SSTORE PUSH1 0xFF SWAP1 JUMP JUMPDEST ADD MLOAD SWAP1 POP PUSH0 DUP1 PUSH2 0x4A3 JUMP JUMPDEST PUSH1 0x1F NOT DUP3 AND SWAP4 PUSH1 0x2 PUSH0 MSTORE DUP1 PUSH0 KECCAK256 SWAP2 PUSH0 JUMPDEST DUP7 DUP2 LT PUSH2 0x510 JUMPI POP DUP4 PUSH1 0x1 SWAP6 SWAP7 LT PUSH2 0x4F8 JUMPI JUMPDEST POP POP POP DUP2 SHL ADD PUSH1 0x2 SSTORE PUSH1 0xFF SWAP1 JUMP JUMPDEST ADD MLOAD PUSH0 NOT PUSH1 0xF8 DUP5 PUSH1 0x3 SHL AND SHR NOT AND SWAP1 SSTORE PUSH0 DUP1 DUP1 PUSH2 0x4EA JUMP JUMPDEST SWAP2 SWAP3 PUSH1 0x20 PUSH1 0x1 DUP2 SWAP3 DUP7 DUP6 ADD MLOAD DUP2 SSTORE ADD SWAP5 ADD SWAP3 ADD PUSH2 0x4D7 JUMP JUMPDEST PUSH1 0x2 PUSH0 MSTORE PUSH1 0x1F PUSH1 0x20 PUSH0 KECCAK256 SWAP2 ADD PUSH1 0x5 SHR DUP2 ADD SWAP1 PUSH1 0x1F DUP4 ADD PUSH1 0x5 SHR ADD JUMPDEST DUP2 DUP2 LT PUSH2 0x550 JUMPI POP PUSH2 0x489 JUMP JUMPDEST PUSH0 DUP2 SSTORE PUSH1 0x1 ADD PUSH2 0x543 JUMP JUMPDEST SWAP1 PUSH1 0x7F AND SWAP1 PUSH2 0x477 JUMP INVALID PUSH1 0x80 DUP1 PUSH1 0x40 MSTORE PUSH1 0x4 CALLDATASIZE LT ISZERO PUSH2 0x48 JUMPI JUMPDEST POP CALLDATASIZE ISZERO PUSH2 0x1A JUMPI PUSH0 DUP1 REVERT JUMPDEST PUSH1 0x40 MLOAD CALLVALUE DUP2 MSTORE PUSH32 0x2DA466A7B24304F47E87FA2E1E5A81B9831CE54FEC19055CE277CA2F39BA42C4 PUSH1 0x20 CALLER SWAP3 LOG2 STOP JUMPDEST PUSH0 CALLDATALOAD PUSH1 0xE0 SHR SWAP1 DUP2 PUSH4 0x4F618CB EQ PUSH2 0x879 JUMPI POP DUP1 PUSH4 0x238AC933 EQ PUSH2 0x851 JUMPI DUP1 PUSH4 0x6548B7AE EQ PUSH2 0x4A6 JUMPI DUP1 PUSH4 0x6B0509B1 EQ PUSH2 0x46C JUMPI DUP1 PUSH4 0x6C19E783 EQ PUSH2 0x3BF JUMPI DUP1 PUSH4 0x715018A6 EQ PUSH2 0x368 JUMPI DUP1 PUSH4 0x7ECEBE00 EQ PUSH2 0x32C JUMPI DUP1 PUSH4 0x84B0196E EQ PUSH2 0x234 JUMPI DUP1 PUSH4 0x8DA5CB5B EQ PUSH2 0x20D JUMPI DUP1 PUSH4 0xC884EF83 EQ PUSH2 0x1D1 JUMPI DUP1 PUSH4 0xD21CACDF EQ PUSH2 0x18D JUMPI DUP1 PUSH4 0xD54AD2A1 EQ PUSH2 0x170 JUMPI PUSH4 0xF2FDE38B EQ PUSH2 0xE3 JUMPI PUSH0 PUSH2 0xF JUMP JUMPDEST CALLVALUE PUSH2 0x16C JUMPI PUSH1 0x20 CALLDATASIZE PUSH1 0x3 NOT ADD SLT PUSH2 0x16C JUMPI PUSH1 0x4 CALLDATALOAD PUSH1 0x1 PUSH1 0x1 PUSH1 0xA0 SHL SUB DUP2 AND SWAP1 DUP2 SWAP1 SUB PUSH2 0x16C JUMPI PUSH2 0x111 PUSH2 0xA39 JUMP JUMPDEST DUP1 ISZERO PUSH2 0x159 JUMPI PUSH0 DUP1 SLOAD PUSH1 0x1 PUSH1 0x1 PUSH1 0xA0 SHL SUB NOT DUP2 AND DUP4 OR DUP3 SSTORE PUSH1 0x1 PUSH1 0x1 PUSH1 0xA0 SHL SUB AND SWAP1 PUSH32 0x8BE0079C531659141344CD1FD0A4F28419497F9722A3DAAFE3B4186F6B6457E0 SWAP1 DUP1 LOG3 STOP JUMPDEST PUSH4 0x1E4FBDF7 PUSH1 0xE0 SHL PUSH0 MSTORE PUSH0 PUSH1 0x4 MSTORE PUSH1 0x24 PUSH0 REVERT JUMPDEST PUSH0 DUP1 REVERT JUMPDEST CALLVALUE PUSH2 0x16C JUMPI PUSH0 CALLDATASIZE PUSH1 0x3 NOT ADD SLT PUSH2 0x16C JUMPI PUSH1 0x20 PUSH1 0x7 SLOAD PUSH1 0x40 MLOAD SWAP1 DUP2 MSTORE RETURN JUMPDEST CALLVALUE PUSH2 0x16C JUMPI PUSH1 0x20 CALLDATASIZE PUSH1 0x3 NOT ADD SLT PUSH2 0x16C JUMPI PUSH1 0x4 CALLDATALOAD PUSH1 0x1 PUSH1 0x1 PUSH1 0xA0 SHL SUB DUP2 AND SWAP1 DUP2 SWAP1 SUB PUSH2 0x16C JUMPI PUSH0 MSTORE PUSH1 0x4 PUSH1 0x20 MSTORE PUSH1 0x20 PUSH1 0x1 DUP1 PUSH1 0xA0 SHL SUB PUSH1 0x40 PUSH0 KECCAK256 SLOAD AND PUSH1 0x40 MLOAD SWAP1 DUP2 MSTORE RETURN JUMPDEST CALLVALUE PUSH2 0x16C JUMPI PUSH1 0x20 CALLDATASIZE PUSH1 0x3 NOT ADD SLT PUSH2 0x16C JUMPI PUSH1 0x4 CALLDATALOAD PUSH1 0x1 PUSH1 0x1 PUSH1 0xA0 SHL SUB DUP2 AND SWAP1 DUP2 SWAP1 SUB PUSH2 0x16C JUMPI PUSH0 MSTORE PUSH1 0x6 PUSH1 0x20 MSTORE PUSH1 0x20 PUSH1 0x40 PUSH0 KECCAK256 SLOAD PUSH1 0x40 MLOAD SWAP1 DUP2 MSTORE RETURN JUMPDEST CALLVALUE PUSH2 0x16C JUMPI PUSH0 CALLDATASIZE PUSH1 0x3 NOT ADD SLT PUSH2 0x16C JUMPI PUSH0 SLOAD PUSH1 0x40 MLOAD PUSH1 0x1 PUSH1 0x1 PUSH1 0xA0 SHL SUB SWAP1 SWAP2 AND DUP2 MSTORE PUSH1 0x20 SWAP1 RETURN JUMPDEST CALLVALUE PUSH2 0x16C JUMPI PUSH0 CALLDATASIZE PUSH1 0x3 NOT ADD SLT PUSH2 0x16C JUMPI PUSH2 0x2D0 PUSH2 0x270 PUSH32 0x0 PUSH2 0xC29 JUMP JUMPDEST PUSH2 0x299 PUSH32 0x0 PUSH2 0xD52 JUMP JUMPDEST PUSH1 0x20 PUSH2 0x2DE PUSH1 0x40 MLOAD SWAP3 PUSH2 0x2AC DUP4 DUP6 PUSH2 0x9DA JUMP JUMPDEST PUSH0 DUP5 MSTORE PUSH0 CALLDATASIZE DUP2 CALLDATACOPY PUSH1 0x40 MLOAD SWAP6 DUP7 SWAP6 PUSH1 0xF PUSH1 0xF8 SHL DUP8 MSTORE PUSH1 0xE0 DUP6 DUP9 ADD MSTORE PUSH1 0xE0 DUP8 ADD SWAP1 PUSH2 0x9B6 JUMP JUMPDEST SWAP1 DUP6 DUP3 SUB PUSH1 0x40 DUP8 ADD MSTORE PUSH2 0x9B6 JUMP JUMPDEST CHAINID PUSH1 0x60 DUP6 ADD MSTORE ADDRESS PUSH1 0x80 DUP6 ADD MSTORE PUSH0 PUSH1 0xA0 DUP6 ADD MSTORE DUP4 DUP2 SUB PUSH1 0xC0 DUP6 ADD MSTORE DUP2 DUP1 DUP5 MLOAD SWAP3 DUP4 DUP2 MSTORE ADD SWAP4 ADD SWAP2 PUSH0 JUMPDEST DUP3 DUP2 LT PUSH2 0x315 JUMPI POP POP POP POP SUB SWAP1 RETURN JUMPDEST DUP4 MLOAD DUP6 MSTORE DUP7 SWAP6 POP SWAP4 DUP2 ADD SWAP4 SWAP3 DUP2 ADD SWAP3 PUSH1 0x1 ADD PUSH2 0x306 JUMP JUMPDEST CALLVALUE PUSH2 0x16C JUMPI PUSH1 0x20 CALLDATASIZE PUSH1 0x3 NOT ADD SLT PUSH2 0x16C JUMPI PUSH1 0x4 CALLDATALOAD PUSH1 0x1 PUSH1 0x1 PUSH1 0xA0 SHL SUB DUP2 AND SWAP1 DUP2 SWAP1 SUB PUSH2 0x16C JUMPI PUSH0 MSTORE PUSH1 0x5 PUSH1 0x20 MSTORE PUSH1 0x20 PUSH1 0x40 PUSH0 KECCAK256 SLOAD PUSH1 0x40 MLOAD SWAP1 DUP2 MSTORE RETURN JUMPDEST CALLVALUE PUSH2 0x16C JUMPI PUSH0 CALLDATASIZE PUSH1 0x3 NOT ADD SLT PUSH2 0x16C JUMPI PUSH2 0x380 PUSH2 0xA39 JUMP JUMPDEST PUSH0 DUP1 SLOAD PUSH1 0x1 PUSH1 0x1 PUSH1 0xA0 SHL SUB NOT DUP2 AND DUP3 SSTORE PUSH1 0x1 PUSH1 0x1 PUSH1 0xA0 SHL SUB AND PUSH32 0x8BE0079C531659141344CD1FD0A4F28419497F9722A3DAAFE3B4186F6B6457E0 DUP3 DUP1 LOG3 STOP JUMPDEST CALLVALUE PUSH2 0x16C JUMPI PUSH1 0x20 CALLDATASIZE PUSH1 0x3 NOT ADD SLT PUSH2 0x16C JUMPI PUSH1 0x4 CALLDATALOAD PUSH1 0x1 PUSH1 0x1 PUSH1 0xA0 SHL SUB DUP2 AND SWAP1 DUP2 SWAP1 SUB PUSH2 0x16C JUMPI PUSH2 0x3ED PUSH2 0xA39 JUMP JUMPDEST DUP1 ISZERO PUSH2 0x435 JUMPI PUSH1 0x3 SLOAD DUP2 PUSH1 0x1 PUSH1 0x1 PUSH1 0xA0 SHL SUB DUP3 AND PUSH32 0x2D025324F0A785E8C12D0A0D91A9CAA49DF4EF20FF87E0DF7213A1D4F3157BEB PUSH0 DUP1 LOG3 PUSH1 0x1 PUSH1 0x1 PUSH1 0xA0 SHL SUB NOT AND OR PUSH1 0x3 SSTORE STOP JUMPDEST PUSH1 0x40 MLOAD PUSH3 0x461BCD PUSH1 0xE5 SHL DUP2 MSTORE PUSH1 0x20 PUSH1 0x4 DUP3 ADD MSTORE PUSH1 0xF PUSH1 0x24 DUP3 ADD MSTORE PUSH15 0x292B1D103D32B9379039B4B3B732B9 PUSH1 0x89 SHL PUSH1 0x44 DUP3 ADD MSTORE PUSH1 0x64 SWAP1 REVERT JUMPDEST CALLVALUE PUSH2 0x16C JUMPI PUSH0 CALLDATASIZE PUSH1 0x3 NOT ADD SLT PUSH2 0x16C JUMPI PUSH1 0x20 PUSH1 0x40 MLOAD PUSH32 0xD12D604CB88C2BA260114956673FA498973E9EC4BD7ACD67886835EB5C1F4F2F DUP2 MSTORE RETURN JUMPDEST CALLVALUE PUSH2 0x16C JUMPI PUSH1 0x80 CALLDATASIZE PUSH1 0x3 NOT ADD SLT PUSH2 0x16C JUMPI PUSH1 0x4 CALLDATALOAD PUSH1 0x24 CALLDATALOAD PUSH1 0x64 CALLDATALOAD PUSH1 0x44 CALLDATALOAD PUSH8 0xFFFFFFFFFFFFFFFF DUP3 GT PUSH2 0x16C JUMPI CALLDATASIZE PUSH1 0x23 DUP4 ADD SLT ISZERO PUSH2 0x16C JUMPI DUP2 PUSH1 0x4 ADD CALLDATALOAD SWAP2 PUSH8 0xFFFFFFFFFFFFFFFF DUP4 GT PUSH2 0x16C JUMPI CALLDATASIZE PUSH1 0x24 DUP5 DUP4 ADD ADD GT PUSH2 0x16C JUMPI PUSH1 0x2 PUSH32 0x9B779B17422D0DF92223018B32B4D1FA46E071723D6817E2486D003BECC55F00 SLOAD EQ PUSH2 0x842 JUMPI PUSH1 0x2 PUSH32 0x9B779B17422D0DF92223018B32B4D1FA46E071723D6817E2486D003BECC55F00 SSTORE DUP2 TIMESTAMP GT PUSH2 0x80F JUMPI CALLER PUSH0 MSTORE PUSH1 0x5 PUSH1 0x20 MSTORE PUSH1 0x40 PUSH0 KECCAK256 SLOAD DUP5 SUB PUSH2 0x7D6 JUMPI DUP5 ISZERO PUSH2 0x79F JUMPI PUSH2 0x620 SWAP3 PUSH0 PUSH1 0x20 PUSH1 0x42 PUSH2 0x617 SWAP6 PUSH1 0x40 MLOAD DUP4 DUP2 ADD SWAP2 PUSH32 0xD12D604CB88C2BA260114956673FA498973E9EC4BD7ACD67886835EB5C1F4F2F DUP4 MSTORE CALLER PUSH1 0x40 DUP4 ADD MSTORE DUP12 PUSH1 0x60 DUP4 ADD MSTORE DUP11 PUSH1 0x80 DUP4 ADD MSTORE PUSH1 0xA0 DUP3 ADD MSTORE PUSH1 0xA0 DUP2 MSTORE PUSH2 0x5C8 PUSH1 0xC0 DUP3 PUSH2 0x9DA JUMP JUMPDEST MLOAD SWAP1 KECCAK256 PUSH2 0x5D3 PUSH2 0xA5F JUMP JUMPDEST SWAP1 PUSH1 0x40 MLOAD SWAP2 PUSH2 0x1901 PUSH1 0xF0 SHL DUP4 MSTORE PUSH1 0x2 DUP4 ADD MSTORE PUSH1 0x22 DUP3 ADD MSTORE KECCAK256 SWAP3 DUP1 PUSH1 0x24 PUSH2 0x5F8 DUP3 PUSH2 0xA10 JUMP JUMPDEST SWAP7 PUSH2 0x606 PUSH1 0x40 MLOAD SWAP9 DUP10 PUSH2 0x9DA JUMP JUMPDEST DUP3 DUP9 MSTORE ADD DUP4 DUP8 ADD CALLDATACOPY DUP5 ADD ADD MSTORE PUSH2 0xB7B JUMP JUMPDEST SWAP1 SWAP3 SWAP2 SWAP3 PUSH2 0xBB5 JUMP JUMPDEST PUSH1 0x3 SLOAD PUSH1 0x1 PUSH1 0x1 PUSH1 0xA0 SHL SUB SWAP1 DUP2 AND SWAP2 AND SUB PUSH2 0x762 JUMPI CALLER PUSH0 MSTORE PUSH1 0x5 PUSH1 0x20 MSTORE PUSH1 0x40 PUSH0 KECCAK256 DUP1 SLOAD PUSH0 NOT DUP2 EQ PUSH2 0x74E JUMPI PUSH1 0x1 ADD SWAP1 SSTORE CALLER PUSH0 MSTORE PUSH1 0x6 PUSH1 0x20 MSTORE PUSH1 0x40 PUSH0 KECCAK256 PUSH2 0x667 DUP4 DUP3 SLOAD PUSH2 0xA2C JUMP JUMPDEST SWAP1 SSTORE PUSH2 0x675 DUP3 PUSH1 0x7 SLOAD PUSH2 0xA2C JUMP JUMPDEST PUSH1 0x7 SSTORE PUSH0 DUP1 DUP1 DUP1 DUP6 CALLER GAS CALL RETURNDATASIZE ISZERO PUSH2 0x749 JUMPI RETURNDATASIZE PUSH2 0x690 DUP2 PUSH2 0xA10 JUMP JUMPDEST SWAP1 PUSH2 0x69E PUSH1 0x40 MLOAD SWAP3 DUP4 PUSH2 0x9DA JUMP JUMPDEST DUP2 MSTORE PUSH0 PUSH1 0x20 RETURNDATASIZE SWAP3 ADD RETURNDATACOPY JUMPDEST ISZERO PUSH2 0x704 JUMPI PUSH1 0x40 MLOAD SWAP2 DUP3 MSTORE PUSH1 0x20 DUP3 ADD MSTORE PUSH32 0x987D620F307FF6B94D58743CB7A7509F24071586A77759B77C2D4E29F75A2F9A PUSH1 0x40 CALLER SWAP3 LOG2 PUSH1 0x1 PUSH32 0x9B779B17422D0DF92223018B32B4D1FA46E071723D6817E2486D003BECC55F00 SSTORE STOP JUMPDEST PUSH1 0x40 MLOAD PUSH3 0x461BCD PUSH1 0xE5 SHL DUP2 MSTORE PUSH1 0x20 PUSH1 0x4 DUP3 ADD MSTORE PUSH1 0x17 PUSH1 0x24 DUP3 ADD MSTORE PUSH32 0x52563A20424E42207472616E73666572206661696C6564000000000000000000 PUSH1 0x44 DUP3 ADD MSTORE PUSH1 0x64 SWAP1 REVERT JUMPDEST PUSH2 0x6A8 JUMP JUMPDEST PUSH4 0x4E487B71 PUSH1 0xE0 SHL PUSH0 MSTORE PUSH1 0x11 PUSH1 0x4 MSTORE PUSH1 0x24 PUSH0 REVERT JUMPDEST PUSH1 0x40 MLOAD PUSH3 0x461BCD PUSH1 0xE5 SHL DUP2 MSTORE PUSH1 0x20 PUSH1 0x4 DUP3 ADD MSTORE PUSH1 0x15 PUSH1 0x24 DUP3 ADD MSTORE PUSH21 0x52563A20696E76616C6964207369676E6174757265 PUSH1 0x58 SHL PUSH1 0x44 DUP3 ADD MSTORE PUSH1 0x64 SWAP1 REVERT JUMPDEST PUSH1 0x40 MLOAD PUSH3 0x461BCD PUSH1 0xE5 SHL DUP2 MSTORE PUSH1 0x20 PUSH1 0x4 DUP3 ADD MSTORE PUSH1 0xF PUSH1 0x24 DUP3 ADD MSTORE PUSH15 0x14958E881E995C9BC8185B5BDD5B9D PUSH1 0x8A SHL PUSH1 0x44 DUP3 ADD MSTORE PUSH1 0x64 SWAP1 REVERT JUMPDEST PUSH1 0x40 MLOAD PUSH3 0x461BCD PUSH1 0xE5 SHL DUP2 MSTORE PUSH1 0x20 PUSH1 0x4 DUP3 ADD MSTORE PUSH1 0x11 PUSH1 0x24 DUP3 ADD MSTORE PUSH17 0x52563A20696E76616C6964206E6F6E6365 PUSH1 0x78 SHL PUSH1 0x44 DUP3 ADD MSTORE PUSH1 0x64 SWAP1 REVERT JUMPDEST PUSH1 0x40 MLOAD PUSH3 0x461BCD PUSH1 0xE5 SHL DUP2 MSTORE PUSH1 0x20 PUSH1 0x4 DUP3 ADD MSTORE PUSH1 0xB PUSH1 0x24 DUP3 ADD MSTORE PUSH11 0x14958E88195E1C1A5C9959 PUSH1 0xAA SHL PUSH1 0x44 DUP3 ADD MSTORE PUSH1 0x64 SWAP1 REVERT JUMPDEST PUSH4 0x3EE5AEB5 PUSH1 0xE0 SHL PUSH0 MSTORE PUSH1 0x4 PUSH0 REVERT JUMPDEST CALLVALUE PUSH2 0x16C JUMPI PUSH0 CALLDATASIZE PUSH1 0x3 NOT ADD SLT PUSH2 0x16C JUMPI PUSH1 0x3 SLOAD PUSH1 0x40 MLOAD PUSH1 0x1 PUSH1 0x1 PUSH1 0xA0 SHL SUB SWAP1 SWAP2 AND DUP2 MSTORE PUSH1 0x20 SWAP1 RETURN JUMPDEST CALLVALUE PUSH2 0x16C JUMPI PUSH1 0x20 CALLDATASIZE PUSH1 0x3 NOT ADD SLT PUSH2 0x16C JUMPI PUSH1 0x4 CALLDATALOAD PUSH1 0x1 PUSH1 0x1 PUSH1 0xA0 SHL SUB DUP2 AND SWAP2 SWAP1 DUP3 SWAP1 SUB PUSH2 0x16C JUMPI DUP2 ISZERO PUSH2 0x980 JUMPI POP CALLER DUP2 EQ PUSH2 0x947 JUMPI CALLER PUSH0 SWAP1 DUP2 MSTORE PUSH1 0x4 PUSH1 0x20 MSTORE PUSH1 0x40 SWAP1 KECCAK256 SLOAD PUSH1 0x1 PUSH1 0x1 PUSH1 0xA0 SHL SUB AND PUSH2 0x90E JUMPI CALLER PUSH0 DUP2 DUP2 MSTORE PUSH1 0x4 PUSH1 0x20 MSTORE PUSH1 0x40 DUP2 KECCAK256 DUP1 SLOAD PUSH1 0x1 PUSH1 0x1 PUSH1 0xA0 SHL SUB NOT AND DUP5 OR SWAP1 SSTORE PUSH32 0xC4C2DDB91B0F73749131D376AD37CE7B01A69DC1B477ABC09377CF0E1D511B14 SWAP1 DUP1 LOG3 STOP JUMPDEST PUSH1 0x40 MLOAD PUSH3 0x461BCD PUSH1 0xE5 SHL DUP2 MSTORE PUSH1 0x20 PUSH1 0x4 DUP3 ADD MSTORE PUSH1 0x11 PUSH1 0x24 DUP3 ADD MSTORE PUSH17 0x14958E88185B1C9958591E48189BDD5B99 PUSH1 0x7A SHL PUSH1 0x44 DUP3 ADD MSTORE PUSH1 0x64 SWAP1 REVERT JUMPDEST PUSH1 0x40 MLOAD PUSH3 0x461BCD PUSH1 0xE5 SHL DUP2 MSTORE PUSH1 0x20 PUSH1 0x4 DUP3 ADD MSTORE PUSH1 0x11 PUSH1 0x24 DUP3 ADD MSTORE PUSH17 0x14958E881CD95B19881C9959995C9C985B PUSH1 0x7A SHL PUSH1 0x44 DUP3 ADD MSTORE PUSH1 0x64 SWAP1 REVERT JUMPDEST PUSH3 0x461BCD PUSH1 0xE5 SHL DUP2 MSTORE PUSH1 0x20 PUSH1 0x4 DUP3 ADD MSTORE PUSH1 0x11 PUSH1 0x24 DUP3 ADD MSTORE PUSH17 0x292B1D103D32B937903932B332B93932B9 PUSH1 0x79 SHL PUSH1 0x44 DUP3 ADD MSTORE PUSH1 0x64 SWAP1 REVERT JUMPDEST DUP1 MLOAD DUP1 DUP4 MSTORE PUSH1 0x20 SWAP3 SWAP2 DUP2 SWAP1 DUP5 ADD DUP5 DUP5 ADD MCOPY PUSH0 DUP3 DUP3 ADD DUP5 ADD MSTORE PUSH1 0x1F ADD PUSH1 0x1F NOT AND ADD ADD SWAP1 JUMP JUMPDEST SWAP1 PUSH1 0x1F DUP1 NOT SWAP2 ADD AND DUP2 ADD SWAP1 DUP2 LT PUSH8 0xFFFFFFFFFFFFFFFF DUP3 GT OR PUSH2 0x9FC JUMPI PUSH1 0x40 MSTORE JUMP JUMPDEST PUSH4 0x4E487B71 PUSH1 0xE0 SHL PUSH0 MSTORE PUSH1 0x41 PUSH1 0x4 MSTORE PUSH1 0x24 PUSH0 REVERT JUMPDEST PUSH8 0xFFFFFFFFFFFFFFFF DUP2 GT PUSH2 0x9FC JUMPI PUSH1 0x1F ADD PUSH1 0x1F NOT AND PUSH1 0x20 ADD SWAP1 JUMP JUMPDEST SWAP2 SWAP1 DUP3 ADD DUP1 SWAP3 GT PUSH2 0x74E JUMPI JUMP JUMPDEST PUSH0 SLOAD PUSH1 0x1 PUSH1 0x1 PUSH1 0xA0 SHL SUB AND CALLER SUB PUSH2 0xA4C JUMPI JUMP JUMPDEST PUSH4 0x118CDAA7 PUSH1 0xE0 SHL PUSH0 MSTORE CALLER PUSH1 0x4 MSTORE PUSH1 0x24 PUSH0 REVERT JUMPDEST ADDRESS PUSH32 0x0 PUSH1 0x1 PUSH1 0x1 PUSH1 0xA0 SHL SUB AND EQ DUP1 PUSH2 0xB52 JUMPI JUMPDEST ISZERO PUSH2 0xABA JUMPI PUSH32 0x0 SWAP1 JUMP JUMPDEST PUSH1 0x40 MLOAD PUSH1 0x20 DUP2 ADD SWAP1 PUSH32 0x8B73C3C69BB8FE3D512ECC4CF759CC79239F7B179B0FFACAA9A75D522B39400F DUP3 MSTORE PUSH32 0x0 PUSH1 0x40 DUP3 ADD MSTORE PUSH32 0x0 PUSH1 0x60 DUP3 ADD MSTORE CHAINID PUSH1 0x80 DUP3 ADD MSTORE ADDRESS PUSH1 0xA0 DUP3 ADD MSTORE PUSH1 0xA0 DUP2 MSTORE PUSH2 0xB4C PUSH1 0xC0 DUP3 PUSH2 0x9DA JUMP JUMPDEST MLOAD SWAP1 KECCAK256 SWAP1 JUMP JUMPDEST POP PUSH32 0x0 CHAINID EQ PUSH2 0xA91 JUMP JUMPDEST DUP2 MLOAD SWAP2 SWAP1 PUSH1 0x41 DUP4 SUB PUSH2 0xBAB JUMPI PUSH2 0xBA4 SWAP3 POP PUSH1 0x20 DUP3 ADD MLOAD SWAP1 PUSH1 0x60 PUSH1 0x40 DUP5 ADD MLOAD SWAP4 ADD MLOAD PUSH0 BYTE SWAP1 PUSH2 0xE22 JUMP JUMPDEST SWAP2 SWAP3 SWAP1 SWAP2 SWAP1 JUMP JUMPDEST POP POP PUSH0 SWAP2 PUSH1 0x2 SWAP2 SWAP1 JUMP JUMPDEST PUSH1 0x4 DUP2 LT ISZERO PUSH2 0xC15 JUMPI DUP1 PUSH2 0xBC7 JUMPI POP POP JUMP JUMPDEST PUSH1 0x1 DUP2 SUB PUSH2 0xBDE JUMPI PUSH4 0xF645EEDF PUSH1 0xE0 SHL PUSH0 MSTORE PUSH1 0x4 PUSH0 REVERT JUMPDEST PUSH1 0x2 DUP2 SUB PUSH2 0xBF9 JUMPI POP PUSH4 0xFCE698F7 PUSH1 0xE0 SHL PUSH0 MSTORE PUSH1 0x4 MSTORE PUSH1 0x24 PUSH0 REVERT JUMPDEST PUSH1 0x3 EQ PUSH2 0xC03 JUMPI POP JUMP JUMPDEST PUSH4 0x35E2F383 PUSH1 0xE2 SHL PUSH0 MSTORE PUSH1 0x4 MSTORE PUSH1 0x24 PUSH0 REVERT JUMPDEST PUSH4 0x4E487B71 PUSH1 0xE0 SHL PUSH0 MSTORE PUSH1 0x21 PUSH1 0x4 MSTORE PUSH1 0x24 PUSH0 REVERT JUMPDEST PUSH1 0xFF DUP2 EQ PUSH2 0xC6F JUMPI PUSH1 0xFF DUP2 AND SWAP1 PUSH1 0x1F DUP3 GT PUSH2 0xC60 JUMPI PUSH1 0x40 MLOAD SWAP2 PUSH2 0xC4D PUSH1 0x40 DUP5 PUSH2 0x9DA JUMP JUMPDEST PUSH1 0x20 DUP1 DUP5 MSTORE DUP4 DUP2 ADD SWAP2 SWAP1 CALLDATASIZE DUP4 CALLDATACOPY DUP4 MSTORE MSTORE SWAP1 JUMP JUMPDEST PUSH4 0x2CD44AC3 PUSH1 0xE2 SHL PUSH0 MSTORE PUSH1 0x4 PUSH0 REVERT JUMPDEST POP PUSH1 0x40 MLOAD PUSH0 PUSH1 0x1 SLOAD DUP1 PUSH1 0x1 SHR SWAP2 PUSH1 0x1 DUP3 AND SWAP2 DUP3 ISZERO PUSH2 0xD48 JUMPI JUMPDEST PUSH1 0x20 DUP5 LT DUP4 EQ PUSH2 0xD34 JUMPI DUP4 DUP6 MSTORE DUP5 SWAP3 SWAP1 DUP2 ISZERO PUSH2 0xD15 JUMPI POP PUSH1 0x1 EQ PUSH2 0xCB6 JUMPI JUMPDEST PUSH2 0xCB3 SWAP3 POP SUB DUP3 PUSH2 0x9DA JUMP JUMPDEST SWAP1 JUMP JUMPDEST POP PUSH1 0x1 PUSH0 SWAP1 DUP2 MSTORE SWAP1 SWAP2 PUSH32 0xB10E2D527612073B26EECDFD717E6A320CF44B4AFAC2B0732D9FCBE2B7FA0CF6 JUMPDEST DUP2 DUP4 LT PUSH2 0xCF9 JUMPI POP POP SWAP1 PUSH1 0x20 PUSH2 0xCB3 SWAP3 DUP3 ADD ADD PUSH2 0xCA7 JUMP JUMPDEST PUSH1 0x20 SWAP2 SWAP4 POP DUP1 PUSH1 0x1 SWAP2 SLOAD DUP4 DUP6 DUP9 ADD ADD MSTORE ADD SWAP2 ADD SWAP1 SWAP2 DUP4 SWAP3 PUSH2 0xCE1 JUMP JUMPDEST PUSH1 0x20 SWAP3 POP PUSH2 0xCB3 SWAP5 SWAP2 POP PUSH1 0xFF NOT AND DUP3 DUP5 ADD MSTORE ISZERO ISZERO PUSH1 0x5 SHL DUP3 ADD ADD PUSH2 0xCA7 JUMP JUMPDEST PUSH4 0x4E487B71 PUSH1 0xE0 SHL PUSH0 MSTORE PUSH1 0x22 PUSH1 0x4 MSTORE PUSH1 0x24 PUSH0 REVERT JUMPDEST SWAP3 PUSH1 0x7F AND SWAP3 PUSH2 0xC88 JUMP JUMPDEST PUSH1 0xFF DUP2 EQ PUSH2 0xD76 JUMPI PUSH1 0xFF DUP2 AND SWAP1 PUSH1 0x1F DUP3 GT PUSH2 0xC60 JUMPI PUSH1 0x40 MLOAD SWAP2 PUSH2 0xC4D PUSH1 0x40 DUP5 PUSH2 0x9DA JUMP JUMPDEST POP PUSH1 0x40 MLOAD PUSH0 PUSH1 0x2 SLOAD DUP1 PUSH1 0x1 SHR SWAP2 PUSH1 0x1 DUP3 AND SWAP2 DUP3 ISZERO PUSH2 0xE18 JUMPI JUMPDEST PUSH1 0x20 DUP5 LT DUP4 EQ PUSH2 0xD34 JUMPI DUP4 DUP6 MSTORE DUP5 SWAP3 SWAP1 DUP2 ISZERO PUSH2 0xD15 JUMPI POP PUSH1 0x1 EQ PUSH2 0xDB9 JUMPI PUSH2 0xCB3 SWAP3 POP SUB DUP3 PUSH2 0x9DA JUMP JUMPDEST POP PUSH1 0x2 PUSH0 SWAP1 DUP2 MSTORE SWAP1 SWAP2 PUSH32 0x405787FA12A823E0F2B7631CC41B3BA8828B3321CA811111FA75CD3AA3BB5ACE JUMPDEST DUP2 DUP4 LT PUSH2 0xDFC JUMPI POP POP SWAP1 PUSH1 0x20 PUSH2 0xCB3 SWAP3 DUP3 ADD ADD PUSH2 0xCA7 JUMP JUMPDEST PUSH1 0x20 SWAP2 SWAP4 POP DUP1 PUSH1 0x1 SWAP2 SLOAD DUP4 DUP6 DUP9 ADD ADD MSTORE ADD SWAP2 ADD SWAP1 SWAP2 DUP4 SWAP3 PUSH2 0xDE4 JUMP JUMPDEST SWAP3 PUSH1 0x7F AND SWAP3 PUSH2 0xD8F JUMP JUMPDEST SWAP2 SWAP1 PUSH32 0x7FFFFFFFFFFFFFFFFFFFFFFFFFFFFFFF5D576E7357A4501DDFE92F46681B20A0 DUP5 GT PUSH2 0xEA4 JUMPI SWAP2 PUSH1 0x20 SWAP4 PUSH1 0x80 SWAP3 PUSH1 0xFF PUSH0 SWAP6 PUSH1 0x40 MLOAD SWAP5 DUP6 MSTORE AND DUP7 DUP5 ADD MSTORE PUSH1 0x40 DUP4 ADD MSTORE PUSH1 0x60 DUP3 ADD MSTORE DUP3 DUP1 MSTORE PUSH1 0x1 GAS STATICCALL ISZERO PUSH2 0xE99 JUMPI PUSH0 MLOAD PUSH1 0x1 PUSH1 0x1 PUSH1 0xA0 SHL SUB DUP2 AND ISZERO PUSH2 0xE8F JUMPI SWAP1 PUSH0 SWAP1 PUSH0 SWAP1 JUMP JUMPDEST POP PUSH0 SWAP1 PUSH1 0x1 SWAP1 PUSH0 SWAP1 JUMP JUMPDEST PUSH1 0x40 MLOAD RETURNDATASIZE PUSH0 DUP3 RETURNDATACOPY RETURNDATASIZE SWAP1 REVERT JUMPDEST POP POP POP PUSH0 SWAP2 PUSH1 0x3 SWAP2 SWAP1 JUMP INVALID LOG2 PUSH5 0x6970667358 0x22 SLT KECCAK256 0xB5 0xC5 0xC6 0xB8 0xD8 0xB2 JUMPI SLT SWAP3 0xD4 0xAF 0xD2 SLT PUSH13 0xF4AF92E883B5F3226911077D19 PUSH23 0x4D7FF7F64736F6C634300081C00330000000000000000 "},"methodIdentifiers":{"CLAIM_TYPEHASH()":"6b0509b1","bindReferrer(address)":"04f618cb","claim(uint256,uint256,uint256,bytes)":"6548b7ae","claimed(address)":"c884ef83","eip712Domain()":"84b0196e","nonces(address)":"7ecebe00","owner()":"8da5cb5b","referrerOf(address)":"d21cacdf","renounceOwnership()":"715018a6","setSigner(address)":"6c19e783","signer()":"238ac933","totalClaimed()":"d54ad2a1","transferOwnership(address)":"f2fde38b"}}}}}