{"contracts/CNovaWrappedToken.sol":{"CNovaWrappedToken":{"abi":[{"inputs":[{"internalType":"string","name":"name_","type":"string"},{"internalType":"string","name":"symbol_","type":"string"},{"internalType":"uint8","name":"decimals_","type":"uint8"},{"internalType":"address","name":"initialOwner_","type":"address"}],"stateMutability":"nonpayable","type":"constructor"},{"inputs":[{"internalType":"address","name":"spender","type":"address"},{"internalType":"uint256","name":"allowance","type":"uint256"},{"internalType":"uint256","name":"needed","type":"uint256"}],"name":"ERC20InsufficientAllowance","type":"error"},{"inputs":[{"internalType":"address","name":"sender","type":"address"},{"internalType":"uint256","name":"balance","type":"uint256"},{"internalType":"uint256","name":"needed","type":"uint256"}],"name":"ERC20InsufficientBalance","type":"error"},{"inputs":[{"internalType":"address","name":"approver","type":"address"}],"name":"ERC20InvalidApprover","type":"error"},{"inputs":[{"internalType":"address","name":"receiver","type":"address"}],"name":"ERC20InvalidReceiver","type":"error"},{"inputs":[{"internalType":"address","name":"sender","type":"address"}],"name":"ERC20InvalidSender","type":"error"},{"inputs":[{"internalType":"address","name":"spender","type":"address"}],"name":"ERC20InvalidSpender","type":"error"},{"inputs":[],"name":"OnlyBridge","type":"error"},{"inputs":[{"internalType":"address","name":"owner","type":"address"}],"name":"OwnableInvalidOwner","type":"error"},{"inputs":[{"internalType":"address","name":"account","type":"address"}],"name":"OwnableUnauthorizedAccount","type":"error"},{"inputs":[],"name":"ZeroAddress","type":"error"},{"anonymous":false,"inputs":[{"indexed":true,"internalType":"address","name":"owner","type":"address"},{"indexed":true,"internalType":"address","name":"spender","type":"address"},{"indexed":false,"internalType":"uint256","name":"value","type":"uint256"}],"name":"Approval","type":"event"},{"anonymous":false,"inputs":[{"indexed":true,"internalType":"address","name":"oldBridge","type":"address"},{"indexed":true,"internalType":"address","name":"newBridge","type":"address"}],"name":"BridgeUpdated","type":"event"},{"anonymous":false,"inputs":[{"indexed":true,"internalType":"address","name":"previousOwner","type":"address"},{"indexed":true,"internalType":"address","name":"newOwner","type":"address"}],"name":"OwnershipTransferred","type":"event"},{"anonymous":false,"inputs":[{"indexed":true,"internalType":"address","name":"from","type":"address"},{"indexed":true,"internalType":"address","name":"to","type":"address"},{"indexed":false,"internalType":"uint256","name":"value","type":"uint256"}],"name":"Transfer","type":"event"},{"inputs":[{"internalType":"address","name":"owner","type":"address"},{"internalType":"address","name":"spender","type":"address"}],"name":"allowance","outputs":[{"internalType":"uint256","name":"","type":"uint256"}],"stateMutability":"view","type":"function"},{"inputs":[{"internalType":"address","name":"spender","type":"address"},{"internalType":"uint256","name":"value","type":"uint256"}],"name":"approve","outputs":[{"internalType":"bool","name":"","type":"bool"}],"stateMutability":"nonpayable","type":"function"},{"inputs":[{"internalType":"address","name":"account","type":"address"}],"name":"balanceOf","outputs":[{"internalType":"uint256","name":"","type":"uint256"}],"stateMutability":"view","type":"function"},{"inputs":[],"name":"bridge","outputs":[{"internalType":"address","name":"","type":"address"}],"stateMutability":"view","type":"function"},{"inputs":[{"internalType":"address","name":"from","type":"address"},{"internalType":"uint256","name":"amount","type":"uint256"}],"name":"burnFromBridge","outputs":[],"stateMutability":"nonpayable","type":"function"},{"inputs":[],"name":"decimals","outputs":[{"internalType":"uint8","name":"","type":"uint8"}],"stateMutability":"view","type":"function"},{"inputs":[{"internalType":"address","name":"to","type":"address"},{"internalType":"uint256","name":"amount","type":"uint256"}],"name":"mint","outputs":[],"stateMutability":"nonpayable","type":"function"},{"inputs":[],"name":"name","outputs":[{"internalType":"string","name":"","type":"string"}],"stateMutability":"view","type":"function"},{"inputs":[],"name":"owner","outputs":[{"internalType":"address","name":"","type":"address"}],"stateMutability":"view","type":"function"},{"inputs":[],"name":"renounceOwnership","outputs":[],"stateMutability":"nonpayable","type":"function"},{"inputs":[{"internalType":"address","name":"newBridge","type":"address"}],"name":"setBridge","outputs":[],"stateMutability":"nonpayable","type":"function"},{"inputs":[],"name":"symbol","outputs":[{"internalType":"string","name":"","type":"string"}],"stateMutability":"view","type":"function"},{"inputs":[],"name":"totalSupply","outputs":[{"internalType":"uint256","name":"","type":"uint256"}],"stateMutability":"view","type":"function"},{"inputs":[{"internalType":"address","name":"to","type":"address"},{"internalType":"uint256","name":"value","type":"uint256"}],"name":"transfer","outputs":[{"internalType":"bool","name":"","type":"bool"}],"stateMutability":"nonpayable","type":"function"},{"inputs":[{"internalType":"address","name":"from","type":"address"},{"internalType":"address","name":"to","type":"address"},{"internalType":"uint256","name":"value","type":"uint256"}],"name":"transferFrom","outputs":[{"internalType":"bool","name":"","type":"bool"}],"stateMutability":"nonpayable","type":"function"},{"inputs":[{"internalType":"address","name":"newOwner","type":"address"}],"name":"transferOwnership","outputs":[],"stateMutability":"nonpayable","type":"function"}],"evm":{"bytecode":{"linkReferences":{},"object":"6080604052346103aa57610dbc80380380610019816103ae565b9283398101906080818303126103aa5780516001600160401b0381116103aa57826100459183016103d3565b602082015190926001600160401b0382116103aa576100659183016103d3565b9060408101519060ff821682036103aa57606001516001600160a01b038116908190036103aa5783516001600160401b0381116102bb57600354600181811c911680156103a0575b602082101461029d57601f811161033d575b50602094601f82116001146102da579481929394955f926102cf575b50508160011b915f199060031b1c1916176003555b82516001600160401b0381116102bb57600454600181811c911680156102b1575b602082101461029d57601f811161023a575b506020601f82116001146101d757819293945f926101cc575b50508160011b915f199060031b1c1916176004555b80156101b95760055460405192909190816001600160a01b0384167f8be0079c531659141344cd1fd0a4f28419497f9722a3daafe3b4186f6b6457e05f80a36001600160a81b03199092161760a09190911b60ff60a01b161760055561099790816104258239f35b631e4fbdf760e01b5f525f60045260245ffd5b015190505f8061013c565b601f1982169060045f52805f20915f5b8181106102225750958360019596971061020a575b505050811b01600455610151565b01515f1960f88460031b161c191690555f80806101fc565b9192602060018192868b0151815501940192016101e7565b60045f527f8a35acfbc15ff81a39ae7d344fd709f28e8600b4aa8c65c6b64bfe7fe36bd19b601f830160051c81019160208410610293575b601f0160051c01905b8181106102885750610123565b5f815560010161027b565b9091508190610272565b634e487b7160e01b5f52602260045260245ffd5b90607f1690610111565b634e487b7160e01b5f52604160045260245ffd5b015190505f806100db565b601f1982169560035f52805f20915f5b8881106103255750836001959697981061030d575b505050811b016003556100f0565b01515f1960f88460031b161c191690555f80806102ff565b919260206001819286850151815501940192016102ea565b60035f527fc2575a0e9e593c00f959f8c92f12db2869c3395a3b0502d05e2516446f71f85b601f830160051c81019160208410610396575b601f0160051c01905b81811061038b57506100bf565b5f815560010161037e565b9091508190610375565b90607f16906100ad565b5f80fd5b6040519190601f01601f191682016001600160401b038111838210176102bb57604052565b81601f820112156103aa578051906001600160401b0382116102bb57610402601f8301601f19166020016103ae565b92828452602083830101116103aa57815f9260208093018386015e830101529056fe6080806040526004361015610012575f80fd5b5f3560e01c90816306fdde031461077e57508063095ea7b3146106fc57806318160ddd146106df57806323b872dd14610600578063313ce567146105dd57806340c10f1914610526578063568b4afe1461045557806370a082311461041e578063715018a6146103c35780638da5cb5b1461039b5780638dd148021461031a57806395d89b41146101ff578063a9059cbb146101ce578063dd62ed3e1461017e578063e78cea92146101565763f2fde38b146100cc575f80fd5b34610152576020366003190112610152576100e5610877565b6100ed61093a565b6001600160a01b0316801561013f57600580546001600160a01b0319811683179091556001600160a01b03167f8be0079c531659141344cd1fd0a4f28419497f9722a3daafe3b4186f6b6457e05f80a3005b631e4fbdf760e01b5f525f60045260245ffd5b5f80fd5b34610152575f366003190112610152576006546040516001600160a01b039091168152602090f35b3461015257604036600319011261015257610197610877565b61019f61088d565b6001600160a01b039182165f908152600160209081526040808320949093168252928352819020549051908152f35b34610152576040366003190112610152576101f46101ea610877565b60243590336108a3565b602060405160018152f35b34610152575f366003190112610152576040515f6004548060011c90600181168015610310575b6020831081146102fc578285529081156102e0575060011461028b575b50819003601f01601f191681019067ffffffffffffffff821181831017610277576102738291826040528261084d565b0390f35b634e487b7160e01b5f52604160045260245ffd5b905060045f527f8a35acfbc15ff81a39ae7d344fd709f28e8600b4aa8c65c6b64bfe7fe36bd19b5f905b8282106102ca57506020915082010182610243565b60018160209254838588010152019101906102b5565b90506020925060ff191682840152151560051b82010182610243565b634e487b7160e01b5f52602260045260245ffd5b91607f1691610226565b3461015257602036600319011261015257610333610877565b61033b61093a565b6001600160a01b0316801561038c57600654816001600160a01b0382167faae9beddccf584528e87b66c6ff2563825c8a1433305b8a656e9b5f9bf3904995f80a36001600160a01b03191617600655005b63d92e233d60e01b5f5260045ffd5b34610152575f366003190112610152576005546040516001600160a01b039091168152602090f35b34610152575f366003190112610152576103db61093a565b600580546001600160a01b031981169091555f906001600160a01b03167f8be0079c531659141344cd1fd0a4f28419497f9722a3daafe3b4186f6b6457e08280a3005b34610152576020366003190112610152576001600160a01b0361043f610877565b165f525f602052602060405f2054604051908152f35b346101525760403660031901126101525761046e610877565b60065460243591906001600160a01b03163303610517576001600160a01b0316801561050457805f525f60205260405f20548281106104eb576020835f947fddf252ad1be2c89b69c2b068fc378daa952ba7f163c4a11628f55a4df523b3ef938587528684520360408620558060025403600255604051908152a3005b9063391434e360e21b5f5260045260245260445260645ffd5b634b637e8f60e11b5f525f60045260245ffd5b6338da3b1560e01b5f5260045ffd5b346101525760403660031901126101525761053f610877565b60065460243591906001600160a01b03163303610517576001600160a01b03169081156105ca57600254908082018092116105b65760207fddf252ad1be2c89b69c2b068fc378daa952ba7f163c4a11628f55a4df523b3ef915f9360025584845283825260408420818154019055604051908152a3005b634e487b7160e01b5f52601160045260245ffd5b63ec442f0560e01b5f525f60045260245ffd5b34610152575f36600319011261015257602060ff60055460a01c16604051908152f35b3461015257606036600319011261015257610619610877565b61062161088d565b6001600160a01b0382165f818152600160209081526040808320338452909152902054909260443592915f19811061065f575b506101f493506108a3565b8381106106c45784156106b157331561069e576101f4945f52600160205260405f2060018060a01b0333165f526020528360405f209103905584610654565b634a1406b160e11b5f525f60045260245ffd5b63e602df0560e01b5f525f60045260245ffd5b8390637dc7a0d960e11b5f523360045260245260445260645ffd5b34610152575f366003190112610152576020600254604051908152f35b3461015257604036600319011261015257610715610877565b6024359033156106b1576001600160a01b031690811561069e57335f52600160205260405f20825f526020528060405f20556040519081527f8c5be1e5ebec7d5bd14f71427d1e84f3dd0314c0f7b2291e5b200ac8c7c3b92560203392a3602060405160018152f35b34610152575f366003190112610152575f6003548060011c90600181168015610843575b6020831081146102fc578285529081156102e057506001146107ee5750819003601f01601f191681019067ffffffffffffffff821181831017610277576102738291826040528261084d565b905060035f527fc2575a0e9e593c00f959f8c92f12db2869c3395a3b0502d05e2516446f71f85b5f905b82821061082d57506020915082010182610243565b6001816020925483858801015201910190610818565b91607f16916107a2565b602060409281835280519182918282860152018484015e5f828201840152601f01601f1916010190565b600435906001600160a01b038216820361015257565b602435906001600160a01b038216820361015257565b6001600160a01b0316908115610504576001600160a01b03169182156105ca57815f525f60205260405f205481811061092157817fddf252ad1be2c89b69c2b068fc378daa952ba7f163c4a11628f55a4df523b3ef92602092855f525f84520360405f2055845f525f825260405f20818154019055604051908152a3565b8263391434e360e21b5f5260045260245260445260645ffd5b6005546001600160a01b0316330361094e57565b63118cdaa760e01b5f523360045260245ffdfea264697066735822122061265460ebfc3c420c15f5d0080b31cd29b0ab8d7fc8802517ea77b9d630496c64736f6c634300081c0033","opcodes":"PUSH1 0x80 PUSH1 0x40 MSTORE CALLVALUE PUSH2 0x3AA JUMPI PUSH2 0xDBC DUP1 CODESIZE SUB DUP1 PUSH2 0x19 DUP2 PUSH2 0x3AE JUMP JUMPDEST SWAP3 DUP4 CODECOPY DUP2 ADD SWAP1 PUSH1 0x80 DUP2 DUP4 SUB SLT PUSH2 0x3AA JUMPI DUP1 MLOAD PUSH1 0x1 PUSH1 0x1 PUSH1 0x40 SHL SUB DUP2 GT PUSH2 0x3AA JUMPI DUP3 PUSH2 0x45 SWAP2 DUP4 ADD PUSH2 0x3D3 JUMP JUMPDEST PUSH1 0x20 DUP3 ADD MLOAD SWAP1 SWAP3 PUSH1 0x1 PUSH1 0x1 PUSH1 0x40 SHL SUB DUP3 GT PUSH2 0x3AA JUMPI PUSH2 0x65 SWAP2 DUP4 ADD PUSH2 0x3D3 JUMP JUMPDEST SWAP1 PUSH1 0x40 DUP2 ADD MLOAD SWAP1 PUSH1 0xFF DUP3 AND DUP3 SUB PUSH2 0x3AA JUMPI PUSH1 0x60 ADD MLOAD PUSH1 0x1 PUSH1 0x1 PUSH1 0xA0 SHL SUB DUP2 AND SWAP1 DUP2 SWAP1 SUB PUSH2 0x3AA JUMPI DUP4 MLOAD PUSH1 0x1 PUSH1 0x1 PUSH1 0x40 SHL SUB DUP2 GT PUSH2 0x2BB JUMPI PUSH1 0x3 SLOAD PUSH1 0x1 DUP2 DUP2 SHR SWAP2 AND DUP1 ISZERO PUSH2 0x3A0 JUMPI JUMPDEST PUSH1 0x20 DUP3 LT EQ PUSH2 0x29D JUMPI PUSH1 0x1F DUP2 GT PUSH2 0x33D JUMPI JUMPDEST POP PUSH1 0x20 SWAP5 PUSH1 0x1F DUP3 GT PUSH1 0x1 EQ PUSH2 0x2DA JUMPI SWAP5 DUP2 SWAP3 SWAP4 SWAP5 SWAP6 PUSH0 SWAP3 PUSH2 0x2CF JUMPI JUMPDEST POP POP DUP2 PUSH1 0x1 SHL SWAP2 PUSH0 NOT SWAP1 PUSH1 0x3 SHL SHR NOT AND OR PUSH1 0x3 SSTORE JUMPDEST DUP3 MLOAD PUSH1 0x1 PUSH1 0x1 PUSH1 0x40 SHL SUB DUP2 GT PUSH2 0x2BB JUMPI PUSH1 0x4 SLOAD PUSH1 0x1 DUP2 DUP2 SHR SWAP2 AND DUP1 ISZERO PUSH2 0x2B1 JUMPI JUMPDEST PUSH1 0x20 DUP3 LT EQ PUSH2 0x29D JUMPI PUSH1 0x1F DUP2 GT PUSH2 0x23A JUMPI JUMPDEST POP PUSH1 0x20 PUSH1 0x1F DUP3 GT PUSH1 0x1 EQ PUSH2 0x1D7 JUMPI DUP2 SWAP3 SWAP4 SWAP5 PUSH0 SWAP3 PUSH2 0x1CC JUMPI JUMPDEST POP POP DUP2 PUSH1 0x1 SHL SWAP2 PUSH0 NOT SWAP1 PUSH1 0x3 SHL SHR NOT AND OR PUSH1 0x4 SSTORE JUMPDEST DUP1 ISZERO PUSH2 0x1B9 JUMPI PUSH1 0x5 SLOAD PUSH1 0x40 MLOAD SWAP3 SWAP1 SWAP2 SWAP1 DUP2 PUSH1 0x1 PUSH1 0x1 PUSH1 0xA0 SHL SUB DUP5 AND PUSH32 0x8BE0079C531659141344CD1FD0A4F28419497F9722A3DAAFE3B4186F6B6457E0 PUSH0 DUP1 LOG3 PUSH1 0x1 PUSH1 0x1 PUSH1 0xA8 SHL SUB NOT SWAP1 SWAP3 AND OR PUSH1 0xA0 SWAP2 SWAP1 SWAP2 SHL PUSH1 0xFF PUSH1 0xA0 SHL AND OR PUSH1 0x5 SSTORE PUSH2 0x997 SWAP1 DUP2 PUSH2 0x425 DUP3 CODECOPY RETURN JUMPDEST PUSH4 0x1E4FBDF7 PUSH1 0xE0 SHL PUSH0 MSTORE PUSH0 PUSH1 0x4 MSTORE PUSH1 0x24 PUSH0 REVERT JUMPDEST ADD MLOAD SWAP1 POP PUSH0 DUP1 PUSH2 0x13C JUMP JUMPDEST PUSH1 0x1F NOT DUP3 AND SWAP1 PUSH1 0x4 PUSH0 MSTORE DUP1 PUSH0 KECCAK256 SWAP2 PUSH0 JUMPDEST DUP2 DUP2 LT PUSH2 0x222 JUMPI POP SWAP6 DUP4 PUSH1 0x1 SWAP6 SWAP7 SWAP8 LT PUSH2 0x20A JUMPI JUMPDEST POP POP POP DUP2 SHL ADD PUSH1 0x4 SSTORE PUSH2 0x151 JUMP JUMPDEST ADD MLOAD PUSH0 NOT PUSH1 0xF8 DUP5 PUSH1 0x3 SHL AND SHR NOT AND SWAP1 SSTORE PUSH0 DUP1 DUP1 PUSH2 0x1FC JUMP JUMPDEST SWAP2 SWAP3 PUSH1 0x20 PUSH1 0x1 DUP2 SWAP3 DUP7 DUP12 ADD MLOAD DUP2 SSTORE ADD SWAP5 ADD SWAP3 ADD PUSH2 0x1E7 JUMP JUMPDEST PUSH1 0x4 PUSH0 MSTORE PUSH32 0x8A35ACFBC15FF81A39AE7D344FD709F28E8600B4AA8C65C6B64BFE7FE36BD19B PUSH1 0x1F DUP4 ADD PUSH1 0x5 SHR DUP2 ADD SWAP2 PUSH1 0x20 DUP5 LT PUSH2 0x293 JUMPI JUMPDEST PUSH1 0x1F ADD PUSH1 0x5 SHR ADD SWAP1 JUMPDEST DUP2 DUP2 LT PUSH2 0x288 JUMPI POP PUSH2 0x123 JUMP JUMPDEST PUSH0 DUP2 SSTORE PUSH1 0x1 ADD PUSH2 0x27B JUMP JUMPDEST SWAP1 SWAP2 POP DUP2 SWAP1 PUSH2 0x272 JUMP JUMPDEST PUSH4 0x4E487B71 PUSH1 0xE0 SHL PUSH0 MSTORE PUSH1 0x22 PUSH1 0x4 MSTORE PUSH1 0x24 PUSH0 REVERT JUMPDEST SWAP1 PUSH1 0x7F AND SWAP1 PUSH2 0x111 JUMP JUMPDEST PUSH4 0x4E487B71 PUSH1 0xE0 SHL PUSH0 MSTORE PUSH1 0x41 PUSH1 0x4 MSTORE PUSH1 0x24 PUSH0 REVERT JUMPDEST ADD MLOAD SWAP1 POP PUSH0 DUP1 PUSH2 0xDB JUMP JUMPDEST PUSH1 0x1F NOT DUP3 AND SWAP6 PUSH1 0x3 PUSH0 MSTORE DUP1 PUSH0 KECCAK256 SWAP2 PUSH0 JUMPDEST DUP9 DUP2 LT PUSH2 0x325 JUMPI POP DUP4 PUSH1 0x1 SWAP6 SWAP7 SWAP8 SWAP9 LT PUSH2 0x30D JUMPI JUMPDEST POP POP POP DUP2 SHL ADD PUSH1 0x3 SSTORE PUSH2 0xF0 JUMP JUMPDEST ADD MLOAD PUSH0 NOT PUSH1 0xF8 DUP5 PUSH1 0x3 SHL AND SHR NOT AND SWAP1 SSTORE PUSH0 DUP1 DUP1 PUSH2 0x2FF JUMP JUMPDEST SWAP2 SWAP3 PUSH1 0x20 PUSH1 0x1 DUP2 SWAP3 DUP7 DUP6 ADD MLOAD DUP2 SSTORE ADD SWAP5 ADD SWAP3 ADD PUSH2 0x2EA JUMP JUMPDEST PUSH1 0x3 PUSH0 MSTORE PUSH32 0xC2575A0E9E593C00F959F8C92F12DB2869C3395A3B0502D05E2516446F71F85B PUSH1 0x1F DUP4 ADD PUSH1 0x5 SHR DUP2 ADD SWAP2 PUSH1 0x20 DUP5 LT PUSH2 0x396 JUMPI JUMPDEST PUSH1 0x1F ADD PUSH1 0x5 SHR ADD SWAP1 JUMPDEST DUP2 DUP2 LT PUSH2 0x38B JUMPI POP PUSH2 0xBF JUMP JUMPDEST PUSH0 DUP2 SSTORE PUSH1 0x1 ADD PUSH2 0x37E JUMP JUMPDEST SWAP1 SWAP2 POP DUP2 SWAP1 PUSH2 0x375 JUMP JUMPDEST SWAP1 PUSH1 0x7F AND SWAP1 PUSH2 0xAD JUMP JUMPDEST PUSH0 DUP1 REVERT JUMPDEST PUSH1 0x40 MLOAD SWAP2 SWAP1 PUSH1 0x1F ADD PUSH1 0x1F NOT AND DUP3 ADD PUSH1 0x1 PUSH1 0x1 PUSH1 0x40 SHL SUB DUP2 GT DUP4 DUP3 LT OR PUSH2 0x2BB JUMPI PUSH1 0x40 MSTORE JUMP JUMPDEST DUP2 PUSH1 0x1F DUP3 ADD SLT ISZERO PUSH2 0x3AA JUMPI DUP1 MLOAD SWAP1 PUSH1 0x1 PUSH1 0x1 PUSH1 0x40 SHL SUB DUP3 GT PUSH2 0x2BB JUMPI PUSH2 0x402 PUSH1 0x1F DUP4 ADD PUSH1 0x1F NOT AND PUSH1 0x20 ADD PUSH2 0x3AE JUMP JUMPDEST SWAP3 DUP3 DUP5 MSTORE PUSH1 0x20 DUP4 DUP4 ADD ADD GT PUSH2 0x3AA JUMPI DUP2 PUSH0 SWAP3 PUSH1 0x20 DUP1 SWAP4 ADD DUP4 DUP7 ADD MCOPY DUP4 ADD ADD MSTORE SWAP1 JUMP INVALID PUSH1 0x80 DUP1 PUSH1 0x40 MSTORE PUSH1 0x4 CALLDATASIZE LT ISZERO PUSH2 0x12 JUMPI PUSH0 DUP1 REVERT JUMPDEST PUSH0 CALLDATALOAD PUSH1 0xE0 SHR SWAP1 DUP2 PUSH4 0x6FDDE03 EQ PUSH2 0x77E JUMPI POP DUP1 PUSH4 0x95EA7B3 EQ PUSH2 0x6FC JUMPI DUP1 PUSH4 0x18160DDD EQ PUSH2 0x6DF JUMPI DUP1 PUSH4 0x23B872DD EQ PUSH2 0x600 JUMPI DUP1 PUSH4 0x313CE567 EQ PUSH2 0x5DD JUMPI DUP1 PUSH4 0x40C10F19 EQ PUSH2 0x526 JUMPI DUP1 PUSH4 0x568B4AFE EQ PUSH2 0x455 JUMPI DUP1 PUSH4 0x70A08231 EQ PUSH2 0x41E JUMPI DUP1 PUSH4 0x715018A6 EQ PUSH2 0x3C3 JUMPI DUP1 PUSH4 0x8DA5CB5B EQ PUSH2 0x39B JUMPI DUP1 PUSH4 0x8DD14802 EQ PUSH2 0x31A JUMPI DUP1 PUSH4 0x95D89B41 EQ PUSH2 0x1FF JUMPI DUP1 PUSH4 0xA9059CBB EQ PUSH2 0x1CE JUMPI DUP1 PUSH4 0xDD62ED3E EQ PUSH2 0x17E JUMPI DUP1 PUSH4 0xE78CEA92 EQ PUSH2 0x156 JUMPI PUSH4 0xF2FDE38B EQ PUSH2 0xCC JUMPI PUSH0 DUP1 REVERT JUMPDEST CALLVALUE PUSH2 0x152 JUMPI PUSH1 0x20 CALLDATASIZE PUSH1 0x3 NOT ADD SLT PUSH2 0x152 JUMPI PUSH2 0xE5 PUSH2 0x877 JUMP JUMPDEST PUSH2 0xED PUSH2 0x93A JUMP JUMPDEST PUSH1 0x1 PUSH1 0x1 PUSH1 0xA0 SHL SUB AND DUP1 ISZERO PUSH2 0x13F JUMPI PUSH1 0x5 DUP1 SLOAD PUSH1 0x1 PUSH1 0x1 PUSH1 0xA0 SHL SUB NOT DUP2 AND DUP4 OR SWAP1 SWAP2 SSTORE PUSH1 0x1 PUSH1 0x1 PUSH1 0xA0 SHL SUB AND PUSH32 0x8BE0079C531659141344CD1FD0A4F28419497F9722A3DAAFE3B4186F6B6457E0 PUSH0 DUP1 LOG3 STOP JUMPDEST PUSH4 0x1E4FBDF7 PUSH1 0xE0 SHL PUSH0 MSTORE PUSH0 PUSH1 0x4 MSTORE PUSH1 0x24 PUSH0 REVERT JUMPDEST PUSH0 DUP1 REVERT JUMPDEST CALLVALUE PUSH2 0x152 JUMPI PUSH0 CALLDATASIZE PUSH1 0x3 NOT ADD SLT PUSH2 0x152 JUMPI PUSH1 0x6 SLOAD PUSH1 0x40 MLOAD PUSH1 0x1 PUSH1 0x1 PUSH1 0xA0 SHL SUB SWAP1 SWAP2 AND DUP2 MSTORE PUSH1 0x20 SWAP1 RETURN JUMPDEST CALLVALUE PUSH2 0x152 JUMPI PUSH1 0x40 CALLDATASIZE PUSH1 0x3 NOT ADD SLT PUSH2 0x152 JUMPI PUSH2 0x197 PUSH2 0x877 JUMP JUMPDEST PUSH2 0x19F PUSH2 0x88D JUMP JUMPDEST PUSH1 0x1 PUSH1 0x1 PUSH1 0xA0 SHL SUB SWAP2 DUP3 AND PUSH0 SWAP1 DUP2 MSTORE PUSH1 0x1 PUSH1 0x20 SWAP1 DUP2 MSTORE PUSH1 0x40 DUP1 DUP4 KECCAK256 SWAP5 SWAP1 SWAP4 AND DUP3 MSTORE SWAP3 DUP4 MSTORE DUP2 SWAP1 KECCAK256 SLOAD SWAP1 MLOAD SWAP1 DUP2 MSTORE RETURN JUMPDEST CALLVALUE PUSH2 0x152 JUMPI PUSH1 0x40 CALLDATASIZE PUSH1 0x3 NOT ADD SLT PUSH2 0x152 JUMPI PUSH2 0x1F4 PUSH2 0x1EA PUSH2 0x877 JUMP JUMPDEST PUSH1 0x24 CALLDATALOAD SWAP1 CALLER PUSH2 0x8A3 JUMP JUMPDEST PUSH1 0x20 PUSH1 0x40 MLOAD PUSH1 0x1 DUP2 MSTORE RETURN JUMPDEST CALLVALUE PUSH2 0x152 JUMPI PUSH0 CALLDATASIZE PUSH1 0x3 NOT ADD SLT PUSH2 0x152 JUMPI PUSH1 0x40 MLOAD PUSH0 PUSH1 0x4 SLOAD DUP1 PUSH1 0x1 SHR SWAP1 PUSH1 0x1 DUP2 AND DUP1 ISZERO PUSH2 0x310 JUMPI JUMPDEST PUSH1 0x20 DUP4 LT DUP2 EQ PUSH2 0x2FC JUMPI DUP3 DUP6 MSTORE SWAP1 DUP2 ISZERO PUSH2 0x2E0 JUMPI POP PUSH1 0x1 EQ PUSH2 0x28B JUMPI JUMPDEST POP DUP2 SWAP1 SUB PUSH1 0x1F ADD PUSH1 0x1F NOT AND DUP2 ADD SWAP1 PUSH8 0xFFFFFFFFFFFFFFFF DUP3 GT DUP2 DUP4 LT OR PUSH2 0x277 JUMPI PUSH2 0x273 DUP3 SWAP2 DUP3 PUSH1 0x40 MSTORE DUP3 PUSH2 0x84D JUMP JUMPDEST SUB SWAP1 RETURN JUMPDEST PUSH4 0x4E487B71 PUSH1 0xE0 SHL PUSH0 MSTORE PUSH1 0x41 PUSH1 0x4 MSTORE PUSH1 0x24 PUSH0 REVERT JUMPDEST SWAP1 POP PUSH1 0x4 PUSH0 MSTORE PUSH32 0x8A35ACFBC15FF81A39AE7D344FD709F28E8600B4AA8C65C6B64BFE7FE36BD19B PUSH0 SWAP1 JUMPDEST DUP3 DUP3 LT PUSH2 0x2CA JUMPI POP PUSH1 0x20 SWAP2 POP DUP3 ADD ADD DUP3 PUSH2 0x243 JUMP JUMPDEST PUSH1 0x1 DUP2 PUSH1 0x20 SWAP3 SLOAD DUP4 DUP6 DUP9 ADD ADD MSTORE ADD SWAP2 ADD SWAP1 PUSH2 0x2B5 JUMP JUMPDEST SWAP1 POP PUSH1 0x20 SWAP3 POP PUSH1 0xFF NOT AND DUP3 DUP5 ADD MSTORE ISZERO ISZERO PUSH1 0x5 SHL DUP3 ADD ADD DUP3 PUSH2 0x243 JUMP JUMPDEST PUSH4 0x4E487B71 PUSH1 0xE0 SHL PUSH0 MSTORE PUSH1 0x22 PUSH1 0x4 MSTORE PUSH1 0x24 PUSH0 REVERT JUMPDEST SWAP2 PUSH1 0x7F AND SWAP2 PUSH2 0x226 JUMP JUMPDEST CALLVALUE PUSH2 0x152 JUMPI PUSH1 0x20 CALLDATASIZE PUSH1 0x3 NOT ADD SLT PUSH2 0x152 JUMPI PUSH2 0x333 PUSH2 0x877 JUMP JUMPDEST PUSH2 0x33B PUSH2 0x93A JUMP JUMPDEST PUSH1 0x1 PUSH1 0x1 PUSH1 0xA0 SHL SUB AND DUP1 ISZERO PUSH2 0x38C JUMPI PUSH1 0x6 SLOAD DUP2 PUSH1 0x1 PUSH1 0x1 PUSH1 0xA0 SHL SUB DUP3 AND PUSH32 0xAAE9BEDDCCF584528E87B66C6FF2563825C8A1433305B8A656E9B5F9BF390499 PUSH0 DUP1 LOG3 PUSH1 0x1 PUSH1 0x1 PUSH1 0xA0 SHL SUB NOT AND OR PUSH1 0x6 SSTORE STOP JUMPDEST PUSH4 0xD92E233D PUSH1 0xE0 SHL PUSH0 MSTORE PUSH1 0x4 PUSH0 REVERT JUMPDEST CALLVALUE PUSH2 0x152 JUMPI PUSH0 CALLDATASIZE PUSH1 0x3 NOT ADD SLT PUSH2 0x152 JUMPI PUSH1 0x5 SLOAD PUSH1 0x40 MLOAD PUSH1 0x1 PUSH1 0x1 PUSH1 0xA0 SHL SUB SWAP1 SWAP2 AND DUP2 MSTORE PUSH1 0x20 SWAP1 RETURN JUMPDEST CALLVALUE PUSH2 0x152 JUMPI PUSH0 CALLDATASIZE PUSH1 0x3 NOT ADD SLT PUSH2 0x152 JUMPI PUSH2 0x3DB PUSH2 0x93A JUMP JUMPDEST PUSH1 0x5 DUP1 SLOAD PUSH1 0x1 PUSH1 0x1 PUSH1 0xA0 SHL SUB NOT DUP2 AND SWAP1 SWAP2 SSTORE PUSH0 SWAP1 PUSH1 0x1 PUSH1 0x1 PUSH1 0xA0 SHL SUB AND PUSH32 0x8BE0079C531659141344CD1FD0A4F28419497F9722A3DAAFE3B4186F6B6457E0 DUP3 DUP1 LOG3 STOP JUMPDEST CALLVALUE PUSH2 0x152 JUMPI PUSH1 0x20 CALLDATASIZE PUSH1 0x3 NOT ADD SLT PUSH2 0x152 JUMPI PUSH1 0x1 PUSH1 0x1 PUSH1 0xA0 SHL SUB PUSH2 0x43F PUSH2 0x877 JUMP JUMPDEST AND PUSH0 MSTORE PUSH0 PUSH1 0x20 MSTORE PUSH1 0x20 PUSH1 0x40 PUSH0 KECCAK256 SLOAD PUSH1 0x40 MLOAD SWAP1 DUP2 MSTORE RETURN JUMPDEST CALLVALUE PUSH2 0x152 JUMPI PUSH1 0x40 CALLDATASIZE PUSH1 0x3 NOT ADD SLT PUSH2 0x152 JUMPI PUSH2 0x46E PUSH2 0x877 JUMP JUMPDEST PUSH1 0x6 SLOAD PUSH1 0x24 CALLDATALOAD SWAP2 SWAP1 PUSH1 0x1 PUSH1 0x1 PUSH1 0xA0 SHL SUB AND CALLER SUB PUSH2 0x517 JUMPI PUSH1 0x1 PUSH1 0x1 PUSH1 0xA0 SHL SUB AND DUP1 ISZERO PUSH2 0x504 JUMPI DUP1 PUSH0 MSTORE PUSH0 PUSH1 0x20 MSTORE PUSH1 0x40 PUSH0 KECCAK256 SLOAD DUP3 DUP2 LT PUSH2 0x4EB JUMPI PUSH1 0x20 DUP4 PUSH0 SWAP5 PUSH32 0xDDF252AD1BE2C89B69C2B068FC378DAA952BA7F163C4A11628F55A4DF523B3EF SWAP4 DUP6 DUP8 MSTORE DUP7 DUP5 MSTORE SUB PUSH1 0x40 DUP7 KECCAK256 SSTORE DUP1 PUSH1 0x2 SLOAD SUB PUSH1 0x2 SSTORE PUSH1 0x40 MLOAD SWAP1 DUP2 MSTORE LOG3 STOP JUMPDEST SWAP1 PUSH4 0x391434E3 PUSH1 0xE2 SHL PUSH0 MSTORE PUSH1 0x4 MSTORE PUSH1 0x24 MSTORE PUSH1 0x44 MSTORE PUSH1 0x64 PUSH0 REVERT JUMPDEST PUSH4 0x4B637E8F PUSH1 0xE1 SHL PUSH0 MSTORE PUSH0 PUSH1 0x4 MSTORE PUSH1 0x24 PUSH0 REVERT JUMPDEST PUSH4 0x38DA3B15 PUSH1 0xE0 SHL PUSH0 MSTORE PUSH1 0x4 PUSH0 REVERT JUMPDEST CALLVALUE PUSH2 0x152 JUMPI PUSH1 0x40 CALLDATASIZE PUSH1 0x3 NOT ADD SLT PUSH2 0x152 JUMPI PUSH2 0x53F PUSH2 0x877 JUMP JUMPDEST PUSH1 0x6 SLOAD PUSH1 0x24 CALLDATALOAD SWAP2 SWAP1 PUSH1 0x1 PUSH1 0x1 PUSH1 0xA0 SHL SUB AND CALLER SUB PUSH2 0x517 JUMPI PUSH1 0x1 PUSH1 0x1 PUSH1 0xA0 SHL SUB AND SWAP1 DUP2 ISZERO PUSH2 0x5CA JUMPI PUSH1 0x2 SLOAD SWAP1 DUP1 DUP3 ADD DUP1 SWAP3 GT PUSH2 0x5B6 JUMPI PUSH1 0x20 PUSH32 0xDDF252AD1BE2C89B69C2B068FC378DAA952BA7F163C4A11628F55A4DF523B3EF SWAP2 PUSH0 SWAP4 PUSH1 0x2 SSTORE DUP5 DUP5 MSTORE DUP4 DUP3 MSTORE PUSH1 0x40 DUP5 KECCAK256 DUP2 DUP2 SLOAD ADD SWAP1 SSTORE PUSH1 0x40 MLOAD SWAP1 DUP2 MSTORE LOG3 STOP JUMPDEST PUSH4 0x4E487B71 PUSH1 0xE0 SHL PUSH0 MSTORE PUSH1 0x11 PUSH1 0x4 MSTORE PUSH1 0x24 PUSH0 REVERT JUMPDEST PUSH4 0xEC442F05 PUSH1 0xE0 SHL PUSH0 MSTORE PUSH0 PUSH1 0x4 MSTORE PUSH1 0x24 PUSH0 REVERT JUMPDEST CALLVALUE PUSH2 0x152 JUMPI PUSH0 CALLDATASIZE PUSH1 0x3 NOT ADD SLT PUSH2 0x152 JUMPI PUSH1 0x20 PUSH1 0xFF PUSH1 0x5 SLOAD PUSH1 0xA0 SHR AND PUSH1 0x40 MLOAD SWAP1 DUP2 MSTORE RETURN JUMPDEST CALLVALUE PUSH2 0x152 JUMPI PUSH1 0x60 CALLDATASIZE PUSH1 0x3 NOT ADD SLT PUSH2 0x152 JUMPI PUSH2 0x619 PUSH2 0x877 JUMP JUMPDEST PUSH2 0x621 PUSH2 0x88D JUMP JUMPDEST PUSH1 0x1 PUSH1 0x1 PUSH1 0xA0 SHL SUB DUP3 AND PUSH0 DUP2 DUP2 MSTORE PUSH1 0x1 PUSH1 0x20 SWAP1 DUP2 MSTORE PUSH1 0x40 DUP1 DUP4 KECCAK256 CALLER DUP5 MSTORE SWAP1 SWAP2 MSTORE SWAP1 KECCAK256 SLOAD SWAP1 SWAP3 PUSH1 0x44 CALLDATALOAD SWAP3 SWAP2 PUSH0 NOT DUP2 LT PUSH2 0x65F JUMPI JUMPDEST POP PUSH2 0x1F4 SWAP4 POP PUSH2 0x8A3 JUMP JUMPDEST DUP4 DUP2 LT PUSH2 0x6C4 JUMPI DUP5 ISZERO PUSH2 0x6B1 JUMPI CALLER ISZERO PUSH2 0x69E JUMPI PUSH2 0x1F4 SWAP5 PUSH0 MSTORE PUSH1 0x1 PUSH1 0x20 MSTORE PUSH1 0x40 PUSH0 KECCAK256 PUSH1 0x1 DUP1 PUSH1 0xA0 SHL SUB CALLER AND PUSH0 MSTORE PUSH1 0x20 MSTORE DUP4 PUSH1 0x40 PUSH0 KECCAK256 SWAP2 SUB SWAP1 SSTORE DUP5 PUSH2 0x654 JUMP JUMPDEST PUSH4 0x4A1406B1 PUSH1 0xE1 SHL PUSH0 MSTORE PUSH0 PUSH1 0x4 MSTORE PUSH1 0x24 PUSH0 REVERT JUMPDEST PUSH4 0xE602DF05 PUSH1 0xE0 SHL PUSH0 MSTORE PUSH0 PUSH1 0x4 MSTORE PUSH1 0x24 PUSH0 REVERT JUMPDEST DUP4 SWAP1 PUSH4 0x7DC7A0D9 PUSH1 0xE1 SHL PUSH0 MSTORE CALLER PUSH1 0x4 MSTORE PUSH1 0x24 MSTORE PUSH1 0x44 MSTORE PUSH1 0x64 PUSH0 REVERT JUMPDEST CALLVALUE PUSH2 0x152 JUMPI PUSH0 CALLDATASIZE PUSH1 0x3 NOT ADD SLT PUSH2 0x152 JUMPI PUSH1 0x20 PUSH1 0x2 SLOAD PUSH1 0x40 MLOAD SWAP1 DUP2 MSTORE RETURN JUMPDEST CALLVALUE PUSH2 0x152 JUMPI PUSH1 0x40 CALLDATASIZE PUSH1 0x3 NOT ADD SLT PUSH2 0x152 JUMPI PUSH2 0x715 PUSH2 0x877 JUMP JUMPDEST PUSH1 0x24 CALLDATALOAD SWAP1 CALLER ISZERO PUSH2 0x6B1 JUMPI PUSH1 0x1 PUSH1 0x1 PUSH1 0xA0 SHL SUB AND SWAP1 DUP2 ISZERO PUSH2 0x69E JUMPI CALLER PUSH0 MSTORE PUSH1 0x1 PUSH1 0x20 MSTORE PUSH1 0x40 PUSH0 KECCAK256 DUP3 PUSH0 MSTORE PUSH1 0x20 MSTORE DUP1 PUSH1 0x40 PUSH0 KECCAK256 SSTORE PUSH1 0x40 MLOAD SWAP1 DUP2 MSTORE PUSH32 0x8C5BE1E5EBEC7D5BD14F71427D1E84F3DD0314C0F7B2291E5B200AC8C7C3B925 PUSH1 0x20 CALLER SWAP3 LOG3 PUSH1 0x20 PUSH1 0x40 MLOAD PUSH1 0x1 DUP2 MSTORE RETURN JUMPDEST CALLVALUE PUSH2 0x152 JUMPI PUSH0 CALLDATASIZE PUSH1 0x3 NOT ADD SLT PUSH2 0x152 JUMPI PUSH0 PUSH1 0x3 SLOAD DUP1 PUSH1 0x1 SHR SWAP1 PUSH1 0x1 DUP2 AND DUP1 ISZERO PUSH2 0x843 JUMPI JUMPDEST PUSH1 0x20 DUP4 LT DUP2 EQ PUSH2 0x2FC JUMPI DUP3 DUP6 MSTORE SWAP1 DUP2 ISZERO PUSH2 0x2E0 JUMPI POP PUSH1 0x1 EQ PUSH2 0x7EE JUMPI POP DUP2 SWAP1 SUB PUSH1 0x1F ADD PUSH1 0x1F NOT AND DUP2 ADD SWAP1 PUSH8 0xFFFFFFFFFFFFFFFF DUP3 GT DUP2 DUP4 LT OR PUSH2 0x277 JUMPI PUSH2 0x273 DUP3 SWAP2 DUP3 PUSH1 0x40 MSTORE DUP3 PUSH2 0x84D JUMP JUMPDEST SWAP1 POP PUSH1 0x3 PUSH0 MSTORE PUSH32 0xC2575A0E9E593C00F959F8C92F12DB2869C3395A3B0502D05E2516446F71F85B PUSH0 SWAP1 JUMPDEST DUP3 DUP3 LT PUSH2 0x82D JUMPI POP PUSH1 0x20 SWAP2 POP DUP3 ADD ADD DUP3 PUSH2 0x243 JUMP JUMPDEST PUSH1 0x1 DUP2 PUSH1 0x20 SWAP3 SLOAD DUP4 DUP6 DUP9 ADD ADD MSTORE ADD SWAP2 ADD SWAP1 PUSH2 0x818 JUMP JUMPDEST SWAP2 PUSH1 0x7F AND SWAP2 PUSH2 0x7A2 JUMP JUMPDEST PUSH1 0x20 PUSH1 0x40 SWAP3 DUP2 DUP4 MSTORE DUP1 MLOAD SWAP2 DUP3 SWAP2 DUP3 DUP3 DUP7 ADD MSTORE ADD DUP5 DUP5 ADD MCOPY PUSH0 DUP3 DUP3 ADD DUP5 ADD MSTORE PUSH1 0x1F ADD PUSH1 0x1F NOT AND ADD ADD SWAP1 JUMP JUMPDEST PUSH1 0x4 CALLDATALOAD SWAP1 PUSH1 0x1 PUSH1 0x1 PUSH1 0xA0 SHL SUB DUP3 AND DUP3 SUB PUSH2 0x152 JUMPI JUMP JUMPDEST PUSH1 0x24 CALLDATALOAD SWAP1 PUSH1 0x1 PUSH1 0x1 PUSH1 0xA0 SHL SUB DUP3 AND DUP3 SUB PUSH2 0x152 JUMPI JUMP JUMPDEST PUSH1 0x1 PUSH1 0x1 PUSH1 0xA0 SHL SUB AND SWAP1 DUP2 ISZERO PUSH2 0x504 JUMPI PUSH1 0x1 PUSH1 0x1 PUSH1 0xA0 SHL SUB AND SWAP2 DUP3 ISZERO PUSH2 0x5CA JUMPI DUP2 PUSH0 MSTORE PUSH0 PUSH1 0x20 MSTORE PUSH1 0x40 PUSH0 KECCAK256 SLOAD DUP2 DUP2 LT PUSH2 0x921 JUMPI DUP2 PUSH32 0xDDF252AD1BE2C89B69C2B068FC378DAA952BA7F163C4A11628F55A4DF523B3EF SWAP3 PUSH1 0x20 SWAP3 DUP6 PUSH0 MSTORE PUSH0 DUP5 MSTORE SUB PUSH1 0x40 PUSH0 KECCAK256 SSTORE DUP5 PUSH0 MSTORE PUSH0 DUP3 MSTORE PUSH1 0x40 PUSH0 KECCAK256 DUP2 DUP2 SLOAD ADD SWAP1 SSTORE PUSH1 0x40 MLOAD SWAP1 DUP2 MSTORE LOG3 JUMP JUMPDEST DUP3 PUSH4 0x391434E3 PUSH1 0xE2 SHL PUSH0 MSTORE PUSH1 0x4 MSTORE PUSH1 0x24 MSTORE PUSH1 0x44 MSTORE PUSH1 0x64 PUSH0 REVERT JUMPDEST PUSH1 0x5 SLOAD PUSH1 0x1 PUSH1 0x1 PUSH1 0xA0 SHL SUB AND CALLER SUB PUSH2 0x94E JUMPI JUMP JUMPDEST PUSH4 0x118CDAA7 PUSH1 0xE0 SHL PUSH0 MSTORE CALLER PUSH1 0x4 MSTORE PUSH1 0x24 PUSH0 REVERT INVALID LOG2 PUSH5 0x6970667358 0x22 SLT KECCAK256 PUSH2 0x2654 PUSH1 0xEB 0xFC EXTCODECOPY TIMESTAMP 0xC ISZERO CREATE2 0xD0 ADDMOD SIGNEXTEND BALANCE 0xCD 0x29 0xB0 0xAB DUP14 PUSH32 0xC8802517EA77B9D630496C64736F6C634300081C003300000000000000000000 "},"methodIdentifiers":{"allowance(address,address)":"dd62ed3e","approve(address,uint256)":"095ea7b3","balanceOf(address)":"70a08231","bridge()":"e78cea92","burnFromBridge(address,uint256)":"568b4afe","decimals()":"313ce567","mint(address,uint256)":"40c10f19","name()":"06fdde03","owner()":"8da5cb5b","renounceOwnership()":"715018a6","setBridge(address)":"8dd14802","symbol()":"95d89b41","totalSupply()":"18160ddd","transfer(address,uint256)":"a9059cbb","transferFrom(address,address,uint256)":"23b872dd","transferOwnership(address)":"f2fde38b"}}}}}