{"contracts/TaxReceiver.sol":{"TaxReceiver":{"abi":[{"inputs":[{"internalType":"address","name":"_studioWallet","type":"address"},{"internalType":"address","name":"_owner","type":"address"}],"stateMutability":"nonpayable","type":"constructor"},{"inputs":[],"name":"NotWired","type":"error"},{"inputs":[],"name":"NothingToFlush","type":"error"},{"inputs":[{"internalType":"address","name":"owner","type":"address"}],"name":"OwnableInvalidOwner","type":"error"},{"inputs":[{"internalType":"address","name":"account","type":"address"}],"name":"OwnableUnauthorizedAccount","type":"error"},{"inputs":[],"name":"ReentrancyGuardReentrantCall","type":"error"},{"inputs":[],"name":"TransferFailed","type":"error"},{"inputs":[],"name":"ZeroAddress","type":"error"},{"anonymous":false,"inputs":[{"indexed":true,"internalType":"address","name":"prev","type":"address"},{"indexed":true,"internalType":"address","name":"next","type":"address"}],"name":"BottomProtectionVaultSet","type":"event"},{"anonymous":false,"inputs":[{"indexed":false,"internalType":"uint256","name":"toDividend","type":"uint256"},{"indexed":false,"internalType":"uint256","name":"toBottom","type":"uint256"},{"indexed":false,"internalType":"uint256","name":"toStudio","type":"uint256"}],"name":"Flushed","type":"event"},{"anonymous":false,"inputs":[{"indexed":true,"internalType":"address","name":"prev","type":"address"},{"indexed":true,"internalType":"address","name":"next","type":"address"}],"name":"HolderDividendSet","type":"event"},{"anonymous":false,"inputs":[{"indexed":true,"internalType":"address","name":"previousOwner","type":"address"},{"indexed":true,"internalType":"address","name":"newOwner","type":"address"}],"name":"OwnershipTransferred","type":"event"},{"anonymous":false,"inputs":[{"indexed":true,"internalType":"address","name":"sender","type":"address"},{"indexed":false,"internalType":"uint256","name":"amount","type":"uint256"}],"name":"Received","type":"event"},{"anonymous":false,"inputs":[{"indexed":true,"internalType":"address","name":"holderDividend","type":"address"},{"indexed":true,"internalType":"address","name":"bottomProtectionVault","type":"address"}],"name":"Wired","type":"event"},{"stateMutability":"payable","type":"fallback"},{"inputs":[],"name":"BOTTOM_BPS","outputs":[{"internalType":"uint256","name":"","type":"uint256"}],"stateMutability":"view","type":"function"},{"inputs":[],"name":"DIVIDEND_BPS","outputs":[{"internalType":"uint256","name":"","type":"uint256"}],"stateMutability":"view","type":"function"},{"inputs":[],"name":"STUDIO_BPS","outputs":[{"internalType":"uint256","name":"","type":"uint256"}],"stateMutability":"view","type":"function"},{"inputs":[],"name":"TOTAL_BPS","outputs":[{"internalType":"uint256","name":"","type":"uint256"}],"stateMutability":"view","type":"function"},{"inputs":[],"name":"bottomProtectionVault","outputs":[{"internalType":"address","name":"","type":"address"}],"stateMutability":"view","type":"function"},{"inputs":[],"name":"emergencyWithdraw","outputs":[],"stateMutability":"nonpayable","type":"function"},{"inputs":[],"name":"flush","outputs":[],"stateMutability":"nonpayable","type":"function"},{"inputs":[{"internalType":"uint256","name":"amount","type":"uint256"}],"name":"flushAmount","outputs":[],"stateMutability":"nonpayable","type":"function"},{"inputs":[],"name":"holderDividend","outputs":[{"internalType":"address","name":"","type":"address"}],"stateMutability":"view","type":"function"},{"inputs":[],"name":"owner","outputs":[{"internalType":"address","name":"","type":"address"}],"stateMutability":"view","type":"function"},{"inputs":[],"name":"pendingBalance","outputs":[{"internalType":"uint256","name":"","type":"uint256"}],"stateMutability":"view","type":"function"},{"inputs":[],"name":"renounceOwnership","outputs":[],"stateMutability":"nonpayable","type":"function"},{"inputs":[{"internalType":"address","name":"_next","type":"address"}],"name":"setBottomProtectionVault","outputs":[],"stateMutability":"nonpayable","type":"function"},{"inputs":[{"internalType":"address","name":"_next","type":"address"}],"name":"setHolderDividend","outputs":[],"stateMutability":"nonpayable","type":"function"},{"inputs":[],"name":"studioWallet","outputs":[{"internalType":"address","name":"","type":"address"}],"stateMutability":"view","type":"function"},{"inputs":[],"name":"totalForwardedToBottom","outputs":[{"internalType":"uint256","name":"","type":"uint256"}],"stateMutability":"view","type":"function"},{"inputs":[],"name":"totalForwardedToDividend","outputs":[{"internalType":"uint256","name":"","type":"uint256"}],"stateMutability":"view","type":"function"},{"inputs":[],"name":"totalForwardedToStudio","outputs":[{"internalType":"uint256","name":"","type":"uint256"}],"stateMutability":"view","type":"function"},{"inputs":[],"name":"totalReceived","outputs":[{"internalType":"uint256","name":"","type":"uint256"}],"stateMutability":"view","type":"function"},{"inputs":[{"internalType":"address","name":"newOwner","type":"address"}],"name":"transferOwnership","outputs":[],"stateMutability":"nonpayable","type":"function"},{"inputs":[],"name":"wired","outputs":[{"internalType":"bool","name":"","type":"bool"}],"stateMutability":"view","type":"function"},{"stateMutability":"payable","type":"receive"}],"evm":{"bytecode":{"linkReferences":{},"object":"60a03461011f57601f610add38819003918201601f19168301916001600160401b0383118484101761012357808492604094855283398101031261011f5761004681610137565b906001600160a01b039061005c90602001610137565b1690811561010c575f80546001600160a01b031981168417825560405193916001600160a01b03909116907f8be0079c531659141344cd1fd0a4f28419497f9722a3daafe3b4186f6b6457e09080a360017f9b779b17422d0df92223018b32b4d1fa46e071723d6817e2486d003becc55f00556001600160a01b038116156100fd57608052610991908161014c82396080518181816101b301526107bf0152f35b63d92e233d60e01b5f5260045ffd5b631e4fbdf760e01b5f525f60045260245ffd5b5f80fd5b634e487b7160e01b5f52604160045260245ffd5b51906001600160a01b038216820361011f5756fe60806040526004361015610026575b361561001e5761001c61066a565b005b61001c61066a565b5f3560e01c8063250055a81461057757806337efa0fb1461054f57806339d57b021461052a578063445e7d0714610357578063476cdb781461050d57806355d5ea01146104e557806357b4d18e146104ca5780636b9f96ea14610472578063715018a61461041b5780637db6a9451461039f5780638d7036de146103835780638da5cb5b1461035c5780639088f4ea1461035757806396319c4d146102cc578063a3c2c462146102af578063d361ea4914610292578063d3cd52bc14610276578063db2e21bc146101ff578063e7201df9146101e2578063ead8a5811461019e5763f2fde38b0361000e573461019a57602036600319011261019a576004356001600160a01b0381169081900361019a5761013f6106a7565b8015610187575f80546001600160a01b03198116831782556001600160a01b0316907f8be0079c531659141344cd1fd0a4f28419497f9722a3daafe3b4186f6b6457e09080a3005b631e4fbdf760e01b5f525f60045260245ffd5b5f80fd5b3461019a575f36600319011261019a576040517f00000000000000000000000000000000000000000000000000000000000000006001600160a01b03168152602090f35b3461019a575f36600319011261019a576020600554604051908152f35b3461019a575f36600319011261019a576102176106a7565b61021f6106cd565b478015610267575f8080809360018060a01b038254165af161023f61060a565b50156102585760015f51602061093c5f395f51905f5255005b6312171d8360e31b5f5260045ffd5b633ada528f60e21b5f5260045ffd5b3461019a575f36600319011261019a5760206040516127108152f35b3461019a575f36600319011261019a576020600454604051908152f35b3461019a575f36600319011261019a576020600354604051908152f35b3461019a57602036600319011261019a576004356001600160a01b0381169081900361019a576102fa6106a7565b801561034857600254816001600160a01b0382167f388977642ba24ae1f2b970f05e4e2d1bb34d5d0e8bde6de96cf261136e1c0f205f80a36001600160a01b0319161760025561001c6108b0565b63d92e233d60e01b5f5260045ffd5b6105b8565b3461019a575f36600319011261019a575f546040516001600160a01b039091168152602090f35b3461019a575f36600319011261019a576020604051610fa08152f35b3461019a57602036600319011261019a576004356001600160a01b0381169081900361019a576103cd6106a7565b801561034857600154816001600160a01b0382167fb67206fb44c4fdebea9bf3d75f205d2f305d4d76ef5cc3f581f0415a9303b20f5f80a36001600160a01b0319161760015561001c6108b0565b3461019a575f36600319011261019a576104336106a7565b5f80546001600160a01b0319811682556001600160a01b03167f8be0079c531659141344cd1fd0a4f28419497f9722a3daafe3b4186f6b6457e08280a3005b3461019a575f36600319011261019a5761048a6106cd565b60ff60025460a01c16156104bb57478015610267576104a890610712565b60015f51602061093c5f395f51905f5255005b6307f97e9360e31b5f5260045ffd5b3461019a575f36600319011261019a57602047604051908152f35b3461019a575f36600319011261019a576001546040516001600160a01b039091168152602090f35b3461019a575f36600319011261019a576020600654604051908152f35b3461019a575f36600319011261019a57602060ff60025460a01c166040519015158152f35b3461019a575f36600319011261019a576002546040516001600160a01b039091168152602090f35b3461019a57602036600319011261019a576004356105936106a7565b61059b6106cd565b60ff60025460a01c16156104bb578015610267576104a890610712565b3461019a575f36600319011261019a576020604051610bb88152f35b90601f8019910116810190811067ffffffffffffffff8211176105f657604052565b634e487b7160e01b5f52604160045260245ffd5b3d15610644573d9067ffffffffffffffff82116105f65760405191610639601f8201601f1916602001846105d4565b82523d5f602084013e565b606090565b9190820180921161065657565b634e487b7160e01b5f52601160045260245ffd5b61067634600354610649565b6003556040513481527f88a5966d370b9919b20f3e2c13ff65706f196a4e32cc2c12bf57088f8852587460203392a2565b5f546001600160a01b031633036106ba57565b63118cdaa760e01b5f523360045260245ffd5b60025f51602061093c5f395f51905f5254146106f65760025f51602061093c5f395f51905f5255565b633ee5aeb560e01b5f5260045ffd5b9190820391821161065657565b610fa0810290801591818104610fa01483171561065657612710900491610bb8820290828204610bb814171561065657829161075761271061075c9304948592610705565b610705565b9181610852575b806107f4575b826107a8575b907fac9277ba0591e1c0c98f15cd808e9b0ef53df9369302771f2621a9b254a0ed419260609260405192835260208301526040820152a1565b906107b583600654610649565b6006555f808080867f00000000000000000000000000000000000000000000000000000000000000005af16107e861060a565b5015610258579061076f565b61080081600554610649565b6005555f8060018060a01b03600254166040518460208201916317552f6960e21b8352600481526108326024826105d4565b51925af161083e61060a565b50610769576312171d8360e31b5f5260045ffd5b61085e82600454610649565b6004555f8060018060a01b03600154166040518560208201916317552f6960e21b8352600481526108906024826105d4565b51925af161089c61060a565b50610763576312171d8360e31b5f5260045ffd5b60025460ff8160a01c161580610927575b80610915575b6108ce5750565b60ff60a01b198116600160a01b176002556001546001600160a01b0391821691167fce454530599629df9da536b647088db8c52b39355f210fa0b3016000433adff45f80a3565b506001600160a01b03811615156108c7565b506001546001600160a01b031615156108c156fe9b779b17422d0df92223018b32b4d1fa46e071723d6817e2486d003becc55f00a264697066735822122080195ac7e3b0ec7d8d69ba683064e8bfaca5986a386f05b8b349aaa3ae29ad4164736f6c634300081c0033","opcodes":"PUSH1 0xA0 CALLVALUE PUSH2 0x11F JUMPI PUSH1 0x1F PUSH2 0xADD CODESIZE DUP2 SWAP1 SUB SWAP2 DUP3 ADD PUSH1 0x1F NOT AND DUP4 ADD SWAP2 PUSH1 0x1 PUSH1 0x1 PUSH1 0x40 SHL SUB DUP4 GT DUP5 DUP5 LT OR PUSH2 0x123 JUMPI DUP1 DUP5 SWAP3 PUSH1 0x40 SWAP5 DUP6 MSTORE DUP4 CODECOPY DUP2 ADD SUB SLT PUSH2 0x11F JUMPI PUSH2 0x46 DUP2 PUSH2 0x137 JUMP JUMPDEST SWAP1 PUSH1 0x1 PUSH1 0x1 PUSH1 0xA0 SHL SUB SWAP1 PUSH2 0x5C SWAP1 PUSH1 0x20 ADD PUSH2 0x137 JUMP JUMPDEST AND SWAP1 DUP2 ISZERO PUSH2 0x10C JUMPI PUSH0 DUP1 SLOAD PUSH1 0x1 PUSH1 0x1 PUSH1 0xA0 SHL SUB NOT DUP2 AND DUP5 OR DUP3 SSTORE PUSH1 0x40 MLOAD SWAP4 SWAP2 PUSH1 0x1 PUSH1 0x1 PUSH1 0xA0 SHL SUB SWAP1 SWAP2 AND SWAP1 PUSH32 0x8BE0079C531659141344CD1FD0A4F28419497F9722A3DAAFE3B4186F6B6457E0 SWAP1 DUP1 LOG3 PUSH1 0x1 PUSH32 0x9B779B17422D0DF92223018B32B4D1FA46E071723D6817E2486D003BECC55F00 SSTORE PUSH1 0x1 PUSH1 0x1 PUSH1 0xA0 SHL SUB DUP2 AND ISZERO PUSH2 0xFD JUMPI PUSH1 0x80 MSTORE PUSH2 0x991 SWAP1 DUP2 PUSH2 0x14C DUP3 CODECOPY PUSH1 0x80 MLOAD DUP2 DUP2 DUP2 PUSH2 0x1B3 ADD MSTORE PUSH2 0x7BF ADD MSTORE RETURN JUMPDEST PUSH4 0xD92E233D PUSH1 0xE0 SHL PUSH0 MSTORE PUSH1 0x4 PUSH0 REVERT JUMPDEST PUSH4 0x1E4FBDF7 PUSH1 0xE0 SHL PUSH0 MSTORE PUSH0 PUSH1 0x4 MSTORE PUSH1 0x24 PUSH0 REVERT JUMPDEST PUSH0 DUP1 REVERT JUMPDEST PUSH4 0x4E487B71 PUSH1 0xE0 SHL PUSH0 MSTORE PUSH1 0x41 PUSH1 0x4 MSTORE PUSH1 0x24 PUSH0 REVERT JUMPDEST MLOAD SWAP1 PUSH1 0x1 PUSH1 0x1 PUSH1 0xA0 SHL SUB DUP3 AND DUP3 SUB PUSH2 0x11F JUMPI JUMP INVALID PUSH1 0x80 PUSH1 0x40 MSTORE PUSH1 0x4 CALLDATASIZE LT ISZERO PUSH2 0x26 JUMPI JUMPDEST CALLDATASIZE ISZERO PUSH2 0x1E JUMPI PUSH2 0x1C PUSH2 0x66A JUMP JUMPDEST STOP JUMPDEST PUSH2 0x1C PUSH2 0x66A JUMP JUMPDEST PUSH0 CALLDATALOAD PUSH1 0xE0 SHR DUP1 PUSH4 0x250055A8 EQ PUSH2 0x577 JUMPI DUP1 PUSH4 0x37EFA0FB EQ PUSH2 0x54F JUMPI DUP1 PUSH4 0x39D57B02 EQ PUSH2 0x52A JUMPI DUP1 PUSH4 0x445E7D07 EQ PUSH2 0x357 JUMPI DUP1 PUSH4 0x476CDB78 EQ PUSH2 0x50D JUMPI DUP1 PUSH4 0x55D5EA01 EQ PUSH2 0x4E5 JUMPI DUP1 PUSH4 0x57B4D18E EQ PUSH2 0x4CA JUMPI DUP1 PUSH4 0x6B9F96EA EQ PUSH2 0x472 JUMPI DUP1 PUSH4 0x715018A6 EQ PUSH2 0x41B JUMPI DUP1 PUSH4 0x7DB6A945 EQ PUSH2 0x39F JUMPI DUP1 PUSH4 0x8D7036DE EQ PUSH2 0x383 JUMPI DUP1 PUSH4 0x8DA5CB5B EQ PUSH2 0x35C JUMPI DUP1 PUSH4 0x9088F4EA EQ PUSH2 0x357 JUMPI DUP1 PUSH4 0x96319C4D EQ PUSH2 0x2CC JUMPI DUP1 PUSH4 0xA3C2C462 EQ PUSH2 0x2AF JUMPI DUP1 PUSH4 0xD361EA49 EQ PUSH2 0x292 JUMPI DUP1 PUSH4 0xD3CD52BC EQ PUSH2 0x276 JUMPI DUP1 PUSH4 0xDB2E21BC EQ PUSH2 0x1FF JUMPI DUP1 PUSH4 0xE7201DF9 EQ PUSH2 0x1E2 JUMPI DUP1 PUSH4 0xEAD8A581 EQ PUSH2 0x19E JUMPI PUSH4 0xF2FDE38B SUB PUSH2 0xE JUMPI CALLVALUE PUSH2 0x19A JUMPI PUSH1 0x20 CALLDATASIZE PUSH1 0x3 NOT ADD SLT PUSH2 0x19A JUMPI PUSH1 0x4 CALLDATALOAD PUSH1 0x1 PUSH1 0x1 PUSH1 0xA0 SHL SUB DUP2 AND SWAP1 DUP2 SWAP1 SUB PUSH2 0x19A JUMPI PUSH2 0x13F PUSH2 0x6A7 JUMP JUMPDEST DUP1 ISZERO PUSH2 0x187 JUMPI PUSH0 DUP1 SLOAD PUSH1 0x1 PUSH1 0x1 PUSH1 0xA0 SHL SUB NOT DUP2 AND DUP4 OR DUP3 SSTORE PUSH1 0x1 PUSH1 0x1 PUSH1 0xA0 SHL SUB AND SWAP1 PUSH32 0x8BE0079C531659141344CD1FD0A4F28419497F9722A3DAAFE3B4186F6B6457E0 SWAP1 DUP1 LOG3 STOP JUMPDEST PUSH4 0x1E4FBDF7 PUSH1 0xE0 SHL PUSH0 MSTORE PUSH0 PUSH1 0x4 MSTORE PUSH1 0x24 PUSH0 REVERT JUMPDEST PUSH0 DUP1 REVERT JUMPDEST CALLVALUE PUSH2 0x19A JUMPI PUSH0 CALLDATASIZE PUSH1 0x3 NOT ADD SLT PUSH2 0x19A JUMPI PUSH1 0x40 MLOAD PUSH32 0x0 PUSH1 0x1 PUSH1 0x1 PUSH1 0xA0 SHL SUB AND DUP2 MSTORE PUSH1 0x20 SWAP1 RETURN JUMPDEST CALLVALUE PUSH2 0x19A JUMPI PUSH0 CALLDATASIZE PUSH1 0x3 NOT ADD SLT PUSH2 0x19A JUMPI PUSH1 0x20 PUSH1 0x5 SLOAD PUSH1 0x40 MLOAD SWAP1 DUP2 MSTORE RETURN JUMPDEST CALLVALUE PUSH2 0x19A JUMPI PUSH0 CALLDATASIZE PUSH1 0x3 NOT ADD SLT PUSH2 0x19A JUMPI PUSH2 0x217 PUSH2 0x6A7 JUMP JUMPDEST PUSH2 0x21F PUSH2 0x6CD JUMP JUMPDEST SELFBALANCE DUP1 ISZERO PUSH2 0x267 JUMPI PUSH0 DUP1 DUP1 DUP1 SWAP4 PUSH1 0x1 DUP1 PUSH1 0xA0 SHL SUB DUP3 SLOAD AND GAS CALL PUSH2 0x23F PUSH2 0x60A JUMP JUMPDEST POP ISZERO PUSH2 0x258 JUMPI PUSH1 0x1 PUSH0 MLOAD PUSH1 0x20 PUSH2 0x93C PUSH0 CODECOPY PUSH0 MLOAD SWAP1 PUSH0 MSTORE SSTORE STOP JUMPDEST PUSH4 0x12171D83 PUSH1 0xE3 SHL PUSH0 MSTORE PUSH1 0x4 PUSH0 REVERT JUMPDEST PUSH4 0x3ADA528F PUSH1 0xE2 SHL PUSH0 MSTORE PUSH1 0x4 PUSH0 REVERT JUMPDEST CALLVALUE PUSH2 0x19A JUMPI PUSH0 CALLDATASIZE PUSH1 0x3 NOT ADD SLT PUSH2 0x19A JUMPI PUSH1 0x20 PUSH1 0x40 MLOAD PUSH2 0x2710 DUP2 MSTORE RETURN JUMPDEST CALLVALUE PUSH2 0x19A JUMPI PUSH0 CALLDATASIZE PUSH1 0x3 NOT ADD SLT PUSH2 0x19A JUMPI PUSH1 0x20 PUSH1 0x4 SLOAD PUSH1 0x40 MLOAD SWAP1 DUP2 MSTORE RETURN JUMPDEST CALLVALUE PUSH2 0x19A JUMPI PUSH0 CALLDATASIZE PUSH1 0x3 NOT ADD SLT PUSH2 0x19A JUMPI PUSH1 0x20 PUSH1 0x3 SLOAD PUSH1 0x40 MLOAD SWAP1 DUP2 MSTORE RETURN JUMPDEST CALLVALUE PUSH2 0x19A JUMPI PUSH1 0x20 CALLDATASIZE PUSH1 0x3 NOT ADD SLT PUSH2 0x19A JUMPI PUSH1 0x4 CALLDATALOAD PUSH1 0x1 PUSH1 0x1 PUSH1 0xA0 SHL SUB DUP2 AND SWAP1 DUP2 SWAP1 SUB PUSH2 0x19A JUMPI PUSH2 0x2FA PUSH2 0x6A7 JUMP JUMPDEST DUP1 ISZERO PUSH2 0x348 JUMPI PUSH1 0x2 SLOAD DUP2 PUSH1 0x1 PUSH1 0x1 PUSH1 0xA0 SHL SUB DUP3 AND PUSH32 0x388977642BA24AE1F2B970F05E4E2D1BB34D5D0E8BDE6DE96CF261136E1C0F20 PUSH0 DUP1 LOG3 PUSH1 0x1 PUSH1 0x1 PUSH1 0xA0 SHL SUB NOT AND OR PUSH1 0x2 SSTORE PUSH2 0x1C PUSH2 0x8B0 JUMP JUMPDEST PUSH4 0xD92E233D PUSH1 0xE0 SHL PUSH0 MSTORE PUSH1 0x4 PUSH0 REVERT JUMPDEST PUSH2 0x5B8 JUMP JUMPDEST CALLVALUE PUSH2 0x19A JUMPI PUSH0 CALLDATASIZE PUSH1 0x3 NOT ADD SLT PUSH2 0x19A JUMPI PUSH0 SLOAD PUSH1 0x40 MLOAD PUSH1 0x1 PUSH1 0x1 PUSH1 0xA0 SHL SUB SWAP1 SWAP2 AND DUP2 MSTORE PUSH1 0x20 SWAP1 RETURN JUMPDEST CALLVALUE PUSH2 0x19A JUMPI PUSH0 CALLDATASIZE PUSH1 0x3 NOT ADD SLT PUSH2 0x19A JUMPI PUSH1 0x20 PUSH1 0x40 MLOAD PUSH2 0xFA0 DUP2 MSTORE RETURN JUMPDEST CALLVALUE PUSH2 0x19A JUMPI PUSH1 0x20 CALLDATASIZE PUSH1 0x3 NOT ADD SLT PUSH2 0x19A JUMPI PUSH1 0x4 CALLDATALOAD PUSH1 0x1 PUSH1 0x1 PUSH1 0xA0 SHL SUB DUP2 AND SWAP1 DUP2 SWAP1 SUB PUSH2 0x19A JUMPI PUSH2 0x3CD PUSH2 0x6A7 JUMP JUMPDEST DUP1 ISZERO PUSH2 0x348 JUMPI PUSH1 0x1 SLOAD DUP2 PUSH1 0x1 PUSH1 0x1 PUSH1 0xA0 SHL SUB DUP3 AND PUSH32 0xB67206FB44C4FDEBEA9BF3D75F205D2F305D4D76EF5CC3F581F0415A9303B20F PUSH0 DUP1 LOG3 PUSH1 0x1 PUSH1 0x1 PUSH1 0xA0 SHL SUB NOT AND OR PUSH1 0x1 SSTORE PUSH2 0x1C PUSH2 0x8B0 JUMP JUMPDEST CALLVALUE PUSH2 0x19A JUMPI PUSH0 CALLDATASIZE PUSH1 0x3 NOT ADD SLT PUSH2 0x19A JUMPI PUSH2 0x433 PUSH2 0x6A7 JUMP JUMPDEST PUSH0 DUP1 SLOAD PUSH1 0x1 PUSH1 0x1 PUSH1 0xA0 SHL SUB NOT DUP2 AND DUP3 SSTORE PUSH1 0x1 PUSH1 0x1 PUSH1 0xA0 SHL SUB AND PUSH32 0x8BE0079C531659141344CD1FD0A4F28419497F9722A3DAAFE3B4186F6B6457E0 DUP3 DUP1 LOG3 STOP JUMPDEST CALLVALUE PUSH2 0x19A JUMPI PUSH0 CALLDATASIZE PUSH1 0x3 NOT ADD SLT PUSH2 0x19A JUMPI PUSH2 0x48A PUSH2 0x6CD JUMP JUMPDEST PUSH1 0xFF PUSH1 0x2 SLOAD PUSH1 0xA0 SHR AND ISZERO PUSH2 0x4BB JUMPI SELFBALANCE DUP1 ISZERO PUSH2 0x267 JUMPI PUSH2 0x4A8 SWAP1 PUSH2 0x712 JUMP JUMPDEST PUSH1 0x1 PUSH0 MLOAD PUSH1 0x20 PUSH2 0x93C PUSH0 CODECOPY PUSH0 MLOAD SWAP1 PUSH0 MSTORE SSTORE STOP JUMPDEST PUSH4 0x7F97E93 PUSH1 0xE3 SHL PUSH0 MSTORE PUSH1 0x4 PUSH0 REVERT JUMPDEST CALLVALUE PUSH2 0x19A JUMPI PUSH0 CALLDATASIZE PUSH1 0x3 NOT ADD SLT PUSH2 0x19A JUMPI PUSH1 0x20 SELFBALANCE PUSH1 0x40 MLOAD SWAP1 DUP2 MSTORE RETURN JUMPDEST CALLVALUE PUSH2 0x19A JUMPI PUSH0 CALLDATASIZE PUSH1 0x3 NOT ADD SLT PUSH2 0x19A JUMPI PUSH1 0x1 SLOAD PUSH1 0x40 MLOAD PUSH1 0x1 PUSH1 0x1 PUSH1 0xA0 SHL SUB SWAP1 SWAP2 AND DUP2 MSTORE PUSH1 0x20 SWAP1 RETURN JUMPDEST CALLVALUE PUSH2 0x19A JUMPI PUSH0 CALLDATASIZE PUSH1 0x3 NOT ADD SLT PUSH2 0x19A JUMPI PUSH1 0x20 PUSH1 0x6 SLOAD PUSH1 0x40 MLOAD SWAP1 DUP2 MSTORE RETURN JUMPDEST CALLVALUE PUSH2 0x19A JUMPI PUSH0 CALLDATASIZE PUSH1 0x3 NOT ADD SLT PUSH2 0x19A JUMPI PUSH1 0x20 PUSH1 0xFF PUSH1 0x2 SLOAD PUSH1 0xA0 SHR AND PUSH1 0x40 MLOAD SWAP1 ISZERO ISZERO DUP2 MSTORE RETURN JUMPDEST CALLVALUE PUSH2 0x19A JUMPI PUSH0 CALLDATASIZE PUSH1 0x3 NOT ADD SLT PUSH2 0x19A JUMPI PUSH1 0x2 SLOAD PUSH1 0x40 MLOAD PUSH1 0x1 PUSH1 0x1 PUSH1 0xA0 SHL SUB SWAP1 SWAP2 AND DUP2 MSTORE PUSH1 0x20 SWAP1 RETURN JUMPDEST CALLVALUE PUSH2 0x19A JUMPI PUSH1 0x20 CALLDATASIZE PUSH1 0x3 NOT ADD SLT PUSH2 0x19A JUMPI PUSH1 0x4 CALLDATALOAD PUSH2 0x593 PUSH2 0x6A7 JUMP JUMPDEST PUSH2 0x59B PUSH2 0x6CD JUMP JUMPDEST PUSH1 0xFF PUSH1 0x2 SLOAD PUSH1 0xA0 SHR AND ISZERO PUSH2 0x4BB JUMPI DUP1 ISZERO PUSH2 0x267 JUMPI PUSH2 0x4A8 SWAP1 PUSH2 0x712 JUMP JUMPDEST CALLVALUE PUSH2 0x19A JUMPI PUSH0 CALLDATASIZE PUSH1 0x3 NOT ADD SLT PUSH2 0x19A JUMPI PUSH1 0x20 PUSH1 0x40 MLOAD PUSH2 0xBB8 DUP2 MSTORE RETURN JUMPDEST SWAP1 PUSH1 0x1F DUP1 NOT SWAP2 ADD AND DUP2 ADD SWAP1 DUP2 LT PUSH8 0xFFFFFFFFFFFFFFFF DUP3 GT OR PUSH2 0x5F6 JUMPI PUSH1 0x40 MSTORE JUMP JUMPDEST PUSH4 0x4E487B71 PUSH1 0xE0 SHL PUSH0 MSTORE PUSH1 0x41 PUSH1 0x4 MSTORE PUSH1 0x24 PUSH0 REVERT JUMPDEST RETURNDATASIZE ISZERO PUSH2 0x644 JUMPI RETURNDATASIZE SWAP1 PUSH8 0xFFFFFFFFFFFFFFFF DUP3 GT PUSH2 0x5F6 JUMPI PUSH1 0x40 MLOAD SWAP2 PUSH2 0x639 PUSH1 0x1F DUP3 ADD PUSH1 0x1F NOT AND PUSH1 0x20 ADD DUP5 PUSH2 0x5D4 JUMP JUMPDEST DUP3 MSTORE RETURNDATASIZE PUSH0 PUSH1 0x20 DUP5 ADD RETURNDATACOPY JUMP JUMPDEST PUSH1 0x60 SWAP1 JUMP JUMPDEST SWAP2 SWAP1 DUP3 ADD DUP1 SWAP3 GT PUSH2 0x656 JUMPI JUMP JUMPDEST PUSH4 0x4E487B71 PUSH1 0xE0 SHL PUSH0 MSTORE PUSH1 0x11 PUSH1 0x4 MSTORE PUSH1 0x24 PUSH0 REVERT JUMPDEST PUSH2 0x676 CALLVALUE PUSH1 0x3 SLOAD PUSH2 0x649 JUMP JUMPDEST PUSH1 0x3 SSTORE PUSH1 0x40 MLOAD CALLVALUE DUP2 MSTORE PUSH32 0x88A5966D370B9919B20F3E2C13FF65706F196A4E32CC2C12BF57088F88525874 PUSH1 0x20 CALLER SWAP3 LOG2 JUMP JUMPDEST PUSH0 SLOAD PUSH1 0x1 PUSH1 0x1 PUSH1 0xA0 SHL SUB AND CALLER SUB PUSH2 0x6BA JUMPI JUMP JUMPDEST PUSH4 0x118CDAA7 PUSH1 0xE0 SHL PUSH0 MSTORE CALLER PUSH1 0x4 MSTORE PUSH1 0x24 PUSH0 REVERT JUMPDEST PUSH1 0x2 PUSH0 MLOAD PUSH1 0x20 PUSH2 0x93C PUSH0 CODECOPY PUSH0 MLOAD SWAP1 PUSH0 MSTORE SLOAD EQ PUSH2 0x6F6 JUMPI PUSH1 0x2 PUSH0 MLOAD PUSH1 0x20 PUSH2 0x93C PUSH0 CODECOPY PUSH0 MLOAD SWAP1 PUSH0 MSTORE SSTORE JUMP JUMPDEST PUSH4 0x3EE5AEB5 PUSH1 0xE0 SHL PUSH0 MSTORE PUSH1 0x4 PUSH0 REVERT JUMPDEST SWAP2 SWAP1 DUP3 SUB SWAP2 DUP3 GT PUSH2 0x656 JUMPI JUMP JUMPDEST PUSH2 0xFA0 DUP2 MUL SWAP1 DUP1 ISZERO SWAP2 DUP2 DUP2 DIV PUSH2 0xFA0 EQ DUP4 OR ISZERO PUSH2 0x656 JUMPI PUSH2 0x2710 SWAP1 DIV SWAP2 PUSH2 0xBB8 DUP3 MUL SWAP1 DUP3 DUP3 DIV PUSH2 0xBB8 EQ OR ISZERO PUSH2 0x656 JUMPI DUP3 SWAP2 PUSH2 0x757 PUSH2 0x2710 PUSH2 0x75C SWAP4 DIV SWAP5 DUP6 SWAP3 PUSH2 0x705 JUMP JUMPDEST PUSH2 0x705 JUMP JUMPDEST SWAP2 DUP2 PUSH2 0x852 JUMPI JUMPDEST DUP1 PUSH2 0x7F4 JUMPI JUMPDEST DUP3 PUSH2 0x7A8 JUMPI JUMPDEST SWAP1 PUSH32 0xAC9277BA0591E1C0C98F15CD808E9B0EF53DF9369302771F2621A9B254A0ED41 SWAP3 PUSH1 0x60 SWAP3 PUSH1 0x40 MLOAD SWAP3 DUP4 MSTORE PUSH1 0x20 DUP4 ADD MSTORE PUSH1 0x40 DUP3 ADD MSTORE LOG1 JUMP JUMPDEST SWAP1 PUSH2 0x7B5 DUP4 PUSH1 0x6 SLOAD PUSH2 0x649 JUMP JUMPDEST PUSH1 0x6 SSTORE PUSH0 DUP1 DUP1 DUP1 DUP7 PUSH32 0x0 GAS CALL PUSH2 0x7E8 PUSH2 0x60A JUMP JUMPDEST POP ISZERO PUSH2 0x258 JUMPI SWAP1 PUSH2 0x76F JUMP JUMPDEST PUSH2 0x800 DUP2 PUSH1 0x5 SLOAD PUSH2 0x649 JUMP JUMPDEST PUSH1 0x5 SSTORE PUSH0 DUP1 PUSH1 0x1 DUP1 PUSH1 0xA0 SHL SUB PUSH1 0x2 SLOAD AND PUSH1 0x40 MLOAD DUP5 PUSH1 0x20 DUP3 ADD SWAP2 PUSH4 0x17552F69 PUSH1 0xE2 SHL DUP4 MSTORE PUSH1 0x4 DUP2 MSTORE PUSH2 0x832 PUSH1 0x24 DUP3 PUSH2 0x5D4 JUMP JUMPDEST MLOAD SWAP3 GAS CALL PUSH2 0x83E PUSH2 0x60A JUMP JUMPDEST POP PUSH2 0x769 JUMPI PUSH4 0x12171D83 PUSH1 0xE3 SHL PUSH0 MSTORE PUSH1 0x4 PUSH0 REVERT JUMPDEST PUSH2 0x85E DUP3 PUSH1 0x4 SLOAD PUSH2 0x649 JUMP JUMPDEST PUSH1 0x4 SSTORE PUSH0 DUP1 PUSH1 0x1 DUP1 PUSH1 0xA0 SHL SUB PUSH1 0x1 SLOAD AND PUSH1 0x40 MLOAD DUP6 PUSH1 0x20 DUP3 ADD SWAP2 PUSH4 0x17552F69 PUSH1 0xE2 SHL DUP4 MSTORE PUSH1 0x4 DUP2 MSTORE PUSH2 0x890 PUSH1 0x24 DUP3 PUSH2 0x5D4 JUMP JUMPDEST MLOAD SWAP3 GAS CALL PUSH2 0x89C PUSH2 0x60A JUMP JUMPDEST POP PUSH2 0x763 JUMPI PUSH4 0x12171D83 PUSH1 0xE3 SHL PUSH0 MSTORE PUSH1 0x4 PUSH0 REVERT JUMPDEST PUSH1 0x2 SLOAD PUSH1 0xFF DUP2 PUSH1 0xA0 SHR AND ISZERO DUP1 PUSH2 0x927 JUMPI JUMPDEST DUP1 PUSH2 0x915 JUMPI JUMPDEST PUSH2 0x8CE JUMPI POP JUMP JUMPDEST PUSH1 0xFF PUSH1 0xA0 SHL NOT DUP2 AND PUSH1 0x1 PUSH1 0xA0 SHL OR PUSH1 0x2 SSTORE PUSH1 0x1 SLOAD PUSH1 0x1 PUSH1 0x1 PUSH1 0xA0 SHL SUB SWAP2 DUP3 AND SWAP2 AND PUSH32 0xCE454530599629DF9DA536B647088DB8C52B39355F210FA0B3016000433ADFF4 PUSH0 DUP1 LOG3 JUMP JUMPDEST POP PUSH1 0x1 PUSH1 0x1 PUSH1 0xA0 SHL SUB DUP2 AND ISZERO ISZERO PUSH2 0x8C7 JUMP JUMPDEST POP PUSH1 0x1 SLOAD PUSH1 0x1 PUSH1 0x1 PUSH1 0xA0 SHL SUB AND ISZERO ISZERO PUSH2 0x8C1 JUMP INVALID SWAP12 PUSH24 0x9B17422D0DF92223018B32B4D1FA46E071723D6817E2486D STOP EXTCODESIZE 0xEC 0xC5 PUSH0 STOP LOG2 PUSH5 0x6970667358 0x22 SLT KECCAK256 DUP1 NOT GAS 0xC7 0xE3 0xB0 0xEC PUSH30 0x8D69BA683064E8BFACA5986A386F05B8B349AAA3AE29AD4164736F6C6343 STOP ADDMOD SHR STOP CALLER "},"methodIdentifiers":{"BOTTOM_BPS()":"445e7d07","DIVIDEND_BPS()":"8d7036de","STUDIO_BPS()":"9088f4ea","TOTAL_BPS()":"d3cd52bc","bottomProtectionVault()":"37efa0fb","emergencyWithdraw()":"db2e21bc","flush()":"6b9f96ea","flushAmount(uint256)":"250055a8","holderDividend()":"55d5ea01","owner()":"8da5cb5b","pendingBalance()":"57b4d18e","renounceOwnership()":"715018a6","setBottomProtectionVault(address)":"96319c4d","setHolderDividend(address)":"7db6a945","studioWallet()":"ead8a581","totalForwardedToBottom()":"e7201df9","totalForwardedToDividend()":"d361ea49","totalForwardedToStudio()":"476cdb78","totalReceived()":"a3c2c462","transferOwnership(address)":"f2fde38b","wired()":"39d57b02"}}}}}