{"contracts/HolderDividend.sol":{"HolderDividend":{"abi":[{"inputs":[{"internalType":"address","name":"_token","type":"address"},{"internalType":"uint256","name":"_minimumBalance","type":"uint256"},{"internalType":"address","name":"_owner","type":"address"}],"stateMutability":"nonpayable","type":"constructor"},{"inputs":[],"name":"AlreadyRegistered","type":"error"},{"inputs":[{"internalType":"uint256","name":"have","type":"uint256"},{"internalType":"uint256","name":"need","type":"uint256"}],"name":"InsufficientBalance","type":"error"},{"inputs":[],"name":"NotRegistered","type":"error"},{"inputs":[],"name":"NothingToClaim","type":"error"},{"inputs":[{"internalType":"address","name":"owner","type":"address"}],"name":"OwnableInvalidOwner","type":"error"},{"inputs":[{"internalType":"address","name":"account","type":"address"}],"name":"OwnableUnauthorizedAccount","type":"error"},{"inputs":[],"name":"ReentrancyGuardReentrantCall","type":"error"},{"inputs":[],"name":"TransferFailed","type":"error"},{"inputs":[],"name":"ZeroAddress","type":"error"},{"anonymous":false,"inputs":[{"indexed":true,"internalType":"address","name":"user","type":"address"},{"indexed":false,"internalType":"uint256","name":"oldBalance","type":"uint256"},{"indexed":false,"internalType":"uint256","name":"newBalance","type":"uint256"},{"indexed":false,"internalType":"uint256","name":"newWeightedStartTs","type":"uint256"}],"name":"BalanceUpdated","type":"event"},{"anonymous":false,"inputs":[{"indexed":true,"internalType":"uint256","name":"idx","type":"uint256"},{"indexed":false,"internalType":"uint256","name":"bnbAmount","type":"uint256"},{"indexed":false,"internalType":"uint256","name":"totalWeight","type":"uint256"},{"indexed":false,"internalType":"uint256","name":"settledAt","type":"uint256"}],"name":"BatchSettled","type":"event"},{"anonymous":false,"inputs":[{"indexed":true,"internalType":"address","name":"user","type":"address"},{"indexed":false,"internalType":"uint256","name":"amount","type":"uint256"},{"indexed":false,"internalType":"uint256","name":"nextIdx","type":"uint256"}],"name":"Claimed","type":"event"},{"anonymous":false,"inputs":[{"indexed":true,"internalType":"address","name":"user","type":"address"},{"indexed":false,"internalType":"uint256","name":"forfeitedBnb","type":"uint256"}],"name":"Invalidated","type":"event"},{"anonymous":false,"inputs":[{"indexed":false,"internalType":"uint256","name":"prev","type":"uint256"},{"indexed":false,"internalType":"uint256","name":"next","type":"uint256"}],"name":"MinimumBalanceUpdated","type":"event"},{"anonymous":false,"inputs":[{"indexed":true,"internalType":"address","name":"previousOwner","type":"address"},{"indexed":true,"internalType":"address","name":"newOwner","type":"address"}],"name":"OwnershipTransferred","type":"event"},{"anonymous":false,"inputs":[{"indexed":true,"internalType":"address","name":"user","type":"address"},{"indexed":false,"internalType":"uint256","name":"balance","type":"uint256"}],"name":"Registered","type":"event"},{"anonymous":false,"inputs":[{"indexed":true,"internalType":"address","name":"prev","type":"address"},{"indexed":true,"internalType":"address","name":"next","type":"address"}],"name":"TaxReceiverUpdated","type":"event"},{"inputs":[],"name":"activeRegisteredCount","outputs":[{"internalType":"uint256","name":"","type":"uint256"}],"stateMutability":"view","type":"function"},{"inputs":[],"name":"claim","outputs":[],"stateMutability":"nonpayable","type":"function"},{"inputs":[{"internalType":"address","name":"user","type":"address"}],"name":"currentWeight","outputs":[{"internalType":"uint256","name":"","type":"uint256"}],"stateMutability":"view","type":"function"},{"inputs":[],"name":"emergencyWithdraw","outputs":[],"stateMutability":"nonpayable","type":"function"},{"inputs":[],"name":"forfeitedPool","outputs":[{"internalType":"uint256","name":"","type":"uint256"}],"stateMutability":"view","type":"function"},{"inputs":[],"name":"minimumBalance","outputs":[{"internalType":"uint256","name":"","type":"uint256"}],"stateMutability":"view","type":"function"},{"inputs":[],"name":"notifyReward","outputs":[],"stateMutability":"payable","type":"function"},{"inputs":[],"name":"owner","outputs":[{"internalType":"address","name":"","type":"address"}],"stateMutability":"view","type":"function"},{"inputs":[{"internalType":"address","name":"user","type":"address"}],"name":"pendingReward","outputs":[{"internalType":"uint256","name":"","type":"uint256"}],"stateMutability":"view","type":"function"},{"inputs":[],"name":"register","outputs":[],"stateMutability":"nonpayable","type":"function"},{"inputs":[{"internalType":"uint256","name":"","type":"uint256"}],"name":"registeredList","outputs":[{"internalType":"address","name":"","type":"address"}],"stateMutability":"view","type":"function"},{"inputs":[],"name":"renounceOwnership","outputs":[],"stateMutability":"nonpayable","type":"function"},{"inputs":[{"internalType":"uint256","name":"_minimumBalance","type":"uint256"}],"name":"setMinimumBalance","outputs":[],"stateMutability":"nonpayable","type":"function"},{"inputs":[{"internalType":"address","name":"_taxReceiver","type":"address"}],"name":"setTaxReceiver","outputs":[],"stateMutability":"nonpayable","type":"function"},{"inputs":[],"name":"settlementCount","outputs":[{"internalType":"uint256","name":"","type":"uint256"}],"stateMutability":"view","type":"function"},{"inputs":[{"internalType":"uint256","name":"","type":"uint256"}],"name":"settlements","outputs":[{"internalType":"uint256","name":"bnbAmount","type":"uint256"},{"internalType":"uint256","name":"totalWeight","type":"uint256"},{"internalType":"uint256","name":"settledAt","type":"uint256"}],"stateMutability":"view","type":"function"},{"inputs":[],"name":"taxReceiver","outputs":[{"internalType":"address","name":"","type":"address"}],"stateMutability":"view","type":"function"},{"inputs":[],"name":"token","outputs":[{"internalType":"contract IERC20","name":"","type":"address"}],"stateMutability":"view","type":"function"},{"inputs":[],"name":"totalClaimedGlobal","outputs":[{"internalType":"uint256","name":"","type":"uint256"}],"stateMutability":"view","type":"function"},{"inputs":[],"name":"totalCurrentWeight","outputs":[{"internalType":"uint256","name":"","type":"uint256"}],"stateMutability":"view","type":"function"},{"inputs":[],"name":"totalReceived","outputs":[{"internalType":"uint256","name":"","type":"uint256"}],"stateMutability":"view","type":"function"},{"inputs":[],"name":"totalRegisteredBalance","outputs":[{"internalType":"uint256","name":"","type":"uint256"}],"stateMutability":"view","type":"function"},{"inputs":[{"internalType":"address","name":"newOwner","type":"address"}],"name":"transferOwnership","outputs":[],"stateMutability":"nonpayable","type":"function"},{"inputs":[{"internalType":"address","name":"user","type":"address"}],"name":"updateBalance","outputs":[],"stateMutability":"nonpayable","type":"function"},{"inputs":[{"internalType":"address","name":"user","type":"address"}],"name":"userInfo","outputs":[{"internalType":"bool","name":"registered","type":"bool"},{"internalType":"uint256","name":"registeredBalance","type":"uint256"},{"internalType":"uint256","name":"weightedStartTs","type":"uint256"},{"internalType":"uint256","name":"holdingSeconds","type":"uint256"},{"internalType":"uint256","name":"registeredAt","type":"uint256"},{"internalType":"uint256","name":"nextSettlementIdx","type":"uint256"},{"internalType":"uint256","name":"userTotalClaimed","type":"uint256"},{"internalType":"uint256","name":"pendingBnb","type":"uint256"}],"stateMutability":"view","type":"function"},{"inputs":[{"internalType":"address","name":"user","type":"address"}],"name":"userWeightShare","outputs":[{"internalType":"uint256","name":"numerator","type":"uint256"},{"internalType":"uint256","name":"denominator","type":"uint256"}],"stateMutability":"view","type":"function"},{"inputs":[{"internalType":"address","name":"","type":"address"}],"name":"users","outputs":[{"internalType":"uint256","name":"registeredBalance","type":"uint256"},{"internalType":"uint256","name":"weightedStartTs","type":"uint256"},{"internalType":"uint256","name":"nextSettlementIdx","type":"uint256"},{"internalType":"uint256","name":"totalClaimed","type":"uint256"},{"internalType":"uint256","name":"registeredAt","type":"uint256"},{"internalType":"bool","name":"registered","type":"bool"}],"stateMutability":"view","type":"function"},{"stateMutability":"payable","type":"receive"}],"evm":{"bytecode":{"linkReferences":{},"object":"60a03461013057601f61134c38819003918201601f19168301916001600160401b03831184841017610134578084926060946040528339810103126101305761004781610148565b602082015190916001600160a01b039061006390604001610148565b1691821561011d575f80546001600160a01b031981168517825560405194916001600160a01b03909116907f8be0079c531659141344cd1fd0a4f28419497f9722a3daafe3b4186f6b6457e09080a360017f9b779b17422d0df92223018b32b4d1fa46e071723d6817e2486d003becc55f00556001600160a01b0316801561010e576080526001556111ef908161015d8239608051818181610175015281816107900152610c470152f35b63d92e233d60e01b5f5260045ffd5b631e4fbdf760e01b5f525f60045260245ffd5b5f80fd5b634e487b7160e01b5f52604160045260245ffd5b51906001600160a01b03821682036101305756fe608080604052600436101561002b575b50361561001a575f80fd5b61002634600854610bcc565b600855005b5f3560e01c908163037eca7614610b04575080630526d3ae14610a7e57806308df7dc814610a265780631959a002146109565780631aa3a008146107465780633446e4b4146106f357806340b8405a146106ab5780634e71d92d146105d95780634e7a2207146105aa5780635d54bda414610595578063715018a61461053e5780637872feb2146105035780638da5cb5b146104dc578063a3c2c462146104bf578063a87430ba14610447578063ab8bc45d1461042a578063b9d1d49b1461040d578063cd8de42c1461039d578063d3f2163614610380578063d4a3ffe91461033e578063db2e21bc146102c7578063e6ef73d61461029f578063f2fde38b14610216578063f40f0f52146101e7578063f4634de1146101c5578063fb7c2bf2146101a85763fc0c546a14610160575f61000f565b346101a4575f3660031901126101a4576040517f00000000000000000000000000000000000000000000000000000000000000006001600160a01b03168152602090f35b5f80fd5b346101a4575f3660031901126101a4576020600954604051908152f35b346101a4575f3660031901126101a45760206101df611120565b604051908152f35b346101a45760203660031901126101a4576004356001600160a01b03811681036101a4576101df602091610fd7565b346101a45760203660031901126101a4576004356001600160a01b038116908190036101a4576102446110fa565b801561028c575f80546001600160a01b03198116831782556001600160a01b0316907f8be0079c531659141344cd1fd0a4f28419497f9722a3daafe3b4186f6b6457e09080a3005b631e4fbdf760e01b5f525f60045260245ffd5b346101a4575f3660031901126101a4576002546040516001600160a01b039091168152602090f35b346101a4575f3660031901126101a4576102df6110fa565b6102e76110c2565b47801561032f575f8080809360018060a01b038254165af1610307610f98565b50156103205760015f51602061119a5f395f51905f5255005b6312171d8360e31b5f5260045ffd5b6312d37ee560e31b5f5260045ffd5b346101a45760203660031901126101a4576004356006548110156101a457610367602091610b69565b905460405160039290921b1c6001600160a01b03168152f35b346101a4575f3660031901126101a4576020600454604051908152f35b346101a45760203660031901126101a4576004356001600160a01b038116908190036101a4576103cb6110fa565b600254816001600160a01b0382167ff970bc488f38cdc7caf559de1924e9c564d90c54d1767c82df2cbc55c9829a5e5f80a36001600160a01b03191617600255005b346101a4575f3660031901126101a4576020600154604051908152f35b346101a4575f3660031901126101a4576020600754604051908152f35b346101a45760203660031901126101a4576004356001600160a01b038116908190036101a4575f52600560205260c060405f20805490600181015490600281015460038201549060ff6005600485015494015416936040519586526020860152604085015260608401526080830152151560a0820152f35b346101a4575f3660031901126101a4576020600854604051908152f35b346101a4575f3660031901126101a4575f546040516001600160a01b039091168152602090f35b346101a45760203660031901126101a4576004356001600160a01b03811681036101a457610532604091610f40565b82519182526020820152f35b346101a4575f3660031901126101a4576105566110fa565b5f80546001600160a01b0319811682556001600160a01b03167f8be0079c531659141344cd1fd0a4f28419497f9722a3daafe3b4186f6b6457e08280a3005b5f3660031901126101a4576105a8610e51565b005b346101a45760203660031901126101a4576004356001600160a01b03811681036101a4576101df602091610dfd565b346101a4575f3660031901126101a4576105f16110c2565b335f52600560205260405f2060ff6005820154161561069c5761061381610ffc565b90811561032f57600380549182600282015501610631838254610bcc565b905561063f82600954610bcc565b6009555f80808085335af1610652610f98565b50156103205760405191825260208201527f987d620f307ff6b94d58743cb7a7509f24071586a77759b77c2d4e29f75a2f9a60403392a260015f51602061119a5f395f51905f5255005b63aba4733960e01b5f5260045ffd5b346101a45760203660031901126101a4576004356001600160a01b03811681036101a4576106e0906106db6110c2565b610c0a565b60015f51602061119a5f395f51905f5255005b346101a45760203660031901126101a45760043561070f6110fa565b7fc2ed71504bd70e947d9a514f52be4f28827ef83859c414054d0874ab910844a160406001548151908152836020820152a1600155005b346101a4575f3660031901126101a45761075e6110c2565b335f52600560205260ff600560405f20015416610947576040516370a0823160e01b81523360048201526020816024817f00000000000000000000000000000000000000000000000000000000000000006001600160a01b03165afa90811561093c575f9161090a575b506001548082106108f4575060035460405160c081019080821067ffffffffffffffff8311176108e057600591604052838152602081019242845260408201908152606082015f8152608083019142835260a084019560018752335f528560205260405f2094518555516001850155516002840155516003830155516004820155019051151560ff8019835416911617905561086681600754610bcc565b600755600654600160401b8110156108e0578060016108889201600655610b69565b81549060031b9033821b9160018060a01b03901b19161790556040519081527f6f3bf3fa84e4763a43b3d23f9d79be242d6d5c834941ff4c1111b67469e1150c60203392a260015f51602061119a5f395f51905f5255005b634e487b7160e01b5f52604160045260245ffd5b9063cf47918160e01b5f5260045260245260445ffd5b90506020813d602011610934575b8161092560209383610baa565b810103126101a45751816107c8565b3d9150610918565b6040513d5f823e3d90fd5b630ea075bf60e21b5f5260045ffd5b346101a45760203660031901126101a4576004356001600160a01b038116908190036101a4575f52600560205261010060405f2060ff60058201541690818092610a19575b15610a12576109ae600182015442610b81565b905b805491600182015490600483015490600284015492600385015494875f14610a0a576109db90610ffc565b955b6040519715158852602088015260408701526060860152608085015260a084015260c083015260e0820152f35b505f956109dd565b5f906109b0565b506001810154421161099b565b346101a45760203660031901126101a4576004356003548110156101a457610a4d90610b1e565b508054610a7a60026001840154930154604051938493846040919493926060820195825260208201520152565b0390f35b346101a4575f3660031901126101a4575f5f600654905b818110610aa757602083604051908152f35b610ab081610b69565b60018060a01b0391549060031b1c165f52600560205260ff600560405f20015416610ade575b600101610a95565b915f198114610af05760010191610ad6565b634e487b7160e01b5f52601160045260245ffd5b346101a4575f3660031901126101a4576020906003548152f35b600354811015610b555760035f81815291027fc2575a0e9e593c00f959f8c92f12db2869c3395a3b0502d05e2516446f71f85b0191565b634e487b7160e01b5f52603260045260245ffd5b600654811015610b555760065f5260205f2001905f90565b91908203918211610af057565b6060810190811067ffffffffffffffff8211176108e057604052565b90601f8019910116810190811067ffffffffffffffff8211176108e057604052565b91908201809211610af057565b81810292918115918404141715610af057565b8115610bf6570490565b634e487b7160e01b5f52601260045260245ffd5b60018060a01b0316805f52600560205260405f2060ff60058201541615610df9576040516370a0823160e01b8152600481018390526020816024817f00000000000000000000000000000000000000000000000000000000000000006001600160a01b03165afa90811561093c575f91610dc7575b5081548110610d3b578154808211610c98575b50505050565b610d2f827fd8b455e949c1d522b95778231eec1beff214f4fbe062f64b18a86272caaa1fc794610cc88483610b81565b610cf583610cf06001850193610cea610ce286548b610bd9565b914290610bd9565b90610bcc565b610bec565b928392610d0d82610d0889600754610b81565b610bcc565b6007555555604051938493846040919493926060820195825260208201520152565b0390a25f808080610c92565b50602081610d7c610d6c7f488c05909d4e56ae790f1eb8d403a86eee7cf559e6fa940942dbb5890ad0baf994610ffc565b9182610db3575b54600754610b81565b600755835f52600582525f6005604082208281558260018201558260028201558260038201558260048201550155604051908152a2565b610dbf83600454610bcc565b600455610d73565b90506020813d602011610df1575b81610de260209383610baa565b810103126101a457515f610c7f565b3d9150610dd5565b5050565b60018060a01b03165f52600560205260405f2060ff60058201541615610e4c57806001610e419201548042115f14610e4457610e399042610b81565b905b54610bd9565b90565b505f90610e3b565b505f90565b610e5d34600854610bcc565b600855610e6c60045434610bcc565b8015610f3d57610e7a611120565b8015610f37575f6004556003549160405191610e9583610b8e565b81835260208301928184526040810190428252600160401b8610156108e05760018601600355610ec486610b1e565b929092610f24577fd89917fc1a94c47cec7534fffae602f7f5c38d3444fd4cf7df701dd61c1eca1e9560029251845551600184015551910155610f1f6040519283924291846040919493926060820195825260208201520152565b0390a2565b634e487b7160e01b5f525f60045260245ffd5b50600455565b50565b60018060a01b03165f52600560205260405f2060ff60058201541615610f9057806001610f7c9201548042115f14610e4457610e399042610b81565b90610f85611120565b80610e415750600190565b505f90600190565b3d15610fd2573d9067ffffffffffffffff82116108e05760405191610fc7601f8201601f191660200184610baa565b82523d5f602084013e565b606090565b60018060a01b03165f52600560205260405f2060ff60058201541615610e4c57610e41905b5f906003549060028101545b8281106110155750505090565b61101e81610b1e565b5060405161102b81610b8e565b815481526002600183015492602083019384520154806040830152600185015490818111156110b6576110689161106191610b81565b8554610bd9565b9082511515806110ad575b611085575b5050506001905b01611008565b6110a49261109c6001959893610cea935190610bd9565b905190610bec565b93905f80611078565b50811515611073565b5050505060019061107f565b60025f51602061119a5f395f51905f5254146110eb5760025f51602061119a5f395f51905f5255565b633ee5aeb560e01b5f5260045ffd5b5f546001600160a01b0316330361110d57565b63118cdaa760e01b5f523360045260245ffd5b5f6006545f905b80821061113357505090565b909161113e83610b69565b60018060a01b0391549060031b1c165f52600560205260405f2060ff6005820154161561118f57600191610cea82846111869401548042115f14610e4457610e399042610b81565b925b0190611127565b509160019061118856fe9b779b17422d0df92223018b32b4d1fa46e071723d6817e2486d003becc55f00a264697066735822122070834b14305cfb747b4171937eaf2c1fcdb33bd3640f709ad02334bf2dca1ae164736f6c634300081c0033","opcodes":"PUSH1 0xA0 CALLVALUE PUSH2 0x130 JUMPI PUSH1 0x1F PUSH2 0x134C CODESIZE DUP2 SWAP1 SUB SWAP2 DUP3 ADD PUSH1 0x1F NOT AND DUP4 ADD SWAP2 PUSH1 0x1 PUSH1 0x1 PUSH1 0x40 SHL SUB DUP4 GT DUP5 DUP5 LT OR PUSH2 0x134 JUMPI DUP1 DUP5 SWAP3 PUSH1 0x60 SWAP5 PUSH1 0x40 MSTORE DUP4 CODECOPY DUP2 ADD SUB SLT PUSH2 0x130 JUMPI PUSH2 0x47 DUP2 PUSH2 0x148 JUMP JUMPDEST PUSH1 0x20 DUP3 ADD MLOAD SWAP1 SWAP2 PUSH1 0x1 PUSH1 0x1 PUSH1 0xA0 SHL SUB SWAP1 PUSH2 0x63 SWAP1 PUSH1 0x40 ADD PUSH2 0x148 JUMP JUMPDEST AND SWAP2 DUP3 ISZERO PUSH2 0x11D JUMPI PUSH0 DUP1 SLOAD PUSH1 0x1 PUSH1 0x1 PUSH1 0xA0 SHL SUB NOT DUP2 AND DUP6 OR DUP3 SSTORE PUSH1 0x40 MLOAD SWAP5 SWAP2 PUSH1 0x1 PUSH1 0x1 PUSH1 0xA0 SHL SUB SWAP1 SWAP2 AND SWAP1 PUSH32 0x8BE0079C531659141344CD1FD0A4F28419497F9722A3DAAFE3B4186F6B6457E0 SWAP1 DUP1 LOG3 PUSH1 0x1 PUSH32 0x9B779B17422D0DF92223018B32B4D1FA46E071723D6817E2486D003BECC55F00 SSTORE PUSH1 0x1 PUSH1 0x1 PUSH1 0xA0 SHL SUB AND DUP1 ISZERO PUSH2 0x10E JUMPI PUSH1 0x80 MSTORE PUSH1 0x1 SSTORE PUSH2 0x11EF SWAP1 DUP2 PUSH2 0x15D DUP3 CODECOPY PUSH1 0x80 MLOAD DUP2 DUP2 DUP2 PUSH2 0x175 ADD MSTORE DUP2 DUP2 PUSH2 0x790 ADD MSTORE PUSH2 0xC47 ADD MSTORE RETURN JUMPDEST PUSH4 0xD92E233D PUSH1 0xE0 SHL PUSH0 MSTORE PUSH1 0x4 PUSH0 REVERT JUMPDEST PUSH4 0x1E4FBDF7 PUSH1 0xE0 SHL PUSH0 MSTORE PUSH0 PUSH1 0x4 MSTORE PUSH1 0x24 PUSH0 REVERT JUMPDEST PUSH0 DUP1 REVERT JUMPDEST PUSH4 0x4E487B71 PUSH1 0xE0 SHL PUSH0 MSTORE PUSH1 0x41 PUSH1 0x4 MSTORE PUSH1 0x24 PUSH0 REVERT JUMPDEST MLOAD SWAP1 PUSH1 0x1 PUSH1 0x1 PUSH1 0xA0 SHL SUB DUP3 AND DUP3 SUB PUSH2 0x130 JUMPI JUMP INVALID PUSH1 0x80 DUP1 PUSH1 0x40 MSTORE PUSH1 0x4 CALLDATASIZE LT ISZERO PUSH2 0x2B JUMPI JUMPDEST POP CALLDATASIZE ISZERO PUSH2 0x1A JUMPI PUSH0 DUP1 REVERT JUMPDEST PUSH2 0x26 CALLVALUE PUSH1 0x8 SLOAD PUSH2 0xBCC JUMP JUMPDEST PUSH1 0x8 SSTORE STOP JUMPDEST PUSH0 CALLDATALOAD PUSH1 0xE0 SHR SWAP1 DUP2 PUSH4 0x37ECA76 EQ PUSH2 0xB04 JUMPI POP DUP1 PUSH4 0x526D3AE EQ PUSH2 0xA7E JUMPI DUP1 PUSH4 0x8DF7DC8 EQ PUSH2 0xA26 JUMPI DUP1 PUSH4 0x1959A002 EQ PUSH2 0x956 JUMPI DUP1 PUSH4 0x1AA3A008 EQ PUSH2 0x746 JUMPI DUP1 PUSH4 0x3446E4B4 EQ PUSH2 0x6F3 JUMPI DUP1 PUSH4 0x40B8405A EQ PUSH2 0x6AB JUMPI DUP1 PUSH4 0x4E71D92D EQ PUSH2 0x5D9 JUMPI DUP1 PUSH4 0x4E7A2207 EQ PUSH2 0x5AA JUMPI DUP1 PUSH4 0x5D54BDA4 EQ PUSH2 0x595 JUMPI DUP1 PUSH4 0x715018A6 EQ PUSH2 0x53E JUMPI DUP1 PUSH4 0x7872FEB2 EQ PUSH2 0x503 JUMPI DUP1 PUSH4 0x8DA5CB5B EQ PUSH2 0x4DC JUMPI DUP1 PUSH4 0xA3C2C462 EQ PUSH2 0x4BF JUMPI DUP1 PUSH4 0xA87430BA EQ PUSH2 0x447 JUMPI DUP1 PUSH4 0xAB8BC45D EQ PUSH2 0x42A JUMPI DUP1 PUSH4 0xB9D1D49B EQ PUSH2 0x40D JUMPI DUP1 PUSH4 0xCD8DE42C EQ PUSH2 0x39D JUMPI DUP1 PUSH4 0xD3F21636 EQ PUSH2 0x380 JUMPI DUP1 PUSH4 0xD4A3FFE9 EQ PUSH2 0x33E JUMPI DUP1 PUSH4 0xDB2E21BC EQ PUSH2 0x2C7 JUMPI DUP1 PUSH4 0xE6EF73D6 EQ PUSH2 0x29F JUMPI DUP1 PUSH4 0xF2FDE38B EQ PUSH2 0x216 JUMPI DUP1 PUSH4 0xF40F0F52 EQ PUSH2 0x1E7 JUMPI DUP1 PUSH4 0xF4634DE1 EQ PUSH2 0x1C5 JUMPI DUP1 PUSH4 0xFB7C2BF2 EQ PUSH2 0x1A8 JUMPI PUSH4 0xFC0C546A EQ PUSH2 0x160 JUMPI PUSH0 PUSH2 0xF JUMP JUMPDEST CALLVALUE PUSH2 0x1A4 JUMPI PUSH0 CALLDATASIZE PUSH1 0x3 NOT ADD SLT PUSH2 0x1A4 JUMPI PUSH1 0x40 MLOAD PUSH32 0x0 PUSH1 0x1 PUSH1 0x1 PUSH1 0xA0 SHL SUB AND DUP2 MSTORE PUSH1 0x20 SWAP1 RETURN JUMPDEST PUSH0 DUP1 REVERT JUMPDEST CALLVALUE PUSH2 0x1A4 JUMPI PUSH0 CALLDATASIZE PUSH1 0x3 NOT ADD SLT PUSH2 0x1A4 JUMPI PUSH1 0x20 PUSH1 0x9 SLOAD PUSH1 0x40 MLOAD SWAP1 DUP2 MSTORE RETURN JUMPDEST CALLVALUE PUSH2 0x1A4 JUMPI PUSH0 CALLDATASIZE PUSH1 0x3 NOT ADD SLT PUSH2 0x1A4 JUMPI PUSH1 0x20 PUSH2 0x1DF PUSH2 0x1120 JUMP JUMPDEST PUSH1 0x40 MLOAD SWAP1 DUP2 MSTORE RETURN JUMPDEST CALLVALUE PUSH2 0x1A4 JUMPI PUSH1 0x20 CALLDATASIZE PUSH1 0x3 NOT ADD SLT PUSH2 0x1A4 JUMPI PUSH1 0x4 CALLDATALOAD PUSH1 0x1 PUSH1 0x1 PUSH1 0xA0 SHL SUB DUP2 AND DUP2 SUB PUSH2 0x1A4 JUMPI PUSH2 0x1DF PUSH1 0x20 SWAP2 PUSH2 0xFD7 JUMP JUMPDEST CALLVALUE PUSH2 0x1A4 JUMPI PUSH1 0x20 CALLDATASIZE PUSH1 0x3 NOT ADD SLT PUSH2 0x1A4 JUMPI PUSH1 0x4 CALLDATALOAD PUSH1 0x1 PUSH1 0x1 PUSH1 0xA0 SHL SUB DUP2 AND SWAP1 DUP2 SWAP1 SUB PUSH2 0x1A4 JUMPI PUSH2 0x244 PUSH2 0x10FA JUMP JUMPDEST DUP1 ISZERO PUSH2 0x28C JUMPI PUSH0 DUP1 SLOAD PUSH1 0x1 PUSH1 0x1 PUSH1 0xA0 SHL SUB NOT DUP2 AND DUP4 OR DUP3 SSTORE PUSH1 0x1 PUSH1 0x1 PUSH1 0xA0 SHL SUB AND SWAP1 PUSH32 0x8BE0079C531659141344CD1FD0A4F28419497F9722A3DAAFE3B4186F6B6457E0 SWAP1 DUP1 LOG3 STOP JUMPDEST PUSH4 0x1E4FBDF7 PUSH1 0xE0 SHL PUSH0 MSTORE PUSH0 PUSH1 0x4 MSTORE PUSH1 0x24 PUSH0 REVERT JUMPDEST CALLVALUE PUSH2 0x1A4 JUMPI PUSH0 CALLDATASIZE PUSH1 0x3 NOT ADD SLT PUSH2 0x1A4 JUMPI PUSH1 0x2 SLOAD PUSH1 0x40 MLOAD PUSH1 0x1 PUSH1 0x1 PUSH1 0xA0 SHL SUB SWAP1 SWAP2 AND DUP2 MSTORE PUSH1 0x20 SWAP1 RETURN JUMPDEST CALLVALUE PUSH2 0x1A4 JUMPI PUSH0 CALLDATASIZE PUSH1 0x3 NOT ADD SLT PUSH2 0x1A4 JUMPI PUSH2 0x2DF PUSH2 0x10FA JUMP JUMPDEST PUSH2 0x2E7 PUSH2 0x10C2 JUMP JUMPDEST SELFBALANCE DUP1 ISZERO PUSH2 0x32F JUMPI PUSH0 DUP1 DUP1 DUP1 SWAP4 PUSH1 0x1 DUP1 PUSH1 0xA0 SHL SUB DUP3 SLOAD AND GAS CALL PUSH2 0x307 PUSH2 0xF98 JUMP JUMPDEST POP ISZERO PUSH2 0x320 JUMPI PUSH1 0x1 PUSH0 MLOAD PUSH1 0x20 PUSH2 0x119A PUSH0 CODECOPY PUSH0 MLOAD SWAP1 PUSH0 MSTORE SSTORE STOP JUMPDEST PUSH4 0x12171D83 PUSH1 0xE3 SHL PUSH0 MSTORE PUSH1 0x4 PUSH0 REVERT JUMPDEST PUSH4 0x12D37EE5 PUSH1 0xE3 SHL PUSH0 MSTORE PUSH1 0x4 PUSH0 REVERT JUMPDEST CALLVALUE PUSH2 0x1A4 JUMPI PUSH1 0x20 CALLDATASIZE PUSH1 0x3 NOT ADD SLT PUSH2 0x1A4 JUMPI PUSH1 0x4 CALLDATALOAD PUSH1 0x6 SLOAD DUP2 LT ISZERO PUSH2 0x1A4 JUMPI PUSH2 0x367 PUSH1 0x20 SWAP2 PUSH2 0xB69 JUMP JUMPDEST SWAP1 SLOAD PUSH1 0x40 MLOAD PUSH1 0x3 SWAP3 SWAP1 SWAP3 SHL SHR PUSH1 0x1 PUSH1 0x1 PUSH1 0xA0 SHL SUB AND DUP2 MSTORE RETURN JUMPDEST CALLVALUE PUSH2 0x1A4 JUMPI PUSH0 CALLDATASIZE PUSH1 0x3 NOT ADD SLT PUSH2 0x1A4 JUMPI PUSH1 0x20 PUSH1 0x4 SLOAD PUSH1 0x40 MLOAD SWAP1 DUP2 MSTORE RETURN JUMPDEST CALLVALUE PUSH2 0x1A4 JUMPI PUSH1 0x20 CALLDATASIZE PUSH1 0x3 NOT ADD SLT PUSH2 0x1A4 JUMPI PUSH1 0x4 CALLDATALOAD PUSH1 0x1 PUSH1 0x1 PUSH1 0xA0 SHL SUB DUP2 AND SWAP1 DUP2 SWAP1 SUB PUSH2 0x1A4 JUMPI PUSH2 0x3CB PUSH2 0x10FA JUMP JUMPDEST PUSH1 0x2 SLOAD DUP2 PUSH1 0x1 PUSH1 0x1 PUSH1 0xA0 SHL SUB DUP3 AND PUSH32 0xF970BC488F38CDC7CAF559DE1924E9C564D90C54D1767C82DF2CBC55C9829A5E PUSH0 DUP1 LOG3 PUSH1 0x1 PUSH1 0x1 PUSH1 0xA0 SHL SUB NOT AND OR PUSH1 0x2 SSTORE STOP JUMPDEST CALLVALUE PUSH2 0x1A4 JUMPI PUSH0 CALLDATASIZE PUSH1 0x3 NOT ADD SLT PUSH2 0x1A4 JUMPI PUSH1 0x20 PUSH1 0x1 SLOAD PUSH1 0x40 MLOAD SWAP1 DUP2 MSTORE RETURN JUMPDEST CALLVALUE PUSH2 0x1A4 JUMPI PUSH0 CALLDATASIZE PUSH1 0x3 NOT ADD SLT PUSH2 0x1A4 JUMPI PUSH1 0x20 PUSH1 0x7 SLOAD PUSH1 0x40 MLOAD SWAP1 DUP2 MSTORE RETURN JUMPDEST CALLVALUE PUSH2 0x1A4 JUMPI PUSH1 0x20 CALLDATASIZE PUSH1 0x3 NOT ADD SLT PUSH2 0x1A4 JUMPI PUSH1 0x4 CALLDATALOAD PUSH1 0x1 PUSH1 0x1 PUSH1 0xA0 SHL SUB DUP2 AND SWAP1 DUP2 SWAP1 SUB PUSH2 0x1A4 JUMPI PUSH0 MSTORE PUSH1 0x5 PUSH1 0x20 MSTORE PUSH1 0xC0 PUSH1 0x40 PUSH0 KECCAK256 DUP1 SLOAD SWAP1 PUSH1 0x1 DUP2 ADD SLOAD SWAP1 PUSH1 0x2 DUP2 ADD SLOAD PUSH1 0x3 DUP3 ADD SLOAD SWAP1 PUSH1 0xFF PUSH1 0x5 PUSH1 0x4 DUP6 ADD SLOAD SWAP5 ADD SLOAD AND SWAP4 PUSH1 0x40 MLOAD SWAP6 DUP7 MSTORE PUSH1 0x20 DUP7 ADD MSTORE PUSH1 0x40 DUP6 ADD MSTORE PUSH1 0x60 DUP5 ADD MSTORE PUSH1 0x80 DUP4 ADD MSTORE ISZERO ISZERO PUSH1 0xA0 DUP3 ADD MSTORE RETURN JUMPDEST CALLVALUE PUSH2 0x1A4 JUMPI PUSH0 CALLDATASIZE PUSH1 0x3 NOT ADD SLT PUSH2 0x1A4 JUMPI PUSH1 0x20 PUSH1 0x8 SLOAD PUSH1 0x40 MLOAD SWAP1 DUP2 MSTORE RETURN JUMPDEST CALLVALUE PUSH2 0x1A4 JUMPI PUSH0 CALLDATASIZE PUSH1 0x3 NOT ADD SLT PUSH2 0x1A4 JUMPI PUSH0 SLOAD PUSH1 0x40 MLOAD PUSH1 0x1 PUSH1 0x1 PUSH1 0xA0 SHL SUB SWAP1 SWAP2 AND DUP2 MSTORE PUSH1 0x20 SWAP1 RETURN JUMPDEST CALLVALUE PUSH2 0x1A4 JUMPI PUSH1 0x20 CALLDATASIZE PUSH1 0x3 NOT ADD SLT PUSH2 0x1A4 JUMPI PUSH1 0x4 CALLDATALOAD PUSH1 0x1 PUSH1 0x1 PUSH1 0xA0 SHL SUB DUP2 AND DUP2 SUB PUSH2 0x1A4 JUMPI PUSH2 0x532 PUSH1 0x40 SWAP2 PUSH2 0xF40 JUMP JUMPDEST DUP3 MLOAD SWAP2 DUP3 MSTORE PUSH1 0x20 DUP3 ADD MSTORE RETURN JUMPDEST CALLVALUE PUSH2 0x1A4 JUMPI PUSH0 CALLDATASIZE PUSH1 0x3 NOT ADD SLT PUSH2 0x1A4 JUMPI PUSH2 0x556 PUSH2 0x10FA JUMP JUMPDEST PUSH0 DUP1 SLOAD PUSH1 0x1 PUSH1 0x1 PUSH1 0xA0 SHL SUB NOT DUP2 AND DUP3 SSTORE PUSH1 0x1 PUSH1 0x1 PUSH1 0xA0 SHL SUB AND PUSH32 0x8BE0079C531659141344CD1FD0A4F28419497F9722A3DAAFE3B4186F6B6457E0 DUP3 DUP1 LOG3 STOP JUMPDEST PUSH0 CALLDATASIZE PUSH1 0x3 NOT ADD SLT PUSH2 0x1A4 JUMPI PUSH2 0x5A8 PUSH2 0xE51 JUMP JUMPDEST STOP JUMPDEST CALLVALUE PUSH2 0x1A4 JUMPI PUSH1 0x20 CALLDATASIZE PUSH1 0x3 NOT ADD SLT PUSH2 0x1A4 JUMPI PUSH1 0x4 CALLDATALOAD PUSH1 0x1 PUSH1 0x1 PUSH1 0xA0 SHL SUB DUP2 AND DUP2 SUB PUSH2 0x1A4 JUMPI PUSH2 0x1DF PUSH1 0x20 SWAP2 PUSH2 0xDFD JUMP JUMPDEST CALLVALUE PUSH2 0x1A4 JUMPI PUSH0 CALLDATASIZE PUSH1 0x3 NOT ADD SLT PUSH2 0x1A4 JUMPI PUSH2 0x5F1 PUSH2 0x10C2 JUMP JUMPDEST CALLER PUSH0 MSTORE PUSH1 0x5 PUSH1 0x20 MSTORE PUSH1 0x40 PUSH0 KECCAK256 PUSH1 0xFF PUSH1 0x5 DUP3 ADD SLOAD AND ISZERO PUSH2 0x69C JUMPI PUSH2 0x613 DUP2 PUSH2 0xFFC JUMP JUMPDEST SWAP1 DUP2 ISZERO PUSH2 0x32F JUMPI PUSH1 0x3 DUP1 SLOAD SWAP2 DUP3 PUSH1 0x2 DUP3 ADD SSTORE ADD PUSH2 0x631 DUP4 DUP3 SLOAD PUSH2 0xBCC JUMP JUMPDEST SWAP1 SSTORE PUSH2 0x63F DUP3 PUSH1 0x9 SLOAD PUSH2 0xBCC JUMP JUMPDEST PUSH1 0x9 SSTORE PUSH0 DUP1 DUP1 DUP1 DUP6 CALLER GAS CALL PUSH2 0x652 PUSH2 0xF98 JUMP JUMPDEST POP ISZERO PUSH2 0x320 JUMPI PUSH1 0x40 MLOAD SWAP2 DUP3 MSTORE PUSH1 0x20 DUP3 ADD MSTORE PUSH32 0x987D620F307FF6B94D58743CB7A7509F24071586A77759B77C2D4E29F75A2F9A PUSH1 0x40 CALLER SWAP3 LOG2 PUSH1 0x1 PUSH0 MLOAD PUSH1 0x20 PUSH2 0x119A PUSH0 CODECOPY PUSH0 MLOAD SWAP1 PUSH0 MSTORE SSTORE STOP JUMPDEST PUSH4 0xABA47339 PUSH1 0xE0 SHL PUSH0 MSTORE PUSH1 0x4 PUSH0 REVERT JUMPDEST CALLVALUE PUSH2 0x1A4 JUMPI PUSH1 0x20 CALLDATASIZE PUSH1 0x3 NOT ADD SLT PUSH2 0x1A4 JUMPI PUSH1 0x4 CALLDATALOAD PUSH1 0x1 PUSH1 0x1 PUSH1 0xA0 SHL SUB DUP2 AND DUP2 SUB PUSH2 0x1A4 JUMPI PUSH2 0x6E0 SWAP1 PUSH2 0x6DB PUSH2 0x10C2 JUMP JUMPDEST PUSH2 0xC0A JUMP JUMPDEST PUSH1 0x1 PUSH0 MLOAD PUSH1 0x20 PUSH2 0x119A PUSH0 CODECOPY PUSH0 MLOAD SWAP1 PUSH0 MSTORE SSTORE STOP JUMPDEST CALLVALUE PUSH2 0x1A4 JUMPI PUSH1 0x20 CALLDATASIZE PUSH1 0x3 NOT ADD SLT PUSH2 0x1A4 JUMPI PUSH1 0x4 CALLDATALOAD PUSH2 0x70F PUSH2 0x10FA JUMP JUMPDEST PUSH32 0xC2ED71504BD70E947D9A514F52BE4F28827EF83859C414054D0874AB910844A1 PUSH1 0x40 PUSH1 0x1 SLOAD DUP2 MLOAD SWAP1 DUP2 MSTORE DUP4 PUSH1 0x20 DUP3 ADD MSTORE LOG1 PUSH1 0x1 SSTORE STOP JUMPDEST CALLVALUE PUSH2 0x1A4 JUMPI PUSH0 CALLDATASIZE PUSH1 0x3 NOT ADD SLT PUSH2 0x1A4 JUMPI PUSH2 0x75E PUSH2 0x10C2 JUMP JUMPDEST CALLER PUSH0 MSTORE PUSH1 0x5 PUSH1 0x20 MSTORE PUSH1 0xFF PUSH1 0x5 PUSH1 0x40 PUSH0 KECCAK256 ADD SLOAD AND PUSH2 0x947 JUMPI PUSH1 0x40 MLOAD PUSH4 0x70A08231 PUSH1 0xE0 SHL DUP2 MSTORE CALLER PUSH1 0x4 DUP3 ADD MSTORE PUSH1 0x20 DUP2 PUSH1 0x24 DUP2 PUSH32 0x0 PUSH1 0x1 PUSH1 0x1 PUSH1 0xA0 SHL SUB AND GAS STATICCALL SWAP1 DUP2 ISZERO PUSH2 0x93C JUMPI PUSH0 SWAP2 PUSH2 0x90A JUMPI JUMPDEST POP PUSH1 0x1 SLOAD DUP1 DUP3 LT PUSH2 0x8F4 JUMPI POP PUSH1 0x3 SLOAD PUSH1 0x40 MLOAD PUSH1 0xC0 DUP2 ADD SWAP1 DUP1 DUP3 LT PUSH8 0xFFFFFFFFFFFFFFFF DUP4 GT OR PUSH2 0x8E0 JUMPI PUSH1 0x5 SWAP2 PUSH1 0x40 MSTORE DUP4 DUP2 MSTORE PUSH1 0x20 DUP2 ADD SWAP3 TIMESTAMP DUP5 MSTORE PUSH1 0x40 DUP3 ADD SWAP1 DUP2 MSTORE PUSH1 0x60 DUP3 ADD PUSH0 DUP2 MSTORE PUSH1 0x80 DUP4 ADD SWAP2 TIMESTAMP DUP4 MSTORE PUSH1 0xA0 DUP5 ADD SWAP6 PUSH1 0x1 DUP8 MSTORE CALLER PUSH0 MSTORE DUP6 PUSH1 0x20 MSTORE PUSH1 0x40 PUSH0 KECCAK256 SWAP5 MLOAD DUP6 SSTORE MLOAD PUSH1 0x1 DUP6 ADD SSTORE MLOAD PUSH1 0x2 DUP5 ADD SSTORE MLOAD PUSH1 0x3 DUP4 ADD SSTORE MLOAD PUSH1 0x4 DUP3 ADD SSTORE ADD SWAP1 MLOAD ISZERO ISZERO PUSH1 0xFF DUP1 NOT DUP4 SLOAD AND SWAP2 AND OR SWAP1 SSTORE PUSH2 0x866 DUP2 PUSH1 0x7 SLOAD PUSH2 0xBCC JUMP JUMPDEST PUSH1 0x7 SSTORE PUSH1 0x6 SLOAD PUSH1 0x1 PUSH1 0x40 SHL DUP2 LT ISZERO PUSH2 0x8E0 JUMPI DUP1 PUSH1 0x1 PUSH2 0x888 SWAP3 ADD PUSH1 0x6 SSTORE PUSH2 0xB69 JUMP JUMPDEST DUP2 SLOAD SWAP1 PUSH1 0x3 SHL SWAP1 CALLER DUP3 SHL SWAP2 PUSH1 0x1 DUP1 PUSH1 0xA0 SHL SUB SWAP1 SHL NOT AND OR SWAP1 SSTORE PUSH1 0x40 MLOAD SWAP1 DUP2 MSTORE PUSH32 0x6F3BF3FA84E4763A43B3D23F9D79BE242D6D5C834941FF4C1111B67469E1150C PUSH1 0x20 CALLER SWAP3 LOG2 PUSH1 0x1 PUSH0 MLOAD PUSH1 0x20 PUSH2 0x119A PUSH0 CODECOPY PUSH0 MLOAD SWAP1 PUSH0 MSTORE SSTORE STOP JUMPDEST PUSH4 0x4E487B71 PUSH1 0xE0 SHL PUSH0 MSTORE PUSH1 0x41 PUSH1 0x4 MSTORE PUSH1 0x24 PUSH0 REVERT JUMPDEST SWAP1 PUSH4 0xCF479181 PUSH1 0xE0 SHL PUSH0 MSTORE PUSH1 0x4 MSTORE PUSH1 0x24 MSTORE PUSH1 0x44 PUSH0 REVERT JUMPDEST SWAP1 POP PUSH1 0x20 DUP2 RETURNDATASIZE PUSH1 0x20 GT PUSH2 0x934 JUMPI JUMPDEST DUP2 PUSH2 0x925 PUSH1 0x20 SWAP4 DUP4 PUSH2 0xBAA JUMP JUMPDEST DUP2 ADD SUB SLT PUSH2 0x1A4 JUMPI MLOAD DUP2 PUSH2 0x7C8 JUMP JUMPDEST RETURNDATASIZE SWAP2 POP PUSH2 0x918 JUMP JUMPDEST PUSH1 0x40 MLOAD RETURNDATASIZE PUSH0 DUP3 RETURNDATACOPY RETURNDATASIZE SWAP1 REVERT JUMPDEST PUSH4 0xEA075BF PUSH1 0xE2 SHL PUSH0 MSTORE PUSH1 0x4 PUSH0 REVERT JUMPDEST CALLVALUE PUSH2 0x1A4 JUMPI PUSH1 0x20 CALLDATASIZE PUSH1 0x3 NOT ADD SLT PUSH2 0x1A4 JUMPI PUSH1 0x4 CALLDATALOAD PUSH1 0x1 PUSH1 0x1 PUSH1 0xA0 SHL SUB DUP2 AND SWAP1 DUP2 SWAP1 SUB PUSH2 0x1A4 JUMPI PUSH0 MSTORE PUSH1 0x5 PUSH1 0x20 MSTORE PUSH2 0x100 PUSH1 0x40 PUSH0 KECCAK256 PUSH1 0xFF PUSH1 0x5 DUP3 ADD SLOAD AND SWAP1 DUP2 DUP1 SWAP3 PUSH2 0xA19 JUMPI JUMPDEST ISZERO PUSH2 0xA12 JUMPI PUSH2 0x9AE PUSH1 0x1 DUP3 ADD SLOAD TIMESTAMP PUSH2 0xB81 JUMP JUMPDEST SWAP1 JUMPDEST DUP1 SLOAD SWAP2 PUSH1 0x1 DUP3 ADD SLOAD SWAP1 PUSH1 0x4 DUP4 ADD SLOAD SWAP1 PUSH1 0x2 DUP5 ADD SLOAD SWAP3 PUSH1 0x3 DUP6 ADD SLOAD SWAP5 DUP8 PUSH0 EQ PUSH2 0xA0A JUMPI PUSH2 0x9DB SWAP1 PUSH2 0xFFC JUMP JUMPDEST SWAP6 JUMPDEST PUSH1 0x40 MLOAD SWAP8 ISZERO ISZERO DUP9 MSTORE PUSH1 0x20 DUP9 ADD MSTORE PUSH1 0x40 DUP8 ADD MSTORE PUSH1 0x60 DUP7 ADD MSTORE PUSH1 0x80 DUP6 ADD MSTORE PUSH1 0xA0 DUP5 ADD MSTORE PUSH1 0xC0 DUP4 ADD MSTORE PUSH1 0xE0 DUP3 ADD MSTORE RETURN JUMPDEST POP PUSH0 SWAP6 PUSH2 0x9DD JUMP JUMPDEST PUSH0 SWAP1 PUSH2 0x9B0 JUMP JUMPDEST POP PUSH1 0x1 DUP2 ADD SLOAD TIMESTAMP GT PUSH2 0x99B JUMP JUMPDEST CALLVALUE PUSH2 0x1A4 JUMPI PUSH1 0x20 CALLDATASIZE PUSH1 0x3 NOT ADD SLT PUSH2 0x1A4 JUMPI PUSH1 0x4 CALLDATALOAD PUSH1 0x3 SLOAD DUP2 LT ISZERO PUSH2 0x1A4 JUMPI PUSH2 0xA4D SWAP1 PUSH2 0xB1E JUMP JUMPDEST POP DUP1 SLOAD PUSH2 0xA7A PUSH1 0x2 PUSH1 0x1 DUP5 ADD SLOAD SWAP4 ADD SLOAD PUSH1 0x40 MLOAD SWAP4 DUP5 SWAP4 DUP5 PUSH1 0x40 SWAP2 SWAP5 SWAP4 SWAP3 PUSH1 0x60 DUP3 ADD SWAP6 DUP3 MSTORE PUSH1 0x20 DUP3 ADD MSTORE ADD MSTORE JUMP JUMPDEST SUB SWAP1 RETURN JUMPDEST CALLVALUE PUSH2 0x1A4 JUMPI PUSH0 CALLDATASIZE PUSH1 0x3 NOT ADD SLT PUSH2 0x1A4 JUMPI PUSH0 PUSH0 PUSH1 0x6 SLOAD SWAP1 JUMPDEST DUP2 DUP2 LT PUSH2 0xAA7 JUMPI PUSH1 0x20 DUP4 PUSH1 0x40 MLOAD SWAP1 DUP2 MSTORE RETURN JUMPDEST PUSH2 0xAB0 DUP2 PUSH2 0xB69 JUMP JUMPDEST PUSH1 0x1 DUP1 PUSH1 0xA0 SHL SUB SWAP2 SLOAD SWAP1 PUSH1 0x3 SHL SHR AND PUSH0 MSTORE PUSH1 0x5 PUSH1 0x20 MSTORE PUSH1 0xFF PUSH1 0x5 PUSH1 0x40 PUSH0 KECCAK256 ADD SLOAD AND PUSH2 0xADE JUMPI JUMPDEST PUSH1 0x1 ADD PUSH2 0xA95 JUMP JUMPDEST SWAP2 PUSH0 NOT DUP2 EQ PUSH2 0xAF0 JUMPI PUSH1 0x1 ADD SWAP2 PUSH2 0xAD6 JUMP JUMPDEST PUSH4 0x4E487B71 PUSH1 0xE0 SHL PUSH0 MSTORE PUSH1 0x11 PUSH1 0x4 MSTORE PUSH1 0x24 PUSH0 REVERT JUMPDEST CALLVALUE PUSH2 0x1A4 JUMPI PUSH0 CALLDATASIZE PUSH1 0x3 NOT ADD SLT PUSH2 0x1A4 JUMPI PUSH1 0x20 SWAP1 PUSH1 0x3 SLOAD DUP2 MSTORE RETURN JUMPDEST PUSH1 0x3 SLOAD DUP2 LT ISZERO PUSH2 0xB55 JUMPI PUSH1 0x3 PUSH0 DUP2 DUP2 MSTORE SWAP2 MUL PUSH32 0xC2575A0E9E593C00F959F8C92F12DB2869C3395A3B0502D05E2516446F71F85B ADD SWAP2 JUMP JUMPDEST PUSH4 0x4E487B71 PUSH1 0xE0 SHL PUSH0 MSTORE PUSH1 0x32 PUSH1 0x4 MSTORE PUSH1 0x24 PUSH0 REVERT JUMPDEST PUSH1 0x6 SLOAD DUP2 LT ISZERO PUSH2 0xB55 JUMPI PUSH1 0x6 PUSH0 MSTORE PUSH1 0x20 PUSH0 KECCAK256 ADD SWAP1 PUSH0 SWAP1 JUMP JUMPDEST SWAP2 SWAP1 DUP3 SUB SWAP2 DUP3 GT PUSH2 0xAF0 JUMPI JUMP JUMPDEST PUSH1 0x60 DUP2 ADD SWAP1 DUP2 LT PUSH8 0xFFFFFFFFFFFFFFFF DUP3 GT OR PUSH2 0x8E0 JUMPI PUSH1 0x40 MSTORE JUMP JUMPDEST SWAP1 PUSH1 0x1F DUP1 NOT SWAP2 ADD AND DUP2 ADD SWAP1 DUP2 LT PUSH8 0xFFFFFFFFFFFFFFFF DUP3 GT OR PUSH2 0x8E0 JUMPI PUSH1 0x40 MSTORE JUMP JUMPDEST SWAP2 SWAP1 DUP3 ADD DUP1 SWAP3 GT PUSH2 0xAF0 JUMPI JUMP JUMPDEST DUP2 DUP2 MUL SWAP3 SWAP2 DUP2 ISZERO SWAP2 DUP5 DIV EQ OR ISZERO PUSH2 0xAF0 JUMPI JUMP JUMPDEST DUP2 ISZERO PUSH2 0xBF6 JUMPI DIV SWAP1 JUMP JUMPDEST PUSH4 0x4E487B71 PUSH1 0xE0 SHL PUSH0 MSTORE PUSH1 0x12 PUSH1 0x4 MSTORE PUSH1 0x24 PUSH0 REVERT JUMPDEST PUSH1 0x1 DUP1 PUSH1 0xA0 SHL SUB AND DUP1 PUSH0 MSTORE PUSH1 0x5 PUSH1 0x20 MSTORE PUSH1 0x40 PUSH0 KECCAK256 PUSH1 0xFF PUSH1 0x5 DUP3 ADD SLOAD AND ISZERO PUSH2 0xDF9 JUMPI PUSH1 0x40 MLOAD PUSH4 0x70A08231 PUSH1 0xE0 SHL DUP2 MSTORE PUSH1 0x4 DUP2 ADD DUP4 SWAP1 MSTORE PUSH1 0x20 DUP2 PUSH1 0x24 DUP2 PUSH32 0x0 PUSH1 0x1 PUSH1 0x1 PUSH1 0xA0 SHL SUB AND GAS STATICCALL SWAP1 DUP2 ISZERO PUSH2 0x93C JUMPI PUSH0 SWAP2 PUSH2 0xDC7 JUMPI JUMPDEST POP DUP2 SLOAD DUP2 LT PUSH2 0xD3B JUMPI DUP2 SLOAD DUP1 DUP3 GT PUSH2 0xC98 JUMPI JUMPDEST POP POP POP POP JUMP JUMPDEST PUSH2 0xD2F DUP3 PUSH32 0xD8B455E949C1D522B95778231EEC1BEFF214F4FBE062F64B18A86272CAAA1FC7 SWAP5 PUSH2 0xCC8 DUP5 DUP4 PUSH2 0xB81 JUMP JUMPDEST PUSH2 0xCF5 DUP4 PUSH2 0xCF0 PUSH1 0x1 DUP6 ADD SWAP4 PUSH2 0xCEA PUSH2 0xCE2 DUP7 SLOAD DUP12 PUSH2 0xBD9 JUMP JUMPDEST SWAP2 TIMESTAMP SWAP1 PUSH2 0xBD9 JUMP JUMPDEST SWAP1 PUSH2 0xBCC JUMP JUMPDEST PUSH2 0xBEC JUMP JUMPDEST SWAP3 DUP4 SWAP3 PUSH2 0xD0D DUP3 PUSH2 0xD08 DUP10 PUSH1 0x7 SLOAD PUSH2 0xB81 JUMP JUMPDEST PUSH2 0xBCC JUMP JUMPDEST PUSH1 0x7 SSTORE SSTORE SSTORE PUSH1 0x40 MLOAD SWAP4 DUP5 SWAP4 DUP5 PUSH1 0x40 SWAP2 SWAP5 SWAP4 SWAP3 PUSH1 0x60 DUP3 ADD SWAP6 DUP3 MSTORE PUSH1 0x20 DUP3 ADD MSTORE ADD MSTORE JUMP JUMPDEST SUB SWAP1 LOG2 PUSH0 DUP1 DUP1 DUP1 PUSH2 0xC92 JUMP JUMPDEST POP PUSH1 0x20 DUP2 PUSH2 0xD7C PUSH2 0xD6C PUSH32 0x488C05909D4E56AE790F1EB8D403A86EEE7CF559E6FA940942DBB5890AD0BAF9 SWAP5 PUSH2 0xFFC JUMP JUMPDEST SWAP2 DUP3 PUSH2 0xDB3 JUMPI JUMPDEST SLOAD PUSH1 0x7 SLOAD PUSH2 0xB81 JUMP JUMPDEST PUSH1 0x7 SSTORE DUP4 PUSH0 MSTORE PUSH1 0x5 DUP3 MSTORE PUSH0 PUSH1 0x5 PUSH1 0x40 DUP3 KECCAK256 DUP3 DUP2 SSTORE DUP3 PUSH1 0x1 DUP3 ADD SSTORE DUP3 PUSH1 0x2 DUP3 ADD SSTORE DUP3 PUSH1 0x3 DUP3 ADD SSTORE DUP3 PUSH1 0x4 DUP3 ADD SSTORE ADD SSTORE PUSH1 0x40 MLOAD SWAP1 DUP2 MSTORE LOG2 JUMP JUMPDEST PUSH2 0xDBF DUP4 PUSH1 0x4 SLOAD PUSH2 0xBCC JUMP JUMPDEST PUSH1 0x4 SSTORE PUSH2 0xD73 JUMP JUMPDEST SWAP1 POP PUSH1 0x20 DUP2 RETURNDATASIZE PUSH1 0x20 GT PUSH2 0xDF1 JUMPI JUMPDEST DUP2 PUSH2 0xDE2 PUSH1 0x20 SWAP4 DUP4 PUSH2 0xBAA JUMP JUMPDEST DUP2 ADD SUB SLT PUSH2 0x1A4 JUMPI MLOAD PUSH0 PUSH2 0xC7F JUMP JUMPDEST RETURNDATASIZE SWAP2 POP PUSH2 0xDD5 JUMP JUMPDEST POP POP JUMP JUMPDEST PUSH1 0x1 DUP1 PUSH1 0xA0 SHL SUB AND PUSH0 MSTORE PUSH1 0x5 PUSH1 0x20 MSTORE PUSH1 0x40 PUSH0 KECCAK256 PUSH1 0xFF PUSH1 0x5 DUP3 ADD SLOAD AND ISZERO PUSH2 0xE4C JUMPI DUP1 PUSH1 0x1 PUSH2 0xE41 SWAP3 ADD SLOAD DUP1 TIMESTAMP GT PUSH0 EQ PUSH2 0xE44 JUMPI PUSH2 0xE39 SWAP1 TIMESTAMP PUSH2 0xB81 JUMP JUMPDEST SWAP1 JUMPDEST SLOAD PUSH2 0xBD9 JUMP JUMPDEST SWAP1 JUMP JUMPDEST POP PUSH0 SWAP1 PUSH2 0xE3B JUMP JUMPDEST POP PUSH0 SWAP1 JUMP JUMPDEST PUSH2 0xE5D CALLVALUE PUSH1 0x8 SLOAD PUSH2 0xBCC JUMP JUMPDEST PUSH1 0x8 SSTORE PUSH2 0xE6C PUSH1 0x4 SLOAD CALLVALUE PUSH2 0xBCC JUMP JUMPDEST DUP1 ISZERO PUSH2 0xF3D JUMPI PUSH2 0xE7A PUSH2 0x1120 JUMP JUMPDEST DUP1 ISZERO PUSH2 0xF37 JUMPI PUSH0 PUSH1 0x4 SSTORE PUSH1 0x3 SLOAD SWAP2 PUSH1 0x40 MLOAD SWAP2 PUSH2 0xE95 DUP4 PUSH2 0xB8E JUMP JUMPDEST DUP2 DUP4 MSTORE PUSH1 0x20 DUP4 ADD SWAP3 DUP2 DUP5 MSTORE PUSH1 0x40 DUP2 ADD SWAP1 TIMESTAMP DUP3 MSTORE PUSH1 0x1 PUSH1 0x40 SHL DUP7 LT ISZERO PUSH2 0x8E0 JUMPI PUSH1 0x1 DUP7 ADD PUSH1 0x3 SSTORE PUSH2 0xEC4 DUP7 PUSH2 0xB1E JUMP JUMPDEST SWAP3 SWAP1 SWAP3 PUSH2 0xF24 JUMPI PUSH32 0xD89917FC1A94C47CEC7534FFFAE602F7F5C38D3444FD4CF7DF701DD61C1ECA1E SWAP6 PUSH1 0x2 SWAP3 MLOAD DUP5 SSTORE MLOAD PUSH1 0x1 DUP5 ADD SSTORE MLOAD SWAP2 ADD SSTORE PUSH2 0xF1F PUSH1 0x40 MLOAD SWAP3 DUP4 SWAP3 TIMESTAMP SWAP2 DUP5 PUSH1 0x40 SWAP2 SWAP5 SWAP4 SWAP3 PUSH1 0x60 DUP3 ADD SWAP6 DUP3 MSTORE PUSH1 0x20 DUP3 ADD MSTORE ADD MSTORE JUMP JUMPDEST SUB SWAP1 LOG2 JUMP JUMPDEST PUSH4 0x4E487B71 PUSH1 0xE0 SHL PUSH0 MSTORE PUSH0 PUSH1 0x4 MSTORE PUSH1 0x24 PUSH0 REVERT JUMPDEST POP PUSH1 0x4 SSTORE JUMP JUMPDEST POP JUMP JUMPDEST PUSH1 0x1 DUP1 PUSH1 0xA0 SHL SUB AND PUSH0 MSTORE PUSH1 0x5 PUSH1 0x20 MSTORE PUSH1 0x40 PUSH0 KECCAK256 PUSH1 0xFF PUSH1 0x5 DUP3 ADD SLOAD AND ISZERO PUSH2 0xF90 JUMPI DUP1 PUSH1 0x1 PUSH2 0xF7C SWAP3 ADD SLOAD DUP1 TIMESTAMP GT PUSH0 EQ PUSH2 0xE44 JUMPI PUSH2 0xE39 SWAP1 TIMESTAMP PUSH2 0xB81 JUMP JUMPDEST SWAP1 PUSH2 0xF85 PUSH2 0x1120 JUMP JUMPDEST DUP1 PUSH2 0xE41 JUMPI POP PUSH1 0x1 SWAP1 JUMP JUMPDEST POP PUSH0 SWAP1 PUSH1 0x1 SWAP1 JUMP JUMPDEST RETURNDATASIZE ISZERO PUSH2 0xFD2 JUMPI RETURNDATASIZE SWAP1 PUSH8 0xFFFFFFFFFFFFFFFF DUP3 GT PUSH2 0x8E0 JUMPI PUSH1 0x40 MLOAD SWAP2 PUSH2 0xFC7 PUSH1 0x1F DUP3 ADD PUSH1 0x1F NOT AND PUSH1 0x20 ADD DUP5 PUSH2 0xBAA JUMP JUMPDEST DUP3 MSTORE RETURNDATASIZE PUSH0 PUSH1 0x20 DUP5 ADD RETURNDATACOPY JUMP JUMPDEST PUSH1 0x60 SWAP1 JUMP JUMPDEST PUSH1 0x1 DUP1 PUSH1 0xA0 SHL SUB AND PUSH0 MSTORE PUSH1 0x5 PUSH1 0x20 MSTORE PUSH1 0x40 PUSH0 KECCAK256 PUSH1 0xFF PUSH1 0x5 DUP3 ADD SLOAD AND ISZERO PUSH2 0xE4C JUMPI PUSH2 0xE41 SWAP1 JUMPDEST PUSH0 SWAP1 PUSH1 0x3 SLOAD SWAP1 PUSH1 0x2 DUP2 ADD SLOAD JUMPDEST DUP3 DUP2 LT PUSH2 0x1015 JUMPI POP POP POP SWAP1 JUMP JUMPDEST PUSH2 0x101E DUP2 PUSH2 0xB1E JUMP JUMPDEST POP PUSH1 0x40 MLOAD PUSH2 0x102B DUP2 PUSH2 0xB8E JUMP JUMPDEST DUP2 SLOAD DUP2 MSTORE PUSH1 0x2 PUSH1 0x1 DUP4 ADD SLOAD SWAP3 PUSH1 0x20 DUP4 ADD SWAP4 DUP5 MSTORE ADD SLOAD DUP1 PUSH1 0x40 DUP4 ADD MSTORE PUSH1 0x1 DUP6 ADD SLOAD SWAP1 DUP2 DUP2 GT ISZERO PUSH2 0x10B6 JUMPI PUSH2 0x1068 SWAP2 PUSH2 0x1061 SWAP2 PUSH2 0xB81 JUMP JUMPDEST DUP6 SLOAD PUSH2 0xBD9 JUMP JUMPDEST SWAP1 DUP3 MLOAD ISZERO ISZERO DUP1 PUSH2 0x10AD JUMPI JUMPDEST PUSH2 0x1085 JUMPI JUMPDEST POP POP POP PUSH1 0x1 SWAP1 JUMPDEST ADD PUSH2 0x1008 JUMP JUMPDEST PUSH2 0x10A4 SWAP3 PUSH2 0x109C PUSH1 0x1 SWAP6 SWAP9 SWAP4 PUSH2 0xCEA SWAP4 MLOAD SWAP1 PUSH2 0xBD9 JUMP JUMPDEST SWAP1 MLOAD SWAP1 PUSH2 0xBEC JUMP JUMPDEST SWAP4 SWAP1 PUSH0 DUP1 PUSH2 0x1078 JUMP JUMPDEST POP DUP2 ISZERO ISZERO PUSH2 0x1073 JUMP JUMPDEST POP POP POP POP PUSH1 0x1 SWAP1 PUSH2 0x107F JUMP JUMPDEST PUSH1 0x2 PUSH0 MLOAD PUSH1 0x20 PUSH2 0x119A PUSH0 CODECOPY PUSH0 MLOAD SWAP1 PUSH0 MSTORE SLOAD EQ PUSH2 0x10EB JUMPI PUSH1 0x2 PUSH0 MLOAD PUSH1 0x20 PUSH2 0x119A PUSH0 CODECOPY PUSH0 MLOAD SWAP1 PUSH0 MSTORE SSTORE JUMP JUMPDEST PUSH4 0x3EE5AEB5 PUSH1 0xE0 SHL PUSH0 MSTORE PUSH1 0x4 PUSH0 REVERT JUMPDEST PUSH0 SLOAD PUSH1 0x1 PUSH1 0x1 PUSH1 0xA0 SHL SUB AND CALLER SUB PUSH2 0x110D JUMPI JUMP JUMPDEST PUSH4 0x118CDAA7 PUSH1 0xE0 SHL PUSH0 MSTORE CALLER PUSH1 0x4 MSTORE PUSH1 0x24 PUSH0 REVERT JUMPDEST PUSH0 PUSH1 0x6 SLOAD PUSH0 SWAP1 JUMPDEST DUP1 DUP3 LT PUSH2 0x1133 JUMPI POP POP SWAP1 JUMP JUMPDEST SWAP1 SWAP2 PUSH2 0x113E DUP4 PUSH2 0xB69 JUMP JUMPDEST PUSH1 0x1 DUP1 PUSH1 0xA0 SHL SUB SWAP2 SLOAD SWAP1 PUSH1 0x3 SHL SHR AND PUSH0 MSTORE PUSH1 0x5 PUSH1 0x20 MSTORE PUSH1 0x40 PUSH0 KECCAK256 PUSH1 0xFF PUSH1 0x5 DUP3 ADD SLOAD AND ISZERO PUSH2 0x118F JUMPI PUSH1 0x1 SWAP2 PUSH2 0xCEA DUP3 DUP5 PUSH2 0x1186 SWAP5 ADD SLOAD DUP1 TIMESTAMP GT PUSH0 EQ PUSH2 0xE44 JUMPI PUSH2 0xE39 SWAP1 TIMESTAMP PUSH2 0xB81 JUMP JUMPDEST SWAP3 JUMPDEST ADD SWAP1 PUSH2 0x1127 JUMP JUMPDEST POP SWAP2 PUSH1 0x1 SWAP1 PUSH2 0x1188 JUMP INVALID SWAP12 PUSH24 0x9B17422D0DF92223018B32B4D1FA46E071723D6817E2486D STOP EXTCODESIZE 0xEC 0xC5 PUSH0 STOP LOG2 PUSH5 0x6970667358 0x22 SLT KECCAK256 PUSH17 0x834B14305CFB747B4171937EAF2C1FCDB3 EXTCODESIZE 0xD3 PUSH5 0xF709AD023 CALLVALUE 0xBF 0x2D 0xCA BYTE 0xE1 PUSH5 0x736F6C6343 STOP ADDMOD SHR STOP CALLER "},"methodIdentifiers":{"activeRegisteredCount()":"0526d3ae","claim()":"4e71d92d","currentWeight(address)":"4e7a2207","emergencyWithdraw()":"db2e21bc","forfeitedPool()":"d3f21636","minimumBalance()":"b9d1d49b","notifyReward()":"5d54bda4","owner()":"8da5cb5b","pendingReward(address)":"f40f0f52","register()":"1aa3a008","registeredList(uint256)":"d4a3ffe9","renounceOwnership()":"715018a6","setMinimumBalance(uint256)":"3446e4b4","setTaxReceiver(address)":"cd8de42c","settlementCount()":"037eca76","settlements(uint256)":"08df7dc8","taxReceiver()":"e6ef73d6","token()":"fc0c546a","totalClaimedGlobal()":"fb7c2bf2","totalCurrentWeight()":"f4634de1","totalReceived()":"a3c2c462","totalRegisteredBalance()":"ab8bc45d","transferOwnership(address)":"f2fde38b","updateBalance(address)":"40b8405a","userInfo(address)":"1959a002","userWeightShare(address)":"7872feb2","users(address)":"a87430ba"}}}}}