{"contracts/LPRewardVault.sol":{"LPRewardVault":{"abi":[{"inputs":[{"internalType":"address","name":"_owner","type":"address"}],"stateMutability":"nonpayable","type":"constructor"},{"inputs":[],"name":"AlreadyActive","type":"error"},{"inputs":[],"name":"InsufficientStake","type":"error"},{"inputs":[],"name":"NotActive","type":"error"},{"inputs":[],"name":"NothingToClaim","type":"error"},{"inputs":[{"internalType":"address","name":"owner","type":"address"}],"name":"OwnableInvalidOwner","type":"error"},{"inputs":[{"internalType":"address","name":"account","type":"address"}],"name":"OwnableUnauthorizedAccount","type":"error"},{"inputs":[],"name":"ReentrancyGuardReentrantCall","type":"error"},{"inputs":[{"internalType":"address","name":"token","type":"address"}],"name":"SafeERC20FailedOperation","type":"error"},{"inputs":[],"name":"TransferFailed","type":"error"},{"inputs":[],"name":"ZeroAddress","type":"error"},{"inputs":[],"name":"ZeroAmount","type":"error"},{"anonymous":false,"inputs":[{"indexed":true,"internalType":"address","name":"lpToken","type":"address"}],"name":"Activated","type":"event"},{"anonymous":false,"inputs":[{"indexed":true,"internalType":"address","name":"user","type":"address"},{"indexed":false,"internalType":"uint256","name":"reward","type":"uint256"}],"name":"Claimed","type":"event"},{"anonymous":false,"inputs":[{"indexed":true,"internalType":"address","name":"to","type":"address"},{"indexed":false,"internalType":"uint256","name":"amount","type":"uint256"}],"name":"EmergencyWithdrawn","type":"event"},{"anonymous":false,"inputs":[{"indexed":true,"internalType":"address","name":"previousOwner","type":"address"},{"indexed":true,"internalType":"address","name":"newOwner","type":"address"}],"name":"OwnershipTransferred","type":"event"},{"anonymous":false,"inputs":[{"indexed":false,"internalType":"uint256","name":"amount","type":"uint256"}],"name":"RewardAdded","type":"event"},{"anonymous":false,"inputs":[{"indexed":true,"internalType":"address","name":"user","type":"address"},{"indexed":false,"internalType":"uint256","name":"amount","type":"uint256"}],"name":"Staked","type":"event"},{"anonymous":false,"inputs":[{"indexed":true,"internalType":"address","name":"user","type":"address"},{"indexed":false,"internalType":"uint256","name":"amount","type":"uint256"}],"name":"Unstaked","type":"event"},{"stateMutability":"payable","type":"fallback"},{"inputs":[],"name":"PRECISION","outputs":[{"internalType":"uint256","name":"","type":"uint256"}],"stateMutability":"view","type":"function"},{"inputs":[],"name":"accRewardPerShare","outputs":[{"internalType":"uint256","name":"","type":"uint256"}],"stateMutability":"view","type":"function"},{"inputs":[],"name":"accumulatedBnb","outputs":[{"internalType":"uint256","name":"","type":"uint256"}],"stateMutability":"view","type":"function"},{"inputs":[{"internalType":"address","name":"_lpToken","type":"address"}],"name":"activate","outputs":[],"stateMutability":"nonpayable","type":"function"},{"inputs":[],"name":"active","outputs":[{"internalType":"bool","name":"","type":"bool"}],"stateMutability":"view","type":"function"},{"inputs":[],"name":"claim","outputs":[],"stateMutability":"nonpayable","type":"function"},{"inputs":[{"internalType":"address","name":"_user","type":"address"}],"name":"earned","outputs":[{"internalType":"uint256","name":"","type":"uint256"}],"stateMutability":"view","type":"function"},{"inputs":[],"name":"emergencyWithdraw","outputs":[],"stateMutability":"nonpayable","type":"function"},{"inputs":[],"name":"lpToken","outputs":[{"internalType":"contract IERC20","name":"","type":"address"}],"stateMutability":"view","type":"function"},{"inputs":[],"name":"owner","outputs":[{"internalType":"address","name":"","type":"address"}],"stateMutability":"view","type":"function"},{"inputs":[],"name":"pendingRewards","outputs":[{"internalType":"uint256","name":"","type":"uint256"}],"stateMutability":"view","type":"function"},{"inputs":[],"name":"renounceOwnership","outputs":[],"stateMutability":"nonpayable","type":"function"},{"inputs":[{"internalType":"uint256","name":"_amount","type":"uint256"}],"name":"stake","outputs":[],"stateMutability":"nonpayable","type":"function"},{"inputs":[],"name":"totalDistributed","outputs":[{"internalType":"uint256","name":"","type":"uint256"}],"stateMutability":"view","type":"function"},{"inputs":[],"name":"totalReceived","outputs":[{"internalType":"uint256","name":"","type":"uint256"}],"stateMutability":"view","type":"function"},{"inputs":[],"name":"totalStaked","outputs":[{"internalType":"uint256","name":"","type":"uint256"}],"stateMutability":"view","type":"function"},{"inputs":[{"internalType":"address","name":"newOwner","type":"address"}],"name":"transferOwnership","outputs":[],"stateMutability":"nonpayable","type":"function"},{"inputs":[{"internalType":"uint256","name":"_amount","type":"uint256"}],"name":"unstake","outputs":[],"stateMutability":"nonpayable","type":"function"},{"inputs":[{"internalType":"address","name":"","type":"address"}],"name":"userInfo","outputs":[{"internalType":"uint256","name":"amount","type":"uint256"},{"internalType":"uint256","name":"rewardDebt","type":"uint256"}],"stateMutability":"view","type":"function"},{"stateMutability":"payable","type":"receive"}],"evm":{"bytecode":{"linkReferences":{},"object":"6080346100ee57601f610ceb38819003918201601f19168301916001600160401b038311848410176100f2578084926020946040528339810103126100ee57516001600160a01b038116908190036100ee5780156100db575f80546001600160a01b031981168317825560405192916001600160a01b03909116907f8be0079c531659141344cd1fd0a4f28419497f9722a3daafe3b4186f6b6457e09080a360017f9b779b17422d0df92223018b32b4d1fa46e071723d6817e2486d003becc55f00819055805460ff60a01b19169055610be490816101078239f35b631e4fbdf760e01b5f525f60045260245ffd5b5f80fd5b634e487b7160e01b5f52604160045260245ffdfe60806040526004361015610116575b361561005e5761002034600554610a31565b60055561002f34600454610a31565b6004557fde88a922e0d3b88b24e9623efeb464919c6bf9f66857a65e2bfcf2ce87a9433d6020604051348152a1005b61006a34600554610a31565b600555600254156101025761008160045434610a31565b5f600455670de0b6b3a7640000810290808204670de0b6b3a764000014901517156100ee576100b66100be9160025490610a5e565b600354610a31565b6003555b7fde88a922e0d3b88b24e9623efeb464919c6bf9f66857a65e2bfcf2ce87a9433d6020604051348152a1005b634e487b7160e01b5f52601160045260245ffd5b61010e34600454610a31565b6004556100c2565b5f3560e01c80628cc262146109ee57806302fb0c5e146109c95780631959a002146109845780631c5a9d9c146108e95780632e17de781461075f5780634e71d92d146106a85780635fcbd28514610680578063715018a61461062957806372d543941461060e578063817b1cd2146105f15780638da5cb5b146105ca578063939d6237146105ad578063a3c2c46214610590578063a694fc3a14610382578063aaf5eb6814610360578063db2e21bc146102b1578063eded3fda14610294578063efca2eed146102775763f2fde38b0361000e5734610273576020366003190112610273576004356001600160a01b0381169081900361027357610218610b18565b8015610260575f80546001600160a01b03198116831782556001600160a01b0316907f8be0079c531659141344cd1fd0a4f28419497f9722a3daafe3b4186f6b6457e09080a3005b631e4fbdf760e01b5f525f60045260245ffd5b5f80fd5b34610273575f366003190112610273576020600654604051908152f35b34610273575f366003190112610273576020600454604051908152f35b34610273575f366003190112610273576102c9610b18565b6102d1610b3e565b478015610351575f8080808460018060a01b038254165af16102f1610a7c565b5015610342575f546040519182526001600160a01b0316907f2e39961a70a10f4d46383948095ac2752b3ee642a7c76aa827410aaff08c2e5190602090a260015f516020610b8f5f395f51905f5255005b6312171d8360e31b5f5260045ffd5b6312d37ee560e31b5f5260045ffd5b34610273575f366003190112610273576020604051670de0b6b3a76400008152f35b346102735760203660031901126102735760043561039e610b3e565b60ff60015460a01c161561058157801561057257335f52600760205260405f208054610512575b60018060a01b03600154166040516323b872dd60e01b5f5233600452306024528360445260205f60648180865af19060015f51148216156104f1575b6040525f606052156104df5750610419828254610a31565b815561042782600254610a31565b8060025560045480158015806104d6575b61049c575b5050506001670de0b6b3a7640000610459835460035490610a4b565b049101556040519081527f9e71bc8eea02a63969f509818f2dafb9254532904319f9dbda79b67bd34a5f3d60203392a260015f516020610b8f5f395f51905f5255005b670de0b6b3a76400008202918204670de0b6b3a76400001417156100ee576104c7916100b691610a5e565b6003555f60045582808061043d565b50821515610438565b635274afe760e01b5f5260045260245ffd5b90600181151661050957823b15153d15161690610401565b503d5f823e3d90fd5b61051b81610ae1565b80610527575b506103c5565b61053381600654610a31565b6006556105408133610b76565b6040519081527fd8138f8a3f377c5259ca548e70e4c2de94f129f5a11036a15b69513cba2b426a60203392a282610521565b631f2a200560e01b5f5260045ffd5b634065aaf160e11b5f5260045ffd5b34610273575f366003190112610273576020600554604051908152f35b34610273575f366003190112610273576020600354604051908152f35b34610273575f366003190112610273575f546040516001600160a01b039091168152602090f35b34610273575f366003190112610273576020600254604051908152f35b34610273575f36600319011261027357602047604051908152f35b34610273575f36600319011261027357610641610b18565b5f80546001600160a01b0319811682556001600160a01b03167f8be0079c531659141344cd1fd0a4f28419497f9722a3daafe3b4186f6b6457e08280a3005b34610273575f366003190112610273576001546040516001600160a01b039091168152602090f35b34610273575f366003190112610273576106c0610b3e565b60ff60015460a01c161561058157335f52600760205260405f206106e381610ae1565b908115610351576106f682600654610a31565b6006556001670de0b6b3a7640000610712835460035490610a4b565b049101556107208133610b76565b6040519081527fd8138f8a3f377c5259ca548e70e4c2de94f129f5a11036a15b69513cba2b426a60203392a260015f516020610b8f5f395f51905f5255005b346102735760203660031901126102735760043561077b610b3e565b60ff60015460a01c161561058157335f52600760205260405f20818154106108da578115610572576107ac81610ae1565b8061088f575b506107be828254610a3e565b81556107cc82600254610a3e565b6002556001670de0b6b3a76400006107e8835460035490610a4b565b0491015560015460405163a9059cbb60e01b5f9081523360045260248490529092916001600160a01b03169060209060448180855af160015f5114811615610870575b83604052156104df575081527f0f5bb82176feb1b5e747e28471aa92156a04d9f3ab9f45f28e2d704232b93f7560203392a260015f516020610b8f5f395f51905f5255005b600181151661088657813b15153d15161661082b565b833d5f823e3d90fd5b61089b81600654610a31565b6006556108a88133610b76565b6040519081527fd8138f8a3f377c5259ca548e70e4c2de94f129f5a11036a15b69513cba2b426a60203392a2826107b2565b6378de4a6960e11b5f5260045ffd5b34610273576020366003190112610273576004356001600160a01b0381169081900361027357610917610b18565b60015460ff8160a01c16610975578115610966576001600160a81b0319168117600160a01b176001557f0cc43938d137e7efade6a531f663e78c1fc75257b0d65ffda2fdaf70cb49cdf95f80a2005b63d92e233d60e01b5f5260045ffd5b637cdf305160e11b5f5260045ffd5b34610273576020366003190112610273576004356001600160a01b03811690819003610273575f5260076020526040805f206001815491015482519182526020820152f35b34610273575f36600319011261027357602060ff60015460a01c166040519015158152f35b34610273576020366003190112610273576004356001600160a01b03811690819003610273575f5260076020526020610a2960405f20610ae1565b604051908152f35b919082018092116100ee57565b919082039182116100ee57565b818102929181159184041417156100ee57565b8115610a68570490565b634e487b7160e01b5f52601260045260245ffd5b3d15610adc573d9067ffffffffffffffff8211610ac85760405191601f8101601f19908116603f0116830167ffffffffffffffff811184821017610ac85760405282523d5f602084013e565b634e487b7160e01b5f52604160045260245ffd5b606090565b8054908115610b12576001670de0b6b3a7640000610b05610b0f9460035490610a4b565b0491015490610a3e565b90565b50505f90565b5f546001600160a01b03163303610b2b57565b63118cdaa760e01b5f523360045260245ffd5b60025f516020610b8f5f395f51905f525414610b675760025f516020610b8f5f395f51905f5255565b633ee5aeb560e01b5f5260045ffd5b5f80809381935af1610b86610a7c565b50156103425756fe9b779b17422d0df92223018b32b4d1fa46e071723d6817e2486d003becc55f00a26469706673582212209e51cb2498142a7aa5399cfd921522ec08daf68cef9b613515529b2b357c486964736f6c634300081c0033","opcodes":"PUSH1 0x80 CALLVALUE PUSH2 0xEE JUMPI PUSH1 0x1F PUSH2 0xCEB CODESIZE DUP2 SWAP1 SUB SWAP2 DUP3 ADD PUSH1 0x1F NOT AND DUP4 ADD SWAP2 PUSH1 0x1 PUSH1 0x1 PUSH1 0x40 SHL SUB DUP4 GT DUP5 DUP5 LT OR PUSH2 0xF2 JUMPI DUP1 DUP5 SWAP3 PUSH1 0x20 SWAP5 PUSH1 0x40 MSTORE DUP4 CODECOPY DUP2 ADD SUB SLT PUSH2 0xEE JUMPI MLOAD PUSH1 0x1 PUSH1 0x1 PUSH1 0xA0 SHL SUB DUP2 AND SWAP1 DUP2 SWAP1 SUB PUSH2 0xEE JUMPI DUP1 ISZERO PUSH2 0xDB JUMPI PUSH0 DUP1 SLOAD PUSH1 0x1 PUSH1 0x1 PUSH1 0xA0 SHL SUB NOT DUP2 AND DUP4 OR DUP3 SSTORE PUSH1 0x40 MLOAD SWAP3 SWAP2 PUSH1 0x1 PUSH1 0x1 PUSH1 0xA0 SHL SUB SWAP1 SWAP2 AND SWAP1 PUSH32 0x8BE0079C531659141344CD1FD0A4F28419497F9722A3DAAFE3B4186F6B6457E0 SWAP1 DUP1 LOG3 PUSH1 0x1 PUSH32 0x9B779B17422D0DF92223018B32B4D1FA46E071723D6817E2486D003BECC55F00 DUP2 SWAP1 SSTORE DUP1 SLOAD PUSH1 0xFF PUSH1 0xA0 SHL NOT AND SWAP1 SSTORE PUSH2 0xBE4 SWAP1 DUP2 PUSH2 0x107 DUP3 CODECOPY RETURN JUMPDEST PUSH4 0x1E4FBDF7 PUSH1 0xE0 SHL PUSH0 MSTORE PUSH0 PUSH1 0x4 MSTORE PUSH1 0x24 PUSH0 REVERT JUMPDEST PUSH0 DUP1 REVERT JUMPDEST PUSH4 0x4E487B71 PUSH1 0xE0 SHL PUSH0 MSTORE PUSH1 0x41 PUSH1 0x4 MSTORE PUSH1 0x24 PUSH0 REVERT INVALID PUSH1 0x80 PUSH1 0x40 MSTORE PUSH1 0x4 CALLDATASIZE LT ISZERO PUSH2 0x116 JUMPI JUMPDEST CALLDATASIZE ISZERO PUSH2 0x5E JUMPI PUSH2 0x20 CALLVALUE PUSH1 0x5 SLOAD PUSH2 0xA31 JUMP JUMPDEST PUSH1 0x5 SSTORE PUSH2 0x2F CALLVALUE PUSH1 0x4 SLOAD PUSH2 0xA31 JUMP JUMPDEST PUSH1 0x4 SSTORE PUSH32 0xDE88A922E0D3B88B24E9623EFEB464919C6BF9F66857A65E2BFCF2CE87A9433D PUSH1 0x20 PUSH1 0x40 MLOAD CALLVALUE DUP2 MSTORE LOG1 STOP JUMPDEST PUSH2 0x6A CALLVALUE PUSH1 0x5 SLOAD PUSH2 0xA31 JUMP JUMPDEST PUSH1 0x5 SSTORE PUSH1 0x2 SLOAD ISZERO PUSH2 0x102 JUMPI PUSH2 0x81 PUSH1 0x4 SLOAD CALLVALUE PUSH2 0xA31 JUMP JUMPDEST PUSH0 PUSH1 0x4 SSTORE PUSH8 0xDE0B6B3A7640000 DUP2 MUL SWAP1 DUP1 DUP3 DIV PUSH8 0xDE0B6B3A7640000 EQ SWAP1 ISZERO OR ISZERO PUSH2 0xEE JUMPI PUSH2 0xB6 PUSH2 0xBE SWAP2 PUSH1 0x2 SLOAD SWAP1 PUSH2 0xA5E JUMP JUMPDEST PUSH1 0x3 SLOAD PUSH2 0xA31 JUMP JUMPDEST PUSH1 0x3 SSTORE JUMPDEST PUSH32 0xDE88A922E0D3B88B24E9623EFEB464919C6BF9F66857A65E2BFCF2CE87A9433D PUSH1 0x20 PUSH1 0x40 MLOAD CALLVALUE DUP2 MSTORE LOG1 STOP JUMPDEST PUSH4 0x4E487B71 PUSH1 0xE0 SHL PUSH0 MSTORE PUSH1 0x11 PUSH1 0x4 MSTORE PUSH1 0x24 PUSH0 REVERT JUMPDEST PUSH2 0x10E CALLVALUE PUSH1 0x4 SLOAD PUSH2 0xA31 JUMP JUMPDEST PUSH1 0x4 SSTORE PUSH2 0xC2 JUMP JUMPDEST PUSH0 CALLDATALOAD PUSH1 0xE0 SHR DUP1 PUSH3 0x8CC262 EQ PUSH2 0x9EE JUMPI DUP1 PUSH4 0x2FB0C5E EQ PUSH2 0x9C9 JUMPI DUP1 PUSH4 0x1959A002 EQ PUSH2 0x984 JUMPI DUP1 PUSH4 0x1C5A9D9C EQ PUSH2 0x8E9 JUMPI DUP1 PUSH4 0x2E17DE78 EQ PUSH2 0x75F JUMPI DUP1 PUSH4 0x4E71D92D EQ PUSH2 0x6A8 JUMPI DUP1 PUSH4 0x5FCBD285 EQ PUSH2 0x680 JUMPI DUP1 PUSH4 0x715018A6 EQ PUSH2 0x629 JUMPI DUP1 PUSH4 0x72D54394 EQ PUSH2 0x60E JUMPI DUP1 PUSH4 0x817B1CD2 EQ PUSH2 0x5F1 JUMPI DUP1 PUSH4 0x8DA5CB5B EQ PUSH2 0x5CA JUMPI DUP1 PUSH4 0x939D6237 EQ PUSH2 0x5AD JUMPI DUP1 PUSH4 0xA3C2C462 EQ PUSH2 0x590 JUMPI DUP1 PUSH4 0xA694FC3A EQ PUSH2 0x382 JUMPI DUP1 PUSH4 0xAAF5EB68 EQ PUSH2 0x360 JUMPI DUP1 PUSH4 0xDB2E21BC EQ PUSH2 0x2B1 JUMPI DUP1 PUSH4 0xEDED3FDA EQ PUSH2 0x294 JUMPI DUP1 PUSH4 0xEFCA2EED EQ PUSH2 0x277 JUMPI PUSH4 0xF2FDE38B SUB PUSH2 0xE JUMPI CALLVALUE PUSH2 0x273 JUMPI PUSH1 0x20 CALLDATASIZE PUSH1 0x3 NOT ADD SLT PUSH2 0x273 JUMPI PUSH1 0x4 CALLDATALOAD PUSH1 0x1 PUSH1 0x1 PUSH1 0xA0 SHL SUB DUP2 AND SWAP1 DUP2 SWAP1 SUB PUSH2 0x273 JUMPI PUSH2 0x218 PUSH2 0xB18 JUMP JUMPDEST DUP1 ISZERO PUSH2 0x260 JUMPI PUSH0 DUP1 SLOAD PUSH1 0x1 PUSH1 0x1 PUSH1 0xA0 SHL SUB NOT DUP2 AND DUP4 OR DUP3 SSTORE PUSH1 0x1 PUSH1 0x1 PUSH1 0xA0 SHL SUB AND SWAP1 PUSH32 0x8BE0079C531659141344CD1FD0A4F28419497F9722A3DAAFE3B4186F6B6457E0 SWAP1 DUP1 LOG3 STOP JUMPDEST PUSH4 0x1E4FBDF7 PUSH1 0xE0 SHL PUSH0 MSTORE PUSH0 PUSH1 0x4 MSTORE PUSH1 0x24 PUSH0 REVERT JUMPDEST PUSH0 DUP1 REVERT JUMPDEST CALLVALUE PUSH2 0x273 JUMPI PUSH0 CALLDATASIZE PUSH1 0x3 NOT ADD SLT PUSH2 0x273 JUMPI PUSH1 0x20 PUSH1 0x6 SLOAD PUSH1 0x40 MLOAD SWAP1 DUP2 MSTORE RETURN JUMPDEST CALLVALUE PUSH2 0x273 JUMPI PUSH0 CALLDATASIZE PUSH1 0x3 NOT ADD SLT PUSH2 0x273 JUMPI PUSH1 0x20 PUSH1 0x4 SLOAD PUSH1 0x40 MLOAD SWAP1 DUP2 MSTORE RETURN JUMPDEST CALLVALUE PUSH2 0x273 JUMPI PUSH0 CALLDATASIZE PUSH1 0x3 NOT ADD SLT PUSH2 0x273 JUMPI PUSH2 0x2C9 PUSH2 0xB18 JUMP JUMPDEST PUSH2 0x2D1 PUSH2 0xB3E JUMP JUMPDEST SELFBALANCE DUP1 ISZERO PUSH2 0x351 JUMPI PUSH0 DUP1 DUP1 DUP1 DUP5 PUSH1 0x1 DUP1 PUSH1 0xA0 SHL SUB DUP3 SLOAD AND GAS CALL PUSH2 0x2F1 PUSH2 0xA7C JUMP JUMPDEST POP ISZERO PUSH2 0x342 JUMPI PUSH0 SLOAD PUSH1 0x40 MLOAD SWAP2 DUP3 MSTORE PUSH1 0x1 PUSH1 0x1 PUSH1 0xA0 SHL SUB AND SWAP1 PUSH32 0x2E39961A70A10F4D46383948095AC2752B3EE642A7C76AA827410AAFF08C2E51 SWAP1 PUSH1 0x20 SWAP1 LOG2 PUSH1 0x1 PUSH0 MLOAD PUSH1 0x20 PUSH2 0xB8F PUSH0 CODECOPY PUSH0 MLOAD SWAP1 PUSH0 MSTORE SSTORE STOP JUMPDEST PUSH4 0x12171D83 PUSH1 0xE3 SHL PUSH0 MSTORE PUSH1 0x4 PUSH0 REVERT JUMPDEST PUSH4 0x12D37EE5 PUSH1 0xE3 SHL PUSH0 MSTORE PUSH1 0x4 PUSH0 REVERT JUMPDEST CALLVALUE PUSH2 0x273 JUMPI PUSH0 CALLDATASIZE PUSH1 0x3 NOT ADD SLT PUSH2 0x273 JUMPI PUSH1 0x20 PUSH1 0x40 MLOAD PUSH8 0xDE0B6B3A7640000 DUP2 MSTORE RETURN JUMPDEST CALLVALUE PUSH2 0x273 JUMPI PUSH1 0x20 CALLDATASIZE PUSH1 0x3 NOT ADD SLT PUSH2 0x273 JUMPI PUSH1 0x4 CALLDATALOAD PUSH2 0x39E PUSH2 0xB3E JUMP JUMPDEST PUSH1 0xFF PUSH1 0x1 SLOAD PUSH1 0xA0 SHR AND ISZERO PUSH2 0x581 JUMPI DUP1 ISZERO PUSH2 0x572 JUMPI CALLER PUSH0 MSTORE PUSH1 0x7 PUSH1 0x20 MSTORE PUSH1 0x40 PUSH0 KECCAK256 DUP1 SLOAD PUSH2 0x512 JUMPI JUMPDEST PUSH1 0x1 DUP1 PUSH1 0xA0 SHL SUB PUSH1 0x1 SLOAD AND PUSH1 0x40 MLOAD PUSH4 0x23B872DD PUSH1 0xE0 SHL PUSH0 MSTORE CALLER PUSH1 0x4 MSTORE ADDRESS PUSH1 0x24 MSTORE DUP4 PUSH1 0x44 MSTORE PUSH1 0x20 PUSH0 PUSH1 0x64 DUP2 DUP1 DUP7 GAS CALL SWAP1 PUSH1 0x1 PUSH0 MLOAD EQ DUP3 AND ISZERO PUSH2 0x4F1 JUMPI JUMPDEST PUSH1 0x40 MSTORE PUSH0 PUSH1 0x60 MSTORE ISZERO PUSH2 0x4DF JUMPI POP PUSH2 0x419 DUP3 DUP3 SLOAD PUSH2 0xA31 JUMP JUMPDEST DUP2 SSTORE PUSH2 0x427 DUP3 PUSH1 0x2 SLOAD PUSH2 0xA31 JUMP JUMPDEST DUP1 PUSH1 0x2 SSTORE PUSH1 0x4 SLOAD DUP1 ISZERO DUP1 ISZERO DUP1 PUSH2 0x4D6 JUMPI JUMPDEST PUSH2 0x49C JUMPI JUMPDEST POP POP POP PUSH1 0x1 PUSH8 0xDE0B6B3A7640000 PUSH2 0x459 DUP4 SLOAD PUSH1 0x3 SLOAD SWAP1 PUSH2 0xA4B JUMP JUMPDEST DIV SWAP2 ADD SSTORE PUSH1 0x40 MLOAD SWAP1 DUP2 MSTORE PUSH32 0x9E71BC8EEA02A63969F509818F2DAFB9254532904319F9DBDA79B67BD34A5F3D PUSH1 0x20 CALLER SWAP3 LOG2 PUSH1 0x1 PUSH0 MLOAD PUSH1 0x20 PUSH2 0xB8F PUSH0 CODECOPY PUSH0 MLOAD SWAP1 PUSH0 MSTORE SSTORE STOP JUMPDEST PUSH8 0xDE0B6B3A7640000 DUP3 MUL SWAP2 DUP3 DIV PUSH8 0xDE0B6B3A7640000 EQ OR ISZERO PUSH2 0xEE JUMPI PUSH2 0x4C7 SWAP2 PUSH2 0xB6 SWAP2 PUSH2 0xA5E JUMP JUMPDEST PUSH1 0x3 SSTORE PUSH0 PUSH1 0x4 SSTORE DUP3 DUP1 DUP1 PUSH2 0x43D JUMP JUMPDEST POP DUP3 ISZERO ISZERO PUSH2 0x438 JUMP JUMPDEST PUSH4 0x5274AFE7 PUSH1 0xE0 SHL PUSH0 MSTORE PUSH1 0x4 MSTORE PUSH1 0x24 PUSH0 REVERT JUMPDEST SWAP1 PUSH1 0x1 DUP2 ISZERO AND PUSH2 0x509 JUMPI DUP3 EXTCODESIZE ISZERO ISZERO RETURNDATASIZE ISZERO AND AND SWAP1 PUSH2 0x401 JUMP JUMPDEST POP RETURNDATASIZE PUSH0 DUP3 RETURNDATACOPY RETURNDATASIZE SWAP1 REVERT JUMPDEST PUSH2 0x51B DUP2 PUSH2 0xAE1 JUMP JUMPDEST DUP1 PUSH2 0x527 JUMPI JUMPDEST POP PUSH2 0x3C5 JUMP JUMPDEST PUSH2 0x533 DUP2 PUSH1 0x6 SLOAD PUSH2 0xA31 JUMP JUMPDEST PUSH1 0x6 SSTORE PUSH2 0x540 DUP2 CALLER PUSH2 0xB76 JUMP JUMPDEST PUSH1 0x40 MLOAD SWAP1 DUP2 MSTORE PUSH32 0xD8138F8A3F377C5259CA548E70E4C2DE94F129F5A11036A15B69513CBA2B426A PUSH1 0x20 CALLER SWAP3 LOG2 DUP3 PUSH2 0x521 JUMP JUMPDEST PUSH4 0x1F2A2005 PUSH1 0xE0 SHL PUSH0 MSTORE PUSH1 0x4 PUSH0 REVERT JUMPDEST PUSH4 0x4065AAF1 PUSH1 0xE1 SHL PUSH0 MSTORE PUSH1 0x4 PUSH0 REVERT JUMPDEST CALLVALUE PUSH2 0x273 JUMPI PUSH0 CALLDATASIZE PUSH1 0x3 NOT ADD SLT PUSH2 0x273 JUMPI PUSH1 0x20 PUSH1 0x5 SLOAD PUSH1 0x40 MLOAD SWAP1 DUP2 MSTORE RETURN JUMPDEST CALLVALUE PUSH2 0x273 JUMPI PUSH0 CALLDATASIZE PUSH1 0x3 NOT ADD SLT PUSH2 0x273 JUMPI PUSH1 0x20 PUSH1 0x3 SLOAD PUSH1 0x40 MLOAD SWAP1 DUP2 MSTORE RETURN JUMPDEST CALLVALUE PUSH2 0x273 JUMPI PUSH0 CALLDATASIZE PUSH1 0x3 NOT ADD SLT PUSH2 0x273 JUMPI PUSH0 SLOAD PUSH1 0x40 MLOAD PUSH1 0x1 PUSH1 0x1 PUSH1 0xA0 SHL SUB SWAP1 SWAP2 AND DUP2 MSTORE PUSH1 0x20 SWAP1 RETURN JUMPDEST CALLVALUE PUSH2 0x273 JUMPI PUSH0 CALLDATASIZE PUSH1 0x3 NOT ADD SLT PUSH2 0x273 JUMPI PUSH1 0x20 PUSH1 0x2 SLOAD PUSH1 0x40 MLOAD SWAP1 DUP2 MSTORE RETURN JUMPDEST CALLVALUE PUSH2 0x273 JUMPI PUSH0 CALLDATASIZE PUSH1 0x3 NOT ADD SLT PUSH2 0x273 JUMPI PUSH1 0x20 SELFBALANCE PUSH1 0x40 MLOAD SWAP1 DUP2 MSTORE RETURN JUMPDEST CALLVALUE PUSH2 0x273 JUMPI PUSH0 CALLDATASIZE PUSH1 0x3 NOT ADD SLT PUSH2 0x273 JUMPI PUSH2 0x641 PUSH2 0xB18 JUMP JUMPDEST PUSH0 DUP1 SLOAD PUSH1 0x1 PUSH1 0x1 PUSH1 0xA0 SHL SUB NOT DUP2 AND DUP3 SSTORE PUSH1 0x1 PUSH1 0x1 PUSH1 0xA0 SHL SUB AND PUSH32 0x8BE0079C531659141344CD1FD0A4F28419497F9722A3DAAFE3B4186F6B6457E0 DUP3 DUP1 LOG3 STOP JUMPDEST CALLVALUE PUSH2 0x273 JUMPI PUSH0 CALLDATASIZE PUSH1 0x3 NOT ADD SLT PUSH2 0x273 JUMPI PUSH1 0x1 SLOAD PUSH1 0x40 MLOAD PUSH1 0x1 PUSH1 0x1 PUSH1 0xA0 SHL SUB SWAP1 SWAP2 AND DUP2 MSTORE PUSH1 0x20 SWAP1 RETURN JUMPDEST CALLVALUE PUSH2 0x273 JUMPI PUSH0 CALLDATASIZE PUSH1 0x3 NOT ADD SLT PUSH2 0x273 JUMPI PUSH2 0x6C0 PUSH2 0xB3E JUMP JUMPDEST PUSH1 0xFF PUSH1 0x1 SLOAD PUSH1 0xA0 SHR AND ISZERO PUSH2 0x581 JUMPI CALLER PUSH0 MSTORE PUSH1 0x7 PUSH1 0x20 MSTORE PUSH1 0x40 PUSH0 KECCAK256 PUSH2 0x6E3 DUP2 PUSH2 0xAE1 JUMP JUMPDEST SWAP1 DUP2 ISZERO PUSH2 0x351 JUMPI PUSH2 0x6F6 DUP3 PUSH1 0x6 SLOAD PUSH2 0xA31 JUMP JUMPDEST PUSH1 0x6 SSTORE PUSH1 0x1 PUSH8 0xDE0B6B3A7640000 PUSH2 0x712 DUP4 SLOAD PUSH1 0x3 SLOAD SWAP1 PUSH2 0xA4B JUMP JUMPDEST DIV SWAP2 ADD SSTORE PUSH2 0x720 DUP2 CALLER PUSH2 0xB76 JUMP JUMPDEST PUSH1 0x40 MLOAD SWAP1 DUP2 MSTORE PUSH32 0xD8138F8A3F377C5259CA548E70E4C2DE94F129F5A11036A15B69513CBA2B426A PUSH1 0x20 CALLER SWAP3 LOG2 PUSH1 0x1 PUSH0 MLOAD PUSH1 0x20 PUSH2 0xB8F PUSH0 CODECOPY PUSH0 MLOAD SWAP1 PUSH0 MSTORE SSTORE STOP JUMPDEST CALLVALUE PUSH2 0x273 JUMPI PUSH1 0x20 CALLDATASIZE PUSH1 0x3 NOT ADD SLT PUSH2 0x273 JUMPI PUSH1 0x4 CALLDATALOAD PUSH2 0x77B PUSH2 0xB3E JUMP JUMPDEST PUSH1 0xFF PUSH1 0x1 SLOAD PUSH1 0xA0 SHR AND ISZERO PUSH2 0x581 JUMPI CALLER PUSH0 MSTORE PUSH1 0x7 PUSH1 0x20 MSTORE PUSH1 0x40 PUSH0 KECCAK256 DUP2 DUP2 SLOAD LT PUSH2 0x8DA JUMPI DUP2 ISZERO PUSH2 0x572 JUMPI PUSH2 0x7AC DUP2 PUSH2 0xAE1 JUMP JUMPDEST DUP1 PUSH2 0x88F JUMPI JUMPDEST POP PUSH2 0x7BE DUP3 DUP3 SLOAD PUSH2 0xA3E JUMP JUMPDEST DUP2 SSTORE PUSH2 0x7CC DUP3 PUSH1 0x2 SLOAD PUSH2 0xA3E JUMP JUMPDEST PUSH1 0x2 SSTORE PUSH1 0x1 PUSH8 0xDE0B6B3A7640000 PUSH2 0x7E8 DUP4 SLOAD PUSH1 0x3 SLOAD SWAP1 PUSH2 0xA4B JUMP JUMPDEST DIV SWAP2 ADD SSTORE PUSH1 0x1 SLOAD PUSH1 0x40 MLOAD PUSH4 0xA9059CBB PUSH1 0xE0 SHL PUSH0 SWAP1 DUP2 MSTORE CALLER PUSH1 0x4 MSTORE PUSH1 0x24 DUP5 SWAP1 MSTORE SWAP1 SWAP3 SWAP2 PUSH1 0x1 PUSH1 0x1 PUSH1 0xA0 SHL SUB AND SWAP1 PUSH1 0x20 SWAP1 PUSH1 0x44 DUP2 DUP1 DUP6 GAS CALL PUSH1 0x1 PUSH0 MLOAD EQ DUP2 AND ISZERO PUSH2 0x870 JUMPI JUMPDEST DUP4 PUSH1 0x40 MSTORE ISZERO PUSH2 0x4DF JUMPI POP DUP2 MSTORE PUSH32 0xF5BB82176FEB1B5E747E28471AA92156A04D9F3AB9F45F28E2D704232B93F75 PUSH1 0x20 CALLER SWAP3 LOG2 PUSH1 0x1 PUSH0 MLOAD PUSH1 0x20 PUSH2 0xB8F PUSH0 CODECOPY PUSH0 MLOAD SWAP1 PUSH0 MSTORE SSTORE STOP JUMPDEST PUSH1 0x1 DUP2 ISZERO AND PUSH2 0x886 JUMPI DUP2 EXTCODESIZE ISZERO ISZERO RETURNDATASIZE ISZERO AND AND PUSH2 0x82B JUMP JUMPDEST DUP4 RETURNDATASIZE PUSH0 DUP3 RETURNDATACOPY RETURNDATASIZE SWAP1 REVERT JUMPDEST PUSH2 0x89B DUP2 PUSH1 0x6 SLOAD PUSH2 0xA31 JUMP JUMPDEST PUSH1 0x6 SSTORE PUSH2 0x8A8 DUP2 CALLER PUSH2 0xB76 JUMP JUMPDEST PUSH1 0x40 MLOAD SWAP1 DUP2 MSTORE PUSH32 0xD8138F8A3F377C5259CA548E70E4C2DE94F129F5A11036A15B69513CBA2B426A PUSH1 0x20 CALLER SWAP3 LOG2 DUP3 PUSH2 0x7B2 JUMP JUMPDEST PUSH4 0x78DE4A69 PUSH1 0xE1 SHL PUSH0 MSTORE PUSH1 0x4 PUSH0 REVERT JUMPDEST CALLVALUE PUSH2 0x273 JUMPI PUSH1 0x20 CALLDATASIZE PUSH1 0x3 NOT ADD SLT PUSH2 0x273 JUMPI PUSH1 0x4 CALLDATALOAD PUSH1 0x1 PUSH1 0x1 PUSH1 0xA0 SHL SUB DUP2 AND SWAP1 DUP2 SWAP1 SUB PUSH2 0x273 JUMPI PUSH2 0x917 PUSH2 0xB18 JUMP JUMPDEST PUSH1 0x1 SLOAD PUSH1 0xFF DUP2 PUSH1 0xA0 SHR AND PUSH2 0x975 JUMPI DUP2 ISZERO PUSH2 0x966 JUMPI PUSH1 0x1 PUSH1 0x1 PUSH1 0xA8 SHL SUB NOT AND DUP2 OR PUSH1 0x1 PUSH1 0xA0 SHL OR PUSH1 0x1 SSTORE PUSH32 0xCC43938D137E7EFADE6A531F663E78C1FC75257B0D65FFDA2FDAF70CB49CDF9 PUSH0 DUP1 LOG2 STOP JUMPDEST PUSH4 0xD92E233D PUSH1 0xE0 SHL PUSH0 MSTORE PUSH1 0x4 PUSH0 REVERT JUMPDEST PUSH4 0x7CDF3051 PUSH1 0xE1 SHL PUSH0 MSTORE PUSH1 0x4 PUSH0 REVERT JUMPDEST CALLVALUE PUSH2 0x273 JUMPI PUSH1 0x20 CALLDATASIZE PUSH1 0x3 NOT ADD SLT PUSH2 0x273 JUMPI PUSH1 0x4 CALLDATALOAD PUSH1 0x1 PUSH1 0x1 PUSH1 0xA0 SHL SUB DUP2 AND SWAP1 DUP2 SWAP1 SUB PUSH2 0x273 JUMPI PUSH0 MSTORE PUSH1 0x7 PUSH1 0x20 MSTORE PUSH1 0x40 DUP1 PUSH0 KECCAK256 PUSH1 0x1 DUP2 SLOAD SWAP2 ADD SLOAD DUP3 MLOAD SWAP2 DUP3 MSTORE PUSH1 0x20 DUP3 ADD MSTORE RETURN JUMPDEST CALLVALUE PUSH2 0x273 JUMPI PUSH0 CALLDATASIZE PUSH1 0x3 NOT ADD SLT PUSH2 0x273 JUMPI PUSH1 0x20 PUSH1 0xFF PUSH1 0x1 SLOAD PUSH1 0xA0 SHR AND PUSH1 0x40 MLOAD SWAP1 ISZERO ISZERO DUP2 MSTORE RETURN JUMPDEST CALLVALUE PUSH2 0x273 JUMPI PUSH1 0x20 CALLDATASIZE PUSH1 0x3 NOT ADD SLT PUSH2 0x273 JUMPI PUSH1 0x4 CALLDATALOAD PUSH1 0x1 PUSH1 0x1 PUSH1 0xA0 SHL SUB DUP2 AND SWAP1 DUP2 SWAP1 SUB PUSH2 0x273 JUMPI PUSH0 MSTORE PUSH1 0x7 PUSH1 0x20 MSTORE PUSH1 0x20 PUSH2 0xA29 PUSH1 0x40 PUSH0 KECCAK256 PUSH2 0xAE1 JUMP JUMPDEST PUSH1 0x40 MLOAD SWAP1 DUP2 MSTORE RETURN JUMPDEST SWAP2 SWAP1 DUP3 ADD DUP1 SWAP3 GT PUSH2 0xEE JUMPI JUMP JUMPDEST SWAP2 SWAP1 DUP3 SUB SWAP2 DUP3 GT PUSH2 0xEE JUMPI JUMP JUMPDEST DUP2 DUP2 MUL SWAP3 SWAP2 DUP2 ISZERO SWAP2 DUP5 DIV EQ OR ISZERO PUSH2 0xEE JUMPI JUMP JUMPDEST DUP2 ISZERO PUSH2 0xA68 JUMPI DIV SWAP1 JUMP JUMPDEST PUSH4 0x4E487B71 PUSH1 0xE0 SHL PUSH0 MSTORE PUSH1 0x12 PUSH1 0x4 MSTORE PUSH1 0x24 PUSH0 REVERT JUMPDEST RETURNDATASIZE ISZERO PUSH2 0xADC JUMPI RETURNDATASIZE SWAP1 PUSH8 0xFFFFFFFFFFFFFFFF DUP3 GT PUSH2 0xAC8 JUMPI PUSH1 0x40 MLOAD SWAP2 PUSH1 0x1F DUP2 ADD PUSH1 0x1F NOT SWAP1 DUP2 AND PUSH1 0x3F ADD AND DUP4 ADD PUSH8 0xFFFFFFFFFFFFFFFF DUP2 GT DUP5 DUP3 LT OR PUSH2 0xAC8 JUMPI PUSH1 0x40 MSTORE DUP3 MSTORE RETURNDATASIZE PUSH0 PUSH1 0x20 DUP5 ADD RETURNDATACOPY JUMP JUMPDEST PUSH4 0x4E487B71 PUSH1 0xE0 SHL PUSH0 MSTORE PUSH1 0x41 PUSH1 0x4 MSTORE PUSH1 0x24 PUSH0 REVERT JUMPDEST PUSH1 0x60 SWAP1 JUMP JUMPDEST DUP1 SLOAD SWAP1 DUP2 ISZERO PUSH2 0xB12 JUMPI PUSH1 0x1 PUSH8 0xDE0B6B3A7640000 PUSH2 0xB05 PUSH2 0xB0F SWAP5 PUSH1 0x3 SLOAD SWAP1 PUSH2 0xA4B JUMP JUMPDEST DIV SWAP2 ADD SLOAD SWAP1 PUSH2 0xA3E JUMP JUMPDEST SWAP1 JUMP JUMPDEST POP POP PUSH0 SWAP1 JUMP JUMPDEST PUSH0 SLOAD PUSH1 0x1 PUSH1 0x1 PUSH1 0xA0 SHL SUB AND CALLER SUB PUSH2 0xB2B JUMPI JUMP JUMPDEST PUSH4 0x118CDAA7 PUSH1 0xE0 SHL PUSH0 MSTORE CALLER PUSH1 0x4 MSTORE PUSH1 0x24 PUSH0 REVERT JUMPDEST PUSH1 0x2 PUSH0 MLOAD PUSH1 0x20 PUSH2 0xB8F PUSH0 CODECOPY PUSH0 MLOAD SWAP1 PUSH0 MSTORE SLOAD EQ PUSH2 0xB67 JUMPI PUSH1 0x2 PUSH0 MLOAD PUSH1 0x20 PUSH2 0xB8F PUSH0 CODECOPY PUSH0 MLOAD SWAP1 PUSH0 MSTORE SSTORE JUMP JUMPDEST PUSH4 0x3EE5AEB5 PUSH1 0xE0 SHL PUSH0 MSTORE PUSH1 0x4 PUSH0 REVERT JUMPDEST PUSH0 DUP1 DUP1 SWAP4 DUP2 SWAP4 GAS CALL PUSH2 0xB86 PUSH2 0xA7C JUMP JUMPDEST POP ISZERO PUSH2 0x342 JUMPI JUMP INVALID SWAP12 PUSH24 0x9B17422D0DF92223018B32B4D1FA46E071723D6817E2486D STOP EXTCODESIZE 0xEC 0xC5 PUSH0 STOP LOG2 PUSH5 0x6970667358 0x22 SLT KECCAK256 SWAP15 MLOAD 0xCB 0x24 SWAP9 EQ 0x2A PUSH27 0xA5399CFD921522EC08DAF68CEF9B613515529B2B357C486964736F PUSH13 0x634300081C0033000000000000 "},"methodIdentifiers":{"PRECISION()":"aaf5eb68","accRewardPerShare()":"939d6237","accumulatedBnb()":"72d54394","activate(address)":"1c5a9d9c","active()":"02fb0c5e","claim()":"4e71d92d","earned(address)":"008cc262","emergencyWithdraw()":"db2e21bc","lpToken()":"5fcbd285","owner()":"8da5cb5b","pendingRewards()":"eded3fda","renounceOwnership()":"715018a6","stake(uint256)":"a694fc3a","totalDistributed()":"efca2eed","totalReceived()":"a3c2c462","totalStaked()":"817b1cd2","transferOwnership(address)":"f2fde38b","unstake(uint256)":"2e17de78","userInfo(address)":"1959a002"}}}}}