{"contracts/BottomProtectionVault.sol":{"BottomProtectionVault":{"abi":[{"inputs":[{"internalType":"address","name":"_cnova","type":"address"},{"internalType":"address","name":"_owner","type":"address"}],"stateMutability":"nonpayable","type":"constructor"},{"inputs":[],"name":"InsufficientProtectedBalance","type":"error"},{"inputs":[],"name":"InsufficientVaultBalance","type":"error"},{"inputs":[],"name":"InvalidSignature","type":"error"},{"inputs":[],"name":"LossBelowThreshold","type":"error"},{"inputs":[],"name":"NoBuyPriceRecorded","type":"error"},{"inputs":[{"internalType":"address","name":"owner","type":"address"}],"name":"OwnableInvalidOwner","type":"error"},{"inputs":[{"internalType":"address","name":"account","type":"address"}],"name":"OwnableUnauthorizedAccount","type":"error"},{"inputs":[],"name":"ReentrancyGuardReentrantCall","type":"error"},{"inputs":[],"name":"SignatureExpired","type":"error"},{"inputs":[],"name":"TransferFailed","type":"error"},{"inputs":[],"name":"ZeroAddress","type":"error"},{"inputs":[],"name":"ZeroAmount","type":"error"},{"anonymous":false,"inputs":[{"indexed":true,"internalType":"address","name":"to","type":"address"},{"indexed":false,"internalType":"uint256","name":"amount","type":"uint256"}],"name":"EmergencyWithdrawn","type":"event"},{"anonymous":false,"inputs":[{"indexed":false,"internalType":"bool","name":"enabled","type":"bool"}],"name":"EmergencyZeroSet","type":"event"},{"anonymous":false,"inputs":[{"indexed":true,"internalType":"address","name":"previousOwner","type":"address"},{"indexed":true,"internalType":"address","name":"newOwner","type":"address"}],"name":"OwnershipTransferred","type":"event"},{"anonymous":false,"inputs":[{"indexed":true,"internalType":"address","name":"user","type":"address"},{"indexed":false,"internalType":"uint256","name":"qty","type":"uint256"},{"indexed":false,"internalType":"uint256","name":"price","type":"uint256"},{"indexed":false,"internalType":"uint256","name":"newWeightedPrice","type":"uint256"}],"name":"PurchaseRecorded","type":"event"},{"anonymous":false,"inputs":[{"indexed":true,"internalType":"address","name":"user","type":"address"},{"indexed":false,"internalType":"uint256","name":"qty","type":"uint256"},{"indexed":false,"internalType":"uint256","name":"refPrice","type":"uint256"},{"indexed":false,"internalType":"uint256","name":"lossRateBps","type":"uint256"},{"indexed":false,"internalType":"uint256","name":"payoutBps","type":"uint256"},{"indexed":false,"internalType":"uint256","name":"payoutBnb","type":"uint256"}],"name":"Redeemed","type":"event"},{"anonymous":false,"inputs":[{"indexed":false,"internalType":"uint256","name":"amount","type":"uint256"}],"name":"RewardReceived","type":"event"},{"anonymous":false,"inputs":[{"indexed":true,"internalType":"address","name":"prev","type":"address"},{"indexed":true,"internalType":"address","name":"next","type":"address"}],"name":"SignerUpdated","type":"event"},{"stateMutability":"payable","type":"fallback"},{"inputs":[],"name":"BURN_ADDRESS","outputs":[{"internalType":"address","name":"","type":"address"}],"stateMutability":"view","type":"function"},{"inputs":[],"name":"cnova","outputs":[{"internalType":"contract IERC20","name":"","type":"address"}],"stateMutability":"view","type":"function"},{"inputs":[],"name":"emergencyWithdraw","outputs":[],"stateMutability":"nonpayable","type":"function"},{"inputs":[],"name":"emergencyZero","outputs":[{"internalType":"bool","name":"","type":"bool"}],"stateMutability":"view","type":"function"},{"inputs":[{"internalType":"address","name":"user","type":"address"},{"internalType":"uint256","name":"qty","type":"uint256"},{"internalType":"uint256","name":"refPrice","type":"uint256"}],"name":"estimatedPayout","outputs":[{"internalType":"uint256","name":"payoutBnb","type":"uint256"},{"internalType":"uint256","name":"lossRateBps","type":"uint256"},{"internalType":"uint256","name":"payoutBps","type":"uint256"}],"stateMutability":"view","type":"function"},{"inputs":[{"internalType":"address","name":"","type":"address"}],"name":"nonces","outputs":[{"internalType":"uint256","name":"","type":"uint256"}],"stateMutability":"view","type":"function"},{"inputs":[],"name":"notifyReward","outputs":[],"stateMutability":"payable","type":"function"},{"inputs":[],"name":"owner","outputs":[{"internalType":"address","name":"","type":"address"}],"stateMutability":"view","type":"function"},{"inputs":[{"internalType":"address","name":"","type":"address"}],"name":"protectedBalance","outputs":[{"internalType":"uint256","name":"","type":"uint256"}],"stateMutability":"view","type":"function"},{"inputs":[{"internalType":"uint256","name":"qty","type":"uint256"},{"internalType":"uint256","name":"pricePerToken","type":"uint256"}],"name":"recordPurchase","outputs":[],"stateMutability":"nonpayable","type":"function"},{"inputs":[{"internalType":"uint256","name":"redeemQty","type":"uint256"},{"internalType":"uint256","name":"refPrice","type":"uint256"},{"internalType":"uint256","name":"deadline","type":"uint256"},{"internalType":"uint8","name":"v","type":"uint8"},{"internalType":"bytes32","name":"r","type":"bytes32"},{"internalType":"bytes32","name":"s","type":"bytes32"}],"name":"redeem","outputs":[],"stateMutability":"nonpayable","type":"function"},{"inputs":[],"name":"renounceOwnership","outputs":[],"stateMutability":"nonpayable","type":"function"},{"inputs":[{"internalType":"bool","name":"_enabled","type":"bool"}],"name":"setEmergencyZero","outputs":[],"stateMutability":"nonpayable","type":"function"},{"inputs":[{"internalType":"address","name":"_signer","type":"address"}],"name":"setSigner","outputs":[],"stateMutability":"nonpayable","type":"function"},{"inputs":[],"name":"signer","outputs":[{"internalType":"address","name":"","type":"address"}],"stateMutability":"view","type":"function"},{"inputs":[],"name":"totalPaidOut","outputs":[{"internalType":"uint256","name":"","type":"uint256"}],"stateMutability":"view","type":"function"},{"inputs":[],"name":"totalReceived","outputs":[{"internalType":"uint256","name":"","type":"uint256"}],"stateMutability":"view","type":"function"},{"inputs":[{"internalType":"address","name":"newOwner","type":"address"}],"name":"transferOwnership","outputs":[],"stateMutability":"nonpayable","type":"function"},{"inputs":[],"name":"vaultBalance","outputs":[{"internalType":"uint256","name":"","type":"uint256"}],"stateMutability":"view","type":"function"},{"inputs":[{"internalType":"address","name":"","type":"address"}],"name":"weightedBuyPrice","outputs":[{"internalType":"uint256","name":"","type":"uint256"}],"stateMutability":"view","type":"function"},{"stateMutability":"payable","type":"receive"}],"evm":{"bytecode":{"linkReferences":{},"object":"60803461012057601f610e8238819003918201601f19168301916001600160401b038311848410176101245780849260409485528339810103126101205761004681610138565b906001600160a01b039061005c90602001610138565b1690811561010d575f80546001600160a01b031981168417825560405193916001600160a01b03909116907f8be0079c531659141344cd1fd0a4f28419497f9722a3daafe3b4186f6b6457e09080a360017f9b779b17422d0df92223018b32b4d1fa46e071723d6817e2486d003becc55f00556001600160a01b031680156100fe57600180546001600160a01b031916919091179055610d35908161014d8239f35b63d92e233d60e01b5f5260045ffd5b631e4fbdf760e01b5f525f60045260245ffd5b5f80fd5b634e487b7160e01b5f52604160045260245ffd5b51906001600160a01b03821682036101205756fe60806040526004361015610026575b361561001e5761001c610b16565b005b61001c610b16565b5f3560e01c8062df21fe146106965780630bf6cc081461067b5780631357e1dc1461065e578063238ac9331461063657806323cbf298146106115780633dc1a23b146105d95780634da6eb23146104d95780635d54bda4146104c65780636c19e78314610445578063715018a6146103ee5780637ecebe00146103b6578063822780a91461034a578063859b1e75146103125780638da5cb5b146102eb578063a3c2c462146102ce578063b4185af0146102a6578063baec51e514610259578063db2e21bc146101aa578063f2fde38b146101255763fccc28130361000e5734610121575f36600319011261012157602060405161dead8152f35b5f80fd5b346101215760203660031901126101215761013e610a40565b610146610cb9565b6001600160a01b03168015610197575f80546001600160a01b03198116831782556001600160a01b0316907f8be0079c531659141344cd1fd0a4f28419497f9722a3daafe3b4186f6b6457e09080a3005b631e4fbdf760e01b5f525f60045260245ffd5b34610121575f366003190112610121576101c2610cb9565b6101ca610c19565b47801561024a575f8080808460018060a01b038254165af16101ea610ad7565b501561023b575f546040519182526001600160a01b0316907f2e39961a70a10f4d46383948095ac2752b3ee642a7c76aa827410aaff08c2e5190602090a260015f516020610ce05f395f51905f5255005b6312171d8360e31b5f5260045ffd5b6314ecd6c760e01b5f5260045ffd5b34610121576060366003190112610121576102a2610285610278610a40565b6044359060243590610b51565b604080519384526020840192909252908201529081906060820190565b0390f35b34610121575f366003190112610121576001546040516001600160a01b039091168152602090f35b34610121575f366003190112610121576020600354604051908152f35b34610121575f366003190112610121575f546040516001600160a01b039091168152602090f35b34610121576020366003190112610121576001600160a01b03610333610a40565b165f526005602052602060405f2054604051908152f35b34610121576020366003190112610121576004358015158091036101215760207fe561d2c3e8a199397605dfef7791dd42919aa503640a5b4f0e936eaf8135505691610394610cb9565b6002805460ff60a01b191660a083901b60ff60a01b16179055604051908152a1005b34610121576020366003190112610121576001600160a01b036103d7610a40565b165f526007602052602060405f2054604051908152f35b34610121575f36600319011261012157610406610cb9565b5f80546001600160a01b0319811682556001600160a01b03167f8be0079c531659141344cd1fd0a4f28419497f9722a3daafe3b4186f6b6457e08280a3005b346101215760203660031901126101215761045e610a40565b610466610cb9565b6001600160a01b031680156104b757600254816001600160a01b0382167f2d025324f0a785e8c12d0a0d91a9caa49df4ef20ff87e0df7213a1d4f3157beb5f80a36001600160a01b03191617600255005b63d92e233d60e01b5f5260045ffd5b5f3660031901126101215761001c610b16565b346101215760403660031901126101215760043560243581156105ca5780156105ca577f44c435acf955178e071765bda720417309bf98339b85a9b1d917dedd9895a18690335f5260066020528260405f2054335f52600560205260405f205481155f1461059457505050805b335f52600660205260405f2061055d858254610aca565b9055335f5260056020528160405f205561058f6040519283923396846040919493926060820195825260208201520152565b0390a2005b6105c4926105b86105a8846105be94610a99565b6105b28388610a99565b90610aca565b92610aca565b90610aac565b90610546565b631f2a200560e01b5f5260045ffd5b34610121576020366003190112610121576001600160a01b036105fa610a40565b165f526006602052602060405f2054604051908152f35b34610121575f36600319011261012157602060ff60025460a01c166040519015158152f35b34610121575f366003190112610121576002546040516001600160a01b039091168152602090f35b34610121575f366003190112610121576020600454604051908152f35b34610121575f36600319011261012157602047604051908152f35b346101215760c03660031901126101215760043560243560443560643560ff8116809103610121576106c6610c19565b83156105ca57814211610a3157335f52600560205260405f205415610a2257335f5260066020528360405f205410610a135760805f916020933384526007855260408420549060405190868201926f2137ba3a37b6a83937ba32b1ba34b7b760811b84524660308401523060601b6050840152886064840152608483015260a482015260a4815261075860c482610a56565b519020604051858101917f19457468657265756d205369676e6564204d6573736167653a0a3332000000008352603c820152603c8152610799605c82610a56565b5190209060405191825284820152608435604082015260a435606082015282805260015afa1561096d575f516001600160a01b031680159081156109fd575b506109ee57335f52600760205260405f2080545f1981146109cb576001019055335f52600560205260405f2054811580156109df575b15610987576127105b61082081610c51565b9182156109785761084783670de0b6b3a76400006108416127109489610a99565b04610a99565b049283156105ca5783471061024a57335f52600660205260405f2061086d868254610a8c565b905561087b84600454610aca565b6004555f602060018060a01b03600154166064604051809481936323b872dd60e01b835233600484015261dead60248401528b60448401525af190811561096d575f91610932575b501561023b575f80808087335af16108d9610ad7565b501561023b5760405194855260208501526040840152606083015260808201527f09018aaedaafcf3a655b4c0e4a7c39bad2f98f367ef23f57b6d9062057db754760a03392a260015f516020610ce05f395f51905f5255005b90506020813d602011610965575b8161094d60209383610a56565b810103126101215751801515810361012157866108c3565b3d9150610940565b6040513d5f823e3d90fd5b63ef68106560e01b5f5260045ffd5b80821061099d5763ef68106560e01b5f5260045ffd5b6109a78282610a8c565b61271081029080820461271014901517156109cb57816109c691610aac565b610817565b634e487b7160e01b5f52601160045260245ffd5b5060ff60025460a01c1661080e565b638baa579f60e01b5f5260045ffd5b6002546001600160a01b031614159050836107d8565b636e88159360e11b5f5260045ffd5b6326cf11bd60e01b5f5260045ffd5b630819bdcd60e01b5f5260045ffd5b600435906001600160a01b038216820361012157565b90601f8019910116810190811067ffffffffffffffff821117610a7857604052565b634e487b7160e01b5f52604160045260245ffd5b919082039182116109cb57565b818102929181159184041417156109cb57565b8115610ab6570490565b634e487b7160e01b5f52601260045260245ffd5b919082018092116109cb57565b3d15610b11573d9067ffffffffffffffff8211610a785760405191610b06601f8201601f191660200184610a56565b82523d5f602084013e565b606090565b610b2234600354610aca565b6003557f562ff1d6fee77720385c79d29bef3c90c5a796b161826766d09a972bda104a3c6020604051348152a1565b6001600160a01b03165f90815260056020526040902054909181158015610c11575b610c065780158015610bf7575b15610bb05750612710610bac81935b670de0b6b3a7640000610841610ba487610c51565b958693610a99565b0492565b818110610bc2575050505f905f905f90565b610bcc9082610a8c565b61271081029080820461271014901517156109cb57610bac610bf18361271093610aac565b93610b8f565b5060ff60025460a01c16610b80565b5050505f905f905f90565b508215610b73565b60025f516020610ce05f395f51905f525414610c425760025f516020610ce05f395f51905f5255565b633ee5aeb560e01b5f5260045ffd5b612710811015610cb257612328811015610cab57611f40811015610ca457611b58811015610c9d57611770811015610c96576113881115610c90575f90565b610bb890565b5061138890565b5061177090565b50611b5890565b50611f4090565b5061271090565b5f546001600160a01b03163303610ccc57565b63118cdaa760e01b5f523360045260245ffdfe9b779b17422d0df92223018b32b4d1fa46e071723d6817e2486d003becc55f00a2646970667358221220c1580ff25f6d788e0d025069848d42b5b6d83d01b5f4c43ce4e04e9466f783da64736f6c634300081c0033","opcodes":"PUSH1 0x80 CALLVALUE PUSH2 0x120 JUMPI PUSH1 0x1F PUSH2 0xE82 CODESIZE DUP2 SWAP1 SUB SWAP2 DUP3 ADD PUSH1 0x1F NOT AND DUP4 ADD SWAP2 PUSH1 0x1 PUSH1 0x1 PUSH1 0x40 SHL SUB DUP4 GT DUP5 DUP5 LT OR PUSH2 0x124 JUMPI DUP1 DUP5 SWAP3 PUSH1 0x40 SWAP5 DUP6 MSTORE DUP4 CODECOPY DUP2 ADD SUB SLT PUSH2 0x120 JUMPI PUSH2 0x46 DUP2 PUSH2 0x138 JUMP JUMPDEST SWAP1 PUSH1 0x1 PUSH1 0x1 PUSH1 0xA0 SHL SUB SWAP1 PUSH2 0x5C SWAP1 PUSH1 0x20 ADD PUSH2 0x138 JUMP JUMPDEST AND SWAP1 DUP2 ISZERO PUSH2 0x10D JUMPI PUSH0 DUP1 SLOAD PUSH1 0x1 PUSH1 0x1 PUSH1 0xA0 SHL SUB NOT DUP2 AND DUP5 OR DUP3 SSTORE PUSH1 0x40 MLOAD SWAP4 SWAP2 PUSH1 0x1 PUSH1 0x1 PUSH1 0xA0 SHL SUB SWAP1 SWAP2 AND SWAP1 PUSH32 0x8BE0079C531659141344CD1FD0A4F28419497F9722A3DAAFE3B4186F6B6457E0 SWAP1 DUP1 LOG3 PUSH1 0x1 PUSH32 0x9B779B17422D0DF92223018B32B4D1FA46E071723D6817E2486D003BECC55F00 SSTORE PUSH1 0x1 PUSH1 0x1 PUSH1 0xA0 SHL SUB AND DUP1 ISZERO PUSH2 0xFE JUMPI PUSH1 0x1 DUP1 SLOAD PUSH1 0x1 PUSH1 0x1 PUSH1 0xA0 SHL SUB NOT AND SWAP2 SWAP1 SWAP2 OR SWAP1 SSTORE PUSH2 0xD35 SWAP1 DUP2 PUSH2 0x14D DUP3 CODECOPY RETURN JUMPDEST PUSH4 0xD92E233D PUSH1 0xE0 SHL PUSH0 MSTORE PUSH1 0x4 PUSH0 REVERT JUMPDEST PUSH4 0x1E4FBDF7 PUSH1 0xE0 SHL PUSH0 MSTORE PUSH0 PUSH1 0x4 MSTORE PUSH1 0x24 PUSH0 REVERT JUMPDEST PUSH0 DUP1 REVERT JUMPDEST PUSH4 0x4E487B71 PUSH1 0xE0 SHL PUSH0 MSTORE PUSH1 0x41 PUSH1 0x4 MSTORE PUSH1 0x24 PUSH0 REVERT JUMPDEST MLOAD SWAP1 PUSH1 0x1 PUSH1 0x1 PUSH1 0xA0 SHL SUB DUP3 AND DUP3 SUB PUSH2 0x120 JUMPI JUMP INVALID PUSH1 0x80 PUSH1 0x40 MSTORE PUSH1 0x4 CALLDATASIZE LT ISZERO PUSH2 0x26 JUMPI JUMPDEST CALLDATASIZE ISZERO PUSH2 0x1E JUMPI PUSH2 0x1C PUSH2 0xB16 JUMP JUMPDEST STOP JUMPDEST PUSH2 0x1C PUSH2 0xB16 JUMP JUMPDEST PUSH0 CALLDATALOAD PUSH1 0xE0 SHR DUP1 PUSH3 0xDF21FE EQ PUSH2 0x696 JUMPI DUP1 PUSH4 0xBF6CC08 EQ PUSH2 0x67B JUMPI DUP1 PUSH4 0x1357E1DC EQ PUSH2 0x65E JUMPI DUP1 PUSH4 0x238AC933 EQ PUSH2 0x636 JUMPI DUP1 PUSH4 0x23CBF298 EQ PUSH2 0x611 JUMPI DUP1 PUSH4 0x3DC1A23B EQ PUSH2 0x5D9 JUMPI DUP1 PUSH4 0x4DA6EB23 EQ PUSH2 0x4D9 JUMPI DUP1 PUSH4 0x5D54BDA4 EQ PUSH2 0x4C6 JUMPI DUP1 PUSH4 0x6C19E783 EQ PUSH2 0x445 JUMPI DUP1 PUSH4 0x715018A6 EQ PUSH2 0x3EE JUMPI DUP1 PUSH4 0x7ECEBE00 EQ PUSH2 0x3B6 JUMPI DUP1 PUSH4 0x822780A9 EQ PUSH2 0x34A JUMPI DUP1 PUSH4 0x859B1E75 EQ PUSH2 0x312 JUMPI DUP1 PUSH4 0x8DA5CB5B EQ PUSH2 0x2EB JUMPI DUP1 PUSH4 0xA3C2C462 EQ PUSH2 0x2CE JUMPI DUP1 PUSH4 0xB4185AF0 EQ PUSH2 0x2A6 JUMPI DUP1 PUSH4 0xBAEC51E5 EQ PUSH2 0x259 JUMPI DUP1 PUSH4 0xDB2E21BC EQ PUSH2 0x1AA JUMPI DUP1 PUSH4 0xF2FDE38B EQ PUSH2 0x125 JUMPI PUSH4 0xFCCC2813 SUB PUSH2 0xE JUMPI CALLVALUE PUSH2 0x121 JUMPI PUSH0 CALLDATASIZE PUSH1 0x3 NOT ADD SLT PUSH2 0x121 JUMPI PUSH1 0x20 PUSH1 0x40 MLOAD PUSH2 0xDEAD DUP2 MSTORE RETURN JUMPDEST PUSH0 DUP1 REVERT JUMPDEST CALLVALUE PUSH2 0x121 JUMPI PUSH1 0x20 CALLDATASIZE PUSH1 0x3 NOT ADD SLT PUSH2 0x121 JUMPI PUSH2 0x13E PUSH2 0xA40 JUMP JUMPDEST PUSH2 0x146 PUSH2 0xCB9 JUMP JUMPDEST PUSH1 0x1 PUSH1 0x1 PUSH1 0xA0 SHL SUB AND DUP1 ISZERO PUSH2 0x197 JUMPI PUSH0 DUP1 SLOAD PUSH1 0x1 PUSH1 0x1 PUSH1 0xA0 SHL SUB NOT DUP2 AND DUP4 OR DUP3 SSTORE PUSH1 0x1 PUSH1 0x1 PUSH1 0xA0 SHL SUB AND SWAP1 PUSH32 0x8BE0079C531659141344CD1FD0A4F28419497F9722A3DAAFE3B4186F6B6457E0 SWAP1 DUP1 LOG3 STOP JUMPDEST PUSH4 0x1E4FBDF7 PUSH1 0xE0 SHL PUSH0 MSTORE PUSH0 PUSH1 0x4 MSTORE PUSH1 0x24 PUSH0 REVERT JUMPDEST CALLVALUE PUSH2 0x121 JUMPI PUSH0 CALLDATASIZE PUSH1 0x3 NOT ADD SLT PUSH2 0x121 JUMPI PUSH2 0x1C2 PUSH2 0xCB9 JUMP JUMPDEST PUSH2 0x1CA PUSH2 0xC19 JUMP JUMPDEST SELFBALANCE DUP1 ISZERO PUSH2 0x24A JUMPI PUSH0 DUP1 DUP1 DUP1 DUP5 PUSH1 0x1 DUP1 PUSH1 0xA0 SHL SUB DUP3 SLOAD AND GAS CALL PUSH2 0x1EA PUSH2 0xAD7 JUMP JUMPDEST POP ISZERO PUSH2 0x23B JUMPI PUSH0 SLOAD PUSH1 0x40 MLOAD SWAP2 DUP3 MSTORE PUSH1 0x1 PUSH1 0x1 PUSH1 0xA0 SHL SUB AND SWAP1 PUSH32 0x2E39961A70A10F4D46383948095AC2752B3EE642A7C76AA827410AAFF08C2E51 SWAP1 PUSH1 0x20 SWAP1 LOG2 PUSH1 0x1 PUSH0 MLOAD PUSH1 0x20 PUSH2 0xCE0 PUSH0 CODECOPY PUSH0 MLOAD SWAP1 PUSH0 MSTORE SSTORE STOP JUMPDEST PUSH4 0x12171D83 PUSH1 0xE3 SHL PUSH0 MSTORE PUSH1 0x4 PUSH0 REVERT JUMPDEST PUSH4 0x14ECD6C7 PUSH1 0xE0 SHL PUSH0 MSTORE PUSH1 0x4 PUSH0 REVERT JUMPDEST CALLVALUE PUSH2 0x121 JUMPI PUSH1 0x60 CALLDATASIZE PUSH1 0x3 NOT ADD SLT PUSH2 0x121 JUMPI PUSH2 0x2A2 PUSH2 0x285 PUSH2 0x278 PUSH2 0xA40 JUMP JUMPDEST PUSH1 0x44 CALLDATALOAD SWAP1 PUSH1 0x24 CALLDATALOAD SWAP1 PUSH2 0xB51 JUMP JUMPDEST PUSH1 0x40 DUP1 MLOAD SWAP4 DUP5 MSTORE PUSH1 0x20 DUP5 ADD SWAP3 SWAP1 SWAP3 MSTORE SWAP1 DUP3 ADD MSTORE SWAP1 DUP2 SWAP1 PUSH1 0x60 DUP3 ADD SWAP1 JUMP JUMPDEST SUB SWAP1 RETURN JUMPDEST CALLVALUE PUSH2 0x121 JUMPI PUSH0 CALLDATASIZE PUSH1 0x3 NOT ADD SLT PUSH2 0x121 JUMPI PUSH1 0x1 SLOAD PUSH1 0x40 MLOAD PUSH1 0x1 PUSH1 0x1 PUSH1 0xA0 SHL SUB SWAP1 SWAP2 AND DUP2 MSTORE PUSH1 0x20 SWAP1 RETURN JUMPDEST CALLVALUE PUSH2 0x121 JUMPI PUSH0 CALLDATASIZE PUSH1 0x3 NOT ADD SLT PUSH2 0x121 JUMPI PUSH1 0x20 PUSH1 0x3 SLOAD PUSH1 0x40 MLOAD SWAP1 DUP2 MSTORE RETURN JUMPDEST CALLVALUE PUSH2 0x121 JUMPI PUSH0 CALLDATASIZE PUSH1 0x3 NOT ADD SLT PUSH2 0x121 JUMPI PUSH0 SLOAD PUSH1 0x40 MLOAD PUSH1 0x1 PUSH1 0x1 PUSH1 0xA0 SHL SUB SWAP1 SWAP2 AND DUP2 MSTORE PUSH1 0x20 SWAP1 RETURN JUMPDEST CALLVALUE PUSH2 0x121 JUMPI PUSH1 0x20 CALLDATASIZE PUSH1 0x3 NOT ADD SLT PUSH2 0x121 JUMPI PUSH1 0x1 PUSH1 0x1 PUSH1 0xA0 SHL SUB PUSH2 0x333 PUSH2 0xA40 JUMP JUMPDEST AND PUSH0 MSTORE PUSH1 0x5 PUSH1 0x20 MSTORE PUSH1 0x20 PUSH1 0x40 PUSH0 KECCAK256 SLOAD PUSH1 0x40 MLOAD SWAP1 DUP2 MSTORE RETURN JUMPDEST CALLVALUE PUSH2 0x121 JUMPI PUSH1 0x20 CALLDATASIZE PUSH1 0x3 NOT ADD SLT PUSH2 0x121 JUMPI PUSH1 0x4 CALLDATALOAD DUP1 ISZERO ISZERO DUP1 SWAP2 SUB PUSH2 0x121 JUMPI PUSH1 0x20 PUSH32 0xE561D2C3E8A199397605DFEF7791DD42919AA503640A5B4F0E936EAF81355056 SWAP2 PUSH2 0x394 PUSH2 0xCB9 JUMP JUMPDEST PUSH1 0x2 DUP1 SLOAD PUSH1 0xFF PUSH1 0xA0 SHL NOT AND PUSH1 0xA0 DUP4 SWAP1 SHL PUSH1 0xFF PUSH1 0xA0 SHL AND OR SWAP1 SSTORE PUSH1 0x40 MLOAD SWAP1 DUP2 MSTORE LOG1 STOP JUMPDEST CALLVALUE PUSH2 0x121 JUMPI PUSH1 0x20 CALLDATASIZE PUSH1 0x3 NOT ADD SLT PUSH2 0x121 JUMPI PUSH1 0x1 PUSH1 0x1 PUSH1 0xA0 SHL SUB PUSH2 0x3D7 PUSH2 0xA40 JUMP JUMPDEST AND PUSH0 MSTORE PUSH1 0x7 PUSH1 0x20 MSTORE PUSH1 0x20 PUSH1 0x40 PUSH0 KECCAK256 SLOAD PUSH1 0x40 MLOAD SWAP1 DUP2 MSTORE RETURN JUMPDEST CALLVALUE PUSH2 0x121 JUMPI PUSH0 CALLDATASIZE PUSH1 0x3 NOT ADD SLT PUSH2 0x121 JUMPI PUSH2 0x406 PUSH2 0xCB9 JUMP JUMPDEST PUSH0 DUP1 SLOAD PUSH1 0x1 PUSH1 0x1 PUSH1 0xA0 SHL SUB NOT DUP2 AND DUP3 SSTORE PUSH1 0x1 PUSH1 0x1 PUSH1 0xA0 SHL SUB AND PUSH32 0x8BE0079C531659141344CD1FD0A4F28419497F9722A3DAAFE3B4186F6B6457E0 DUP3 DUP1 LOG3 STOP JUMPDEST CALLVALUE PUSH2 0x121 JUMPI PUSH1 0x20 CALLDATASIZE PUSH1 0x3 NOT ADD SLT PUSH2 0x121 JUMPI PUSH2 0x45E PUSH2 0xA40 JUMP JUMPDEST PUSH2 0x466 PUSH2 0xCB9 JUMP JUMPDEST PUSH1 0x1 PUSH1 0x1 PUSH1 0xA0 SHL SUB AND DUP1 ISZERO PUSH2 0x4B7 JUMPI PUSH1 0x2 SLOAD DUP2 PUSH1 0x1 PUSH1 0x1 PUSH1 0xA0 SHL SUB DUP3 AND PUSH32 0x2D025324F0A785E8C12D0A0D91A9CAA49DF4EF20FF87E0DF7213A1D4F3157BEB PUSH0 DUP1 LOG3 PUSH1 0x1 PUSH1 0x1 PUSH1 0xA0 SHL SUB NOT AND OR PUSH1 0x2 SSTORE STOP JUMPDEST PUSH4 0xD92E233D PUSH1 0xE0 SHL PUSH0 MSTORE PUSH1 0x4 PUSH0 REVERT JUMPDEST PUSH0 CALLDATASIZE PUSH1 0x3 NOT ADD SLT PUSH2 0x121 JUMPI PUSH2 0x1C PUSH2 0xB16 JUMP JUMPDEST CALLVALUE PUSH2 0x121 JUMPI PUSH1 0x40 CALLDATASIZE PUSH1 0x3 NOT ADD SLT PUSH2 0x121 JUMPI PUSH1 0x4 CALLDATALOAD PUSH1 0x24 CALLDATALOAD DUP2 ISZERO PUSH2 0x5CA JUMPI DUP1 ISZERO PUSH2 0x5CA JUMPI PUSH32 0x44C435ACF955178E071765BDA720417309BF98339B85A9B1D917DEDD9895A186 SWAP1 CALLER PUSH0 MSTORE PUSH1 0x6 PUSH1 0x20 MSTORE DUP3 PUSH1 0x40 PUSH0 KECCAK256 SLOAD CALLER PUSH0 MSTORE PUSH1 0x5 PUSH1 0x20 MSTORE PUSH1 0x40 PUSH0 KECCAK256 SLOAD DUP2 ISZERO PUSH0 EQ PUSH2 0x594 JUMPI POP POP POP DUP1 JUMPDEST CALLER PUSH0 MSTORE PUSH1 0x6 PUSH1 0x20 MSTORE PUSH1 0x40 PUSH0 KECCAK256 PUSH2 0x55D DUP6 DUP3 SLOAD PUSH2 0xACA JUMP JUMPDEST SWAP1 SSTORE CALLER PUSH0 MSTORE PUSH1 0x5 PUSH1 0x20 MSTORE DUP2 PUSH1 0x40 PUSH0 KECCAK256 SSTORE PUSH2 0x58F PUSH1 0x40 MLOAD SWAP3 DUP4 SWAP3 CALLER SWAP7 DUP5 PUSH1 0x40 SWAP2 SWAP5 SWAP4 SWAP3 PUSH1 0x60 DUP3 ADD SWAP6 DUP3 MSTORE PUSH1 0x20 DUP3 ADD MSTORE ADD MSTORE JUMP JUMPDEST SUB SWAP1 LOG2 STOP JUMPDEST PUSH2 0x5C4 SWAP3 PUSH2 0x5B8 PUSH2 0x5A8 DUP5 PUSH2 0x5BE SWAP5 PUSH2 0xA99 JUMP JUMPDEST PUSH2 0x5B2 DUP4 DUP9 PUSH2 0xA99 JUMP JUMPDEST SWAP1 PUSH2 0xACA JUMP JUMPDEST SWAP3 PUSH2 0xACA JUMP JUMPDEST SWAP1 PUSH2 0xAAC JUMP JUMPDEST SWAP1 PUSH2 0x546 JUMP JUMPDEST PUSH4 0x1F2A2005 PUSH1 0xE0 SHL PUSH0 MSTORE PUSH1 0x4 PUSH0 REVERT JUMPDEST CALLVALUE PUSH2 0x121 JUMPI PUSH1 0x20 CALLDATASIZE PUSH1 0x3 NOT ADD SLT PUSH2 0x121 JUMPI PUSH1 0x1 PUSH1 0x1 PUSH1 0xA0 SHL SUB PUSH2 0x5FA PUSH2 0xA40 JUMP JUMPDEST AND PUSH0 MSTORE PUSH1 0x6 PUSH1 0x20 MSTORE PUSH1 0x20 PUSH1 0x40 PUSH0 KECCAK256 SLOAD PUSH1 0x40 MLOAD SWAP1 DUP2 MSTORE RETURN JUMPDEST CALLVALUE PUSH2 0x121 JUMPI PUSH0 CALLDATASIZE PUSH1 0x3 NOT ADD SLT PUSH2 0x121 JUMPI PUSH1 0x20 PUSH1 0xFF PUSH1 0x2 SLOAD PUSH1 0xA0 SHR AND PUSH1 0x40 MLOAD SWAP1 ISZERO ISZERO DUP2 MSTORE RETURN JUMPDEST CALLVALUE PUSH2 0x121 JUMPI PUSH0 CALLDATASIZE PUSH1 0x3 NOT ADD SLT PUSH2 0x121 JUMPI PUSH1 0x2 SLOAD PUSH1 0x40 MLOAD PUSH1 0x1 PUSH1 0x1 PUSH1 0xA0 SHL SUB SWAP1 SWAP2 AND DUP2 MSTORE PUSH1 0x20 SWAP1 RETURN JUMPDEST CALLVALUE PUSH2 0x121 JUMPI PUSH0 CALLDATASIZE PUSH1 0x3 NOT ADD SLT PUSH2 0x121 JUMPI PUSH1 0x20 PUSH1 0x4 SLOAD PUSH1 0x40 MLOAD SWAP1 DUP2 MSTORE RETURN JUMPDEST CALLVALUE PUSH2 0x121 JUMPI PUSH0 CALLDATASIZE PUSH1 0x3 NOT ADD SLT PUSH2 0x121 JUMPI PUSH1 0x20 SELFBALANCE PUSH1 0x40 MLOAD SWAP1 DUP2 MSTORE RETURN JUMPDEST CALLVALUE PUSH2 0x121 JUMPI PUSH1 0xC0 CALLDATASIZE PUSH1 0x3 NOT ADD SLT PUSH2 0x121 JUMPI PUSH1 0x4 CALLDATALOAD PUSH1 0x24 CALLDATALOAD PUSH1 0x44 CALLDATALOAD PUSH1 0x64 CALLDATALOAD PUSH1 0xFF DUP2 AND DUP1 SWAP2 SUB PUSH2 0x121 JUMPI PUSH2 0x6C6 PUSH2 0xC19 JUMP JUMPDEST DUP4 ISZERO PUSH2 0x5CA JUMPI DUP2 TIMESTAMP GT PUSH2 0xA31 JUMPI CALLER PUSH0 MSTORE PUSH1 0x5 PUSH1 0x20 MSTORE PUSH1 0x40 PUSH0 KECCAK256 SLOAD ISZERO PUSH2 0xA22 JUMPI CALLER PUSH0 MSTORE PUSH1 0x6 PUSH1 0x20 MSTORE DUP4 PUSH1 0x40 PUSH0 KECCAK256 SLOAD LT PUSH2 0xA13 JUMPI PUSH1 0x80 PUSH0 SWAP2 PUSH1 0x20 SWAP4 CALLER DUP5 MSTORE PUSH1 0x7 DUP6 MSTORE PUSH1 0x40 DUP5 KECCAK256 SLOAD SWAP1 PUSH1 0x40 MLOAD SWAP1 DUP7 DUP3 ADD SWAP3 PUSH16 0x2137BA3A37B6A83937BA32B1BA34B7B7 PUSH1 0x81 SHL DUP5 MSTORE CHAINID PUSH1 0x30 DUP5 ADD MSTORE ADDRESS PUSH1 0x60 SHL PUSH1 0x50 DUP5 ADD MSTORE DUP9 PUSH1 0x64 DUP5 ADD MSTORE PUSH1 0x84 DUP4 ADD MSTORE PUSH1 0xA4 DUP3 ADD MSTORE PUSH1 0xA4 DUP2 MSTORE PUSH2 0x758 PUSH1 0xC4 DUP3 PUSH2 0xA56 JUMP JUMPDEST MLOAD SWAP1 KECCAK256 PUSH1 0x40 MLOAD DUP6 DUP2 ADD SWAP2 PUSH32 0x19457468657265756D205369676E6564204D6573736167653A0A333200000000 DUP4 MSTORE PUSH1 0x3C DUP3 ADD MSTORE PUSH1 0x3C DUP2 MSTORE PUSH2 0x799 PUSH1 0x5C DUP3 PUSH2 0xA56 JUMP JUMPDEST MLOAD SWAP1 KECCAK256 SWAP1 PUSH1 0x40 MLOAD SWAP2 DUP3 MSTORE DUP5 DUP3 ADD MSTORE PUSH1 0x84 CALLDATALOAD PUSH1 0x40 DUP3 ADD MSTORE PUSH1 0xA4 CALLDATALOAD PUSH1 0x60 DUP3 ADD MSTORE DUP3 DUP1 MSTORE PUSH1 0x1 GAS STATICCALL ISZERO PUSH2 0x96D JUMPI PUSH0 MLOAD PUSH1 0x1 PUSH1 0x1 PUSH1 0xA0 SHL SUB AND DUP1 ISZERO SWAP1 DUP2 ISZERO PUSH2 0x9FD JUMPI JUMPDEST POP PUSH2 0x9EE JUMPI CALLER PUSH0 MSTORE PUSH1 0x7 PUSH1 0x20 MSTORE PUSH1 0x40 PUSH0 KECCAK256 DUP1 SLOAD PUSH0 NOT DUP2 EQ PUSH2 0x9CB JUMPI PUSH1 0x1 ADD SWAP1 SSTORE CALLER PUSH0 MSTORE PUSH1 0x5 PUSH1 0x20 MSTORE PUSH1 0x40 PUSH0 KECCAK256 SLOAD DUP2 ISZERO DUP1 ISZERO PUSH2 0x9DF JUMPI JUMPDEST ISZERO PUSH2 0x987 JUMPI PUSH2 0x2710 JUMPDEST PUSH2 0x820 DUP2 PUSH2 0xC51 JUMP JUMPDEST SWAP2 DUP3 ISZERO PUSH2 0x978 JUMPI PUSH2 0x847 DUP4 PUSH8 0xDE0B6B3A7640000 PUSH2 0x841 PUSH2 0x2710 SWAP5 DUP10 PUSH2 0xA99 JUMP JUMPDEST DIV PUSH2 0xA99 JUMP JUMPDEST DIV SWAP3 DUP4 ISZERO PUSH2 0x5CA JUMPI DUP4 SELFBALANCE LT PUSH2 0x24A JUMPI CALLER PUSH0 MSTORE PUSH1 0x6 PUSH1 0x20 MSTORE PUSH1 0x40 PUSH0 KECCAK256 PUSH2 0x86D DUP7 DUP3 SLOAD PUSH2 0xA8C JUMP JUMPDEST SWAP1 SSTORE PUSH2 0x87B DUP5 PUSH1 0x4 SLOAD PUSH2 0xACA JUMP JUMPDEST PUSH1 0x4 SSTORE PUSH0 PUSH1 0x20 PUSH1 0x1 DUP1 PUSH1 0xA0 SHL SUB PUSH1 0x1 SLOAD AND PUSH1 0x64 PUSH1 0x40 MLOAD DUP1 SWAP5 DUP2 SWAP4 PUSH4 0x23B872DD PUSH1 0xE0 SHL DUP4 MSTORE CALLER PUSH1 0x4 DUP5 ADD MSTORE PUSH2 0xDEAD PUSH1 0x24 DUP5 ADD MSTORE DUP12 PUSH1 0x44 DUP5 ADD MSTORE GAS CALL SWAP1 DUP2 ISZERO PUSH2 0x96D JUMPI PUSH0 SWAP2 PUSH2 0x932 JUMPI JUMPDEST POP ISZERO PUSH2 0x23B JUMPI PUSH0 DUP1 DUP1 DUP1 DUP8 CALLER GAS CALL PUSH2 0x8D9 PUSH2 0xAD7 JUMP JUMPDEST POP ISZERO PUSH2 0x23B JUMPI PUSH1 0x40 MLOAD SWAP5 DUP6 MSTORE PUSH1 0x20 DUP6 ADD MSTORE PUSH1 0x40 DUP5 ADD MSTORE PUSH1 0x60 DUP4 ADD MSTORE PUSH1 0x80 DUP3 ADD MSTORE PUSH32 0x9018AAEDAAFCF3A655B4C0E4A7C39BAD2F98F367EF23F57B6D9062057DB7547 PUSH1 0xA0 CALLER SWAP3 LOG2 PUSH1 0x1 PUSH0 MLOAD PUSH1 0x20 PUSH2 0xCE0 PUSH0 CODECOPY PUSH0 MLOAD SWAP1 PUSH0 MSTORE SSTORE STOP JUMPDEST SWAP1 POP PUSH1 0x20 DUP2 RETURNDATASIZE PUSH1 0x20 GT PUSH2 0x965 JUMPI JUMPDEST DUP2 PUSH2 0x94D PUSH1 0x20 SWAP4 DUP4 PUSH2 0xA56 JUMP JUMPDEST DUP2 ADD SUB SLT PUSH2 0x121 JUMPI MLOAD DUP1 ISZERO ISZERO DUP2 SUB PUSH2 0x121 JUMPI DUP7 PUSH2 0x8C3 JUMP JUMPDEST RETURNDATASIZE SWAP2 POP PUSH2 0x940 JUMP JUMPDEST PUSH1 0x40 MLOAD RETURNDATASIZE PUSH0 DUP3 RETURNDATACOPY RETURNDATASIZE SWAP1 REVERT JUMPDEST PUSH4 0xEF681065 PUSH1 0xE0 SHL PUSH0 MSTORE PUSH1 0x4 PUSH0 REVERT JUMPDEST DUP1 DUP3 LT PUSH2 0x99D JUMPI PUSH4 0xEF681065 PUSH1 0xE0 SHL PUSH0 MSTORE PUSH1 0x4 PUSH0 REVERT JUMPDEST PUSH2 0x9A7 DUP3 DUP3 PUSH2 0xA8C JUMP JUMPDEST PUSH2 0x2710 DUP2 MUL SWAP1 DUP1 DUP3 DIV PUSH2 0x2710 EQ SWAP1 ISZERO OR ISZERO PUSH2 0x9CB JUMPI DUP2 PUSH2 0x9C6 SWAP2 PUSH2 0xAAC JUMP JUMPDEST PUSH2 0x817 JUMP JUMPDEST PUSH4 0x4E487B71 PUSH1 0xE0 SHL PUSH0 MSTORE PUSH1 0x11 PUSH1 0x4 MSTORE PUSH1 0x24 PUSH0 REVERT JUMPDEST POP PUSH1 0xFF PUSH1 0x2 SLOAD PUSH1 0xA0 SHR AND PUSH2 0x80E JUMP JUMPDEST PUSH4 0x8BAA579F PUSH1 0xE0 SHL PUSH0 MSTORE PUSH1 0x4 PUSH0 REVERT JUMPDEST PUSH1 0x2 SLOAD PUSH1 0x1 PUSH1 0x1 PUSH1 0xA0 SHL SUB AND EQ ISZERO SWAP1 POP DUP4 PUSH2 0x7D8 JUMP JUMPDEST PUSH4 0x6E881593 PUSH1 0xE1 SHL PUSH0 MSTORE PUSH1 0x4 PUSH0 REVERT JUMPDEST PUSH4 0x26CF11BD PUSH1 0xE0 SHL PUSH0 MSTORE PUSH1 0x4 PUSH0 REVERT JUMPDEST PUSH4 0x819BDCD PUSH1 0xE0 SHL PUSH0 MSTORE PUSH1 0x4 PUSH0 REVERT JUMPDEST PUSH1 0x4 CALLDATALOAD SWAP1 PUSH1 0x1 PUSH1 0x1 PUSH1 0xA0 SHL SUB DUP3 AND DUP3 SUB PUSH2 0x121 JUMPI JUMP JUMPDEST SWAP1 PUSH1 0x1F DUP1 NOT SWAP2 ADD AND DUP2 ADD SWAP1 DUP2 LT PUSH8 0xFFFFFFFFFFFFFFFF DUP3 GT OR PUSH2 0xA78 JUMPI PUSH1 0x40 MSTORE JUMP JUMPDEST PUSH4 0x4E487B71 PUSH1 0xE0 SHL PUSH0 MSTORE PUSH1 0x41 PUSH1 0x4 MSTORE PUSH1 0x24 PUSH0 REVERT JUMPDEST SWAP2 SWAP1 DUP3 SUB SWAP2 DUP3 GT PUSH2 0x9CB JUMPI JUMP JUMPDEST DUP2 DUP2 MUL SWAP3 SWAP2 DUP2 ISZERO SWAP2 DUP5 DIV EQ OR ISZERO PUSH2 0x9CB JUMPI JUMP JUMPDEST DUP2 ISZERO PUSH2 0xAB6 JUMPI DIV SWAP1 JUMP JUMPDEST PUSH4 0x4E487B71 PUSH1 0xE0 SHL PUSH0 MSTORE PUSH1 0x12 PUSH1 0x4 MSTORE PUSH1 0x24 PUSH0 REVERT JUMPDEST SWAP2 SWAP1 DUP3 ADD DUP1 SWAP3 GT PUSH2 0x9CB JUMPI JUMP JUMPDEST RETURNDATASIZE ISZERO PUSH2 0xB11 JUMPI RETURNDATASIZE SWAP1 PUSH8 0xFFFFFFFFFFFFFFFF DUP3 GT PUSH2 0xA78 JUMPI PUSH1 0x40 MLOAD SWAP2 PUSH2 0xB06 PUSH1 0x1F DUP3 ADD PUSH1 0x1F NOT AND PUSH1 0x20 ADD DUP5 PUSH2 0xA56 JUMP JUMPDEST DUP3 MSTORE RETURNDATASIZE PUSH0 PUSH1 0x20 DUP5 ADD RETURNDATACOPY JUMP JUMPDEST PUSH1 0x60 SWAP1 JUMP JUMPDEST PUSH2 0xB22 CALLVALUE PUSH1 0x3 SLOAD PUSH2 0xACA JUMP JUMPDEST PUSH1 0x3 SSTORE PUSH32 0x562FF1D6FEE77720385C79D29BEF3C90C5A796B161826766D09A972BDA104A3C PUSH1 0x20 PUSH1 0x40 MLOAD CALLVALUE DUP2 MSTORE LOG1 JUMP JUMPDEST PUSH1 0x1 PUSH1 0x1 PUSH1 0xA0 SHL SUB AND PUSH0 SWAP1 DUP2 MSTORE PUSH1 0x5 PUSH1 0x20 MSTORE PUSH1 0x40 SWAP1 KECCAK256 SLOAD SWAP1 SWAP2 DUP2 ISZERO DUP1 ISZERO PUSH2 0xC11 JUMPI JUMPDEST PUSH2 0xC06 JUMPI DUP1 ISZERO DUP1 ISZERO PUSH2 0xBF7 JUMPI JUMPDEST ISZERO PUSH2 0xBB0 JUMPI POP PUSH2 0x2710 PUSH2 0xBAC DUP2 SWAP4 JUMPDEST PUSH8 0xDE0B6B3A7640000 PUSH2 0x841 PUSH2 0xBA4 DUP8 PUSH2 0xC51 JUMP JUMPDEST SWAP6 DUP7 SWAP4 PUSH2 0xA99 JUMP JUMPDEST DIV SWAP3 JUMP JUMPDEST DUP2 DUP2 LT PUSH2 0xBC2 JUMPI POP POP POP PUSH0 SWAP1 PUSH0 SWAP1 PUSH0 SWAP1 JUMP JUMPDEST PUSH2 0xBCC SWAP1 DUP3 PUSH2 0xA8C JUMP JUMPDEST PUSH2 0x2710 DUP2 MUL SWAP1 DUP1 DUP3 DIV PUSH2 0x2710 EQ SWAP1 ISZERO OR ISZERO PUSH2 0x9CB JUMPI PUSH2 0xBAC PUSH2 0xBF1 DUP4 PUSH2 0x2710 SWAP4 PUSH2 0xAAC JUMP JUMPDEST SWAP4 PUSH2 0xB8F JUMP JUMPDEST POP PUSH1 0xFF PUSH1 0x2 SLOAD PUSH1 0xA0 SHR AND PUSH2 0xB80 JUMP JUMPDEST POP POP POP PUSH0 SWAP1 PUSH0 SWAP1 PUSH0 SWAP1 JUMP JUMPDEST POP DUP3 ISZERO PUSH2 0xB73 JUMP JUMPDEST PUSH1 0x2 PUSH0 MLOAD PUSH1 0x20 PUSH2 0xCE0 PUSH0 CODECOPY PUSH0 MLOAD SWAP1 PUSH0 MSTORE SLOAD EQ PUSH2 0xC42 JUMPI PUSH1 0x2 PUSH0 MLOAD PUSH1 0x20 PUSH2 0xCE0 PUSH0 CODECOPY PUSH0 MLOAD SWAP1 PUSH0 MSTORE SSTORE JUMP JUMPDEST PUSH4 0x3EE5AEB5 PUSH1 0xE0 SHL PUSH0 MSTORE PUSH1 0x4 PUSH0 REVERT JUMPDEST PUSH2 0x2710 DUP2 LT ISZERO PUSH2 0xCB2 JUMPI PUSH2 0x2328 DUP2 LT ISZERO PUSH2 0xCAB JUMPI PUSH2 0x1F40 DUP2 LT ISZERO PUSH2 0xCA4 JUMPI PUSH2 0x1B58 DUP2 LT ISZERO PUSH2 0xC9D JUMPI PUSH2 0x1770 DUP2 LT ISZERO PUSH2 0xC96 JUMPI PUSH2 0x1388 GT ISZERO PUSH2 0xC90 JUMPI PUSH0 SWAP1 JUMP JUMPDEST PUSH2 0xBB8 SWAP1 JUMP JUMPDEST POP PUSH2 0x1388 SWAP1 JUMP JUMPDEST POP PUSH2 0x1770 SWAP1 JUMP JUMPDEST POP PUSH2 0x1B58 SWAP1 JUMP JUMPDEST POP PUSH2 0x1F40 SWAP1 JUMP JUMPDEST POP PUSH2 0x2710 SWAP1 JUMP JUMPDEST PUSH0 SLOAD PUSH1 0x1 PUSH1 0x1 PUSH1 0xA0 SHL SUB AND CALLER SUB PUSH2 0xCCC JUMPI JUMP JUMPDEST PUSH4 0x118CDAA7 PUSH1 0xE0 SHL PUSH0 MSTORE CALLER PUSH1 0x4 MSTORE PUSH1 0x24 PUSH0 REVERT INVALID SWAP12 PUSH24 0x9B17422D0DF92223018B32B4D1FA46E071723D6817E2486D STOP EXTCODESIZE 0xEC 0xC5 PUSH0 STOP LOG2 PUSH5 0x6970667358 0x22 SLT KECCAK256 0xC1 PC 0xF CALLCODE PUSH0 PUSH14 0x788E0D025069848D42B5B6D83D01 0xB5 DELEGATECALL 0xC4 EXTCODECOPY 0xE4 0xE0 0x4E SWAP5 PUSH7 0xF783DA64736F6C PUSH4 0x4300081C STOP CALLER "},"methodIdentifiers":{"BURN_ADDRESS()":"fccc2813","cnova()":"b4185af0","emergencyWithdraw()":"db2e21bc","emergencyZero()":"23cbf298","estimatedPayout(address,uint256,uint256)":"baec51e5","nonces(address)":"7ecebe00","notifyReward()":"5d54bda4","owner()":"8da5cb5b","protectedBalance(address)":"3dc1a23b","recordPurchase(uint256,uint256)":"4da6eb23","redeem(uint256,uint256,uint256,uint8,bytes32,bytes32)":"00df21fe","renounceOwnership()":"715018a6","setEmergencyZero(bool)":"822780a9","setSigner(address)":"6c19e783","signer()":"238ac933","totalPaidOut()":"1357e1dc","totalReceived()":"a3c2c462","transferOwnership(address)":"f2fde38b","vaultBalance()":"0bf6cc08","weightedBuyPrice(address)":"859b1e75"}}}}}