{"contracts/CNovaBridge.sol":{"CNovaBridge":{"abi":[{"inputs":[{"internalType":"address","name":"initialOwner","type":"address"},{"internalType":"address","name":"initialValidator","type":"address"},{"internalType":"uint256","name":"initialFlatFeeWei","type":"uint256"}],"stateMutability":"nonpayable","type":"constructor"},{"inputs":[],"name":"ECDSAInvalidSignature","type":"error"},{"inputs":[{"internalType":"uint256","name":"length","type":"uint256"}],"name":"ECDSAInvalidSignatureLength","type":"error"},{"inputs":[{"internalType":"bytes32","name":"s","type":"bytes32"}],"name":"ECDSAInvalidSignatureS","type":"error"},{"inputs":[],"name":"InsufficientFee","type":"error"},{"inputs":[],"name":"InvalidSignature","type":"error"},{"inputs":[],"name":"InvalidValidator","type":"error"},{"inputs":[{"internalType":"address","name":"owner","type":"address"}],"name":"OwnableInvalidOwner","type":"error"},{"inputs":[{"internalType":"address","name":"account","type":"address"}],"name":"OwnableUnauthorizedAccount","type":"error"},{"inputs":[],"name":"RouteNotActive","type":"error"},{"inputs":[{"internalType":"address","name":"token","type":"address"}],"name":"SafeERC20FailedOperation","type":"error"},{"inputs":[],"name":"TransferAlreadyProcessed","type":"error"},{"inputs":[],"name":"ZeroAmount","type":"error"},{"anonymous":false,"inputs":[{"indexed":true,"internalType":"bytes32","name":"transferId","type":"bytes32"},{"indexed":true,"internalType":"address","name":"recipient","type":"address"},{"indexed":false,"internalType":"address","name":"localToken","type":"address"},{"indexed":false,"internalType":"uint256","name":"amount","type":"uint256"}],"name":"BridgeTransferCompleted","type":"event"},{"anonymous":false,"inputs":[{"indexed":true,"internalType":"bytes32","name":"transferId","type":"bytes32"},{"indexed":true,"internalType":"address","name":"sender","type":"address"},{"indexed":false,"internalType":"address","name":"localToken","type":"address"},{"indexed":false,"internalType":"uint256","name":"amount","type":"uint256"},{"indexed":false,"internalType":"uint256","name":"targetChainId","type":"uint256"},{"indexed":false,"internalType":"bytes32","name":"recipientBytes32","type":"bytes32"}],"name":"BridgeTransferInitiated","type":"event"},{"anonymous":false,"inputs":[{"indexed":false,"internalType":"uint256","name":"oldFee","type":"uint256"},{"indexed":false,"internalType":"uint256","name":"newFee","type":"uint256"}],"name":"FlatFeeUpdated","type":"event"},{"anonymous":false,"inputs":[{"indexed":true,"internalType":"address","name":"previousOwner","type":"address"},{"indexed":true,"internalType":"address","name":"newOwner","type":"address"}],"name":"OwnershipTransferred","type":"event"},{"anonymous":false,"inputs":[{"indexed":true,"internalType":"address","name":"localToken","type":"address"},{"indexed":true,"internalType":"address","name":"remoteToken","type":"address"},{"indexed":false,"internalType":"bool","name":"wrapped","type":"bool"}],"name":"TokenRouteConfigured","type":"event"},{"anonymous":false,"inputs":[{"indexed":true,"internalType":"address","name":"oldValidator","type":"address"},{"indexed":true,"internalType":"address","name":"newValidator","type":"address"}],"name":"ValidatorUpdated","type":"event"},{"inputs":[{"internalType":"address","name":"localToken","type":"address"},{"internalType":"uint256","name":"amount","type":"uint256"},{"internalType":"uint256","name":"targetChainId","type":"uint256"},{"internalType":"bytes32","name":"recipientBytes32","type":"bytes32"}],"name":"bridgeOut","outputs":[{"internalType":"bytes32","name":"transferId","type":"bytes32"}],"stateMutability":"payable","type":"function"},{"inputs":[{"internalType":"bytes","name":"message","type":"bytes"},{"internalType":"bytes","name":"validatorSignature","type":"bytes"}],"name":"completeTransfer","outputs":[],"stateMutability":"nonpayable","type":"function"},{"inputs":[{"internalType":"address","name":"localToken","type":"address"},{"internalType":"address","name":"remoteToken","type":"address"},{"internalType":"bool","name":"wrapped","type":"bool"}],"name":"configureRoute","outputs":[],"stateMutability":"nonpayable","type":"function"},{"inputs":[],"name":"flatFeeWei","outputs":[{"internalType":"uint256","name":"","type":"uint256"}],"stateMutability":"view","type":"function"},{"inputs":[],"name":"nonce","outputs":[{"internalType":"uint256","name":"","type":"uint256"}],"stateMutability":"view","type":"function"},{"inputs":[],"name":"owner","outputs":[{"internalType":"address","name":"","type":"address"}],"stateMutability":"view","type":"function"},{"inputs":[{"internalType":"bytes32","name":"","type":"bytes32"}],"name":"processedTransfers","outputs":[{"internalType":"bool","name":"","type":"bool"}],"stateMutability":"view","type":"function"},{"inputs":[],"name":"renounceOwnership","outputs":[],"stateMutability":"nonpayable","type":"function"},{"inputs":[{"internalType":"uint256","name":"newFee","type":"uint256"}],"name":"setFlatFee","outputs":[],"stateMutability":"nonpayable","type":"function"},{"inputs":[{"internalType":"address","name":"newValidator","type":"address"}],"name":"setValidator","outputs":[],"stateMutability":"nonpayable","type":"function"},{"inputs":[{"internalType":"address","name":"","type":"address"}],"name":"tokenRoutes","outputs":[{"internalType":"address","name":"remoteToken","type":"address"},{"internalType":"bool","name":"wrapped","type":"bool"},{"internalType":"bool","name":"active","type":"bool"}],"stateMutability":"view","type":"function"},{"inputs":[{"internalType":"address","name":"newOwner","type":"address"}],"name":"transferOwnership","outputs":[],"stateMutability":"nonpayable","type":"function"},{"inputs":[],"name":"validator","outputs":[{"internalType":"address","name":"","type":"address"}],"stateMutability":"view","type":"function"},{"inputs":[{"internalType":"address payable","name":"to","type":"address"}],"name":"withdrawFees","outputs":[],"stateMutability":"nonpayable","type":"function"},{"stateMutability":"payable","type":"receive"}],"evm":{"bytecode":{"linkReferences":{},"object":"6080346100f357601f610e0c38819003918201601f19168301916001600160401b038311848410176100f7578084926060946040528339810103126100f3576100478161010b565b60406100556020840161010b565b9201516001600160a01b039091169182156100e0575f80546001600160a01b031981168517825560405194916001600160a01b03909116907f8be0079c531659141344cd1fd0a4f28419497f9722a3daafe3b4186f6b6457e09080a3600180546001600160a01b0319166001600160a01b0392909216919091179055600255610cec90816101208239f35b631e4fbdf760e01b5f525f60045260245ffd5b5f80fd5b634e487b7160e01b5f52604160045260245ffd5b51906001600160a01b03821682036100f35756fe6080604052600436101561001a575b3615610018575f80fd5b005b5f5f3560e01c80631327d3d8146109e3578063164e68de1461094057806323fa495a146108ed5780633a5381b5146108c55780633ff3537e146107e4578063489f945c146107895780636cb0e1e114610484578063715018a61461042a5780637c85cb10146101d95780638da5cb5b146101b2578063affed0e014610194578063b78e6f8c14610176578063dd910d75146101475763f2fde38b146100bf575061000e565b34610144576020366003190112610144576100d8610a64565b6100e0610b60565b6001600160a01b031680156101305781546001600160a01b03198116821783556001600160a01b03167f8be0079c531659141344cd1fd0a4f28419497f9722a3daafe3b4186f6b6457e08380a380f35b631e4fbdf760e01b82526004829052602482fd5b80fd5b50346101445760203660031901126101445760ff60406020926004358152600584522054166040519015158152f35b50346101445780600319360112610144576020600254604051908152f35b50346101445780600319360112610144576020600354604051908152f35b5034610144578060031936011261014457546040516001600160a01b039091168152602090f35b506080366003190112610144576101ee610a64565b602435606435604435821561041b57600254341061040d576001600160a01b038416808652600460205260408087209051959194919061022d87610abc565b549560018060a01b038716815260ff6020820197818160a01c161515895260a81c161590604082159101526103fe576003545f1981146103ea57600181016003556040519060208201924684523360601b60408401526bffffffffffffffffffffffff199060601b1660548301528360688301528460888301528560a883015260c882015260c881526102c160e882610aec565b51902094511561036d57833b1561035e57604051632b45a57f60e11b815233600482015260248101829052868160448183895af1801561036257610349575b50602095505b6040519384528584015260408301526060820152817f3af028e05d8683a7429fca9e87ecfe92a505ec3f5824ecf6bc242dfb31abecc760803393a3604051908152f35b610354878092610aec565b61035e5785610300565b8580fd5b6040513d89823e3d90fd5b946040516323b872dd60e01b825233600452306024528660445260208260648180895af19060018351148216156103c8575b60405281606052156103b45750602094610306565b635274afe760e01b81526004849052602490fd5b9060018115166103e057853b15153d1516169061039f565b50903d90823e3d90fd5b634e487b7160e01b88526011600452602488fd5b6337164df960e01b8752600487fd5b62976f7560e21b8552600485fd5b631f2a200560e01b8552600485fd5b5034610144578060031936011261014457610443610b60565b80546001600160a01b03198116825581906001600160a01b03167f8be0079c531659141344cd1fd0a4f28419497f9722a3daafe3b4186f6b6457e08280a380f35b50346106c85760403660031901126106c85760043567ffffffffffffffff81116106c8576104b6903690600401610a8e565b60243567ffffffffffffffff81116106c8576104d6903690600401610a8e565b909160808482810103126106c8578335926104f360208601610a7a565b9160408601359361050660608801610a7a565b5f878152600560205260409020546001600160a01b0391821698919095169460ff1661077a5761058a9361054261057b92610581953691610b2a565b602081519101207f19457468657265756d205369676e6564204d6573736167653a0a3332000000005f52601c52603c5f20923691610b2a565b90610b86565b90929192610bc0565b6001546001600160a01b0390811691160361076b57825f52600560205260405f20600160ff19825416179055805f52600460205260405f20604051906105cf82610abc565b549060018060a01b038216815260ff6020820192818160a01c161515845260a81c1615906040821591015261075c5751156106cc57803b156106c8576040516340c10f1960e01b81526001600160a01b0385166004820152602481018390525f8160448183865af180156106bd57610685575b50907fb4a4c3569544b9905374e12d1867e1b0165ebe41ad0f91890a70e6b8402c339d915b604080516001600160a01b039290921682526020820192909252a380f35b7fb4a4c3569544b9905374e12d1867e1b0165ebe41ad0f91890a70e6b8402c339d929195505f6106b491610aec565b5f949091610642565b6040513d5f823e3d90fd5b5f80fd5b60405163a9059cbb60e01b5f52846004528260245260205f60448180865af19060015f511482161561073b575b6040521561072957907fb4a4c3569544b9905374e12d1867e1b0165ebe41ad0f91890a70e6b8402c339d91610667565b635274afe760e01b5f5260045260245ffd5b90600181151661075357823b15153d151616906106f9565b503d5f823e3d90fd5b6337164df960e01b5f5260045ffd5b638baa579f60e01b5f5260045ffd5b63247ff34560e01b5f5260045ffd5b346106c85760203660031901126106c8576001600160a01b036107aa610a64565b165f526004602052606060405f205460ff6040519160018060a01b0381168352818160a01c161515602084015260a81c1615156040820152f35b346106c85760603660031901126106c8576107fd610a64565b6024356001600160a01b03811691908290036106c8576044358015158091036106c85760207faddb78524cfa1ac9aacc790b12b601fc995b5eb2646ab03ea1b3e0e2cc9070f09161084c610b60565b60405161085881610abc565b858152828101828152600160408084019182526001600160a01b039788165f8181526004885282902094518554945193516001600160b01b031990951699169890981791151560a01b60ff60a01b169190911791151560a81b60ff60a81b169190911790915551908152a3005b346106c8575f3660031901126106c8576001546040516001600160a01b039091168152602090f35b346106c85760203660031901126106c857600435610909610b60565b7f957f8e165512616cc1b935b3ba999a8a0870b6e18300af633ba488f7926bce2d60406002548151908152836020820152a1600255005b346106c85760203660031901126106c8575f80808061095d610a64565b610965610b60565b47906001600160a01b03165af13d156109de573d61098281610b0e565b906109906040519283610aec565b81525f60203d92013e5b156109a157005b60405162461bcd60e51b8152602060048201526015602482015274119959481dda5d1a191c985dd85b0819985a5b1959605a1b6044820152606490fd5b61099a565b346106c85760203660031901126106c8576109fc610a64565b610a04610b60565b6001600160a01b03168015610a5557600154816001600160a01b0382167fcfac5dc75b8d9a7e074162f59d9adcd33da59f0fe8dfb21580db298fc0fdad0d5f80a36001600160a01b03191617600155005b631a0a9b9f60e21b5f5260045ffd5b600435906001600160a01b03821682036106c857565b35906001600160a01b03821682036106c857565b9181601f840112156106c85782359167ffffffffffffffff83116106c857602083818601950101116106c857565b6060810190811067ffffffffffffffff821117610ad857604052565b634e487b7160e01b5f52604160045260245ffd5b90601f8019910116810190811067ffffffffffffffff821117610ad857604052565b67ffffffffffffffff8111610ad857601f01601f191660200190565b929192610b3682610b0e565b91610b446040519384610aec565b8294818452818301116106c8578281602093845f960137010152565b5f546001600160a01b03163303610b7357565b63118cdaa760e01b5f523360045260245ffd5b8151919060418303610bb657610baf9250602082015190606060408401519301515f1a90610c34565b9192909190565b50505f9160029190565b6004811015610c205780610bd2575050565b60018103610be95763f645eedf60e01b5f5260045ffd5b60028103610c04575063fce698f760e01b5f5260045260245ffd5b600314610c0e5750565b6335e2f38360e21b5f5260045260245ffd5b634e487b7160e01b5f52602160045260245ffd5b91907f7fffffffffffffffffffffffffffffff5d576e7357a4501ddfe92f46681b20a08411610cab579160209360809260ff5f9560405194855216868401526040830152606082015282805260015afa156106bd575f516001600160a01b03811615610ca157905f905f90565b505f906001905f90565b5050505f916003919056fea264697066735822122010153502f38b1d20042e025a661f0dbd2204dc2bf756b726dcd569029f98ce5964736f6c634300081c0033","opcodes":"PUSH1 0x80 CALLVALUE PUSH2 0xF3 JUMPI PUSH1 0x1F PUSH2 0xE0C CODESIZE DUP2 SWAP1 SUB SWAP2 DUP3 ADD PUSH1 0x1F NOT AND DUP4 ADD SWAP2 PUSH1 0x1 PUSH1 0x1 PUSH1 0x40 SHL SUB DUP4 GT DUP5 DUP5 LT OR PUSH2 0xF7 JUMPI DUP1 DUP5 SWAP3 PUSH1 0x60 SWAP5 PUSH1 0x40 MSTORE DUP4 CODECOPY DUP2 ADD SUB SLT PUSH2 0xF3 JUMPI PUSH2 0x47 DUP2 PUSH2 0x10B JUMP JUMPDEST PUSH1 0x40 PUSH2 0x55 PUSH1 0x20 DUP5 ADD PUSH2 0x10B JUMP JUMPDEST SWAP3 ADD MLOAD PUSH1 0x1 PUSH1 0x1 PUSH1 0xA0 SHL SUB SWAP1 SWAP2 AND SWAP2 DUP3 ISZERO PUSH2 0xE0 JUMPI PUSH0 DUP1 SLOAD PUSH1 0x1 PUSH1 0x1 PUSH1 0xA0 SHL SUB NOT DUP2 AND DUP6 OR DUP3 SSTORE PUSH1 0x40 MLOAD SWAP5 SWAP2 PUSH1 0x1 PUSH1 0x1 PUSH1 0xA0 SHL SUB SWAP1 SWAP2 AND SWAP1 PUSH32 0x8BE0079C531659141344CD1FD0A4F28419497F9722A3DAAFE3B4186F6B6457E0 SWAP1 DUP1 LOG3 PUSH1 0x1 DUP1 SLOAD PUSH1 0x1 PUSH1 0x1 PUSH1 0xA0 SHL SUB NOT AND PUSH1 0x1 PUSH1 0x1 PUSH1 0xA0 SHL SUB SWAP3 SWAP1 SWAP3 AND SWAP2 SWAP1 SWAP2 OR SWAP1 SSTORE PUSH1 0x2 SSTORE PUSH2 0xCEC SWAP1 DUP2 PUSH2 0x120 DUP3 CODECOPY RETURN JUMPDEST PUSH4 0x1E4FBDF7 PUSH1 0xE0 SHL PUSH0 MSTORE PUSH0 PUSH1 0x4 MSTORE PUSH1 0x24 PUSH0 REVERT JUMPDEST PUSH0 DUP1 REVERT JUMPDEST PUSH4 0x4E487B71 PUSH1 0xE0 SHL PUSH0 MSTORE PUSH1 0x41 PUSH1 0x4 MSTORE PUSH1 0x24 PUSH0 REVERT JUMPDEST MLOAD SWAP1 PUSH1 0x1 PUSH1 0x1 PUSH1 0xA0 SHL SUB DUP3 AND DUP3 SUB PUSH2 0xF3 JUMPI JUMP INVALID PUSH1 0x80 PUSH1 0x40 MSTORE PUSH1 0x4 CALLDATASIZE LT ISZERO PUSH2 0x1A JUMPI JUMPDEST CALLDATASIZE ISZERO PUSH2 0x18 JUMPI PUSH0 DUP1 REVERT JUMPDEST STOP JUMPDEST PUSH0 PUSH0 CALLDATALOAD PUSH1 0xE0 SHR DUP1 PUSH4 0x1327D3D8 EQ PUSH2 0x9E3 JUMPI DUP1 PUSH4 0x164E68DE EQ PUSH2 0x940 JUMPI DUP1 PUSH4 0x23FA495A EQ PUSH2 0x8ED JUMPI DUP1 PUSH4 0x3A5381B5 EQ PUSH2 0x8C5 JUMPI DUP1 PUSH4 0x3FF3537E EQ PUSH2 0x7E4 JUMPI DUP1 PUSH4 0x489F945C EQ PUSH2 0x789 JUMPI DUP1 PUSH4 0x6CB0E1E1 EQ PUSH2 0x484 JUMPI DUP1 PUSH4 0x715018A6 EQ PUSH2 0x42A JUMPI DUP1 PUSH4 0x7C85CB10 EQ PUSH2 0x1D9 JUMPI DUP1 PUSH4 0x8DA5CB5B EQ PUSH2 0x1B2 JUMPI DUP1 PUSH4 0xAFFED0E0 EQ PUSH2 0x194 JUMPI DUP1 PUSH4 0xB78E6F8C EQ PUSH2 0x176 JUMPI DUP1 PUSH4 0xDD910D75 EQ PUSH2 0x147 JUMPI PUSH4 0xF2FDE38B EQ PUSH2 0xBF JUMPI POP PUSH2 0xE JUMP JUMPDEST CALLVALUE PUSH2 0x144 JUMPI PUSH1 0x20 CALLDATASIZE PUSH1 0x3 NOT ADD SLT PUSH2 0x144 JUMPI PUSH2 0xD8 PUSH2 0xA64 JUMP JUMPDEST PUSH2 0xE0 PUSH2 0xB60 JUMP JUMPDEST PUSH1 0x1 PUSH1 0x1 PUSH1 0xA0 SHL SUB AND DUP1 ISZERO PUSH2 0x130 JUMPI DUP2 SLOAD PUSH1 0x1 PUSH1 0x1 PUSH1 0xA0 SHL SUB NOT DUP2 AND DUP3 OR DUP4 SSTORE PUSH1 0x1 PUSH1 0x1 PUSH1 0xA0 SHL SUB AND PUSH32 0x8BE0079C531659141344CD1FD0A4F28419497F9722A3DAAFE3B4186F6B6457E0 DUP4 DUP1 LOG3 DUP1 RETURN JUMPDEST PUSH4 0x1E4FBDF7 PUSH1 0xE0 SHL DUP3 MSTORE PUSH1 0x4 DUP3 SWAP1 MSTORE PUSH1 0x24 DUP3 REVERT JUMPDEST DUP1 REVERT JUMPDEST POP CALLVALUE PUSH2 0x144 JUMPI PUSH1 0x20 CALLDATASIZE PUSH1 0x3 NOT ADD SLT PUSH2 0x144 JUMPI PUSH1 0xFF PUSH1 0x40 PUSH1 0x20 SWAP3 PUSH1 0x4 CALLDATALOAD DUP2 MSTORE PUSH1 0x5 DUP5 MSTORE KECCAK256 SLOAD AND PUSH1 0x40 MLOAD SWAP1 ISZERO ISZERO DUP2 MSTORE RETURN JUMPDEST POP CALLVALUE PUSH2 0x144 JUMPI DUP1 PUSH1 0x3 NOT CALLDATASIZE ADD SLT PUSH2 0x144 JUMPI PUSH1 0x20 PUSH1 0x2 SLOAD PUSH1 0x40 MLOAD SWAP1 DUP2 MSTORE RETURN JUMPDEST POP CALLVALUE PUSH2 0x144 JUMPI DUP1 PUSH1 0x3 NOT CALLDATASIZE ADD SLT PUSH2 0x144 JUMPI PUSH1 0x20 PUSH1 0x3 SLOAD PUSH1 0x40 MLOAD SWAP1 DUP2 MSTORE RETURN JUMPDEST POP CALLVALUE PUSH2 0x144 JUMPI DUP1 PUSH1 0x3 NOT CALLDATASIZE ADD SLT PUSH2 0x144 JUMPI SLOAD PUSH1 0x40 MLOAD PUSH1 0x1 PUSH1 0x1 PUSH1 0xA0 SHL SUB SWAP1 SWAP2 AND DUP2 MSTORE PUSH1 0x20 SWAP1 RETURN JUMPDEST POP PUSH1 0x80 CALLDATASIZE PUSH1 0x3 NOT ADD SLT PUSH2 0x144 JUMPI PUSH2 0x1EE PUSH2 0xA64 JUMP JUMPDEST PUSH1 0x24 CALLDATALOAD PUSH1 0x64 CALLDATALOAD PUSH1 0x44 CALLDATALOAD DUP3 ISZERO PUSH2 0x41B JUMPI PUSH1 0x2 SLOAD CALLVALUE LT PUSH2 0x40D JUMPI PUSH1 0x1 PUSH1 0x1 PUSH1 0xA0 SHL SUB DUP5 AND DUP1 DUP7 MSTORE PUSH1 0x4 PUSH1 0x20 MSTORE PUSH1 0x40 DUP1 DUP8 KECCAK256 SWAP1 MLOAD SWAP6 SWAP2 SWAP5 SWAP2 SWAP1 PUSH2 0x22D DUP8 PUSH2 0xABC JUMP JUMPDEST SLOAD SWAP6 PUSH1 0x1 DUP1 PUSH1 0xA0 SHL SUB DUP8 AND DUP2 MSTORE PUSH1 0xFF PUSH1 0x20 DUP3 ADD SWAP8 DUP2 DUP2 PUSH1 0xA0 SHR AND ISZERO ISZERO DUP10 MSTORE PUSH1 0xA8 SHR AND ISZERO SWAP1 PUSH1 0x40 DUP3 ISZERO SWAP2 ADD MSTORE PUSH2 0x3FE JUMPI PUSH1 0x3 SLOAD PUSH0 NOT DUP2 EQ PUSH2 0x3EA JUMPI PUSH1 0x1 DUP2 ADD PUSH1 0x3 SSTORE PUSH1 0x40 MLOAD SWAP1 PUSH1 0x20 DUP3 ADD SWAP3 CHAINID DUP5 MSTORE CALLER PUSH1 0x60 SHL PUSH1 0x40 DUP5 ADD MSTORE PUSH12 0xFFFFFFFFFFFFFFFFFFFFFFFF NOT SWAP1 PUSH1 0x60 SHL AND PUSH1 0x54 DUP4 ADD MSTORE DUP4 PUSH1 0x68 DUP4 ADD MSTORE DUP5 PUSH1 0x88 DUP4 ADD MSTORE DUP6 PUSH1 0xA8 DUP4 ADD MSTORE PUSH1 0xC8 DUP3 ADD MSTORE PUSH1 0xC8 DUP2 MSTORE PUSH2 0x2C1 PUSH1 0xE8 DUP3 PUSH2 0xAEC JUMP JUMPDEST MLOAD SWAP1 KECCAK256 SWAP5 MLOAD ISZERO PUSH2 0x36D JUMPI DUP4 EXTCODESIZE ISZERO PUSH2 0x35E JUMPI PUSH1 0x40 MLOAD PUSH4 0x2B45A57F PUSH1 0xE1 SHL DUP2 MSTORE CALLER PUSH1 0x4 DUP3 ADD MSTORE PUSH1 0x24 DUP2 ADD DUP3 SWAP1 MSTORE DUP7 DUP2 PUSH1 0x44 DUP2 DUP4 DUP10 GAS CALL DUP1 ISZERO PUSH2 0x362 JUMPI PUSH2 0x349 JUMPI JUMPDEST POP PUSH1 0x20 SWAP6 POP JUMPDEST PUSH1 0x40 MLOAD SWAP4 DUP5 MSTORE DUP6 DUP5 ADD MSTORE PUSH1 0x40 DUP4 ADD MSTORE PUSH1 0x60 DUP3 ADD MSTORE DUP2 PUSH32 0x3AF028E05D8683A7429FCA9E87ECFE92A505EC3F5824ECF6BC242DFB31ABECC7 PUSH1 0x80 CALLER SWAP4 LOG3 PUSH1 0x40 MLOAD SWAP1 DUP2 MSTORE RETURN JUMPDEST PUSH2 0x354 DUP8 DUP1 SWAP3 PUSH2 0xAEC JUMP JUMPDEST PUSH2 0x35E JUMPI DUP6 PUSH2 0x300 JUMP JUMPDEST DUP6 DUP1 REVERT JUMPDEST PUSH1 0x40 MLOAD RETURNDATASIZE DUP10 DUP3 RETURNDATACOPY RETURNDATASIZE SWAP1 REVERT JUMPDEST SWAP5 PUSH1 0x40 MLOAD PUSH4 0x23B872DD PUSH1 0xE0 SHL DUP3 MSTORE CALLER PUSH1 0x4 MSTORE ADDRESS PUSH1 0x24 MSTORE DUP7 PUSH1 0x44 MSTORE PUSH1 0x20 DUP3 PUSH1 0x64 DUP2 DUP1 DUP10 GAS CALL SWAP1 PUSH1 0x1 DUP4 MLOAD EQ DUP3 AND ISZERO PUSH2 0x3C8 JUMPI JUMPDEST PUSH1 0x40 MSTORE DUP2 PUSH1 0x60 MSTORE ISZERO PUSH2 0x3B4 JUMPI POP PUSH1 0x20 SWAP5 PUSH2 0x306 JUMP JUMPDEST PUSH4 0x5274AFE7 PUSH1 0xE0 SHL DUP2 MSTORE PUSH1 0x4 DUP5 SWAP1 MSTORE PUSH1 0x24 SWAP1 REVERT JUMPDEST SWAP1 PUSH1 0x1 DUP2 ISZERO AND PUSH2 0x3E0 JUMPI DUP6 EXTCODESIZE ISZERO ISZERO RETURNDATASIZE ISZERO AND AND SWAP1 PUSH2 0x39F JUMP JUMPDEST POP SWAP1 RETURNDATASIZE SWAP1 DUP3 RETURNDATACOPY RETURNDATASIZE SWAP1 REVERT JUMPDEST PUSH4 0x4E487B71 PUSH1 0xE0 SHL DUP9 MSTORE PUSH1 0x11 PUSH1 0x4 MSTORE PUSH1 0x24 DUP9 REVERT JUMPDEST PUSH4 0x37164DF9 PUSH1 0xE0 SHL DUP8 MSTORE PUSH1 0x4 DUP8 REVERT JUMPDEST PUSH3 0x976F75 PUSH1 0xE2 SHL DUP6 MSTORE PUSH1 0x4 DUP6 REVERT JUMPDEST PUSH4 0x1F2A2005 PUSH1 0xE0 SHL DUP6 MSTORE PUSH1 0x4 DUP6 REVERT JUMPDEST POP CALLVALUE PUSH2 0x144 JUMPI DUP1 PUSH1 0x3 NOT CALLDATASIZE ADD SLT PUSH2 0x144 JUMPI PUSH2 0x443 PUSH2 0xB60 JUMP JUMPDEST DUP1 SLOAD PUSH1 0x1 PUSH1 0x1 PUSH1 0xA0 SHL SUB NOT DUP2 AND DUP3 SSTORE DUP2 SWAP1 PUSH1 0x1 PUSH1 0x1 PUSH1 0xA0 SHL SUB AND PUSH32 0x8BE0079C531659141344CD1FD0A4F28419497F9722A3DAAFE3B4186F6B6457E0 DUP3 DUP1 LOG3 DUP1 RETURN JUMPDEST POP CALLVALUE PUSH2 0x6C8 JUMPI PUSH1 0x40 CALLDATASIZE PUSH1 0x3 NOT ADD SLT PUSH2 0x6C8 JUMPI PUSH1 0x4 CALLDATALOAD PUSH8 0xFFFFFFFFFFFFFFFF DUP2 GT PUSH2 0x6C8 JUMPI PUSH2 0x4B6 SWAP1 CALLDATASIZE SWAP1 PUSH1 0x4 ADD PUSH2 0xA8E JUMP JUMPDEST PUSH1 0x24 CALLDATALOAD PUSH8 0xFFFFFFFFFFFFFFFF DUP2 GT PUSH2 0x6C8 JUMPI PUSH2 0x4D6 SWAP1 CALLDATASIZE SWAP1 PUSH1 0x4 ADD PUSH2 0xA8E JUMP JUMPDEST SWAP1 SWAP2 PUSH1 0x80 DUP5 DUP3 DUP2 ADD SUB SLT PUSH2 0x6C8 JUMPI DUP4 CALLDATALOAD SWAP3 PUSH2 0x4F3 PUSH1 0x20 DUP7 ADD PUSH2 0xA7A JUMP JUMPDEST SWAP2 PUSH1 0x40 DUP7 ADD CALLDATALOAD SWAP4 PUSH2 0x506 PUSH1 0x60 DUP9 ADD PUSH2 0xA7A JUMP JUMPDEST PUSH0 DUP8 DUP2 MSTORE PUSH1 0x5 PUSH1 0x20 MSTORE PUSH1 0x40 SWAP1 KECCAK256 SLOAD PUSH1 0x1 PUSH1 0x1 PUSH1 0xA0 SHL SUB SWAP2 DUP3 AND SWAP9 SWAP2 SWAP1 SWAP6 AND SWAP5 PUSH1 0xFF AND PUSH2 0x77A JUMPI PUSH2 0x58A SWAP4 PUSH2 0x542 PUSH2 0x57B SWAP3 PUSH2 0x581 SWAP6 CALLDATASIZE SWAP2 PUSH2 0xB2A JUMP JUMPDEST PUSH1 0x20 DUP2 MLOAD SWAP2 ADD KECCAK256 PUSH32 0x19457468657265756D205369676E6564204D6573736167653A0A333200000000 PUSH0 MSTORE PUSH1 0x1C MSTORE PUSH1 0x3C PUSH0 KECCAK256 SWAP3 CALLDATASIZE SWAP2 PUSH2 0xB2A JUMP JUMPDEST SWAP1 PUSH2 0xB86 JUMP JUMPDEST SWAP1 SWAP3 SWAP2 SWAP3 PUSH2 0xBC0 JUMP JUMPDEST PUSH1 0x1 SLOAD PUSH1 0x1 PUSH1 0x1 PUSH1 0xA0 SHL SUB SWAP1 DUP2 AND SWAP2 AND SUB PUSH2 0x76B JUMPI DUP3 PUSH0 MSTORE PUSH1 0x5 PUSH1 0x20 MSTORE PUSH1 0x40 PUSH0 KECCAK256 PUSH1 0x1 PUSH1 0xFF NOT DUP3 SLOAD AND OR SWAP1 SSTORE DUP1 PUSH0 MSTORE PUSH1 0x4 PUSH1 0x20 MSTORE PUSH1 0x40 PUSH0 KECCAK256 PUSH1 0x40 MLOAD SWAP1 PUSH2 0x5CF DUP3 PUSH2 0xABC JUMP JUMPDEST SLOAD SWAP1 PUSH1 0x1 DUP1 PUSH1 0xA0 SHL SUB DUP3 AND DUP2 MSTORE PUSH1 0xFF PUSH1 0x20 DUP3 ADD SWAP3 DUP2 DUP2 PUSH1 0xA0 SHR AND ISZERO ISZERO DUP5 MSTORE PUSH1 0xA8 SHR AND ISZERO SWAP1 PUSH1 0x40 DUP3 ISZERO SWAP2 ADD MSTORE PUSH2 0x75C JUMPI MLOAD ISZERO PUSH2 0x6CC JUMPI DUP1 EXTCODESIZE ISZERO PUSH2 0x6C8 JUMPI PUSH1 0x40 MLOAD PUSH4 0x40C10F19 PUSH1 0xE0 SHL DUP2 MSTORE PUSH1 0x1 PUSH1 0x1 PUSH1 0xA0 SHL SUB DUP6 AND PUSH1 0x4 DUP3 ADD MSTORE PUSH1 0x24 DUP2 ADD DUP4 SWAP1 MSTORE PUSH0 DUP2 PUSH1 0x44 DUP2 DUP4 DUP7 GAS CALL DUP1 ISZERO PUSH2 0x6BD JUMPI PUSH2 0x685 JUMPI JUMPDEST POP SWAP1 PUSH32 0xB4A4C3569544B9905374E12D1867E1B0165EBE41AD0F91890A70E6B8402C339D SWAP2 JUMPDEST PUSH1 0x40 DUP1 MLOAD PUSH1 0x1 PUSH1 0x1 PUSH1 0xA0 SHL SUB SWAP3 SWAP1 SWAP3 AND DUP3 MSTORE PUSH1 0x20 DUP3 ADD SWAP3 SWAP1 SWAP3 MSTORE LOG3 DUP1 RETURN JUMPDEST PUSH32 0xB4A4C3569544B9905374E12D1867E1B0165EBE41AD0F91890A70E6B8402C339D SWAP3 SWAP2 SWAP6 POP PUSH0 PUSH2 0x6B4 SWAP2 PUSH2 0xAEC JUMP JUMPDEST PUSH0 SWAP5 SWAP1 SWAP2 PUSH2 0x642 JUMP JUMPDEST PUSH1 0x40 MLOAD RETURNDATASIZE PUSH0 DUP3 RETURNDATACOPY RETURNDATASIZE SWAP1 REVERT JUMPDEST PUSH0 DUP1 REVERT JUMPDEST PUSH1 0x40 MLOAD PUSH4 0xA9059CBB PUSH1 0xE0 SHL PUSH0 MSTORE DUP5 PUSH1 0x4 MSTORE DUP3 PUSH1 0x24 MSTORE PUSH1 0x20 PUSH0 PUSH1 0x44 DUP2 DUP1 DUP7 GAS CALL SWAP1 PUSH1 0x1 PUSH0 MLOAD EQ DUP3 AND ISZERO PUSH2 0x73B JUMPI JUMPDEST PUSH1 0x40 MSTORE ISZERO PUSH2 0x729 JUMPI SWAP1 PUSH32 0xB4A4C3569544B9905374E12D1867E1B0165EBE41AD0F91890A70E6B8402C339D SWAP2 PUSH2 0x667 JUMP JUMPDEST PUSH4 0x5274AFE7 PUSH1 0xE0 SHL PUSH0 MSTORE PUSH1 0x4 MSTORE PUSH1 0x24 PUSH0 REVERT JUMPDEST SWAP1 PUSH1 0x1 DUP2 ISZERO AND PUSH2 0x753 JUMPI DUP3 EXTCODESIZE ISZERO ISZERO RETURNDATASIZE ISZERO AND AND SWAP1 PUSH2 0x6F9 JUMP JUMPDEST POP RETURNDATASIZE PUSH0 DUP3 RETURNDATACOPY RETURNDATASIZE SWAP1 REVERT JUMPDEST PUSH4 0x37164DF9 PUSH1 0xE0 SHL PUSH0 MSTORE PUSH1 0x4 PUSH0 REVERT JUMPDEST PUSH4 0x8BAA579F PUSH1 0xE0 SHL PUSH0 MSTORE PUSH1 0x4 PUSH0 REVERT JUMPDEST PUSH4 0x247FF345 PUSH1 0xE0 SHL PUSH0 MSTORE PUSH1 0x4 PUSH0 REVERT JUMPDEST CALLVALUE PUSH2 0x6C8 JUMPI PUSH1 0x20 CALLDATASIZE PUSH1 0x3 NOT ADD SLT PUSH2 0x6C8 JUMPI PUSH1 0x1 PUSH1 0x1 PUSH1 0xA0 SHL SUB PUSH2 0x7AA PUSH2 0xA64 JUMP JUMPDEST AND PUSH0 MSTORE PUSH1 0x4 PUSH1 0x20 MSTORE PUSH1 0x60 PUSH1 0x40 PUSH0 KECCAK256 SLOAD PUSH1 0xFF PUSH1 0x40 MLOAD SWAP2 PUSH1 0x1 DUP1 PUSH1 0xA0 SHL SUB DUP2 AND DUP4 MSTORE DUP2 DUP2 PUSH1 0xA0 SHR AND ISZERO ISZERO PUSH1 0x20 DUP5 ADD MSTORE PUSH1 0xA8 SHR AND ISZERO ISZERO PUSH1 0x40 DUP3 ADD MSTORE RETURN JUMPDEST CALLVALUE PUSH2 0x6C8 JUMPI PUSH1 0x60 CALLDATASIZE PUSH1 0x3 NOT ADD SLT PUSH2 0x6C8 JUMPI PUSH2 0x7FD PUSH2 0xA64 JUMP JUMPDEST PUSH1 0x24 CALLDATALOAD PUSH1 0x1 PUSH1 0x1 PUSH1 0xA0 SHL SUB DUP2 AND SWAP2 SWAP1 DUP3 SWAP1 SUB PUSH2 0x6C8 JUMPI PUSH1 0x44 CALLDATALOAD DUP1 ISZERO ISZERO DUP1 SWAP2 SUB PUSH2 0x6C8 JUMPI PUSH1 0x20 PUSH32 0xADDB78524CFA1AC9AACC790B12B601FC995B5EB2646AB03EA1B3E0E2CC9070F0 SWAP2 PUSH2 0x84C PUSH2 0xB60 JUMP JUMPDEST PUSH1 0x40 MLOAD PUSH2 0x858 DUP2 PUSH2 0xABC JUMP JUMPDEST DUP6 DUP2 MSTORE DUP3 DUP2 ADD DUP3 DUP2 MSTORE PUSH1 0x1 PUSH1 0x40 DUP1 DUP5 ADD SWAP2 DUP3 MSTORE PUSH1 0x1 PUSH1 0x1 PUSH1 0xA0 SHL SUB SWAP8 DUP9 AND PUSH0 DUP2 DUP2 MSTORE PUSH1 0x4 DUP9 MSTORE DUP3 SWAP1 KECCAK256 SWAP5 MLOAD DUP6 SLOAD SWAP5 MLOAD SWAP4 MLOAD PUSH1 0x1 PUSH1 0x1 PUSH1 0xB0 SHL SUB NOT SWAP1 SWAP6 AND SWAP10 AND SWAP9 SWAP1 SWAP9 OR SWAP2 ISZERO ISZERO PUSH1 0xA0 SHL PUSH1 0xFF PUSH1 0xA0 SHL AND SWAP2 SWAP1 SWAP2 OR SWAP2 ISZERO ISZERO PUSH1 0xA8 SHL PUSH1 0xFF PUSH1 0xA8 SHL AND SWAP2 SWAP1 SWAP2 OR SWAP1 SWAP2 SSTORE MLOAD SWAP1 DUP2 MSTORE LOG3 STOP JUMPDEST CALLVALUE PUSH2 0x6C8 JUMPI PUSH0 CALLDATASIZE PUSH1 0x3 NOT ADD SLT PUSH2 0x6C8 JUMPI PUSH1 0x1 SLOAD PUSH1 0x40 MLOAD PUSH1 0x1 PUSH1 0x1 PUSH1 0xA0 SHL SUB SWAP1 SWAP2 AND DUP2 MSTORE PUSH1 0x20 SWAP1 RETURN JUMPDEST CALLVALUE PUSH2 0x6C8 JUMPI PUSH1 0x20 CALLDATASIZE PUSH1 0x3 NOT ADD SLT PUSH2 0x6C8 JUMPI PUSH1 0x4 CALLDATALOAD PUSH2 0x909 PUSH2 0xB60 JUMP JUMPDEST PUSH32 0x957F8E165512616CC1B935B3BA999A8A0870B6E18300AF633BA488F7926BCE2D PUSH1 0x40 PUSH1 0x2 SLOAD DUP2 MLOAD SWAP1 DUP2 MSTORE DUP4 PUSH1 0x20 DUP3 ADD MSTORE LOG1 PUSH1 0x2 SSTORE STOP JUMPDEST CALLVALUE PUSH2 0x6C8 JUMPI PUSH1 0x20 CALLDATASIZE PUSH1 0x3 NOT ADD SLT PUSH2 0x6C8 JUMPI PUSH0 DUP1 DUP1 DUP1 PUSH2 0x95D PUSH2 0xA64 JUMP JUMPDEST PUSH2 0x965 PUSH2 0xB60 JUMP JUMPDEST SELFBALANCE SWAP1 PUSH1 0x1 PUSH1 0x1 PUSH1 0xA0 SHL SUB AND GAS CALL RETURNDATASIZE ISZERO PUSH2 0x9DE JUMPI RETURNDATASIZE PUSH2 0x982 DUP2 PUSH2 0xB0E JUMP JUMPDEST SWAP1 PUSH2 0x990 PUSH1 0x40 MLOAD SWAP3 DUP4 PUSH2 0xAEC JUMP JUMPDEST DUP2 MSTORE PUSH0 PUSH1 0x20 RETURNDATASIZE SWAP3 ADD RETURNDATACOPY JUMPDEST ISZERO PUSH2 0x9A1 JUMPI STOP JUMPDEST PUSH1 0x40 MLOAD PUSH3 0x461BCD PUSH1 0xE5 SHL DUP2 MSTORE PUSH1 0x20 PUSH1 0x4 DUP3 ADD MSTORE PUSH1 0x15 PUSH1 0x24 DUP3 ADD MSTORE PUSH21 0x119959481DDA5D1A191C985DD85B0819985A5B1959 PUSH1 0x5A SHL PUSH1 0x44 DUP3 ADD MSTORE PUSH1 0x64 SWAP1 REVERT JUMPDEST PUSH2 0x99A JUMP JUMPDEST CALLVALUE PUSH2 0x6C8 JUMPI PUSH1 0x20 CALLDATASIZE PUSH1 0x3 NOT ADD SLT PUSH2 0x6C8 JUMPI PUSH2 0x9FC PUSH2 0xA64 JUMP JUMPDEST PUSH2 0xA04 PUSH2 0xB60 JUMP JUMPDEST PUSH1 0x1 PUSH1 0x1 PUSH1 0xA0 SHL SUB AND DUP1 ISZERO PUSH2 0xA55 JUMPI PUSH1 0x1 SLOAD DUP2 PUSH1 0x1 PUSH1 0x1 PUSH1 0xA0 SHL SUB DUP3 AND PUSH32 0xCFAC5DC75B8D9A7E074162F59D9ADCD33DA59F0FE8DFB21580DB298FC0FDAD0D PUSH0 DUP1 LOG3 PUSH1 0x1 PUSH1 0x1 PUSH1 0xA0 SHL SUB NOT AND OR PUSH1 0x1 SSTORE STOP JUMPDEST PUSH4 0x1A0A9B9F PUSH1 0xE2 SHL PUSH0 MSTORE PUSH1 0x4 PUSH0 REVERT JUMPDEST PUSH1 0x4 CALLDATALOAD SWAP1 PUSH1 0x1 PUSH1 0x1 PUSH1 0xA0 SHL SUB DUP3 AND DUP3 SUB PUSH2 0x6C8 JUMPI JUMP JUMPDEST CALLDATALOAD SWAP1 PUSH1 0x1 PUSH1 0x1 PUSH1 0xA0 SHL SUB DUP3 AND DUP3 SUB PUSH2 0x6C8 JUMPI JUMP JUMPDEST SWAP2 DUP2 PUSH1 0x1F DUP5 ADD SLT ISZERO PUSH2 0x6C8 JUMPI DUP3 CALLDATALOAD SWAP2 PUSH8 0xFFFFFFFFFFFFFFFF DUP4 GT PUSH2 0x6C8 JUMPI PUSH1 0x20 DUP4 DUP2 DUP7 ADD SWAP6 ADD ADD GT PUSH2 0x6C8 JUMPI JUMP JUMPDEST PUSH1 0x60 DUP2 ADD SWAP1 DUP2 LT PUSH8 0xFFFFFFFFFFFFFFFF DUP3 GT OR PUSH2 0xAD8 JUMPI PUSH1 0x40 MSTORE JUMP JUMPDEST PUSH4 0x4E487B71 PUSH1 0xE0 SHL PUSH0 MSTORE PUSH1 0x41 PUSH1 0x4 MSTORE PUSH1 0x24 PUSH0 REVERT JUMPDEST SWAP1 PUSH1 0x1F DUP1 NOT SWAP2 ADD AND DUP2 ADD SWAP1 DUP2 LT PUSH8 0xFFFFFFFFFFFFFFFF DUP3 GT OR PUSH2 0xAD8 JUMPI PUSH1 0x40 MSTORE JUMP JUMPDEST PUSH8 0xFFFFFFFFFFFFFFFF DUP2 GT PUSH2 0xAD8 JUMPI PUSH1 0x1F ADD PUSH1 0x1F NOT AND PUSH1 0x20 ADD SWAP1 JUMP JUMPDEST SWAP3 SWAP2 SWAP3 PUSH2 0xB36 DUP3 PUSH2 0xB0E JUMP JUMPDEST SWAP2 PUSH2 0xB44 PUSH1 0x40 MLOAD SWAP4 DUP5 PUSH2 0xAEC JUMP JUMPDEST DUP3 SWAP5 DUP2 DUP5 MSTORE DUP2 DUP4 ADD GT PUSH2 0x6C8 JUMPI DUP3 DUP2 PUSH1 0x20 SWAP4 DUP5 PUSH0 SWAP7 ADD CALLDATACOPY ADD ADD MSTORE JUMP JUMPDEST PUSH0 SLOAD PUSH1 0x1 PUSH1 0x1 PUSH1 0xA0 SHL SUB AND CALLER SUB PUSH2 0xB73 JUMPI JUMP JUMPDEST PUSH4 0x118CDAA7 PUSH1 0xE0 SHL PUSH0 MSTORE CALLER PUSH1 0x4 MSTORE PUSH1 0x24 PUSH0 REVERT JUMPDEST DUP2 MLOAD SWAP2 SWAP1 PUSH1 0x41 DUP4 SUB PUSH2 0xBB6 JUMPI PUSH2 0xBAF SWAP3 POP PUSH1 0x20 DUP3 ADD MLOAD SWAP1 PUSH1 0x60 PUSH1 0x40 DUP5 ADD MLOAD SWAP4 ADD MLOAD PUSH0 BYTE SWAP1 PUSH2 0xC34 JUMP JUMPDEST SWAP2 SWAP3 SWAP1 SWAP2 SWAP1 JUMP JUMPDEST POP POP PUSH0 SWAP2 PUSH1 0x2 SWAP2 SWAP1 JUMP JUMPDEST PUSH1 0x4 DUP2 LT ISZERO PUSH2 0xC20 JUMPI DUP1 PUSH2 0xBD2 JUMPI POP POP JUMP JUMPDEST PUSH1 0x1 DUP2 SUB PUSH2 0xBE9 JUMPI PUSH4 0xF645EEDF PUSH1 0xE0 SHL PUSH0 MSTORE PUSH1 0x4 PUSH0 REVERT JUMPDEST PUSH1 0x2 DUP2 SUB PUSH2 0xC04 JUMPI POP PUSH4 0xFCE698F7 PUSH1 0xE0 SHL PUSH0 MSTORE PUSH1 0x4 MSTORE PUSH1 0x24 PUSH0 REVERT JUMPDEST PUSH1 0x3 EQ PUSH2 0xC0E JUMPI POP JUMP JUMPDEST PUSH4 0x35E2F383 PUSH1 0xE2 SHL PUSH0 MSTORE PUSH1 0x4 MSTORE PUSH1 0x24 PUSH0 REVERT JUMPDEST PUSH4 0x4E487B71 PUSH1 0xE0 SHL PUSH0 MSTORE PUSH1 0x21 PUSH1 0x4 MSTORE PUSH1 0x24 PUSH0 REVERT JUMPDEST SWAP2 SWAP1 PUSH32 0x7FFFFFFFFFFFFFFFFFFFFFFFFFFFFFFF5D576E7357A4501DDFE92F46681B20A0 DUP5 GT PUSH2 0xCAB JUMPI SWAP2 PUSH1 0x20 SWAP4 PUSH1 0x80 SWAP3 PUSH1 0xFF PUSH0 SWAP6 PUSH1 0x40 MLOAD SWAP5 DUP6 MSTORE AND DUP7 DUP5 ADD MSTORE PUSH1 0x40 DUP4 ADD MSTORE PUSH1 0x60 DUP3 ADD MSTORE DUP3 DUP1 MSTORE PUSH1 0x1 GAS STATICCALL ISZERO PUSH2 0x6BD JUMPI PUSH0 MLOAD PUSH1 0x1 PUSH1 0x1 PUSH1 0xA0 SHL SUB DUP2 AND ISZERO PUSH2 0xCA1 JUMPI SWAP1 PUSH0 SWAP1 PUSH0 SWAP1 JUMP JUMPDEST POP PUSH0 SWAP1 PUSH1 0x1 SWAP1 PUSH0 SWAP1 JUMP JUMPDEST POP POP POP PUSH0 SWAP2 PUSH1 0x3 SWAP2 SWAP1 JUMP INVALID LOG2 PUSH5 0x6970667358 0x22 SLT KECCAK256 LT ISZERO CALLDATALOAD MUL RETURN DUP12 SAR KECCAK256 DIV 0x2E MUL GAS PUSH7 0x1F0DBD2204DC2B 0xF7 JUMP 0xB7 0x26 0xDC 0xD5 PUSH10 0x29F98CE5964736F6C63 NUMBER STOP ADDMOD SHR STOP CALLER "},"methodIdentifiers":{"bridgeOut(address,uint256,uint256,bytes32)":"7c85cb10","completeTransfer(bytes,bytes)":"6cb0e1e1","configureRoute(address,address,bool)":"3ff3537e","flatFeeWei()":"b78e6f8c","nonce()":"affed0e0","owner()":"8da5cb5b","processedTransfers(bytes32)":"dd910d75","renounceOwnership()":"715018a6","setFlatFee(uint256)":"23fa495a","setValidator(address)":"1327d3d8","tokenRoutes(address)":"489f945c","transferOwnership(address)":"f2fde38b","validator()":"3a5381b5","withdrawFees(address)":"164e68de"}}}}}