{
  "_format": "hh-sol-artifact-1",
  "contractName": "CNovaBridge",
  "sourceName": "contracts/CNovaBridge.sol",
  "abi": [
    {
      "inputs": [
        {
          "internalType": "address",
          "name": "initialOwner",
          "type": "address"
        },
        {
          "internalType": "address",
          "name": "initialValidator",
          "type": "address"
        },
        {
          "internalType": "uint256",
          "name": "initialFlatFeeWei",
          "type": "uint256"
        }
      ],
      "stateMutability": "nonpayable",
      "type": "constructor"
    },
    {
      "inputs": [],
      "name": "ECDSAInvalidSignature",
      "type": "error"
    },
    {
      "inputs": [
        {
          "internalType": "uint256",
          "name": "length",
          "type": "uint256"
        }
      ],
      "name": "ECDSAInvalidSignatureLength",
      "type": "error"
    },
    {
      "inputs": [
        {
          "internalType": "bytes32",
          "name": "s",
          "type": "bytes32"
        }
      ],
      "name": "ECDSAInvalidSignatureS",
      "type": "error"
    },
    {
      "inputs": [],
      "name": "InsufficientFee",
      "type": "error"
    },
    {
      "inputs": [],
      "name": "InvalidSignature",
      "type": "error"
    },
    {
      "inputs": [],
      "name": "InvalidValidator",
      "type": "error"
    },
    {
      "inputs": [
        {
          "internalType": "address",
          "name": "owner",
          "type": "address"
        }
      ],
      "name": "OwnableInvalidOwner",
      "type": "error"
    },
    {
      "inputs": [
        {
          "internalType": "address",
          "name": "account",
          "type": "address"
        }
      ],
      "name": "OwnableUnauthorizedAccount",
      "type": "error"
    },
    {
      "inputs": [],
      "name": "RouteNotActive",
      "type": "error"
    },
    {
      "inputs": [
        {
          "internalType": "address",
          "name": "token",
          "type": "address"
        }
      ],
      "name": "SafeERC20FailedOperation",
      "type": "error"
    },
    {
      "inputs": [],
      "name": "TransferAlreadyProcessed",
      "type": "error"
    },
    {
      "inputs": [],
      "name": "ZeroAmount",
      "type": "error"
    },
    {
      "anonymous": false,
      "inputs": [
        {
          "indexed": true,
          "internalType": "bytes32",
          "name": "transferId",
          "type": "bytes32"
        },
        {
          "indexed": true,
          "internalType": "address",
          "name": "recipient",
          "type": "address"
        },
        {
          "indexed": false,
          "internalType": "address",
          "name": "localToken",
          "type": "address"
        },
        {
          "indexed": false,
          "internalType": "uint256",
          "name": "amount",
          "type": "uint256"
        }
      ],
      "name": "BridgeTransferCompleted",
      "type": "event"
    },
    {
      "anonymous": false,
      "inputs": [
        {
          "indexed": true,
          "internalType": "bytes32",
          "name": "transferId",
          "type": "bytes32"
        },
        {
          "indexed": true,
          "internalType": "address",
          "name": "sender",
          "type": "address"
        },
        {
          "indexed": false,
          "internalType": "address",
          "name": "localToken",
          "type": "address"
        },
        {
          "indexed": false,
          "internalType": "uint256",
          "name": "amount",
          "type": "uint256"
        },
        {
          "indexed": false,
          "internalType": "uint256",
          "name": "targetChainId",
          "type": "uint256"
        },
        {
          "indexed": false,
          "internalType": "bytes32",
          "name": "recipientBytes32",
          "type": "bytes32"
        }
      ],
      "name": "BridgeTransferInitiated",
      "type": "event"
    },
    {
      "anonymous": false,
      "inputs": [
        {
          "indexed": false,
          "internalType": "uint256",
          "name": "oldFee",
          "type": "uint256"
        },
        {
          "indexed": false,
          "internalType": "uint256",
          "name": "newFee",
          "type": "uint256"
        }
      ],
      "name": "FlatFeeUpdated",
      "type": "event"
    },
    {
      "anonymous": false,
      "inputs": [
        {
          "indexed": true,
          "internalType": "address",
          "name": "previousOwner",
          "type": "address"
        },
        {
          "indexed": true,
          "internalType": "address",
          "name": "newOwner",
          "type": "address"
        }
      ],
      "name": "OwnershipTransferred",
      "type": "event"
    },
    {
      "anonymous": false,
      "inputs": [
        {
          "indexed": true,
          "internalType": "address",
          "name": "localToken",
          "type": "address"
        },
        {
          "indexed": true,
          "internalType": "address",
          "name": "remoteToken",
          "type": "address"
        },
        {
          "indexed": false,
          "internalType": "bool",
          "name": "wrapped",
          "type": "bool"
        }
      ],
      "name": "TokenRouteConfigured",
      "type": "event"
    },
    {
      "anonymous": false,
      "inputs": [
        {
          "indexed": true,
          "internalType": "address",
          "name": "oldValidator",
          "type": "address"
        },
        {
          "indexed": true,
          "internalType": "address",
          "name": "newValidator",
          "type": "address"
        }
      ],
      "name": "ValidatorUpdated",
      "type": "event"
    },
    {
      "inputs": [
        {
          "internalType": "address",
          "name": "localToken",
          "type": "address"
        },
        {
          "internalType": "uint256",
          "name": "amount",
          "type": "uint256"
        },
        {
          "internalType": "uint256",
          "name": "targetChainId",
          "type": "uint256"
        },
        {
          "internalType": "bytes32",
          "name": "recipientBytes32",
          "type": "bytes32"
        }
      ],
      "name": "bridgeOut",
      "outputs": [
        {
          "internalType": "bytes32",
          "name": "transferId",
          "type": "bytes32"
        }
      ],
      "stateMutability": "payable",
      "type": "function"
    },
    {
      "inputs": [
        {
          "internalType": "bytes",
          "name": "message",
          "type": "bytes"
        },
        {
          "internalType": "bytes",
          "name": "validatorSignature",
          "type": "bytes"
        }
      ],
      "name": "completeTransfer",
      "outputs": [],
      "stateMutability": "nonpayable",
      "type": "function"
    },
    {
      "inputs": [
        {
          "internalType": "address",
          "name": "localToken",
          "type": "address"
        },
        {
          "internalType": "address",
          "name": "remoteToken",
          "type": "address"
        },
        {
          "internalType": "bool",
          "name": "wrapped",
          "type": "bool"
        }
      ],
      "name": "configureRoute",
      "outputs": [],
      "stateMutability": "nonpayable",
      "type": "function"
    },
    {
      "inputs": [],
      "name": "flatFeeWei",
      "outputs": [
        {
          "internalType": "uint256",
          "name": "",
          "type": "uint256"
        }
      ],
      "stateMutability": "view",
      "type": "function"
    },
    {
      "inputs": [],
      "name": "nonce",
      "outputs": [
        {
          "internalType": "uint256",
          "name": "",
          "type": "uint256"
        }
      ],
      "stateMutability": "view",
      "type": "function"
    },
    {
      "inputs": [],
      "name": "owner",
      "outputs": [
        {
          "internalType": "address",
          "name": "",
          "type": "address"
        }
      ],
      "stateMutability": "view",
      "type": "function"
    },
    {
      "inputs": [
        {
          "internalType": "bytes32",
          "name": "",
          "type": "bytes32"
        }
      ],
      "name": "processedTransfers",
      "outputs": [
        {
          "internalType": "bool",
          "name": "",
          "type": "bool"
        }
      ],
      "stateMutability": "view",
      "type": "function"
    },
    {
      "inputs": [],
      "name": "renounceOwnership",
      "outputs": [],
      "stateMutability": "nonpayable",
      "type": "function"
    },
    {
      "inputs": [
        {
          "internalType": "uint256",
          "name": "newFee",
          "type": "uint256"
        }
      ],
      "name": "setFlatFee",
      "outputs": [],
      "stateMutability": "nonpayable",
      "type": "function"
    },
    {
      "inputs": [
        {
          "internalType": "address",
          "name": "newValidator",
          "type": "address"
        }
      ],
      "name": "setValidator",
      "outputs": [],
      "stateMutability": "nonpayable",
      "type": "function"
    },
    {
      "inputs": [
        {
          "internalType": "address",
          "name": "",
          "type": "address"
        }
      ],
      "name": "tokenRoutes",
      "outputs": [
        {
          "internalType": "address",
          "name": "remoteToken",
          "type": "address"
        },
        {
          "internalType": "bool",
          "name": "wrapped",
          "type": "bool"
        },
        {
          "internalType": "bool",
          "name": "active",
          "type": "bool"
        }
      ],
      "stateMutability": "view",
      "type": "function"
    },
    {
      "inputs": [
        {
          "internalType": "address",
          "name": "newOwner",
          "type": "address"
        }
      ],
      "name": "transferOwnership",
      "outputs": [],
      "stateMutability": "nonpayable",
      "type": "function"
    },
    {
      "inputs": [],
      "name": "validator",
      "outputs": [
        {
          "internalType": "address",
          "name": "",
          "type": "address"
        }
      ],
      "stateMutability": "view",
      "type": "function"
    },
    {
      "inputs": [
        {
          "internalType": "address payable",
          "name": "to",
          "type": "address"
        }
      ],
      "name": "withdrawFees",
      "outputs": [],
      "stateMutability": "nonpayable",
      "type": "function"
    },
    {
      "stateMutability": "payable",
      "type": "receive"
    }
  ],
  "bytecode": "0x6080346100f357601f610e0c38819003918201601f19168301916001600160401b038311848410176100f7578084926060946040528339810103126100f3576100478161010b565b60406100556020840161010b565b9201516001600160a01b039091169182156100e0575f80546001600160a01b031981168517825560405194916001600160a01b03909116907f8be0079c531659141344cd1fd0a4f28419497f9722a3daafe3b4186f6b6457e09080a3600180546001600160a01b0319166001600160a01b0392909216919091179055600255610cec90816101208239f35b631e4fbdf760e01b5f525f60045260245ffd5b5f80fd5b634e487b7160e01b5f52604160045260245ffd5b51906001600160a01b03821682036100f35756fe6080604052600436101561001a575b3615610018575f80fd5b005b5f5f3560e01c80631327d3d8146109e3578063164e68de1461094057806323fa495a146108ed5780633a5381b5146108c55780633ff3537e146107e4578063489f945c146107895780636cb0e1e114610484578063715018a61461042a5780637c85cb10146101d95780638da5cb5b146101b2578063affed0e014610194578063b78e6f8c14610176578063dd910d75146101475763f2fde38b146100bf575061000e565b34610144576020366003190112610144576100d8610a64565b6100e0610b60565b6001600160a01b031680156101305781546001600160a01b03198116821783556001600160a01b03167f8be0079c531659141344cd1fd0a4f28419497f9722a3daafe3b4186f6b6457e08380a380f35b631e4fbdf760e01b82526004829052602482fd5b80fd5b50346101445760203660031901126101445760ff60406020926004358152600584522054166040519015158152f35b50346101445780600319360112610144576020600254604051908152f35b50346101445780600319360112610144576020600354604051908152f35b5034610144578060031936011261014457546040516001600160a01b039091168152602090f35b506080366003190112610144576101ee610a64565b602435606435604435821561041b57600254341061040d576001600160a01b038416808652600460205260408087209051959194919061022d87610abc565b549560018060a01b038716815260ff6020820197818160a01c161515895260a81c161590604082159101526103fe576003545f1981146103ea57600181016003556040519060208201924684523360601b60408401526bffffffffffffffffffffffff199060601b1660548301528360688301528460888301528560a883015260c882015260c881526102c160e882610aec565b51902094511561036d57833b1561035e57604051632b45a57f60e11b815233600482015260248101829052868160448183895af1801561036257610349575b50602095505b6040519384528584015260408301526060820152817f3af028e05d8683a7429fca9e87ecfe92a505ec3f5824ecf6bc242dfb31abecc760803393a3604051908152f35b610354878092610aec565b61035e5785610300565b8580fd5b6040513d89823e3d90fd5b946040516323b872dd60e01b825233600452306024528660445260208260648180895af19060018351148216156103c8575b60405281606052156103b45750602094610306565b635274afe760e01b81526004849052602490fd5b9060018115166103e057853b15153d1516169061039f565b50903d90823e3d90fd5b634e487b7160e01b88526011600452602488fd5b6337164df960e01b8752600487fd5b62976f7560e21b8552600485fd5b631f2a200560e01b8552600485fd5b5034610144578060031936011261014457610443610b60565b80546001600160a01b03198116825581906001600160a01b03167f8be0079c531659141344cd1fd0a4f28419497f9722a3daafe3b4186f6b6457e08280a380f35b50346106c85760403660031901126106c85760043567ffffffffffffffff81116106c8576104b6903690600401610a8e565b60243567ffffffffffffffff81116106c8576104d6903690600401610a8e565b909160808482810103126106c8578335926104f360208601610a7a565b9160408601359361050660608801610a7a565b5f878152600560205260409020546001600160a01b0391821698919095169460ff1661077a5761058a9361054261057b92610581953691610b2a565b602081519101207f19457468657265756d205369676e6564204d6573736167653a0a3332000000005f52601c52603c5f20923691610b2a565b90610b86565b90929192610bc0565b6001546001600160a01b0390811691160361076b57825f52600560205260405f20600160ff19825416179055805f52600460205260405f20604051906105cf82610abc565b549060018060a01b038216815260ff6020820192818160a01c161515845260a81c1615906040821591015261075c5751156106cc57803b156106c8576040516340c10f1960e01b81526001600160a01b0385166004820152602481018390525f8160448183865af180156106bd57610685575b50907fb4a4c3569544b9905374e12d1867e1b0165ebe41ad0f91890a70e6b8402c339d915b604080516001600160a01b039290921682526020820192909252a380f35b7fb4a4c3569544b9905374e12d1867e1b0165ebe41ad0f91890a70e6b8402c339d929195505f6106b491610aec565b5f949091610642565b6040513d5f823e3d90fd5b5f80fd5b60405163a9059cbb60e01b5f52846004528260245260205f60448180865af19060015f511482161561073b575b6040521561072957907fb4a4c3569544b9905374e12d1867e1b0165ebe41ad0f91890a70e6b8402c339d91610667565b635274afe760e01b5f5260045260245ffd5b90600181151661075357823b15153d151616906106f9565b503d5f823e3d90fd5b6337164df960e01b5f5260045ffd5b638baa579f60e01b5f5260045ffd5b63247ff34560e01b5f5260045ffd5b346106c85760203660031901126106c8576001600160a01b036107aa610a64565b165f526004602052606060405f205460ff6040519160018060a01b0381168352818160a01c161515602084015260a81c1615156040820152f35b346106c85760603660031901126106c8576107fd610a64565b6024356001600160a01b03811691908290036106c8576044358015158091036106c85760207faddb78524cfa1ac9aacc790b12b601fc995b5eb2646ab03ea1b3e0e2cc9070f09161084c610b60565b60405161085881610abc565b858152828101828152600160408084019182526001600160a01b039788165f8181526004885282902094518554945193516001600160b01b031990951699169890981791151560a01b60ff60a01b169190911791151560a81b60ff60a81b169190911790915551908152a3005b346106c8575f3660031901126106c8576001546040516001600160a01b039091168152602090f35b346106c85760203660031901126106c857600435610909610b60565b7f957f8e165512616cc1b935b3ba999a8a0870b6e18300af633ba488f7926bce2d60406002548151908152836020820152a1600255005b346106c85760203660031901126106c8575f80808061095d610a64565b610965610b60565b47906001600160a01b03165af13d156109de573d61098281610b0e565b906109906040519283610aec565b81525f60203d92013e5b156109a157005b60405162461bcd60e51b8152602060048201526015602482015274119959481dda5d1a191c985dd85b0819985a5b1959605a1b6044820152606490fd5b61099a565b346106c85760203660031901126106c8576109fc610a64565b610a04610b60565b6001600160a01b03168015610a5557600154816001600160a01b0382167fcfac5dc75b8d9a7e074162f59d9adcd33da59f0fe8dfb21580db298fc0fdad0d5f80a36001600160a01b03191617600155005b631a0a9b9f60e21b5f5260045ffd5b600435906001600160a01b03821682036106c857565b35906001600160a01b03821682036106c857565b9181601f840112156106c85782359167ffffffffffffffff83116106c857602083818601950101116106c857565b6060810190811067ffffffffffffffff821117610ad857604052565b634e487b7160e01b5f52604160045260245ffd5b90601f8019910116810190811067ffffffffffffffff821117610ad857604052565b67ffffffffffffffff8111610ad857601f01601f191660200190565b929192610b3682610b0e565b91610b446040519384610aec565b8294818452818301116106c8578281602093845f960137010152565b5f546001600160a01b03163303610b7357565b63118cdaa760e01b5f523360045260245ffd5b8151919060418303610bb657610baf9250602082015190606060408401519301515f1a90610c34565b9192909190565b50505f9160029190565b6004811015610c205780610bd2575050565b60018103610be95763f645eedf60e01b5f5260045ffd5b60028103610c04575063fce698f760e01b5f5260045260245ffd5b600314610c0e5750565b6335e2f38360e21b5f5260045260245ffd5b634e487b7160e01b5f52602160045260245ffd5b91907f7fffffffffffffffffffffffffffffff5d576e7357a4501ddfe92f46681b20a08411610cab579160209360809260ff5f9560405194855216868401526040830152606082015282805260015afa156106bd575f516001600160a01b03811615610ca157905f905f90565b505f906001905f90565b5050505f916003919056fea264697066735822122010153502f38b1d20042e025a661f0dbd2204dc2bf756b726dcd569029f98ce5964736f6c634300081c0033",
  "linkReferences": {},
  "deployedLinkReferences": {}
}