{
  "_format": "hh-sol-artifact-1",
  "contractName": "CNovaBridge",
  "sourceName": "contracts/CNovaBridge.sol",
  "abi": [
    {
      "inputs": [
        {
          "internalType": "address",
          "name": "initialOwner",
          "type": "address"
        },
        {
          "internalType": "address",
          "name": "initialValidator",
          "type": "address"
        },
        {
          "internalType": "uint256",
          "name": "initialFlatFeeWei",
          "type": "uint256"
        }
      ],
      "stateMutability": "nonpayable",
      "type": "constructor"
    },
    {
      "inputs": [],
      "name": "ECDSAInvalidSignature",
      "type": "error"
    },
    {
      "inputs": [
        {
          "internalType": "uint256",
          "name": "length",
          "type": "uint256"
        }
      ],
      "name": "ECDSAInvalidSignatureLength",
      "type": "error"
    },
    {
      "inputs": [
        {
          "internalType": "bytes32",
          "name": "s",
          "type": "bytes32"
        }
      ],
      "name": "ECDSAInvalidSignatureS",
      "type": "error"
    },
    {
      "inputs": [],
      "name": "InsufficientFee",
      "type": "error"
    },
    {
      "inputs": [],
      "name": "InvalidSignature",
      "type": "error"
    },
    {
      "inputs": [],
      "name": "InvalidValidator",
      "type": "error"
    },
    {
      "inputs": [
        {
          "internalType": "address",
          "name": "owner",
          "type": "address"
        }
      ],
      "name": "OwnableInvalidOwner",
      "type": "error"
    },
    {
      "inputs": [
        {
          "internalType": "address",
          "name": "account",
          "type": "address"
        }
      ],
      "name": "OwnableUnauthorizedAccount",
      "type": "error"
    },
    {
      "inputs": [],
      "name": "RouteNotActive",
      "type": "error"
    },
    {
      "inputs": [
        {
          "internalType": "address",
          "name": "token",
          "type": "address"
        }
      ],
      "name": "SafeERC20FailedOperation",
      "type": "error"
    },
    {
      "inputs": [],
      "name": "TransferAlreadyProcessed",
      "type": "error"
    },
    {
      "inputs": [],
      "name": "ZeroAmount",
      "type": "error"
    },
    {
      "anonymous": false,
      "inputs": [
        {
          "indexed": true,
          "internalType": "bytes32",
          "name": "transferId",
          "type": "bytes32"
        },
        {
          "indexed": true,
          "internalType": "address",
          "name": "recipient",
          "type": "address"
        },
        {
          "indexed": false,
          "internalType": "address",
          "name": "localToken",
          "type": "address"
        },
        {
          "indexed": false,
          "internalType": "uint256",
          "name": "amount",
          "type": "uint256"
        }
      ],
      "name": "BridgeTransferCompleted",
      "type": "event"
    },
    {
      "anonymous": false,
      "inputs": [
        {
          "indexed": true,
          "internalType": "bytes32",
          "name": "transferId",
          "type": "bytes32"
        },
        {
          "indexed": true,
          "internalType": "address",
          "name": "sender",
          "type": "address"
        },
        {
          "indexed": false,
          "internalType": "address",
          "name": "localToken",
          "type": "address"
        },
        {
          "indexed": false,
          "internalType": "uint256",
          "name": "amount",
          "type": "uint256"
        },
        {
          "indexed": false,
          "internalType": "uint256",
          "name": "targetChainId",
          "type": "uint256"
        },
        {
          "indexed": false,
          "internalType": "bytes32",
          "name": "recipientBytes32",
          "type": "bytes32"
        }
      ],
      "name": "BridgeTransferInitiated",
      "type": "event"
    },
    {
      "anonymous": false,
      "inputs": [
        {
          "indexed": false,
          "internalType": "uint256",
          "name": "oldFee",
          "type": "uint256"
        },
        {
          "indexed": false,
          "internalType": "uint256",
          "name": "newFee",
          "type": "uint256"
        }
      ],
      "name": "FlatFeeUpdated",
      "type": "event"
    },
    {
      "anonymous": false,
      "inputs": [
        {
          "indexed": true,
          "internalType": "address",
          "name": "previousOwner",
          "type": "address"
        },
        {
          "indexed": true,
          "internalType": "address",
          "name": "newOwner",
          "type": "address"
        }
      ],
      "name": "OwnershipTransferred",
      "type": "event"
    },
    {
      "anonymous": false,
      "inputs": [
        {
          "indexed": true,
          "internalType": "address",
          "name": "localToken",
          "type": "address"
        },
        {
          "indexed": true,
          "internalType": "address",
          "name": "remoteToken",
          "type": "address"
        },
        {
          "indexed": false,
          "internalType": "bool",
          "name": "wrapped",
          "type": "bool"
        }
      ],
      "name": "TokenRouteConfigured",
      "type": "event"
    },
    {
      "anonymous": false,
      "inputs": [
        {
          "indexed": true,
          "internalType": "address",
          "name": "oldValidator",
          "type": "address"
        },
        {
          "indexed": true,
          "internalType": "address",
          "name": "newValidator",
          "type": "address"
        }
      ],
      "name": "ValidatorUpdated",
      "type": "event"
    },
    {
      "inputs": [
        {
          "internalType": "address",
          "name": "localToken",
          "type": "address"
        },
        {
          "internalType": "uint256",
          "name": "amount",
          "type": "uint256"
        },
        {
          "internalType": "uint256",
          "name": "targetChainId",
          "type": "uint256"
        },
        {
          "internalType": "bytes32",
          "name": "recipientBytes32",
          "type": "bytes32"
        }
      ],
      "name": "bridgeOut",
      "outputs": [
        {
          "internalType": "bytes32",
          "name": "transferId",
          "type": "bytes32"
        }
      ],
      "stateMutability": "payable",
      "type": "function"
    },
    {
      "inputs": [
        {
          "internalType": "bytes",
          "name": "message",
          "type": "bytes"
        },
        {
          "internalType": "bytes",
          "name": "validatorSignature",
          "type": "bytes"
        }
      ],
      "name": "completeTransfer",
      "outputs": [],
      "stateMutability": "nonpayable",
      "type": "function"
    },
    {
      "inputs": [
        {
          "internalType": "address",
          "name": "localToken",
          "type": "address"
        },
        {
          "internalType": "address",
          "name": "remoteToken",
          "type": "address"
        },
        {
          "internalType": "bool",
          "name": "wrapped",
          "type": "bool"
        }
      ],
      "name": "configureRoute",
      "outputs": [],
      "stateMutability": "nonpayable",
      "type": "function"
    },
    {
      "inputs": [],
      "name": "flatFeeWei",
      "outputs": [
        {
          "internalType": "uint256",
          "name": "",
          "type": "uint256"
        }
      ],
      "stateMutability": "view",
      "type": "function"
    },
    {
      "inputs": [],
      "name": "nonce",
      "outputs": [
        {
          "internalType": "uint256",
          "name": "",
          "type": "uint256"
        }
      ],
      "stateMutability": "view",
      "type": "function"
    },
    {
      "inputs": [],
      "name": "owner",
      "outputs": [
        {
          "internalType": "address",
          "name": "",
          "type": "address"
        }
      ],
      "stateMutability": "view",
      "type": "function"
    },
    {
      "inputs": [
        {
          "internalType": "bytes32",
          "name": "",
          "type": "bytes32"
        }
      ],
      "name": "processedTransfers",
      "outputs": [
        {
          "internalType": "bool",
          "name": "",
          "type": "bool"
        }
      ],
      "stateMutability": "view",
      "type": "function"
    },
    {
      "inputs": [],
      "name": "renounceOwnership",
      "outputs": [],
      "stateMutability": "nonpayable",
      "type": "function"
    },
    {
      "inputs": [
        {
          "internalType": "uint256",
          "name": "newFee",
          "type": "uint256"
        }
      ],
      "name": "setFlatFee",
      "outputs": [],
      "stateMutability": "nonpayable",
      "type": "function"
    },
    {
      "inputs": [
        {
          "internalType": "address",
          "name": "newValidator",
          "type": "address"
        }
      ],
      "name": "setValidator",
      "outputs": [],
      "stateMutability": "nonpayable",
      "type": "function"
    },
    {
      "inputs": [
        {
          "internalType": "address",
          "name": "",
          "type": "address"
        }
      ],
      "name": "tokenRoutes",
      "outputs": [
        {
          "internalType": "address",
          "name": "remoteToken",
          "type": "address"
        },
        {
          "internalType": "bool",
          "name": "wrapped",
          "type": "bool"
        },
        {
          "internalType": "bool",
          "name": "active",
          "type": "bool"
        }
      ],
      "stateMutability": "view",
      "type": "function"
    },
    {
      "inputs": [
        {
          "internalType": "address",
          "name": "newOwner",
          "type": "address"
        }
      ],
      "name": "transferOwnership",
      "outputs": [],
      "stateMutability": "nonpayable",
      "type": "function"
    },
    {
      "inputs": [],
      "name": "validator",
      "outputs": [
        {
          "internalType": "address",
          "name": "",
          "type": "address"
        }
      ],
      "stateMutability": "view",
      "type": "function"
    },
    {
      "inputs": [
        {
          "internalType": "address payable",
          "name": "to",
          "type": "address"
        }
      ],
      "name": "withdrawFees",
      "outputs": [],
      "stateMutability": "nonpayable",
      "type": "function"
    },
    {
      "stateMutability": "payable",
      "type": "receive"
    }
  ],
  "bytecode": "0x608060405234801561000f575f5ffd5b5060405161113138038061113183398101604081905261002e916100fa565b826001600160a01b03811661005c57604051631e4fbdf760e01b81525f600482015260240160405180910390fd5b61006581610090565b50600180546001600160a01b0319166001600160a01b03939093169290921790915560025550610133565b5f80546001600160a01b038381166001600160a01b0319831681178455604051919092169283917f8be0079c531659141344cd1fd0a4f28419497f9722a3daafe3b4186f6b6457e09190a35050565b80516001600160a01b03811681146100f5575f5ffd5b919050565b5f5f5f6060848603121561010c575f5ffd5b610115846100df565b9250610123602085016100df565b9150604084015190509250925092565b610ff1806101405f395ff3fe6080604052600436106100dc575f3560e01c8063715018a61161007c578063affed0e011610057578063affed0e014610282578063b78e6f8c14610297578063dd910d75146102ac578063f2fde38b146102ea575f5ffd5b8063715018a6146102315780637c85cb10146102455780638da5cb5b14610266575f5ffd5b80633a5381b5116100b75780633a5381b5146101465780633ff3537e14610182578063489f945c146101a15780636cb0e1e114610212575f5ffd5b80631327d3d8146100e7578063164e68de1461010857806323fa495a14610127575f5ffd5b366100e357005b5f5ffd5b3480156100f2575f5ffd5b50610106610101366004610dbf565b610309565b005b348015610113575f5ffd5b50610106610122366004610dbf565b610393565b348015610132575f5ffd5b50610106610141366004610de1565b61043b565b348015610151575f5ffd5b50600154610165906001600160a01b031681565b6040516001600160a01b0390911681526020015b60405180910390f35b34801561018d575f5ffd5b5061010661019c366004610df8565b610484565b3480156101ac575f5ffd5b506101eb6101bb366004610dbf565b60046020525f90815260409020546001600160a01b0381169060ff600160a01b8204811691600160a81b90041683565b604080516001600160a01b0390941684529115156020840152151590820152606001610179565b34801561021d575f5ffd5b5061010661022c366004610e89565b610539565b34801561023c575f5ffd5b5061010661079b565b610258610253366004610ef5565b6107ae565b604051908152602001610179565b348015610271575f5ffd5b505f546001600160a01b0316610165565b34801561028d575f5ffd5b5061025860035481565b3480156102a2575f5ffd5b5061025860025481565b3480156102b7575f5ffd5b506102da6102c6366004610de1565b60056020525f908152604090205460ff1681565b6040519015158152602001610179565b3480156102f5575f5ffd5b50610106610304366004610dbf565b6109bd565b6103116109fa565b6001600160a01b03811661033857604051631a0a9b9f60e21b815260040160405180910390fd5b6001546040516001600160a01b038084169216907fcfac5dc75b8d9a7e074162f59d9adcd33da59f0fe8dfb21580db298fc0fdad0d905f90a3600180546001600160a01b0319166001600160a01b0392909216919091179055565b61039b6109fa565b5f816001600160a01b0316476040515f6040518083038185875af1925050503d805f81146103e4576040519150601f19603f3d011682016040523d82523d5f602084013e6103e9565b606091505b50509050806104375760405162461bcd60e51b8152602060048201526015602482015274119959481dda5d1a191c985dd85b0819985a5b1959605a1b60448201526064015b60405180910390fd5b5050565b6104436109fa565b60025460408051918252602082018390527f957f8e165512616cc1b935b3ba999a8a0870b6e18300af633ba488f7926bce2d910160405180910390a1600255565b61048c6109fa565b604080516060810182526001600160a01b03848116808352841515602080850182815260018688019081528a86165f8181526004855289902097518854935192511515600160a81b0260ff60a81b19931515600160a01b026001600160a81b0319909516919098161792909217169490941790945593519384529290917faddb78524cfa1ac9aacc790b12b601fc995b5eb2646ab03ea1b3e0e2cc9070f0910160405180910390a3505050565b5f80808061054987890189610f2d565b5f848152600560205260409020549397509195509350915060ff16156105825760405163247ff34560e01b815260040160405180910390fd5b5f8888604051610593929190610f74565b6040519081900390207f19457468657265756d205369676e6564204d6573736167653a0a3332000000005f908152601c829052603c8120919250505f61061089898080601f0160208091040260200160405190810160405280939291908181526020018383808284375f920191909152508693925050610a269050565b6001549091506001600160a01b0380831691161461064157604051638baa579f60e01b815260040160405180910390fd5b5f878152600560209081526040808320805460ff191660011790556001600160a01b03808a1684526004835292819020815160608101835290549384168152600160a01b840460ff908116151593820193909352600160a81b90930490911615159082018190526106c5576040516337164df960e01b815260040160405180910390fd5b806020015115610731576040516340c10f1960e01b81526001600160a01b038681166004830152602482018890528816906340c10f19906044015f604051808303815f87803b158015610716575f5ffd5b505af1158015610728573d5f5f3e3d5ffd5b50505050610745565b6107456001600160a01b0388168688610a4e565b604080516001600160a01b038981168252602082018990528716918a917fb4a4c3569544b9905374e12d1867e1b0165ebe41ad0f91890a70e6b8402c339d910160405180910390a3505050505050505050505050565b6107a36109fa565b6107ac5f610a88565b565b5f835f036107cf57604051631f2a200560e01b815260040160405180910390fd5b6002543410156107f15760405162976f7560e21b815260040160405180910390fd5b6001600160a01b038086165f9081526004602090815260409182902082516060810184529054938416815260ff600160a01b85048116151592820192909252600160a81b90930416151590820181905261085e576040516337164df960e01b815260040160405180910390fd5b46338787878760035f81548092919061087690610f83565b909155506040805160208101989098526bffffffffffffffffffffffff19606097881b8116918901919091529490951b90931660548601526068850191909152608884015260a883015260c882015260e80160405160208183030381529060405280519060200120915080602001511561094a57604051632b45a57f60e11b8152336004820152602481018690526001600160a01b0387169063568b4afe906044015f604051808303815f87803b15801561092f575f5ffd5b505af1158015610941573d5f5f3e3d5ffd5b5050505061095f565b61095f6001600160a01b038716333088610ad7565b604080516001600160a01b03881681526020810187905290810185905260608101849052339083907f3af028e05d8683a7429fca9e87ecfe92a505ec3f5824ecf6bc242dfb31abecc79060800160405180910390a350949350505050565b6109c56109fa565b6001600160a01b0381166109ee57604051631e4fbdf760e01b81525f600482015260240161042e565b6109f781610a88565b50565b5f546001600160a01b031633146107ac5760405163118cdaa760e01b815233600482015260240161042e565b5f5f5f5f610a348686610b13565b925092509250610a448282610b5c565b5090949350505050565b610a5b8383836001610c14565b610a8357604051635274afe760e01b81526001600160a01b038416600482015260240161042e565b505050565b5f80546001600160a01b038381166001600160a01b0319831681178455604051919092169283917f8be0079c531659141344cd1fd0a4f28419497f9722a3daafe3b4186f6b6457e09190a35050565b610ae5848484846001610c76565b610b0d57604051635274afe760e01b81526001600160a01b038516600482015260240161042e565b50505050565b5f5f5f8351604103610b4a576020840151604085015160608601515f1a610b3c88828585610ce3565b955095509550505050610b55565b505081515f91506002905b9250925092565b5f826003811115610b6f57610b6f610fa7565b03610b78575050565b6001826003811115610b8c57610b8c610fa7565b03610baa5760405163f645eedf60e01b815260040160405180910390fd5b6002826003811115610bbe57610bbe610fa7565b03610bdf5760405163fce698f760e01b81526004810182905260240161042e565b6003826003811115610bf357610bf3610fa7565b03610437576040516335e2f38360e21b81526004810182905260240161042e565b60405163a9059cbb60e01b5f8181526001600160a01b038616600452602485905291602083604481808b5af1925060015f51148316610c6a578383151615610c5e573d5f823e3d81fd5b5f873b113d1516831692505b60405250949350505050565b6040516323b872dd60e01b5f8181526001600160a01b038781166004528616602452604485905291602083606481808c5af1925060015f51148316610cd2578383151615610cc6573d5f823e3d81fd5b5f883b113d1516831692505b604052505f60605295945050505050565b5f80807f7fffffffffffffffffffffffffffffff5d576e7357a4501ddfe92f46681b20a0841115610d1c57505f91506003905082610da1565b604080515f808252602082018084528a905260ff891692820192909252606081018790526080810186905260019060a0016020604051602081039080840390855afa158015610d6d573d5f5f3e3d5ffd5b5050604051601f1901519150506001600160a01b038116610d9857505f925060019150829050610da1565b92505f91508190505b9450945094915050565b6001600160a01b03811681146109f7575f5ffd5b5f60208284031215610dcf575f5ffd5b8135610dda81610dab565b9392505050565b5f60208284031215610df1575f5ffd5b5035919050565b5f5f5f60608486031215610e0a575f5ffd5b8335610e1581610dab565b92506020840135610e2581610dab565b915060408401358015158114610e39575f5ffd5b809150509250925092565b5f5f83601f840112610e54575f5ffd5b50813567ffffffffffffffff811115610e6b575f5ffd5b602083019150836020828501011115610e82575f5ffd5b9250929050565b5f5f5f5f60408587031215610e9c575f5ffd5b843567ffffffffffffffff811115610eb2575f5ffd5b610ebe87828801610e44565b909550935050602085013567ffffffffffffffff811115610edd575f5ffd5b610ee987828801610e44565b95989497509550505050565b5f5f5f5f60808587031215610f08575f5ffd5b8435610f1381610dab565b966020860135965060408601359560600135945092505050565b5f5f5f5f60808587031215610f40575f5ffd5b843593506020850135610f5281610dab565b9250604085013591506060850135610f6981610dab565b939692955090935050565b818382375f9101908152919050565b5f60018201610fa057634e487b7160e01b5f52601160045260245ffd5b5060010190565b634e487b7160e01b5f52602160045260245ffdfea2646970667358221220b1b26edf76d0df1938d15adaab3cf3e8041af9cb095d46e6de3ebc307e9ff26164736f6c634300081c0033",
  "linkReferences": {},
  "deployedLinkReferences": {}
}