{
  "_format": "hh-sol-artifact-1",
  "contractName": "HolderDividend",
  "sourceName": "contracts/HolderDividend.sol",
  "abi": [
    {
      "inputs": [
        {
          "internalType": "address",
          "name": "_token",
          "type": "address"
        },
        {
          "internalType": "uint256",
          "name": "_minimumBalance",
          "type": "uint256"
        },
        {
          "internalType": "address",
          "name": "_owner",
          "type": "address"
        }
      ],
      "stateMutability": "nonpayable",
      "type": "constructor"
    },
    {
      "inputs": [],
      "name": "AlreadyRegistered",
      "type": "error"
    },
    {
      "inputs": [
        {
          "internalType": "uint256",
          "name": "have",
          "type": "uint256"
        },
        {
          "internalType": "uint256",
          "name": "need",
          "type": "uint256"
        }
      ],
      "name": "InsufficientBalance",
      "type": "error"
    },
    {
      "inputs": [],
      "name": "NotRegistered",
      "type": "error"
    },
    {
      "inputs": [],
      "name": "NothingToClaim",
      "type": "error"
    },
    {
      "inputs": [
        {
          "internalType": "address",
          "name": "owner",
          "type": "address"
        }
      ],
      "name": "OwnableInvalidOwner",
      "type": "error"
    },
    {
      "inputs": [
        {
          "internalType": "address",
          "name": "account",
          "type": "address"
        }
      ],
      "name": "OwnableUnauthorizedAccount",
      "type": "error"
    },
    {
      "inputs": [],
      "name": "ReentrancyGuardReentrantCall",
      "type": "error"
    },
    {
      "inputs": [],
      "name": "TransferFailed",
      "type": "error"
    },
    {
      "inputs": [],
      "name": "ZeroAddress",
      "type": "error"
    },
    {
      "anonymous": false,
      "inputs": [
        {
          "indexed": true,
          "internalType": "address",
          "name": "user",
          "type": "address"
        },
        {
          "indexed": false,
          "internalType": "uint256",
          "name": "oldBalance",
          "type": "uint256"
        },
        {
          "indexed": false,
          "internalType": "uint256",
          "name": "newBalance",
          "type": "uint256"
        },
        {
          "indexed": false,
          "internalType": "uint256",
          "name": "newWeightedStartTs",
          "type": "uint256"
        }
      ],
      "name": "BalanceUpdated",
      "type": "event"
    },
    {
      "anonymous": false,
      "inputs": [
        {
          "indexed": true,
          "internalType": "uint256",
          "name": "idx",
          "type": "uint256"
        },
        {
          "indexed": false,
          "internalType": "uint256",
          "name": "bnbAmount",
          "type": "uint256"
        },
        {
          "indexed": false,
          "internalType": "uint256",
          "name": "totalWeight",
          "type": "uint256"
        },
        {
          "indexed": false,
          "internalType": "uint256",
          "name": "settledAt",
          "type": "uint256"
        }
      ],
      "name": "BatchSettled",
      "type": "event"
    },
    {
      "anonymous": false,
      "inputs": [
        {
          "indexed": true,
          "internalType": "address",
          "name": "user",
          "type": "address"
        },
        {
          "indexed": false,
          "internalType": "uint256",
          "name": "amount",
          "type": "uint256"
        },
        {
          "indexed": false,
          "internalType": "uint256",
          "name": "nextIdx",
          "type": "uint256"
        }
      ],
      "name": "Claimed",
      "type": "event"
    },
    {
      "anonymous": false,
      "inputs": [
        {
          "indexed": true,
          "internalType": "address",
          "name": "user",
          "type": "address"
        },
        {
          "indexed": false,
          "internalType": "uint256",
          "name": "forfeitedBnb",
          "type": "uint256"
        }
      ],
      "name": "Invalidated",
      "type": "event"
    },
    {
      "anonymous": false,
      "inputs": [
        {
          "indexed": false,
          "internalType": "uint256",
          "name": "prev",
          "type": "uint256"
        },
        {
          "indexed": false,
          "internalType": "uint256",
          "name": "next",
          "type": "uint256"
        }
      ],
      "name": "MinimumBalanceUpdated",
      "type": "event"
    },
    {
      "anonymous": false,
      "inputs": [
        {
          "indexed": true,
          "internalType": "address",
          "name": "previousOwner",
          "type": "address"
        },
        {
          "indexed": true,
          "internalType": "address",
          "name": "newOwner",
          "type": "address"
        }
      ],
      "name": "OwnershipTransferred",
      "type": "event"
    },
    {
      "anonymous": false,
      "inputs": [
        {
          "indexed": true,
          "internalType": "address",
          "name": "user",
          "type": "address"
        },
        {
          "indexed": false,
          "internalType": "uint256",
          "name": "balance",
          "type": "uint256"
        }
      ],
      "name": "Registered",
      "type": "event"
    },
    {
      "anonymous": false,
      "inputs": [
        {
          "indexed": true,
          "internalType": "address",
          "name": "prev",
          "type": "address"
        },
        {
          "indexed": true,
          "internalType": "address",
          "name": "next",
          "type": "address"
        }
      ],
      "name": "TaxReceiverUpdated",
      "type": "event"
    },
    {
      "inputs": [],
      "name": "activeRegisteredCount",
      "outputs": [
        {
          "internalType": "uint256",
          "name": "",
          "type": "uint256"
        }
      ],
      "stateMutability": "view",
      "type": "function"
    },
    {
      "inputs": [],
      "name": "claim",
      "outputs": [],
      "stateMutability": "nonpayable",
      "type": "function"
    },
    {
      "inputs": [
        {
          "internalType": "address",
          "name": "user",
          "type": "address"
        }
      ],
      "name": "currentWeight",
      "outputs": [
        {
          "internalType": "uint256",
          "name": "",
          "type": "uint256"
        }
      ],
      "stateMutability": "view",
      "type": "function"
    },
    {
      "inputs": [],
      "name": "emergencyWithdraw",
      "outputs": [],
      "stateMutability": "nonpayable",
      "type": "function"
    },
    {
      "inputs": [],
      "name": "forfeitedPool",
      "outputs": [
        {
          "internalType": "uint256",
          "name": "",
          "type": "uint256"
        }
      ],
      "stateMutability": "view",
      "type": "function"
    },
    {
      "inputs": [],
      "name": "minimumBalance",
      "outputs": [
        {
          "internalType": "uint256",
          "name": "",
          "type": "uint256"
        }
      ],
      "stateMutability": "view",
      "type": "function"
    },
    {
      "inputs": [],
      "name": "notifyReward",
      "outputs": [],
      "stateMutability": "payable",
      "type": "function"
    },
    {
      "inputs": [],
      "name": "owner",
      "outputs": [
        {
          "internalType": "address",
          "name": "",
          "type": "address"
        }
      ],
      "stateMutability": "view",
      "type": "function"
    },
    {
      "inputs": [
        {
          "internalType": "address",
          "name": "user",
          "type": "address"
        }
      ],
      "name": "pendingReward",
      "outputs": [
        {
          "internalType": "uint256",
          "name": "",
          "type": "uint256"
        }
      ],
      "stateMutability": "view",
      "type": "function"
    },
    {
      "inputs": [],
      "name": "register",
      "outputs": [],
      "stateMutability": "nonpayable",
      "type": "function"
    },
    {
      "inputs": [
        {
          "internalType": "uint256",
          "name": "",
          "type": "uint256"
        }
      ],
      "name": "registeredList",
      "outputs": [
        {
          "internalType": "address",
          "name": "",
          "type": "address"
        }
      ],
      "stateMutability": "view",
      "type": "function"
    },
    {
      "inputs": [],
      "name": "renounceOwnership",
      "outputs": [],
      "stateMutability": "nonpayable",
      "type": "function"
    },
    {
      "inputs": [
        {
          "internalType": "uint256",
          "name": "_minimumBalance",
          "type": "uint256"
        }
      ],
      "name": "setMinimumBalance",
      "outputs": [],
      "stateMutability": "nonpayable",
      "type": "function"
    },
    {
      "inputs": [
        {
          "internalType": "address",
          "name": "_taxReceiver",
          "type": "address"
        }
      ],
      "name": "setTaxReceiver",
      "outputs": [],
      "stateMutability": "nonpayable",
      "type": "function"
    },
    {
      "inputs": [],
      "name": "settlementCount",
      "outputs": [
        {
          "internalType": "uint256",
          "name": "",
          "type": "uint256"
        }
      ],
      "stateMutability": "view",
      "type": "function"
    },
    {
      "inputs": [
        {
          "internalType": "uint256",
          "name": "",
          "type": "uint256"
        }
      ],
      "name": "settlements",
      "outputs": [
        {
          "internalType": "uint256",
          "name": "bnbAmount",
          "type": "uint256"
        },
        {
          "internalType": "uint256",
          "name": "totalWeight",
          "type": "uint256"
        },
        {
          "internalType": "uint256",
          "name": "settledAt",
          "type": "uint256"
        }
      ],
      "stateMutability": "view",
      "type": "function"
    },
    {
      "inputs": [],
      "name": "taxReceiver",
      "outputs": [
        {
          "internalType": "address",
          "name": "",
          "type": "address"
        }
      ],
      "stateMutability": "view",
      "type": "function"
    },
    {
      "inputs": [],
      "name": "token",
      "outputs": [
        {
          "internalType": "contract IERC20",
          "name": "",
          "type": "address"
        }
      ],
      "stateMutability": "view",
      "type": "function"
    },
    {
      "inputs": [],
      "name": "totalClaimedGlobal",
      "outputs": [
        {
          "internalType": "uint256",
          "name": "",
          "type": "uint256"
        }
      ],
      "stateMutability": "view",
      "type": "function"
    },
    {
      "inputs": [],
      "name": "totalCurrentWeight",
      "outputs": [
        {
          "internalType": "uint256",
          "name": "",
          "type": "uint256"
        }
      ],
      "stateMutability": "view",
      "type": "function"
    },
    {
      "inputs": [],
      "name": "totalReceived",
      "outputs": [
        {
          "internalType": "uint256",
          "name": "",
          "type": "uint256"
        }
      ],
      "stateMutability": "view",
      "type": "function"
    },
    {
      "inputs": [],
      "name": "totalRegisteredBalance",
      "outputs": [
        {
          "internalType": "uint256",
          "name": "",
          "type": "uint256"
        }
      ],
      "stateMutability": "view",
      "type": "function"
    },
    {
      "inputs": [
        {
          "internalType": "address",
          "name": "newOwner",
          "type": "address"
        }
      ],
      "name": "transferOwnership",
      "outputs": [],
      "stateMutability": "nonpayable",
      "type": "function"
    },
    {
      "inputs": [
        {
          "internalType": "address",
          "name": "user",
          "type": "address"
        }
      ],
      "name": "updateBalance",
      "outputs": [],
      "stateMutability": "nonpayable",
      "type": "function"
    },
    {
      "inputs": [
        {
          "internalType": "address",
          "name": "user",
          "type": "address"
        }
      ],
      "name": "userInfo",
      "outputs": [
        {
          "internalType": "bool",
          "name": "registered",
          "type": "bool"
        },
        {
          "internalType": "uint256",
          "name": "registeredBalance",
          "type": "uint256"
        },
        {
          "internalType": "uint256",
          "name": "weightedStartTs",
          "type": "uint256"
        },
        {
          "internalType": "uint256",
          "name": "holdingSeconds",
          "type": "uint256"
        },
        {
          "internalType": "uint256",
          "name": "registeredAt",
          "type": "uint256"
        },
        {
          "internalType": "uint256",
          "name": "nextSettlementIdx",
          "type": "uint256"
        },
        {
          "internalType": "uint256",
          "name": "userTotalClaimed",
          "type": "uint256"
        },
        {
          "internalType": "uint256",
          "name": "pendingBnb",
          "type": "uint256"
        }
      ],
      "stateMutability": "view",
      "type": "function"
    },
    {
      "inputs": [
        {
          "internalType": "address",
          "name": "user",
          "type": "address"
        }
      ],
      "name": "userWeightShare",
      "outputs": [
        {
          "internalType": "uint256",
          "name": "numerator",
          "type": "uint256"
        },
        {
          "internalType": "uint256",
          "name": "denominator",
          "type": "uint256"
        }
      ],
      "stateMutability": "view",
      "type": "function"
    },
    {
      "inputs": [
        {
          "internalType": "address",
          "name": "",
          "type": "address"
        }
      ],
      "name": "users",
      "outputs": [
        {
          "internalType": "uint256",
          "name": "registeredBalance",
          "type": "uint256"
        },
        {
          "internalType": "uint256",
          "name": "weightedStartTs",
          "type": "uint256"
        },
        {
          "internalType": "uint256",
          "name": "nextSettlementIdx",
          "type": "uint256"
        },
        {
          "internalType": "uint256",
          "name": "totalClaimed",
          "type": "uint256"
        },
        {
          "internalType": "uint256",
          "name": "registeredAt",
          "type": "uint256"
        },
        {
          "internalType": "bool",
          "name": "registered",
          "type": "bool"
        }
      ],
      "stateMutability": "view",
      "type": "function"
    },
    {
      "stateMutability": "payable",
      "type": "receive"
    }
  ],
  "bytecode": "0x60a060405234801561000f575f5ffd5b5060405161166038038061166083398101604081905261002e91610132565b806001600160a01b03811661005c57604051631e4fbdf760e01b81525f600482015260240160405180910390fd5b610065816100c8565b5060017f9b779b17422d0df92223018b32b4d1fa46e071723d6817e2486d003becc55f00556001600160a01b0383166100b15760405163d92e233d60e01b815260040160405180910390fd5b506001600160a01b0390911660805260015561016b565b5f80546001600160a01b038381166001600160a01b0319831681178455604051919092169283917f8be0079c531659141344cd1fd0a4f28419497f9722a3daafe3b4186f6b6457e09190a35050565b80516001600160a01b038116811461012d575f5ffd5b919050565b5f5f5f60608486031215610144575f5ffd5b61014d84610117565b92506020840151915061016260408501610117565b90509250925092565b6080516114cf6101915f395f818161054b01528181610715015261098001526114cf5ff3fe608060405260043610610198575f3560e01c8063a3c2c462116100e7578063db2e21bc11610087578063f40f0f5211610062578063f40f0f52146104f2578063f4634de114610511578063fb7c2bf214610525578063fc0c546a1461053a575f5ffd5b8063db2e21bc146104a0578063e6ef73d6146104b4578063f2fde38b146104d3575f5ffd5b8063b9d1d49b116100c2578063b9d1d49b14610438578063cd8de42c1461044d578063d3f216361461046c578063d4a3ffe914610481575f5ffd5b8063a3c2c4621461038e578063a87430ba146103a3578063ab8bc45d14610423575f5ffd5b806340b8405a116101525780635d54bda41161012d5780635d54bda41461030e578063715018a6146103165780637872feb21461032a5780638da5cb5b1461035e575f5ffd5b806340b8405a146102bc5780634e71d92d146102db5780634e7a2207146102ef575f5ffd5b8063037eca76146101ba5780630526d3ae146101dd57806308df7dc8146101f15780631959a0021461022b5780631aa3a008146102875780633446e4b41461029d575f5ffd5b366101b6573460085f8282546101ae9190611397565b925050819055005b5f5ffd5b3480156101c5575f5ffd5b506003545b6040519081526020015b60405180910390f35b3480156101e8575f5ffd5b506101ca61056d565b3480156101fc575f5ffd5b5061021061020b3660046113b0565b6105dc565b604080519384526020840192909252908201526060016101d4565b348015610236575f5ffd5b5061024a6102453660046113c7565b61060d565b6040805198151589526020890197909752958701949094526060860192909252608085015260a084015260c083015260e0820152610100016101d4565b348015610292575f5ffd5b5061029b6106c2565b005b3480156102a8575f5ffd5b5061029b6102b73660046113b0565b6108e3565b3480156102c7575f5ffd5b5061029b6102d63660046113c7565b61092c565b3480156102e6575f5ffd5b5061029b610ae5565b3480156102fa575f5ffd5b506101ca6103093660046113c7565b610bea565b61029b610c4f565b348015610321575f5ffd5b5061029b610d85565b348015610335575f5ffd5b506103496103443660046113c7565b610d96565b604080519283526020830191909152016101d4565b348015610369575f5ffd5b505f546001600160a01b03165b6040516001600160a01b0390911681526020016101d4565b348015610399575f5ffd5b506101ca60085481565b3480156103ae575f5ffd5b506103f46103bd3660046113c7565b600560208190525f918252604090912080546001820154600283015460038401546004850154949095015492949193909260ff1686565b6040805196875260208701959095529385019290925260608401526080830152151560a082015260c0016101d4565b34801561042e575f5ffd5b506101ca60075481565b348015610443575f5ffd5b506101ca60015481565b348015610458575f5ffd5b5061029b6104673660046113c7565b610e26565b348015610477575f5ffd5b506101ca60045481565b34801561048c575f5ffd5b5061037661049b3660046113b0565b610e89565b3480156104ab575f5ffd5b5061029b610eb1565b3480156104bf575f5ffd5b50600254610376906001600160a01b031681565b3480156104de575f5ffd5b5061029b6104ed3660046113c7565b610f6c565b3480156104fd575f5ffd5b506101ca61050c3660046113c7565b610fa6565b34801561051c575f5ffd5b506101ca610fe2565b348015610530575f5ffd5b506101ca60095481565b348015610545575f5ffd5b506103767f000000000000000000000000000000000000000000000000000000000000000081565b5f80805b6006548110156105d65760055f60068381548110610591576105916113ed565b5f9182526020808320909101546001600160a01b0316835282019290925260400190206005015460ff16156105ce57816105ca81611401565b9250505b600101610571565b50919050565b600381815481106105eb575f80fd5b5f91825260209091206003909102018054600182015460029092015490925083565b6001600160a01b0381165f908152600560208190526040822090810154829182918291829182918291829190829060ff16801561064d5750816001015442115b610657575f610666565b60018201546106669042611419565b60058301548354600185015460048601546002870154600388015495965060ff90941694929391928692908661069c575f6106a5565b6106a589610ff0565b995099509950995099509950995099505050919395975091939597565b6106ca6110e1565b335f908152600560208190526040909120015460ff16156106fe57604051630ea075bf60e21b815260040160405180910390fd5b6040516370a0823160e01b81523360048201525f907f00000000000000000000000000000000000000000000000000000000000000006001600160a01b0316906370a0823190602401602060405180830381865afa158015610762573d5f5f3e3d5ffd5b505050506040513d601f19601f82011682018060405250810190610786919061142c565b90506001548110156107c25760015460405163cf47918160e01b81526107b9918391600401918252602082015260400190565b60405180910390fd5b6040805160c081018252828152426020808301828152600380548587019081525f6060870181815260808801968752600160a08901818152338452600597889052998320985189559451948801949094559051600287015591519085015591516004840155925191909201805460ff19169115159190911790556007805483929061084e908490611397565b9091555050600680546001810182555f919091527ff652222313e28459528d920b65115c16c04f3efc82aaedc97be59f3f377c0d3f0180546001600160a01b031916339081179091556040518281527f6f3bf3fa84e4763a43b3d23f9d79be242d6d5c834941ff4c1111b67469e1150c9060200160405180910390a2506108e160015f51602061147a5f395f51905f5255565b565b6108eb6110fc565b60015460408051918252602082018390527fc2ed71504bd70e947d9a514f52be4f28827ef83859c414054d0874ab910844a1910160405180910390a1600155565b6109346110e1565b6001600160a01b0381165f9081526005602081905260409091209081015460ff1661095f5750610acc565b6040516370a0823160e01b81526001600160a01b0383811660048301525f917f0000000000000000000000000000000000000000000000000000000000000000909116906370a0823190602401602060405180830381865afa1580156109c7573d5f5f3e3d5ffd5b505050506040513d601f19601f820116820180604052508101906109eb919061142c565b8254909150811015610a0857610a018383611128565b5050610acc565b8154811115610ac95781545f610a1e8284611419565b9050425f84610a2d8385611443565b6001880154610a3c9087611443565b610a469190611397565b610a50919061145a565b90508484600754610a619190611419565b610a6b9190611397565b6007558486556001860181905560408051858152602081018790529081018290526001600160a01b038816907fd8b455e949c1d522b95778231eec1beff214f4fbe062f64b18a86272caaa1fc79060600160405180910390a2505050505b50505b610ae260015f51602061147a5f395f51905f5255565b50565b610aed6110e1565b335f9081526005602081905260409091209081015460ff16610b225760405163aba4733960e01b815260040160405180910390fd5b5f610b2c82610ff0565b9050805f03610b4e576040516312d37ee560e31b815260040160405180910390fd5b600380546002840181905590830180548391905f90610b6e908490611397565b925050819055508160095f828254610b869190611397565b90915550610b96905033836111dd565b604080518381526020810183905233917f987d620f307ff6b94d58743cb7a7509f24071586a77759b77c2d4e29f75a2f9a910160405180910390a25050506108e160015f51602061147a5f395f51905f5255565b6001600160a01b0381165f90815260056020819052604082209081015460ff16610c1657505f92915050565b5f81600101544211610c28575f610c37565b6001820154610c379042611419565b8254909150610c47908290611443565b949350505050565b3460085f828254610c609190611397565b90915550506004545f90610c749034611397565b9050805f03610c805750565b5f610c89611252565b9050805f03610c985750600455565b5f60048190556003805460408051606080820183528782526020808301888152428486018181526001880189559888905293517fc2575a0e9e593c00f959f8c92f12db2869c3395a3b0502d05e2516446f71f85b97870297880155517fc2575a0e9e593c00f959f8c92f12db2869c3395a3b0502d05e2516446f71f85c87015595517fc2575a0e9e593c00f959f8c92f12db2869c3395a3b0502d05e2516446f71f85d909501949094558151878152948501869052908401529182917fd89917fc1a94c47cec7534fffae602f7f5c38d3444fd4cf7df701dd61c1eca1e91015b60405180910390a2505050565b610d8d6110fc565b6108e15f611305565b6001600160a01b0381165f90815260056020819052604082209081015482919060ff16610dc957505f9360019350915050565b5f81600101544211610ddb575f610dea565b6001820154610dea9042611419565b90505f81835f0154610dfc9190611443565b90505f610e07611252565b9050818115610e165781610e19565b60015b9550955050505050915091565b610e2e6110fc565b6002546040516001600160a01b038084169216907ff970bc488f38cdc7caf559de1924e9c564d90c54d1767c82df2cbc55c9829a5e905f90a3600280546001600160a01b0319166001600160a01b0392909216919091179055565b60068181548110610e98575f80fd5b5f918252602090912001546001600160a01b0316905081565b610eb96110fc565b610ec16110e1565b475f819003610ee3576040516312d37ee560e31b815260040160405180910390fd5b5f80546040516001600160a01b039091169083908381818185875af1925050503d805f8114610f2d576040519150601f19603f3d011682016040523d82523d5f602084013e610f32565b606091505b5050905080610f54576040516312171d8360e31b815260040160405180910390fd5b50506108e160015f51602061147a5f395f51905f5255565b610f746110fc565b6001600160a01b038116610f9d57604051631e4fbdf760e01b81525f60048201526024016107b9565b610ae281611305565b6001600160a01b0381165f90815260056020819052604082209081015460ff16610fd257505f92915050565b610fdb81610ff0565b9392505050565b5f610feb611252565b905090565b60035460028201545f9182915b818110156110d8575f60038281548110611019576110196113ed565b905f5260205f2090600302016040518060600160405290815f8201548152602001600182015481526020016002820154815250509050856001015481604001511161106457506110d0565b5f866001015482604001516110799190611419565b90505f81885f015461108b9190611443565b90505f836020015111801561109f57505f81115b156110cc57602083015183516110b59083611443565b6110bf919061145a565b6110c99087611397565b95505b5050505b600101610ffd565b50909392505050565b6110e9611354565b60025f51602061147a5f395f51905f5255565b5f546001600160a01b031633146108e15760405163118cdaa760e01b81523360048201526024016107b9565b5f61113282610ff0565b90508015611151578060045f82825461114b9190611397565b90915550505b8154600780545f90611164908490611419565b90915550506001600160a01b0383165f81815260056020819052604080832083815560018101849055600281018490556003810184905560048101939093559101805460ff19169055517f488c05909d4e56ae790f1eb8d403a86eee7cf559e6fa940942dbb5890ad0baf990610d789084815260200190565b5f826001600160a01b0316826040515f6040518083038185875af1925050503d805f8114611226576040519150601f19603f3d011682016040523d82523d5f602084013e61122b565b606091505b505090508061124d576040516312171d8360e31b815260040160405180910390fd5b505050565b6006545f9081904290825b818110156112fc575f60068281548110611279576112796113ed565b5f9182526020808320909101546001600160a01b03168083526005918290526040909220908101549192509060ff166112b35750506112f4565b5f816001015486116112c5575f6112d4565b60018201546112d49087611419565b82549091506112e4908290611443565b6112ee9088611397565b96505050505b60010161125d565b50919392505050565b5f80546001600160a01b038381166001600160a01b0319831681178455604051919092169283917f8be0079c531659141344cd1fd0a4f28419497f9722a3daafe3b4186f6b6457e09190a35050565b5f51602061147a5f395f51905f52546002036108e157604051633ee5aeb560e01b815260040160405180910390fd5b634e487b7160e01b5f52601160045260245ffd5b808201808211156113aa576113aa611383565b92915050565b5f602082840312156113c0575f5ffd5b5035919050565b5f602082840312156113d7575f5ffd5b81356001600160a01b0381168114610fdb575f5ffd5b634e487b7160e01b5f52603260045260245ffd5b5f6001820161141257611412611383565b5060010190565b818103818111156113aa576113aa611383565b5f6020828403121561143c575f5ffd5b5051919050565b80820281158282048414176113aa576113aa611383565b5f8261147457634e487b7160e01b5f52601260045260245ffd5b50049056fe9b779b17422d0df92223018b32b4d1fa46e071723d6817e2486d003becc55f00a264697066735822122060eab2810f2eb6a690541ebefc82d76f14d4c25d6a6872c9b82042812e4d94ef64736f6c634300081c0033",
  "linkReferences": {},
  "deployedLinkReferences": {}
}