{
  "_format": "hh-sol-artifact-1",
  "contractName": "HolderDividend",
  "sourceName": "contracts/HolderDividend.sol",
  "abi": [
    {
      "inputs": [
        {
          "internalType": "address",
          "name": "_token",
          "type": "address"
        },
        {
          "internalType": "uint256",
          "name": "_minimumBalance",
          "type": "uint256"
        },
        {
          "internalType": "address",
          "name": "_owner",
          "type": "address"
        }
      ],
      "stateMutability": "nonpayable",
      "type": "constructor"
    },
    {
      "inputs": [],
      "name": "AlreadyRegistered",
      "type": "error"
    },
    {
      "inputs": [
        {
          "internalType": "uint256",
          "name": "have",
          "type": "uint256"
        },
        {
          "internalType": "uint256",
          "name": "need",
          "type": "uint256"
        }
      ],
      "name": "InsufficientBalance",
      "type": "error"
    },
    {
      "inputs": [],
      "name": "NotRegistered",
      "type": "error"
    },
    {
      "inputs": [],
      "name": "NothingToClaim",
      "type": "error"
    },
    {
      "inputs": [
        {
          "internalType": "address",
          "name": "owner",
          "type": "address"
        }
      ],
      "name": "OwnableInvalidOwner",
      "type": "error"
    },
    {
      "inputs": [
        {
          "internalType": "address",
          "name": "account",
          "type": "address"
        }
      ],
      "name": "OwnableUnauthorizedAccount",
      "type": "error"
    },
    {
      "inputs": [],
      "name": "ReentrancyGuardReentrantCall",
      "type": "error"
    },
    {
      "inputs": [],
      "name": "TransferFailed",
      "type": "error"
    },
    {
      "inputs": [],
      "name": "ZeroAddress",
      "type": "error"
    },
    {
      "anonymous": false,
      "inputs": [
        {
          "indexed": true,
          "internalType": "address",
          "name": "user",
          "type": "address"
        },
        {
          "indexed": false,
          "internalType": "uint256",
          "name": "oldBalance",
          "type": "uint256"
        },
        {
          "indexed": false,
          "internalType": "uint256",
          "name": "newBalance",
          "type": "uint256"
        },
        {
          "indexed": false,
          "internalType": "uint256",
          "name": "newWeightedStartTs",
          "type": "uint256"
        }
      ],
      "name": "BalanceUpdated",
      "type": "event"
    },
    {
      "anonymous": false,
      "inputs": [
        {
          "indexed": true,
          "internalType": "uint256",
          "name": "idx",
          "type": "uint256"
        },
        {
          "indexed": false,
          "internalType": "uint256",
          "name": "bnbAmount",
          "type": "uint256"
        },
        {
          "indexed": false,
          "internalType": "uint256",
          "name": "totalWeight",
          "type": "uint256"
        },
        {
          "indexed": false,
          "internalType": "uint256",
          "name": "settledAt",
          "type": "uint256"
        }
      ],
      "name": "BatchSettled",
      "type": "event"
    },
    {
      "anonymous": false,
      "inputs": [
        {
          "indexed": true,
          "internalType": "address",
          "name": "user",
          "type": "address"
        },
        {
          "indexed": false,
          "internalType": "uint256",
          "name": "amount",
          "type": "uint256"
        },
        {
          "indexed": false,
          "internalType": "uint256",
          "name": "nextIdx",
          "type": "uint256"
        }
      ],
      "name": "Claimed",
      "type": "event"
    },
    {
      "anonymous": false,
      "inputs": [
        {
          "indexed": true,
          "internalType": "address",
          "name": "user",
          "type": "address"
        },
        {
          "indexed": false,
          "internalType": "uint256",
          "name": "forfeitedBnb",
          "type": "uint256"
        }
      ],
      "name": "Invalidated",
      "type": "event"
    },
    {
      "anonymous": false,
      "inputs": [
        {
          "indexed": false,
          "internalType": "uint256",
          "name": "prev",
          "type": "uint256"
        },
        {
          "indexed": false,
          "internalType": "uint256",
          "name": "next",
          "type": "uint256"
        }
      ],
      "name": "MinimumBalanceUpdated",
      "type": "event"
    },
    {
      "anonymous": false,
      "inputs": [
        {
          "indexed": true,
          "internalType": "address",
          "name": "previousOwner",
          "type": "address"
        },
        {
          "indexed": true,
          "internalType": "address",
          "name": "newOwner",
          "type": "address"
        }
      ],
      "name": "OwnershipTransferred",
      "type": "event"
    },
    {
      "anonymous": false,
      "inputs": [
        {
          "indexed": true,
          "internalType": "address",
          "name": "user",
          "type": "address"
        },
        {
          "indexed": false,
          "internalType": "uint256",
          "name": "balance",
          "type": "uint256"
        }
      ],
      "name": "Registered",
      "type": "event"
    },
    {
      "anonymous": false,
      "inputs": [
        {
          "indexed": true,
          "internalType": "address",
          "name": "prev",
          "type": "address"
        },
        {
          "indexed": true,
          "internalType": "address",
          "name": "next",
          "type": "address"
        }
      ],
      "name": "TaxReceiverUpdated",
      "type": "event"
    },
    {
      "inputs": [],
      "name": "activeRegisteredCount",
      "outputs": [
        {
          "internalType": "uint256",
          "name": "",
          "type": "uint256"
        }
      ],
      "stateMutability": "view",
      "type": "function"
    },
    {
      "inputs": [],
      "name": "claim",
      "outputs": [],
      "stateMutability": "nonpayable",
      "type": "function"
    },
    {
      "inputs": [
        {
          "internalType": "address",
          "name": "user",
          "type": "address"
        }
      ],
      "name": "currentWeight",
      "outputs": [
        {
          "internalType": "uint256",
          "name": "",
          "type": "uint256"
        }
      ],
      "stateMutability": "view",
      "type": "function"
    },
    {
      "inputs": [],
      "name": "emergencyWithdraw",
      "outputs": [],
      "stateMutability": "nonpayable",
      "type": "function"
    },
    {
      "inputs": [],
      "name": "forfeitedPool",
      "outputs": [
        {
          "internalType": "uint256",
          "name": "",
          "type": "uint256"
        }
      ],
      "stateMutability": "view",
      "type": "function"
    },
    {
      "inputs": [],
      "name": "minimumBalance",
      "outputs": [
        {
          "internalType": "uint256",
          "name": "",
          "type": "uint256"
        }
      ],
      "stateMutability": "view",
      "type": "function"
    },
    {
      "inputs": [],
      "name": "notifyReward",
      "outputs": [],
      "stateMutability": "payable",
      "type": "function"
    },
    {
      "inputs": [],
      "name": "owner",
      "outputs": [
        {
          "internalType": "address",
          "name": "",
          "type": "address"
        }
      ],
      "stateMutability": "view",
      "type": "function"
    },
    {
      "inputs": [
        {
          "internalType": "address",
          "name": "user",
          "type": "address"
        }
      ],
      "name": "pendingReward",
      "outputs": [
        {
          "internalType": "uint256",
          "name": "",
          "type": "uint256"
        }
      ],
      "stateMutability": "view",
      "type": "function"
    },
    {
      "inputs": [],
      "name": "register",
      "outputs": [],
      "stateMutability": "nonpayable",
      "type": "function"
    },
    {
      "inputs": [
        {
          "internalType": "uint256",
          "name": "",
          "type": "uint256"
        }
      ],
      "name": "registeredList",
      "outputs": [
        {
          "internalType": "address",
          "name": "",
          "type": "address"
        }
      ],
      "stateMutability": "view",
      "type": "function"
    },
    {
      "inputs": [],
      "name": "renounceOwnership",
      "outputs": [],
      "stateMutability": "nonpayable",
      "type": "function"
    },
    {
      "inputs": [
        {
          "internalType": "uint256",
          "name": "_minimumBalance",
          "type": "uint256"
        }
      ],
      "name": "setMinimumBalance",
      "outputs": [],
      "stateMutability": "nonpayable",
      "type": "function"
    },
    {
      "inputs": [
        {
          "internalType": "address",
          "name": "_taxReceiver",
          "type": "address"
        }
      ],
      "name": "setTaxReceiver",
      "outputs": [],
      "stateMutability": "nonpayable",
      "type": "function"
    },
    {
      "inputs": [],
      "name": "settlementCount",
      "outputs": [
        {
          "internalType": "uint256",
          "name": "",
          "type": "uint256"
        }
      ],
      "stateMutability": "view",
      "type": "function"
    },
    {
      "inputs": [
        {
          "internalType": "uint256",
          "name": "",
          "type": "uint256"
        }
      ],
      "name": "settlements",
      "outputs": [
        {
          "internalType": "uint256",
          "name": "bnbAmount",
          "type": "uint256"
        },
        {
          "internalType": "uint256",
          "name": "totalWeight",
          "type": "uint256"
        },
        {
          "internalType": "uint256",
          "name": "settledAt",
          "type": "uint256"
        }
      ],
      "stateMutability": "view",
      "type": "function"
    },
    {
      "inputs": [],
      "name": "taxReceiver",
      "outputs": [
        {
          "internalType": "address",
          "name": "",
          "type": "address"
        }
      ],
      "stateMutability": "view",
      "type": "function"
    },
    {
      "inputs": [],
      "name": "token",
      "outputs": [
        {
          "internalType": "contract IERC20",
          "name": "",
          "type": "address"
        }
      ],
      "stateMutability": "view",
      "type": "function"
    },
    {
      "inputs": [],
      "name": "totalClaimedGlobal",
      "outputs": [
        {
          "internalType": "uint256",
          "name": "",
          "type": "uint256"
        }
      ],
      "stateMutability": "view",
      "type": "function"
    },
    {
      "inputs": [],
      "name": "totalCurrentWeight",
      "outputs": [
        {
          "internalType": "uint256",
          "name": "",
          "type": "uint256"
        }
      ],
      "stateMutability": "view",
      "type": "function"
    },
    {
      "inputs": [],
      "name": "totalReceived",
      "outputs": [
        {
          "internalType": "uint256",
          "name": "",
          "type": "uint256"
        }
      ],
      "stateMutability": "view",
      "type": "function"
    },
    {
      "inputs": [],
      "name": "totalRegisteredBalance",
      "outputs": [
        {
          "internalType": "uint256",
          "name": "",
          "type": "uint256"
        }
      ],
      "stateMutability": "view",
      "type": "function"
    },
    {
      "inputs": [
        {
          "internalType": "address",
          "name": "newOwner",
          "type": "address"
        }
      ],
      "name": "transferOwnership",
      "outputs": [],
      "stateMutability": "nonpayable",
      "type": "function"
    },
    {
      "inputs": [
        {
          "internalType": "address",
          "name": "user",
          "type": "address"
        }
      ],
      "name": "updateBalance",
      "outputs": [],
      "stateMutability": "nonpayable",
      "type": "function"
    },
    {
      "inputs": [
        {
          "internalType": "address",
          "name": "user",
          "type": "address"
        }
      ],
      "name": "userInfo",
      "outputs": [
        {
          "internalType": "bool",
          "name": "registered",
          "type": "bool"
        },
        {
          "internalType": "uint256",
          "name": "registeredBalance",
          "type": "uint256"
        },
        {
          "internalType": "uint256",
          "name": "weightedStartTs",
          "type": "uint256"
        },
        {
          "internalType": "uint256",
          "name": "holdingSeconds",
          "type": "uint256"
        },
        {
          "internalType": "uint256",
          "name": "registeredAt",
          "type": "uint256"
        },
        {
          "internalType": "uint256",
          "name": "nextSettlementIdx",
          "type": "uint256"
        },
        {
          "internalType": "uint256",
          "name": "userTotalClaimed",
          "type": "uint256"
        },
        {
          "internalType": "uint256",
          "name": "pendingBnb",
          "type": "uint256"
        }
      ],
      "stateMutability": "view",
      "type": "function"
    },
    {
      "inputs": [
        {
          "internalType": "address",
          "name": "user",
          "type": "address"
        }
      ],
      "name": "userWeightShare",
      "outputs": [
        {
          "internalType": "uint256",
          "name": "numerator",
          "type": "uint256"
        },
        {
          "internalType": "uint256",
          "name": "denominator",
          "type": "uint256"
        }
      ],
      "stateMutability": "view",
      "type": "function"
    },
    {
      "inputs": [
        {
          "internalType": "address",
          "name": "",
          "type": "address"
        }
      ],
      "name": "users",
      "outputs": [
        {
          "internalType": "uint256",
          "name": "registeredBalance",
          "type": "uint256"
        },
        {
          "internalType": "uint256",
          "name": "weightedStartTs",
          "type": "uint256"
        },
        {
          "internalType": "uint256",
          "name": "nextSettlementIdx",
          "type": "uint256"
        },
        {
          "internalType": "uint256",
          "name": "totalClaimed",
          "type": "uint256"
        },
        {
          "internalType": "uint256",
          "name": "registeredAt",
          "type": "uint256"
        },
        {
          "internalType": "bool",
          "name": "registered",
          "type": "bool"
        }
      ],
      "stateMutability": "view",
      "type": "function"
    },
    {
      "stateMutability": "payable",
      "type": "receive"
    }
  ],
  "bytecode": "0x60a03461013057601f61134c38819003918201601f19168301916001600160401b03831184841017610134578084926060946040528339810103126101305761004781610148565b602082015190916001600160a01b039061006390604001610148565b1691821561011d575f80546001600160a01b031981168517825560405194916001600160a01b03909116907f8be0079c531659141344cd1fd0a4f28419497f9722a3daafe3b4186f6b6457e09080a360017f9b779b17422d0df92223018b32b4d1fa46e071723d6817e2486d003becc55f00556001600160a01b0316801561010e576080526001556111ef908161015d8239608051818181610175015281816107900152610c470152f35b63d92e233d60e01b5f5260045ffd5b631e4fbdf760e01b5f525f60045260245ffd5b5f80fd5b634e487b7160e01b5f52604160045260245ffd5b51906001600160a01b03821682036101305756fe608080604052600436101561002b575b50361561001a575f80fd5b61002634600854610bcc565b600855005b5f3560e01c908163037eca7614610b04575080630526d3ae14610a7e57806308df7dc814610a265780631959a002146109565780631aa3a008146107465780633446e4b4146106f357806340b8405a146106ab5780634e71d92d146105d95780634e7a2207146105aa5780635d54bda414610595578063715018a61461053e5780637872feb2146105035780638da5cb5b146104dc578063a3c2c462146104bf578063a87430ba14610447578063ab8bc45d1461042a578063b9d1d49b1461040d578063cd8de42c1461039d578063d3f2163614610380578063d4a3ffe91461033e578063db2e21bc146102c7578063e6ef73d61461029f578063f2fde38b14610216578063f40f0f52146101e7578063f4634de1146101c5578063fb7c2bf2146101a85763fc0c546a14610160575f61000f565b346101a4575f3660031901126101a4576040517f00000000000000000000000000000000000000000000000000000000000000006001600160a01b03168152602090f35b5f80fd5b346101a4575f3660031901126101a4576020600954604051908152f35b346101a4575f3660031901126101a45760206101df611120565b604051908152f35b346101a45760203660031901126101a4576004356001600160a01b03811681036101a4576101df602091610fd7565b346101a45760203660031901126101a4576004356001600160a01b038116908190036101a4576102446110fa565b801561028c575f80546001600160a01b03198116831782556001600160a01b0316907f8be0079c531659141344cd1fd0a4f28419497f9722a3daafe3b4186f6b6457e09080a3005b631e4fbdf760e01b5f525f60045260245ffd5b346101a4575f3660031901126101a4576002546040516001600160a01b039091168152602090f35b346101a4575f3660031901126101a4576102df6110fa565b6102e76110c2565b47801561032f575f8080809360018060a01b038254165af1610307610f98565b50156103205760015f51602061119a5f395f51905f5255005b6312171d8360e31b5f5260045ffd5b6312d37ee560e31b5f5260045ffd5b346101a45760203660031901126101a4576004356006548110156101a457610367602091610b69565b905460405160039290921b1c6001600160a01b03168152f35b346101a4575f3660031901126101a4576020600454604051908152f35b346101a45760203660031901126101a4576004356001600160a01b038116908190036101a4576103cb6110fa565b600254816001600160a01b0382167ff970bc488f38cdc7caf559de1924e9c564d90c54d1767c82df2cbc55c9829a5e5f80a36001600160a01b03191617600255005b346101a4575f3660031901126101a4576020600154604051908152f35b346101a4575f3660031901126101a4576020600754604051908152f35b346101a45760203660031901126101a4576004356001600160a01b038116908190036101a4575f52600560205260c060405f20805490600181015490600281015460038201549060ff6005600485015494015416936040519586526020860152604085015260608401526080830152151560a0820152f35b346101a4575f3660031901126101a4576020600854604051908152f35b346101a4575f3660031901126101a4575f546040516001600160a01b039091168152602090f35b346101a45760203660031901126101a4576004356001600160a01b03811681036101a457610532604091610f40565b82519182526020820152f35b346101a4575f3660031901126101a4576105566110fa565b5f80546001600160a01b0319811682556001600160a01b03167f8be0079c531659141344cd1fd0a4f28419497f9722a3daafe3b4186f6b6457e08280a3005b5f3660031901126101a4576105a8610e51565b005b346101a45760203660031901126101a4576004356001600160a01b03811681036101a4576101df602091610dfd565b346101a4575f3660031901126101a4576105f16110c2565b335f52600560205260405f2060ff6005820154161561069c5761061381610ffc565b90811561032f57600380549182600282015501610631838254610bcc565b905561063f82600954610bcc565b6009555f80808085335af1610652610f98565b50156103205760405191825260208201527f987d620f307ff6b94d58743cb7a7509f24071586a77759b77c2d4e29f75a2f9a60403392a260015f51602061119a5f395f51905f5255005b63aba4733960e01b5f5260045ffd5b346101a45760203660031901126101a4576004356001600160a01b03811681036101a4576106e0906106db6110c2565b610c0a565b60015f51602061119a5f395f51905f5255005b346101a45760203660031901126101a45760043561070f6110fa565b7fc2ed71504bd70e947d9a514f52be4f28827ef83859c414054d0874ab910844a160406001548151908152836020820152a1600155005b346101a4575f3660031901126101a45761075e6110c2565b335f52600560205260ff600560405f20015416610947576040516370a0823160e01b81523360048201526020816024817f00000000000000000000000000000000000000000000000000000000000000006001600160a01b03165afa90811561093c575f9161090a575b506001548082106108f4575060035460405160c081019080821067ffffffffffffffff8311176108e057600591604052838152602081019242845260408201908152606082015f8152608083019142835260a084019560018752335f528560205260405f2094518555516001850155516002840155516003830155516004820155019051151560ff8019835416911617905561086681600754610bcc565b600755600654600160401b8110156108e0578060016108889201600655610b69565b81549060031b9033821b9160018060a01b03901b19161790556040519081527f6f3bf3fa84e4763a43b3d23f9d79be242d6d5c834941ff4c1111b67469e1150c60203392a260015f51602061119a5f395f51905f5255005b634e487b7160e01b5f52604160045260245ffd5b9063cf47918160e01b5f5260045260245260445ffd5b90506020813d602011610934575b8161092560209383610baa565b810103126101a45751816107c8565b3d9150610918565b6040513d5f823e3d90fd5b630ea075bf60e21b5f5260045ffd5b346101a45760203660031901126101a4576004356001600160a01b038116908190036101a4575f52600560205261010060405f2060ff60058201541690818092610a19575b15610a12576109ae600182015442610b81565b905b805491600182015490600483015490600284015492600385015494875f14610a0a576109db90610ffc565b955b6040519715158852602088015260408701526060860152608085015260a084015260c083015260e0820152f35b505f956109dd565b5f906109b0565b506001810154421161099b565b346101a45760203660031901126101a4576004356003548110156101a457610a4d90610b1e565b508054610a7a60026001840154930154604051938493846040919493926060820195825260208201520152565b0390f35b346101a4575f3660031901126101a4575f5f600654905b818110610aa757602083604051908152f35b610ab081610b69565b60018060a01b0391549060031b1c165f52600560205260ff600560405f20015416610ade575b600101610a95565b915f198114610af05760010191610ad6565b634e487b7160e01b5f52601160045260245ffd5b346101a4575f3660031901126101a4576020906003548152f35b600354811015610b555760035f81815291027fc2575a0e9e593c00f959f8c92f12db2869c3395a3b0502d05e2516446f71f85b0191565b634e487b7160e01b5f52603260045260245ffd5b600654811015610b555760065f5260205f2001905f90565b91908203918211610af057565b6060810190811067ffffffffffffffff8211176108e057604052565b90601f8019910116810190811067ffffffffffffffff8211176108e057604052565b91908201809211610af057565b81810292918115918404141715610af057565b8115610bf6570490565b634e487b7160e01b5f52601260045260245ffd5b60018060a01b0316805f52600560205260405f2060ff60058201541615610df9576040516370a0823160e01b8152600481018390526020816024817f00000000000000000000000000000000000000000000000000000000000000006001600160a01b03165afa90811561093c575f91610dc7575b5081548110610d3b578154808211610c98575b50505050565b610d2f827fd8b455e949c1d522b95778231eec1beff214f4fbe062f64b18a86272caaa1fc794610cc88483610b81565b610cf583610cf06001850193610cea610ce286548b610bd9565b914290610bd9565b90610bcc565b610bec565b928392610d0d82610d0889600754610b81565b610bcc565b6007555555604051938493846040919493926060820195825260208201520152565b0390a25f808080610c92565b50602081610d7c610d6c7f488c05909d4e56ae790f1eb8d403a86eee7cf559e6fa940942dbb5890ad0baf994610ffc565b9182610db3575b54600754610b81565b600755835f52600582525f6005604082208281558260018201558260028201558260038201558260048201550155604051908152a2565b610dbf83600454610bcc565b600455610d73565b90506020813d602011610df1575b81610de260209383610baa565b810103126101a457515f610c7f565b3d9150610dd5565b5050565b60018060a01b03165f52600560205260405f2060ff60058201541615610e4c57806001610e419201548042115f14610e4457610e399042610b81565b905b54610bd9565b90565b505f90610e3b565b505f90565b610e5d34600854610bcc565b600855610e6c60045434610bcc565b8015610f3d57610e7a611120565b8015610f37575f6004556003549160405191610e9583610b8e565b81835260208301928184526040810190428252600160401b8610156108e05760018601600355610ec486610b1e565b929092610f24577fd89917fc1a94c47cec7534fffae602f7f5c38d3444fd4cf7df701dd61c1eca1e9560029251845551600184015551910155610f1f6040519283924291846040919493926060820195825260208201520152565b0390a2565b634e487b7160e01b5f525f60045260245ffd5b50600455565b50565b60018060a01b03165f52600560205260405f2060ff60058201541615610f9057806001610f7c9201548042115f14610e4457610e399042610b81565b90610f85611120565b80610e415750600190565b505f90600190565b3d15610fd2573d9067ffffffffffffffff82116108e05760405191610fc7601f8201601f191660200184610baa565b82523d5f602084013e565b606090565b60018060a01b03165f52600560205260405f2060ff60058201541615610e4c57610e41905b5f906003549060028101545b8281106110155750505090565b61101e81610b1e565b5060405161102b81610b8e565b815481526002600183015492602083019384520154806040830152600185015490818111156110b6576110689161106191610b81565b8554610bd9565b9082511515806110ad575b611085575b5050506001905b01611008565b6110a49261109c6001959893610cea935190610bd9565b905190610bec565b93905f80611078565b50811515611073565b5050505060019061107f565b60025f51602061119a5f395f51905f5254146110eb5760025f51602061119a5f395f51905f5255565b633ee5aeb560e01b5f5260045ffd5b5f546001600160a01b0316330361110d57565b63118cdaa760e01b5f523360045260245ffd5b5f6006545f905b80821061113357505090565b909161113e83610b69565b60018060a01b0391549060031b1c165f52600560205260405f2060ff6005820154161561118f57600191610cea82846111869401548042115f14610e4457610e399042610b81565b925b0190611127565b509160019061118856fe9b779b17422d0df92223018b32b4d1fa46e071723d6817e2486d003becc55f00a264697066735822122070834b14305cfb747b4171937eaf2c1fcdb33bd3640f709ad02334bf2dca1ae164736f6c634300081c0033",
  "linkReferences": {},
  "deployedLinkReferences": {}
}