{
  "_format": "hh-sol-artifact-1",
  "contractName": "ReferralVault",
  "sourceName": "contracts/ReferralVault.sol",
  "abi": [
    {
      "inputs": [
        {
          "internalType": "address",
          "name": "_signer",
          "type": "address"
        },
        {
          "internalType": "address",
          "name": "_owner",
          "type": "address"
        }
      ],
      "stateMutability": "nonpayable",
      "type": "constructor"
    },
    {
      "inputs": [],
      "name": "ECDSAInvalidSignature",
      "type": "error"
    },
    {
      "inputs": [
        {
          "internalType": "uint256",
          "name": "length",
          "type": "uint256"
        }
      ],
      "name": "ECDSAInvalidSignatureLength",
      "type": "error"
    },
    {
      "inputs": [
        {
          "internalType": "bytes32",
          "name": "s",
          "type": "bytes32"
        }
      ],
      "name": "ECDSAInvalidSignatureS",
      "type": "error"
    },
    {
      "inputs": [],
      "name": "InvalidShortString",
      "type": "error"
    },
    {
      "inputs": [
        {
          "internalType": "address",
          "name": "owner",
          "type": "address"
        }
      ],
      "name": "OwnableInvalidOwner",
      "type": "error"
    },
    {
      "inputs": [
        {
          "internalType": "address",
          "name": "account",
          "type": "address"
        }
      ],
      "name": "OwnableUnauthorizedAccount",
      "type": "error"
    },
    {
      "inputs": [],
      "name": "ReentrancyGuardReentrantCall",
      "type": "error"
    },
    {
      "inputs": [
        {
          "internalType": "string",
          "name": "str",
          "type": "string"
        }
      ],
      "name": "StringTooLong",
      "type": "error"
    },
    {
      "anonymous": false,
      "inputs": [
        {
          "indexed": true,
          "internalType": "address",
          "name": "user",
          "type": "address"
        },
        {
          "indexed": false,
          "internalType": "uint256",
          "name": "amount",
          "type": "uint256"
        },
        {
          "indexed": false,
          "internalType": "uint256",
          "name": "nonce",
          "type": "uint256"
        }
      ],
      "name": "Claimed",
      "type": "event"
    },
    {
      "anonymous": false,
      "inputs": [
        {
          "indexed": true,
          "internalType": "address",
          "name": "sender",
          "type": "address"
        },
        {
          "indexed": false,
          "internalType": "uint256",
          "name": "amount",
          "type": "uint256"
        }
      ],
      "name": "Deposited",
      "type": "event"
    },
    {
      "anonymous": false,
      "inputs": [],
      "name": "EIP712DomainChanged",
      "type": "event"
    },
    {
      "anonymous": false,
      "inputs": [
        {
          "indexed": true,
          "internalType": "address",
          "name": "previousOwner",
          "type": "address"
        },
        {
          "indexed": true,
          "internalType": "address",
          "name": "newOwner",
          "type": "address"
        }
      ],
      "name": "OwnershipTransferred",
      "type": "event"
    },
    {
      "anonymous": false,
      "inputs": [
        {
          "indexed": true,
          "internalType": "address",
          "name": "user",
          "type": "address"
        },
        {
          "indexed": true,
          "internalType": "address",
          "name": "referrer",
          "type": "address"
        }
      ],
      "name": "ReferrerBound",
      "type": "event"
    },
    {
      "anonymous": false,
      "inputs": [
        {
          "indexed": true,
          "internalType": "address",
          "name": "oldSigner",
          "type": "address"
        },
        {
          "indexed": true,
          "internalType": "address",
          "name": "newSigner",
          "type": "address"
        }
      ],
      "name": "SignerUpdated",
      "type": "event"
    },
    {
      "inputs": [],
      "name": "CLAIM_TYPEHASH",
      "outputs": [
        {
          "internalType": "bytes32",
          "name": "",
          "type": "bytes32"
        }
      ],
      "stateMutability": "view",
      "type": "function"
    },
    {
      "inputs": [
        {
          "internalType": "address",
          "name": "_referrer",
          "type": "address"
        }
      ],
      "name": "bindReferrer",
      "outputs": [],
      "stateMutability": "nonpayable",
      "type": "function"
    },
    {
      "inputs": [
        {
          "internalType": "uint256",
          "name": "_amount",
          "type": "uint256"
        },
        {
          "internalType": "uint256",
          "name": "_nonce",
          "type": "uint256"
        },
        {
          "internalType": "uint256",
          "name": "_deadline",
          "type": "uint256"
        },
        {
          "internalType": "bytes",
          "name": "_sig",
          "type": "bytes"
        }
      ],
      "name": "claim",
      "outputs": [],
      "stateMutability": "nonpayable",
      "type": "function"
    },
    {
      "inputs": [
        {
          "internalType": "address",
          "name": "",
          "type": "address"
        }
      ],
      "name": "claimed",
      "outputs": [
        {
          "internalType": "uint256",
          "name": "",
          "type": "uint256"
        }
      ],
      "stateMutability": "view",
      "type": "function"
    },
    {
      "inputs": [],
      "name": "eip712Domain",
      "outputs": [
        {
          "internalType": "bytes1",
          "name": "fields",
          "type": "bytes1"
        },
        {
          "internalType": "string",
          "name": "name",
          "type": "string"
        },
        {
          "internalType": "string",
          "name": "version",
          "type": "string"
        },
        {
          "internalType": "uint256",
          "name": "chainId",
          "type": "uint256"
        },
        {
          "internalType": "address",
          "name": "verifyingContract",
          "type": "address"
        },
        {
          "internalType": "bytes32",
          "name": "salt",
          "type": "bytes32"
        },
        {
          "internalType": "uint256[]",
          "name": "extensions",
          "type": "uint256[]"
        }
      ],
      "stateMutability": "view",
      "type": "function"
    },
    {
      "inputs": [
        {
          "internalType": "address",
          "name": "",
          "type": "address"
        }
      ],
      "name": "nonces",
      "outputs": [
        {
          "internalType": "uint256",
          "name": "",
          "type": "uint256"
        }
      ],
      "stateMutability": "view",
      "type": "function"
    },
    {
      "inputs": [],
      "name": "owner",
      "outputs": [
        {
          "internalType": "address",
          "name": "",
          "type": "address"
        }
      ],
      "stateMutability": "view",
      "type": "function"
    },
    {
      "inputs": [
        {
          "internalType": "address",
          "name": "",
          "type": "address"
        }
      ],
      "name": "referrerOf",
      "outputs": [
        {
          "internalType": "address",
          "name": "",
          "type": "address"
        }
      ],
      "stateMutability": "view",
      "type": "function"
    },
    {
      "inputs": [],
      "name": "renounceOwnership",
      "outputs": [],
      "stateMutability": "nonpayable",
      "type": "function"
    },
    {
      "inputs": [
        {
          "internalType": "address",
          "name": "_signer",
          "type": "address"
        }
      ],
      "name": "setSigner",
      "outputs": [],
      "stateMutability": "nonpayable",
      "type": "function"
    },
    {
      "inputs": [],
      "name": "signer",
      "outputs": [
        {
          "internalType": "address",
          "name": "",
          "type": "address"
        }
      ],
      "stateMutability": "view",
      "type": "function"
    },
    {
      "inputs": [],
      "name": "totalClaimed",
      "outputs": [
        {
          "internalType": "uint256",
          "name": "",
          "type": "uint256"
        }
      ],
      "stateMutability": "view",
      "type": "function"
    },
    {
      "inputs": [
        {
          "internalType": "address",
          "name": "newOwner",
          "type": "address"
        }
      ],
      "name": "transferOwnership",
      "outputs": [],
      "stateMutability": "nonpayable",
      "type": "function"
    },
    {
      "stateMutability": "payable",
      "type": "receive"
    }
  ],
  "bytecode": "0x61016080604052346102435760408161144b80380380916100208285610247565b8339810103126102435761003f60206100388361027e565b920161027e565b6040519061004e604083610247565b600d8252602082016c149959995c9c985b15985d5b1d609a1b815260405192610078604085610247565b60018452603160f81b60208501908152926001600160a01b03168015610230575f80546001600160a01b03198116831782556001600160a01b0316907f8be0079c531659141344cd1fd0a4f28419497f9722a3daafe3b4186f6b6457e09080a360017f9b779b17422d0df92223018b32b4d1fa46e071723d6817e2486d003becc55f005561010581610292565b610120526101128461042d565b61014052519020918260e05251902080610100524660a0526040519060208201927f8b73c3c69bb8fe3d512ecc4cf759cc79239f7b179b0ffacaa9a75d522b39400f8452604083015260608201524660808201523060a082015260a0815261017b60c082610247565b5190206080523060c0526001600160a01b031680156101f957600380546001600160a01b031916919091179055604051610ee59081610566823960805181610a98015260a05181610b55015260c05181610a62015260e05181610ae701526101005181610b0d0152610120518161024c015261014051816102750152f35b60405162461bcd60e51b815260206004820152600f60248201526e292b1d103d32b9379039b4b3b732b960891b6044820152606490fd5b631e4fbdf760e01b5f525f60045260245ffd5b5f80fd5b601f909101601f19168101906001600160401b0382119082101761026a57604052565b634e487b7160e01b5f52604160045260245ffd5b51906001600160a01b038216820361024357565b908151602081105f1461030c575090601f8151116102cc5760208151910151602082106102bd571790565b5f198260200360031b1b161790565b604460209160405192839163305a27a960e01b83528160048401528051918291826024860152018484015e5f828201840152601f01601f19168101030190fd5b6001600160401b03811161026a57600154600181811c91168015610423575b602082101461040f57601f81116103dc575b50602092601f821160011461037b57928192935f92610370575b50508160011b915f199060031b1c19161760015560ff90565b015190505f80610357565b601f1982169360015f52805f20915f5b8681106103c457508360019596106103ac575b505050811b0160015560ff90565b01515f1960f88460031b161c191690555f808061039e565b9192602060018192868501518155019401920161038b565b60015f52601f60205f20910160051c810190601f830160051c015b818110610404575061033d565b5f81556001016103f7565b634e487b7160e01b5f52602260045260245ffd5b90607f169061032b565b908151602081105f14610458575090601f8151116102cc5760208151910151602082106102bd571790565b6001600160401b03811161026a57600254600181811c9116801561055b575b602082101461040f57601f8111610528575b50602092601f82116001146104c757928192935f926104bc575b50508160011b915f199060031b1c19161760025560ff90565b015190505f806104a3565b601f1982169360025f52805f20915f5b86811061051057508360019596106104f8575b505050811b0160025560ff90565b01515f1960f88460031b161c191690555f80806104ea565b919260206001819286850151815501940192016104d7565b60025f52601f60205f20910160051c810190601f830160051c015b8181106105505750610489565b5f8155600101610543565b90607f169061047756fe6080806040526004361015610048575b50361561001a575f80fd5b6040513481527f2da466a7b24304f47e87fa2e1e5a81b9831ce54fec19055ce277ca2f39ba42c460203392a2005b5f3560e01c90816304f618cb1461087957508063238ac933146108515780636548b7ae146104a65780636b0509b11461046c5780636c19e783146103bf578063715018a6146103685780637ecebe001461032c57806384b0196e146102345780638da5cb5b1461020d578063c884ef83146101d1578063d21cacdf1461018d578063d54ad2a1146101705763f2fde38b146100e3575f61000f565b3461016c57602036600319011261016c576004356001600160a01b0381169081900361016c57610111610a39565b8015610159575f80546001600160a01b03198116831782556001600160a01b0316907f8be0079c531659141344cd1fd0a4f28419497f9722a3daafe3b4186f6b6457e09080a3005b631e4fbdf760e01b5f525f60045260245ffd5b5f80fd5b3461016c575f36600319011261016c576020600754604051908152f35b3461016c57602036600319011261016c576004356001600160a01b0381169081900361016c575f526004602052602060018060a01b0360405f205416604051908152f35b3461016c57602036600319011261016c576004356001600160a01b0381169081900361016c575f526006602052602060405f2054604051908152f35b3461016c575f36600319011261016c575f546040516001600160a01b039091168152602090f35b3461016c575f36600319011261016c576102d06102707f0000000000000000000000000000000000000000000000000000000000000000610c29565b6102997f0000000000000000000000000000000000000000000000000000000000000000610d52565b60206102de604051926102ac83856109da565b5f84525f368137604051958695600f60f81b875260e08588015260e08701906109b6565b9085820360408701526109b6565b4660608501523060808501525f60a085015283810360c08501528180845192838152019301915f5b82811061031557505050500390f35b835185528695509381019392810192600101610306565b3461016c57602036600319011261016c576004356001600160a01b0381169081900361016c575f526005602052602060405f2054604051908152f35b3461016c575f36600319011261016c57610380610a39565b5f80546001600160a01b0319811682556001600160a01b03167f8be0079c531659141344cd1fd0a4f28419497f9722a3daafe3b4186f6b6457e08280a3005b3461016c57602036600319011261016c576004356001600160a01b0381169081900361016c576103ed610a39565b801561043557600354816001600160a01b0382167f2d025324f0a785e8c12d0a0d91a9caa49df4ef20ff87e0df7213a1d4f3157beb5f80a36001600160a01b03191617600355005b60405162461bcd60e51b815260206004820152600f60248201526e292b1d103d32b9379039b4b3b732b960891b6044820152606490fd5b3461016c575f36600319011261016c5760206040517fd12d604cb88c2ba260114956673fa498973e9ec4bd7acd67886835eb5c1f4f2f8152f35b3461016c57608036600319011261016c5760043560243560643560443567ffffffffffffffff821161016c573660238301121561016c5781600401359167ffffffffffffffff831161016c57366024848301011161016c5760027f9b779b17422d0df92223018b32b4d1fa46e071723d6817e2486d003becc55f0054146108425760027f9b779b17422d0df92223018b32b4d1fa46e071723d6817e2486d003becc55f005581421161080f57335f52600560205260405f205484036107d657841561079f57610620925f6020604261061795604051838101917fd12d604cb88c2ba260114956673fa498973e9ec4bd7acd67886835eb5c1f4f2f83523360408301528b60608301528a608083015260a082015260a081526105c860c0826109da565b5190206105d3610a5f565b906040519161190160f01b83526002830152602282015220928060246105f882610a10565b9661060660405198896109da565b828852018387013784010152610b7b565b90929192610bb5565b6003546001600160a01b0390811691160361076257335f52600560205260405f2080545f19811461074e576001019055335f52600660205260405f20610667838254610a2c565b905561067582600754610a2c565b6007555f80808085335af13d15610749573d61069081610a10565b9061069e60405192836109da565b81525f60203d92013e5b156107045760405191825260208201527f987d620f307ff6b94d58743cb7a7509f24071586a77759b77c2d4e29f75a2f9a60403392a260017f9b779b17422d0df92223018b32b4d1fa46e071723d6817e2486d003becc55f0055005b60405162461bcd60e51b815260206004820152601760248201527f52563a20424e42207472616e73666572206661696c65640000000000000000006044820152606490fd5b6106a8565b634e487b7160e01b5f52601160045260245ffd5b60405162461bcd60e51b815260206004820152601560248201527452563a20696e76616c6964207369676e617475726560581b6044820152606490fd5b60405162461bcd60e51b815260206004820152600f60248201526e14958e881e995c9bc8185b5bdd5b9d608a1b6044820152606490fd5b60405162461bcd60e51b815260206004820152601160248201527052563a20696e76616c6964206e6f6e636560781b6044820152606490fd5b60405162461bcd60e51b815260206004820152600b60248201526a14958e88195e1c1a5c995960aa1b6044820152606490fd5b633ee5aeb560e01b5f5260045ffd5b3461016c575f36600319011261016c576003546040516001600160a01b039091168152602090f35b3461016c57602036600319011261016c576004356001600160a01b038116919082900361016c578115610980575033811461094757335f908152600460205260409020546001600160a01b031661090e57335f81815260046020526040812080546001600160a01b031916841790557fc4c2ddb91b0f73749131d376ad37ce7b01a69dc1b477abc09377cf0e1d511b149080a3005b60405162461bcd60e51b815260206004820152601160248201527014958e88185b1c9958591e48189bdd5b99607a1b6044820152606490fd5b60405162461bcd60e51b815260206004820152601160248201527014958e881cd95b19881c9959995c9c985b607a1b6044820152606490fd5b62461bcd60e51b8152602060048201526011602482015270292b1d103d32b937903932b332b93932b960791b6044820152606490fd5b805180835260209291819084018484015e5f828201840152601f01601f1916010190565b90601f8019910116810190811067ffffffffffffffff8211176109fc57604052565b634e487b7160e01b5f52604160045260245ffd5b67ffffffffffffffff81116109fc57601f01601f191660200190565b9190820180921161074e57565b5f546001600160a01b03163303610a4c57565b63118cdaa760e01b5f523360045260245ffd5b307f00000000000000000000000000000000000000000000000000000000000000006001600160a01b03161480610b52575b15610aba577f000000000000000000000000000000000000000000000000000000000000000090565b60405160208101907f8b73c3c69bb8fe3d512ecc4cf759cc79239f7b179b0ffacaa9a75d522b39400f82527f000000000000000000000000000000000000000000000000000000000000000060408201527f000000000000000000000000000000000000000000000000000000000000000060608201524660808201523060a082015260a08152610b4c60c0826109da565b51902090565b507f00000000000000000000000000000000000000000000000000000000000000004614610a91565b8151919060418303610bab57610ba49250602082015190606060408401519301515f1a90610e22565b9192909190565b50505f9160029190565b6004811015610c155780610bc7575050565b60018103610bde5763f645eedf60e01b5f5260045ffd5b60028103610bf9575063fce698f760e01b5f5260045260245ffd5b600314610c035750565b6335e2f38360e21b5f5260045260245ffd5b634e487b7160e01b5f52602160045260245ffd5b60ff8114610c6f5760ff811690601f8211610c605760405191610c4d6040846109da565b6020808452838101919036833783525290565b632cd44ac360e21b5f5260045ffd5b506040515f6001548060011c9160018216918215610d48575b602084108314610d34578385528492908115610d155750600114610cb6575b610cb3925003826109da565b90565b5060015f90815290917fb10e2d527612073b26eecdfd717e6a320cf44b4afac2b0732d9fcbe2b7fa0cf65b818310610cf9575050906020610cb392820101610ca7565b6020919350806001915483858801015201910190918392610ce1565b60209250610cb394915060ff191682840152151560051b820101610ca7565b634e487b7160e01b5f52602260045260245ffd5b92607f1692610c88565b60ff8114610d765760ff811690601f8211610c605760405191610c4d6040846109da565b506040515f6002548060011c9160018216918215610e18575b602084108314610d34578385528492908115610d155750600114610db957610cb3925003826109da565b5060025f90815290917f405787fa12a823e0f2b7631cc41b3ba8828b3321ca811111fa75cd3aa3bb5ace5b818310610dfc575050906020610cb392820101610ca7565b6020919350806001915483858801015201910190918392610de4565b92607f1692610d8f565b91907f7fffffffffffffffffffffffffffffff5d576e7357a4501ddfe92f46681b20a08411610ea4579160209360809260ff5f9560405194855216868401526040830152606082015282805260015afa15610e99575f516001600160a01b03811615610e8f57905f905f90565b505f906001905f90565b6040513d5f823e3d90fd5b5050505f916003919056fea2646970667358221220b5c5c6b8d8b2571292d4afd2126cf4af92e883b5f3226911077d197604d7ff7f64736f6c634300081c0033",
  "linkReferences": {},
  "deployedLinkReferences": {}
}