{
  "_format": "hh-sol-artifact-1",
  "contractName": "ReferralVault",
  "sourceName": "contracts/ReferralVault.sol",
  "abi": [
    {
      "inputs": [
        {
          "internalType": "address",
          "name": "_signer",
          "type": "address"
        },
        {
          "internalType": "address",
          "name": "_owner",
          "type": "address"
        }
      ],
      "stateMutability": "nonpayable",
      "type": "constructor"
    },
    {
      "inputs": [],
      "name": "ECDSAInvalidSignature",
      "type": "error"
    },
    {
      "inputs": [
        {
          "internalType": "uint256",
          "name": "length",
          "type": "uint256"
        }
      ],
      "name": "ECDSAInvalidSignatureLength",
      "type": "error"
    },
    {
      "inputs": [
        {
          "internalType": "bytes32",
          "name": "s",
          "type": "bytes32"
        }
      ],
      "name": "ECDSAInvalidSignatureS",
      "type": "error"
    },
    {
      "inputs": [],
      "name": "InvalidShortString",
      "type": "error"
    },
    {
      "inputs": [
        {
          "internalType": "address",
          "name": "owner",
          "type": "address"
        }
      ],
      "name": "OwnableInvalidOwner",
      "type": "error"
    },
    {
      "inputs": [
        {
          "internalType": "address",
          "name": "account",
          "type": "address"
        }
      ],
      "name": "OwnableUnauthorizedAccount",
      "type": "error"
    },
    {
      "inputs": [],
      "name": "ReentrancyGuardReentrantCall",
      "type": "error"
    },
    {
      "inputs": [
        {
          "internalType": "string",
          "name": "str",
          "type": "string"
        }
      ],
      "name": "StringTooLong",
      "type": "error"
    },
    {
      "anonymous": false,
      "inputs": [
        {
          "indexed": true,
          "internalType": "address",
          "name": "user",
          "type": "address"
        },
        {
          "indexed": false,
          "internalType": "uint256",
          "name": "amount",
          "type": "uint256"
        },
        {
          "indexed": false,
          "internalType": "uint256",
          "name": "nonce",
          "type": "uint256"
        }
      ],
      "name": "Claimed",
      "type": "event"
    },
    {
      "anonymous": false,
      "inputs": [
        {
          "indexed": true,
          "internalType": "address",
          "name": "sender",
          "type": "address"
        },
        {
          "indexed": false,
          "internalType": "uint256",
          "name": "amount",
          "type": "uint256"
        }
      ],
      "name": "Deposited",
      "type": "event"
    },
    {
      "anonymous": false,
      "inputs": [],
      "name": "EIP712DomainChanged",
      "type": "event"
    },
    {
      "anonymous": false,
      "inputs": [
        {
          "indexed": true,
          "internalType": "address",
          "name": "previousOwner",
          "type": "address"
        },
        {
          "indexed": true,
          "internalType": "address",
          "name": "newOwner",
          "type": "address"
        }
      ],
      "name": "OwnershipTransferred",
      "type": "event"
    },
    {
      "anonymous": false,
      "inputs": [
        {
          "indexed": true,
          "internalType": "address",
          "name": "user",
          "type": "address"
        },
        {
          "indexed": true,
          "internalType": "address",
          "name": "referrer",
          "type": "address"
        }
      ],
      "name": "ReferrerBound",
      "type": "event"
    },
    {
      "anonymous": false,
      "inputs": [
        {
          "indexed": true,
          "internalType": "address",
          "name": "oldSigner",
          "type": "address"
        },
        {
          "indexed": true,
          "internalType": "address",
          "name": "newSigner",
          "type": "address"
        }
      ],
      "name": "SignerUpdated",
      "type": "event"
    },
    {
      "inputs": [],
      "name": "CLAIM_TYPEHASH",
      "outputs": [
        {
          "internalType": "bytes32",
          "name": "",
          "type": "bytes32"
        }
      ],
      "stateMutability": "view",
      "type": "function"
    },
    {
      "inputs": [
        {
          "internalType": "address",
          "name": "_referrer",
          "type": "address"
        }
      ],
      "name": "bindReferrer",
      "outputs": [],
      "stateMutability": "nonpayable",
      "type": "function"
    },
    {
      "inputs": [
        {
          "internalType": "uint256",
          "name": "_amount",
          "type": "uint256"
        },
        {
          "internalType": "uint256",
          "name": "_nonce",
          "type": "uint256"
        },
        {
          "internalType": "uint256",
          "name": "_deadline",
          "type": "uint256"
        },
        {
          "internalType": "bytes",
          "name": "_sig",
          "type": "bytes"
        }
      ],
      "name": "claim",
      "outputs": [],
      "stateMutability": "nonpayable",
      "type": "function"
    },
    {
      "inputs": [
        {
          "internalType": "address",
          "name": "",
          "type": "address"
        }
      ],
      "name": "claimed",
      "outputs": [
        {
          "internalType": "uint256",
          "name": "",
          "type": "uint256"
        }
      ],
      "stateMutability": "view",
      "type": "function"
    },
    {
      "inputs": [],
      "name": "eip712Domain",
      "outputs": [
        {
          "internalType": "bytes1",
          "name": "fields",
          "type": "bytes1"
        },
        {
          "internalType": "string",
          "name": "name",
          "type": "string"
        },
        {
          "internalType": "string",
          "name": "version",
          "type": "string"
        },
        {
          "internalType": "uint256",
          "name": "chainId",
          "type": "uint256"
        },
        {
          "internalType": "address",
          "name": "verifyingContract",
          "type": "address"
        },
        {
          "internalType": "bytes32",
          "name": "salt",
          "type": "bytes32"
        },
        {
          "internalType": "uint256[]",
          "name": "extensions",
          "type": "uint256[]"
        }
      ],
      "stateMutability": "view",
      "type": "function"
    },
    {
      "inputs": [
        {
          "internalType": "address",
          "name": "",
          "type": "address"
        }
      ],
      "name": "nonces",
      "outputs": [
        {
          "internalType": "uint256",
          "name": "",
          "type": "uint256"
        }
      ],
      "stateMutability": "view",
      "type": "function"
    },
    {
      "inputs": [],
      "name": "owner",
      "outputs": [
        {
          "internalType": "address",
          "name": "",
          "type": "address"
        }
      ],
      "stateMutability": "view",
      "type": "function"
    },
    {
      "inputs": [
        {
          "internalType": "address",
          "name": "",
          "type": "address"
        }
      ],
      "name": "referrerOf",
      "outputs": [
        {
          "internalType": "address",
          "name": "",
          "type": "address"
        }
      ],
      "stateMutability": "view",
      "type": "function"
    },
    {
      "inputs": [],
      "name": "renounceOwnership",
      "outputs": [],
      "stateMutability": "nonpayable",
      "type": "function"
    },
    {
      "inputs": [
        {
          "internalType": "address",
          "name": "_signer",
          "type": "address"
        }
      ],
      "name": "setSigner",
      "outputs": [],
      "stateMutability": "nonpayable",
      "type": "function"
    },
    {
      "inputs": [],
      "name": "signer",
      "outputs": [
        {
          "internalType": "address",
          "name": "",
          "type": "address"
        }
      ],
      "stateMutability": "view",
      "type": "function"
    },
    {
      "inputs": [],
      "name": "totalClaimed",
      "outputs": [
        {
          "internalType": "uint256",
          "name": "",
          "type": "uint256"
        }
      ],
      "stateMutability": "view",
      "type": "function"
    },
    {
      "inputs": [
        {
          "internalType": "address",
          "name": "newOwner",
          "type": "address"
        }
      ],
      "name": "transferOwnership",
      "outputs": [],
      "stateMutability": "nonpayable",
      "type": "function"
    },
    {
      "stateMutability": "payable",
      "type": "receive"
    }
  ],
  "bytecode": "0x610160604052348015610010575f5ffd5b5060405161159e38038061159e83398101604081905261002f916102bf565b604080518082018252600d81526c149959995c9c985b15985d5b1d609a1b602080830191909152825180840190935260018352603160f81b9083015290826001600160a01b03811661009b57604051631e4fbdf760e01b81525f60048201526024015b60405180910390fd5b6100a4816101e6565b5060017f9b779b17422d0df92223018b32b4d1fa46e071723d6817e2486d003becc55f00556100d4826001610235565b610120526100e3816002610235565b61014052815160208084019190912060e052815190820120610100524660a05261016f60e05161010051604080517f8b73c3c69bb8fe3d512ecc4cf759cc79239f7b179b0ffacaa9a75d522b39400f60208201529081019290925260608201524660808201523060a08201525f9060c00160405160208183030381529060405280519060200120905090565b60805250503060c0526001600160a01b0382166101c05760405162461bcd60e51b815260206004820152600f60248201526e292b1d103d32b9379039b4b3b732b960891b6044820152606401610092565b50600380546001600160a01b0319166001600160a01b039290921691909117905561049a565b5f80546001600160a01b038381166001600160a01b0319831681178455604051919092169283917f8be0079c531659141344cd1fd0a4f28419497f9722a3daafe3b4186f6b6457e09190a35050565b5f6020835110156102505761024983610267565b9050610261565b8161025b8482610388565b5060ff90505b92915050565b5f5f829050601f81511115610291578260405163305a27a960e01b81526004016100929190610442565b805161029c82610477565b179392505050565b80516001600160a01b03811681146102ba575f5ffd5b919050565b5f5f604083850312156102d0575f5ffd5b6102d9836102a4565b91506102e7602084016102a4565b90509250929050565b634e487b7160e01b5f52604160045260245ffd5b600181811c9082168061031857607f821691505b60208210810361033657634e487b7160e01b5f52602260045260245ffd5b50919050565b601f82111561038357805f5260205f20601f840160051c810160208510156103615750805b601f840160051c820191505b81811015610380575f815560010161036d565b50505b505050565b81516001600160401b038111156103a1576103a16102f0565b6103b5816103af8454610304565b8461033c565b6020601f8211600181146103e7575f83156103d05750848201515b5f19600385901b1c1916600184901b178455610380565b5f84815260208120601f198516915b8281101561041657878501518255602094850194600190920191016103f6565b508482101561043357868401515f19600387901b60f8161c191681555b50505050600190811b01905550565b602081525f82518060208401528060208501604085015e5f604082850101526040601f19601f83011684010191505092915050565b80516020808301519190811015610336575f1960209190910360031b1b16919050565b60805160a05160c05160e0516101005161012051610140516110b36104eb5f395f610a0f01525f6109dd01525f610b5001525f610b2801525f610a8301525f610aad01525f610ad701526110b35ff3fe6080604052600436106100c2575f3560e01c80637ecebe001161007c578063c884ef8311610057578063c884ef8314610260578063d21cacdf1461028b578063d54ad2a1146102bf578063f2fde38b146102d4575f5ffd5b80637ecebe00146101f257806384b0196e1461021d5780638da5cb5b14610244575f5ffd5b806304f618cb14610102578063238ac933146101235780636548b7ae1461015f5780636b0509b11461017e5780636c19e783146101bf578063715018a6146101de575f5ffd5b366100fe5760405134815233907f2da466a7b24304f47e87fa2e1e5a81b9831ce54fec19055ce277ca2f39ba42c49060200160405180910390a2005b5f5ffd5b34801561010d575f5ffd5b5061012161011c366004610e7a565b6102f3565b005b34801561012e575f5ffd5b50600354610142906001600160a01b031681565b6040516001600160a01b0390911681526020015b60405180910390f35b34801561016a575f5ffd5b50610121610179366004610ea7565b61043d565b348015610189575f5ffd5b506101b17fd12d604cb88c2ba260114956673fa498973e9ec4bd7acd67886835eb5c1f4f2f81565b604051908152602001610156565b3480156101ca575f5ffd5b506101216101d9366004610e7a565b6106f2565b3480156101e9575f5ffd5b5061012161079d565b3480156101fd575f5ffd5b506101b161020c366004610e7a565b60056020525f908152604090205481565b348015610228575f5ffd5b506102316107b0565b6040516101569796959493929190610f5c565b34801561024f575f5ffd5b505f546001600160a01b0316610142565b34801561026b575f5ffd5b506101b161027a366004610e7a565b60066020525f908152604090205481565b348015610296575f5ffd5b506101426102a5366004610e7a565b60046020525f90815260409020546001600160a01b031681565b3480156102ca575f5ffd5b506101b160075481565b3480156102df575f5ffd5b506101216102ee366004610e7a565b6107f2565b6001600160a01b0381166103425760405162461bcd60e51b8152602060048201526011602482015270292b1d103d32b937903932b332b93932b960791b60448201526064015b60405180910390fd5b336001600160a01b0382160361038e5760405162461bcd60e51b815260206004820152601160248201527014958e881cd95b19881c9959995c9c985b607a1b6044820152606401610339565b335f908152600460205260409020546001600160a01b0316156103e75760405162461bcd60e51b815260206004820152601160248201527014958e88185b1c9958591e48189bdd5b99607a1b6044820152606401610339565b335f8181526004602052604080822080546001600160a01b0319166001600160a01b03861690811790915590519092917fc4c2ddb91b0f73749131d376ad37ce7b01a69dc1b477abc09377cf0e1d511b1491a350565b61044561082f565b824211156104835760405162461bcd60e51b815260206004820152600b60248201526a14958e88195e1c1a5c995960aa1b6044820152606401610339565b335f9081526005602052604090205484146104d45760405162461bcd60e51b815260206004820152601160248201527052563a20696e76616c6964206e6f6e636560781b6044820152606401610339565b5f85116105155760405162461bcd60e51b815260206004820152600f60248201526e14958e881e995c9bc8185b5bdd5b9d608a1b6044820152606401610339565b604080517fd12d604cb88c2ba260114956673fa498973e9ec4bd7acd67886835eb5c1f4f2f60208201523391810191909152606081018690526080810185905260a081018490525f9060c0016040516020818303038152906040528051906020012090505f6105838261085d565b90505f6105c785858080601f0160208091040260200160405190810160405280939291908181526020018383808284375f92019190915250869392505061088f9050565b6003549091506001600160a01b0380831691161461061f5760405162461bcd60e51b815260206004820152601560248201527452563a20696e76616c6964207369676e617475726560581b6044820152606401610339565b335f90815260056020526040812080549161063983611006565b9091555050335f90815260066020526040812080548a929061065c90849061101e565b925050819055508760075f828254610674919061101e565b90915550610684905033896108b7565b604080518981526020810189905233917f987d620f307ff6b94d58743cb7a7509f24071586a77759b77c2d4e29f75a2f9a910160405180910390a25050506106eb60017f9b779b17422d0df92223018b32b4d1fa46e071723d6817e2486d003becc55f0055565b5050505050565b6106fa61095b565b6001600160a01b0381166107425760405162461bcd60e51b815260206004820152600f60248201526e292b1d103d32b9379039b4b3b732b960891b6044820152606401610339565b6003546040516001600160a01b038084169216907f2d025324f0a785e8c12d0a0d91a9caa49df4ef20ff87e0df7213a1d4f3157beb905f90a3600380546001600160a01b0319166001600160a01b0392909216919091179055565b6107a561095b565b6107ae5f610987565b565b5f6060805f5f5f60606107c16109d6565b6107c9610a08565b604080515f80825260208201909252600f60f81b9b939a50919850469750309650945092509050565b6107fa61095b565b6001600160a01b03811661082357604051631e4fbdf760e01b81525f6004820152602401610339565b61082c81610987565b50565b610837610a35565b60027f9b779b17422d0df92223018b32b4d1fa46e071723d6817e2486d003becc55f0055565b5f610889610869610a77565b8360405161190160f01b8152600281019290925260228201526042902090565b92915050565b5f5f5f5f61089d8686610ba0565b9250925092506108ad8282610be9565b5090949350505050565b5f826001600160a01b0316826040515f6040518083038185875af1925050503d805f8114610900576040519150601f19603f3d011682016040523d82523d5f602084013e610905565b606091505b50509050806109565760405162461bcd60e51b815260206004820152601760248201527f52563a20424e42207472616e73666572206661696c65640000000000000000006044820152606401610339565b505050565b5f546001600160a01b031633146107ae5760405163118cdaa760e01b8152336004820152602401610339565b5f80546001600160a01b038381166001600160a01b0319831681178455604051919092169283917f8be0079c531659141344cd1fd0a4f28419497f9722a3daafe3b4186f6b6457e09190a35050565b6060610a037f00000000000000000000000000000000000000000000000000000000000000006001610ca5565b905090565b6060610a037f00000000000000000000000000000000000000000000000000000000000000006002610ca5565b7f9b779b17422d0df92223018b32b4d1fa46e071723d6817e2486d003becc55f00546002036107ae57604051633ee5aeb560e01b815260040160405180910390fd5b5f306001600160a01b037f000000000000000000000000000000000000000000000000000000000000000016148015610acf57507f000000000000000000000000000000000000000000000000000000000000000046145b15610af957507f000000000000000000000000000000000000000000000000000000000000000090565b610a03604080517f8b73c3c69bb8fe3d512ecc4cf759cc79239f7b179b0ffacaa9a75d522b39400f60208201527f0000000000000000000000000000000000000000000000000000000000000000918101919091527f000000000000000000000000000000000000000000000000000000000000000060608201524660808201523060a08201525f9060c00160405160208183030381529060405280519060200120905090565b5f5f5f8351604103610bd7576020840151604085015160608601515f1a610bc988828585610d4e565b955095509550505050610be2565b505081515f91506002905b9250925092565b5f826003811115610bfc57610bfc611031565b03610c05575050565b6001826003811115610c1957610c19611031565b03610c375760405163f645eedf60e01b815260040160405180910390fd5b6002826003811115610c4b57610c4b611031565b03610c6c5760405163fce698f760e01b815260048101829052602401610339565b6003826003811115610c8057610c80611031565b03610ca1576040516335e2f38360e21b815260048101829052602401610339565b5050565b606060ff8314610cbf57610cb883610e16565b9050610889565b818054610ccb90611045565b80601f0160208091040260200160405190810160405280929190818152602001828054610cf790611045565b8015610d425780601f10610d1957610100808354040283529160200191610d42565b820191905f5260205f20905b815481529060010190602001808311610d2557829003601f168201915b50505050509050610889565b5f80807f7fffffffffffffffffffffffffffffff5d576e7357a4501ddfe92f46681b20a0841115610d8757505f91506003905082610e0c565b604080515f808252602082018084528a905260ff891692820192909252606081018790526080810186905260019060a0016020604051602081039080840390855afa158015610dd8573d5f5f3e3d5ffd5b5050604051601f1901519150506001600160a01b038116610e0357505f925060019150829050610e0c565b92505f91508190505b9450945094915050565b60605f610e2283610e53565b6040805160208082528183019092529192505f91906020820181803683375050509182525060208101929092525090565b5f60ff8216601f81111561088957604051632cd44ac360e21b815260040160405180910390fd5b5f60208284031215610e8a575f5ffd5b81356001600160a01b0381168114610ea0575f5ffd5b9392505050565b5f5f5f5f5f60808688031215610ebb575f5ffd5b853594506020860135935060408601359250606086013567ffffffffffffffff811115610ee6575f5ffd5b8601601f81018813610ef6575f5ffd5b803567ffffffffffffffff811115610f0c575f5ffd5b886020828401011115610f1d575f5ffd5b959894975092955050506020019190565b5f81518084528060208401602086015e5f602082860101526020601f19601f83011685010191505092915050565b60ff60f81b8816815260e060208201525f610f7a60e0830189610f2e565b8281036040840152610f8c8189610f2e565b606084018890526001600160a01b038716608085015260a0840186905283810360c0850152845180825260208087019350909101905f5b81811015610fe1578351835260209384019390920191600101610fc3565b50909b9a5050505050505050505050565b634e487b7160e01b5f52601160045260245ffd5b5f6001820161101757611017610ff2565b5060010190565b8082018082111561088957610889610ff2565b634e487b7160e01b5f52602160045260245ffd5b600181811c9082168061105957607f821691505b60208210810361107757634e487b7160e01b5f52602260045260245ffd5b5091905056fea26469706673582212209a54e9f56a49272647ad5677efb3e6ddf180ab84ed60552e1b1a8619b52946cf64736f6c634300081c0033",
  "linkReferences": {},
  "deployedLinkReferences": {}
}