{
  "_format": "hh-sol-artifact-1",
  "contractName": "MasterVault",
  "sourceName": "contracts/MasterVault.sol",
  "abi": [
    {
      "inputs": [
        {
          "internalType": "address",
          "name": "_lpRewardVault",
          "type": "address"
        },
        {
          "internalType": "address",
          "name": "_referralVault",
          "type": "address"
        },
        {
          "internalType": "address",
          "name": "_marketingVault",
          "type": "address"
        },
        {
          "internalType": "address",
          "name": "_owner",
          "type": "address"
        }
      ],
      "stateMutability": "nonpayable",
      "type": "constructor"
    },
    {
      "inputs": [
        {
          "internalType": "address",
          "name": "owner",
          "type": "address"
        }
      ],
      "name": "OwnableInvalidOwner",
      "type": "error"
    },
    {
      "inputs": [
        {
          "internalType": "address",
          "name": "account",
          "type": "address"
        }
      ],
      "name": "OwnableUnauthorizedAccount",
      "type": "error"
    },
    {
      "inputs": [],
      "name": "ReentrancyGuardReentrantCall",
      "type": "error"
    },
    {
      "anonymous": false,
      "inputs": [
        {
          "indexed": false,
          "internalType": "uint256",
          "name": "lpBps",
          "type": "uint256"
        },
        {
          "indexed": false,
          "internalType": "uint256",
          "name": "referralBps",
          "type": "uint256"
        },
        {
          "indexed": false,
          "internalType": "uint256",
          "name": "marketingBps",
          "type": "uint256"
        }
      ],
      "name": "AllocationUpdated",
      "type": "event"
    },
    {
      "anonymous": false,
      "inputs": [
        {
          "indexed": false,
          "internalType": "uint256",
          "name": "toLp",
          "type": "uint256"
        },
        {
          "indexed": false,
          "internalType": "uint256",
          "name": "toReferral",
          "type": "uint256"
        },
        {
          "indexed": false,
          "internalType": "uint256",
          "name": "toMarketing",
          "type": "uint256"
        },
        {
          "indexed": false,
          "internalType": "uint256",
          "name": "timestamp",
          "type": "uint256"
        }
      ],
      "name": "Distributed",
      "type": "event"
    },
    {
      "anonymous": false,
      "inputs": [
        {
          "indexed": true,
          "internalType": "address",
          "name": "previousOwner",
          "type": "address"
        },
        {
          "indexed": true,
          "internalType": "address",
          "name": "newOwner",
          "type": "address"
        }
      ],
      "name": "OwnershipTransferred",
      "type": "event"
    },
    {
      "anonymous": false,
      "inputs": [
        {
          "indexed": true,
          "internalType": "address",
          "name": "sender",
          "type": "address"
        },
        {
          "indexed": false,
          "internalType": "uint256",
          "name": "amount",
          "type": "uint256"
        }
      ],
      "name": "Received",
      "type": "event"
    },
    {
      "anonymous": false,
      "inputs": [
        {
          "indexed": false,
          "internalType": "address",
          "name": "lpRewardVault",
          "type": "address"
        },
        {
          "indexed": false,
          "internalType": "address",
          "name": "referralVault",
          "type": "address"
        },
        {
          "indexed": false,
          "internalType": "address",
          "name": "marketingVault",
          "type": "address"
        }
      ],
      "name": "RecipientsUpdated",
      "type": "event"
    },
    {
      "stateMutability": "payable",
      "type": "fallback"
    },
    {
      "inputs": [],
      "name": "TOTAL_BPS",
      "outputs": [
        {
          "internalType": "uint256",
          "name": "",
          "type": "uint256"
        }
      ],
      "stateMutability": "view",
      "type": "function"
    },
    {
      "inputs": [],
      "name": "distribute",
      "outputs": [],
      "stateMutability": "nonpayable",
      "type": "function"
    },
    {
      "inputs": [],
      "name": "lpBps",
      "outputs": [
        {
          "internalType": "uint256",
          "name": "",
          "type": "uint256"
        }
      ],
      "stateMutability": "view",
      "type": "function"
    },
    {
      "inputs": [],
      "name": "lpRewardVault",
      "outputs": [
        {
          "internalType": "address",
          "name": "",
          "type": "address"
        }
      ],
      "stateMutability": "view",
      "type": "function"
    },
    {
      "inputs": [],
      "name": "marketingBps",
      "outputs": [
        {
          "internalType": "uint256",
          "name": "",
          "type": "uint256"
        }
      ],
      "stateMutability": "view",
      "type": "function"
    },
    {
      "inputs": [],
      "name": "marketingVault",
      "outputs": [
        {
          "internalType": "address",
          "name": "",
          "type": "address"
        }
      ],
      "stateMutability": "view",
      "type": "function"
    },
    {
      "inputs": [],
      "name": "owner",
      "outputs": [
        {
          "internalType": "address",
          "name": "",
          "type": "address"
        }
      ],
      "stateMutability": "view",
      "type": "function"
    },
    {
      "inputs": [],
      "name": "referralBps",
      "outputs": [
        {
          "internalType": "uint256",
          "name": "",
          "type": "uint256"
        }
      ],
      "stateMutability": "view",
      "type": "function"
    },
    {
      "inputs": [],
      "name": "referralVault",
      "outputs": [
        {
          "internalType": "address",
          "name": "",
          "type": "address"
        }
      ],
      "stateMutability": "view",
      "type": "function"
    },
    {
      "inputs": [],
      "name": "renounceOwnership",
      "outputs": [],
      "stateMutability": "nonpayable",
      "type": "function"
    },
    {
      "inputs": [
        {
          "internalType": "uint256",
          "name": "_lpBps",
          "type": "uint256"
        },
        {
          "internalType": "uint256",
          "name": "_referralBps",
          "type": "uint256"
        },
        {
          "internalType": "uint256",
          "name": "_marketingBps",
          "type": "uint256"
        }
      ],
      "name": "setAllocation",
      "outputs": [],
      "stateMutability": "nonpayable",
      "type": "function"
    },
    {
      "inputs": [
        {
          "internalType": "address",
          "name": "_lpRewardVault",
          "type": "address"
        },
        {
          "internalType": "address",
          "name": "_referralVault",
          "type": "address"
        },
        {
          "internalType": "address",
          "name": "_marketingVault",
          "type": "address"
        }
      ],
      "name": "setRecipients",
      "outputs": [],
      "stateMutability": "nonpayable",
      "type": "function"
    },
    {
      "inputs": [],
      "name": "totalDistributedToLP",
      "outputs": [
        {
          "internalType": "uint256",
          "name": "",
          "type": "uint256"
        }
      ],
      "stateMutability": "view",
      "type": "function"
    },
    {
      "inputs": [],
      "name": "totalDistributedToMarketing",
      "outputs": [
        {
          "internalType": "uint256",
          "name": "",
          "type": "uint256"
        }
      ],
      "stateMutability": "view",
      "type": "function"
    },
    {
      "inputs": [],
      "name": "totalDistributedToReferral",
      "outputs": [
        {
          "internalType": "uint256",
          "name": "",
          "type": "uint256"
        }
      ],
      "stateMutability": "view",
      "type": "function"
    },
    {
      "inputs": [],
      "name": "totalReceived",
      "outputs": [
        {
          "internalType": "uint256",
          "name": "",
          "type": "uint256"
        }
      ],
      "stateMutability": "view",
      "type": "function"
    },
    {
      "inputs": [
        {
          "internalType": "address",
          "name": "newOwner",
          "type": "address"
        }
      ],
      "name": "transferOwnership",
      "outputs": [],
      "stateMutability": "nonpayable",
      "type": "function"
    },
    {
      "stateMutability": "payable",
      "type": "receive"
    }
  ],
  "bytecode": "0x60806040526110be6001556110be600255610594600355348015610021575f5ffd5b50604051610ca8380380610ca883398101604081905261004091610223565b806001600160a01b03811661006f57604051631e4fbdf760e01b81525f60048201526024015b60405180910390fd5b610078816101b9565b5060017f9b779b17422d0df92223018b32b4d1fa46e071723d6817e2486d003becc55f00556001600160a01b0384166100e15760405162461bcd60e51b815260206004820152600b60248201526a04d563a207a65726f206c760ac1b6044820152606401610066565b6001600160a01b03831661012b5760405162461bcd60e51b815260206004820152601160248201527013558e881e995c9bc81c9959995c9c985b607a1b6044820152606401610066565b6001600160a01b0382166101765760405162461bcd60e51b81526020600482015260126024820152714d563a207a65726f206d61726b6574696e6760701b6044820152606401610066565b50600480546001600160a01b039485166001600160a01b031991821617909155600580549385169382169390931790925560068054919093169116179055610274565b5f80546001600160a01b038381166001600160a01b0319831681178455604051919092169283917f8be0079c531659141344cd1fd0a4f28419497f9722a3daafe3b4186f6b6457e09190a35050565b80516001600160a01b038116811461021e575f5ffd5b919050565b5f5f5f5f60808587031215610236575f5ffd5b61023f85610208565b935061024d60208601610208565b925061025b60408601610208565b915061026960608601610208565b905092959194509250565b610a27806102815f395ff3fe608060405260043610610101575f3560e01c8063715018a611610094578063ba51e78611610063578063ba51e786146102b1578063d3cd52bc146102d0578063e4fc6b6d146102e5578063f2fde38b146102f9578063fcd0251b1461031857610153565b8063715018a6146102575780638da5cb5b1461026b578063a3c2c46214610287578063ab2fd6001461029c57610153565b80634c265a13116100d05780634c265a13146101d75780635d41f8e41461020e57806366e3540a14610223578063683a01691461023857610153565b8063088ff0771461016457806315d75b591461018c5780631fbb6ff0146101ad57806329f827da146101c257610153565b36610153573460075f82825461011791906108eb565b909155505060405134815233907f88a5966d370b9919b20f3e2c13ff65706f196a4e32cc2c12bf57088f885258749060200160405180910390a2005b3460075f82825461011791906108eb565b34801561016f575f5ffd5b5061017960095481565b6040519081526020015b60405180910390f35b348015610197575f5ffd5b506101ab6101a6366004610904565b610337565b005b3480156101b8575f5ffd5b5061017960025481565b3480156101cd575f5ffd5b5061017960085481565b3480156101e2575f5ffd5b506006546101f6906001600160a01b031681565b6040516001600160a01b039091168152602001610183565b348015610219575f5ffd5b5061017960015481565b34801561022e575f5ffd5b5061017960035481565b348015610243575f5ffd5b506004546101f6906001600160a01b031681565b348015610262575f5ffd5b506101ab6103ff565b348015610276575f5ffd5b505f546001600160a01b03166101f6565b348015610292575f5ffd5b5061017960075481565b3480156102a7575f5ffd5b50610179600a5481565b3480156102bc575f5ffd5b506005546101f6906001600160a01b031681565b3480156102db575f5ffd5b5061017961271081565b3480156102f0575f5ffd5b506101ab610412565b348015610304575f5ffd5b506101ab610313366004610948565b6105b8565b348015610323575f5ffd5b506101ab610332366004610968565b6105f5565b61033f610752565b6127108161034d84866108eb565b61035791906108eb565b146103a95760405162461bcd60e51b815260206004820152601960248201527f4d563a20627073206d7573742073756d20746f2031303030300000000000000060448201526064015b60405180910390fd5b60018390556002829055600381905560408051848152602081018490529081018290527f21c55dfccedf7a8f464081b4c32abf493ebe4c9a653d37fd29365b3775a79cfd906060015b60405180910390a1505050565b610407610752565b6104105f61077e565b565b61041a6107cd565b47806104685760405162461bcd60e51b815260206004820152601960248201527f4d563a206e6f7468696e6720746f20646973747269627574650000000000000060448201526064016103a0565b5f6127106001548361047a91906109a8565b61048491906109bf565b90505f6127106002548461049891906109a8565b6104a291906109bf565b90505f816104b084866109de565b6104ba91906109de565b90508260085f8282546104cd91906108eb565b925050819055508160095f8282546104e591906108eb565b9250508190555080600a5f8282546104fd91906108eb565b9091555050600454610518906001600160a01b0316846107fb565b60055461052e906001600160a01b0316836107fb565b600654610544906001600160a01b0316826107fb565b60408051848152602081018490529081018290524260608201527ff7576d8c2653e9d07af5ef229acf59b339e327d4e0eaddb4a96615534cf148f89060800160405180910390a15050505061041060017f9b779b17422d0df92223018b32b4d1fa46e071723d6817e2486d003becc55f0055565b6105c0610752565b6001600160a01b0381166105e957604051631e4fbdf760e01b81525f60048201526024016103a0565b6105f28161077e565b50565b6105fd610752565b6001600160a01b0383166106415760405162461bcd60e51b815260206004820152600b60248201526a04d563a207a65726f206c760ac1b60448201526064016103a0565b6001600160a01b03821661068b5760405162461bcd60e51b815260206004820152601160248201527013558e881e995c9bc81c9959995c9c985b607a1b60448201526064016103a0565b6001600160a01b0381166106d65760405162461bcd60e51b81526020600482015260126024820152714d563a207a65726f206d61726b6574696e6760701b60448201526064016103a0565b600480546001600160a01b038581166001600160a01b0319928316811790935560058054868316908416811790915560068054928616929093168217909255604080519384526020840192909252908201527fec281be185293b0327cfe7ac0590abd3cef1fa7d5b8024c3c2bca20b563b3b84906060016103f2565b5f546001600160a01b031633146104105760405163118cdaa760e01b81523360048201526024016103a0565b5f80546001600160a01b038381166001600160a01b0319831681178455604051919092169283917f8be0079c531659141344cd1fd0a4f28419497f9722a3daafe3b4186f6b6457e09190a35050565b6107d5610895565b60027f9b779b17422d0df92223018b32b4d1fa46e071723d6817e2486d003becc55f0055565b5f826001600160a01b0316826040515f6040518083038185875af1925050503d805f8114610844576040519150601f19603f3d011682016040523d82523d5f602084013e610849565b606091505b50509050806108905760405162461bcd60e51b815260206004820152601360248201527213558e881d1c985b9cd9995c8819985a5b1959606a1b60448201526064016103a0565b505050565b7f9b779b17422d0df92223018b32b4d1fa46e071723d6817e2486d003becc55f005460020361041057604051633ee5aeb560e01b815260040160405180910390fd5b634e487b7160e01b5f52601160045260245ffd5b808201808211156108fe576108fe6108d7565b92915050565b5f5f5f60608486031215610916575f5ffd5b505081359360208301359350604090920135919050565b80356001600160a01b0381168114610943575f5ffd5b919050565b5f60208284031215610958575f5ffd5b6109618261092d565b9392505050565b5f5f5f6060848603121561097a575f5ffd5b6109838461092d565b92506109916020850161092d565b915061099f6040850161092d565b90509250925092565b80820281158282048414176108fe576108fe6108d7565b5f826109d957634e487b7160e01b5f52601260045260245ffd5b500490565b818103818111156108fe576108fe6108d756fea26469706673582212207e68effb7f43bda7fb373241a48a2fa234b4ac230ee2d5a544a3b8c49bb4fb5b64736f6c634300081c0033",
  "linkReferences": {},
  "deployedLinkReferences": {}
}