{
  "_format": "hh-sol-artifact-1",
  "contractName": "MasterVault",
  "sourceName": "contracts/MasterVault.sol",
  "abi": [
    {
      "inputs": [
        {
          "internalType": "address",
          "name": "_lpRewardVault",
          "type": "address"
        },
        {
          "internalType": "address",
          "name": "_referralVault",
          "type": "address"
        },
        {
          "internalType": "address",
          "name": "_marketingVault",
          "type": "address"
        },
        {
          "internalType": "address",
          "name": "_owner",
          "type": "address"
        }
      ],
      "stateMutability": "nonpayable",
      "type": "constructor"
    },
    {
      "inputs": [
        {
          "internalType": "address",
          "name": "owner",
          "type": "address"
        }
      ],
      "name": "OwnableInvalidOwner",
      "type": "error"
    },
    {
      "inputs": [
        {
          "internalType": "address",
          "name": "account",
          "type": "address"
        }
      ],
      "name": "OwnableUnauthorizedAccount",
      "type": "error"
    },
    {
      "inputs": [],
      "name": "ReentrancyGuardReentrantCall",
      "type": "error"
    },
    {
      "anonymous": false,
      "inputs": [
        {
          "indexed": false,
          "internalType": "uint256",
          "name": "lpBps",
          "type": "uint256"
        },
        {
          "indexed": false,
          "internalType": "uint256",
          "name": "referralBps",
          "type": "uint256"
        },
        {
          "indexed": false,
          "internalType": "uint256",
          "name": "marketingBps",
          "type": "uint256"
        }
      ],
      "name": "AllocationUpdated",
      "type": "event"
    },
    {
      "anonymous": false,
      "inputs": [
        {
          "indexed": false,
          "internalType": "uint256",
          "name": "toLp",
          "type": "uint256"
        },
        {
          "indexed": false,
          "internalType": "uint256",
          "name": "toReferral",
          "type": "uint256"
        },
        {
          "indexed": false,
          "internalType": "uint256",
          "name": "toMarketing",
          "type": "uint256"
        },
        {
          "indexed": false,
          "internalType": "uint256",
          "name": "timestamp",
          "type": "uint256"
        }
      ],
      "name": "Distributed",
      "type": "event"
    },
    {
      "anonymous": false,
      "inputs": [
        {
          "indexed": true,
          "internalType": "address",
          "name": "previousOwner",
          "type": "address"
        },
        {
          "indexed": true,
          "internalType": "address",
          "name": "newOwner",
          "type": "address"
        }
      ],
      "name": "OwnershipTransferred",
      "type": "event"
    },
    {
      "anonymous": false,
      "inputs": [
        {
          "indexed": true,
          "internalType": "address",
          "name": "sender",
          "type": "address"
        },
        {
          "indexed": false,
          "internalType": "uint256",
          "name": "amount",
          "type": "uint256"
        }
      ],
      "name": "Received",
      "type": "event"
    },
    {
      "anonymous": false,
      "inputs": [
        {
          "indexed": false,
          "internalType": "address",
          "name": "lpRewardVault",
          "type": "address"
        },
        {
          "indexed": false,
          "internalType": "address",
          "name": "referralVault",
          "type": "address"
        },
        {
          "indexed": false,
          "internalType": "address",
          "name": "marketingVault",
          "type": "address"
        }
      ],
      "name": "RecipientsUpdated",
      "type": "event"
    },
    {
      "stateMutability": "payable",
      "type": "fallback"
    },
    {
      "inputs": [],
      "name": "TOTAL_BPS",
      "outputs": [
        {
          "internalType": "uint256",
          "name": "",
          "type": "uint256"
        }
      ],
      "stateMutability": "view",
      "type": "function"
    },
    {
      "inputs": [],
      "name": "distribute",
      "outputs": [],
      "stateMutability": "nonpayable",
      "type": "function"
    },
    {
      "inputs": [],
      "name": "lpBps",
      "outputs": [
        {
          "internalType": "uint256",
          "name": "",
          "type": "uint256"
        }
      ],
      "stateMutability": "view",
      "type": "function"
    },
    {
      "inputs": [],
      "name": "lpRewardVault",
      "outputs": [
        {
          "internalType": "address",
          "name": "",
          "type": "address"
        }
      ],
      "stateMutability": "view",
      "type": "function"
    },
    {
      "inputs": [],
      "name": "marketingBps",
      "outputs": [
        {
          "internalType": "uint256",
          "name": "",
          "type": "uint256"
        }
      ],
      "stateMutability": "view",
      "type": "function"
    },
    {
      "inputs": [],
      "name": "marketingVault",
      "outputs": [
        {
          "internalType": "address",
          "name": "",
          "type": "address"
        }
      ],
      "stateMutability": "view",
      "type": "function"
    },
    {
      "inputs": [],
      "name": "owner",
      "outputs": [
        {
          "internalType": "address",
          "name": "",
          "type": "address"
        }
      ],
      "stateMutability": "view",
      "type": "function"
    },
    {
      "inputs": [],
      "name": "referralBps",
      "outputs": [
        {
          "internalType": "uint256",
          "name": "",
          "type": "uint256"
        }
      ],
      "stateMutability": "view",
      "type": "function"
    },
    {
      "inputs": [],
      "name": "referralVault",
      "outputs": [
        {
          "internalType": "address",
          "name": "",
          "type": "address"
        }
      ],
      "stateMutability": "view",
      "type": "function"
    },
    {
      "inputs": [],
      "name": "renounceOwnership",
      "outputs": [],
      "stateMutability": "nonpayable",
      "type": "function"
    },
    {
      "inputs": [
        {
          "internalType": "uint256",
          "name": "_lpBps",
          "type": "uint256"
        },
        {
          "internalType": "uint256",
          "name": "_referralBps",
          "type": "uint256"
        },
        {
          "internalType": "uint256",
          "name": "_marketingBps",
          "type": "uint256"
        }
      ],
      "name": "setAllocation",
      "outputs": [],
      "stateMutability": "nonpayable",
      "type": "function"
    },
    {
      "inputs": [
        {
          "internalType": "address",
          "name": "_lpRewardVault",
          "type": "address"
        },
        {
          "internalType": "address",
          "name": "_referralVault",
          "type": "address"
        },
        {
          "internalType": "address",
          "name": "_marketingVault",
          "type": "address"
        }
      ],
      "name": "setRecipients",
      "outputs": [],
      "stateMutability": "nonpayable",
      "type": "function"
    },
    {
      "inputs": [],
      "name": "totalDistributedToLP",
      "outputs": [
        {
          "internalType": "uint256",
          "name": "",
          "type": "uint256"
        }
      ],
      "stateMutability": "view",
      "type": "function"
    },
    {
      "inputs": [],
      "name": "totalDistributedToMarketing",
      "outputs": [
        {
          "internalType": "uint256",
          "name": "",
          "type": "uint256"
        }
      ],
      "stateMutability": "view",
      "type": "function"
    },
    {
      "inputs": [],
      "name": "totalDistributedToReferral",
      "outputs": [
        {
          "internalType": "uint256",
          "name": "",
          "type": "uint256"
        }
      ],
      "stateMutability": "view",
      "type": "function"
    },
    {
      "inputs": [],
      "name": "totalReceived",
      "outputs": [
        {
          "internalType": "uint256",
          "name": "",
          "type": "uint256"
        }
      ],
      "stateMutability": "view",
      "type": "function"
    },
    {
      "inputs": [
        {
          "internalType": "address",
          "name": "newOwner",
          "type": "address"
        }
      ],
      "name": "transferOwnership",
      "outputs": [],
      "stateMutability": "nonpayable",
      "type": "function"
    },
    {
      "stateMutability": "payable",
      "type": "receive"
    }
  ],
  "bytecode": "0x60803461022157601f610b4638819003918201601f19168301916001600160401b03831184841017610225578084926080946040528339810103126102215761004781610239565b9061005460208201610239565b61006060408301610239565b916001600160a01b039061007690606001610239565b1692831561020e575f80546001600160a01b031981168617825560405195916001600160a01b03909116907f8be0079c531659141344cd1fd0a4f28419497f9722a3daafe3b4186f6b6457e09080a360017f9b779b17422d0df92223018b32b4d1fa46e071723d6817e2486d003becc55f008190556110be908190556002556105946003556001600160a01b03169283156101de57506001600160a01b03169081156101a5576001600160a01b031691821561016b5760018060a01b0319600454161760045560018060a01b0319600554161760055560018060a01b031960065416176006556040516108f8908161024e8239f35b60405162461bcd60e51b81526020600482015260126024820152714d563a207a65726f206d61726b6574696e6760701b6044820152606490fd5b60405162461bcd60e51b815260206004820152601160248201527013558e881e995c9bc81c9959995c9c985b607a1b6044820152606490fd5b62461bcd60e51b815260206004820152600b60248201526a04d563a207a65726f206c760ac1b6044820152606490fd5b631e4fbdf760e01b5f525f60045260245ffd5b5f80fd5b634e487b7160e01b5f52604160045260245ffd5b51906001600160a01b03821682036102215756fe6080806040526004361015610028575b5036156100205761001e6107b2565b005b61001e6107b2565b5f3560e01c908163088ff077146107415750806315d75b591461067b5780631fbb6ff01461065e57806329f827da146106415780634c265a13146106195780635d41f8e4146105fc57806366e3540a146105df578063683a0169146105b7578063715018a6146105605780638da5cb5b14610539578063a3c2c4621461051c578063ab2fd600146104ff578063ba51e786146104d7578063d3cd52bc146104bb578063e4fc6b6d146102f9578063f2fde38b146102745763fcd0251b146100ef575f61000f565b346102705760603660031901126102705761010861075b565b6024356001600160a01b03811690819003610270576044356001600160a01b03811692908390036102705761013b6107ef565b6001600160a01b0316801561023d5781156102045782156101ca577fec281be185293b0327cfe7ac0590abd3cef1fa7d5b8024c3c2bca20b563b3b8492606092826001600160601b0360a01b6004541617600455806001600160601b0360a01b6005541617600555816001600160601b0360a01b600654161760065560405192835260208301526040820152a1005b60405162461bcd60e51b81526020600482015260126024820152714d563a207a65726f206d61726b6574696e6760701b6044820152606490fd5b60405162461bcd60e51b815260206004820152601160248201527013558e881e995c9bc81c9959995c9c985b607a1b6044820152606490fd5b60405162461bcd60e51b815260206004820152600b60248201526a04d563a207a65726f206c760ac1b6044820152606490fd5b5f80fd5b346102705760203660031901126102705761028d61075b565b6102956107ef565b6001600160a01b031680156102e6575f80546001600160a01b03198116831782556001600160a01b0316907f8be0079c531659141344cd1fd0a4f28419497f9722a3daafe3b4186f6b6457e09080a3005b631e4fbdf760e01b5f525f60045260245ffd5b34610270575f3660031901126102705760027f9b779b17422d0df92223018b32b4d1fa46e071723d6817e2486d003becc55f0054146104ac5760027f9b779b17422d0df92223018b32b4d1fa46e071723d6817e2486d003becc55f00554780156104675760806103b77ff7576d8c2653e9d07af5ef229acf59b339e327d4e0eaddb4a96615534cf148f89261271061039360015483610792565b049182916103b26127106103a960025484610792565b049384926107a5565b6107a5565b906103c483600854610771565b6008556103d381600954610771565b6009556103e282600a54610771565b600a556004546103fc9084906001600160a01b0316610815565b6005546104139082906001600160a01b0316610815565b60065461042a9083906001600160a01b0316610815565b60405192835260208301526040820152426060820152a160017f9b779b17422d0df92223018b32b4d1fa46e071723d6817e2486d003becc55f0055005b60405162461bcd60e51b815260206004820152601960248201527f4d563a206e6f7468696e6720746f2064697374726962757465000000000000006044820152606490fd5b633ee5aeb560e01b5f5260045ffd5b34610270575f3660031901126102705760206040516127108152f35b34610270575f366003190112610270576005546040516001600160a01b039091168152602090f35b34610270575f366003190112610270576020600a54604051908152f35b34610270575f366003190112610270576020600754604051908152f35b34610270575f366003190112610270575f546040516001600160a01b039091168152602090f35b34610270575f366003190112610270576105786107ef565b5f80546001600160a01b0319811682556001600160a01b03167f8be0079c531659141344cd1fd0a4f28419497f9722a3daafe3b4186f6b6457e08280a3005b34610270575f366003190112610270576004546040516001600160a01b039091168152602090f35b34610270575f366003190112610270576020600354604051908152f35b34610270575f366003190112610270576020600154604051908152f35b34610270575f366003190112610270576006546040516001600160a01b039091168152602090f35b34610270575f366003190112610270576020600854604051908152f35b34610270575f366003190112610270576020600254604051908152f35b346102705760603660031901126102705760443560243560043561069d6107ef565b6127106106b3846106ae8585610771565b610771565b036106fc577f21c55dfccedf7a8f464081b4c32abf493ebe4c9a653d37fd29365b3775a79cfd9260609282600155806002558160035560405192835260208301526040820152a1005b60405162461bcd60e51b815260206004820152601960248201527f4d563a20627073206d7573742073756d20746f203130303030000000000000006044820152606490fd5b34610270575f366003190112610270576020906009548152f35b600435906001600160a01b038216820361027057565b9190820180921161077e57565b634e487b7160e01b5f52601160045260245ffd5b8181029291811591840414171561077e57565b9190820391821161077e57565b6107be34600754610771565b6007556040513481527f88a5966d370b9919b20f3e2c13ff65706f196a4e32cc2c12bf57088f8852587460203392a2565b5f546001600160a01b0316330361080257565b63118cdaa760e01b5f523360045260245ffd5b5f80809381935af13d156108bd573d67ffffffffffffffff81116108a95760405190601f8101601f19908116603f0116820167ffffffffffffffff8111838210176108a95760405281525f60203d92013e5b1561086e57565b60405162461bcd60e51b815260206004820152601360248201527213558e881d1c985b9cd9995c8819985a5b1959606a1b6044820152606490fd5b634e487b7160e01b5f52604160045260245ffd5b61086756fea26469706673582212203fb7632ffdd20aa6c73cc5543099a1787f4e441d548dc373ae03c117fd3d152664736f6c634300081c0033",
  "linkReferences": {},
  "deployedLinkReferences": {}
}