{
  "_format": "hh-sol-artifact-1",
  "contractName": "LPRewardVault",
  "sourceName": "contracts/LPRewardVault.sol",
  "abi": [
    {
      "inputs": [
        {
          "internalType": "address",
          "name": "_owner",
          "type": "address"
        }
      ],
      "stateMutability": "nonpayable",
      "type": "constructor"
    },
    {
      "inputs": [],
      "name": "AlreadyActive",
      "type": "error"
    },
    {
      "inputs": [],
      "name": "InsufficientStake",
      "type": "error"
    },
    {
      "inputs": [],
      "name": "NotActive",
      "type": "error"
    },
    {
      "inputs": [],
      "name": "NothingToClaim",
      "type": "error"
    },
    {
      "inputs": [
        {
          "internalType": "address",
          "name": "owner",
          "type": "address"
        }
      ],
      "name": "OwnableInvalidOwner",
      "type": "error"
    },
    {
      "inputs": [
        {
          "internalType": "address",
          "name": "account",
          "type": "address"
        }
      ],
      "name": "OwnableUnauthorizedAccount",
      "type": "error"
    },
    {
      "inputs": [],
      "name": "ReentrancyGuardReentrantCall",
      "type": "error"
    },
    {
      "inputs": [
        {
          "internalType": "address",
          "name": "token",
          "type": "address"
        }
      ],
      "name": "SafeERC20FailedOperation",
      "type": "error"
    },
    {
      "inputs": [],
      "name": "TransferFailed",
      "type": "error"
    },
    {
      "inputs": [],
      "name": "ZeroAddress",
      "type": "error"
    },
    {
      "inputs": [],
      "name": "ZeroAmount",
      "type": "error"
    },
    {
      "anonymous": false,
      "inputs": [
        {
          "indexed": true,
          "internalType": "address",
          "name": "lpToken",
          "type": "address"
        }
      ],
      "name": "Activated",
      "type": "event"
    },
    {
      "anonymous": false,
      "inputs": [
        {
          "indexed": true,
          "internalType": "address",
          "name": "user",
          "type": "address"
        },
        {
          "indexed": false,
          "internalType": "uint256",
          "name": "reward",
          "type": "uint256"
        }
      ],
      "name": "Claimed",
      "type": "event"
    },
    {
      "anonymous": false,
      "inputs": [
        {
          "indexed": true,
          "internalType": "address",
          "name": "to",
          "type": "address"
        },
        {
          "indexed": false,
          "internalType": "uint256",
          "name": "amount",
          "type": "uint256"
        }
      ],
      "name": "EmergencyWithdrawn",
      "type": "event"
    },
    {
      "anonymous": false,
      "inputs": [
        {
          "indexed": true,
          "internalType": "address",
          "name": "previousOwner",
          "type": "address"
        },
        {
          "indexed": true,
          "internalType": "address",
          "name": "newOwner",
          "type": "address"
        }
      ],
      "name": "OwnershipTransferred",
      "type": "event"
    },
    {
      "anonymous": false,
      "inputs": [
        {
          "indexed": false,
          "internalType": "uint256",
          "name": "amount",
          "type": "uint256"
        }
      ],
      "name": "RewardAdded",
      "type": "event"
    },
    {
      "anonymous": false,
      "inputs": [
        {
          "indexed": true,
          "internalType": "address",
          "name": "user",
          "type": "address"
        },
        {
          "indexed": false,
          "internalType": "uint256",
          "name": "amount",
          "type": "uint256"
        }
      ],
      "name": "Staked",
      "type": "event"
    },
    {
      "anonymous": false,
      "inputs": [
        {
          "indexed": true,
          "internalType": "address",
          "name": "user",
          "type": "address"
        },
        {
          "indexed": false,
          "internalType": "uint256",
          "name": "amount",
          "type": "uint256"
        }
      ],
      "name": "Unstaked",
      "type": "event"
    },
    {
      "stateMutability": "payable",
      "type": "fallback"
    },
    {
      "inputs": [],
      "name": "PRECISION",
      "outputs": [
        {
          "internalType": "uint256",
          "name": "",
          "type": "uint256"
        }
      ],
      "stateMutability": "view",
      "type": "function"
    },
    {
      "inputs": [],
      "name": "accRewardPerShare",
      "outputs": [
        {
          "internalType": "uint256",
          "name": "",
          "type": "uint256"
        }
      ],
      "stateMutability": "view",
      "type": "function"
    },
    {
      "inputs": [],
      "name": "accumulatedBnb",
      "outputs": [
        {
          "internalType": "uint256",
          "name": "",
          "type": "uint256"
        }
      ],
      "stateMutability": "view",
      "type": "function"
    },
    {
      "inputs": [
        {
          "internalType": "address",
          "name": "_lpToken",
          "type": "address"
        }
      ],
      "name": "activate",
      "outputs": [],
      "stateMutability": "nonpayable",
      "type": "function"
    },
    {
      "inputs": [],
      "name": "active",
      "outputs": [
        {
          "internalType": "bool",
          "name": "",
          "type": "bool"
        }
      ],
      "stateMutability": "view",
      "type": "function"
    },
    {
      "inputs": [],
      "name": "claim",
      "outputs": [],
      "stateMutability": "nonpayable",
      "type": "function"
    },
    {
      "inputs": [
        {
          "internalType": "address",
          "name": "_user",
          "type": "address"
        }
      ],
      "name": "earned",
      "outputs": [
        {
          "internalType": "uint256",
          "name": "",
          "type": "uint256"
        }
      ],
      "stateMutability": "view",
      "type": "function"
    },
    {
      "inputs": [],
      "name": "emergencyWithdraw",
      "outputs": [],
      "stateMutability": "nonpayable",
      "type": "function"
    },
    {
      "inputs": [],
      "name": "lpToken",
      "outputs": [
        {
          "internalType": "contract IERC20",
          "name": "",
          "type": "address"
        }
      ],
      "stateMutability": "view",
      "type": "function"
    },
    {
      "inputs": [],
      "name": "owner",
      "outputs": [
        {
          "internalType": "address",
          "name": "",
          "type": "address"
        }
      ],
      "stateMutability": "view",
      "type": "function"
    },
    {
      "inputs": [],
      "name": "pendingRewards",
      "outputs": [
        {
          "internalType": "uint256",
          "name": "",
          "type": "uint256"
        }
      ],
      "stateMutability": "view",
      "type": "function"
    },
    {
      "inputs": [],
      "name": "renounceOwnership",
      "outputs": [],
      "stateMutability": "nonpayable",
      "type": "function"
    },
    {
      "inputs": [
        {
          "internalType": "uint256",
          "name": "_amount",
          "type": "uint256"
        }
      ],
      "name": "stake",
      "outputs": [],
      "stateMutability": "nonpayable",
      "type": "function"
    },
    {
      "inputs": [],
      "name": "totalDistributed",
      "outputs": [
        {
          "internalType": "uint256",
          "name": "",
          "type": "uint256"
        }
      ],
      "stateMutability": "view",
      "type": "function"
    },
    {
      "inputs": [],
      "name": "totalReceived",
      "outputs": [
        {
          "internalType": "uint256",
          "name": "",
          "type": "uint256"
        }
      ],
      "stateMutability": "view",
      "type": "function"
    },
    {
      "inputs": [],
      "name": "totalStaked",
      "outputs": [
        {
          "internalType": "uint256",
          "name": "",
          "type": "uint256"
        }
      ],
      "stateMutability": "view",
      "type": "function"
    },
    {
      "inputs": [
        {
          "internalType": "address",
          "name": "newOwner",
          "type": "address"
        }
      ],
      "name": "transferOwnership",
      "outputs": [],
      "stateMutability": "nonpayable",
      "type": "function"
    },
    {
      "inputs": [
        {
          "internalType": "uint256",
          "name": "_amount",
          "type": "uint256"
        }
      ],
      "name": "unstake",
      "outputs": [],
      "stateMutability": "nonpayable",
      "type": "function"
    },
    {
      "inputs": [
        {
          "internalType": "address",
          "name": "",
          "type": "address"
        }
      ],
      "name": "userInfo",
      "outputs": [
        {
          "internalType": "uint256",
          "name": "amount",
          "type": "uint256"
        },
        {
          "internalType": "uint256",
          "name": "rewardDebt",
          "type": "uint256"
        }
      ],
      "stateMutability": "view",
      "type": "function"
    },
    {
      "stateMutability": "payable",
      "type": "receive"
    }
  ],
  "bytecode": "0x608060405234801561000f575f5ffd5b50604051610fcb380380610fcb83398101604081905261002e916100ec565b806001600160a01b03811661005c57604051631e4fbdf760e01b81525f600482015260240160405180910390fd5b6100658161009d565b5060017f9b779b17422d0df92223018b32b4d1fa46e071723d6817e2486d003becc55f0055506001805460ff60a01b19169055610119565b5f80546001600160a01b038381166001600160a01b0319831681178455604051919092169283917f8be0079c531659141344cd1fd0a4f28419497f9722a3daafe3b4186f6b6457e09190a35050565b5f602082840312156100fc575f5ffd5b81516001600160a01b0381168114610112575f5ffd5b9392505050565b610ea5806101265f395ff3fe608060405260043610610116575f3560e01c8063817b1cd21161009f578063aaf5eb6811610063578063aaf5eb68146103d3578063db2e21bc146103ee578063eded3fda14610402578063efca2eed14610417578063f2fde38b1461042c576101d6565b8063817b1cd2146103595780638da5cb5b1461036e578063939d62371461038a578063a3c2c4621461039f578063a694fc3a146103b4576101d6565b80632e17de78116100e65780632e17de78146102c95780634e71d92d146102e85780635fcbd285146102fc578063715018a61461033357806372d5439414610347576101d6565b80628cc262146101ff57806302fb0c5e146102315780631959a002146102615780631c5a9d9c146102a8576101d6565b366101d6573460055f82825461012c9190610daf565b90915550506002541561018a575f600454346101489190610daf565b5f600455600254909150610164670de0b6b3a764000083610dc2565b61016e9190610dd9565b60035f82825461017e9190610daf565b909155506101a1915050565b3460045f82825461019b9190610daf565b90915550505b6040513481527fde88a922e0d3b88b24e9623efeb464919c6bf9f66857a65e2bfcf2ce87a9433d9060200160405180910390a1005b3460055f8282546101e79190610daf565b925050819055503460045f82825461019b9190610daf565b34801561020a575f5ffd5b5061021e610219366004610df8565b61044b565b6040519081526020015b60405180910390f35b34801561023c575f5ffd5b5060015461025190600160a01b900460ff1681565b6040519015158152602001610228565b34801561026c575f5ffd5b5061029361027b366004610df8565b60076020525f90815260409020805460019091015482565b60408051928352602083019190915201610228565b3480156102b3575f5ffd5b506102c76102c2366004610df8565b610471565b005b3480156102d4575f5ffd5b506102c76102e3366004610e25565b61051a565b3480156102f3575f5ffd5b506102c76106c4565b348015610307575f5ffd5b5060015461031b906001600160a01b031681565b6040516001600160a01b039091168152602001610228565b34801561033e575f5ffd5b506102c76107c7565b348015610352575f5ffd5b504761021e565b348015610364575f5ffd5b5061021e60025481565b348015610379575f5ffd5b505f546001600160a01b031661031b565b348015610395575f5ffd5b5061021e60035481565b3480156103aa575f5ffd5b5061021e60055481565b3480156103bf575f5ffd5b506102c76103ce366004610e25565b6107d8565b3480156103de575f5ffd5b5061021e670de0b6b3a764000081565b3480156103f9575f5ffd5b506102c76109b8565b34801561040d575f5ffd5b5061021e60045481565b348015610422575f5ffd5b5061021e60065481565b348015610437575f5ffd5b506102c7610446366004610df8565b610aa0565b6001600160a01b0381165f90815260076020526040812061046b90610adf565b92915050565b610479610b21565b600154600160a01b900460ff16156104a457604051637cdf305160e11b815260040160405180910390fd5b6001600160a01b0381166104cb5760405163d92e233d60e01b815260040160405180910390fd5b600180546001600160a81b0319166001600160a01b038316908117600160a01b179091556040517f0cc43938d137e7efade6a531f663e78c1fc75257b0d65ffda2fdaf70cb49cdf9905f90a250565b610522610b4d565b600154600160a01b900460ff1661054c57604051634065aaf160e11b815260040160405180910390fd5b335f908152600760205260409020805482111561057c576040516378de4a6960e11b815260040160405180910390fd5b815f0361059c57604051631f2a200560e01b815260040160405180910390fd5b5f6105a682610adf565b90508015610605578060065f8282546105bf9190610daf565b909155506105cf90503382610b68565b60405181815233907fd8138f8a3f377c5259ca548e70e4c2de94f129f5a11036a15b69513cba2b426a9060200160405180910390a25b82825f015f8282546106179190610e3c565b925050819055508260025f82825461062f9190610e3c565b90915550506003548254670de0b6b3a76400009161064c91610dc2565b6106569190610dd9565b60018084019190915554610674906001600160a01b03163385610bdd565b60405183815233907f0f5bb82176feb1b5e747e28471aa92156a04d9f3ab9f45f28e2d704232b93f759060200160405180910390a250506106c160015f516020610e505f395f51905f5255565b50565b6106cc610b4d565b600154600160a01b900460ff166106f657604051634065aaf160e11b815260040160405180910390fd5b335f9081526007602052604081209061070e82610adf565b9050805f03610730576040516312d37ee560e31b815260040160405180910390fd5b8060065f8282546107419190610daf565b90915550506003548254670de0b6b3a76400009161075e91610dc2565b6107689190610dd9565b60018301556107773382610b68565b60405181815233907fd8138f8a3f377c5259ca548e70e4c2de94f129f5a11036a15b69513cba2b426a906020015b60405180910390a250506107c560015f516020610e505f395f51905f5255565b565b6107cf610b21565b6107c55f610c12565b6107e0610b4d565b600154600160a01b900460ff1661080a57604051634065aaf160e11b815260040160405180910390fd5b805f0361082a57604051631f2a200560e01b815260040160405180910390fd5b335f9081526007602052604090208054156108aa575f61084982610adf565b905080156108a8578060065f8282546108629190610daf565b9091555061087290503382610b68565b60405181815233907fd8138f8a3f377c5259ca548e70e4c2de94f129f5a11036a15b69513cba2b426a9060200160405180910390a25b505b6001546108c2906001600160a01b0316333085610c61565b81815f015f8282546108d49190610daf565b925050819055508160025f8282546108ec9190610daf565b90915550506004541580159061090357505f600254115b1561094557600254670de0b6b3a76400006004546109219190610dc2565b61092b9190610dd9565b60035f82825461093b9190610daf565b90915550505f6004555b6003548154670de0b6b3a76400009161095d91610dc2565b6109679190610dd9565b600182015560405182815233907f9e71bc8eea02a63969f509818f2dafb9254532904319f9dbda79b67bd34a5f3d9060200160405180910390a2506106c160015f516020610e505f395f51905f5255565b6109c0610b21565b6109c8610b4d565b475f8190036109ea576040516312d37ee560e31b815260040160405180910390fd5b5f80546040516001600160a01b039091169083908381818185875af1925050503d805f8114610a34576040519150601f19603f3d011682016040523d82523d5f602084013e610a39565b606091505b5050905080610a5b576040516312171d8360e31b815260040160405180910390fd5b5f546001600160a01b03166001600160a01b03167f2e39961a70a10f4d46383948095ac2752b3ee642a7c76aa827410aaff08c2e51836040516107a591815260200190565b610aa8610b21565b6001600160a01b038116610ad657604051631e4fbdf760e01b81525f60048201526024015b60405180910390fd5b6106c181610c12565b80545f908103610af057505f919050565b60018201546003548354670de0b6b3a764000091610b0d91610dc2565b610b179190610dd9565b61046b9190610e3c565b5f546001600160a01b031633146107c55760405163118cdaa760e01b8152336004820152602401610acd565b610b55610c9d565b60025f516020610e505f395f51905f5255565b5f826001600160a01b0316826040515f6040518083038185875af1925050503d805f8114610bb1576040519150601f19603f3d011682016040523d82523d5f602084013e610bb6565b606091505b5050905080610bd8576040516312171d8360e31b815260040160405180910390fd5b505050565b610bea8383836001610ccc565b610bd857604051635274afe760e01b81526001600160a01b0384166004820152602401610acd565b5f80546001600160a01b038381166001600160a01b0319831681178455604051919092169283917f8be0079c531659141344cd1fd0a4f28419497f9722a3daafe3b4186f6b6457e09190a35050565b610c6f848484846001610d2e565b610c9757604051635274afe760e01b81526001600160a01b0385166004820152602401610acd565b50505050565b5f516020610e505f395f51905f52546002036107c557604051633ee5aeb560e01b815260040160405180910390fd5b60405163a9059cbb60e01b5f8181526001600160a01b038616600452602485905291602083604481808b5af1925060015f51148316610d22578383151615610d16573d5f823e3d81fd5b5f873b113d1516831692505b60405250949350505050565b6040516323b872dd60e01b5f8181526001600160a01b038781166004528616602452604485905291602083606481808c5af1925060015f51148316610d8a578383151615610d7e573d5f823e3d81fd5b5f883b113d1516831692505b604052505f60605295945050505050565b634e487b7160e01b5f52601160045260245ffd5b8082018082111561046b5761046b610d9b565b808202811582820484141761046b5761046b610d9b565b5f82610df357634e487b7160e01b5f52601260045260245ffd5b500490565b5f60208284031215610e08575f5ffd5b81356001600160a01b0381168114610e1e575f5ffd5b9392505050565b5f60208284031215610e35575f5ffd5b5035919050565b8181038181111561046b5761046b610d9b56fe9b779b17422d0df92223018b32b4d1fa46e071723d6817e2486d003becc55f00a26469706673582212204bf86f25a878520c8f476466efee8c6e3e6ad3dfd8b62a180b2f3779057c284b64736f6c634300081c0033",
  "linkReferences": {},
  "deployedLinkReferences": {}
}