{
  "_format": "hh-sol-artifact-1",
  "contractName": "LPRewardVault",
  "sourceName": "contracts/LPRewardVault.sol",
  "abi": [
    {
      "inputs": [
        {
          "internalType": "address",
          "name": "_owner",
          "type": "address"
        }
      ],
      "stateMutability": "nonpayable",
      "type": "constructor"
    },
    {
      "inputs": [],
      "name": "AlreadyActive",
      "type": "error"
    },
    {
      "inputs": [],
      "name": "InsufficientStake",
      "type": "error"
    },
    {
      "inputs": [],
      "name": "NotActive",
      "type": "error"
    },
    {
      "inputs": [],
      "name": "NothingToClaim",
      "type": "error"
    },
    {
      "inputs": [
        {
          "internalType": "address",
          "name": "owner",
          "type": "address"
        }
      ],
      "name": "OwnableInvalidOwner",
      "type": "error"
    },
    {
      "inputs": [
        {
          "internalType": "address",
          "name": "account",
          "type": "address"
        }
      ],
      "name": "OwnableUnauthorizedAccount",
      "type": "error"
    },
    {
      "inputs": [],
      "name": "ReentrancyGuardReentrantCall",
      "type": "error"
    },
    {
      "inputs": [
        {
          "internalType": "address",
          "name": "token",
          "type": "address"
        }
      ],
      "name": "SafeERC20FailedOperation",
      "type": "error"
    },
    {
      "inputs": [],
      "name": "TransferFailed",
      "type": "error"
    },
    {
      "inputs": [],
      "name": "ZeroAddress",
      "type": "error"
    },
    {
      "inputs": [],
      "name": "ZeroAmount",
      "type": "error"
    },
    {
      "anonymous": false,
      "inputs": [
        {
          "indexed": true,
          "internalType": "address",
          "name": "lpToken",
          "type": "address"
        }
      ],
      "name": "Activated",
      "type": "event"
    },
    {
      "anonymous": false,
      "inputs": [
        {
          "indexed": true,
          "internalType": "address",
          "name": "user",
          "type": "address"
        },
        {
          "indexed": false,
          "internalType": "uint256",
          "name": "reward",
          "type": "uint256"
        }
      ],
      "name": "Claimed",
      "type": "event"
    },
    {
      "anonymous": false,
      "inputs": [
        {
          "indexed": true,
          "internalType": "address",
          "name": "to",
          "type": "address"
        },
        {
          "indexed": false,
          "internalType": "uint256",
          "name": "amount",
          "type": "uint256"
        }
      ],
      "name": "EmergencyWithdrawn",
      "type": "event"
    },
    {
      "anonymous": false,
      "inputs": [
        {
          "indexed": true,
          "internalType": "address",
          "name": "previousOwner",
          "type": "address"
        },
        {
          "indexed": true,
          "internalType": "address",
          "name": "newOwner",
          "type": "address"
        }
      ],
      "name": "OwnershipTransferred",
      "type": "event"
    },
    {
      "anonymous": false,
      "inputs": [
        {
          "indexed": false,
          "internalType": "uint256",
          "name": "amount",
          "type": "uint256"
        }
      ],
      "name": "RewardAdded",
      "type": "event"
    },
    {
      "anonymous": false,
      "inputs": [
        {
          "indexed": true,
          "internalType": "address",
          "name": "user",
          "type": "address"
        },
        {
          "indexed": false,
          "internalType": "uint256",
          "name": "amount",
          "type": "uint256"
        }
      ],
      "name": "Staked",
      "type": "event"
    },
    {
      "anonymous": false,
      "inputs": [
        {
          "indexed": true,
          "internalType": "address",
          "name": "user",
          "type": "address"
        },
        {
          "indexed": false,
          "internalType": "uint256",
          "name": "amount",
          "type": "uint256"
        }
      ],
      "name": "Unstaked",
      "type": "event"
    },
    {
      "stateMutability": "payable",
      "type": "fallback"
    },
    {
      "inputs": [],
      "name": "PRECISION",
      "outputs": [
        {
          "internalType": "uint256",
          "name": "",
          "type": "uint256"
        }
      ],
      "stateMutability": "view",
      "type": "function"
    },
    {
      "inputs": [],
      "name": "accRewardPerShare",
      "outputs": [
        {
          "internalType": "uint256",
          "name": "",
          "type": "uint256"
        }
      ],
      "stateMutability": "view",
      "type": "function"
    },
    {
      "inputs": [],
      "name": "accumulatedBnb",
      "outputs": [
        {
          "internalType": "uint256",
          "name": "",
          "type": "uint256"
        }
      ],
      "stateMutability": "view",
      "type": "function"
    },
    {
      "inputs": [
        {
          "internalType": "address",
          "name": "_lpToken",
          "type": "address"
        }
      ],
      "name": "activate",
      "outputs": [],
      "stateMutability": "nonpayable",
      "type": "function"
    },
    {
      "inputs": [],
      "name": "active",
      "outputs": [
        {
          "internalType": "bool",
          "name": "",
          "type": "bool"
        }
      ],
      "stateMutability": "view",
      "type": "function"
    },
    {
      "inputs": [],
      "name": "claim",
      "outputs": [],
      "stateMutability": "nonpayable",
      "type": "function"
    },
    {
      "inputs": [
        {
          "internalType": "address",
          "name": "_user",
          "type": "address"
        }
      ],
      "name": "earned",
      "outputs": [
        {
          "internalType": "uint256",
          "name": "",
          "type": "uint256"
        }
      ],
      "stateMutability": "view",
      "type": "function"
    },
    {
      "inputs": [],
      "name": "emergencyWithdraw",
      "outputs": [],
      "stateMutability": "nonpayable",
      "type": "function"
    },
    {
      "inputs": [],
      "name": "lpToken",
      "outputs": [
        {
          "internalType": "contract IERC20",
          "name": "",
          "type": "address"
        }
      ],
      "stateMutability": "view",
      "type": "function"
    },
    {
      "inputs": [],
      "name": "owner",
      "outputs": [
        {
          "internalType": "address",
          "name": "",
          "type": "address"
        }
      ],
      "stateMutability": "view",
      "type": "function"
    },
    {
      "inputs": [],
      "name": "pendingRewards",
      "outputs": [
        {
          "internalType": "uint256",
          "name": "",
          "type": "uint256"
        }
      ],
      "stateMutability": "view",
      "type": "function"
    },
    {
      "inputs": [],
      "name": "renounceOwnership",
      "outputs": [],
      "stateMutability": "nonpayable",
      "type": "function"
    },
    {
      "inputs": [
        {
          "internalType": "uint256",
          "name": "_amount",
          "type": "uint256"
        }
      ],
      "name": "stake",
      "outputs": [],
      "stateMutability": "nonpayable",
      "type": "function"
    },
    {
      "inputs": [],
      "name": "totalDistributed",
      "outputs": [
        {
          "internalType": "uint256",
          "name": "",
          "type": "uint256"
        }
      ],
      "stateMutability": "view",
      "type": "function"
    },
    {
      "inputs": [],
      "name": "totalReceived",
      "outputs": [
        {
          "internalType": "uint256",
          "name": "",
          "type": "uint256"
        }
      ],
      "stateMutability": "view",
      "type": "function"
    },
    {
      "inputs": [],
      "name": "totalStaked",
      "outputs": [
        {
          "internalType": "uint256",
          "name": "",
          "type": "uint256"
        }
      ],
      "stateMutability": "view",
      "type": "function"
    },
    {
      "inputs": [
        {
          "internalType": "address",
          "name": "newOwner",
          "type": "address"
        }
      ],
      "name": "transferOwnership",
      "outputs": [],
      "stateMutability": "nonpayable",
      "type": "function"
    },
    {
      "inputs": [
        {
          "internalType": "uint256",
          "name": "_amount",
          "type": "uint256"
        }
      ],
      "name": "unstake",
      "outputs": [],
      "stateMutability": "nonpayable",
      "type": "function"
    },
    {
      "inputs": [
        {
          "internalType": "address",
          "name": "",
          "type": "address"
        }
      ],
      "name": "userInfo",
      "outputs": [
        {
          "internalType": "uint256",
          "name": "amount",
          "type": "uint256"
        },
        {
          "internalType": "uint256",
          "name": "rewardDebt",
          "type": "uint256"
        }
      ],
      "stateMutability": "view",
      "type": "function"
    },
    {
      "stateMutability": "payable",
      "type": "receive"
    }
  ],
  "bytecode": "0x6080346100ee57601f610ceb38819003918201601f19168301916001600160401b038311848410176100f2578084926020946040528339810103126100ee57516001600160a01b038116908190036100ee5780156100db575f80546001600160a01b031981168317825560405192916001600160a01b03909116907f8be0079c531659141344cd1fd0a4f28419497f9722a3daafe3b4186f6b6457e09080a360017f9b779b17422d0df92223018b32b4d1fa46e071723d6817e2486d003becc55f00819055805460ff60a01b19169055610be490816101078239f35b631e4fbdf760e01b5f525f60045260245ffd5b5f80fd5b634e487b7160e01b5f52604160045260245ffdfe60806040526004361015610116575b361561005e5761002034600554610a31565b60055561002f34600454610a31565b6004557fde88a922e0d3b88b24e9623efeb464919c6bf9f66857a65e2bfcf2ce87a9433d6020604051348152a1005b61006a34600554610a31565b600555600254156101025761008160045434610a31565b5f600455670de0b6b3a7640000810290808204670de0b6b3a764000014901517156100ee576100b66100be9160025490610a5e565b600354610a31565b6003555b7fde88a922e0d3b88b24e9623efeb464919c6bf9f66857a65e2bfcf2ce87a9433d6020604051348152a1005b634e487b7160e01b5f52601160045260245ffd5b61010e34600454610a31565b6004556100c2565b5f3560e01c80628cc262146109ee57806302fb0c5e146109c95780631959a002146109845780631c5a9d9c146108e95780632e17de781461075f5780634e71d92d146106a85780635fcbd28514610680578063715018a61461062957806372d543941461060e578063817b1cd2146105f15780638da5cb5b146105ca578063939d6237146105ad578063a3c2c46214610590578063a694fc3a14610382578063aaf5eb6814610360578063db2e21bc146102b1578063eded3fda14610294578063efca2eed146102775763f2fde38b0361000e5734610273576020366003190112610273576004356001600160a01b0381169081900361027357610218610b18565b8015610260575f80546001600160a01b03198116831782556001600160a01b0316907f8be0079c531659141344cd1fd0a4f28419497f9722a3daafe3b4186f6b6457e09080a3005b631e4fbdf760e01b5f525f60045260245ffd5b5f80fd5b34610273575f366003190112610273576020600654604051908152f35b34610273575f366003190112610273576020600454604051908152f35b34610273575f366003190112610273576102c9610b18565b6102d1610b3e565b478015610351575f8080808460018060a01b038254165af16102f1610a7c565b5015610342575f546040519182526001600160a01b0316907f2e39961a70a10f4d46383948095ac2752b3ee642a7c76aa827410aaff08c2e5190602090a260015f516020610b8f5f395f51905f5255005b6312171d8360e31b5f5260045ffd5b6312d37ee560e31b5f5260045ffd5b34610273575f366003190112610273576020604051670de0b6b3a76400008152f35b346102735760203660031901126102735760043561039e610b3e565b60ff60015460a01c161561058157801561057257335f52600760205260405f208054610512575b60018060a01b03600154166040516323b872dd60e01b5f5233600452306024528360445260205f60648180865af19060015f51148216156104f1575b6040525f606052156104df5750610419828254610a31565b815561042782600254610a31565b8060025560045480158015806104d6575b61049c575b5050506001670de0b6b3a7640000610459835460035490610a4b565b049101556040519081527f9e71bc8eea02a63969f509818f2dafb9254532904319f9dbda79b67bd34a5f3d60203392a260015f516020610b8f5f395f51905f5255005b670de0b6b3a76400008202918204670de0b6b3a76400001417156100ee576104c7916100b691610a5e565b6003555f60045582808061043d565b50821515610438565b635274afe760e01b5f5260045260245ffd5b90600181151661050957823b15153d15161690610401565b503d5f823e3d90fd5b61051b81610ae1565b80610527575b506103c5565b61053381600654610a31565b6006556105408133610b76565b6040519081527fd8138f8a3f377c5259ca548e70e4c2de94f129f5a11036a15b69513cba2b426a60203392a282610521565b631f2a200560e01b5f5260045ffd5b634065aaf160e11b5f5260045ffd5b34610273575f366003190112610273576020600554604051908152f35b34610273575f366003190112610273576020600354604051908152f35b34610273575f366003190112610273575f546040516001600160a01b039091168152602090f35b34610273575f366003190112610273576020600254604051908152f35b34610273575f36600319011261027357602047604051908152f35b34610273575f36600319011261027357610641610b18565b5f80546001600160a01b0319811682556001600160a01b03167f8be0079c531659141344cd1fd0a4f28419497f9722a3daafe3b4186f6b6457e08280a3005b34610273575f366003190112610273576001546040516001600160a01b039091168152602090f35b34610273575f366003190112610273576106c0610b3e565b60ff60015460a01c161561058157335f52600760205260405f206106e381610ae1565b908115610351576106f682600654610a31565b6006556001670de0b6b3a7640000610712835460035490610a4b565b049101556107208133610b76565b6040519081527fd8138f8a3f377c5259ca548e70e4c2de94f129f5a11036a15b69513cba2b426a60203392a260015f516020610b8f5f395f51905f5255005b346102735760203660031901126102735760043561077b610b3e565b60ff60015460a01c161561058157335f52600760205260405f20818154106108da578115610572576107ac81610ae1565b8061088f575b506107be828254610a3e565b81556107cc82600254610a3e565b6002556001670de0b6b3a76400006107e8835460035490610a4b565b0491015560015460405163a9059cbb60e01b5f9081523360045260248490529092916001600160a01b03169060209060448180855af160015f5114811615610870575b83604052156104df575081527f0f5bb82176feb1b5e747e28471aa92156a04d9f3ab9f45f28e2d704232b93f7560203392a260015f516020610b8f5f395f51905f5255005b600181151661088657813b15153d15161661082b565b833d5f823e3d90fd5b61089b81600654610a31565b6006556108a88133610b76565b6040519081527fd8138f8a3f377c5259ca548e70e4c2de94f129f5a11036a15b69513cba2b426a60203392a2826107b2565b6378de4a6960e11b5f5260045ffd5b34610273576020366003190112610273576004356001600160a01b0381169081900361027357610917610b18565b60015460ff8160a01c16610975578115610966576001600160a81b0319168117600160a01b176001557f0cc43938d137e7efade6a531f663e78c1fc75257b0d65ffda2fdaf70cb49cdf95f80a2005b63d92e233d60e01b5f5260045ffd5b637cdf305160e11b5f5260045ffd5b34610273576020366003190112610273576004356001600160a01b03811690819003610273575f5260076020526040805f206001815491015482519182526020820152f35b34610273575f36600319011261027357602060ff60015460a01c166040519015158152f35b34610273576020366003190112610273576004356001600160a01b03811690819003610273575f5260076020526020610a2960405f20610ae1565b604051908152f35b919082018092116100ee57565b919082039182116100ee57565b818102929181159184041417156100ee57565b8115610a68570490565b634e487b7160e01b5f52601260045260245ffd5b3d15610adc573d9067ffffffffffffffff8211610ac85760405191601f8101601f19908116603f0116830167ffffffffffffffff811184821017610ac85760405282523d5f602084013e565b634e487b7160e01b5f52604160045260245ffd5b606090565b8054908115610b12576001670de0b6b3a7640000610b05610b0f9460035490610a4b565b0491015490610a3e565b90565b50505f90565b5f546001600160a01b03163303610b2b57565b63118cdaa760e01b5f523360045260245ffd5b60025f516020610b8f5f395f51905f525414610b675760025f516020610b8f5f395f51905f5255565b633ee5aeb560e01b5f5260045ffd5b5f80809381935af1610b86610a7c565b50156103425756fe9b779b17422d0df92223018b32b4d1fa46e071723d6817e2486d003becc55f00a26469706673582212209e51cb2498142a7aa5399cfd921522ec08daf68cef9b613515529b2b357c486964736f6c634300081c0033",
  "linkReferences": {},
  "deployedLinkReferences": {}
}