{
  "_format": "hh-sol-artifact-1",
  "contractName": "BottomProtectionVault",
  "sourceName": "contracts/BottomProtectionVault.sol",
  "abi": [
    {
      "inputs": [
        {
          "internalType": "address",
          "name": "_cnova",
          "type": "address"
        },
        {
          "internalType": "address",
          "name": "_owner",
          "type": "address"
        }
      ],
      "stateMutability": "nonpayable",
      "type": "constructor"
    },
    {
      "inputs": [],
      "name": "InsufficientProtectedBalance",
      "type": "error"
    },
    {
      "inputs": [],
      "name": "InsufficientVaultBalance",
      "type": "error"
    },
    {
      "inputs": [],
      "name": "InvalidSignature",
      "type": "error"
    },
    {
      "inputs": [],
      "name": "LossBelowThreshold",
      "type": "error"
    },
    {
      "inputs": [],
      "name": "NoBuyPriceRecorded",
      "type": "error"
    },
    {
      "inputs": [
        {
          "internalType": "address",
          "name": "owner",
          "type": "address"
        }
      ],
      "name": "OwnableInvalidOwner",
      "type": "error"
    },
    {
      "inputs": [
        {
          "internalType": "address",
          "name": "account",
          "type": "address"
        }
      ],
      "name": "OwnableUnauthorizedAccount",
      "type": "error"
    },
    {
      "inputs": [],
      "name": "ReentrancyGuardReentrantCall",
      "type": "error"
    },
    {
      "inputs": [],
      "name": "SignatureExpired",
      "type": "error"
    },
    {
      "inputs": [],
      "name": "TransferFailed",
      "type": "error"
    },
    {
      "inputs": [],
      "name": "ZeroAddress",
      "type": "error"
    },
    {
      "inputs": [],
      "name": "ZeroAmount",
      "type": "error"
    },
    {
      "anonymous": false,
      "inputs": [
        {
          "indexed": true,
          "internalType": "address",
          "name": "to",
          "type": "address"
        },
        {
          "indexed": false,
          "internalType": "uint256",
          "name": "amount",
          "type": "uint256"
        }
      ],
      "name": "EmergencyWithdrawn",
      "type": "event"
    },
    {
      "anonymous": false,
      "inputs": [
        {
          "indexed": false,
          "internalType": "bool",
          "name": "enabled",
          "type": "bool"
        }
      ],
      "name": "EmergencyZeroSet",
      "type": "event"
    },
    {
      "anonymous": false,
      "inputs": [
        {
          "indexed": true,
          "internalType": "address",
          "name": "previousOwner",
          "type": "address"
        },
        {
          "indexed": true,
          "internalType": "address",
          "name": "newOwner",
          "type": "address"
        }
      ],
      "name": "OwnershipTransferred",
      "type": "event"
    },
    {
      "anonymous": false,
      "inputs": [
        {
          "indexed": true,
          "internalType": "address",
          "name": "user",
          "type": "address"
        },
        {
          "indexed": false,
          "internalType": "uint256",
          "name": "qty",
          "type": "uint256"
        },
        {
          "indexed": false,
          "internalType": "uint256",
          "name": "price",
          "type": "uint256"
        },
        {
          "indexed": false,
          "internalType": "uint256",
          "name": "newWeightedPrice",
          "type": "uint256"
        }
      ],
      "name": "PurchaseRecorded",
      "type": "event"
    },
    {
      "anonymous": false,
      "inputs": [
        {
          "indexed": true,
          "internalType": "address",
          "name": "user",
          "type": "address"
        },
        {
          "indexed": false,
          "internalType": "uint256",
          "name": "qty",
          "type": "uint256"
        },
        {
          "indexed": false,
          "internalType": "uint256",
          "name": "refPrice",
          "type": "uint256"
        },
        {
          "indexed": false,
          "internalType": "uint256",
          "name": "lossRateBps",
          "type": "uint256"
        },
        {
          "indexed": false,
          "internalType": "uint256",
          "name": "payoutBps",
          "type": "uint256"
        },
        {
          "indexed": false,
          "internalType": "uint256",
          "name": "payoutBnb",
          "type": "uint256"
        }
      ],
      "name": "Redeemed",
      "type": "event"
    },
    {
      "anonymous": false,
      "inputs": [
        {
          "indexed": false,
          "internalType": "uint256",
          "name": "amount",
          "type": "uint256"
        }
      ],
      "name": "RewardReceived",
      "type": "event"
    },
    {
      "anonymous": false,
      "inputs": [
        {
          "indexed": true,
          "internalType": "address",
          "name": "prev",
          "type": "address"
        },
        {
          "indexed": true,
          "internalType": "address",
          "name": "next",
          "type": "address"
        }
      ],
      "name": "SignerUpdated",
      "type": "event"
    },
    {
      "stateMutability": "payable",
      "type": "fallback"
    },
    {
      "inputs": [],
      "name": "BURN_ADDRESS",
      "outputs": [
        {
          "internalType": "address",
          "name": "",
          "type": "address"
        }
      ],
      "stateMutability": "view",
      "type": "function"
    },
    {
      "inputs": [],
      "name": "cnova",
      "outputs": [
        {
          "internalType": "contract IERC20",
          "name": "",
          "type": "address"
        }
      ],
      "stateMutability": "view",
      "type": "function"
    },
    {
      "inputs": [],
      "name": "emergencyWithdraw",
      "outputs": [],
      "stateMutability": "nonpayable",
      "type": "function"
    },
    {
      "inputs": [],
      "name": "emergencyZero",
      "outputs": [
        {
          "internalType": "bool",
          "name": "",
          "type": "bool"
        }
      ],
      "stateMutability": "view",
      "type": "function"
    },
    {
      "inputs": [
        {
          "internalType": "address",
          "name": "user",
          "type": "address"
        },
        {
          "internalType": "uint256",
          "name": "qty",
          "type": "uint256"
        },
        {
          "internalType": "uint256",
          "name": "refPrice",
          "type": "uint256"
        }
      ],
      "name": "estimatedPayout",
      "outputs": [
        {
          "internalType": "uint256",
          "name": "payoutBnb",
          "type": "uint256"
        },
        {
          "internalType": "uint256",
          "name": "lossRateBps",
          "type": "uint256"
        },
        {
          "internalType": "uint256",
          "name": "payoutBps",
          "type": "uint256"
        }
      ],
      "stateMutability": "view",
      "type": "function"
    },
    {
      "inputs": [
        {
          "internalType": "address",
          "name": "",
          "type": "address"
        }
      ],
      "name": "nonces",
      "outputs": [
        {
          "internalType": "uint256",
          "name": "",
          "type": "uint256"
        }
      ],
      "stateMutability": "view",
      "type": "function"
    },
    {
      "inputs": [],
      "name": "notifyReward",
      "outputs": [],
      "stateMutability": "payable",
      "type": "function"
    },
    {
      "inputs": [],
      "name": "owner",
      "outputs": [
        {
          "internalType": "address",
          "name": "",
          "type": "address"
        }
      ],
      "stateMutability": "view",
      "type": "function"
    },
    {
      "inputs": [
        {
          "internalType": "address",
          "name": "",
          "type": "address"
        }
      ],
      "name": "protectedBalance",
      "outputs": [
        {
          "internalType": "uint256",
          "name": "",
          "type": "uint256"
        }
      ],
      "stateMutability": "view",
      "type": "function"
    },
    {
      "inputs": [
        {
          "internalType": "uint256",
          "name": "qty",
          "type": "uint256"
        },
        {
          "internalType": "uint256",
          "name": "pricePerToken",
          "type": "uint256"
        }
      ],
      "name": "recordPurchase",
      "outputs": [],
      "stateMutability": "nonpayable",
      "type": "function"
    },
    {
      "inputs": [
        {
          "internalType": "uint256",
          "name": "redeemQty",
          "type": "uint256"
        },
        {
          "internalType": "uint256",
          "name": "refPrice",
          "type": "uint256"
        },
        {
          "internalType": "uint256",
          "name": "deadline",
          "type": "uint256"
        },
        {
          "internalType": "uint8",
          "name": "v",
          "type": "uint8"
        },
        {
          "internalType": "bytes32",
          "name": "r",
          "type": "bytes32"
        },
        {
          "internalType": "bytes32",
          "name": "s",
          "type": "bytes32"
        }
      ],
      "name": "redeem",
      "outputs": [],
      "stateMutability": "nonpayable",
      "type": "function"
    },
    {
      "inputs": [],
      "name": "renounceOwnership",
      "outputs": [],
      "stateMutability": "nonpayable",
      "type": "function"
    },
    {
      "inputs": [
        {
          "internalType": "bool",
          "name": "_enabled",
          "type": "bool"
        }
      ],
      "name": "setEmergencyZero",
      "outputs": [],
      "stateMutability": "nonpayable",
      "type": "function"
    },
    {
      "inputs": [
        {
          "internalType": "address",
          "name": "_signer",
          "type": "address"
        }
      ],
      "name": "setSigner",
      "outputs": [],
      "stateMutability": "nonpayable",
      "type": "function"
    },
    {
      "inputs": [],
      "name": "signer",
      "outputs": [
        {
          "internalType": "address",
          "name": "",
          "type": "address"
        }
      ],
      "stateMutability": "view",
      "type": "function"
    },
    {
      "inputs": [],
      "name": "totalPaidOut",
      "outputs": [
        {
          "internalType": "uint256",
          "name": "",
          "type": "uint256"
        }
      ],
      "stateMutability": "view",
      "type": "function"
    },
    {
      "inputs": [],
      "name": "totalReceived",
      "outputs": [
        {
          "internalType": "uint256",
          "name": "",
          "type": "uint256"
        }
      ],
      "stateMutability": "view",
      "type": "function"
    },
    {
      "inputs": [
        {
          "internalType": "address",
          "name": "newOwner",
          "type": "address"
        }
      ],
      "name": "transferOwnership",
      "outputs": [],
      "stateMutability": "nonpayable",
      "type": "function"
    },
    {
      "inputs": [],
      "name": "vaultBalance",
      "outputs": [
        {
          "internalType": "uint256",
          "name": "",
          "type": "uint256"
        }
      ],
      "stateMutability": "view",
      "type": "function"
    },
    {
      "inputs": [
        {
          "internalType": "address",
          "name": "",
          "type": "address"
        }
      ],
      "name": "weightedBuyPrice",
      "outputs": [
        {
          "internalType": "uint256",
          "name": "",
          "type": "uint256"
        }
      ],
      "stateMutability": "view",
      "type": "function"
    },
    {
      "stateMutability": "payable",
      "type": "receive"
    }
  ],
  "bytecode": "0x60803461012057601f610e8238819003918201601f19168301916001600160401b038311848410176101245780849260409485528339810103126101205761004681610138565b906001600160a01b039061005c90602001610138565b1690811561010d575f80546001600160a01b031981168417825560405193916001600160a01b03909116907f8be0079c531659141344cd1fd0a4f28419497f9722a3daafe3b4186f6b6457e09080a360017f9b779b17422d0df92223018b32b4d1fa46e071723d6817e2486d003becc55f00556001600160a01b031680156100fe57600180546001600160a01b031916919091179055610d35908161014d8239f35b63d92e233d60e01b5f5260045ffd5b631e4fbdf760e01b5f525f60045260245ffd5b5f80fd5b634e487b7160e01b5f52604160045260245ffd5b51906001600160a01b03821682036101205756fe60806040526004361015610026575b361561001e5761001c610b16565b005b61001c610b16565b5f3560e01c8062df21fe146106965780630bf6cc081461067b5780631357e1dc1461065e578063238ac9331461063657806323cbf298146106115780633dc1a23b146105d95780634da6eb23146104d95780635d54bda4146104c65780636c19e78314610445578063715018a6146103ee5780637ecebe00146103b6578063822780a91461034a578063859b1e75146103125780638da5cb5b146102eb578063a3c2c462146102ce578063b4185af0146102a6578063baec51e514610259578063db2e21bc146101aa578063f2fde38b146101255763fccc28130361000e5734610121575f36600319011261012157602060405161dead8152f35b5f80fd5b346101215760203660031901126101215761013e610a40565b610146610cb9565b6001600160a01b03168015610197575f80546001600160a01b03198116831782556001600160a01b0316907f8be0079c531659141344cd1fd0a4f28419497f9722a3daafe3b4186f6b6457e09080a3005b631e4fbdf760e01b5f525f60045260245ffd5b34610121575f366003190112610121576101c2610cb9565b6101ca610c19565b47801561024a575f8080808460018060a01b038254165af16101ea610ad7565b501561023b575f546040519182526001600160a01b0316907f2e39961a70a10f4d46383948095ac2752b3ee642a7c76aa827410aaff08c2e5190602090a260015f516020610ce05f395f51905f5255005b6312171d8360e31b5f5260045ffd5b6314ecd6c760e01b5f5260045ffd5b34610121576060366003190112610121576102a2610285610278610a40565b6044359060243590610b51565b604080519384526020840192909252908201529081906060820190565b0390f35b34610121575f366003190112610121576001546040516001600160a01b039091168152602090f35b34610121575f366003190112610121576020600354604051908152f35b34610121575f366003190112610121575f546040516001600160a01b039091168152602090f35b34610121576020366003190112610121576001600160a01b03610333610a40565b165f526005602052602060405f2054604051908152f35b34610121576020366003190112610121576004358015158091036101215760207fe561d2c3e8a199397605dfef7791dd42919aa503640a5b4f0e936eaf8135505691610394610cb9565b6002805460ff60a01b191660a083901b60ff60a01b16179055604051908152a1005b34610121576020366003190112610121576001600160a01b036103d7610a40565b165f526007602052602060405f2054604051908152f35b34610121575f36600319011261012157610406610cb9565b5f80546001600160a01b0319811682556001600160a01b03167f8be0079c531659141344cd1fd0a4f28419497f9722a3daafe3b4186f6b6457e08280a3005b346101215760203660031901126101215761045e610a40565b610466610cb9565b6001600160a01b031680156104b757600254816001600160a01b0382167f2d025324f0a785e8c12d0a0d91a9caa49df4ef20ff87e0df7213a1d4f3157beb5f80a36001600160a01b03191617600255005b63d92e233d60e01b5f5260045ffd5b5f3660031901126101215761001c610b16565b346101215760403660031901126101215760043560243581156105ca5780156105ca577f44c435acf955178e071765bda720417309bf98339b85a9b1d917dedd9895a18690335f5260066020528260405f2054335f52600560205260405f205481155f1461059457505050805b335f52600660205260405f2061055d858254610aca565b9055335f5260056020528160405f205561058f6040519283923396846040919493926060820195825260208201520152565b0390a2005b6105c4926105b86105a8846105be94610a99565b6105b28388610a99565b90610aca565b92610aca565b90610aac565b90610546565b631f2a200560e01b5f5260045ffd5b34610121576020366003190112610121576001600160a01b036105fa610a40565b165f526006602052602060405f2054604051908152f35b34610121575f36600319011261012157602060ff60025460a01c166040519015158152f35b34610121575f366003190112610121576002546040516001600160a01b039091168152602090f35b34610121575f366003190112610121576020600454604051908152f35b34610121575f36600319011261012157602047604051908152f35b346101215760c03660031901126101215760043560243560443560643560ff8116809103610121576106c6610c19565b83156105ca57814211610a3157335f52600560205260405f205415610a2257335f5260066020528360405f205410610a135760805f916020933384526007855260408420549060405190868201926f2137ba3a37b6a83937ba32b1ba34b7b760811b84524660308401523060601b6050840152886064840152608483015260a482015260a4815261075860c482610a56565b519020604051858101917f19457468657265756d205369676e6564204d6573736167653a0a3332000000008352603c820152603c8152610799605c82610a56565b5190209060405191825284820152608435604082015260a435606082015282805260015afa1561096d575f516001600160a01b031680159081156109fd575b506109ee57335f52600760205260405f2080545f1981146109cb576001019055335f52600560205260405f2054811580156109df575b15610987576127105b61082081610c51565b9182156109785761084783670de0b6b3a76400006108416127109489610a99565b04610a99565b049283156105ca5783471061024a57335f52600660205260405f2061086d868254610a8c565b905561087b84600454610aca565b6004555f602060018060a01b03600154166064604051809481936323b872dd60e01b835233600484015261dead60248401528b60448401525af190811561096d575f91610932575b501561023b575f80808087335af16108d9610ad7565b501561023b5760405194855260208501526040840152606083015260808201527f09018aaedaafcf3a655b4c0e4a7c39bad2f98f367ef23f57b6d9062057db754760a03392a260015f516020610ce05f395f51905f5255005b90506020813d602011610965575b8161094d60209383610a56565b810103126101215751801515810361012157866108c3565b3d9150610940565b6040513d5f823e3d90fd5b63ef68106560e01b5f5260045ffd5b80821061099d5763ef68106560e01b5f5260045ffd5b6109a78282610a8c565b61271081029080820461271014901517156109cb57816109c691610aac565b610817565b634e487b7160e01b5f52601160045260245ffd5b5060ff60025460a01c1661080e565b638baa579f60e01b5f5260045ffd5b6002546001600160a01b031614159050836107d8565b636e88159360e11b5f5260045ffd5b6326cf11bd60e01b5f5260045ffd5b630819bdcd60e01b5f5260045ffd5b600435906001600160a01b038216820361012157565b90601f8019910116810190811067ffffffffffffffff821117610a7857604052565b634e487b7160e01b5f52604160045260245ffd5b919082039182116109cb57565b818102929181159184041417156109cb57565b8115610ab6570490565b634e487b7160e01b5f52601260045260245ffd5b919082018092116109cb57565b3d15610b11573d9067ffffffffffffffff8211610a785760405191610b06601f8201601f191660200184610a56565b82523d5f602084013e565b606090565b610b2234600354610aca565b6003557f562ff1d6fee77720385c79d29bef3c90c5a796b161826766d09a972bda104a3c6020604051348152a1565b6001600160a01b03165f90815260056020526040902054909181158015610c11575b610c065780158015610bf7575b15610bb05750612710610bac81935b670de0b6b3a7640000610841610ba487610c51565b958693610a99565b0492565b818110610bc2575050505f905f905f90565b610bcc9082610a8c565b61271081029080820461271014901517156109cb57610bac610bf18361271093610aac565b93610b8f565b5060ff60025460a01c16610b80565b5050505f905f905f90565b508215610b73565b60025f516020610ce05f395f51905f525414610c425760025f516020610ce05f395f51905f5255565b633ee5aeb560e01b5f5260045ffd5b612710811015610cb257612328811015610cab57611f40811015610ca457611b58811015610c9d57611770811015610c96576113881115610c90575f90565b610bb890565b5061138890565b5061177090565b50611b5890565b50611f4090565b5061271090565b5f546001600160a01b03163303610ccc57565b63118cdaa760e01b5f523360045260245ffdfe9b779b17422d0df92223018b32b4d1fa46e071723d6817e2486d003becc55f00a2646970667358221220c1580ff25f6d788e0d025069848d42b5b6d83d01b5f4c43ce4e04e9466f783da64736f6c634300081c0033",
  "linkReferences": {},
  "deployedLinkReferences": {}
}