{
  "_format": "hh-sol-artifact-1",
  "contractName": "CNovaWrappedToken",
  "sourceName": "contracts/CNovaWrappedToken.sol",
  "abi": [
    {
      "inputs": [
        {
          "internalType": "string",
          "name": "name_",
          "type": "string"
        },
        {
          "internalType": "string",
          "name": "symbol_",
          "type": "string"
        },
        {
          "internalType": "uint8",
          "name": "decimals_",
          "type": "uint8"
        },
        {
          "internalType": "address",
          "name": "initialOwner_",
          "type": "address"
        }
      ],
      "stateMutability": "nonpayable",
      "type": "constructor"
    },
    {
      "inputs": [
        {
          "internalType": "address",
          "name": "spender",
          "type": "address"
        },
        {
          "internalType": "uint256",
          "name": "allowance",
          "type": "uint256"
        },
        {
          "internalType": "uint256",
          "name": "needed",
          "type": "uint256"
        }
      ],
      "name": "ERC20InsufficientAllowance",
      "type": "error"
    },
    {
      "inputs": [
        {
          "internalType": "address",
          "name": "sender",
          "type": "address"
        },
        {
          "internalType": "uint256",
          "name": "balance",
          "type": "uint256"
        },
        {
          "internalType": "uint256",
          "name": "needed",
          "type": "uint256"
        }
      ],
      "name": "ERC20InsufficientBalance",
      "type": "error"
    },
    {
      "inputs": [
        {
          "internalType": "address",
          "name": "approver",
          "type": "address"
        }
      ],
      "name": "ERC20InvalidApprover",
      "type": "error"
    },
    {
      "inputs": [
        {
          "internalType": "address",
          "name": "receiver",
          "type": "address"
        }
      ],
      "name": "ERC20InvalidReceiver",
      "type": "error"
    },
    {
      "inputs": [
        {
          "internalType": "address",
          "name": "sender",
          "type": "address"
        }
      ],
      "name": "ERC20InvalidSender",
      "type": "error"
    },
    {
      "inputs": [
        {
          "internalType": "address",
          "name": "spender",
          "type": "address"
        }
      ],
      "name": "ERC20InvalidSpender",
      "type": "error"
    },
    {
      "inputs": [],
      "name": "OnlyBridge",
      "type": "error"
    },
    {
      "inputs": [
        {
          "internalType": "address",
          "name": "owner",
          "type": "address"
        }
      ],
      "name": "OwnableInvalidOwner",
      "type": "error"
    },
    {
      "inputs": [
        {
          "internalType": "address",
          "name": "account",
          "type": "address"
        }
      ],
      "name": "OwnableUnauthorizedAccount",
      "type": "error"
    },
    {
      "inputs": [],
      "name": "ZeroAddress",
      "type": "error"
    },
    {
      "anonymous": false,
      "inputs": [
        {
          "indexed": true,
          "internalType": "address",
          "name": "owner",
          "type": "address"
        },
        {
          "indexed": true,
          "internalType": "address",
          "name": "spender",
          "type": "address"
        },
        {
          "indexed": false,
          "internalType": "uint256",
          "name": "value",
          "type": "uint256"
        }
      ],
      "name": "Approval",
      "type": "event"
    },
    {
      "anonymous": false,
      "inputs": [
        {
          "indexed": true,
          "internalType": "address",
          "name": "oldBridge",
          "type": "address"
        },
        {
          "indexed": true,
          "internalType": "address",
          "name": "newBridge",
          "type": "address"
        }
      ],
      "name": "BridgeUpdated",
      "type": "event"
    },
    {
      "anonymous": false,
      "inputs": [
        {
          "indexed": true,
          "internalType": "address",
          "name": "previousOwner",
          "type": "address"
        },
        {
          "indexed": true,
          "internalType": "address",
          "name": "newOwner",
          "type": "address"
        }
      ],
      "name": "OwnershipTransferred",
      "type": "event"
    },
    {
      "anonymous": false,
      "inputs": [
        {
          "indexed": true,
          "internalType": "address",
          "name": "from",
          "type": "address"
        },
        {
          "indexed": true,
          "internalType": "address",
          "name": "to",
          "type": "address"
        },
        {
          "indexed": false,
          "internalType": "uint256",
          "name": "value",
          "type": "uint256"
        }
      ],
      "name": "Transfer",
      "type": "event"
    },
    {
      "inputs": [
        {
          "internalType": "address",
          "name": "owner",
          "type": "address"
        },
        {
          "internalType": "address",
          "name": "spender",
          "type": "address"
        }
      ],
      "name": "allowance",
      "outputs": [
        {
          "internalType": "uint256",
          "name": "",
          "type": "uint256"
        }
      ],
      "stateMutability": "view",
      "type": "function"
    },
    {
      "inputs": [
        {
          "internalType": "address",
          "name": "spender",
          "type": "address"
        },
        {
          "internalType": "uint256",
          "name": "value",
          "type": "uint256"
        }
      ],
      "name": "approve",
      "outputs": [
        {
          "internalType": "bool",
          "name": "",
          "type": "bool"
        }
      ],
      "stateMutability": "nonpayable",
      "type": "function"
    },
    {
      "inputs": [
        {
          "internalType": "address",
          "name": "account",
          "type": "address"
        }
      ],
      "name": "balanceOf",
      "outputs": [
        {
          "internalType": "uint256",
          "name": "",
          "type": "uint256"
        }
      ],
      "stateMutability": "view",
      "type": "function"
    },
    {
      "inputs": [],
      "name": "bridge",
      "outputs": [
        {
          "internalType": "address",
          "name": "",
          "type": "address"
        }
      ],
      "stateMutability": "view",
      "type": "function"
    },
    {
      "inputs": [
        {
          "internalType": "address",
          "name": "from",
          "type": "address"
        },
        {
          "internalType": "uint256",
          "name": "amount",
          "type": "uint256"
        }
      ],
      "name": "burnFromBridge",
      "outputs": [],
      "stateMutability": "nonpayable",
      "type": "function"
    },
    {
      "inputs": [],
      "name": "decimals",
      "outputs": [
        {
          "internalType": "uint8",
          "name": "",
          "type": "uint8"
        }
      ],
      "stateMutability": "view",
      "type": "function"
    },
    {
      "inputs": [
        {
          "internalType": "address",
          "name": "to",
          "type": "address"
        },
        {
          "internalType": "uint256",
          "name": "amount",
          "type": "uint256"
        }
      ],
      "name": "mint",
      "outputs": [],
      "stateMutability": "nonpayable",
      "type": "function"
    },
    {
      "inputs": [],
      "name": "name",
      "outputs": [
        {
          "internalType": "string",
          "name": "",
          "type": "string"
        }
      ],
      "stateMutability": "view",
      "type": "function"
    },
    {
      "inputs": [],
      "name": "owner",
      "outputs": [
        {
          "internalType": "address",
          "name": "",
          "type": "address"
        }
      ],
      "stateMutability": "view",
      "type": "function"
    },
    {
      "inputs": [],
      "name": "renounceOwnership",
      "outputs": [],
      "stateMutability": "nonpayable",
      "type": "function"
    },
    {
      "inputs": [
        {
          "internalType": "address",
          "name": "newBridge",
          "type": "address"
        }
      ],
      "name": "setBridge",
      "outputs": [],
      "stateMutability": "nonpayable",
      "type": "function"
    },
    {
      "inputs": [],
      "name": "symbol",
      "outputs": [
        {
          "internalType": "string",
          "name": "",
          "type": "string"
        }
      ],
      "stateMutability": "view",
      "type": "function"
    },
    {
      "inputs": [],
      "name": "totalSupply",
      "outputs": [
        {
          "internalType": "uint256",
          "name": "",
          "type": "uint256"
        }
      ],
      "stateMutability": "view",
      "type": "function"
    },
    {
      "inputs": [
        {
          "internalType": "address",
          "name": "to",
          "type": "address"
        },
        {
          "internalType": "uint256",
          "name": "value",
          "type": "uint256"
        }
      ],
      "name": "transfer",
      "outputs": [
        {
          "internalType": "bool",
          "name": "",
          "type": "bool"
        }
      ],
      "stateMutability": "nonpayable",
      "type": "function"
    },
    {
      "inputs": [
        {
          "internalType": "address",
          "name": "from",
          "type": "address"
        },
        {
          "internalType": "address",
          "name": "to",
          "type": "address"
        },
        {
          "internalType": "uint256",
          "name": "value",
          "type": "uint256"
        }
      ],
      "name": "transferFrom",
      "outputs": [
        {
          "internalType": "bool",
          "name": "",
          "type": "bool"
        }
      ],
      "stateMutability": "nonpayable",
      "type": "function"
    },
    {
      "inputs": [
        {
          "internalType": "address",
          "name": "newOwner",
          "type": "address"
        }
      ],
      "name": "transferOwnership",
      "outputs": [],
      "stateMutability": "nonpayable",
      "type": "function"
    }
  ],
  "bytecode": "0x608060405234801561000f575f5ffd5b50604051610d99380380610d9983398101604081905261002e91610199565b808484600361003d83826102b7565b50600461004a82826102b7565b5050506001600160a01b03811661007a57604051631e4fbdf760e01b81525f600482015260240160405180910390fd5b610083816100ab565b50506005805460ff909216600160a01b0260ff60a01b19909216919091179055506103719050565b600580546001600160a01b038381166001600160a01b0319831681179093556040519116919082907f8be0079c531659141344cd1fd0a4f28419497f9722a3daafe3b4186f6b6457e0905f90a35050565b634e487b7160e01b5f52604160045260245ffd5b5f82601f83011261011f575f5ffd5b81516001600160401b03811115610138576101386100fc565b604051601f8201601f19908116603f011681016001600160401b0381118282101715610166576101666100fc565b60405281815283820160200185101561017d575f5ffd5b8160208501602083015e5f918101602001919091529392505050565b5f5f5f5f608085870312156101ac575f5ffd5b84516001600160401b038111156101c1575f5ffd5b6101cd87828801610110565b602087015190955090506001600160401b038111156101ea575f5ffd5b6101f687828801610110565b935050604085015160ff8116811461020c575f5ffd5b60608601519092506001600160a01b0381168114610228575f5ffd5b939692955090935050565b600181811c9082168061024757607f821691505b60208210810361026557634e487b7160e01b5f52602260045260245ffd5b50919050565b601f8211156102b257805f5260205f20601f840160051c810160208510156102905750805b601f840160051c820191505b818110156102af575f815560010161029c565b50505b505050565b81516001600160401b038111156102d0576102d06100fc565b6102e4816102de8454610233565b8461026b565b6020601f821160018114610316575f83156102ff5750848201515b5f19600385901b1c1916600184901b1784556102af565b5f84815260208120601f198516915b828110156103455787850151825560209485019460019092019101610325565b508482101561036257868401515f19600387901b60f8161c191681555b50505050600190811b01905550565b610a1b8061037e5f395ff3fe608060405234801561000f575f5ffd5b50600436106100fb575f3560e01c8063715018a611610093578063a9059cbb11610063578063a9059cbb1461021c578063dd62ed3e1461022f578063e78cea9214610267578063f2fde38b1461027a575f5ffd5b8063715018a6146101d45780638da5cb5b146101dc5780638dd148021461020157806395d89b4114610214575f5ffd5b8063313ce567116100ce578063313ce5671461016557806340c10f1914610184578063568b4afe1461019957806370a08231146101ac575f5ffd5b806306fdde03146100ff578063095ea7b31461011d57806318160ddd1461014057806323b872dd14610152575b5f5ffd5b61010761028d565b604051610114919061088b565b60405180910390f35b61013061012b3660046108db565b61031d565b6040519015158152602001610114565b6002545b604051908152602001610114565b610130610160366004610903565b610336565b600554600160a01b900460ff1660405160ff9091168152602001610114565b6101976101923660046108db565b610359565b005b6101976101a73660046108db565b610392565b6101446101ba36600461093d565b6001600160a01b03165f9081526020819052604090205490565b6101976103c7565b6005546001600160a01b03165b6040516001600160a01b039091168152602001610114565b61019761020f36600461093d565b6103da565b610107610464565b61013061022a3660046108db565b610473565b61014461023d36600461095d565b6001600160a01b039182165f90815260016020908152604080832093909416825291909152205490565b6006546101e9906001600160a01b031681565b61019761028836600461093d565b610480565b60606003805461029c9061098e565b80601f01602080910402602001604051908101604052809291908181526020018280546102c89061098e565b80156103135780601f106102ea57610100808354040283529160200191610313565b820191905f5260205f20905b8154815290600101906020018083116102f657829003601f168201915b5050505050905090565b5f3361032a8185856104c2565b60019150505b92915050565b5f336103438582856104d4565b61034e858585610550565b506001949350505050565b6006546001600160a01b03163314610384576040516338da3b1560e01b815260040160405180910390fd5b61038e82826105ad565b5050565b6006546001600160a01b031633146103bd576040516338da3b1560e01b815260040160405180910390fd5b61038e82826105e1565b6103cf610615565b6103d85f610642565b565b6103e2610615565b6001600160a01b0381166104095760405163d92e233d60e01b815260040160405180910390fd5b6006546040516001600160a01b038084169216907faae9beddccf584528e87b66c6ff2563825c8a1433305b8a656e9b5f9bf390499905f90a3600680546001600160a01b0319166001600160a01b0392909216919091179055565b60606004805461029c9061098e565b5f3361032a818585610550565b610488610615565b6001600160a01b0381166104b657604051631e4fbdf760e01b81525f60048201526024015b60405180910390fd5b6104bf81610642565b50565b6104cf8383836001610693565b505050565b6001600160a01b038381165f908152600160209081526040808320938616835292905220545f1981101561054a578181101561053c57604051637dc7a0d960e11b81526001600160a01b038416600482015260248101829052604481018390526064016104ad565b61054a84848484035f610693565b50505050565b6001600160a01b03831661057957604051634b637e8f60e11b81525f60048201526024016104ad565b6001600160a01b0382166105a25760405163ec442f0560e01b81525f60048201526024016104ad565b6104cf838383610765565b6001600160a01b0382166105d65760405163ec442f0560e01b81525f60048201526024016104ad565b61038e5f8383610765565b6001600160a01b03821661060a57604051634b637e8f60e11b81525f60048201526024016104ad565b61038e825f83610765565b6005546001600160a01b031633146103d85760405163118cdaa760e01b81523360048201526024016104ad565b600580546001600160a01b038381166001600160a01b0319831681179093556040519116919082907f8be0079c531659141344cd1fd0a4f28419497f9722a3daafe3b4186f6b6457e0905f90a35050565b6001600160a01b0384166106bc5760405163e602df0560e01b81525f60048201526024016104ad565b6001600160a01b0383166106e557604051634a1406b160e11b81525f60048201526024016104ad565b6001600160a01b038085165f908152600160209081526040808320938716835292905220829055801561054a57826001600160a01b0316846001600160a01b03167f8c5be1e5ebec7d5bd14f71427d1e84f3dd0314c0f7b2291e5b200ac8c7c3b9258460405161075791815260200190565b60405180910390a350505050565b6001600160a01b03831661078f578060025f82825461078491906109c6565b909155506107ff9050565b6001600160a01b0383165f90815260208190526040902054818110156107e15760405163391434e360e21b81526001600160a01b038516600482015260248101829052604481018390526064016104ad565b6001600160a01b0384165f9081526020819052604090209082900390555b6001600160a01b03821661081b57600280548290039055610839565b6001600160a01b0382165f9081526020819052604090208054820190555b816001600160a01b0316836001600160a01b03167fddf252ad1be2c89b69c2b068fc378daa952ba7f163c4a11628f55a4df523b3ef8360405161087e91815260200190565b60405180910390a3505050565b602081525f82518060208401528060208501604085015e5f604082850101526040601f19601f83011684010191505092915050565b80356001600160a01b03811681146108d6575f5ffd5b919050565b5f5f604083850312156108ec575f5ffd5b6108f5836108c0565b946020939093013593505050565b5f5f5f60608486031215610915575f5ffd5b61091e846108c0565b925061092c602085016108c0565b929592945050506040919091013590565b5f6020828403121561094d575f5ffd5b610956826108c0565b9392505050565b5f5f6040838503121561096e575f5ffd5b610977836108c0565b9150610985602084016108c0565b90509250929050565b600181811c908216806109a257607f821691505b6020821081036109c057634e487b7160e01b5f52602260045260245ffd5b50919050565b8082018082111561033057634e487b7160e01b5f52601160045260245ffdfea2646970667358221220a45490a77186e07d688146052aec4d2a311d01066a61f5b1997c3924975def9e64736f6c634300081c0033",
  "linkReferences": {},
  "deployedLinkReferences": {}
}