{
  "_format": "hh-sol-artifact-1",
  "contractName": "CNovaWrappedToken",
  "sourceName": "contracts/CNovaWrappedToken.sol",
  "abi": [
    {
      "inputs": [
        {
          "internalType": "string",
          "name": "name_",
          "type": "string"
        },
        {
          "internalType": "string",
          "name": "symbol_",
          "type": "string"
        },
        {
          "internalType": "uint8",
          "name": "decimals_",
          "type": "uint8"
        },
        {
          "internalType": "address",
          "name": "initialOwner_",
          "type": "address"
        }
      ],
      "stateMutability": "nonpayable",
      "type": "constructor"
    },
    {
      "inputs": [
        {
          "internalType": "address",
          "name": "spender",
          "type": "address"
        },
        {
          "internalType": "uint256",
          "name": "allowance",
          "type": "uint256"
        },
        {
          "internalType": "uint256",
          "name": "needed",
          "type": "uint256"
        }
      ],
      "name": "ERC20InsufficientAllowance",
      "type": "error"
    },
    {
      "inputs": [
        {
          "internalType": "address",
          "name": "sender",
          "type": "address"
        },
        {
          "internalType": "uint256",
          "name": "balance",
          "type": "uint256"
        },
        {
          "internalType": "uint256",
          "name": "needed",
          "type": "uint256"
        }
      ],
      "name": "ERC20InsufficientBalance",
      "type": "error"
    },
    {
      "inputs": [
        {
          "internalType": "address",
          "name": "approver",
          "type": "address"
        }
      ],
      "name": "ERC20InvalidApprover",
      "type": "error"
    },
    {
      "inputs": [
        {
          "internalType": "address",
          "name": "receiver",
          "type": "address"
        }
      ],
      "name": "ERC20InvalidReceiver",
      "type": "error"
    },
    {
      "inputs": [
        {
          "internalType": "address",
          "name": "sender",
          "type": "address"
        }
      ],
      "name": "ERC20InvalidSender",
      "type": "error"
    },
    {
      "inputs": [
        {
          "internalType": "address",
          "name": "spender",
          "type": "address"
        }
      ],
      "name": "ERC20InvalidSpender",
      "type": "error"
    },
    {
      "inputs": [],
      "name": "OnlyBridge",
      "type": "error"
    },
    {
      "inputs": [
        {
          "internalType": "address",
          "name": "owner",
          "type": "address"
        }
      ],
      "name": "OwnableInvalidOwner",
      "type": "error"
    },
    {
      "inputs": [
        {
          "internalType": "address",
          "name": "account",
          "type": "address"
        }
      ],
      "name": "OwnableUnauthorizedAccount",
      "type": "error"
    },
    {
      "inputs": [],
      "name": "ZeroAddress",
      "type": "error"
    },
    {
      "anonymous": false,
      "inputs": [
        {
          "indexed": true,
          "internalType": "address",
          "name": "owner",
          "type": "address"
        },
        {
          "indexed": true,
          "internalType": "address",
          "name": "spender",
          "type": "address"
        },
        {
          "indexed": false,
          "internalType": "uint256",
          "name": "value",
          "type": "uint256"
        }
      ],
      "name": "Approval",
      "type": "event"
    },
    {
      "anonymous": false,
      "inputs": [
        {
          "indexed": true,
          "internalType": "address",
          "name": "oldBridge",
          "type": "address"
        },
        {
          "indexed": true,
          "internalType": "address",
          "name": "newBridge",
          "type": "address"
        }
      ],
      "name": "BridgeUpdated",
      "type": "event"
    },
    {
      "anonymous": false,
      "inputs": [
        {
          "indexed": true,
          "internalType": "address",
          "name": "previousOwner",
          "type": "address"
        },
        {
          "indexed": true,
          "internalType": "address",
          "name": "newOwner",
          "type": "address"
        }
      ],
      "name": "OwnershipTransferred",
      "type": "event"
    },
    {
      "anonymous": false,
      "inputs": [
        {
          "indexed": true,
          "internalType": "address",
          "name": "from",
          "type": "address"
        },
        {
          "indexed": true,
          "internalType": "address",
          "name": "to",
          "type": "address"
        },
        {
          "indexed": false,
          "internalType": "uint256",
          "name": "value",
          "type": "uint256"
        }
      ],
      "name": "Transfer",
      "type": "event"
    },
    {
      "inputs": [
        {
          "internalType": "address",
          "name": "owner",
          "type": "address"
        },
        {
          "internalType": "address",
          "name": "spender",
          "type": "address"
        }
      ],
      "name": "allowance",
      "outputs": [
        {
          "internalType": "uint256",
          "name": "",
          "type": "uint256"
        }
      ],
      "stateMutability": "view",
      "type": "function"
    },
    {
      "inputs": [
        {
          "internalType": "address",
          "name": "spender",
          "type": "address"
        },
        {
          "internalType": "uint256",
          "name": "value",
          "type": "uint256"
        }
      ],
      "name": "approve",
      "outputs": [
        {
          "internalType": "bool",
          "name": "",
          "type": "bool"
        }
      ],
      "stateMutability": "nonpayable",
      "type": "function"
    },
    {
      "inputs": [
        {
          "internalType": "address",
          "name": "account",
          "type": "address"
        }
      ],
      "name": "balanceOf",
      "outputs": [
        {
          "internalType": "uint256",
          "name": "",
          "type": "uint256"
        }
      ],
      "stateMutability": "view",
      "type": "function"
    },
    {
      "inputs": [],
      "name": "bridge",
      "outputs": [
        {
          "internalType": "address",
          "name": "",
          "type": "address"
        }
      ],
      "stateMutability": "view",
      "type": "function"
    },
    {
      "inputs": [
        {
          "internalType": "address",
          "name": "from",
          "type": "address"
        },
        {
          "internalType": "uint256",
          "name": "amount",
          "type": "uint256"
        }
      ],
      "name": "burnFromBridge",
      "outputs": [],
      "stateMutability": "nonpayable",
      "type": "function"
    },
    {
      "inputs": [],
      "name": "decimals",
      "outputs": [
        {
          "internalType": "uint8",
          "name": "",
          "type": "uint8"
        }
      ],
      "stateMutability": "view",
      "type": "function"
    },
    {
      "inputs": [
        {
          "internalType": "address",
          "name": "to",
          "type": "address"
        },
        {
          "internalType": "uint256",
          "name": "amount",
          "type": "uint256"
        }
      ],
      "name": "mint",
      "outputs": [],
      "stateMutability": "nonpayable",
      "type": "function"
    },
    {
      "inputs": [],
      "name": "name",
      "outputs": [
        {
          "internalType": "string",
          "name": "",
          "type": "string"
        }
      ],
      "stateMutability": "view",
      "type": "function"
    },
    {
      "inputs": [],
      "name": "owner",
      "outputs": [
        {
          "internalType": "address",
          "name": "",
          "type": "address"
        }
      ],
      "stateMutability": "view",
      "type": "function"
    },
    {
      "inputs": [],
      "name": "renounceOwnership",
      "outputs": [],
      "stateMutability": "nonpayable",
      "type": "function"
    },
    {
      "inputs": [
        {
          "internalType": "address",
          "name": "newBridge",
          "type": "address"
        }
      ],
      "name": "setBridge",
      "outputs": [],
      "stateMutability": "nonpayable",
      "type": "function"
    },
    {
      "inputs": [],
      "name": "symbol",
      "outputs": [
        {
          "internalType": "string",
          "name": "",
          "type": "string"
        }
      ],
      "stateMutability": "view",
      "type": "function"
    },
    {
      "inputs": [],
      "name": "totalSupply",
      "outputs": [
        {
          "internalType": "uint256",
          "name": "",
          "type": "uint256"
        }
      ],
      "stateMutability": "view",
      "type": "function"
    },
    {
      "inputs": [
        {
          "internalType": "address",
          "name": "to",
          "type": "address"
        },
        {
          "internalType": "uint256",
          "name": "value",
          "type": "uint256"
        }
      ],
      "name": "transfer",
      "outputs": [
        {
          "internalType": "bool",
          "name": "",
          "type": "bool"
        }
      ],
      "stateMutability": "nonpayable",
      "type": "function"
    },
    {
      "inputs": [
        {
          "internalType": "address",
          "name": "from",
          "type": "address"
        },
        {
          "internalType": "address",
          "name": "to",
          "type": "address"
        },
        {
          "internalType": "uint256",
          "name": "value",
          "type": "uint256"
        }
      ],
      "name": "transferFrom",
      "outputs": [
        {
          "internalType": "bool",
          "name": "",
          "type": "bool"
        }
      ],
      "stateMutability": "nonpayable",
      "type": "function"
    },
    {
      "inputs": [
        {
          "internalType": "address",
          "name": "newOwner",
          "type": "address"
        }
      ],
      "name": "transferOwnership",
      "outputs": [],
      "stateMutability": "nonpayable",
      "type": "function"
    }
  ],
  "bytecode": "0x6080604052346103aa57610dbc80380380610019816103ae565b9283398101906080818303126103aa5780516001600160401b0381116103aa57826100459183016103d3565b602082015190926001600160401b0382116103aa576100659183016103d3565b9060408101519060ff821682036103aa57606001516001600160a01b038116908190036103aa5783516001600160401b0381116102bb57600354600181811c911680156103a0575b602082101461029d57601f811161033d575b50602094601f82116001146102da579481929394955f926102cf575b50508160011b915f199060031b1c1916176003555b82516001600160401b0381116102bb57600454600181811c911680156102b1575b602082101461029d57601f811161023a575b506020601f82116001146101d757819293945f926101cc575b50508160011b915f199060031b1c1916176004555b80156101b95760055460405192909190816001600160a01b0384167f8be0079c531659141344cd1fd0a4f28419497f9722a3daafe3b4186f6b6457e05f80a36001600160a81b03199092161760a09190911b60ff60a01b161760055561099790816104258239f35b631e4fbdf760e01b5f525f60045260245ffd5b015190505f8061013c565b601f1982169060045f52805f20915f5b8181106102225750958360019596971061020a575b505050811b01600455610151565b01515f1960f88460031b161c191690555f80806101fc565b9192602060018192868b0151815501940192016101e7565b60045f527f8a35acfbc15ff81a39ae7d344fd709f28e8600b4aa8c65c6b64bfe7fe36bd19b601f830160051c81019160208410610293575b601f0160051c01905b8181106102885750610123565b5f815560010161027b565b9091508190610272565b634e487b7160e01b5f52602260045260245ffd5b90607f1690610111565b634e487b7160e01b5f52604160045260245ffd5b015190505f806100db565b601f1982169560035f52805f20915f5b8881106103255750836001959697981061030d575b505050811b016003556100f0565b01515f1960f88460031b161c191690555f80806102ff565b919260206001819286850151815501940192016102ea565b60035f527fc2575a0e9e593c00f959f8c92f12db2869c3395a3b0502d05e2516446f71f85b601f830160051c81019160208410610396575b601f0160051c01905b81811061038b57506100bf565b5f815560010161037e565b9091508190610375565b90607f16906100ad565b5f80fd5b6040519190601f01601f191682016001600160401b038111838210176102bb57604052565b81601f820112156103aa578051906001600160401b0382116102bb57610402601f8301601f19166020016103ae565b92828452602083830101116103aa57815f9260208093018386015e830101529056fe6080806040526004361015610012575f80fd5b5f3560e01c90816306fdde031461077e57508063095ea7b3146106fc57806318160ddd146106df57806323b872dd14610600578063313ce567146105dd57806340c10f1914610526578063568b4afe1461045557806370a082311461041e578063715018a6146103c35780638da5cb5b1461039b5780638dd148021461031a57806395d89b41146101ff578063a9059cbb146101ce578063dd62ed3e1461017e578063e78cea92146101565763f2fde38b146100cc575f80fd5b34610152576020366003190112610152576100e5610877565b6100ed61093a565b6001600160a01b0316801561013f57600580546001600160a01b0319811683179091556001600160a01b03167f8be0079c531659141344cd1fd0a4f28419497f9722a3daafe3b4186f6b6457e05f80a3005b631e4fbdf760e01b5f525f60045260245ffd5b5f80fd5b34610152575f366003190112610152576006546040516001600160a01b039091168152602090f35b3461015257604036600319011261015257610197610877565b61019f61088d565b6001600160a01b039182165f908152600160209081526040808320949093168252928352819020549051908152f35b34610152576040366003190112610152576101f46101ea610877565b60243590336108a3565b602060405160018152f35b34610152575f366003190112610152576040515f6004548060011c90600181168015610310575b6020831081146102fc578285529081156102e0575060011461028b575b50819003601f01601f191681019067ffffffffffffffff821181831017610277576102738291826040528261084d565b0390f35b634e487b7160e01b5f52604160045260245ffd5b905060045f527f8a35acfbc15ff81a39ae7d344fd709f28e8600b4aa8c65c6b64bfe7fe36bd19b5f905b8282106102ca57506020915082010182610243565b60018160209254838588010152019101906102b5565b90506020925060ff191682840152151560051b82010182610243565b634e487b7160e01b5f52602260045260245ffd5b91607f1691610226565b3461015257602036600319011261015257610333610877565b61033b61093a565b6001600160a01b0316801561038c57600654816001600160a01b0382167faae9beddccf584528e87b66c6ff2563825c8a1433305b8a656e9b5f9bf3904995f80a36001600160a01b03191617600655005b63d92e233d60e01b5f5260045ffd5b34610152575f366003190112610152576005546040516001600160a01b039091168152602090f35b34610152575f366003190112610152576103db61093a565b600580546001600160a01b031981169091555f906001600160a01b03167f8be0079c531659141344cd1fd0a4f28419497f9722a3daafe3b4186f6b6457e08280a3005b34610152576020366003190112610152576001600160a01b0361043f610877565b165f525f602052602060405f2054604051908152f35b346101525760403660031901126101525761046e610877565b60065460243591906001600160a01b03163303610517576001600160a01b0316801561050457805f525f60205260405f20548281106104eb576020835f947fddf252ad1be2c89b69c2b068fc378daa952ba7f163c4a11628f55a4df523b3ef938587528684520360408620558060025403600255604051908152a3005b9063391434e360e21b5f5260045260245260445260645ffd5b634b637e8f60e11b5f525f60045260245ffd5b6338da3b1560e01b5f5260045ffd5b346101525760403660031901126101525761053f610877565b60065460243591906001600160a01b03163303610517576001600160a01b03169081156105ca57600254908082018092116105b65760207fddf252ad1be2c89b69c2b068fc378daa952ba7f163c4a11628f55a4df523b3ef915f9360025584845283825260408420818154019055604051908152a3005b634e487b7160e01b5f52601160045260245ffd5b63ec442f0560e01b5f525f60045260245ffd5b34610152575f36600319011261015257602060ff60055460a01c16604051908152f35b3461015257606036600319011261015257610619610877565b61062161088d565b6001600160a01b0382165f818152600160209081526040808320338452909152902054909260443592915f19811061065f575b506101f493506108a3565b8381106106c45784156106b157331561069e576101f4945f52600160205260405f2060018060a01b0333165f526020528360405f209103905584610654565b634a1406b160e11b5f525f60045260245ffd5b63e602df0560e01b5f525f60045260245ffd5b8390637dc7a0d960e11b5f523360045260245260445260645ffd5b34610152575f366003190112610152576020600254604051908152f35b3461015257604036600319011261015257610715610877565b6024359033156106b1576001600160a01b031690811561069e57335f52600160205260405f20825f526020528060405f20556040519081527f8c5be1e5ebec7d5bd14f71427d1e84f3dd0314c0f7b2291e5b200ac8c7c3b92560203392a3602060405160018152f35b34610152575f366003190112610152575f6003548060011c90600181168015610843575b6020831081146102fc578285529081156102e057506001146107ee5750819003601f01601f191681019067ffffffffffffffff821181831017610277576102738291826040528261084d565b905060035f527fc2575a0e9e593c00f959f8c92f12db2869c3395a3b0502d05e2516446f71f85b5f905b82821061082d57506020915082010182610243565b6001816020925483858801015201910190610818565b91607f16916107a2565b602060409281835280519182918282860152018484015e5f828201840152601f01601f1916010190565b600435906001600160a01b038216820361015257565b602435906001600160a01b038216820361015257565b6001600160a01b0316908115610504576001600160a01b03169182156105ca57815f525f60205260405f205481811061092157817fddf252ad1be2c89b69c2b068fc378daa952ba7f163c4a11628f55a4df523b3ef92602092855f525f84520360405f2055845f525f825260405f20818154019055604051908152a3565b8263391434e360e21b5f5260045260245260445260645ffd5b6005546001600160a01b0316330361094e57565b63118cdaa760e01b5f523360045260245ffdfea264697066735822122061265460ebfc3c420c15f5d0080b31cd29b0ab8d7fc8802517ea77b9d630496c64736f6c634300081c0033",
  "linkReferences": {},
  "deployedLinkReferences": {}
}